{
  "contractName": "AccessControlEnumerableMock",
  "abi": [
    {
      "inputs": [],
      "stateMutability": "nonpayable",
      "type": "constructor"
    },
    {
      "anonymous": false,
      "inputs": [
        {
          "indexed": true,
          "internalType": "bytes32",
          "name": "role",
          "type": "bytes32"
        },
        {
          "indexed": true,
          "internalType": "bytes32",
          "name": "previousAdminRole",
          "type": "bytes32"
        },
        {
          "indexed": true,
          "internalType": "bytes32",
          "name": "newAdminRole",
          "type": "bytes32"
        }
      ],
      "name": "RoleAdminChanged",
      "type": "event"
    },
    {
      "anonymous": false,
      "inputs": [
        {
          "indexed": true,
          "internalType": "bytes32",
          "name": "role",
          "type": "bytes32"
        },
        {
          "indexed": true,
          "internalType": "address",
          "name": "account",
          "type": "address"
        },
        {
          "indexed": true,
          "internalType": "address",
          "name": "sender",
          "type": "address"
        }
      ],
      "name": "RoleGranted",
      "type": "event"
    },
    {
      "anonymous": false,
      "inputs": [
        {
          "indexed": true,
          "internalType": "bytes32",
          "name": "role",
          "type": "bytes32"
        },
        {
          "indexed": true,
          "internalType": "address",
          "name": "account",
          "type": "address"
        },
        {
          "indexed": true,
          "internalType": "address",
          "name": "sender",
          "type": "address"
        }
      ],
      "name": "RoleRevoked",
      "type": "event"
    },
    {
      "inputs": [],
      "name": "DEFAULT_ADMIN_ROLE",
      "outputs": [
        {
          "internalType": "bytes32",
          "name": "",
          "type": "bytes32"
        }
      ],
      "stateMutability": "view",
      "type": "function"
    },
    {
      "inputs": [
        {
          "internalType": "bytes32",
          "name": "role",
          "type": "bytes32"
        }
      ],
      "name": "getRoleAdmin",
      "outputs": [
        {
          "internalType": "bytes32",
          "name": "",
          "type": "bytes32"
        }
      ],
      "stateMutability": "view",
      "type": "function"
    },
    {
      "inputs": [
        {
          "internalType": "bytes32",
          "name": "role",
          "type": "bytes32"
        },
        {
          "internalType": "uint256",
          "name": "index",
          "type": "uint256"
        }
      ],
      "name": "getRoleMember",
      "outputs": [
        {
          "internalType": "address",
          "name": "",
          "type": "address"
        }
      ],
      "stateMutability": "view",
      "type": "function"
    },
    {
      "inputs": [
        {
          "internalType": "bytes32",
          "name": "role",
          "type": "bytes32"
        }
      ],
      "name": "getRoleMemberCount",
      "outputs": [
        {
          "internalType": "uint256",
          "name": "",
          "type": "uint256"
        }
      ],
      "stateMutability": "view",
      "type": "function"
    },
    {
      "inputs": [
        {
          "internalType": "bytes32",
          "name": "role",
          "type": "bytes32"
        },
        {
          "internalType": "address",
          "name": "account",
          "type": "address"
        }
      ],
      "name": "grantRole",
      "outputs": [],
      "stateMutability": "nonpayable",
      "type": "function"
    },
    {
      "inputs": [
        {
          "internalType": "bytes32",
          "name": "role",
          "type": "bytes32"
        },
        {
          "internalType": "address",
          "name": "account",
          "type": "address"
        }
      ],
      "name": "hasRole",
      "outputs": [
        {
          "internalType": "bool",
          "name": "",
          "type": "bool"
        }
      ],
      "stateMutability": "view",
      "type": "function"
    },
    {
      "inputs": [
        {
          "internalType": "bytes32",
          "name": "role",
          "type": "bytes32"
        },
        {
          "internalType": "address",
          "name": "account",
          "type": "address"
        }
      ],
      "name": "renounceRole",
      "outputs": [],
      "stateMutability": "nonpayable",
      "type": "function"
    },
    {
      "inputs": [
        {
          "internalType": "bytes32",
          "name": "role",
          "type": "bytes32"
        },
        {
          "internalType": "address",
          "name": "account",
          "type": "address"
        }
      ],
      "name": "revokeRole",
      "outputs": [],
      "stateMutability": "nonpayable",
      "type": "function"
    },
    {
      "inputs": [
        {
          "internalType": "bytes4",
          "name": "interfaceId",
          "type": "bytes4"
        }
      ],
      "name": "supportsInterface",
      "outputs": [
        {
          "internalType": "bool",
          "name": "",
          "type": "bool"
        }
      ],
      "stateMutability": "view",
      "type": "function"
    },
    {
      "inputs": [
        {
          "internalType": "bytes32",
          "name": "roleId",
          "type": "bytes32"
        },
        {
          "internalType": "bytes32",
          "name": "adminRoleId",
          "type": "bytes32"
        }
      ],
      "name": "setRoleAdmin",
      "outputs": [],
      "stateMutability": "nonpayable",
      "type": "function"
    },
    {
      "inputs": [
        {
          "internalType": "bytes32",
          "name": "roleId",
          "type": "bytes32"
        }
      ],
      "name": "senderProtected",
      "outputs": [],
      "stateMutability": "nonpayable",
      "type": "function"
    }
  ],
  "bytecode": "0x60806040523480156200001157600080fd5b50620000366000801b6200002a6200003c60201b60201c565b6200004460201b60201c565b620002d2565b600033905090565b6200005682826200005a60201b60201c565b5050565b620000718282620000a260201b620004861760201c565b6200009d81600160008581526020019081526020016000206200019360201b620005661790919060201c565b505050565b620000b48282620001cb60201b60201c565b6200018f57600160008084815260200190815260200160002060000160008373ffffffffffffffffffffffffffffffffffffffff1673ffffffffffffffffffffffffffffffffffffffff16815260200190815260200160002060006101000a81548160ff021916908315150217905550620001346200003c60201b60201c565b73ffffffffffffffffffffffffffffffffffffffff168173ffffffffffffffffffffffffffffffffffffffff16837f2f8788117e7eff1d82e926ec794901d17c78024a50270940304540a733656f0d60405160405180910390a45b5050565b6000620001c3836000018373ffffffffffffffffffffffffffffffffffffffff1660001b6200023560201b60201c565b905092915050565b600080600084815260200190815260200160002060000160008373ffffffffffffffffffffffffffffffffffffffff1673ffffffffffffffffffffffffffffffffffffffff16815260200190815260200160002060009054906101000a900460ff16905092915050565b6000620002498383620002af60201b60201c565b620002a4578260000182908060018154018082558091505060019003906000526020600020016000909190919091505582600001805490508360010160008481526020019081526020016000208190555060019050620002a9565b600090505b92915050565b600080836001016000848152602001908152602001600020541415905092915050565b61151180620002e26000396000f3fe608060405234801561001057600080fd5b50600436106100a95760003560e01c80634b9304a4116100715780634b9304a4146101625780639010d07c1461017e57806391d14854146101ae578063a217fddf146101de578063ca15c873146101fc578063d547741f1461022c576100a9565b806301ffc9a7146100ae5780631e4e0091146100de578063248a9ca3146100fa5780632f2ff15d1461012a57806336568abe14610146575b600080fd5b6100c860048036038101906100c39190610db2565b610248565b6040516100d59190610dfa565b60405180910390f35b6100f860048036038101906100f39190610e4b565b6102c2565b005b610114600480360381019061010f9190610e8b565b6102d0565b6040516101219190610ec7565b60405180910390f35b610144600480360381019061013f9190610f40565b6102ef565b005b610160600480360381019061015b9190610f40565b610310565b005b61017c60048036038101906101779190610e8b565b610393565b005b61019860048036038101906101939190610fb6565b6103a1565b6040516101a59190611005565b60405180910390f35b6101c860048036038101906101c39190610f40565b6103d0565b6040516101d59190610dfa565b60405180910390f35b6101e661043a565b6040516101f39190610ec7565b60405180910390f35b61021660048036038101906102119190610e8b565b610441565b604051610223919061102f565b60405180910390f35b61024660048036038101906102419190610f40565b610465565b005b60007f5a05180f000000000000000000000000000000000000000000000000000000007bffffffffffffffffffffffffffffffffffffffffffffffffffffffff1916827bffffffffffffffffffffffffffffffffffffffffffffffffffffffff191614806102bb57506102ba82610596565b5b9050919050565b6102cc8282610610565b5050565b6000806000838152602001908152602001600020600101549050919050565b6102f8826102d0565b6103018161066b565b61030b838361067f565b505050565b6103186106b3565b73ffffffffffffffffffffffffffffffffffffffff168173ffffffffffffffffffffffffffffffffffffffff1614610385576040517f08c379a000000000000000000000000000000000000000000000000000000000815260040161037c906110cd565b60405180910390fd5b61038f82826106bb565b5050565b8061039d8161066b565b5050565b60006103c882600160008681526020019081526020016000206106ef90919063ffffffff16565b905092915050565b600080600084815260200190815260200160002060000160008373ffffffffffffffffffffffffffffffffffffffff1673ffffffffffffffffffffffffffffffffffffffff16815260200190815260200160002060009054906101000a900460ff16905092915050565b6000801b81565b600061045e60016000848152602001908152602001600020610709565b9050919050565b61046e826102d0565b6104778161066b565b61048183836106bb565b505050565b61049082826103d0565b61056257600160008084815260200190815260200160002060000160008373ffffffffffffffffffffffffffffffffffffffff1673ffffffffffffffffffffffffffffffffffffffff16815260200190815260200160002060006101000a81548160ff0219169083151502179055506105076106b3565b73ffffffffffffffffffffffffffffffffffffffff168173ffffffffffffffffffffffffffffffffffffffff16837f2f8788117e7eff1d82e926ec794901d17c78024a50270940304540a733656f0d60405160405180910390a45b5050565b600061058e836000018373ffffffffffffffffffffffffffffffffffffffff1660001b61071e565b905092915050565b60007f7965db0b000000000000000000000000000000000000000000000000000000007bffffffffffffffffffffffffffffffffffffffffffffffffffffffff1916827bffffffffffffffffffffffffffffffffffffffffffffffffffffffff1916148061060957506106088261078e565b5b9050919050565b600061061b836102d0565b905081600080858152602001908152602001600020600101819055508181847fbd79b86ffe0ab8e8776151514217cd7cacd52c909f66475c3af44e129f0b00ff60405160405180910390a4505050565b61067c816106776106b3565b6107f8565b50565b6106898282610486565b6106ae816001600085815260200190815260200160002061056690919063ffffffff16565b505050565b600033905090565b6106c58282610895565b6106ea816001600085815260200190815260200160002061097690919063ffffffff16565b505050565b60006106fe83600001836109a6565b60001c905092915050565b6000610717826000016109d1565b9050919050565b600061072a83836109e2565b610783578260000182908060018154018082558091505060019003906000526020600020016000909190919091505582600001805490508360010160008481526020019081526020016000208190555060019050610788565b600090505b92915050565b60007f01ffc9a7000000000000000000000000000000000000000000000000000000007bffffffffffffffffffffffffffffffffffffffffffffffffffffffff1916827bffffffffffffffffffffffffffffffffffffffffffffffffffffffff1916149050919050565b61080282826103d0565b610891576108278173ffffffffffffffffffffffffffffffffffffffff166014610a05565b6108358360001c6020610a05565b6040516020016108469291906111ff565b6040516020818303038152906040526040517f08c379a00000000000000000000000000000000000000000000000000000000081526004016108889190611283565b60405180910390fd5b5050565b61089f82826103d0565b1561097257600080600084815260200190815260200160002060000160008373ffffffffffffffffffffffffffffffffffffffff1673ffffffffffffffffffffffffffffffffffffffff16815260200190815260200160002060006101000a81548160ff0219169083151502179055506109176106b3565b73ffffffffffffffffffffffffffffffffffffffff168173ffffffffffffffffffffffffffffffffffffffff16837ff6391f5c32d9c69d2a47ea670b442974b53935d1edc7fd64eb21e047a839171b60405160405180910390a45b5050565b600061099e836000018373ffffffffffffffffffffffffffffffffffffffff1660001b610c41565b905092915050565b60008260000182815481106109be576109bd6112a5565b5b9060005260206000200154905092915050565b600081600001805490509050919050565b600080836001016000848152602001908152602001600020541415905092915050565b606060006002836002610a189190611303565b610a22919061135d565b67ffffffffffffffff811115610a3b57610a3a6113b3565b5b6040519080825280601f01601f191660200182016040528015610a6d5781602001600182028036833780820191505090505b5090507f300000000000000000000000000000000000000000000000000000000000000081600081518110610aa557610aa46112a5565b5b60200101907effffffffffffffffffffffffffffffffffffffffffffffffffffffffffffff1916908160001a9053507f780000000000000000000000000000000000000000000000000000000000000081600181518110610b0957610b086112a5565b5b60200101907effffffffffffffffffffffffffffffffffffffffffffffffffffffffffffff1916908160001a90535060006001846002610b499190611303565b610b53919061135d565b90505b6001811115610bf3577f3031323334353637383961626364656600000000000000000000000000000000600f861660108110610b9557610b946112a5565b5b1a60f81b828281518110610bac57610bab6112a5565b5b60200101907effffffffffffffffffffffffffffffffffffffffffffffffffffffffffffff1916908160001a905350600485901c945080610bec906113e2565b9050610b56565b5060008414610c37576040517f08c379a0000000000000000000000000000000000000000000000000000000008152600401610c2e90611458565b60405180910390fd5b8091505092915050565b60008083600101600084815260200190815260200160002054905060008114610d49576000600182610c739190611478565b9050600060018660000180549050610c8b9190611478565b9050818114610cfa576000866000018281548110610cac57610cab6112a5565b5b9060005260206000200154905080876000018481548110610cd057610ccf6112a5565b5b90600052602060002001819055508387600101600083815260200190815260200160002081905550505b85600001805480610d0e57610d0d6114ac565b5b600190038181906000526020600020016000905590558560010160008681526020019081526020016000206000905560019350505050610d4f565b60009150505b92915050565b600080fd5b60007fffffffff0000000000000000000000000000000000000000000000000000000082169050919050565b610d8f81610d5a565b8114610d9a57600080fd5b50565b600081359050610dac81610d86565b92915050565b600060208284031215610dc857610dc7610d55565b5b6000610dd684828501610d9d565b91505092915050565b60008115159050919050565b610df481610ddf565b82525050565b6000602082019050610e0f6000830184610deb565b92915050565b6000819050919050565b610e2881610e15565b8114610e3357600080fd5b50565b600081359050610e4581610e1f565b92915050565b60008060408385031215610e6257610e61610d55565b5b6000610e7085828601610e36565b9250506020610e8185828601610e36565b9150509250929050565b600060208284031215610ea157610ea0610d55565b5b6000610eaf84828501610e36565b91505092915050565b610ec181610e15565b82525050565b6000602082019050610edc6000830184610eb8565b92915050565b600073ffffffffffffffffffffffffffffffffffffffff82169050919050565b6000610f0d82610ee2565b9050919050565b610f1d81610f02565b8114610f2857600080fd5b50565b600081359050610f3a81610f14565b92915050565b60008060408385031215610f5757610f56610d55565b5b6000610f6585828601610e36565b9250506020610f7685828601610f2b565b9150509250929050565b6000819050919050565b610f9381610f80565b8114610f9e57600080fd5b50565b600081359050610fb081610f8a565b92915050565b60008060408385031215610fcd57610fcc610d55565b5b6000610fdb85828601610e36565b9250506020610fec85828601610fa1565b9150509250929050565b610fff81610f02565b82525050565b600060208201905061101a6000830184610ff6565b92915050565b61102981610f80565b82525050565b60006020820190506110446000830184611020565b92915050565b600082825260208201905092915050565b7f416363657373436f6e74726f6c3a2063616e206f6e6c792072656e6f756e636560008201527f20726f6c657320666f722073656c660000000000000000000000000000000000602082015250565b60006110b7602f8361104a565b91506110c28261105b565b604082019050919050565b600060208201905081810360008301526110e6816110aa565b9050919050565b600081905092915050565b7f416363657373436f6e74726f6c3a206163636f756e7420000000000000000000600082015250565b600061112e6017836110ed565b9150611139826110f8565b601782019050919050565b600081519050919050565b60005b8381101561116d578082015181840152602081019050611152565b8381111561117c576000848401525b50505050565b600061118d82611144565b61119781856110ed565b93506111a781856020860161114f565b80840191505092915050565b7f206973206d697373696e6720726f6c6520000000000000000000000000000000600082015250565b60006111e96011836110ed565b91506111f4826111b3565b601182019050919050565b600061120a82611121565b91506112168285611182565b9150611221826111dc565b915061122d8284611182565b91508190509392505050565b6000601f19601f8301169050919050565b600061125582611144565b61125f818561104a565b935061126f81856020860161114f565b61127881611239565b840191505092915050565b6000602082019050818103600083015261129d818461124a565b905092915050565b7f4e487b7100000000000000000000000000000000000000000000000000000000600052603260045260246000fd5b7f4e487b7100000000000000000000000000000000000000000000000000000000600052601160045260246000fd5b600061130e82610f80565b915061131983610f80565b9250817fffffffffffffffffffffffffffffffffffffffffffffffffffffffffffffffff0483118215151615611352576113516112d4565b5b828202905092915050565b600061136882610f80565b915061137383610f80565b9250827fffffffffffffffffffffffffffffffffffffffffffffffffffffffffffffffff038211156113a8576113a76112d4565b5b828201905092915050565b7f4e487b7100000000000000000000000000000000000000000000000000000000600052604160045260246000fd5b60006113ed82610f80565b91506000821415611401576114006112d4565b5b600182039050919050565b7f537472696e67733a20686578206c656e67746820696e73756666696369656e74600082015250565b600061144260208361104a565b915061144d8261140c565b602082019050919050565b6000602082019050818103600083015261147181611435565b9050919050565b600061148382610f80565b915061148e83610f80565b9250828210156114a1576114a06112d4565b5b828203905092915050565b7f4e487b7100000000000000000000000000000000000000000000000000000000600052603160045260246000fdfea264697066735822122029991544ae3c9b814ce8f7543698e0a8f2417b481957c0cca57a71ad810cd58864736f6c634300080b0033",
  "immutableReferences": {},
  "source": "// SPDX-License-Identifier: MIT\n\npragma solidity ^0.8.0;\n\nimport \"../access/AccessControlEnumerable.sol\";\n\ncontract AccessControlEnumerableMock is AccessControlEnumerable {\n    constructor() {\n        _setupRole(DEFAULT_ADMIN_ROLE, _msgSender());\n    }\n\n    function setRoleAdmin(bytes32 roleId, bytes32 adminRoleId) public {\n        _setRoleAdmin(roleId, adminRoleId);\n    }\n\n    function senderProtected(bytes32 roleId) public onlyRole(roleId) {}\n}\n",
  "sourcePath": "D:\\03.block-chain\\01.miquelTC__nft-marketplace\\test-proj\\nft-marketplace-master\\src\\contracts\\ERC721\\mocks\\AccessControlEnumerableMock.sol",
  "compiler": {
    "name": "solc",
    "version": "0.8.11+commit.d7f03943.Emscripten.clang"
  },
  "schemaVersion": "3.4.4",
  "updatedAt": "2022-02-16T02:59:58.143Z",
  "devdoc": {
    "kind": "dev",
    "methods": {
      "getRoleAdmin(bytes32)": {
        "details": "Returns the admin role that controls `role`. See {grantRole} and {revokeRole}. To change a role's admin, use {_setRoleAdmin}."
      },
      "getRoleMember(bytes32,uint256)": {
        "details": "Returns one of the accounts that have `role`. `index` must be a value between 0 and {getRoleMemberCount}, non-inclusive. Role bearers are not sorted in any particular way, and their ordering may change at any point. WARNING: When using {getRoleMember} and {getRoleMemberCount}, make sure you perform all queries on the same block. See the following https://forum.openzeppelin.com/t/iterating-over-elements-on-enumerableset-in-openzeppelin-contracts/2296[forum post] for more information."
      },
      "getRoleMemberCount(bytes32)": {
        "details": "Returns the number of accounts that have `role`. Can be used together with {getRoleMember} to enumerate all bearers of a role."
      },
      "grantRole(bytes32,address)": {
        "details": "Grants `role` to `account`. If `account` had not been already granted `role`, emits a {RoleGranted} event. Requirements: - the caller must have ``role``'s admin role."
      },
      "hasRole(bytes32,address)": {
        "details": "Returns `true` if `account` has been granted `role`."
      },
      "renounceRole(bytes32,address)": {
        "details": "Revokes `role` from the calling account. Roles are often managed via {grantRole} and {revokeRole}: this function's purpose is to provide a mechanism for accounts to lose their privileges if they are compromised (such as when a trusted device is misplaced). If the calling account had been revoked `role`, emits a {RoleRevoked} event. Requirements: - the caller must be `account`."
      },
      "revokeRole(bytes32,address)": {
        "details": "Revokes `role` from `account`. If `account` had been granted `role`, emits a {RoleRevoked} event. Requirements: - the caller must have ``role``'s admin role."
      },
      "supportsInterface(bytes4)": {
        "details": "See {IERC165-supportsInterface}."
      }
    },
    "version": 1
  },
  "userdoc": {
    "kind": "user",
    "methods": {},
    "version": 1
  }
}