{
  "contractName": "AuctionEngine",
  "abi": [
    {
      "anonymous": false,
      "inputs": [
        {
          "indexed": false,
          "internalType": "uint256",
          "name": "_index",
          "type": "uint256"
        },
        {
          "indexed": false,
          "internalType": "address",
          "name": "_bidder",
          "type": "address"
        },
        {
          "indexed": false,
          "internalType": "uint256",
          "name": "amount",
          "type": "uint256"
        }
      ],
      "name": "AuctionBid",
      "type": "event"
    },
    {
      "anonymous": false,
      "inputs": [
        {
          "indexed": false,
          "internalType": "uint256",
          "name": "_index",
          "type": "uint256"
        },
        {
          "indexed": false,
          "internalType": "address",
          "name": "_creator",
          "type": "address"
        },
        {
          "indexed": false,
          "internalType": "address",
          "name": "_asset",
          "type": "address"
        },
        {
          "indexed": false,
          "internalType": "address",
          "name": "_token",
          "type": "address"
        }
      ],
      "name": "AuctionCreated",
      "type": "event"
    },
    {
      "anonymous": false,
      "inputs": [
        {
          "indexed": false,
          "internalType": "uint256",
          "name": "auctionIndex",
          "type": "uint256"
        },
        {
          "indexed": false,
          "internalType": "address",
          "name": "claimer",
          "type": "address"
        }
      ],
      "name": "Claim",
      "type": "event"
    },
    {
      "inputs": [
        {
          "internalType": "address",
          "name": "_assetAddress",
          "type": "address"
        },
        {
          "internalType": "uint256",
          "name": "_assetId",
          "type": "uint256"
        },
        {
          "internalType": "address",
          "name": "_tokenAddress",
          "type": "address"
        },
        {
          "internalType": "uint256",
          "name": "_startPrice",
          "type": "uint256"
        },
        {
          "internalType": "uint256",
          "name": "_startTime",
          "type": "uint256"
        },
        {
          "internalType": "uint256",
          "name": "_duration",
          "type": "uint256"
        }
      ],
      "name": "createAuction",
      "outputs": [
        {
          "internalType": "uint256",
          "name": "",
          "type": "uint256"
        }
      ],
      "stateMutability": "nonpayable",
      "type": "function"
    },
    {
      "inputs": [
        {
          "internalType": "uint256",
          "name": "auctionIndex",
          "type": "uint256"
        },
        {
          "internalType": "uint256",
          "name": "amount",
          "type": "uint256"
        }
      ],
      "name": "bid",
      "outputs": [
        {
          "internalType": "bool",
          "name": "",
          "type": "bool"
        }
      ],
      "stateMutability": "nonpayable",
      "type": "function"
    },
    {
      "inputs": [],
      "name": "getTotalAuctions",
      "outputs": [
        {
          "internalType": "uint256",
          "name": "",
          "type": "uint256"
        }
      ],
      "stateMutability": "view",
      "type": "function"
    },
    {
      "inputs": [
        {
          "internalType": "uint256",
          "name": "index",
          "type": "uint256"
        }
      ],
      "name": "isActive",
      "outputs": [
        {
          "internalType": "bool",
          "name": "",
          "type": "bool"
        }
      ],
      "stateMutability": "view",
      "type": "function"
    },
    {
      "inputs": [
        {
          "internalType": "uint256",
          "name": "index",
          "type": "uint256"
        }
      ],
      "name": "isFinished",
      "outputs": [
        {
          "internalType": "bool",
          "name": "",
          "type": "bool"
        }
      ],
      "stateMutability": "view",
      "type": "function"
    },
    {
      "inputs": [
        {
          "internalType": "uint256",
          "name": "index",
          "type": "uint256"
        }
      ],
      "name": "getStatus",
      "outputs": [
        {
          "internalType": "enum AuctionEngine.Status",
          "name": "",
          "type": "uint8"
        }
      ],
      "stateMutability": "view",
      "type": "function"
    },
    {
      "inputs": [
        {
          "internalType": "uint256",
          "name": "auctionIndex",
          "type": "uint256"
        }
      ],
      "name": "getCurrentBidOwner",
      "outputs": [
        {
          "internalType": "address",
          "name": "",
          "type": "address"
        }
      ],
      "stateMutability": "view",
      "type": "function"
    },
    {
      "inputs": [
        {
          "internalType": "uint256",
          "name": "auctionIndex",
          "type": "uint256"
        }
      ],
      "name": "getCurrentBidAmount",
      "outputs": [
        {
          "internalType": "uint256",
          "name": "",
          "type": "uint256"
        }
      ],
      "stateMutability": "view",
      "type": "function"
    },
    {
      "inputs": [
        {
          "internalType": "uint256",
          "name": "auctionIndex",
          "type": "uint256"
        }
      ],
      "name": "getBidCount",
      "outputs": [
        {
          "internalType": "uint256",
          "name": "",
          "type": "uint256"
        }
      ],
      "stateMutability": "view",
      "type": "function"
    },
    {
      "inputs": [
        {
          "internalType": "uint256",
          "name": "auctionIndex",
          "type": "uint256"
        }
      ],
      "name": "getWinner",
      "outputs": [
        {
          "internalType": "address",
          "name": "",
          "type": "address"
        }
      ],
      "stateMutability": "view",
      "type": "function"
    },
    {
      "inputs": [
        {
          "internalType": "uint256",
          "name": "auctionIndex",
          "type": "uint256"
        }
      ],
      "name": "claimTokens",
      "outputs": [],
      "stateMutability": "nonpayable",
      "type": "function"
    },
    {
      "inputs": [
        {
          "internalType": "uint256",
          "name": "auctionIndex",
          "type": "uint256"
        }
      ],
      "name": "claimAsset",
      "outputs": [],
      "stateMutability": "nonpayable",
      "type": "function"
    }
  ],
  "bytecode": "0x608060405234801561001057600080fd5b5061148c806100206000396000f3fe608060405234801561001057600080fd5b50600436106100b45760003560e01c80636975846a116100715780636975846a146101b3578063744d3411146101e357806382afd23b1461021357806386b4607314610243578063d3c2a59214610273578063e8ba65091461028f576100b4565b806314ec4106146100b95780633ef14cc8146100e95780634129b2c91461010757806346e04a2f14610137578063598647f8146101535780635c622a0e14610183575b600080fd5b6100d360048036038101906100ce9190610fb8565b6102bf565b6040516100e09190611054565b60405180910390f35b6100f161070f565b6040516100fe9190611054565b60405180910390f35b610121600480360381019061011c919061106f565b61071b565b60405161012e91906110ab565b60405180910390f35b610151600480360381019061014c919061106f565b61077c565b005b61016d600480360381019061016891906110c6565b610949565b60405161017a9190611121565b60405180910390f35b61019d6004803603810190610198919061106f565b610c09565b6040516101aa91906111b3565b60405180910390f35b6101cd60048036038101906101c8919061106f565b610c76565b6040516101da9190611054565b60405180910390f35b6101fd60048036038101906101f8919061106f565b610ca4565b60405161020a9190611054565b60405180910390f35b61022d6004803603810190610228919061106f565b610cd2565b60405161023a9190611121565b60405180910390f35b61025d6004803603810190610258919061106f565b610d0b565b60405161026a91906110ab565b60405180910390f35b61028d6004803603810190610288919061106f565b610d59565b005b6102a960048036038101906102a4919061106f565b610ed4565b6040516102b69190611121565b60405180910390f35b60006102e08773ffffffffffffffffffffffffffffffffffffffff16610f0c565b6102e957600080fd5b60008790503373ffffffffffffffffffffffffffffffffffffffff168173ffffffffffffffffffffffffffffffffffffffff16636352211e896040518263ffffffff1660e01b815260040161033e9190611054565b602060405180830381865afa15801561035b573d6000803e3d6000fd5b505050506040513d601f19601f8201168201806040525081019061037f91906111e3565b73ffffffffffffffffffffffffffffffffffffffff161461039f57600080fd5b3073ffffffffffffffffffffffffffffffffffffffff168173ffffffffffffffffffffffffffffffffffffffff1663081812fc896040518263ffffffff1660e01b81526004016103ef9190611054565b602060405180830381865afa15801561040c573d6000803e3d6000fd5b505050506040513d601f19601f8201168201806040525081019061043091906111e3565b73ffffffffffffffffffffffffffffffffffffffff161461045057600080fd5b61046f8673ffffffffffffffffffffffffffffffffffffffff16610f0c565b61047857600080fd5b6000841415610485574293505b60006040518061012001604052808a73ffffffffffffffffffffffffffffffffffffffff1681526020018981526020018873ffffffffffffffffffffffffffffffffffffffff1681526020013373ffffffffffffffffffffffffffffffffffffffff168152602001868152602001858152602001878152602001600073ffffffffffffffffffffffffffffffffffffffff16815260200160008152509050600081908060018154018082558091505060019003906000526020600020906009020160009091909190915060008201518160000160006101000a81548173ffffffffffffffffffffffffffffffffffffffff021916908373ffffffffffffffffffffffffffffffffffffffff1602179055506020820151816001015560408201518160020160006101000a81548173ffffffffffffffffffffffffffffffffffffffff021916908373ffffffffffffffffffffffffffffffffffffffff16021790555060608201518160030160006101000a81548173ffffffffffffffffffffffffffffffffffffffff021916908373ffffffffffffffffffffffffffffffffffffffff1602179055506080820151816004015560a0820151816005015560c0820151816006015560e08201518160070160006101000a81548173ffffffffffffffffffffffffffffffffffffffff021916908373ffffffffffffffffffffffffffffffffffffffff16021790555061010082015181600801555050600060016000805490506106b4919061123f565b90507fa7259871e9e341a8128896b5bcc172f1e9ecf7da07f780589c54ec4fc96f038a818360600151846000015185604001516040516106f79493929190611273565b60405180910390a18093505050509695505050505050565b60008080549050905090565b600061072682610ed4565b61072f57600080fd5b60008281548110610743576107426112b8565b5b906000526020600020906009020160070160009054906101000a900473ffffffffffffffffffffffffffffffffffffffff169050919050565b61078581610ed4565b61078e57600080fd5b60008082815481106107a3576107a26112b8565b5b906000526020600020906009020190503373ffffffffffffffffffffffffffffffffffffffff168160030160009054906101000a900473ffffffffffffffffffffffffffffffffffffffff1673ffffffffffffffffffffffffffffffffffffffff161461080f57600080fd5b60008160020160009054906101000a900473ffffffffffffffffffffffffffffffffffffffff1690508073ffffffffffffffffffffffffffffffffffffffff1663a9059cbb8360030160009054906101000a900473ffffffffffffffffffffffffffffffffffffffff1684600601546040518363ffffffff1660e01b815260040161089b9291906112e7565b6020604051808303816000875af11580156108ba573d6000803e3d6000fd5b505050506040513d601f19601f820116820180604052508101906108de919061133c565b6108e757600080fd5b7f35538759d80c1fd7bb450a0d05601db5a99fa8b5d073a07c847a9fd61029b107838360030160009054906101000a900473ffffffffffffffffffffffffffffffffffffffff1660405161093c929190611369565b60405180910390a1505050565b600080600084815481106109605761095f6112b8565b5b90600052602060002090600902019050600073ffffffffffffffffffffffffffffffffffffffff168160030160009054906101000a900473ffffffffffffffffffffffffffffffffffffffff1673ffffffffffffffffffffffffffffffffffffffff1614156109ce57600080fd5b6109d784610cd2565b6109e057600080fd5b8060060154831115610bfd5760008160020160009054906101000a900473ffffffffffffffffffffffffffffffffffffffff1690508073ffffffffffffffffffffffffffffffffffffffff166323b872dd3330876040518463ffffffff1660e01b8152600401610a5293929190611392565b6020604051808303816000875af1158015610a71573d6000803e3d6000fd5b505050506040513d601f19601f82011682018060405250810190610a95919061133c565b610a9e57600080fd5b6000826006015414610b52578073ffffffffffffffffffffffffffffffffffffffff1663a9059cbb8360070160009054906101000a900473ffffffffffffffffffffffffffffffffffffffff1684600601546040518363ffffffff1660e01b8152600401610b0d9291906112e7565b6020604051808303816000875af1158015610b2c573d6000803e3d6000fd5b505050506040513d601f19601f82011682018060405250810190610b50919061133c565b505b838260060181905550338260070160006101000a81548173ffffffffffffffffffffffffffffffffffffffff021916908373ffffffffffffffffffffffffffffffffffffffff16021790555060018260080154610baf91906113c9565b82600801819055507fb8d756f2d1da4663767eb4d559780ace84f2f65a421a60ddcb47e8b2e5d2fd26853386604051610bea9392919061141f565b60405180910390a1600192505050610c03565b60009150505b92915050565b60008060008381548110610c2057610c1f6112b8565b5b906000526020600020906009020190508060040154421015610c46576000915050610c71565b80600501548160040154610c5a91906113c9565b421015610c6b576001915050610c71565b60029150505b919050565b6000808281548110610c8b57610c8a6112b8565b5b9060005260206000209060090201600601549050919050565b6000808281548110610cb957610cb86112b8565b5b9060005260206000209060090201600801549050919050565b600060016002811115610ce857610ce761113c565b5b610cf183610c09565b6002811115610d0357610d0261113c565b5b149050919050565b6000808281548110610d2057610d1f6112b8565b5b906000526020600020906009020160070160009054906101000a900473ffffffffffffffffffffffffffffffffffffffff169050919050565b610d6281610ed4565b610d6b57600080fd5b6000808281548110610d8057610d7f6112b8565b5b906000526020600020906009020190506000610d9b8361071b565b90503373ffffffffffffffffffffffffffffffffffffffff168173ffffffffffffffffffffffffffffffffffffffff1614610dd557600080fd5b60008260000160009054906101000a900473ffffffffffffffffffffffffffffffffffffffff1690508073ffffffffffffffffffffffffffffffffffffffff166323b872dd8460030160009054906101000a900473ffffffffffffffffffffffffffffffffffffffff168486600101546040518463ffffffff1660e01b8152600401610e6393929190611392565b600060405180830381600087803b158015610e7d57600080fd5b505af1158015610e91573d6000803e3d6000fd5b505050507f35538759d80c1fd7bb450a0d05601db5a99fa8b5d073a07c847a9fd61029b1078483604051610ec6929190611369565b60405180910390a150505050565b6000600280811115610ee957610ee861113c565b5b610ef283610c09565b6002811115610f0457610f0361113c565b5b149050919050565b600080823b905060008111915050919050565b600080fd5b600073ffffffffffffffffffffffffffffffffffffffff82169050919050565b6000610f4f82610f24565b9050919050565b610f5f81610f44565b8114610f6a57600080fd5b50565b600081359050610f7c81610f56565b92915050565b6000819050919050565b610f9581610f82565b8114610fa057600080fd5b50565b600081359050610fb281610f8c565b92915050565b60008060008060008060c08789031215610fd557610fd4610f1f565b5b6000610fe389828a01610f6d565b9650506020610ff489828a01610fa3565b955050604061100589828a01610f6d565b945050606061101689828a01610fa3565b935050608061102789828a01610fa3565b92505060a061103889828a01610fa3565b9150509295509295509295565b61104e81610f82565b82525050565b60006020820190506110696000830184611045565b92915050565b60006020828403121561108557611084610f1f565b5b600061109384828501610fa3565b91505092915050565b6110a581610f44565b82525050565b60006020820190506110c0600083018461109c565b92915050565b600080604083850312156110dd576110dc610f1f565b5b60006110eb85828601610fa3565b92505060206110fc85828601610fa3565b9150509250929050565b60008115159050919050565b61111b81611106565b82525050565b60006020820190506111366000830184611112565b92915050565b7f4e487b7100000000000000000000000000000000000000000000000000000000600052602160045260246000fd5b6003811061117c5761117b61113c565b5b50565b600081905061118d8261116b565b919050565b600061119d8261117f565b9050919050565b6111ad81611192565b82525050565b60006020820190506111c860008301846111a4565b92915050565b6000815190506111dd81610f56565b92915050565b6000602082840312156111f9576111f8610f1f565b5b6000611207848285016111ce565b91505092915050565b7f4e487b7100000000000000000000000000000000000000000000000000000000600052601160045260246000fd5b600061124a82610f82565b915061125583610f82565b92508282101561126857611267611210565b5b828203905092915050565b60006080820190506112886000830187611045565b611295602083018661109c565b6112a2604083018561109c565b6112af606083018461109c565b95945050505050565b7f4e487b7100000000000000000000000000000000000000000000000000000000600052603260045260246000fd5b60006040820190506112fc600083018561109c565b6113096020830184611045565b9392505050565b61131981611106565b811461132457600080fd5b50565b60008151905061133681611310565b92915050565b60006020828403121561135257611351610f1f565b5b600061136084828501611327565b91505092915050565b600060408201905061137e6000830185611045565b61138b602083018461109c565b9392505050565b60006060820190506113a7600083018661109c565b6113b4602083018561109c565b6113c16040830184611045565b949350505050565b60006113d482610f82565b91506113df83610f82565b9250827fffffffffffffffffffffffffffffffffffffffffffffffffffffffffffffffff0382111561141457611413611210565b5b828201905092915050565b60006060820190506114346000830186611045565b611441602083018561109c565b61144e6040830184611045565b94935050505056fea2646970667358221220f1a91c37141993674923084e85748851a5c1c8742880c8b08ef4caa09140dc1964736f6c634300080c0033",
  "immutableReferences": {},
  "source": "// SPDX-License-Identifier: MIT\npragma solidity >=0.4.22 <0.9.0;\n\nimport \"./AddressUtils.sol\";\n// import \"./ERC721/utils/math/SafeMath.sol\";\n// import \"./ERC721/token/ERC20/ERC20.sol\";\n// import \"./ERC721/token/ERC721/ERC721.sol\";\nimport \"@openzeppelin/contracts/utils/math/SafeMath.sol\";\nimport \"@openzeppelin/contracts/token/ERC20/ERC20.sol\";\nimport \"@openzeppelin/contracts/token/ERC721/ERC721.sol\";\n\ncontract AuctionEngine {\n//    using SafeMath for uint256;\n    using AddressUtils for address;\n\n    event AuctionCreated(uint256 _index, address _creator, address _asset, address _token);\n    event AuctionBid(uint256 _index, address _bidder, uint256 amount);\n    event Claim(uint256 auctionIndex, address claimer);\n\n    enum Status { pending, active, finished }\n    struct Auction {\n        address assetAddress;\n        uint256 assetId;\n        address tokenAddress;\n\n        address creator;\n\n        uint256 startTime;\n        uint256 duration;\n        uint256 currentBidAmount;\n        address currentBidOwner;\n        uint256 bidCount;\n    }\n    Auction[] private auctions;\n\n    function createAuction(address _assetAddress,\n                           uint256 _assetId,\n                           address _tokenAddress,\n                           uint256 _startPrice,\n                           uint256 _startTime,\n                           uint256 _duration) public returns (uint256) {\n\n        require(_assetAddress.isContract());\n        ERC721 asset = ERC721(_assetAddress);\n        require(asset.ownerOf(_assetId) == msg.sender);\n        require(asset.getApproved(_assetId) == address(this));\n\n        require(_tokenAddress.isContract());\n\n        if (_startTime == 0) { _startTime = block.timestamp; }  // now\n\n        Auction memory auction = Auction({\n            creator: msg.sender,\n            assetAddress: _assetAddress,\n            assetId: _assetId,\n            tokenAddress: _tokenAddress,\n            startTime: _startTime,\n            duration: _duration,\n            currentBidAmount: _startPrice,\n            currentBidOwner: address(0),\n            bidCount: 0\n        });\n        \n        ///////////////////////////////////////////\n        //uint256 index = auctions.push(auction) - 1;\n        auctions.push(auction);        uint256 index = auctions.length-1;\n\n        emit AuctionCreated(index, auction.creator, auction.assetAddress, auction.tokenAddress);\n\n        return index;\n    }\n\n    function bid(uint256 auctionIndex, uint256 amount) public returns (bool) {\n        Auction storage auction = auctions[auctionIndex];\n        require(auction.creator != address(0));\n        require(isActive(auctionIndex));\n\n        if (amount > auction.currentBidAmount) {\n            // we got a better bid. Return tokens to the previous best bidder\n            // and register the sender as `currentBidOwner`\n            ERC20 token = ERC20(auction.tokenAddress);\n            require(token.transferFrom(msg.sender, address(this), amount));\n            if (auction.currentBidAmount != 0) {\n                // return funds to the previuos bidder\n                token.transfer(\n                    auction.currentBidOwner,\n                    auction.currentBidAmount\n                );\n            }\n            // register new bidder\n            auction.currentBidAmount = amount;\n            auction.currentBidOwner = msg.sender;\n\n            ///////////////////////////////////////////\n            //auction.bidCount = auction.bidCount.add(1);\n            auction.bidCount = auction.bidCount + 1;\n\n            emit AuctionBid(auctionIndex, msg.sender, amount);\n            return true;\n        }\n        return false;\n    }\n\n    function getTotalAuctions() public view returns (uint256) { return auctions.length; }\n\n    function isActive(uint256 index) public view returns (bool) { return getStatus(index) == Status.active; }\n\n    function isFinished(uint256 index) public view returns (bool) { return getStatus(index) == Status.finished; }\n\n    function getStatus(uint256 index) public view returns (Status) {\n        Auction storage auction = auctions[index];\n        if (block.timestamp < auction.startTime) {\n            return Status.pending;\n\n        ///////////////////////////////////////////\n        //} else if (block.timestamp < auction.startTime.add(auction.duration)) {\n        } else if (block.timestamp < auction.startTime + auction.duration) {\n            return Status.active;\n        } else {\n            return Status.finished;\n        }\n    }\n\n    function getCurrentBidOwner(uint256 auctionIndex) public view returns (address) { return auctions[auctionIndex].currentBidOwner; }\n\n    function getCurrentBidAmount(uint256 auctionIndex) public view returns (uint256) { return auctions[auctionIndex].currentBidAmount; }\n\n    function getBidCount(uint256 auctionIndex) public view returns (uint256) { return auctions[auctionIndex].bidCount; }\n\n    function getWinner(uint256 auctionIndex) public view returns (address) {\n        require(isFinished(auctionIndex));\n        return auctions[auctionIndex].currentBidOwner;\n    }\n\n    function claimTokens(uint256 auctionIndex) public {\n        require(isFinished(auctionIndex));\n        Auction storage auction = auctions[auctionIndex];\n\n        require(auction.creator == msg.sender);\n        ERC20 token = ERC20(auction.tokenAddress);\n        require(token.transfer(auction.creator, auction.currentBidAmount));\n\n        emit Claim(auctionIndex, auction.creator);\n    }\n\n    function claimAsset(uint256 auctionIndex) public {\n        require(isFinished(auctionIndex));\n        Auction storage auction = auctions[auctionIndex];\n\n        address winner = getWinner(auctionIndex);\n        require(winner == msg.sender);\n\n        ERC721 asset = ERC721(auction.assetAddress);\n        asset.transferFrom(auction.creator, winner, auction.assetId);\n\n        emit Claim(auctionIndex, winner);\n    }\n}\n",
  "sourcePath": "D:\\03.block-chain\\01.miquelTC__nft-marketplace\\test-proj\\nft-marketplace-master\\src\\contracts\\AuctionEngine.sol",
  "compiler": {
    "name": "solc",
    "version": "0.8.12+commit.f00d7308.Emscripten.clang"
  },
  "schemaVersion": "3.4.4",
  "updatedAt": "2022-02-22T02:09:40.300Z",
  "devdoc": {
    "kind": "dev",
    "methods": {},
    "version": 1
  },
  "userdoc": {
    "kind": "user",
    "methods": {},
    "version": 1
  }
}