{
  "contractName": "Collateralizer",
  "abi": [
    {
      "inputs": [
        {
          "internalType": "address",
          "name": "_erc1155Wrapper",
          "type": "address"
        }
      ],
      "stateMutability": "nonpayable",
      "type": "constructor"
    },
    {
      "anonymous": false,
      "inputs": [
        {
          "indexed": true,
          "internalType": "address",
          "name": "account",
          "type": "address"
        },
        {
          "indexed": true,
          "internalType": "address",
          "name": "operator",
          "type": "address"
        },
        {
          "indexed": false,
          "internalType": "bool",
          "name": "approved",
          "type": "bool"
        }
      ],
      "name": "ApprovalForAll",
      "type": "event"
    },
    {
      "anonymous": false,
      "inputs": [
        {
          "indexed": true,
          "internalType": "address",
          "name": "operator",
          "type": "address"
        },
        {
          "indexed": true,
          "internalType": "address",
          "name": "from",
          "type": "address"
        },
        {
          "indexed": true,
          "internalType": "address",
          "name": "to",
          "type": "address"
        },
        {
          "indexed": false,
          "internalType": "uint256[]",
          "name": "ids",
          "type": "uint256[]"
        },
        {
          "indexed": false,
          "internalType": "uint256[]",
          "name": "values",
          "type": "uint256[]"
        }
      ],
      "name": "TransferBatch",
      "type": "event"
    },
    {
      "anonymous": false,
      "inputs": [
        {
          "indexed": true,
          "internalType": "address",
          "name": "operator",
          "type": "address"
        },
        {
          "indexed": true,
          "internalType": "address",
          "name": "from",
          "type": "address"
        },
        {
          "indexed": true,
          "internalType": "address",
          "name": "to",
          "type": "address"
        },
        {
          "indexed": false,
          "internalType": "uint256",
          "name": "id",
          "type": "uint256"
        },
        {
          "indexed": false,
          "internalType": "uint256",
          "name": "value",
          "type": "uint256"
        }
      ],
      "name": "TransferSingle",
      "type": "event"
    },
    {
      "anonymous": false,
      "inputs": [
        {
          "indexed": false,
          "internalType": "string",
          "name": "value",
          "type": "string"
        },
        {
          "indexed": true,
          "internalType": "uint256",
          "name": "id",
          "type": "uint256"
        }
      ],
      "name": "URI",
      "type": "event"
    },
    {
      "inputs": [
        {
          "internalType": "address",
          "name": "account",
          "type": "address"
        },
        {
          "internalType": "uint256",
          "name": "id",
          "type": "uint256"
        }
      ],
      "name": "balanceOf",
      "outputs": [
        {
          "internalType": "uint256",
          "name": "",
          "type": "uint256"
        }
      ],
      "stateMutability": "view",
      "type": "function"
    },
    {
      "inputs": [
        {
          "internalType": "address[]",
          "name": "accounts",
          "type": "address[]"
        },
        {
          "internalType": "uint256[]",
          "name": "ids",
          "type": "uint256[]"
        }
      ],
      "name": "balanceOfBatch",
      "outputs": [
        {
          "internalType": "uint256[]",
          "name": "",
          "type": "uint256[]"
        }
      ],
      "stateMutability": "view",
      "type": "function"
    },
    {
      "inputs": [
        {
          "internalType": "uint256",
          "name": "",
          "type": "uint256"
        }
      ],
      "name": "idHasBeenRepaid",
      "outputs": [
        {
          "internalType": "bool",
          "name": "",
          "type": "bool"
        }
      ],
      "stateMutability": "view",
      "type": "function"
    },
    {
      "inputs": [
        {
          "internalType": "uint256",
          "name": "",
          "type": "uint256"
        }
      ],
      "name": "idToBorrowedAmount",
      "outputs": [
        {
          "internalType": "uint256",
          "name": "",
          "type": "uint256"
        }
      ],
      "stateMutability": "view",
      "type": "function"
    },
    {
      "inputs": [
        {
          "internalType": "uint256",
          "name": "",
          "type": "uint256"
        }
      ],
      "name": "idToFractionalized",
      "outputs": [
        {
          "internalType": "contract IERC20",
          "name": "",
          "type": "address"
        }
      ],
      "stateMutability": "view",
      "type": "function"
    },
    {
      "inputs": [
        {
          "internalType": "uint256",
          "name": "",
          "type": "uint256"
        }
      ],
      "name": "idToLastUpdate",
      "outputs": [
        {
          "internalType": "uint256",
          "name": "",
          "type": "uint256"
        }
      ],
      "stateMutability": "view",
      "type": "function"
    },
    {
      "inputs": [
        {
          "internalType": "uint256",
          "name": "",
          "type": "uint256"
        }
      ],
      "name": "idToTokenPrice",
      "outputs": [
        {
          "internalType": "uint256",
          "name": "",
          "type": "uint256"
        }
      ],
      "stateMutability": "view",
      "type": "function"
    },
    {
      "inputs": [
        {
          "internalType": "address",
          "name": "account",
          "type": "address"
        },
        {
          "internalType": "address",
          "name": "operator",
          "type": "address"
        }
      ],
      "name": "isApprovedForAll",
      "outputs": [
        {
          "internalType": "bool",
          "name": "",
          "type": "bool"
        }
      ],
      "stateMutability": "view",
      "type": "function"
    },
    {
      "inputs": [
        {
          "internalType": "address",
          "name": "from",
          "type": "address"
        },
        {
          "internalType": "address",
          "name": "to",
          "type": "address"
        },
        {
          "internalType": "uint256[]",
          "name": "ids",
          "type": "uint256[]"
        },
        {
          "internalType": "uint256[]",
          "name": "amounts",
          "type": "uint256[]"
        },
        {
          "internalType": "bytes",
          "name": "data",
          "type": "bytes"
        }
      ],
      "name": "safeBatchTransferFrom",
      "outputs": [],
      "stateMutability": "nonpayable",
      "type": "function"
    },
    {
      "inputs": [
        {
          "internalType": "address",
          "name": "from",
          "type": "address"
        },
        {
          "internalType": "address",
          "name": "to",
          "type": "address"
        },
        {
          "internalType": "uint256",
          "name": "id",
          "type": "uint256"
        },
        {
          "internalType": "uint256",
          "name": "amount",
          "type": "uint256"
        },
        {
          "internalType": "bytes",
          "name": "data",
          "type": "bytes"
        }
      ],
      "name": "safeTransferFrom",
      "outputs": [],
      "stateMutability": "nonpayable",
      "type": "function"
    },
    {
      "inputs": [
        {
          "internalType": "address",
          "name": "operator",
          "type": "address"
        },
        {
          "internalType": "bool",
          "name": "approved",
          "type": "bool"
        }
      ],
      "name": "setApprovalForAll",
      "outputs": [],
      "stateMutability": "nonpayable",
      "type": "function"
    },
    {
      "inputs": [
        {
          "internalType": "uint256",
          "name": "",
          "type": "uint256"
        }
      ],
      "name": "uri",
      "outputs": [
        {
          "internalType": "string",
          "name": "",
          "type": "string"
        }
      ],
      "stateMutability": "view",
      "type": "function"
    },
    {
      "inputs": [
        {
          "internalType": "bytes4",
          "name": "interfaceId",
          "type": "bytes4"
        }
      ],
      "name": "supportsInterface",
      "outputs": [
        {
          "internalType": "bool",
          "name": "",
          "type": "bool"
        }
      ],
      "stateMutability": "view",
      "type": "function"
    },
    {
      "inputs": [
        {
          "internalType": "address",
          "name": "nftContract",
          "type": "address"
        },
        {
          "internalType": "uint256",
          "name": "nftId",
          "type": "uint256"
        },
        {
          "internalType": "uint256",
          "name": "endTime",
          "type": "uint256"
        },
        {
          "internalType": "uint256",
          "name": "borrowCeiling",
          "type": "uint256"
        },
        {
          "internalType": "uint256",
          "name": "interest",
          "type": "uint256"
        }
      ],
      "name": "getId",
      "outputs": [
        {
          "internalType": "uint256",
          "name": "id",
          "type": "uint256"
        }
      ],
      "stateMutability": "pure",
      "type": "function"
    },
    {
      "inputs": [
        {
          "internalType": "address",
          "name": "nftContract",
          "type": "address"
        },
        {
          "internalType": "uint256",
          "name": "nftId",
          "type": "uint256"
        },
        {
          "internalType": "uint256",
          "name": "endTime",
          "type": "uint256"
        },
        {
          "internalType": "uint256",
          "name": "borrowCeiling",
          "type": "uint256"
        },
        {
          "internalType": "uint256",
          "name": "interestPerEthPerDay",
          "type": "uint256"
        },
        {
          "internalType": "bool",
          "name": "isERC721",
          "type": "bool"
        }
      ],
      "name": "repay",
      "outputs": [],
      "stateMutability": "payable",
      "type": "function"
    },
    {
      "inputs": [
        {
          "internalType": "address",
          "name": "nftContract",
          "type": "address"
        },
        {
          "internalType": "uint256",
          "name": "nftId",
          "type": "uint256"
        },
        {
          "internalType": "uint256",
          "name": "endTime",
          "type": "uint256"
        },
        {
          "internalType": "uint256",
          "name": "borrowCeiling",
          "type": "uint256"
        },
        {
          "internalType": "uint256",
          "name": "interestPerEthPerDay",
          "type": "uint256"
        },
        {
          "internalType": "address payable",
          "name": "currentOwner",
          "type": "address"
        }
      ],
      "name": "lend",
      "outputs": [],
      "stateMutability": "payable",
      "type": "function"
    },
    {
      "inputs": [
        {
          "internalType": "uint256",
          "name": "id",
          "type": "uint256"
        },
        {
          "internalType": "address",
          "name": "account",
          "type": "address"
        }
      ],
      "name": "getUnderlyingBalance",
      "outputs": [
        {
          "internalType": "uint256",
          "name": "depositTokensOwned",
          "type": "uint256"
        },
        {
          "internalType": "uint256",
          "name": "ethWithInterest",
          "type": "uint256"
        }
      ],
      "stateMutability": "view",
      "type": "function"
    },
    {
      "inputs": [
        {
          "internalType": "uint256",
          "name": "id",
          "type": "uint256"
        }
      ],
      "name": "recoverEth",
      "outputs": [],
      "stateMutability": "nonpayable",
      "type": "function"
    },
    {
      "inputs": [
        {
          "internalType": "address",
          "name": "nftContract",
          "type": "address"
        },
        {
          "internalType": "uint256",
          "name": "nftId",
          "type": "uint256"
        },
        {
          "internalType": "uint256",
          "name": "endTime",
          "type": "uint256"
        },
        {
          "internalType": "uint256",
          "name": "borrowCeiling",
          "type": "uint256"
        },
        {
          "internalType": "uint256",
          "name": "interestPerEthPerDay",
          "type": "uint256"
        },
        {
          "internalType": "bool",
          "name": "isERC721",
          "type": "bool"
        },
        {
          "internalType": "address",
          "name": "previousOwner",
          "type": "address"
        },
        {
          "internalType": "string",
          "name": "_name",
          "type": "string"
        },
        {
          "internalType": "string",
          "name": "_symbol",
          "type": "string"
        }
      ],
      "name": "rug",
      "outputs": [],
      "stateMutability": "nonpayable",
      "type": "function"
    },
    {
      "inputs": [
        {
          "internalType": "uint256",
          "name": "id",
          "type": "uint256"
        }
      ],
      "name": "mintRuggedTokens",
      "outputs": [],
      "stateMutability": "nonpayable",
      "type": "function"
    },
    {
      "inputs": [
        {
          "internalType": "uint256",
          "name": "id",
          "type": "uint256"
        }
      ],
      "name": "getFractionalTokens",
      "outputs": [],
      "stateMutability": "nonpayable",
      "type": "function"
    },
    {
      "inputs": [
        {
          "internalType": "uint256",
          "name": "id",
          "type": "uint256"
        }
      ],
      "name": "sweepDust",
      "outputs": [],
      "stateMutability": "nonpayable",
      "type": "function"
    },
    {
      "inputs": [
        {
          "internalType": "uint256",
          "name": "id",
          "type": "uint256"
        },
        {
          "internalType": "uint256",
          "name": "amountInTokens",
          "type": "uint256"
        }
      ],
      "name": "getPartialFractionalTokens",
      "outputs": [],
      "stateMutability": "nonpayable",
      "type": "function"
    },
    {
      "inputs": [
        {
          "internalType": "uint256",
          "name": "id",
          "type": "uint256"
        },
        {
          "internalType": "uint256",
          "name": "amountInTokens",
          "type": "uint256"
        }
      ],
      "name": "sweepFractionalTokens",
      "outputs": [],
      "stateMutability": "nonpayable",
      "type": "function"
    },
    {
      "inputs": [
        {
          "internalType": "address",
          "name": "_operator",
          "type": "address"
        },
        {
          "internalType": "address",
          "name": "_from",
          "type": "address"
        },
        {
          "internalType": "uint256",
          "name": "_tokenId",
          "type": "uint256"
        },
        {
          "internalType": "bytes",
          "name": "_data",
          "type": "bytes"
        }
      ],
      "name": "onERC721Received",
      "outputs": [
        {
          "internalType": "bytes4",
          "name": "",
          "type": "bytes4"
        }
      ],
      "stateMutability": "nonpayable",
      "type": "function"
    },
    {
      "inputs": [
        {
          "internalType": "address",
          "name": "_operator",
          "type": "address"
        },
        {
          "internalType": "address",
          "name": "_from",
          "type": "address"
        },
        {
          "internalType": "uint256",
          "name": "_id",
          "type": "uint256"
        },
        {
          "internalType": "uint256",
          "name": "_value",
          "type": "uint256"
        },
        {
          "internalType": "bytes",
          "name": "_data",
          "type": "bytes"
        }
      ],
      "name": "onERC1155Received",
      "outputs": [
        {
          "internalType": "bytes4",
          "name": "",
          "type": "bytes4"
        }
      ],
      "stateMutability": "nonpayable",
      "type": "function"
    }
  ],
  "bytecode": "0x60a06040523480156200001157600080fd5b50604051620055463803806200554683398181016040528101906200003791906200025a565b6040518060600160405280602a81526020016200551c602a913962000062816200012460201b60201c565b508073ffffffffffffffffffffffffffffffffffffffff1660808173ffffffffffffffffffffffffffffffffffffffff16815250508073ffffffffffffffffffffffffffffffffffffffff1663a22cb46573d476a4c53f6b413d639677524d5e3a83a96c272260016040518363ffffffff1660e01b8152600401620000e9929190620002ba565b600060405180830381600087803b1580156200010457600080fd5b505af115801562000119573d6000803e3d6000fd5b50505050506200034c565b80600290805190602001906200013c92919062000140565b5050565b8280546200014e9062000316565b90600052602060002090601f016020900481019282620001725760008555620001be565b82601f106200018d57805160ff1916838001178555620001be565b82800160010185558215620001be579182015b82811115620001bd578251825591602001919060010190620001a0565b5b509050620001cd9190620001d1565b5090565b5b80821115620001ec576000816000905550600101620001d2565b5090565b600080fd5b600073ffffffffffffffffffffffffffffffffffffffff82169050919050565b60006200022282620001f5565b9050919050565b620002348162000215565b81146200024057600080fd5b50565b600081519050620002548162000229565b92915050565b600060208284031215620002735762000272620001f0565b5b6000620002838482850162000243565b91505092915050565b620002978162000215565b82525050565b60008115159050919050565b620002b4816200029d565b82525050565b6000604082019050620002d160008301856200028c565b620002e06020830184620002a9565b9392505050565b7f4e487b7100000000000000000000000000000000000000000000000000000000600052602260045260246000fd5b600060028204905060018216806200032f57607f821691505b60208210811415620003465762000345620002e7565b5b50919050565b6080516151a66200037660003960008181610ccb01528181610d400152610d6301526151a66000f3fe6080604052600436106101805760003560e01c806355e2e46e116100d1578063dcc1f0cf1161008a578063f23a6e6111610064578063f23a6e61146105ce578063f242432a1461060b578063fdc5d3fb14610634578063fe560b141461067157610180565b8063dcc1f0cf1461053f578063e985e9c514610568578063ea80b1de146105a557610180565b806355e2e46e1461043b5780636950a3ac14610457578063938b60d914610473578063a22cb4651461049c578063a2e7d53b146104c5578063d8151b941461050257610180565b80632c88c62a1161013e57806346cf94521161011857806346cf94521461036f5780634e1273f4146103985780634e25b08b146103d557806353d588de146103fe57610180565b80632c88c62a146102f45780632eb2c2d61461031d578063454a030d1461034657610180565b8062fdd58e1461018557806301ffc9a7146101c25780630e89341c146101ff5780630ebbd4c91461023c5780631146d90e14610279578063150b7a02146102b7575b600080fd5b34801561019157600080fd5b506101ac60048036038101906101a79190612edd565b6106ae565b6040516101b99190612f2c565b60405180910390f35b3480156101ce57600080fd5b506101e960048036038101906101e49190612f9f565b610777565b6040516101f69190612fe7565b60405180910390f35b34801561020b57600080fd5b5061022660048036038101906102219190613002565b6107f1565b60405161023391906130c8565b60405180910390f35b34801561024857600080fd5b50610263600480360381019061025e9190613002565b610885565b6040516102709190612f2c565b60405180910390f35b34801561028557600080fd5b506102a0600480360381019061029b91906130ea565b61089d565b6040516102ae92919061312a565b60405180910390f35b3480156102c357600080fd5b506102de60048036038101906102d991906131b8565b6108ef565b6040516102eb919061324f565b60405180910390f35b34801561030057600080fd5b5061031b6004803603810190610316919061326a565b61092e565b005b34801561032957600080fd5b50610344600480360381019061033f919061349d565b610945565b005b34801561035257600080fd5b5061036d60048036038101906103689190613002565b6109e6565b005b34801561037b57600080fd5b5061039660048036038101906103919190613639565b610ad4565b005b3480156103a457600080fd5b506103bf60048036038101906103ba91906137fe565b610f83565b6040516103cc9190613934565b60405180910390f35b3480156103e157600080fd5b506103fc60048036038101906103f79190613002565b61109c565b005b34801561040a57600080fd5b5061042560048036038101906104209190613002565b611155565b6040516104329190612f2c565b60405180910390f35b61045560048036038101906104509190613956565b61116d565b005b610471600480360381019061046c9190613a21565b61120f565b005b34801561047f57600080fd5b5061049a6004803603810190610495919061326a565b611366565b005b3480156104a857600080fd5b506104c360048036038101906104be9190613aae565b611460565b005b3480156104d157600080fd5b506104ec60048036038101906104e79190613002565b611476565b6040516104f99190612fe7565b60405180910390f35b34801561050e57600080fd5b5061052960048036038101906105249190613aee565b611496565b6040516105369190612f2c565b60405180910390f35b34801561054b57600080fd5b5061056660048036038101906105619190613002565b6114d5565b005b34801561057457600080fd5b5061058f600480360381019061058a9190613b69565b6115d0565b60405161059c9190612fe7565b60405180910390f35b3480156105b157600080fd5b506105cc60048036038101906105c79190613002565b611664565b005b3480156105da57600080fd5b506105f560048036038101906105f09190613ba9565b61173f565b604051610602919061324f565b60405180910390f35b34801561061757600080fd5b50610632600480360381019061062d9190613c43565b611770565b005b34801561064057600080fd5b5061065b60048036038101906106569190613002565b611811565b6040516106689190613d39565b60405180910390f35b34801561067d57600080fd5b5061069860048036038101906106939190613002565b611844565b6040516106a59190612f2c565b60405180910390f35b60008073ffffffffffffffffffffffffffffffffffffffff168373ffffffffffffffffffffffffffffffffffffffff16141561071f576040517f08c379a000000000000000000000000000000000000000000000000000000000815260040161071690613dc6565b60405180910390fd5b60008083815260200190815260200160002060008473ffffffffffffffffffffffffffffffffffffffff1673ffffffffffffffffffffffffffffffffffffffff16815260200190815260200160002054905092915050565b60006107828261185c565b806107ea57507f4e2312e0000000000000000000000000000000000000000000000000000000007bffffffffffffffffffffffffffffffffffffffffffffffffffffffff1916827bffffffffffffffffffffffffffffffffffffffffffffffffffffffff1916145b9050919050565b60606002805461080090613e15565b80601f016020809104026020016040519081016040528092919081815260200182805461082c90613e15565b80156108795780601f1061084e57610100808354040283529160200191610879565b820191906000526020600020905b81548152906001019060200180831161085c57829003601f168201915b50505050509050919050565b60056020528060005260406000206000915090505481565b6000806108b2836108ad8661193e565b6106ae565b9150670de0b6b3a76400006003600086815260200190815260200160002054836108dc9190613e76565b6108e69190613eff565b90509250929050565b60008060008085858101906109049190613f30565b92509250925061091889338986868661194b565b63150b7a0260e01b935050505095945050505050565b6109388282611366565b610941826114d5565b5050565b61094d6119f7565b73ffffffffffffffffffffffffffffffffffffffff168573ffffffffffffffffffffffffffffffffffffffff16148061099357506109928561098d6119f7565b6115d0565b5b6109d2576040517f08c379a00000000000000000000000000000000000000000000000000000000081526004016109c990613ff5565b60405180910390fd5b6109df85858585856119ff565b5050505050565b600060086000838152602001908152602001600020604051806040016040529081600082015481526020016001820160009054906101000a900473ffffffffffffffffffffffffffffffffffffffff1673ffffffffffffffffffffffffffffffffffffffff1673ffffffffffffffffffffffffffffffffffffffff16815250509050600860008381526020019081526020016000206000808201600090556001820160006101000a81549073ffffffffffffffffffffffffffffffffffffffff02191690555050610ad0816020015183836000015160405180602001604052806000815250611d13565b5050565b864211610b16576040517f08c379a0000000000000000000000000000000000000000000000000000000008152600401610b0d90614061565b60405180910390fd5b6000610b258a8a8a8a8a611496565b9050610b3384826001611ea9565b6000610b3f82886120c6565b905080881115610c20576000818903905060405180604001604052806003600086815260200190815260200160002054670de0b6b3a764000084610b839190613e76565b610b8d9190613eff565b81526020018773ffffffffffffffffffffffffffffffffffffffff1681525060086000610bb98661193e565b81526020019081526020016000206000820151816000015560208201518160010160006101000a81548173ffffffffffffffffffffffffffffffffffffffff021916908373ffffffffffffffffffffffffffffffffffffffff160217905550905050889150505b8515610cac578a73ffffffffffffffffffffffffffffffffffffffff1663095ea7b373d476a4c53f6b413d639677524d5e3a83a96c27228c6040518363ffffffff1660e01b8152600401610c75929190614090565b600060405180830381600087803b158015610c8f57600080fd5b505af1158015610ca3573d6000803e3d6000fd5b50505050610df3565b8a73ffffffffffffffffffffffffffffffffffffffff1663f242432a307f00000000000000000000000000000000000000000000000000000000000000008d60016040518563ffffffff1660e01b8152600401610d0c949392919061412b565b600060405180830381600087803b158015610d2657600080fd5b505af1158015610d3a573d6000803e3d6000fd5b505050507f00000000000000000000000000000000000000000000000000000000000000009a507f000000000000000000000000000000000000000000000000000000000000000073ffffffffffffffffffffffffffffffffffffffff1663210ce6b96040518163ffffffff1660e01b8152600401602060405180830381865afa158015610dcc573d6000803e3d6000fd5b505050506040513d601f19601f82011682018060405250810190610df09190614198565b99505b600073d476a4c53f6b413d639677524d5e3a83a96c272273ffffffffffffffffffffffffffffffffffffffff1663bdc0111086868f8f878f60006040518863ffffffff1660e01b8152600401610e4f9796959493929190614200565b6020604051808303816000875af1158015610e6e573d6000803e3d6000fd5b505050506040513d601f19601f82011682018060405250810190610e929190614198565b905073d476a4c53f6b413d639677524d5e3a83a96c272273ffffffffffffffffffffffffffffffffffffffff16638c64ea4a826040518263ffffffff1660e01b8152600401610ee19190612f2c565b6020604051808303816000875af1158015610f00573d6000803e3d6000fd5b505050506040513d601f19601f82011682018060405250810190610f249190614292565b6006600085815260200190815260200160002060006101000a81548173ffffffffffffffffffffffffffffffffffffffff021916908373ffffffffffffffffffffffffffffffffffffffff160217905550505050505050505050505050565b60608151835114610fc9576040517f08c379a0000000000000000000000000000000000000000000000000000000008152600401610fc090614331565b60405180910390fd5b6000835167ffffffffffffffff811115610fe657610fe56132aa565b5b6040519080825280602002602001820160405280156110145781602001602082028036833780820191505090505b50905060005b84518110156110915761106185828151811061103957611038614351565b5b602002602001015185838151811061105457611053614351565b5b60200260200101516106ae565b82828151811061107457611073614351565b5b6020026020010181815250508061108a90614380565b905061101a565b508091505092915050565b600115156007600083815260200190815260200160002060009054906101000a900460ff16151514611103576040517f08c379a00000000000000000000000000000000000000000000000000000000081526004016110fa90614415565b60405180910390fd5b600080611110833361089d565b91509150611127336111218561193e565b84611ea9565b611150813373ffffffffffffffffffffffffffffffffffffffff166121a890919063ffffffff16565b505050565b60046020528060005260406000206000915090505481565b600061117c8787878787611496565b9050600061118a82856120c6565b905061119833836001611ea9565b6111cc81346111a79190614435565b3373ffffffffffffffffffffffffffffffffffffffff166121a890919063ffffffff16565b60016007600084815260200190815260200160002060006101000a81548160ff021916908315150217905550611205888830338761229c565b5050505050505050565b600061121e8787878787611496565b905060003461122d83866120c6565b6112379190614469565b905084811061127b576040517f08c379a00000000000000000000000000000000000000000000000000000000081526004016112729061450b565b60405180910390fd5b8060056000848152602001908152602001600020819055506112bc348473ffffffffffffffffffffffffffffffffffffffff166121a890919063ffffffff16565b60016112c884846106ae565b14611308576040517f08c379a00000000000000000000000000000000000000000000000000000000081526004016112ff90614577565b60405180910390fd5b61135c336113158461193e565b6003600086815260200190815260200160002054670de0b6b3a76400003461133d9190613e76565b6113479190613eff565b60405180602001604052806000815250611d13565b5050505050505050565b611379336113738461193e565b83611ea9565b6006600083815260200190815260200160002060009054906101000a900473ffffffffffffffffffffffffffffffffffffffff1673ffffffffffffffffffffffffffffffffffffffff1663a9059cbb33670de0b6b3a76400006003600087815260200190815260200160002054856113f19190613e76565b6113fb9190613eff565b6040518363ffffffff1660e01b8152600401611418929190614090565b6020604051808303816000875af1158015611437573d6000803e3d6000fd5b505050506040513d601f19601f8201168201806040525081019061145b91906145ac565b505050565b61147261146b6119f7565b8383612390565b5050565b60076020528060005260406000206000915054906101000a900460ff1681565b600085858585856040516020016114b1959493929190614642565b6040516020818303038152906040528051906020012060001c905095945050505050565b60006006600083815260200190815260200160002060009054906101000a900473ffffffffffffffffffffffffffffffffffffffff1673ffffffffffffffffffffffffffffffffffffffff166370a08231336040518263ffffffff1660e01b815260040161154391906146a1565b602060405180830381865afa158015611560573d6000803e3d6000fd5b505050506040513d601f19601f820116820180604052508101906115849190614198565b116115c4576040517f08c379a00000000000000000000000000000000000000000000000000000000081526004016115bb90614708565b60405180910390fd5b6115cd816124fd565b50565b6000600160008473ffffffffffffffffffffffffffffffffffffffff1673ffffffffffffffffffffffffffffffffffffffff16815260200190815260200160002060008373ffffffffffffffffffffffffffffffffffffffff1673ffffffffffffffffffffffffffffffffffffffff16815260200190815260200160002060009054906101000a900460ff16905092915050565b600080611671833361089d565b91509150611688336116828561193e565b84611ea9565b6006600084815260200190815260200160002060009054906101000a900473ffffffffffffffffffffffffffffffffffffffff1673ffffffffffffffffffffffffffffffffffffffff1663a9059cbb33836040518363ffffffff1660e01b81526004016116f6929190614090565b6020604051808303816000875af1158015611715573d6000803e3d6000fd5b505050506040513d601f19601f8201168201806040525081019061173991906145ac565b50505050565b60006001841461174e57600080fd5b61175b87878786866108ef565b5063f23a6e6160e01b90509695505050505050565b6117786119f7565b73ffffffffffffffffffffffffffffffffffffffff168573ffffffffffffffffffffffffffffffffffffffff1614806117be57506117bd856117b86119f7565b6115d0565b5b6117fd576040517f08c379a00000000000000000000000000000000000000000000000000000000081526004016117f49061479a565b60405180910390fd5b61180a85858585856126f4565b5050505050565b60066020528060005260406000206000915054906101000a900473ffffffffffffffffffffffffffffffffffffffff1681565b60036020528060005260406000206000915090505481565b60007fd9b67a26000000000000000000000000000000000000000000000000000000007bffffffffffffffffffffffffffffffffffffffffffffffffffffffff1916827bffffffffffffffffffffffffffffffffffffffffffffffffffffffff1916148061192757507f0e89341c000000000000000000000000000000000000000000000000000000007bffffffffffffffffffffffffffffffffffffffffffffffffffffffff1916827bffffffffffffffffffffffffffffffffffffffffffffffffffffffff1916145b80611937575061193682612976565b5b9050919050565b6000600182019050919050565b600061195a8686868686611496565b905060006003600083815260200190815260200160002054146119b2576040517f08c379a00000000000000000000000000000000000000000000000000000000081526004016119a990614806565b60405180910390fd5b670de0b6b3a764000060036000838152602001908152602001600020819055506119ee8782600160405180602001604052806000815250611d13565b50505050505050565b600033905090565b8151835114611a43576040517f08c379a0000000000000000000000000000000000000000000000000000000008152600401611a3a90614898565b60405180910390fd5b600073ffffffffffffffffffffffffffffffffffffffff168473ffffffffffffffffffffffffffffffffffffffff161415611ab3576040517f08c379a0000000000000000000000000000000000000000000000000000000008152600401611aaa9061492a565b60405180910390fd5b6000611abd6119f7565b9050611acd8187878787876129e0565b60005b8451811015611c7e576000858281518110611aee57611aed614351565b5b602002602001015190506000858381518110611b0d57611b0c614351565b5b60200260200101519050600080600084815260200190815260200160002060008b73ffffffffffffffffffffffffffffffffffffffff1673ffffffffffffffffffffffffffffffffffffffff16815260200190815260200160002054905081811015611bae576040517f08c379a0000000000000000000000000000000000000000000000000000000008152600401611ba5906149bc565b60405180910390fd5b81810360008085815260200190815260200160002060008c73ffffffffffffffffffffffffffffffffffffffff1673ffffffffffffffffffffffffffffffffffffffff168152602001908152602001600020819055508160008085815260200190815260200160002060008b73ffffffffffffffffffffffffffffffffffffffff1673ffffffffffffffffffffffffffffffffffffffff1681526020019081526020016000206000828254611c639190614469565b9250508190555050505080611c7790614380565b9050611ad0565b508473ffffffffffffffffffffffffffffffffffffffff168673ffffffffffffffffffffffffffffffffffffffff168273ffffffffffffffffffffffffffffffffffffffff167f4a39dc06d4c0dbc64b70af90fd698a233a518aa5d07e595d983b8c0526c8f7fb8787604051611cf59291906149dc565b60405180910390a4611d0b8187878787876129e8565b505050505050565b600073ffffffffffffffffffffffffffffffffffffffff168473ffffffffffffffffffffffffffffffffffffffff161415611d83576040517f08c379a0000000000000000000000000000000000000000000000000000000008152600401611d7a90614a85565b60405180910390fd5b6000611d8d6119f7565b9050611dae81600087611d9f88612bc0565b611da888612bc0565b876129e0565b8260008086815260200190815260200160002060008773ffffffffffffffffffffffffffffffffffffffff1673ffffffffffffffffffffffffffffffffffffffff1681526020019081526020016000206000828254611e0d9190614469565b925050819055508473ffffffffffffffffffffffffffffffffffffffff16600073ffffffffffffffffffffffffffffffffffffffff168273ffffffffffffffffffffffffffffffffffffffff167fc3d58168c5ae7397731d063d5bbf3d657854427343f4c083240f7aacaa2d0f628787604051611e8b92919061312a565b60405180910390a4611ea281600087878787612c3a565b5050505050565b600073ffffffffffffffffffffffffffffffffffffffff168373ffffffffffffffffffffffffffffffffffffffff161415611f19576040517f08c379a0000000000000000000000000000000000000000000000000000000008152600401611f1090614b17565b60405180910390fd5b6000611f236119f7565b9050611f5381856000611f3587612bc0565b611f3e87612bc0565b604051806020016040528060008152506129e0565b600080600085815260200190815260200160002060008673ffffffffffffffffffffffffffffffffffffffff1673ffffffffffffffffffffffffffffffffffffffff16815260200190815260200160002054905082811015611fea576040517f08c379a0000000000000000000000000000000000000000000000000000000008152600401611fe190614ba9565b60405180910390fd5b82810360008086815260200190815260200160002060008773ffffffffffffffffffffffffffffffffffffffff1673ffffffffffffffffffffffffffffffffffffffff16815260200190815260200160002081905550600073ffffffffffffffffffffffffffffffffffffffff168573ffffffffffffffffffffffffffffffffffffffff168373ffffffffffffffffffffffffffffffffffffffff167fc3d58168c5ae7397731d063d5bbf3d657854427343f4c083240f7aacaa2d0f6287876040516120b792919061312a565b60405180910390a45050505050565b6000806004600085815260200190815260200160002054420390504260046000868152602001908152602001600020819055506000600560008681526020019081526020016000205490506000811415612125576000925050506121a2565b69124bc0ddd92e5600000082858361213d9190613e76565b6121479190613e76565b6121519190613eff565b8161215c9190614469565b92508083600360008881526020019081526020016000205461217e9190613e76565b6121889190613eff565b600360008781526020019081526020016000208190555050505b92915050565b804710156121eb576040517f08c379a00000000000000000000000000000000000000000000000000000000081526004016121e290614c15565b60405180910390fd5b60008273ffffffffffffffffffffffffffffffffffffffff168260405161221190614c63565b60006040518083038185875af1925050503d806000811461224e576040519150601f19603f3d011682016040523d82523d6000602084013e612253565b606091505b5050905080612297576040517f08c379a000000000000000000000000000000000000000000000000000000000815260040161228e90614cea565b60405180910390fd5b505050565b8015612316578473ffffffffffffffffffffffffffffffffffffffff166342842e0e8484876040518463ffffffff1660e01b81526004016122df93929190614d0a565b600060405180830381600087803b1580156122f957600080fd5b505af115801561230d573d6000803e3d6000fd5b50505050612389565b8473ffffffffffffffffffffffffffffffffffffffff1663f242432a84848760016040518563ffffffff1660e01b8152600401612356949392919061412b565b600060405180830381600087803b15801561237057600080fd5b505af1158015612384573d6000803e3d6000fd5b505050505b5050505050565b8173ffffffffffffffffffffffffffffffffffffffff168373ffffffffffffffffffffffffffffffffffffffff1614156123ff576040517f08c379a00000000000000000000000000000000000000000000000000000000081526004016123f690614db3565b60405180910390fd5b80600160008573ffffffffffffffffffffffffffffffffffffffff1673ffffffffffffffffffffffffffffffffffffffff16815260200190815260200160002060008473ffffffffffffffffffffffffffffffffffffffff1673ffffffffffffffffffffffffffffffffffffffff16815260200190815260200160002060006101000a81548160ff0219169083151502179055508173ffffffffffffffffffffffffffffffffffffffff168373ffffffffffffffffffffffffffffffffffffffff167f17307eab39ab6107e8899845ad3d59bd9653f200f220920489ca2b5937696c31836040516124f09190612fe7565b60405180910390a3505050565b60006006600083815260200190815260200160002060009054906101000a900473ffffffffffffffffffffffffffffffffffffffff16905060008173ffffffffffffffffffffffffffffffffffffffff166370a08231306040518263ffffffff1660e01b815260040161257091906146a1565b602060405180830381865afa15801561258d573d6000803e3d6000fd5b505050506040513d601f19601f820116820180604052508101906125b19190614198565b90508173ffffffffffffffffffffffffffffffffffffffff166318160ddd6040518163ffffffff1660e01b8152600401602060405180830381865afa1580156125fe573d6000803e3d6000fd5b505050506040513d601f19601f820116820180604052508101906126229190614198565b612710826126309190613e76565b10612670576040517f08c379a000000000000000000000000000000000000000000000000000000000815260040161266790614e1f565b60405180910390fd5b8173ffffffffffffffffffffffffffffffffffffffff1663a9059cbb33836040518363ffffffff1660e01b81526004016126ab929190614090565b6020604051808303816000875af11580156126ca573d6000803e3d6000fd5b505050506040513d601f19601f820116820180604052508101906126ee91906145ac565b50505050565b600073ffffffffffffffffffffffffffffffffffffffff168473ffffffffffffffffffffffffffffffffffffffff161415612764576040517f08c379a000000000000000000000000000000000000000000000000000000000815260040161275b9061492a565b60405180910390fd5b600061276e6119f7565b905061278e81878761277f88612bc0565b61278888612bc0565b876129e0565b600080600086815260200190815260200160002060008873ffffffffffffffffffffffffffffffffffffffff1673ffffffffffffffffffffffffffffffffffffffff16815260200190815260200160002054905083811015612825576040517f08c379a000000000000000000000000000000000000000000000000000000000815260040161281c906149bc565b60405180910390fd5b83810360008087815260200190815260200160002060008973ffffffffffffffffffffffffffffffffffffffff1673ffffffffffffffffffffffffffffffffffffffff168152602001908152602001600020819055508360008087815260200190815260200160002060008873ffffffffffffffffffffffffffffffffffffffff1673ffffffffffffffffffffffffffffffffffffffff16815260200190815260200160002060008282546128da9190614469565b925050819055508573ffffffffffffffffffffffffffffffffffffffff168773ffffffffffffffffffffffffffffffffffffffff168373ffffffffffffffffffffffffffffffffffffffff167fc3d58168c5ae7397731d063d5bbf3d657854427343f4c083240f7aacaa2d0f62888860405161295792919061312a565b60405180910390a461296d828888888888612c3a565b50505050505050565b60007f01ffc9a7000000000000000000000000000000000000000000000000000000007bffffffffffffffffffffffffffffffffffffffffffffffffffffffff1916827bffffffffffffffffffffffffffffffffffffffffffffffffffffffff1916149050919050565b505050505050565b612a078473ffffffffffffffffffffffffffffffffffffffff16612e12565b15612bb8578373ffffffffffffffffffffffffffffffffffffffff1663bc197c8187878686866040518663ffffffff1660e01b8152600401612a4d959493929190614e83565b6020604051808303816000875af1925050508015612a8957506040513d601f19601f82011682018060405250810190612a869190614f00565b60015b612b2f57612a95614f3a565b806308c379a01415612af25750612aaa614f5c565b80612ab55750612af4565b806040517f08c379a0000000000000000000000000000000000000000000000000000000008152600401612ae991906130c8565b60405180910390fd5b505b6040517f08c379a0000000000000000000000000000000000000000000000000000000008152600401612b2690615064565b60405180910390fd5b63bc197c8160e01b7bffffffffffffffffffffffffffffffffffffffffffffffffffffffff1916817bffffffffffffffffffffffffffffffffffffffffffffffffffffffff191614612bb6576040517f08c379a0000000000000000000000000000000000000000000000000000000008152600401612bad906150f6565b60405180910390fd5b505b505050505050565b60606000600167ffffffffffffffff811115612bdf57612bde6132aa565b5b604051908082528060200260200182016040528015612c0d5781602001602082028036833780820191505090505b5090508281600081518110612c2557612c24614351565b5b60200260200101818152505080915050919050565b612c598473ffffffffffffffffffffffffffffffffffffffff16612e12565b15612e0a578373ffffffffffffffffffffffffffffffffffffffff1663f23a6e6187878686866040518663ffffffff1660e01b8152600401612c9f959493929190615116565b6020604051808303816000875af1925050508015612cdb57506040513d601f19601f82011682018060405250810190612cd89190614f00565b60015b612d8157612ce7614f3a565b806308c379a01415612d445750612cfc614f5c565b80612d075750612d46565b806040517f08c379a0000000000000000000000000000000000000000000000000000000008152600401612d3b91906130c8565b60405180910390fd5b505b6040517f08c379a0000000000000000000000000000000000000000000000000000000008152600401612d7890615064565b60405180910390fd5b63f23a6e6160e01b7bffffffffffffffffffffffffffffffffffffffffffffffffffffffff1916817bffffffffffffffffffffffffffffffffffffffffffffffffffffffff191614612e08576040517f08c379a0000000000000000000000000000000000000000000000000000000008152600401612dff906150f6565b60405180910390fd5b505b505050505050565b6000808273ffffffffffffffffffffffffffffffffffffffff163b119050919050565b6000604051905090565b600080fd5b600080fd5b600073ffffffffffffffffffffffffffffffffffffffff82169050919050565b6000612e7482612e49565b9050919050565b612e8481612e69565b8114612e8f57600080fd5b50565b600081359050612ea181612e7b565b92915050565b6000819050919050565b612eba81612ea7565b8114612ec557600080fd5b50565b600081359050612ed781612eb1565b92915050565b60008060408385031215612ef457612ef3612e3f565b5b6000612f0285828601612e92565b9250506020612f1385828601612ec8565b9150509250929050565b612f2681612ea7565b82525050565b6000602082019050612f416000830184612f1d565b92915050565b60007fffffffff0000000000000000000000000000000000000000000000000000000082169050919050565b612f7c81612f47565b8114612f8757600080fd5b50565b600081359050612f9981612f73565b92915050565b600060208284031215612fb557612fb4612e3f565b5b6000612fc384828501612f8a565b91505092915050565b60008115159050919050565b612fe181612fcc565b82525050565b6000602082019050612ffc6000830184612fd8565b92915050565b60006020828403121561301857613017612e3f565b5b600061302684828501612ec8565b91505092915050565b600081519050919050565b600082825260208201905092915050565b60005b8381101561306957808201518184015260208101905061304e565b83811115613078576000848401525b50505050565b6000601f19601f8301169050919050565b600061309a8261302f565b6130a4818561303a565b93506130b481856020860161304b565b6130bd8161307e565b840191505092915050565b600060208201905081810360008301526130e2818461308f565b905092915050565b6000806040838503121561310157613100612e3f565b5b600061310f85828601612ec8565b925050602061312085828601612e92565b9150509250929050565b600060408201905061313f6000830185612f1d565b61314c6020830184612f1d565b9392505050565b600080fd5b600080fd5b600080fd5b60008083601f84011261317857613177613153565b5b8235905067ffffffffffffffff81111561319557613194613158565b5b6020830191508360018202830111156131b1576131b061315d565b5b9250929050565b6000806000806000608086880312156131d4576131d3612e3f565b5b60006131e288828901612e92565b95505060206131f388828901612e92565b945050604061320488828901612ec8565b935050606086013567ffffffffffffffff81111561322557613224612e44565b5b61323188828901613162565b92509250509295509295909350565b61324981612f47565b82525050565b60006020820190506132646000830184613240565b92915050565b6000806040838503121561328157613280612e3f565b5b600061328f85828601612ec8565b92505060206132a085828601612ec8565b9150509250929050565b7f4e487b7100000000000000000000000000000000000000000000000000000000600052604160045260246000fd5b6132e28261307e565b810181811067ffffffffffffffff82111715613301576133006132aa565b5b80604052505050565b6000613314612e35565b905061332082826132d9565b919050565b600067ffffffffffffffff8211156133405761333f6132aa565b5b602082029050602081019050919050565b600061336461335f84613325565b61330a565b905080838252602082019050602084028301858111156133875761338661315d565b5b835b818110156133b0578061339c8882612ec8565b845260208401935050602081019050613389565b5050509392505050565b600082601f8301126133cf576133ce613153565b5b81356133df848260208601613351565b91505092915050565b600080fd5b600067ffffffffffffffff821115613408576134076132aa565b5b6134118261307e565b9050602081019050919050565b82818337600083830152505050565b600061344061343b846133ed565b61330a565b90508281526020810184848401111561345c5761345b6133e8565b5b61346784828561341e565b509392505050565b600082601f83011261348457613483613153565b5b813561349484826020860161342d565b91505092915050565b600080600080600060a086880312156134b9576134b8612e3f565b5b60006134c788828901612e92565b95505060206134d888828901612e92565b945050604086013567ffffffffffffffff8111156134f9576134f8612e44565b5b613505888289016133ba565b935050606086013567ffffffffffffffff81111561352657613525612e44565b5b613532888289016133ba565b925050608086013567ffffffffffffffff81111561355357613552612e44565b5b61355f8882890161346f565b9150509295509295909350565b61357581612fcc565b811461358057600080fd5b50565b6000813590506135928161356c565b92915050565b600067ffffffffffffffff8211156135b3576135b26132aa565b5b6135bc8261307e565b9050602081019050919050565b60006135dc6135d784613598565b61330a565b9050828152602081018484840111156135f8576135f76133e8565b5b61360384828561341e565b509392505050565b600082601f8301126136205761361f613153565b5b81356136308482602086016135c9565b91505092915050565b60008060008060008060008060006101208a8c03121561365c5761365b612e3f565b5b600061366a8c828d01612e92565b995050602061367b8c828d01612ec8565b985050604061368c8c828d01612ec8565b975050606061369d8c828d01612ec8565b96505060806136ae8c828d01612ec8565b95505060a06136bf8c828d01613583565b94505060c06136d08c828d01612e92565b93505060e08a013567ffffffffffffffff8111156136f1576136f0612e44565b5b6136fd8c828d0161360b565b9250506101008a013567ffffffffffffffff81111561371f5761371e612e44565b5b61372b8c828d0161360b565b9150509295985092959850929598565b600067ffffffffffffffff821115613756576137556132aa565b5b602082029050602081019050919050565b600061377a6137758461373b565b61330a565b9050808382526020820190506020840283018581111561379d5761379c61315d565b5b835b818110156137c657806137b28882612e92565b84526020840193505060208101905061379f565b5050509392505050565b600082601f8301126137e5576137e4613153565b5b81356137f5848260208601613767565b91505092915050565b6000806040838503121561381557613814612e3f565b5b600083013567ffffffffffffffff81111561383357613832612e44565b5b61383f858286016137d0565b925050602083013567ffffffffffffffff8111156138605761385f612e44565b5b61386c858286016133ba565b9150509250929050565b600081519050919050565b600082825260208201905092915050565b6000819050602082019050919050565b6138ab81612ea7565b82525050565b60006138bd83836138a2565b60208301905092915050565b6000602082019050919050565b60006138e182613876565b6138eb8185613881565b93506138f683613892565b8060005b8381101561392757815161390e88826138b1565b9750613919836138c9565b9250506001810190506138fa565b5085935050505092915050565b6000602082019050818103600083015261394e81846138d6565b905092915050565b60008060008060008060c0878903121561397357613972612e3f565b5b600061398189828a01612e92565b965050602061399289828a01612ec8565b95505060406139a389828a01612ec8565b94505060606139b489828a01612ec8565b93505060806139c589828a01612ec8565b92505060a06139d689828a01613583565b9150509295509295509295565b60006139ee82612e49565b9050919050565b6139fe816139e3565b8114613a0957600080fd5b50565b600081359050613a1b816139f5565b92915050565b60008060008060008060c08789031215613a3e57613a3d612e3f565b5b6000613a4c89828a01612e92565b9650506020613a5d89828a01612ec8565b9550506040613a6e89828a01612ec8565b9450506060613a7f89828a01612ec8565b9350506080613a9089828a01612ec8565b92505060a0613aa189828a01613a0c565b9150509295509295509295565b60008060408385031215613ac557613ac4612e3f565b5b6000613ad385828601612e92565b9250506020613ae485828601613583565b9150509250929050565b600080600080600060a08688031215613b0a57613b09612e3f565b5b6000613b1888828901612e92565b9550506020613b2988828901612ec8565b9450506040613b3a88828901612ec8565b9350506060613b4b88828901612ec8565b9250506080613b5c88828901612ec8565b9150509295509295909350565b60008060408385031215613b8057613b7f612e3f565b5b6000613b8e85828601612e92565b9250506020613b9f85828601612e92565b9150509250929050565b60008060008060008060a08789031215613bc657613bc5612e3f565b5b6000613bd489828a01612e92565b9650506020613be589828a01612e92565b9550506040613bf689828a01612ec8565b9450506060613c0789828a01612ec8565b935050608087013567ffffffffffffffff811115613c2857613c27612e44565b5b613c3489828a01613162565b92509250509295509295509295565b600080600080600060a08688031215613c5f57613c5e612e3f565b5b6000613c6d88828901612e92565b9550506020613c7e88828901612e92565b9450506040613c8f88828901612ec8565b9350506060613ca088828901612ec8565b925050608086013567ffffffffffffffff811115613cc157613cc0612e44565b5b613ccd8882890161346f565b9150509295509295909350565b6000819050919050565b6000613cff613cfa613cf584612e49565b613cda565b612e49565b9050919050565b6000613d1182613ce4565b9050919050565b6000613d2382613d06565b9050919050565b613d3381613d18565b82525050565b6000602082019050613d4e6000830184613d2a565b92915050565b7f455243313135353a2062616c616e636520717565727920666f7220746865207a60008201527f65726f2061646472657373000000000000000000000000000000000000000000602082015250565b6000613db0602b8361303a565b9150613dbb82613d54565b604082019050919050565b60006020820190508181036000830152613ddf81613da3565b9050919050565b7f4e487b7100000000000000000000000000000000000000000000000000000000600052602260045260246000fd5b60006002820490506001821680613e2d57607f821691505b60208210811415613e4157613e40613de6565b5b50919050565b7f4e487b7100000000000000000000000000000000000000000000000000000000600052601160045260246000fd5b6000613e8182612ea7565b9150613e8c83612ea7565b9250817fffffffffffffffffffffffffffffffffffffffffffffffffffffffffffffffff0483118215151615613ec557613ec4613e47565b5b828202905092915050565b7f4e487b7100000000000000000000000000000000000000000000000000000000600052601260045260246000fd5b6000613f0a82612ea7565b9150613f1583612ea7565b925082613f2557613f24613ed0565b5b828204905092915050565b600080600060608486031215613f4957613f48612e3f565b5b6000613f5786828701612ec8565b9350506020613f6886828701612ec8565b9250506040613f7986828701612ec8565b9150509250925092565b7f455243313135353a207472616e736665722063616c6c6572206973206e6f742060008201527f6f776e6572206e6f7220617070726f7665640000000000000000000000000000602082015250565b6000613fdf60328361303a565b9150613fea82613f83565b604082019050919050565b6000602082019050818103600083015261400e81613fd2565b9050919050565b7f746f6f206561726c790000000000000000000000000000000000000000000000600082015250565b600061404b60098361303a565b915061405682614015565b602082019050919050565b6000602082019050818103600083015261407a8161403e565b9050919050565b61408a81612e69565b82525050565b60006040820190506140a56000830185614081565b6140b26020830184612f1d565b9392505050565b6000819050919050565b60006140de6140d96140d4846140b9565b613cda565b612ea7565b9050919050565b6140ee816140c3565b82525050565b600082825260208201905092915050565b50565b60006141156000836140f4565b915061412082614105565b600082019050919050565b600060a0820190506141406000830187614081565b61414d6020830186614081565b61415a6040830185612f1d565b61416760608301846140e5565b818103608083015261417881614108565b905095945050505050565b60008151905061419281612eb1565b92915050565b6000602082840312156141ae576141ad612e3f565b5b60006141bc84828501614183565b91505092915050565b6000819050919050565b60006141ea6141e56141e0846141c5565b613cda565b612ea7565b9050919050565b6141fa816141cf565b82525050565b600060e082019050818103600083015261421a818a61308f565b9050818103602083015261422e818961308f565b905061423d6040830188614081565b61424a6060830187612f1d565b6142576080830186612f1d565b61426460a0830185612f1d565b61427160c08301846141f1565b98975050505050505050565b60008151905061428c81612e7b565b92915050565b6000602082840312156142a8576142a7612e3f565b5b60006142b68482850161427d565b91505092915050565b7f455243313135353a206163636f756e747320616e6420696473206c656e67746860008201527f206d69736d617463680000000000000000000000000000000000000000000000602082015250565b600061431b60298361303a565b9150614326826142bf565b604082019050919050565b6000602082019050818103600083015261434a8161430e565b9050919050565b7f4e487b7100000000000000000000000000000000000000000000000000000000600052603260045260246000fd5b600061438b82612ea7565b91507fffffffffffffffffffffffffffffffffffffffffffffffffffffffffffffffff8214156143be576143bd613e47565b5b600182019050919050565b7f6e6f742072657061696400000000000000000000000000000000000000000000600082015250565b60006143ff600a8361303a565b915061440a826143c9565b602082019050919050565b6000602082019050818103600083015261442e816143f2565b9050919050565b600061444082612ea7565b915061444b83612ea7565b92508282101561445e5761445d613e47565b5b828203905092915050565b600061447482612ea7565b915061447f83612ea7565b9250827fffffffffffffffffffffffffffffffffffffffffffffffffffffffffffffffff038211156144b4576144b3613e47565b5b828201905092915050565b7f6d617820626f72726f7700000000000000000000000000000000000000000000600082015250565b60006144f5600a8361303a565b9150614500826144bf565b602082019050919050565b60006020820190508181036000830152614524816144e8565b9050919050565b7f77726f6e67206f776e6572000000000000000000000000000000000000000000600082015250565b6000614561600b8361303a565b915061456c8261452b565b602082019050919050565b6000602082019050818103600083015261459081614554565b9050919050565b6000815190506145a68161356c565b92915050565b6000602082840312156145c2576145c1612e3f565b5b60006145d084828501614597565b91505092915050565b60008160601b9050919050565b60006145f1826145d9565b9050919050565b6000614603826145e6565b9050919050565b61461b61461682612e69565b6145f8565b82525050565b6000819050919050565b61463c61463782612ea7565b614621565b82525050565b600061464e828861460a565b60148201915061465e828761462b565b60208201915061466e828661462b565b60208201915061467e828561462b565b60208201915061468e828461462b565b6020820191508190509695505050505050565b60006020820190506146b66000830184614081565b92915050565b7f6e6f2062616c616e636500000000000000000000000000000000000000000000600082015250565b60006146f2600a8361303a565b91506146fd826146bc565b602082019050919050565b60006020820190508181036000830152614721816146e5565b9050919050565b7f455243313135353a2063616c6c6572206973206e6f74206f776e6572206e6f7260008201527f20617070726f7665640000000000000000000000000000000000000000000000602082015250565b600061478460298361303a565b915061478f82614728565b604082019050919050565b600060208201905081810360008301526147b381614777565b9050919050565b7f7573656400000000000000000000000000000000000000000000000000000000600082015250565b60006147f060048361303a565b91506147fb826147ba565b602082019050919050565b6000602082019050818103600083015261481f816147e3565b9050919050565b7f455243313135353a2069647320616e6420616d6f756e7473206c656e6774682060008201527f6d69736d61746368000000000000000000000000000000000000000000000000602082015250565b600061488260288361303a565b915061488d82614826565b604082019050919050565b600060208201905081810360008301526148b181614875565b9050919050565b7f455243313135353a207472616e7366657220746f20746865207a65726f20616460008201527f6472657373000000000000000000000000000000000000000000000000000000602082015250565b600061491460258361303a565b915061491f826148b8565b604082019050919050565b6000602082019050818103600083015261494381614907565b9050919050565b7f455243313135353a20696e73756666696369656e742062616c616e636520666f60008201527f72207472616e7366657200000000000000000000000000000000000000000000602082015250565b60006149a6602a8361303a565b91506149b18261494a565b604082019050919050565b600060208201905081810360008301526149d581614999565b9050919050565b600060408201905081810360008301526149f681856138d6565b90508181036020830152614a0a81846138d6565b90509392505050565b7f455243313135353a206d696e7420746f20746865207a65726f2061646472657360008201527f7300000000000000000000000000000000000000000000000000000000000000602082015250565b6000614a6f60218361303a565b9150614a7a82614a13565b604082019050919050565b60006020820190508181036000830152614a9e81614a62565b9050919050565b7f455243313135353a206275726e2066726f6d20746865207a65726f206164647260008201527f6573730000000000000000000000000000000000000000000000000000000000602082015250565b6000614b0160238361303a565b9150614b0c82614aa5565b604082019050919050565b60006020820190508181036000830152614b3081614af4565b9050919050565b7f455243313135353a206275726e20616d6f756e7420657863656564732062616c60008201527f616e636500000000000000000000000000000000000000000000000000000000602082015250565b6000614b9360248361303a565b9150614b9e82614b37565b604082019050919050565b60006020820190508181036000830152614bc281614b86565b9050919050565b7f416464726573733a20696e73756666696369656e742062616c616e6365000000600082015250565b6000614bff601d8361303a565b9150614c0a82614bc9565b602082019050919050565b60006020820190508181036000830152614c2e81614bf2565b9050919050565b600081905092915050565b6000614c4d600083614c35565b9150614c5882614105565b600082019050919050565b6000614c6e82614c40565b9150819050919050565b7f416464726573733a20756e61626c6520746f2073656e642076616c75652c207260008201527f6563697069656e74206d61792068617665207265766572746564000000000000602082015250565b6000614cd4603a8361303a565b9150614cdf82614c78565b604082019050919050565b60006020820190508181036000830152614d0381614cc7565b9050919050565b6000606082019050614d1f6000830186614081565b614d2c6020830185614081565b614d396040830184612f1d565b949350505050565b7f455243313135353a2073657474696e6720617070726f76616c2073746174757360008201527f20666f722073656c660000000000000000000000000000000000000000000000602082015250565b6000614d9d60298361303a565b9150614da882614d41565b604082019050919050565b60006020820190508181036000830152614dcc81614d90565b9050919050565b7f3e302e3031250000000000000000000000000000000000000000000000000000600082015250565b6000614e0960068361303a565b9150614e1482614dd3565b602082019050919050565b60006020820190508181036000830152614e3881614dfc565b9050919050565b600081519050919050565b6000614e5582614e3f565b614e5f81856140f4565b9350614e6f81856020860161304b565b614e788161307e565b840191505092915050565b600060a082019050614e986000830188614081565b614ea56020830187614081565b8181036040830152614eb781866138d6565b90508181036060830152614ecb81856138d6565b90508181036080830152614edf8184614e4a565b90509695505050505050565b600081519050614efa81612f73565b92915050565b600060208284031215614f1657614f15612e3f565b5b6000614f2484828501614eeb565b91505092915050565b60008160e01c9050919050565b600060033d1115614f595760046000803e614f56600051614f2d565b90505b90565b600060443d1015614f6c57614fef565b614f74612e35565b60043d036004823e80513d602482011167ffffffffffffffff82111715614f9c575050614fef565b808201805167ffffffffffffffff811115614fba5750505050614fef565b80602083010160043d038501811115614fd7575050505050614fef565b614fe6826020018501866132d9565b82955050505050505b90565b7f455243313135353a207472616e7366657220746f206e6f6e204552433131353560008201527f526563656976657220696d706c656d656e746572000000000000000000000000602082015250565b600061504e60348361303a565b915061505982614ff2565b604082019050919050565b6000602082019050818103600083015261507d81615041565b9050919050565b7f455243313135353a204552433131353552656365697665722072656a6563746560008201527f6420746f6b656e73000000000000000000000000000000000000000000000000602082015250565b60006150e060288361303a565b91506150eb82615084565b604082019050919050565b6000602082019050818103600083015261510f816150d3565b9050919050565b600060a08201905061512b6000830188614081565b6151386020830187614081565b6151456040830186612f1d565b6151526060830185612f1d565b81810360808301526151648184614e4a565b9050969550505050505056fea2646970667358221220ab2dd288a55a7d5d1dfb6858f2de5ce77eaa884102ce616298c771571efb44fc64736f6c634300080c003368747470733a2f2f6170692e6c6c616d612e66692f6e66742d6c656e642f76312f7b69647d2e6a736f6e",
  "immutableReferences": {
    "7019": [
      {
        "length": 32,
        "start": 3275
      },
      {
        "length": 32,
        "start": 3392
      },
      {
        "length": 32,
        "start": 3427
      }
    ]
  },
  "source": "//SPDX-License-Identifier: MIT\npragma solidity ^0.8.0;\n\n// import \"hardhat/console.sol\";\nimport \"@openzeppelin/contracts/token/ERC20/IERC20.sol\";\nimport \"@openzeppelin/contracts/token/ERC721/IERC721.sol\";\nimport \"@openzeppelin/contracts/token/ERC1155/IERC1155.sol\";\nimport \"@openzeppelin/contracts/token/ERC1155/ERC1155.sol\";\nimport \"@openzeppelin/contracts/token/ERC1155/IERC1155Receiver.sol\";\nimport \"@openzeppelin/contracts/token/ERC721/IERC721Receiver.sol\";\nimport \"@openzeppelin/contracts/utils/Address.sol\";\nimport \"./ERC1155Wrapper.sol\";\nimport \"./fractional/IERC721VaultFactory.sol\";\n\n\ncontract Collateralizer is ERC1155, IERC721Receiver {\n  using Address for address payable;\n\n  function supportsInterface(bytes4 interfaceId) public view virtual override(ERC1155) returns (bool) {\n    return ERC1155.supportsInterface(interfaceId) || interfaceId == type(IERC1155Receiver).interfaceId;\n  }\n\n  //IERC721VaultFactory constant fractionalFactory = IERC721VaultFactory(0x85Aa7f78BdB2DE8F3e0c0010d99AD5853fFcfC63);\n  IERC721VaultFactory constant fractionalFactory = IERC721VaultFactory(0xD476A4c53F6B413D639677524d5e3a83A96C2722);\n  \n  address immutable erc1155Wrapper;\n\n  mapping(uint => uint) public idToTokenPrice;\n  mapping(uint => uint) public idToLastUpdate;\n  mapping(uint => uint) public idToBorrowedAmount;\n  mapping(uint => IERC20) public idToFractionalized;\n  mapping(uint => bool) public idHasBeenRepaid;\n  \n  struct MintableTokens {\n    uint amount;\n    address owner;\n  }\n  mapping(uint => MintableTokens) mintableTokens;\n\n  constructor(address _erc1155Wrapper) ERC1155(\"https://api.llama.fi/nft-lend/v1/{id}.json\"){\n    erc1155Wrapper = _erc1155Wrapper;\n    IERC721(_erc1155Wrapper).setApprovalForAll(address(fractionalFactory), true);\n  }\n\n  function moveNFT(address nftContract, uint nftId, address from, address to, bool isERC721) internal {\n    if (isERC721){\n      IERC721(nftContract).safeTransferFrom(from, to, nftId);\n    } else {\n      IERC1155(nftContract).safeTransferFrom(from, to, nftId, 1, \"\");\n    }\n  }\n\n  function getId(address nftContract, uint nftId, uint endTime, uint borrowCeiling, uint interest) pure public returns (uint id){\n    return uint256(keccak256(abi.encodePacked(nftContract, nftId, endTime, borrowCeiling, interest)));\n  }\n\n  function applyInterest(uint id, uint interestPerEthPerDay) internal returns (uint newBorrowedAmount) {\n    uint elapsedTime;\n    unchecked{\n      elapsedTime = block.timestamp - idToLastUpdate[id];\n    }\n    idToLastUpdate[id] = block.timestamp;\n    uint oldBorrowedAmount = idToBorrowedAmount[id];\n    if(oldBorrowedAmount == 0){\n      return 0;\n    }\n    newBorrowedAmount = oldBorrowedAmount + ((oldBorrowedAmount*interestPerEthPerDay*elapsedTime)/(1 days * 1e18));\n    idToTokenPrice[id] = (idToTokenPrice[id]*newBorrowedAmount)/oldBorrowedAmount;\n  }\n\n  function repay(address nftContract, uint nftId, uint endTime, uint borrowCeiling, uint interestPerEthPerDay, bool isERC721) external payable {\n    // only allow repayment before expiration?\n    uint id = getId(nftContract, nftId, endTime, borrowCeiling, interestPerEthPerDay);\n    uint amountToRepay = applyInterest(id, interestPerEthPerDay);\n    _burn(msg.sender, id, 1);\n    payable(msg.sender).sendValue(msg.value-amountToRepay);\n    idHasBeenRepaid[id] = true;\n\n    moveNFT(nftContract, nftId, address(this), msg.sender, isERC721);\n  }\n\n  function lenderTokenId(uint id) internal pure returns (uint){\n    unchecked{\n      return id+1;\n    }\n  }\n\n  function lend(address nftContract, uint nftId, uint endTime, uint borrowCeiling, uint interestPerEthPerDay, address payable currentOwner) external payable {\n    uint id = getId(nftContract, nftId, endTime, borrowCeiling, interestPerEthPerDay);\n    uint newBorrowedAmount = applyInterest(id, interestPerEthPerDay) + msg.value;\n    require(newBorrowedAmount < borrowCeiling, \"max borrow\");\n    idToBorrowedAmount[id] = newBorrowedAmount;\n    currentOwner.sendValue(msg.value);\n    require(balanceOf(currentOwner, id) == 1, \"wrong owner\");\n    _mint(msg.sender, lenderTokenId(id), (msg.value*1e18)/idToTokenPrice[id], \"\");\n  }\n\n  function getUnderlyingBalance(uint id, address account) public view returns (uint depositTokensOwned, uint ethWithInterest){\n    depositTokensOwned = balanceOf(account, lenderTokenId(id));\n    ethWithInterest = (depositTokensOwned * idToTokenPrice[id])/1e18;\n  }\n\n  function recoverEth(uint id) external {\n    require(idHasBeenRepaid[id] == true, \"not repaid\");\n    (uint depositTokensOwned, uint ethWithInterest) = getUnderlyingBalance(id, msg.sender);\n    _burn(msg.sender, lenderTokenId(id), depositTokensOwned);\n    payable(msg.sender).sendValue(ethWithInterest);\n  }\n\n  function rug(address nftContract, uint nftId, uint endTime, uint borrowCeiling, uint interestPerEthPerDay, bool isERC721, address previousOwner, string memory _name, string memory _symbol) external {\n    require(block.timestamp > endTime, \"too early\");\n    uint id = getId(nftContract, nftId, endTime, borrowCeiling, interestPerEthPerDay);\n\n    _burn(previousOwner, id, 1);\n    uint totalBorrowed = applyInterest(id, interestPerEthPerDay);\n    if(borrowCeiling>totalBorrowed){\n      uint tokensForOwner;\n      unchecked {\n        tokensForOwner = borrowCeiling-totalBorrowed;\n      }\n      mintableTokens[lenderTokenId(id)] = MintableTokens({\n        owner: previousOwner,\n        amount: (tokensForOwner* 1e18)/idToTokenPrice[id]\n      });\n      totalBorrowed = borrowCeiling;\n    }\n\n    if(isERC721){\n      IERC721(nftContract).approve(address(fractionalFactory), nftId);\n    } else {\n      IERC1155(nftContract).safeTransferFrom(address(this), erc1155Wrapper, nftId, 1, \"\");\n      nftContract = erc1155Wrapper;\n      nftId = ERC1155Wrapper(erc1155Wrapper).lastItem();\n    }\n    uint vaultId = fractionalFactory.mint(_name, _symbol, nftContract, nftId, totalBorrowed, borrowCeiling, 0);\n    idToFractionalized[id] = IERC20(fractionalFactory.vaults(vaultId));\n  }\n\n  function mintRuggedTokens(uint id) external {\n    MintableTokens memory tokens = mintableTokens[id];\n    delete mintableTokens[id];\n    _mint(tokens.owner, id, tokens.amount, \"\"); // If it doesn't exist this this will fail\n  }\n\n\n\n  // Low-gas function for when you are sure that you are not the last person withdrawing\n  function getFractionalTokens(uint id) external {\n    (uint depositTokensOwned, uint ethWithInterest) = getUnderlyingBalance(id, msg.sender);\n    _burn(msg.sender, lenderTokenId(id), depositTokensOwned);\n    idToFractionalized[id].transfer(msg.sender, ethWithInterest);\n  }\n\n  function sweep(uint id) internal {\n    IERC20 fractionalizedToken = idToFractionalized[id];\n    uint tokensLeft = fractionalizedToken.balanceOf(address(this));\n    require(tokensLeft*10000<fractionalizedToken.totalSupply(), \">0.01%\");\n    fractionalizedToken.transfer(msg.sender, tokensLeft);\n  }\n\n  // Get missing tokens in case everyone has already withdrawn\n  function sweepDust(uint id) public {\n    require(idToFractionalized[id].balanceOf(msg.sender) > 0, \"no balance\");\n    sweep(id);\n  }\n\n  function getPartialFractionalTokens(uint id, uint amountInTokens) public {\n    _burn(msg.sender, lenderTokenId(id), amountInTokens);\n    idToFractionalized[id].transfer(msg.sender, (amountInTokens * idToTokenPrice[id])/1e18);\n  }\n\n  // Sweep all the tokens left\n  function sweepFractionalTokens(uint id, uint amountInTokens) external {\n    getPartialFractionalTokens(id, amountInTokens);\n    sweepDust(id);\n  }\n\n\n\n  function create(address owner, address nftContract, uint nftId, uint endTime, uint borrowCeiling, uint interestPerEthPerDay) internal {\n    uint id = getId(nftContract, nftId, endTime, borrowCeiling, interestPerEthPerDay);\n    require(idToTokenPrice[id] == 0, \"used\");\n    idToTokenPrice[id] = 1e18;\n    _mint(owner, id, 1, \"\");\n  }\n\n  function onERC721Received(address _operator, address _from, uint256 _tokenId, bytes calldata _data) public override returns(bytes4) {\n    (uint endTime, uint borrowCeiling, uint interestPerEthPerDay) = abi.decode(_data, (uint, uint, uint));\n    create(_operator, msg.sender, _tokenId, endTime, borrowCeiling, interestPerEthPerDay);\n    return this.onERC721Received.selector;\n  }\n\n  function onERC1155Received(address _operator, address _from, uint256 _id, uint256 _value, bytes calldata _data) external returns(bytes4){\n    require(_value == 1);\n    onERC721Received(_operator, _from, _id, _data);\n    return this.onERC1155Received.selector;\n  }\n}\n\n/*\n- Address\n- events\n- wrapping\n- reentrancy\n- lending pools\n*/",
  "sourcePath": "D:\\03.block-chain\\01.miquelTC__nft-marketplace\\test-proj\\nft-marketplace-master\\src\\contracts\\Loan\\Collateralizer.sol",
  "compiler": {
    "name": "solc",
    "version": "0.8.12+commit.f00d7308.Emscripten.clang"
  },
  "schemaVersion": "3.4.4",
  "updatedAt": "2022-02-22T02:09:40.463Z",
  "devdoc": {
    "kind": "dev",
    "methods": {
      "balanceOf(address,uint256)": {
        "details": "See {IERC1155-balanceOf}. Requirements: - `account` cannot be the zero address."
      },
      "balanceOfBatch(address[],uint256[])": {
        "details": "See {IERC1155-balanceOfBatch}. Requirements: - `accounts` and `ids` must have the same length."
      },
      "isApprovedForAll(address,address)": {
        "details": "See {IERC1155-isApprovedForAll}."
      },
      "safeBatchTransferFrom(address,address,uint256[],uint256[],bytes)": {
        "details": "See {IERC1155-safeBatchTransferFrom}."
      },
      "safeTransferFrom(address,address,uint256,uint256,bytes)": {
        "details": "See {IERC1155-safeTransferFrom}."
      },
      "setApprovalForAll(address,bool)": {
        "details": "See {IERC1155-setApprovalForAll}."
      },
      "supportsInterface(bytes4)": {
        "details": "See {IERC165-supportsInterface}."
      },
      "uri(uint256)": {
        "details": "See {IERC1155MetadataURI-uri}. This implementation returns the same URI for *all* token types. It relies on the token type ID substitution mechanism https://eips.ethereum.org/EIPS/eip-1155#metadata[defined in the EIP]. Clients calling this function must replace the `\\{id\\}` substring with the actual token type ID."
      }
    },
    "version": 1
  },
  "userdoc": {
    "kind": "user",
    "methods": {},
    "version": 1
  }
}