{
  "contractName": "Create2Impl",
  "abi": [
    {
      "stateMutability": "payable",
      "type": "receive"
    },
    {
      "inputs": [
        {
          "internalType": "uint256",
          "name": "value",
          "type": "uint256"
        },
        {
          "internalType": "bytes32",
          "name": "salt",
          "type": "bytes32"
        },
        {
          "internalType": "bytes",
          "name": "code",
          "type": "bytes"
        }
      ],
      "name": "deploy",
      "outputs": [],
      "stateMutability": "nonpayable",
      "type": "function"
    },
    {
      "inputs": [
        {
          "internalType": "uint256",
          "name": "value",
          "type": "uint256"
        },
        {
          "internalType": "bytes32",
          "name": "salt",
          "type": "bytes32"
        }
      ],
      "name": "deployERC1820Implementer",
      "outputs": [],
      "stateMutability": "nonpayable",
      "type": "function"
    },
    {
      "inputs": [
        {
          "internalType": "bytes32",
          "name": "salt",
          "type": "bytes32"
        },
        {
          "internalType": "bytes32",
          "name": "codeHash",
          "type": "bytes32"
        }
      ],
      "name": "computeAddress",
      "outputs": [
        {
          "internalType": "address",
          "name": "",
          "type": "address"
        }
      ],
      "stateMutability": "view",
      "type": "function"
    },
    {
      "inputs": [
        {
          "internalType": "bytes32",
          "name": "salt",
          "type": "bytes32"
        },
        {
          "internalType": "bytes32",
          "name": "codeHash",
          "type": "bytes32"
        },
        {
          "internalType": "address",
          "name": "deployer",
          "type": "address"
        }
      ],
      "name": "computeAddressWithDeployer",
      "outputs": [
        {
          "internalType": "address",
          "name": "",
          "type": "address"
        }
      ],
      "stateMutability": "pure",
      "type": "function"
    }
  ],
  "bytecode": "0x608060405234801561001057600080fd5b50610b6e806100206000396000f3fe6080604052600436106100435760003560e01c8063076c37b21461004f578063481286e61461007857806356299481146100b557806366cfa057146100f25761004a565b3661004a57005b600080fd5b34801561005b57600080fd5b5061007660048036038101906100719190610380565b61011b565b005b34801561008457600080fd5b5061009f600480360381019061009a91906103c0565b61014e565b6040516100ac9190610441565b60405180910390f35b3480156100c157600080fd5b506100dc60048036038101906100d79190610488565b610162565b6040516100e99190610441565b60405180910390f35b3480156100fe57600080fd5b5061011960048036038101906101149190610621565b610178565b005b610149828260405180602001610130906102f3565b6020820181038252601f19601f82011660405250610189565b505050565b600061015a838361029a565b905092915050565b600061016f8484846102af565b90509392505050565b610183838383610189565b50505050565b600080844710156101cf576040517f08c379a00000000000000000000000000000000000000000000000000000000081526004016101c6906106ed565b60405180910390fd5b600083511415610214576040517f08c379a000000000000000000000000000000000000000000000000000000000815260040161020b90610759565b60405180910390fd5b8383516020850187f59050600073ffffffffffffffffffffffffffffffffffffffff168173ffffffffffffffffffffffffffffffffffffffff16141561028f576040517f08c379a0000000000000000000000000000000000000000000000000000000008152600401610286906107c5565b60405180910390fd5b809150509392505050565b60006102a78383306102af565b905092915050565b60008060ff60f81b8386866040516020016102cd949392919061089b565b6040516020818303038152906040528051906020012090508060001c9150509392505050565b61024f806108ea83390190565b6000604051905090565b600080fd5b600080fd5b6000819050919050565b61032781610314565b811461033257600080fd5b50565b6000813590506103448161031e565b92915050565b6000819050919050565b61035d8161034a565b811461036857600080fd5b50565b60008135905061037a81610354565b92915050565b600080604083850312156103975761039661030a565b5b60006103a585828601610335565b92505060206103b68582860161036b565b9150509250929050565b600080604083850312156103d7576103d661030a565b5b60006103e58582860161036b565b92505060206103f68582860161036b565b9150509250929050565b600073ffffffffffffffffffffffffffffffffffffffff82169050919050565b600061042b82610400565b9050919050565b61043b81610420565b82525050565b60006020820190506104566000830184610432565b92915050565b61046581610420565b811461047057600080fd5b50565b6000813590506104828161045c565b92915050565b6000806000606084860312156104a1576104a061030a565b5b60006104af8682870161036b565b93505060206104c08682870161036b565b92505060406104d186828701610473565b9150509250925092565b600080fd5b600080fd5b6000601f19601f8301169050919050565b7f4e487b7100000000000000000000000000000000000000000000000000000000600052604160045260246000fd5b61052e826104e5565b810181811067ffffffffffffffff8211171561054d5761054c6104f6565b5b80604052505050565b6000610560610300565b905061056c8282610525565b919050565b600067ffffffffffffffff82111561058c5761058b6104f6565b5b610595826104e5565b9050602081019050919050565b82818337600083830152505050565b60006105c46105bf84610571565b610556565b9050828152602081018484840111156105e0576105df6104e0565b5b6105eb8482856105a2565b509392505050565b600082601f830112610608576106076104db565b5b81356106188482602086016105b1565b91505092915050565b60008060006060848603121561063a5761063961030a565b5b600061064886828701610335565b93505060206106598682870161036b565b925050604084013567ffffffffffffffff81111561067a5761067961030f565b5b610686868287016105f3565b9150509250925092565b600082825260208201905092915050565b7f437265617465323a20696e73756666696369656e742062616c616e6365000000600082015250565b60006106d7601d83610690565b91506106e2826106a1565b602082019050919050565b60006020820190508181036000830152610706816106ca565b9050919050565b7f437265617465323a2062797465636f6465206c656e677468206973207a65726f600082015250565b6000610743602083610690565b915061074e8261070d565b602082019050919050565b6000602082019050818103600083015261077281610736565b9050919050565b7f437265617465323a204661696c6564206f6e206465706c6f7900000000000000600082015250565b60006107af601983610690565b91506107ba82610779565b602082019050919050565b600060208201905081810360008301526107de816107a2565b9050919050565b60007fff0000000000000000000000000000000000000000000000000000000000000082169050919050565b6000819050919050565b61082c610827826107e5565b610811565b82525050565b60008160601b9050919050565b600061084a82610832565b9050919050565b600061085c8261083f565b9050919050565b61087461086f82610420565b610851565b82525050565b6000819050919050565b6108956108908261034a565b61087a565b82525050565b60006108a7828761081b565b6001820191506108b78286610863565b6014820191506108c78285610884565b6020820191506108d78284610884565b6020820191508190509594505050505056fe608060405234801561001057600080fd5b5061022f806100206000396000f3fe608060405234801561001057600080fd5b506004361061002b5760003560e01c8063249cb3fa14610030575b600080fd5b61004a6004803603810190610045919061018f565b610060565b60405161005791906101de565b60405180910390f35b600080600084815260200190815260200160002060008373ffffffffffffffffffffffffffffffffffffffff1673ffffffffffffffffffffffffffffffffffffffff16815260200190815260200160002060009054906101000a900460ff166100cc576000801b6100ee565b7fa2ef4600d742022d532d4747cb3547474667d6f13804902513b2ec01c848f4b45b905092915050565b600080fd5b6000819050919050565b61010e816100fb565b811461011957600080fd5b50565b60008135905061012b81610105565b92915050565b600073ffffffffffffffffffffffffffffffffffffffff82169050919050565b600061015c82610131565b9050919050565b61016c81610151565b811461017757600080fd5b50565b60008135905061018981610163565b92915050565b600080604083850312156101a6576101a56100f6565b5b60006101b48582860161011c565b92505060206101c58582860161017a565b9150509250929050565b6101d8816100fb565b82525050565b60006020820190506101f360008301846101cf565b9291505056fea26469706673582212208a1ae18a713893bd0c343ab4ebbf9c8dd364a214f4bc6ded62dbf26db9a1c19464736f6c634300080b0033a264697066735822122080fc6ba95b9b6386c63771324cd9819a568dac183c8d8541ca966f844a5c29a364736f6c634300080b0033",
  "immutableReferences": {},
  "source": "// SPDX-License-Identifier: MIT\n\npragma solidity ^0.8.0;\n\nimport \"../utils/Create2.sol\";\nimport \"../utils/introspection/ERC1820Implementer.sol\";\n\ncontract Create2Impl {\n    function deploy(\n        uint256 value,\n        bytes32 salt,\n        bytes memory code\n    ) public {\n        Create2.deploy(value, salt, code);\n    }\n\n    function deployERC1820Implementer(uint256 value, bytes32 salt) public {\n        Create2.deploy(value, salt, type(ERC1820Implementer).creationCode);\n    }\n\n    function computeAddress(bytes32 salt, bytes32 codeHash) public view returns (address) {\n        return Create2.computeAddress(salt, codeHash);\n    }\n\n    function computeAddressWithDeployer(\n        bytes32 salt,\n        bytes32 codeHash,\n        address deployer\n    ) public pure returns (address) {\n        return Create2.computeAddress(salt, codeHash, deployer);\n    }\n\n    receive() external payable {}\n}\n",
  "sourcePath": "D:\\03.block-chain\\01.miquelTC__nft-marketplace\\test-proj\\nft-marketplace-master\\src\\contracts\\ERC721\\mocks\\Create2Impl.sol",
  "compiler": {
    "name": "solc",
    "version": "0.8.11+commit.d7f03943.Emscripten.clang"
  },
  "schemaVersion": "3.4.4",
  "updatedAt": "2022-02-16T02:59:58.213Z",
  "devdoc": {
    "kind": "dev",
    "methods": {},
    "version": 1
  },
  "userdoc": {
    "kind": "user",
    "methods": {},
    "version": 1
  }
}