{
  "contractName": "EIP712External",
  "abi": [
    {
      "inputs": [
        {
          "internalType": "string",
          "name": "name",
          "type": "string"
        },
        {
          "internalType": "string",
          "name": "version",
          "type": "string"
        }
      ],
      "stateMutability": "nonpayable",
      "type": "constructor"
    },
    {
      "inputs": [],
      "name": "domainSeparator",
      "outputs": [
        {
          "internalType": "bytes32",
          "name": "",
          "type": "bytes32"
        }
      ],
      "stateMutability": "view",
      "type": "function"
    },
    {
      "inputs": [
        {
          "internalType": "bytes",
          "name": "signature",
          "type": "bytes"
        },
        {
          "internalType": "address",
          "name": "signer",
          "type": "address"
        },
        {
          "internalType": "address",
          "name": "mailTo",
          "type": "address"
        },
        {
          "internalType": "string",
          "name": "mailContents",
          "type": "string"
        }
      ],
      "name": "verify",
      "outputs": [],
      "stateMutability": "view",
      "type": "function"
    },
    {
      "inputs": [],
      "name": "getChainId",
      "outputs": [
        {
          "internalType": "uint256",
          "name": "",
          "type": "uint256"
        }
      ],
      "stateMutability": "view",
      "type": "function"
    }
  ],
  "bytecode": "0x6101406040523480156200001257600080fd5b5060405162001367380380620013678339818101604052810190620000389190620002cd565b818160008280519060200120905060008280519060200120905060007f8b73c3c69bb8fe3d512ecc4cf759cc79239f7b179b0ffacaa9a75d522b39400f90508260e081815250508161010081815250504660a08181525050620000a3818484620000f460201b60201c565b608081815250503073ffffffffffffffffffffffffffffffffffffffff1660c08173ffffffffffffffffffffffffffffffffffffffff1681525050806101208181525050505050505050506200042a565b6000838383463060405160200162000111959493929190620003cd565b6040516020818303038152906040528051906020012090509392505050565b6000604051905090565b600080fd5b600080fd5b600080fd5b600080fd5b6000601f19601f8301169050919050565b7f4e487b7100000000000000000000000000000000000000000000000000000000600052604160045260246000fd5b62000199826200014e565b810181811067ffffffffffffffff82111715620001bb57620001ba6200015f565b5b80604052505050565b6000620001d062000130565b9050620001de82826200018e565b919050565b600067ffffffffffffffff8211156200020157620002006200015f565b5b6200020c826200014e565b9050602081019050919050565b60005b83811015620002395780820151818401526020810190506200021c565b8381111562000249576000848401525b50505050565b6000620002666200026084620001e3565b620001c4565b90508281526020810184848401111562000285576200028462000149565b5b6200029284828562000219565b509392505050565b600082601f830112620002b257620002b162000144565b5b8151620002c48482602086016200024f565b91505092915050565b60008060408385031215620002e757620002e66200013a565b5b600083015167ffffffffffffffff8111156200030857620003076200013f565b5b62000316858286016200029a565b925050602083015167ffffffffffffffff8111156200033a57620003396200013f565b5b62000348858286016200029a565b9150509250929050565b6000819050919050565b620003678162000352565b82525050565b6000819050919050565b62000382816200036d565b82525050565b600073ffffffffffffffffffffffffffffffffffffffff82169050919050565b6000620003b58262000388565b9050919050565b620003c781620003a8565b82525050565b600060a082019050620003e460008301886200035c565b620003f360208301876200035c565b6200040260408301866200035c565b62000411606083018562000377565b620004206080830184620003bc565b9695505050505050565b60805160a05160c05160e0516101005161012051610eed6200047a60003960006102500152600061029201526000610271015260006101a6015260006101fc015260006102250152610eed6000f3fe608060405234801561001057600080fd5b50600436106100415760003560e01c806308c6e079146100465780633408e47014610062578063f698da2514610080575b600080fd5b610060600480360381019061005b9190610946565b61009e565b005b61006a61014a565b60405161007791906109fe565b60405180910390f35b610088610152565b6040516100959190610a32565b60405180910390f35b60006100fa7f847fc9da8ec3c72cae85ca691245eaeb0a4a1e74f77c3a919c43afda231d39ba8484805190602001206040516020016100df93929190610a5c565b60405160208183030381529060405280519060200120610161565b90506000610108828761017b565b90508473ffffffffffffffffffffffffffffffffffffffff168173ffffffffffffffffffffffffffffffffffffffff161461014257600080fd5b505050505050565b600046905090565b600061015c6101a2565b905090565b600061017461016e6101a2565b836102bc565b9050919050565b600080600061018a85856102ef565b9150915061019781610372565b819250505092915050565b60007f000000000000000000000000000000000000000000000000000000000000000073ffffffffffffffffffffffffffffffffffffffff163073ffffffffffffffffffffffffffffffffffffffff1614801561021e57507f000000000000000000000000000000000000000000000000000000000000000046145b1561024b577f000000000000000000000000000000000000000000000000000000000000000090506102b9565b6102b67f00000000000000000000000000000000000000000000000000000000000000007f00000000000000000000000000000000000000000000000000000000000000007f0000000000000000000000000000000000000000000000000000000000000000610547565b90505b90565b600082826040516020016102d1929190610b0b565b60405160208183030381529060405280519060200120905092915050565b6000806041835114156103315760008060006020860151925060408601519150606086015160001a905061032587828585610581565b9450945050505061036b565b60408351141561036257600080602085015191506040850151905061035786838361068e565b93509350505061036b565b60006002915091505b9250929050565b6000600481111561038657610385610b42565b5b81600481111561039957610398610b42565b5b14156103a457610544565b600160048111156103b8576103b7610b42565b5b8160048111156103cb576103ca610b42565b5b141561040c576040517f08c379a000000000000000000000000000000000000000000000000000000000815260040161040390610bce565b60405180910390fd5b600260048111156104205761041f610b42565b5b81600481111561043357610432610b42565b5b1415610474576040517f08c379a000000000000000000000000000000000000000000000000000000000815260040161046b90610c3a565b60405180910390fd5b6003600481111561048857610487610b42565b5b81600481111561049b5761049a610b42565b5b14156104dc576040517f08c379a00000000000000000000000000000000000000000000000000000000081526004016104d390610ccc565b60405180910390fd5b6004808111156104ef576104ee610b42565b5b81600481111561050257610501610b42565b5b1415610543576040517f08c379a000000000000000000000000000000000000000000000000000000000815260040161053a90610d5e565b60405180910390fd5b5b50565b60008383834630604051602001610562959493929190610d7e565b6040516020818303038152906040528051906020012090509392505050565b6000807f7fffffffffffffffffffffffffffffff5d576e7357a4501ddfe92f46681b20a08360001c11156105bc576000600391509150610685565b601b8560ff16141580156105d45750601c8560ff1614155b156105e6576000600491509150610685565b60006001878787876040516000815260200160405260405161060b9493929190610ded565b6020604051602081039080840390855afa15801561062d573d6000803e3d6000fd5b505050602060405103519050600073ffffffffffffffffffffffffffffffffffffffff168173ffffffffffffffffffffffffffffffffffffffff16141561067c57600060019250925050610685565b80600092509250505b94509492505050565b60008060007f7fffffffffffffffffffffffffffffffffffffffffffffffffffffffffffffff60001b841690506000601b60ff8660001c901c6106d19190610e61565b90506106df87828885610581565b935093505050935093915050565b6000604051905090565b600080fd5b600080fd5b600080fd5b600080fd5b6000601f19601f8301169050919050565b7f4e487b7100000000000000000000000000000000000000000000000000000000600052604160045260246000fd5b6107548261070b565b810181811067ffffffffffffffff821117156107735761077261071c565b5b80604052505050565b60006107866106ed565b9050610792828261074b565b919050565b600067ffffffffffffffff8211156107b2576107b161071c565b5b6107bb8261070b565b9050602081019050919050565b82818337600083830152505050565b60006107ea6107e584610797565b61077c565b90508281526020810184848401111561080657610805610706565b5b6108118482856107c8565b509392505050565b600082601f83011261082e5761082d610701565b5b813561083e8482602086016107d7565b91505092915050565b600073ffffffffffffffffffffffffffffffffffffffff82169050919050565b600061087282610847565b9050919050565b61088281610867565b811461088d57600080fd5b50565b60008135905061089f81610879565b92915050565b600067ffffffffffffffff8211156108c0576108bf61071c565b5b6108c98261070b565b9050602081019050919050565b60006108e96108e4846108a5565b61077c565b90508281526020810184848401111561090557610904610706565b5b6109108482856107c8565b509392505050565b600082601f83011261092d5761092c610701565b5b813561093d8482602086016108d6565b91505092915050565b600080600080608085870312156109605761095f6106f7565b5b600085013567ffffffffffffffff81111561097e5761097d6106fc565b5b61098a87828801610819565b945050602061099b87828801610890565b93505060406109ac87828801610890565b925050606085013567ffffffffffffffff8111156109cd576109cc6106fc565b5b6109d987828801610918565b91505092959194509250565b6000819050919050565b6109f8816109e5565b82525050565b6000602082019050610a1360008301846109ef565b92915050565b6000819050919050565b610a2c81610a19565b82525050565b6000602082019050610a476000830184610a23565b92915050565b610a5681610867565b82525050565b6000606082019050610a716000830186610a23565b610a7e6020830185610a4d565b610a8b6040830184610a23565b949350505050565b600081905092915050565b7f1901000000000000000000000000000000000000000000000000000000000000600082015250565b6000610ad4600283610a93565b9150610adf82610a9e565b600282019050919050565b6000819050919050565b610b05610b0082610a19565b610aea565b82525050565b6000610b1682610ac7565b9150610b228285610af4565b602082019150610b328284610af4565b6020820191508190509392505050565b7f4e487b7100000000000000000000000000000000000000000000000000000000600052602160045260246000fd5b600082825260208201905092915050565b7f45434453413a20696e76616c6964207369676e61747572650000000000000000600082015250565b6000610bb8601883610b71565b9150610bc382610b82565b602082019050919050565b60006020820190508181036000830152610be781610bab565b9050919050565b7f45434453413a20696e76616c6964207369676e6174757265206c656e67746800600082015250565b6000610c24601f83610b71565b9150610c2f82610bee565b602082019050919050565b60006020820190508181036000830152610c5381610c17565b9050919050565b7f45434453413a20696e76616c6964207369676e6174757265202773272076616c60008201527f7565000000000000000000000000000000000000000000000000000000000000602082015250565b6000610cb6602283610b71565b9150610cc182610c5a565b604082019050919050565b60006020820190508181036000830152610ce581610ca9565b9050919050565b7f45434453413a20696e76616c6964207369676e6174757265202776272076616c60008201527f7565000000000000000000000000000000000000000000000000000000000000602082015250565b6000610d48602283610b71565b9150610d5382610cec565b604082019050919050565b60006020820190508181036000830152610d7781610d3b565b9050919050565b600060a082019050610d936000830188610a23565b610da06020830187610a23565b610dad6040830186610a23565b610dba60608301856109ef565b610dc76080830184610a4d565b9695505050505050565b600060ff82169050919050565b610de781610dd1565b82525050565b6000608082019050610e026000830187610a23565b610e0f6020830186610dde565b610e1c6040830185610a23565b610e296060830184610a23565b95945050505050565b7f4e487b7100000000000000000000000000000000000000000000000000000000600052601160045260246000fd5b6000610e6c826109e5565b9150610e77836109e5565b9250827fffffffffffffffffffffffffffffffffffffffffffffffffffffffffffffffff03821115610eac57610eab610e32565b5b82820190509291505056fea26469706673582212203ffb406c68856d1f8df796b2883c0895cf5b01cd7822f257a039f79fe8c46cdb64736f6c634300080b0033",
  "immutableReferences": {
    "31235": [
      {
        "length": 32,
        "start": 549
      }
    ],
    "31237": [
      {
        "length": 32,
        "start": 508
      }
    ],
    "31239": [
      {
        "length": 32,
        "start": 422
      }
    ],
    "31241": [
      {
        "length": 32,
        "start": 625
      }
    ],
    "31243": [
      {
        "length": 32,
        "start": 658
      }
    ],
    "31245": [
      {
        "length": 32,
        "start": 592
      }
    ]
  },
  "source": "// SPDX-License-Identifier: MIT\n\npragma solidity ^0.8.0;\n\nimport \"../utils/cryptography/draft-EIP712.sol\";\nimport \"../utils/cryptography/ECDSA.sol\";\n\ncontract EIP712External is EIP712 {\n    constructor(string memory name, string memory version) EIP712(name, version) {}\n\n    function domainSeparator() external view returns (bytes32) {\n        return _domainSeparatorV4();\n    }\n\n    function verify(\n        bytes memory signature,\n        address signer,\n        address mailTo,\n        string memory mailContents\n    ) external view {\n        bytes32 digest = _hashTypedDataV4(\n            keccak256(abi.encode(keccak256(\"Mail(address to,string contents)\"), mailTo, keccak256(bytes(mailContents))))\n        );\n        address recoveredSigner = ECDSA.recover(digest, signature);\n        require(recoveredSigner == signer);\n    }\n\n    function getChainId() external view returns (uint256) {\n        return block.chainid;\n    }\n}\n",
  "sourcePath": "D:\\03.block-chain\\01.miquelTC__nft-marketplace\\test-proj\\nft-marketplace-master\\src\\contracts\\ERC721\\mocks\\EIP712External.sol",
  "compiler": {
    "name": "solc",
    "version": "0.8.11+commit.d7f03943.Emscripten.clang"
  },
  "schemaVersion": "3.4.4",
  "updatedAt": "2022-02-16T02:59:58.244Z",
  "devdoc": {
    "kind": "dev",
    "methods": {},
    "version": 1
  },
  "userdoc": {
    "kind": "user",
    "methods": {},
    "version": 1
  }
}