{
  "contractName": "ERC1155Wrapper",
  "abi": [
    {
      "inputs": [],
      "stateMutability": "nonpayable",
      "type": "constructor"
    },
    {
      "anonymous": false,
      "inputs": [
        {
          "indexed": true,
          "internalType": "address",
          "name": "owner",
          "type": "address"
        },
        {
          "indexed": true,
          "internalType": "address",
          "name": "approved",
          "type": "address"
        },
        {
          "indexed": true,
          "internalType": "uint256",
          "name": "tokenId",
          "type": "uint256"
        }
      ],
      "name": "Approval",
      "type": "event"
    },
    {
      "anonymous": false,
      "inputs": [
        {
          "indexed": true,
          "internalType": "address",
          "name": "owner",
          "type": "address"
        },
        {
          "indexed": true,
          "internalType": "address",
          "name": "operator",
          "type": "address"
        },
        {
          "indexed": false,
          "internalType": "bool",
          "name": "approved",
          "type": "bool"
        }
      ],
      "name": "ApprovalForAll",
      "type": "event"
    },
    {
      "anonymous": false,
      "inputs": [
        {
          "indexed": true,
          "internalType": "address",
          "name": "from",
          "type": "address"
        },
        {
          "indexed": true,
          "internalType": "address",
          "name": "to",
          "type": "address"
        },
        {
          "indexed": true,
          "internalType": "uint256",
          "name": "tokenId",
          "type": "uint256"
        }
      ],
      "name": "Transfer",
      "type": "event"
    },
    {
      "inputs": [
        {
          "internalType": "address",
          "name": "to",
          "type": "address"
        },
        {
          "internalType": "uint256",
          "name": "tokenId",
          "type": "uint256"
        }
      ],
      "name": "approve",
      "outputs": [],
      "stateMutability": "nonpayable",
      "type": "function"
    },
    {
      "inputs": [
        {
          "internalType": "address",
          "name": "owner",
          "type": "address"
        }
      ],
      "name": "balanceOf",
      "outputs": [
        {
          "internalType": "uint256",
          "name": "",
          "type": "uint256"
        }
      ],
      "stateMutability": "view",
      "type": "function"
    },
    {
      "inputs": [
        {
          "internalType": "uint256",
          "name": "tokenId",
          "type": "uint256"
        }
      ],
      "name": "getApproved",
      "outputs": [
        {
          "internalType": "address",
          "name": "",
          "type": "address"
        }
      ],
      "stateMutability": "view",
      "type": "function"
    },
    {
      "inputs": [
        {
          "internalType": "address",
          "name": "owner",
          "type": "address"
        },
        {
          "internalType": "address",
          "name": "operator",
          "type": "address"
        }
      ],
      "name": "isApprovedForAll",
      "outputs": [
        {
          "internalType": "bool",
          "name": "",
          "type": "bool"
        }
      ],
      "stateMutability": "view",
      "type": "function"
    },
    {
      "inputs": [],
      "name": "lastItem",
      "outputs": [
        {
          "internalType": "uint256",
          "name": "",
          "type": "uint256"
        }
      ],
      "stateMutability": "view",
      "type": "function"
    },
    {
      "inputs": [],
      "name": "name",
      "outputs": [
        {
          "internalType": "string",
          "name": "",
          "type": "string"
        }
      ],
      "stateMutability": "view",
      "type": "function"
    },
    {
      "inputs": [
        {
          "internalType": "uint256",
          "name": "tokenId",
          "type": "uint256"
        }
      ],
      "name": "ownerOf",
      "outputs": [
        {
          "internalType": "address",
          "name": "",
          "type": "address"
        }
      ],
      "stateMutability": "view",
      "type": "function"
    },
    {
      "inputs": [
        {
          "internalType": "address",
          "name": "from",
          "type": "address"
        },
        {
          "internalType": "address",
          "name": "to",
          "type": "address"
        },
        {
          "internalType": "uint256",
          "name": "tokenId",
          "type": "uint256"
        }
      ],
      "name": "safeTransferFrom",
      "outputs": [],
      "stateMutability": "nonpayable",
      "type": "function"
    },
    {
      "inputs": [
        {
          "internalType": "address",
          "name": "from",
          "type": "address"
        },
        {
          "internalType": "address",
          "name": "to",
          "type": "address"
        },
        {
          "internalType": "uint256",
          "name": "tokenId",
          "type": "uint256"
        },
        {
          "internalType": "bytes",
          "name": "_data",
          "type": "bytes"
        }
      ],
      "name": "safeTransferFrom",
      "outputs": [],
      "stateMutability": "nonpayable",
      "type": "function"
    },
    {
      "inputs": [
        {
          "internalType": "address",
          "name": "operator",
          "type": "address"
        },
        {
          "internalType": "bool",
          "name": "approved",
          "type": "bool"
        }
      ],
      "name": "setApprovalForAll",
      "outputs": [],
      "stateMutability": "nonpayable",
      "type": "function"
    },
    {
      "inputs": [],
      "name": "symbol",
      "outputs": [
        {
          "internalType": "string",
          "name": "",
          "type": "string"
        }
      ],
      "stateMutability": "view",
      "type": "function"
    },
    {
      "inputs": [
        {
          "internalType": "address",
          "name": "from",
          "type": "address"
        },
        {
          "internalType": "address",
          "name": "to",
          "type": "address"
        },
        {
          "internalType": "uint256",
          "name": "tokenId",
          "type": "uint256"
        }
      ],
      "name": "transferFrom",
      "outputs": [],
      "stateMutability": "nonpayable",
      "type": "function"
    },
    {
      "inputs": [
        {
          "internalType": "bytes4",
          "name": "interfaceId",
          "type": "bytes4"
        }
      ],
      "name": "supportsInterface",
      "outputs": [
        {
          "internalType": "bool",
          "name": "",
          "type": "bool"
        }
      ],
      "stateMutability": "view",
      "type": "function"
    },
    {
      "inputs": [
        {
          "internalType": "address",
          "name": "_operator",
          "type": "address"
        },
        {
          "internalType": "address",
          "name": "_from",
          "type": "address"
        },
        {
          "internalType": "uint256",
          "name": "_id",
          "type": "uint256"
        },
        {
          "internalType": "uint256",
          "name": "_value",
          "type": "uint256"
        },
        {
          "internalType": "bytes",
          "name": "_data",
          "type": "bytes"
        }
      ],
      "name": "onERC1155Received",
      "outputs": [
        {
          "internalType": "bytes4",
          "name": "",
          "type": "bytes4"
        }
      ],
      "stateMutability": "nonpayable",
      "type": "function"
    },
    {
      "inputs": [
        {
          "internalType": "uint256",
          "name": "tokenId",
          "type": "uint256"
        }
      ],
      "name": "unwrap",
      "outputs": [],
      "stateMutability": "nonpayable",
      "type": "function"
    },
    {
      "inputs": [
        {
          "internalType": "uint256",
          "name": "tokenId",
          "type": "uint256"
        }
      ],
      "name": "tokenURI",
      "outputs": [
        {
          "internalType": "string",
          "name": "",
          "type": "string"
        }
      ],
      "stateMutability": "view",
      "type": "function"
    }
  ],
  "bytecode": "0x60806040523480156200001157600080fd5b506040518060400160405280600f81526020017f45524331313535205772617070657200000000000000000000000000000000008152506040518060400160405280600881526020017f5745524331313535000000000000000000000000000000000000000000000000815250816000908051906020019062000096929190620000b8565b508060019080519060200190620000af929190620000b8565b505050620001cd565b828054620000c69062000197565b90600052602060002090601f016020900481019282620000ea576000855562000136565b82601f106200010557805160ff191683800117855562000136565b8280016001018555821562000136579182015b828111156200013557825182559160200191906001019062000118565b5b50905062000145919062000149565b5090565b5b80821115620001645760008160009055506001016200014a565b5090565b7f4e487b7100000000000000000000000000000000000000000000000000000000600052602260045260246000fd5b60006002820490506001821680620001b057607f821691505b60208210811415620001c757620001c662000168565b5b50919050565b612ad980620001dd6000396000f3fe608060405234801561001057600080fd5b50600436106101005760003560e01c806370a0823111610097578063c87b56dd11610066578063c87b56dd146102ab578063de0e9a3e146102db578063e985e9c5146102f7578063f23a6e611461032757610100565b806370a082311461022557806395d89b4114610255578063a22cb46514610273578063b88d4fde1461028f57610100565b8063210ce6b9116100d3578063210ce6b91461019f57806323b872dd146101bd57806342842e0e146101d95780636352211e146101f557610100565b806301ffc9a71461010557806306fdde0314610135578063081812fc14610153578063095ea7b314610183575b600080fd5b61011f600480360381019061011a91906118f4565b610357565b60405161012c919061193c565b60405180910390f35b61013d6103d1565b60405161014a91906119f0565b60405180910390f35b61016d60048036038101906101689190611a48565b610463565b60405161017a9190611ab6565b60405180910390f35b61019d60048036038101906101989190611afd565b6104e8565b005b6101a7610600565b6040516101b49190611b4c565b60405180910390f35b6101d760048036038101906101d29190611b67565b610606565b005b6101f360048036038101906101ee9190611b67565b610666565b005b61020f600480360381019061020a9190611a48565b610686565b60405161021c9190611ab6565b60405180910390f35b61023f600480360381019061023a9190611bba565b610738565b60405161024c9190611b4c565b60405180910390f35b61025d6107f0565b60405161026a91906119f0565b60405180910390f35b61028d60048036038101906102889190611c13565b610882565b005b6102a960048036038101906102a49190611d88565b610898565b005b6102c560048036038101906102c09190611a48565b6108fa565b6040516102d291906119f0565b60405180910390f35b6102f560048036038101906102f09190611a48565b610a10565b005b610311600480360381019061030c9190611e0b565b610b14565b60405161031e919061193c565b60405180910390f35b610341600480360381019061033c9190611eab565b610ba8565b60405161034e9190611f54565b60405180910390f35b600061036282610c55565b806103ca57507f4e2312e0000000000000000000000000000000000000000000000000000000007bffffffffffffffffffffffffffffffffffffffffffffffffffffffff1916827bffffffffffffffffffffffffffffffffffffffffffffffffffffffff1916145b9050919050565b6060600080546103e090611f9e565b80601f016020809104026020016040519081016040528092919081815260200182805461040c90611f9e565b80156104595780601f1061042e57610100808354040283529160200191610459565b820191906000526020600020905b81548152906001019060200180831161043c57829003601f168201915b5050505050905090565b600061046e82610d37565b6104ad576040517f08c379a00000000000000000000000000000000000000000000000000000000081526004016104a490612042565b60405180910390fd5b6004600083815260200190815260200160002060009054906101000a900473ffffffffffffffffffffffffffffffffffffffff169050919050565b60006104f382610686565b90508073ffffffffffffffffffffffffffffffffffffffff168373ffffffffffffffffffffffffffffffffffffffff161415610564576040517f08c379a000000000000000000000000000000000000000000000000000000000815260040161055b906120d4565b60405180910390fd5b8073ffffffffffffffffffffffffffffffffffffffff16610583610da3565b73ffffffffffffffffffffffffffffffffffffffff1614806105b257506105b1816105ac610da3565b610b14565b5b6105f1576040517f08c379a00000000000000000000000000000000000000000000000000000000081526004016105e890612166565b60405180910390fd5b6105fb8383610dab565b505050565b60085481565b610617610611610da3565b82610e64565b610656576040517f08c379a000000000000000000000000000000000000000000000000000000000815260040161064d906121f8565b60405180910390fd5b610661838383610f42565b505050565b61068183838360405180602001604052806000815250610898565b505050565b6000806002600084815260200190815260200160002060009054906101000a900473ffffffffffffffffffffffffffffffffffffffff169050600073ffffffffffffffffffffffffffffffffffffffff168173ffffffffffffffffffffffffffffffffffffffff16141561072f576040517f08c379a00000000000000000000000000000000000000000000000000000000081526004016107269061228a565b60405180910390fd5b80915050919050565b60008073ffffffffffffffffffffffffffffffffffffffff168273ffffffffffffffffffffffffffffffffffffffff1614156107a9576040517f08c379a00000000000000000000000000000000000000000000000000000000081526004016107a09061231c565b60405180910390fd5b600360008373ffffffffffffffffffffffffffffffffffffffff1673ffffffffffffffffffffffffffffffffffffffff168152602001908152602001600020549050919050565b6060600180546107ff90611f9e565b80601f016020809104026020016040519081016040528092919081815260200182805461082b90611f9e565b80156108785780601f1061084d57610100808354040283529160200191610878565b820191906000526020600020905b81548152906001019060200180831161085b57829003601f168201915b5050505050905090565b61089461088d610da3565b83836111a9565b5050565b6108a96108a3610da3565b83610e64565b6108e8576040517f08c379a00000000000000000000000000000000000000000000000000000000081526004016108df906121f8565b60405180910390fd5b6108f484848484611316565b50505050565b606061090582610d37565b610944576040517f08c379a000000000000000000000000000000000000000000000000000000000815260040161093b906123ae565b60405180910390fd5b6006600083815260200190815260200160002060009054906101000a900473ffffffffffffffffffffffffffffffffffffffff1673ffffffffffffffffffffffffffffffffffffffff16630e89341c60076000858152602001908152602001600020546040518263ffffffff1660e01b81526004016109c39190611b4c565b600060405180830381865afa1580156109e0573d6000803e3d6000fd5b505050506040513d6000823e3d601f19601f82011682018060405250810190610a09919061246f565b9050919050565b3373ffffffffffffffffffffffffffffffffffffffff16610a3082610686565b73ffffffffffffffffffffffffffffffffffffffff1614610a5057600080fd5b610a5981611372565b6006600082815260200190815260200160002060009054906101000a900473ffffffffffffffffffffffffffffffffffffffff1673ffffffffffffffffffffffffffffffffffffffff1663f242432a3033600760008681526020019081526020016000205460016040518563ffffffff1660e01b8152600401610adf9493929190612534565b600060405180830381600087803b158015610af957600080fd5b505af1158015610b0d573d6000803e3d6000fd5b5050505050565b6000600560008473ffffffffffffffffffffffffffffffffffffffff1673ffffffffffffffffffffffffffffffffffffffff16815260200190815260200160002060008373ffffffffffffffffffffffffffffffffffffffff1673ffffffffffffffffffffffffffffffffffffffff16815260200190815260200160002060009054906101000a900460ff16905092915050565b600060018414610bb757600080fd5b60086000815460010191905081905550610bd38760085461148f565b3360066000600854815260200190815260200160002060006101000a81548173ffffffffffffffffffffffffffffffffffffffff021916908373ffffffffffffffffffffffffffffffffffffffff160217905550846007600060085481526020019081526020016000208190555063f23a6e6160e01b90509695505050505050565b60007f80ac58cd000000000000000000000000000000000000000000000000000000007bffffffffffffffffffffffffffffffffffffffffffffffffffffffff1916827bffffffffffffffffffffffffffffffffffffffffffffffffffffffff19161480610d2057507f5b5e139f000000000000000000000000000000000000000000000000000000007bffffffffffffffffffffffffffffffffffffffffffffffffffffffff1916827bffffffffffffffffffffffffffffffffffffffffffffffffffffffff1916145b80610d305750610d2f82611669565b5b9050919050565b60008073ffffffffffffffffffffffffffffffffffffffff166002600084815260200190815260200160002060009054906101000a900473ffffffffffffffffffffffffffffffffffffffff1673ffffffffffffffffffffffffffffffffffffffff1614159050919050565b600033905090565b816004600083815260200190815260200160002060006101000a81548173ffffffffffffffffffffffffffffffffffffffff021916908373ffffffffffffffffffffffffffffffffffffffff160217905550808273ffffffffffffffffffffffffffffffffffffffff16610e1e83610686565b73ffffffffffffffffffffffffffffffffffffffff167f8c5be1e5ebec7d5bd14f71427d1e84f3dd0314c0f7b2291e5b200ac8c7c3b92560405160405180910390a45050565b6000610e6f82610d37565b610eae576040517f08c379a0000000000000000000000000000000000000000000000000000000008152600401610ea5906125fe565b60405180910390fd5b6000610eb983610686565b90508073ffffffffffffffffffffffffffffffffffffffff168473ffffffffffffffffffffffffffffffffffffffff161480610f2857508373ffffffffffffffffffffffffffffffffffffffff16610f1084610463565b73ffffffffffffffffffffffffffffffffffffffff16145b80610f395750610f388185610b14565b5b91505092915050565b8273ffffffffffffffffffffffffffffffffffffffff16610f6282610686565b73ffffffffffffffffffffffffffffffffffffffff1614610fb8576040517f08c379a0000000000000000000000000000000000000000000000000000000008152600401610faf90612690565b60405180910390fd5b600073ffffffffffffffffffffffffffffffffffffffff168273ffffffffffffffffffffffffffffffffffffffff161415611028576040517f08c379a000000000000000000000000000000000000000000000000000000000815260040161101f90612722565b60405180910390fd5b6110338383836116d3565b61103e600082610dab565b6001600360008573ffffffffffffffffffffffffffffffffffffffff1673ffffffffffffffffffffffffffffffffffffffff168152602001908152602001600020600082825461108e9190612771565b925050819055506001600360008473ffffffffffffffffffffffffffffffffffffffff1673ffffffffffffffffffffffffffffffffffffffff16815260200190815260200160002060008282546110e591906127a5565b92505081905550816002600083815260200190815260200160002060006101000a81548173ffffffffffffffffffffffffffffffffffffffff021916908373ffffffffffffffffffffffffffffffffffffffff160217905550808273ffffffffffffffffffffffffffffffffffffffff168473ffffffffffffffffffffffffffffffffffffffff167fddf252ad1be2c89b69c2b068fc378daa952ba7f163c4a11628f55a4df523b3ef60405160405180910390a46111a48383836116d8565b505050565b8173ffffffffffffffffffffffffffffffffffffffff168373ffffffffffffffffffffffffffffffffffffffff161415611218576040517f08c379a000000000000000000000000000000000000000000000000000000000815260040161120f90612847565b60405180910390fd5b80600560008573ffffffffffffffffffffffffffffffffffffffff1673ffffffffffffffffffffffffffffffffffffffff16815260200190815260200160002060008473ffffffffffffffffffffffffffffffffffffffff1673ffffffffffffffffffffffffffffffffffffffff16815260200190815260200160002060006101000a81548160ff0219169083151502179055508173ffffffffffffffffffffffffffffffffffffffff168373ffffffffffffffffffffffffffffffffffffffff167f17307eab39ab6107e8899845ad3d59bd9653f200f220920489ca2b5937696c3183604051611309919061193c565b60405180910390a3505050565b611321848484610f42565b61132d848484846116dd565b61136c576040517f08c379a0000000000000000000000000000000000000000000000000000000008152600401611363906128d9565b60405180910390fd5b50505050565b600061137d82610686565b905061138b816000846116d3565b611396600083610dab565b6001600360008373ffffffffffffffffffffffffffffffffffffffff1673ffffffffffffffffffffffffffffffffffffffff16815260200190815260200160002060008282546113e69190612771565b925050819055506002600083815260200190815260200160002060006101000a81549073ffffffffffffffffffffffffffffffffffffffff021916905581600073ffffffffffffffffffffffffffffffffffffffff168273ffffffffffffffffffffffffffffffffffffffff167fddf252ad1be2c89b69c2b068fc378daa952ba7f163c4a11628f55a4df523b3ef60405160405180910390a461148b816000846116d8565b5050565b600073ffffffffffffffffffffffffffffffffffffffff168273ffffffffffffffffffffffffffffffffffffffff1614156114ff576040517f08c379a00000000000000000000000000000000000000000000000000000000081526004016114f690612945565b60405180910390fd5b61150881610d37565b15611548576040517f08c379a000000000000000000000000000000000000000000000000000000000815260040161153f906129b1565b60405180910390fd5b611554600083836116d3565b6001600360008473ffffffffffffffffffffffffffffffffffffffff1673ffffffffffffffffffffffffffffffffffffffff16815260200190815260200160002060008282546115a491906127a5565b92505081905550816002600083815260200190815260200160002060006101000a81548173ffffffffffffffffffffffffffffffffffffffff021916908373ffffffffffffffffffffffffffffffffffffffff160217905550808273ffffffffffffffffffffffffffffffffffffffff16600073ffffffffffffffffffffffffffffffffffffffff167fddf252ad1be2c89b69c2b068fc378daa952ba7f163c4a11628f55a4df523b3ef60405160405180910390a4611665600083836116d8565b5050565b60007f01ffc9a7000000000000000000000000000000000000000000000000000000007bffffffffffffffffffffffffffffffffffffffffffffffffffffffff1916827bffffffffffffffffffffffffffffffffffffffffffffffffffffffff1916149050919050565b505050565b505050565b60006116fe8473ffffffffffffffffffffffffffffffffffffffff16611865565b15611858578373ffffffffffffffffffffffffffffffffffffffff1663150b7a02611727610da3565b8786866040518563ffffffff1660e01b81526004016117499493929190612a15565b6020604051808303816000875af192505050801561178557506040513d601f19601f820116820180604052508101906117829190612a76565b60015b611808573d80600081146117b5576040519150601f19603f3d011682016040523d82523d6000602084013e6117ba565b606091505b50600081511415611800576040517f08c379a00000000000000000000000000000000000000000000000000000000081526004016117f7906128d9565b60405180910390fd5b805181602001fd5b63150b7a0260e01b7bffffffffffffffffffffffffffffffffffffffffffffffffffffffff1916817bffffffffffffffffffffffffffffffffffffffffffffffffffffffff19161491505061185d565b600190505b949350505050565b6000808273ffffffffffffffffffffffffffffffffffffffff163b119050919050565b6000604051905090565b600080fd5b600080fd5b60007fffffffff0000000000000000000000000000000000000000000000000000000082169050919050565b6118d18161189c565b81146118dc57600080fd5b50565b6000813590506118ee816118c8565b92915050565b60006020828403121561190a57611909611892565b5b6000611918848285016118df565b91505092915050565b60008115159050919050565b61193681611921565b82525050565b6000602082019050611951600083018461192d565b92915050565b600081519050919050565b600082825260208201905092915050565b60005b83811015611991578082015181840152602081019050611976565b838111156119a0576000848401525b50505050565b6000601f19601f8301169050919050565b60006119c282611957565b6119cc8185611962565b93506119dc818560208601611973565b6119e5816119a6565b840191505092915050565b60006020820190508181036000830152611a0a81846119b7565b905092915050565b6000819050919050565b611a2581611a12565b8114611a3057600080fd5b50565b600081359050611a4281611a1c565b92915050565b600060208284031215611a5e57611a5d611892565b5b6000611a6c84828501611a33565b91505092915050565b600073ffffffffffffffffffffffffffffffffffffffff82169050919050565b6000611aa082611a75565b9050919050565b611ab081611a95565b82525050565b6000602082019050611acb6000830184611aa7565b92915050565b611ada81611a95565b8114611ae557600080fd5b50565b600081359050611af781611ad1565b92915050565b60008060408385031215611b1457611b13611892565b5b6000611b2285828601611ae8565b9250506020611b3385828601611a33565b9150509250929050565b611b4681611a12565b82525050565b6000602082019050611b616000830184611b3d565b92915050565b600080600060608486031215611b8057611b7f611892565b5b6000611b8e86828701611ae8565b9350506020611b9f86828701611ae8565b9250506040611bb086828701611a33565b9150509250925092565b600060208284031215611bd057611bcf611892565b5b6000611bde84828501611ae8565b91505092915050565b611bf081611921565b8114611bfb57600080fd5b50565b600081359050611c0d81611be7565b92915050565b60008060408385031215611c2a57611c29611892565b5b6000611c3885828601611ae8565b9250506020611c4985828601611bfe565b9150509250929050565b600080fd5b600080fd5b7f4e487b7100000000000000000000000000000000000000000000000000000000600052604160045260246000fd5b611c95826119a6565b810181811067ffffffffffffffff82111715611cb457611cb3611c5d565b5b80604052505050565b6000611cc7611888565b9050611cd38282611c8c565b919050565b600067ffffffffffffffff821115611cf357611cf2611c5d565b5b611cfc826119a6565b9050602081019050919050565b82818337600083830152505050565b6000611d2b611d2684611cd8565b611cbd565b905082815260208101848484011115611d4757611d46611c58565b5b611d52848285611d09565b509392505050565b600082601f830112611d6f57611d6e611c53565b5b8135611d7f848260208601611d18565b91505092915050565b60008060008060808587031215611da257611da1611892565b5b6000611db087828801611ae8565b9450506020611dc187828801611ae8565b9350506040611dd287828801611a33565b925050606085013567ffffffffffffffff811115611df357611df2611897565b5b611dff87828801611d5a565b91505092959194509250565b60008060408385031215611e2257611e21611892565b5b6000611e3085828601611ae8565b9250506020611e4185828601611ae8565b9150509250929050565b600080fd5b600080fd5b60008083601f840112611e6b57611e6a611c53565b5b8235905067ffffffffffffffff811115611e8857611e87611e4b565b5b602083019150836001820283011115611ea457611ea3611e50565b5b9250929050565b60008060008060008060a08789031215611ec857611ec7611892565b5b6000611ed689828a01611ae8565b9650506020611ee789828a01611ae8565b9550506040611ef889828a01611a33565b9450506060611f0989828a01611a33565b935050608087013567ffffffffffffffff811115611f2a57611f29611897565b5b611f3689828a01611e55565b92509250509295509295509295565b611f4e8161189c565b82525050565b6000602082019050611f696000830184611f45565b92915050565b7f4e487b7100000000000000000000000000000000000000000000000000000000600052602260045260246000fd5b60006002820490506001821680611fb657607f821691505b60208210811415611fca57611fc9611f6f565b5b50919050565b7f4552433732313a20617070726f76656420717565727920666f72206e6f6e657860008201527f697374656e7420746f6b656e0000000000000000000000000000000000000000602082015250565b600061202c602c83611962565b915061203782611fd0565b604082019050919050565b6000602082019050818103600083015261205b8161201f565b9050919050565b7f4552433732313a20617070726f76616c20746f2063757272656e74206f776e6560008201527f7200000000000000000000000000000000000000000000000000000000000000602082015250565b60006120be602183611962565b91506120c982612062565b604082019050919050565b600060208201905081810360008301526120ed816120b1565b9050919050565b7f4552433732313a20617070726f76652063616c6c6572206973206e6f74206f7760008201527f6e6572206e6f7220617070726f76656420666f7220616c6c0000000000000000602082015250565b6000612150603883611962565b915061215b826120f4565b604082019050919050565b6000602082019050818103600083015261217f81612143565b9050919050565b7f4552433732313a207472616e736665722063616c6c6572206973206e6f74206f60008201527f776e6572206e6f7220617070726f766564000000000000000000000000000000602082015250565b60006121e2603183611962565b91506121ed82612186565b604082019050919050565b60006020820190508181036000830152612211816121d5565b9050919050565b7f4552433732313a206f776e657220717565727920666f72206e6f6e657869737460008201527f656e7420746f6b656e0000000000000000000000000000000000000000000000602082015250565b6000612274602983611962565b915061227f82612218565b604082019050919050565b600060208201905081810360008301526122a381612267565b9050919050565b7f4552433732313a2062616c616e636520717565727920666f7220746865207a6560008201527f726f206164647265737300000000000000000000000000000000000000000000602082015250565b6000612306602a83611962565b9150612311826122aa565b604082019050919050565b60006020820190508181036000830152612335816122f9565b9050919050565b7f4552433732314d657461646174613a2055524920717565727920666f72206e6f60008201527f6e6578697374656e7420746f6b656e0000000000000000000000000000000000602082015250565b6000612398602f83611962565b91506123a38261233c565b604082019050919050565b600060208201905081810360008301526123c78161238b565b9050919050565b600067ffffffffffffffff8211156123e9576123e8611c5d565b5b6123f2826119a6565b9050602081019050919050565b600061241261240d846123ce565b611cbd565b90508281526020810184848401111561242e5761242d611c58565b5b612439848285611973565b509392505050565b600082601f83011261245657612455611c53565b5b81516124668482602086016123ff565b91505092915050565b60006020828403121561248557612484611892565b5b600082015167ffffffffffffffff8111156124a3576124a2611897565b5b6124af84828501612441565b91505092915050565b6000819050919050565b6000819050919050565b60006124e76124e26124dd846124b8565b6124c2565b611a12565b9050919050565b6124f7816124cc565b82525050565b600082825260208201905092915050565b50565b600061251e6000836124fd565b91506125298261250e565b600082019050919050565b600060a0820190506125496000830187611aa7565b6125566020830186611aa7565b6125636040830185611b3d565b61257060608301846124ee565b818103608083015261258181612511565b905095945050505050565b7f4552433732313a206f70657261746f7220717565727920666f72206e6f6e657860008201527f697374656e7420746f6b656e0000000000000000000000000000000000000000602082015250565b60006125e8602c83611962565b91506125f38261258c565b604082019050919050565b60006020820190508181036000830152612617816125db565b9050919050565b7f4552433732313a207472616e736665722066726f6d20696e636f72726563742060008201527f6f776e6572000000000000000000000000000000000000000000000000000000602082015250565b600061267a602583611962565b91506126858261261e565b604082019050919050565b600060208201905081810360008301526126a98161266d565b9050919050565b7f4552433732313a207472616e7366657220746f20746865207a65726f2061646460008201527f7265737300000000000000000000000000000000000000000000000000000000602082015250565b600061270c602483611962565b9150612717826126b0565b604082019050919050565b6000602082019050818103600083015261273b816126ff565b9050919050565b7f4e487b7100000000000000000000000000000000000000000000000000000000600052601160045260246000fd5b600061277c82611a12565b915061278783611a12565b92508282101561279a57612799612742565b5b828203905092915050565b60006127b082611a12565b91506127bb83611a12565b9250827fffffffffffffffffffffffffffffffffffffffffffffffffffffffffffffffff038211156127f0576127ef612742565b5b828201905092915050565b7f4552433732313a20617070726f766520746f2063616c6c657200000000000000600082015250565b6000612831601983611962565b915061283c826127fb565b602082019050919050565b6000602082019050818103600083015261286081612824565b9050919050565b7f4552433732313a207472616e7366657220746f206e6f6e20455243373231526560008201527f63656976657220696d706c656d656e7465720000000000000000000000000000602082015250565b60006128c3603283611962565b91506128ce82612867565b604082019050919050565b600060208201905081810360008301526128f2816128b6565b9050919050565b7f4552433732313a206d696e7420746f20746865207a65726f2061646472657373600082015250565b600061292f602083611962565b915061293a826128f9565b602082019050919050565b6000602082019050818103600083015261295e81612922565b9050919050565b7f4552433732313a20746f6b656e20616c7265616479206d696e74656400000000600082015250565b600061299b601c83611962565b91506129a682612965565b602082019050919050565b600060208201905081810360008301526129ca8161298e565b9050919050565b600081519050919050565b60006129e7826129d1565b6129f181856124fd565b9350612a01818560208601611973565b612a0a816119a6565b840191505092915050565b6000608082019050612a2a6000830187611aa7565b612a376020830186611aa7565b612a446040830185611b3d565b8181036060830152612a5681846129dc565b905095945050505050565b600081519050612a70816118c8565b92915050565b600060208284031215612a8c57612a8b611892565b5b6000612a9a84828501612a61565b9150509291505056fea2646970667358221220557b106f14ee62ffed0ea853b854eb50fa6dea6d9b99abdd960e750ed61f641364736f6c634300080c0033",
  "immutableReferences": {},
  "source": "//SPDX-License-Identifier: MIT\npragma solidity ^0.8.0;\n\nimport \"@openzeppelin/contracts/token/ERC721/ERC721.sol\";\nimport \"@openzeppelin/contracts/token/ERC1155/extensions/IERC1155MetadataURI.sol\";\nimport \"@openzeppelin/contracts/token/ERC1155/IERC1155Receiver.sol\";\n\ncontract ERC1155Wrapper is ERC721 {\n    mapping(uint256 => IERC1155MetadataURI) idToERC1155Contract;\n    mapping(uint256 => uint256) idToERC1155Id;\n    uint public lastItem;\n\n    function supportsInterface(bytes4 interfaceId) public view virtual override(ERC721) returns (bool) {\n        return ERC721.supportsInterface(interfaceId) || interfaceId == type(IERC1155Receiver).interfaceId;\n    }\n\n    constructor() ERC721(\"ERC1155 Wrapper\", \"WERC1155\") {}\n\n    function onERC1155Received(address _operator, address _from, uint256 _id, uint256 _value, bytes calldata _data) external returns(bytes4){\n        require(_value == 1);\n        unchecked{\n            ++lastItem;\n        }\n        _mint(_operator, lastItem);\n        idToERC1155Contract[lastItem] = IERC1155MetadataURI(msg.sender);\n        idToERC1155Id[lastItem] = _id;\n        return this.onERC1155Received.selector;\n    }\n\n    function unwrap(uint tokenId) external {\n        require(ownerOf(tokenId) == msg.sender);\n        _burn(tokenId);\n        idToERC1155Contract[tokenId].safeTransferFrom(address(this), msg.sender, idToERC1155Id[tokenId], 1, \"\");\n    }\n\n    function tokenURI(uint256 tokenId) public view override returns (string memory) {\n        require(_exists(tokenId), \"ERC721Metadata: URI query for nonexistent token\");\n\n        return idToERC1155Contract[tokenId].uri(idToERC1155Id[tokenId]); // Should actually replace {id} with tokenId but I don't want to\n    }\n}\n",
  "sourcePath": "D:\\03.block-chain\\01.miquelTC__nft-marketplace\\test-proj\\nft-marketplace-master\\src\\contracts\\Loan\\ERC1155Wrapper.sol",
  "compiler": {
    "name": "solc",
    "version": "0.8.12+commit.f00d7308.Emscripten.clang"
  },
  "schemaVersion": "3.4.4",
  "updatedAt": "2022-02-22T02:09:40.487Z",
  "devdoc": {
    "kind": "dev",
    "methods": {
      "approve(address,uint256)": {
        "details": "See {IERC721-approve}."
      },
      "balanceOf(address)": {
        "details": "See {IERC721-balanceOf}."
      },
      "getApproved(uint256)": {
        "details": "See {IERC721-getApproved}."
      },
      "isApprovedForAll(address,address)": {
        "details": "See {IERC721-isApprovedForAll}."
      },
      "name()": {
        "details": "See {IERC721Metadata-name}."
      },
      "ownerOf(uint256)": {
        "details": "See {IERC721-ownerOf}."
      },
      "safeTransferFrom(address,address,uint256)": {
        "details": "See {IERC721-safeTransferFrom}."
      },
      "safeTransferFrom(address,address,uint256,bytes)": {
        "details": "See {IERC721-safeTransferFrom}."
      },
      "setApprovalForAll(address,bool)": {
        "details": "See {IERC721-setApprovalForAll}."
      },
      "supportsInterface(bytes4)": {
        "details": "See {IERC165-supportsInterface}."
      },
      "symbol()": {
        "details": "See {IERC721Metadata-symbol}."
      },
      "tokenURI(uint256)": {
        "details": "See {IERC721Metadata-tokenURI}."
      },
      "transferFrom(address,address,uint256)": {
        "details": "See {IERC721-transferFrom}."
      }
    },
    "version": 1
  },
  "userdoc": {
    "kind": "user",
    "methods": {},
    "version": 1
  }
}