{
  "contractName": "ERC1155PausableMock",
  "abi": [
    {
      "inputs": [
        {
          "internalType": "string",
          "name": "uri",
          "type": "string"
        }
      ],
      "stateMutability": "nonpayable",
      "type": "constructor"
    },
    {
      "anonymous": false,
      "inputs": [
        {
          "indexed": true,
          "internalType": "address",
          "name": "account",
          "type": "address"
        },
        {
          "indexed": true,
          "internalType": "address",
          "name": "operator",
          "type": "address"
        },
        {
          "indexed": false,
          "internalType": "bool",
          "name": "approved",
          "type": "bool"
        }
      ],
      "name": "ApprovalForAll",
      "type": "event"
    },
    {
      "anonymous": false,
      "inputs": [
        {
          "indexed": false,
          "internalType": "address",
          "name": "account",
          "type": "address"
        }
      ],
      "name": "Paused",
      "type": "event"
    },
    {
      "anonymous": false,
      "inputs": [
        {
          "indexed": true,
          "internalType": "address",
          "name": "operator",
          "type": "address"
        },
        {
          "indexed": true,
          "internalType": "address",
          "name": "from",
          "type": "address"
        },
        {
          "indexed": true,
          "internalType": "address",
          "name": "to",
          "type": "address"
        },
        {
          "indexed": false,
          "internalType": "uint256[]",
          "name": "ids",
          "type": "uint256[]"
        },
        {
          "indexed": false,
          "internalType": "uint256[]",
          "name": "values",
          "type": "uint256[]"
        }
      ],
      "name": "TransferBatch",
      "type": "event"
    },
    {
      "anonymous": false,
      "inputs": [
        {
          "indexed": true,
          "internalType": "address",
          "name": "operator",
          "type": "address"
        },
        {
          "indexed": true,
          "internalType": "address",
          "name": "from",
          "type": "address"
        },
        {
          "indexed": true,
          "internalType": "address",
          "name": "to",
          "type": "address"
        },
        {
          "indexed": false,
          "internalType": "uint256",
          "name": "id",
          "type": "uint256"
        },
        {
          "indexed": false,
          "internalType": "uint256",
          "name": "value",
          "type": "uint256"
        }
      ],
      "name": "TransferSingle",
      "type": "event"
    },
    {
      "anonymous": false,
      "inputs": [
        {
          "indexed": false,
          "internalType": "string",
          "name": "value",
          "type": "string"
        },
        {
          "indexed": true,
          "internalType": "uint256",
          "name": "id",
          "type": "uint256"
        }
      ],
      "name": "URI",
      "type": "event"
    },
    {
      "anonymous": false,
      "inputs": [
        {
          "indexed": false,
          "internalType": "address",
          "name": "account",
          "type": "address"
        }
      ],
      "name": "Unpaused",
      "type": "event"
    },
    {
      "inputs": [
        {
          "internalType": "address",
          "name": "account",
          "type": "address"
        },
        {
          "internalType": "uint256",
          "name": "id",
          "type": "uint256"
        }
      ],
      "name": "balanceOf",
      "outputs": [
        {
          "internalType": "uint256",
          "name": "",
          "type": "uint256"
        }
      ],
      "stateMutability": "view",
      "type": "function"
    },
    {
      "inputs": [
        {
          "internalType": "address[]",
          "name": "accounts",
          "type": "address[]"
        },
        {
          "internalType": "uint256[]",
          "name": "ids",
          "type": "uint256[]"
        }
      ],
      "name": "balanceOfBatch",
      "outputs": [
        {
          "internalType": "uint256[]",
          "name": "",
          "type": "uint256[]"
        }
      ],
      "stateMutability": "view",
      "type": "function"
    },
    {
      "inputs": [
        {
          "internalType": "address",
          "name": "owner",
          "type": "address"
        },
        {
          "internalType": "uint256",
          "name": "id",
          "type": "uint256"
        },
        {
          "internalType": "uint256",
          "name": "value",
          "type": "uint256"
        }
      ],
      "name": "burn",
      "outputs": [],
      "stateMutability": "nonpayable",
      "type": "function"
    },
    {
      "inputs": [
        {
          "internalType": "address",
          "name": "owner",
          "type": "address"
        },
        {
          "internalType": "uint256[]",
          "name": "ids",
          "type": "uint256[]"
        },
        {
          "internalType": "uint256[]",
          "name": "values",
          "type": "uint256[]"
        }
      ],
      "name": "burnBatch",
      "outputs": [],
      "stateMutability": "nonpayable",
      "type": "function"
    },
    {
      "inputs": [
        {
          "internalType": "address",
          "name": "account",
          "type": "address"
        },
        {
          "internalType": "address",
          "name": "operator",
          "type": "address"
        }
      ],
      "name": "isApprovedForAll",
      "outputs": [
        {
          "internalType": "bool",
          "name": "",
          "type": "bool"
        }
      ],
      "stateMutability": "view",
      "type": "function"
    },
    {
      "inputs": [
        {
          "internalType": "address",
          "name": "to",
          "type": "address"
        },
        {
          "internalType": "uint256",
          "name": "id",
          "type": "uint256"
        },
        {
          "internalType": "uint256",
          "name": "value",
          "type": "uint256"
        },
        {
          "internalType": "bytes",
          "name": "data",
          "type": "bytes"
        }
      ],
      "name": "mint",
      "outputs": [],
      "stateMutability": "nonpayable",
      "type": "function"
    },
    {
      "inputs": [
        {
          "internalType": "address",
          "name": "to",
          "type": "address"
        },
        {
          "internalType": "uint256[]",
          "name": "ids",
          "type": "uint256[]"
        },
        {
          "internalType": "uint256[]",
          "name": "values",
          "type": "uint256[]"
        },
        {
          "internalType": "bytes",
          "name": "data",
          "type": "bytes"
        }
      ],
      "name": "mintBatch",
      "outputs": [],
      "stateMutability": "nonpayable",
      "type": "function"
    },
    {
      "inputs": [],
      "name": "paused",
      "outputs": [
        {
          "internalType": "bool",
          "name": "",
          "type": "bool"
        }
      ],
      "stateMutability": "view",
      "type": "function"
    },
    {
      "inputs": [
        {
          "internalType": "address",
          "name": "from",
          "type": "address"
        },
        {
          "internalType": "address",
          "name": "to",
          "type": "address"
        },
        {
          "internalType": "uint256[]",
          "name": "ids",
          "type": "uint256[]"
        },
        {
          "internalType": "uint256[]",
          "name": "amounts",
          "type": "uint256[]"
        },
        {
          "internalType": "bytes",
          "name": "data",
          "type": "bytes"
        }
      ],
      "name": "safeBatchTransferFrom",
      "outputs": [],
      "stateMutability": "nonpayable",
      "type": "function"
    },
    {
      "inputs": [
        {
          "internalType": "address",
          "name": "from",
          "type": "address"
        },
        {
          "internalType": "address",
          "name": "to",
          "type": "address"
        },
        {
          "internalType": "uint256",
          "name": "id",
          "type": "uint256"
        },
        {
          "internalType": "uint256",
          "name": "amount",
          "type": "uint256"
        },
        {
          "internalType": "bytes",
          "name": "data",
          "type": "bytes"
        }
      ],
      "name": "safeTransferFrom",
      "outputs": [],
      "stateMutability": "nonpayable",
      "type": "function"
    },
    {
      "inputs": [
        {
          "internalType": "address",
          "name": "operator",
          "type": "address"
        },
        {
          "internalType": "bool",
          "name": "approved",
          "type": "bool"
        }
      ],
      "name": "setApprovalForAll",
      "outputs": [],
      "stateMutability": "nonpayable",
      "type": "function"
    },
    {
      "inputs": [
        {
          "internalType": "string",
          "name": "newuri",
          "type": "string"
        }
      ],
      "name": "setURI",
      "outputs": [],
      "stateMutability": "nonpayable",
      "type": "function"
    },
    {
      "inputs": [
        {
          "internalType": "bytes4",
          "name": "interfaceId",
          "type": "bytes4"
        }
      ],
      "name": "supportsInterface",
      "outputs": [
        {
          "internalType": "bool",
          "name": "",
          "type": "bool"
        }
      ],
      "stateMutability": "view",
      "type": "function"
    },
    {
      "inputs": [
        {
          "internalType": "uint256",
          "name": "",
          "type": "uint256"
        }
      ],
      "name": "uri",
      "outputs": [
        {
          "internalType": "string",
          "name": "",
          "type": "string"
        }
      ],
      "stateMutability": "view",
      "type": "function"
    },
    {
      "inputs": [],
      "name": "pause",
      "outputs": [],
      "stateMutability": "nonpayable",
      "type": "function"
    },
    {
      "inputs": [],
      "name": "unpause",
      "outputs": [],
      "stateMutability": "nonpayable",
      "type": "function"
    }
  ],
  "bytecode": "0x60806040523480156200001157600080fd5b5060405162003c1938038062003c198339818101604052810190620000379190620002d7565b80806200004a816200006e60201b60201c565b50506000600360006101000a81548160ff021916908315150217905550506200038d565b8060029080519060200190620000869291906200008a565b5050565b828054620000989062000357565b90600052602060002090601f016020900481019282620000bc576000855562000108565b82601f10620000d757805160ff191683800117855562000108565b8280016001018555821562000108579182015b8281111562000107578251825591602001919060010190620000ea565b5b5090506200011791906200011b565b5090565b5b80821115620001365760008160009055506001016200011c565b5090565b6000604051905090565b600080fd5b600080fd5b600080fd5b600080fd5b6000601f19601f8301169050919050565b7f4e487b7100000000000000000000000000000000000000000000000000000000600052604160045260246000fd5b620001a38262000158565b810181811067ffffffffffffffff82111715620001c557620001c462000169565b5b80604052505050565b6000620001da6200013a565b9050620001e8828262000198565b919050565b600067ffffffffffffffff8211156200020b576200020a62000169565b5b620002168262000158565b9050602081019050919050565b60005b838110156200024357808201518184015260208101905062000226565b8381111562000253576000848401525b50505050565b6000620002706200026a84620001ed565b620001ce565b9050828152602081018484840111156200028f576200028e62000153565b5b6200029c84828562000223565b509392505050565b600082601f830112620002bc57620002bb6200014e565b5b8151620002ce84826020860162000259565b91505092915050565b600060208284031215620002f057620002ef62000144565b5b600082015167ffffffffffffffff81111562000311576200031062000149565b5b6200031f84828501620002a4565b91505092915050565b7f4e487b7100000000000000000000000000000000000000000000000000000000600052602260045260246000fd5b600060028204905060018216806200037057607f821691505b6020821081141562000387576200038662000328565b5b50919050565b61387c806200039d6000396000f3fe608060405234801561001057600080fd5b50600436106100ff5760003560e01c80635c975abb11610097578063a22cb46511610066578063a22cb46514610282578063e985e9c51461029e578063f242432a146102ce578063f5298aca146102ea576100ff565b80635c975abb146102225780636b20c45414610240578063731133e91461025c5780638456cb5914610278576100ff565b80631f7fdffa116100d35780631f7fdffa146101b05780632eb2c2d6146101cc5780633f4ba83a146101e85780634e1273f4146101f2576100ff565b8062fdd58e1461010457806301ffc9a71461013457806302fe5305146101645780630e89341c14610180575b600080fd5b61011e6004803603810190610119919061202f565b610306565b60405161012b919061207e565b60405180910390f35b61014e600480360381019061014991906120f1565b6103cf565b60405161015b9190612139565b60405180910390f35b61017e6004803603810190610179919061229a565b6104b1565b005b61019a600480360381019061019591906122e3565b6104bd565b6040516101a79190612398565b60405180910390f35b6101ca60048036038101906101c59190612523565b610551565b005b6101e660048036038101906101e191906125de565b610563565b005b6101f0610604565b005b61020c60048036038101906102079190612770565b61060e565b60405161021991906128a6565b60405180910390f35b61022a610727565b6040516102379190612139565b60405180910390f35b61025a600480360381019061025591906128c8565b61073e565b005b61027660048036038101906102719190612953565b61074e565b005b610280610760565b005b61029c60048036038101906102979190612a02565b61076a565b005b6102b860048036038101906102b39190612a42565b610780565b6040516102c59190612139565b60405180910390f35b6102e860048036038101906102e39190612a82565b610814565b005b61030460048036038101906102ff9190612b19565b6108b5565b005b60008073ffffffffffffffffffffffffffffffffffffffff168373ffffffffffffffffffffffffffffffffffffffff161415610377576040517f08c379a000000000000000000000000000000000000000000000000000000000815260040161036e90612bde565b60405180910390fd5b60008083815260200190815260200160002060008473ffffffffffffffffffffffffffffffffffffffff1673ffffffffffffffffffffffffffffffffffffffff16815260200190815260200160002054905092915050565b60007fd9b67a26000000000000000000000000000000000000000000000000000000007bffffffffffffffffffffffffffffffffffffffffffffffffffffffff1916827bffffffffffffffffffffffffffffffffffffffffffffffffffffffff1916148061049a57507f0e89341c000000000000000000000000000000000000000000000000000000007bffffffffffffffffffffffffffffffffffffffffffffffffffffffff1916827bffffffffffffffffffffffffffffffffffffffffffffffffffffffff1916145b806104aa57506104a9826108c5565b5b9050919050565b6104ba8161092f565b50565b6060600280546104cc90612c2d565b80601f01602080910402602001604051908101604052809291908181526020018280546104f890612c2d565b80156105455780601f1061051a57610100808354040283529160200191610545565b820191906000526020600020905b81548152906001019060200180831161052857829003601f168201915b50505050509050919050565b61055d84848484610949565b50505050565b61056b610b67565b73ffffffffffffffffffffffffffffffffffffffff168573ffffffffffffffffffffffffffffffffffffffff1614806105b157506105b0856105ab610b67565b610780565b5b6105f0576040517f08c379a00000000000000000000000000000000000000000000000000000000081526004016105e790612cd1565b60405180910390fd5b6105fd8585858585610b6f565b5050505050565b61060c610e83565b565b60608151835114610654576040517f08c379a000000000000000000000000000000000000000000000000000000000815260040161064b90612d63565b60405180910390fd5b6000835167ffffffffffffffff8111156106715761067061216f565b5b60405190808252806020026020018201604052801561069f5781602001602082028036833780820191505090505b50905060005b845181101561071c576106ec8582815181106106c4576106c3612d83565b5b60200260200101518583815181106106df576106de612d83565b5b6020026020010151610306565b8282815181106106ff576106fe612d83565b5b6020026020010181815250508061071590612de1565b90506106a5565b508091505092915050565b6000600360009054906101000a900460ff16905090565b610749838383610f25565b505050565b61075a848484846111d6565b50505050565b61076861136c565b565b61077c610775610b67565b838361140f565b5050565b6000600160008473ffffffffffffffffffffffffffffffffffffffff1673ffffffffffffffffffffffffffffffffffffffff16815260200190815260200160002060008373ffffffffffffffffffffffffffffffffffffffff1673ffffffffffffffffffffffffffffffffffffffff16815260200190815260200160002060009054906101000a900460ff16905092915050565b61081c610b67565b73ffffffffffffffffffffffffffffffffffffffff168573ffffffffffffffffffffffffffffffffffffffff16148061086257506108618561085c610b67565b610780565b5b6108a1576040517f08c379a000000000000000000000000000000000000000000000000000000000815260040161089890612e9c565b60405180910390fd5b6108ae858585858561157c565b5050505050565b6108c08383836117fe565b505050565b60007f01ffc9a7000000000000000000000000000000000000000000000000000000007bffffffffffffffffffffffffffffffffffffffffffffffffffffffff1916827bffffffffffffffffffffffffffffffffffffffffffffffffffffffff1916149050919050565b8060029080519060200190610945929190611ee4565b5050565b600073ffffffffffffffffffffffffffffffffffffffff168473ffffffffffffffffffffffffffffffffffffffff1614156109b9576040517f08c379a00000000000000000000000000000000000000000000000000000000081526004016109b090612f2e565b60405180910390fd5b81518351146109fd576040517f08c379a00000000000000000000000000000000000000000000000000000000081526004016109f490612fc0565b60405180910390fd5b6000610a07610b67565b9050610a1881600087878787611a1b565b60005b8451811015610ad157838181518110610a3757610a36612d83565b5b6020026020010151600080878481518110610a5557610a54612d83565b5b6020026020010151815260200190815260200160002060008873ffffffffffffffffffffffffffffffffffffffff1673ffffffffffffffffffffffffffffffffffffffff1681526020019081526020016000206000828254610ab79190612fe0565b925050819055508080610ac990612de1565b915050610a1b565b508473ffffffffffffffffffffffffffffffffffffffff16600073ffffffffffffffffffffffffffffffffffffffff168273ffffffffffffffffffffffffffffffffffffffff167f4a39dc06d4c0dbc64b70af90fd698a233a518aa5d07e595d983b8c0526c8f7fb8787604051610b49929190613036565b60405180910390a4610b6081600087878787611a31565b5050505050565b600033905090565b8151835114610bb3576040517f08c379a0000000000000000000000000000000000000000000000000000000008152600401610baa90612fc0565b60405180910390fd5b600073ffffffffffffffffffffffffffffffffffffffff168473ffffffffffffffffffffffffffffffffffffffff161415610c23576040517f08c379a0000000000000000000000000000000000000000000000000000000008152600401610c1a906130df565b60405180910390fd5b6000610c2d610b67565b9050610c3d818787878787611a1b565b60005b8451811015610dee576000858281518110610c5e57610c5d612d83565b5b602002602001015190506000858381518110610c7d57610c7c612d83565b5b60200260200101519050600080600084815260200190815260200160002060008b73ffffffffffffffffffffffffffffffffffffffff1673ffffffffffffffffffffffffffffffffffffffff16815260200190815260200160002054905081811015610d1e576040517f08c379a0000000000000000000000000000000000000000000000000000000008152600401610d1590613171565b60405180910390fd5b81810360008085815260200190815260200160002060008c73ffffffffffffffffffffffffffffffffffffffff1673ffffffffffffffffffffffffffffffffffffffff168152602001908152602001600020819055508160008085815260200190815260200160002060008b73ffffffffffffffffffffffffffffffffffffffff1673ffffffffffffffffffffffffffffffffffffffff1681526020019081526020016000206000828254610dd39190612fe0565b9250508190555050505080610de790612de1565b9050610c40565b508473ffffffffffffffffffffffffffffffffffffffff168673ffffffffffffffffffffffffffffffffffffffff168273ffffffffffffffffffffffffffffffffffffffff167f4a39dc06d4c0dbc64b70af90fd698a233a518aa5d07e595d983b8c0526c8f7fb8787604051610e65929190613036565b60405180910390a4610e7b818787878787611a31565b505050505050565b610e8b610727565b610eca576040517f08c379a0000000000000000000000000000000000000000000000000000000008152600401610ec1906131dd565b60405180910390fd5b6000600360006101000a81548160ff0219169083151502179055507f5db9ee0a495bf2e6ff9c91a7834c1ba4fdd244a5e8aa4e537bd38aeae4b073aa610f0e610b67565b604051610f1b919061320c565b60405180910390a1565b600073ffffffffffffffffffffffffffffffffffffffff168373ffffffffffffffffffffffffffffffffffffffff161415610f95576040517f08c379a0000000000000000000000000000000000000000000000000000000008152600401610f8c90613299565b60405180910390fd5b8051825114610fd9576040517f08c379a0000000000000000000000000000000000000000000000000000000008152600401610fd090612fc0565b60405180910390fd5b6000610fe3610b67565b905061100381856000868660405180602001604052806000815250611a1b565b60005b835181101561115057600084828151811061102457611023612d83565b5b60200260200101519050600084838151811061104357611042612d83565b5b60200260200101519050600080600084815260200190815260200160002060008973ffffffffffffffffffffffffffffffffffffffff1673ffffffffffffffffffffffffffffffffffffffff168152602001908152602001600020549050818110156110e4576040517f08c379a00000000000000000000000000000000000000000000000000000000081526004016110db9061332b565b60405180910390fd5b81810360008085815260200190815260200160002060008a73ffffffffffffffffffffffffffffffffffffffff1673ffffffffffffffffffffffffffffffffffffffff16815260200190815260200160002081905550505050808061114890612de1565b915050611006565b50600073ffffffffffffffffffffffffffffffffffffffff168473ffffffffffffffffffffffffffffffffffffffff168273ffffffffffffffffffffffffffffffffffffffff167f4a39dc06d4c0dbc64b70af90fd698a233a518aa5d07e595d983b8c0526c8f7fb86866040516111c8929190613036565b60405180910390a450505050565b600073ffffffffffffffffffffffffffffffffffffffff168473ffffffffffffffffffffffffffffffffffffffff161415611246576040517f08c379a000000000000000000000000000000000000000000000000000000000815260040161123d90612f2e565b60405180910390fd5b6000611250610b67565b90506112718160008761126288611c09565b61126b88611c09565b87611a1b565b8260008086815260200190815260200160002060008773ffffffffffffffffffffffffffffffffffffffff1673ffffffffffffffffffffffffffffffffffffffff16815260200190815260200160002060008282546112d09190612fe0565b925050819055508473ffffffffffffffffffffffffffffffffffffffff16600073ffffffffffffffffffffffffffffffffffffffff168273ffffffffffffffffffffffffffffffffffffffff167fc3d58168c5ae7397731d063d5bbf3d657854427343f4c083240f7aacaa2d0f62878760405161134e92919061334b565b60405180910390a461136581600087878787611c83565b5050505050565b611374610727565b156113b4576040517f08c379a00000000000000000000000000000000000000000000000000000000081526004016113ab906133c0565b60405180910390fd5b6001600360006101000a81548160ff0219169083151502179055507f62e78cea01bee320cd4e420270b5ea74000d11b0c9f74754ebdbfc544b05a2586113f8610b67565b604051611405919061320c565b60405180910390a1565b8173ffffffffffffffffffffffffffffffffffffffff168373ffffffffffffffffffffffffffffffffffffffff16141561147e576040517f08c379a000000000000000000000000000000000000000000000000000000000815260040161147590613452565b60405180910390fd5b80600160008573ffffffffffffffffffffffffffffffffffffffff1673ffffffffffffffffffffffffffffffffffffffff16815260200190815260200160002060008473ffffffffffffffffffffffffffffffffffffffff1673ffffffffffffffffffffffffffffffffffffffff16815260200190815260200160002060006101000a81548160ff0219169083151502179055508173ffffffffffffffffffffffffffffffffffffffff168373ffffffffffffffffffffffffffffffffffffffff167f17307eab39ab6107e8899845ad3d59bd9653f200f220920489ca2b5937696c318360405161156f9190612139565b60405180910390a3505050565b600073ffffffffffffffffffffffffffffffffffffffff168473ffffffffffffffffffffffffffffffffffffffff1614156115ec576040517f08c379a00000000000000000000000000000000000000000000000000000000081526004016115e3906130df565b60405180910390fd5b60006115f6610b67565b905061161681878761160788611c09565b61161088611c09565b87611a1b565b600080600086815260200190815260200160002060008873ffffffffffffffffffffffffffffffffffffffff1673ffffffffffffffffffffffffffffffffffffffff168152602001908152602001600020549050838110156116ad576040517f08c379a00000000000000000000000000000000000000000000000000000000081526004016116a490613171565b60405180910390fd5b83810360008087815260200190815260200160002060008973ffffffffffffffffffffffffffffffffffffffff1673ffffffffffffffffffffffffffffffffffffffff168152602001908152602001600020819055508360008087815260200190815260200160002060008873ffffffffffffffffffffffffffffffffffffffff1673ffffffffffffffffffffffffffffffffffffffff16815260200190815260200160002060008282546117629190612fe0565b925050819055508573ffffffffffffffffffffffffffffffffffffffff168773ffffffffffffffffffffffffffffffffffffffff168373ffffffffffffffffffffffffffffffffffffffff167fc3d58168c5ae7397731d063d5bbf3d657854427343f4c083240f7aacaa2d0f6288886040516117df92919061334b565b60405180910390a46117f5828888888888611c83565b50505050505050565b600073ffffffffffffffffffffffffffffffffffffffff168373ffffffffffffffffffffffffffffffffffffffff16141561186e576040517f08c379a000000000000000000000000000000000000000000000000000000000815260040161186590613299565b60405180910390fd5b6000611878610b67565b90506118a88185600061188a87611c09565b61189387611c09565b60405180602001604052806000815250611a1b565b600080600085815260200190815260200160002060008673ffffffffffffffffffffffffffffffffffffffff1673ffffffffffffffffffffffffffffffffffffffff1681526020019081526020016000205490508281101561193f576040517f08c379a00000000000000000000000000000000000000000000000000000000081526004016119369061332b565b60405180910390fd5b82810360008086815260200190815260200160002060008773ffffffffffffffffffffffffffffffffffffffff1673ffffffffffffffffffffffffffffffffffffffff16815260200190815260200160002081905550600073ffffffffffffffffffffffffffffffffffffffff168573ffffffffffffffffffffffffffffffffffffffff168373ffffffffffffffffffffffffffffffffffffffff167fc3d58168c5ae7397731d063d5bbf3d657854427343f4c083240f7aacaa2d0f628787604051611a0c92919061334b565b60405180910390a45050505050565b611a29868686868686611e5b565b505050505050565b611a508473ffffffffffffffffffffffffffffffffffffffff16611eb9565b15611c01578373ffffffffffffffffffffffffffffffffffffffff1663bc197c8187878686866040518663ffffffff1660e01b8152600401611a969594939291906134c7565b6020604051808303816000875af1925050508015611ad257506040513d601f19601f82011682018060405250810190611acf9190613544565b60015b611b7857611ade61357e565b806308c379a01415611b3b5750611af36135a0565b80611afe5750611b3d565b806040517f08c379a0000000000000000000000000000000000000000000000000000000008152600401611b329190612398565b60405180910390fd5b505b6040517f08c379a0000000000000000000000000000000000000000000000000000000008152600401611b6f906136a8565b60405180910390fd5b63bc197c8160e01b7bffffffffffffffffffffffffffffffffffffffffffffffffffffffff1916817bffffffffffffffffffffffffffffffffffffffffffffffffffffffff191614611bff576040517f08c379a0000000000000000000000000000000000000000000000000000000008152600401611bf69061373a565b60405180910390fd5b505b505050505050565b60606000600167ffffffffffffffff811115611c2857611c2761216f565b5b604051908082528060200260200182016040528015611c565781602001602082028036833780820191505090505b5090508281600081518110611c6e57611c6d612d83565b5b60200260200101818152505080915050919050565b611ca28473ffffffffffffffffffffffffffffffffffffffff16611eb9565b15611e53578373ffffffffffffffffffffffffffffffffffffffff1663f23a6e6187878686866040518663ffffffff1660e01b8152600401611ce895949392919061375a565b6020604051808303816000875af1925050508015611d2457506040513d601f19601f82011682018060405250810190611d219190613544565b60015b611dca57611d3061357e565b806308c379a01415611d8d5750611d456135a0565b80611d505750611d8f565b806040517f08c379a0000000000000000000000000000000000000000000000000000000008152600401611d849190612398565b60405180910390fd5b505b6040517f08c379a0000000000000000000000000000000000000000000000000000000008152600401611dc1906136a8565b60405180910390fd5b63f23a6e6160e01b7bffffffffffffffffffffffffffffffffffffffffffffffffffffffff1916817bffffffffffffffffffffffffffffffffffffffffffffffffffffffff191614611e51576040517f08c379a0000000000000000000000000000000000000000000000000000000008152600401611e489061373a565b60405180910390fd5b505b505050505050565b611e69868686868686611edc565b611e71610727565b15611eb1576040517f08c379a0000000000000000000000000000000000000000000000000000000008152600401611ea890613826565b60405180910390fd5b505050505050565b6000808273ffffffffffffffffffffffffffffffffffffffff163b119050919050565b505050505050565b828054611ef090612c2d565b90600052602060002090601f016020900481019282611f125760008555611f59565b82601f10611f2b57805160ff1916838001178555611f59565b82800160010185558215611f59579182015b82811115611f58578251825591602001919060010190611f3d565b5b509050611f669190611f6a565b5090565b5b80821115611f83576000816000905550600101611f6b565b5090565b6000604051905090565b600080fd5b600080fd5b600073ffffffffffffffffffffffffffffffffffffffff82169050919050565b6000611fc682611f9b565b9050919050565b611fd681611fbb565b8114611fe157600080fd5b50565b600081359050611ff381611fcd565b92915050565b6000819050919050565b61200c81611ff9565b811461201757600080fd5b50565b60008135905061202981612003565b92915050565b6000806040838503121561204657612045611f91565b5b600061205485828601611fe4565b92505060206120658582860161201a565b9150509250929050565b61207881611ff9565b82525050565b6000602082019050612093600083018461206f565b92915050565b60007fffffffff0000000000000000000000000000000000000000000000000000000082169050919050565b6120ce81612099565b81146120d957600080fd5b50565b6000813590506120eb816120c5565b92915050565b60006020828403121561210757612106611f91565b5b6000612115848285016120dc565b91505092915050565b60008115159050919050565b6121338161211e565b82525050565b600060208201905061214e600083018461212a565b92915050565b600080fd5b600080fd5b6000601f19601f8301169050919050565b7f4e487b7100000000000000000000000000000000000000000000000000000000600052604160045260246000fd5b6121a78261215e565b810181811067ffffffffffffffff821117156121c6576121c561216f565b5b80604052505050565b60006121d9611f87565b90506121e5828261219e565b919050565b600067ffffffffffffffff8211156122055761220461216f565b5b61220e8261215e565b9050602081019050919050565b82818337600083830152505050565b600061223d612238846121ea565b6121cf565b90508281526020810184848401111561225957612258612159565b5b61226484828561221b565b509392505050565b600082601f83011261228157612280612154565b5b813561229184826020860161222a565b91505092915050565b6000602082840312156122b0576122af611f91565b5b600082013567ffffffffffffffff8111156122ce576122cd611f96565b5b6122da8482850161226c565b91505092915050565b6000602082840312156122f9576122f8611f91565b5b60006123078482850161201a565b91505092915050565b600081519050919050565b600082825260208201905092915050565b60005b8381101561234a57808201518184015260208101905061232f565b83811115612359576000848401525b50505050565b600061236a82612310565b612374818561231b565b935061238481856020860161232c565b61238d8161215e565b840191505092915050565b600060208201905081810360008301526123b2818461235f565b905092915050565b600067ffffffffffffffff8211156123d5576123d461216f565b5b602082029050602081019050919050565b600080fd5b60006123fe6123f9846123ba565b6121cf565b90508083825260208201905060208402830185811115612421576124206123e6565b5b835b8181101561244a5780612436888261201a565b845260208401935050602081019050612423565b5050509392505050565b600082601f83011261246957612468612154565b5b81356124798482602086016123eb565b91505092915050565b600067ffffffffffffffff82111561249d5761249c61216f565b5b6124a68261215e565b9050602081019050919050565b60006124c66124c184612482565b6121cf565b9050828152602081018484840111156124e2576124e1612159565b5b6124ed84828561221b565b509392505050565b600082601f83011261250a57612509612154565b5b813561251a8482602086016124b3565b91505092915050565b6000806000806080858703121561253d5761253c611f91565b5b600061254b87828801611fe4565b945050602085013567ffffffffffffffff81111561256c5761256b611f96565b5b61257887828801612454565b935050604085013567ffffffffffffffff81111561259957612598611f96565b5b6125a587828801612454565b925050606085013567ffffffffffffffff8111156125c6576125c5611f96565b5b6125d2878288016124f5565b91505092959194509250565b600080600080600060a086880312156125fa576125f9611f91565b5b600061260888828901611fe4565b955050602061261988828901611fe4565b945050604086013567ffffffffffffffff81111561263a57612639611f96565b5b61264688828901612454565b935050606086013567ffffffffffffffff81111561266757612666611f96565b5b61267388828901612454565b925050608086013567ffffffffffffffff81111561269457612693611f96565b5b6126a0888289016124f5565b9150509295509295909350565b600067ffffffffffffffff8211156126c8576126c761216f565b5b602082029050602081019050919050565b60006126ec6126e7846126ad565b6121cf565b9050808382526020820190506020840283018581111561270f5761270e6123e6565b5b835b8181101561273857806127248882611fe4565b845260208401935050602081019050612711565b5050509392505050565b600082601f83011261275757612756612154565b5b81356127678482602086016126d9565b91505092915050565b6000806040838503121561278757612786611f91565b5b600083013567ffffffffffffffff8111156127a5576127a4611f96565b5b6127b185828601612742565b925050602083013567ffffffffffffffff8111156127d2576127d1611f96565b5b6127de85828601612454565b9150509250929050565b600081519050919050565b600082825260208201905092915050565b6000819050602082019050919050565b61281d81611ff9565b82525050565b600061282f8383612814565b60208301905092915050565b6000602082019050919050565b6000612853826127e8565b61285d81856127f3565b935061286883612804565b8060005b838110156128995781516128808882612823565b975061288b8361283b565b92505060018101905061286c565b5085935050505092915050565b600060208201905081810360008301526128c08184612848565b905092915050565b6000806000606084860312156128e1576128e0611f91565b5b60006128ef86828701611fe4565b935050602084013567ffffffffffffffff8111156129105761290f611f96565b5b61291c86828701612454565b925050604084013567ffffffffffffffff81111561293d5761293c611f96565b5b61294986828701612454565b9150509250925092565b6000806000806080858703121561296d5761296c611f91565b5b600061297b87828801611fe4565b945050602061298c8782880161201a565b935050604061299d8782880161201a565b925050606085013567ffffffffffffffff8111156129be576129bd611f96565b5b6129ca878288016124f5565b91505092959194509250565b6129df8161211e565b81146129ea57600080fd5b50565b6000813590506129fc816129d6565b92915050565b60008060408385031215612a1957612a18611f91565b5b6000612a2785828601611fe4565b9250506020612a38858286016129ed565b9150509250929050565b60008060408385031215612a5957612a58611f91565b5b6000612a6785828601611fe4565b9250506020612a7885828601611fe4565b9150509250929050565b600080600080600060a08688031215612a9e57612a9d611f91565b5b6000612aac88828901611fe4565b9550506020612abd88828901611fe4565b9450506040612ace8882890161201a565b9350506060612adf8882890161201a565b925050608086013567ffffffffffffffff811115612b0057612aff611f96565b5b612b0c888289016124f5565b9150509295509295909350565b600080600060608486031215612b3257612b31611f91565b5b6000612b4086828701611fe4565b9350506020612b518682870161201a565b9250506040612b628682870161201a565b9150509250925092565b7f455243313135353a2062616c616e636520717565727920666f7220746865207a60008201527f65726f2061646472657373000000000000000000000000000000000000000000602082015250565b6000612bc8602b8361231b565b9150612bd382612b6c565b604082019050919050565b60006020820190508181036000830152612bf781612bbb565b9050919050565b7f4e487b7100000000000000000000000000000000000000000000000000000000600052602260045260246000fd5b60006002820490506001821680612c4557607f821691505b60208210811415612c5957612c58612bfe565b5b50919050565b7f455243313135353a207472616e736665722063616c6c6572206973206e6f742060008201527f6f776e6572206e6f7220617070726f7665640000000000000000000000000000602082015250565b6000612cbb60328361231b565b9150612cc682612c5f565b604082019050919050565b60006020820190508181036000830152612cea81612cae565b9050919050565b7f455243313135353a206163636f756e747320616e6420696473206c656e67746860008201527f206d69736d617463680000000000000000000000000000000000000000000000602082015250565b6000612d4d60298361231b565b9150612d5882612cf1565b604082019050919050565b60006020820190508181036000830152612d7c81612d40565b9050919050565b7f4e487b7100000000000000000000000000000000000000000000000000000000600052603260045260246000fd5b7f4e487b7100000000000000000000000000000000000000000000000000000000600052601160045260246000fd5b6000612dec82611ff9565b91507fffffffffffffffffffffffffffffffffffffffffffffffffffffffffffffffff821415612e1f57612e1e612db2565b5b600182019050919050565b7f455243313135353a2063616c6c6572206973206e6f74206f776e6572206e6f7260008201527f20617070726f7665640000000000000000000000000000000000000000000000602082015250565b6000612e8660298361231b565b9150612e9182612e2a565b604082019050919050565b60006020820190508181036000830152612eb581612e79565b9050919050565b7f455243313135353a206d696e7420746f20746865207a65726f2061646472657360008201527f7300000000000000000000000000000000000000000000000000000000000000602082015250565b6000612f1860218361231b565b9150612f2382612ebc565b604082019050919050565b60006020820190508181036000830152612f4781612f0b565b9050919050565b7f455243313135353a2069647320616e6420616d6f756e7473206c656e6774682060008201527f6d69736d61746368000000000000000000000000000000000000000000000000602082015250565b6000612faa60288361231b565b9150612fb582612f4e565b604082019050919050565b60006020820190508181036000830152612fd981612f9d565b9050919050565b6000612feb82611ff9565b9150612ff683611ff9565b9250827fffffffffffffffffffffffffffffffffffffffffffffffffffffffffffffffff0382111561302b5761302a612db2565b5b828201905092915050565b600060408201905081810360008301526130508185612848565b905081810360208301526130648184612848565b90509392505050565b7f455243313135353a207472616e7366657220746f20746865207a65726f20616460008201527f6472657373000000000000000000000000000000000000000000000000000000602082015250565b60006130c960258361231b565b91506130d48261306d565b604082019050919050565b600060208201905081810360008301526130f8816130bc565b9050919050565b7f455243313135353a20696e73756666696369656e742062616c616e636520666f60008201527f72207472616e7366657200000000000000000000000000000000000000000000602082015250565b600061315b602a8361231b565b9150613166826130ff565b604082019050919050565b6000602082019050818103600083015261318a8161314e565b9050919050565b7f5061757361626c653a206e6f7420706175736564000000000000000000000000600082015250565b60006131c760148361231b565b91506131d282613191565b602082019050919050565b600060208201905081810360008301526131f6816131ba565b9050919050565b61320681611fbb565b82525050565b600060208201905061322160008301846131fd565b92915050565b7f455243313135353a206275726e2066726f6d20746865207a65726f206164647260008201527f6573730000000000000000000000000000000000000000000000000000000000602082015250565b600061328360238361231b565b915061328e82613227565b604082019050919050565b600060208201905081810360008301526132b281613276565b9050919050565b7f455243313135353a206275726e20616d6f756e7420657863656564732062616c60008201527f616e636500000000000000000000000000000000000000000000000000000000602082015250565b600061331560248361231b565b9150613320826132b9565b604082019050919050565b6000602082019050818103600083015261334481613308565b9050919050565b6000604082019050613360600083018561206f565b61336d602083018461206f565b9392505050565b7f5061757361626c653a2070617573656400000000000000000000000000000000600082015250565b60006133aa60108361231b565b91506133b582613374565b602082019050919050565b600060208201905081810360008301526133d98161339d565b9050919050565b7f455243313135353a2073657474696e6720617070726f76616c2073746174757360008201527f20666f722073656c660000000000000000000000000000000000000000000000602082015250565b600061343c60298361231b565b9150613447826133e0565b604082019050919050565b6000602082019050818103600083015261346b8161342f565b9050919050565b600081519050919050565b600082825260208201905092915050565b600061349982613472565b6134a3818561347d565b93506134b381856020860161232c565b6134bc8161215e565b840191505092915050565b600060a0820190506134dc60008301886131fd565b6134e960208301876131fd565b81810360408301526134fb8186612848565b9050818103606083015261350f8185612848565b90508181036080830152613523818461348e565b90509695505050505050565b60008151905061353e816120c5565b92915050565b60006020828403121561355a57613559611f91565b5b60006135688482850161352f565b91505092915050565b60008160e01c9050919050565b600060033d111561359d5760046000803e61359a600051613571565b90505b90565b600060443d10156135b057613633565b6135b8611f87565b60043d036004823e80513d602482011167ffffffffffffffff821117156135e0575050613633565b808201805167ffffffffffffffff8111156135fe5750505050613633565b80602083010160043d03850181111561361b575050505050613633565b61362a8260200185018661219e565b82955050505050505b90565b7f455243313135353a207472616e7366657220746f206e6f6e204552433131353560008201527f526563656976657220696d706c656d656e746572000000000000000000000000602082015250565b600061369260348361231b565b915061369d82613636565b604082019050919050565b600060208201905081810360008301526136c181613685565b9050919050565b7f455243313135353a204552433131353552656365697665722072656a6563746560008201527f6420746f6b656e73000000000000000000000000000000000000000000000000602082015250565b600061372460288361231b565b915061372f826136c8565b604082019050919050565b6000602082019050818103600083015261375381613717565b9050919050565b600060a08201905061376f60008301886131fd565b61377c60208301876131fd565b613789604083018661206f565b613796606083018561206f565b81810360808301526137a8818461348e565b90509695505050505050565b7f455243313135355061757361626c653a20746f6b656e207472616e736665722060008201527f7768696c65207061757365640000000000000000000000000000000000000000602082015250565b6000613810602c8361231b565b915061381b826137b4565b604082019050919050565b6000602082019050818103600083015261383f81613803565b905091905056fea2646970667358221220a852cf4acc6728aab4b4b3448d299aecd8105a69f463e4a6dffb6fd2d9d1aa6664736f6c634300080b0033",
  "immutableReferences": {},
  "source": "// SPDX-License-Identifier: MIT\n\npragma solidity ^0.8.0;\n\nimport \"./ERC1155Mock.sol\";\nimport \"../token/ERC1155/extensions/ERC1155Pausable.sol\";\n\ncontract ERC1155PausableMock is ERC1155Mock, ERC1155Pausable {\n    constructor(string memory uri) ERC1155Mock(uri) {}\n\n    function pause() external {\n        _pause();\n    }\n\n    function unpause() external {\n        _unpause();\n    }\n\n    function _beforeTokenTransfer(\n        address operator,\n        address from,\n        address to,\n        uint256[] memory ids,\n        uint256[] memory amounts,\n        bytes memory data\n    ) internal virtual override(ERC1155, ERC1155Pausable) {\n        super._beforeTokenTransfer(operator, from, to, ids, amounts, data);\n    }\n}\n",
  "sourcePath": "D:\\03.block-chain\\01.miquelTC__nft-marketplace\\test-proj\\nft-marketplace-master\\src\\contracts\\ERC721\\mocks\\ERC1155PausableMock.sol",
  "compiler": {
    "name": "solc",
    "version": "0.8.11+commit.d7f03943.Emscripten.clang"
  },
  "schemaVersion": "3.4.4",
  "updatedAt": "2022-02-16T02:59:58.287Z",
  "devdoc": {
    "kind": "dev",
    "methods": {
      "balanceOf(address,uint256)": {
        "details": "See {IERC1155-balanceOf}. Requirements: - `account` cannot be the zero address."
      },
      "balanceOfBatch(address[],uint256[])": {
        "details": "See {IERC1155-balanceOfBatch}. Requirements: - `accounts` and `ids` must have the same length."
      },
      "isApprovedForAll(address,address)": {
        "details": "See {IERC1155-isApprovedForAll}."
      },
      "paused()": {
        "details": "Returns true if the contract is paused, and false otherwise."
      },
      "safeBatchTransferFrom(address,address,uint256[],uint256[],bytes)": {
        "details": "See {IERC1155-safeBatchTransferFrom}."
      },
      "safeTransferFrom(address,address,uint256,uint256,bytes)": {
        "details": "See {IERC1155-safeTransferFrom}."
      },
      "setApprovalForAll(address,bool)": {
        "details": "See {IERC1155-setApprovalForAll}."
      },
      "supportsInterface(bytes4)": {
        "details": "See {IERC165-supportsInterface}."
      },
      "uri(uint256)": {
        "details": "See {IERC1155MetadataURI-uri}. This implementation returns the same URI for *all* token types. It relies on the token type ID substitution mechanism https://eips.ethereum.org/EIPS/eip-1155#metadata[defined in the EIP]. Clients calling this function must replace the `\\{id\\}` substring with the actual token type ID."
      }
    },
    "version": 1
  },
  "userdoc": {
    "kind": "user",
    "methods": {},
    "version": 1
  }
}