{
  "contractName": "ERC165CheckerMock",
  "abi": [
    {
      "inputs": [
        {
          "internalType": "address",
          "name": "account",
          "type": "address"
        }
      ],
      "name": "supportsERC165",
      "outputs": [
        {
          "internalType": "bool",
          "name": "",
          "type": "bool"
        }
      ],
      "stateMutability": "view",
      "type": "function"
    },
    {
      "inputs": [
        {
          "internalType": "address",
          "name": "account",
          "type": "address"
        },
        {
          "internalType": "bytes4",
          "name": "interfaceId",
          "type": "bytes4"
        }
      ],
      "name": "supportsInterface",
      "outputs": [
        {
          "internalType": "bool",
          "name": "",
          "type": "bool"
        }
      ],
      "stateMutability": "view",
      "type": "function"
    },
    {
      "inputs": [
        {
          "internalType": "address",
          "name": "account",
          "type": "address"
        },
        {
          "internalType": "bytes4[]",
          "name": "interfaceIds",
          "type": "bytes4[]"
        }
      ],
      "name": "supportsAllInterfaces",
      "outputs": [
        {
          "internalType": "bool",
          "name": "",
          "type": "bool"
        }
      ],
      "stateMutability": "view",
      "type": "function"
    },
    {
      "inputs": [
        {
          "internalType": "address",
          "name": "account",
          "type": "address"
        },
        {
          "internalType": "bytes4[]",
          "name": "interfaceIds",
          "type": "bytes4[]"
        }
      ],
      "name": "getSupportedInterfaces",
      "outputs": [
        {
          "internalType": "bool[]",
          "name": "",
          "type": "bool[]"
        }
      ],
      "stateMutability": "view",
      "type": "function"
    }
  ],
  "bytecode": "0x608060405234801561001057600080fd5b50610ab3806100206000396000f3fe608060405234801561001057600080fd5b506004361061004c5760003560e01c80634b9dd9041461005157806377e6b4cc14610081578063c398a925146100b1578063d9057007146100e1575b600080fd5b61006b600480360381019061006691906106d9565b610111565b6040516100789190610750565b60405180910390f35b61009b600480360381019061009691906106d9565b610144565b6040516100a89190610829565b60405180910390f35b6100cb60048036038101906100c6919061084b565b610177565b6040516100d89190610750565b60405180910390f35b6100fb60048036038101906100f69190610878565b61019f565b6040516101089190610750565b60405180910390f35b600061013c828473ffffffffffffffffffffffffffffffffffffffff166101d290919063ffffffff16565b905092915050565b606061016f828473ffffffffffffffffffffffffffffffffffffffff1661024790919063ffffffff16565b905092915050565b60006101988273ffffffffffffffffffffffffffffffffffffffff16610319565b9050919050565b60006101ca828473ffffffffffffffffffffffffffffffffffffffff1661036690919063ffffffff16565b905092915050565b60006101dd83610319565b6101ea5760009050610241565b60005b825181101561023b5761021a8484838151811061020d5761020c6108b8565b5b602002602001015161038b565b610228576000915050610241565b808061023390610920565b9150506101ed565b50600190505b92915050565b60606000825167ffffffffffffffff8111156102665761026561053e565b5b6040519080825280602002602001820160405280156102945781602001602082028036833780820191505090505b5090506102a084610319565b1561030f5760005b835181101561030d576102d5858583815181106102c8576102c76108b8565b5b602002602001015161038b565b8282815181106102e8576102e76108b8565b5b602002602001019015159081151581525050808061030590610920565b9150506102a8565b505b8091505092915050565b6000610345827f01ffc9a70000000000000000000000000000000000000000000000000000000061038b565b801561035f575061035d8263ffffffff60e01b61038b565b155b9050919050565b600061037183610319565b80156103835750610382838361038b565b5b905092915050565b6000806301ffc9a760e01b836040516024016103a79190610978565b604051602081830303815290604052907bffffffffffffffffffffffffffffffffffffffffffffffffffffffff19166020820180517bffffffffffffffffffffffffffffffffffffffffffffffffffffffff838183161783525050505090506000808573ffffffffffffffffffffffffffffffffffffffff16617530846040516104319190610a0d565b6000604051808303818686fa925050503d806000811461046d576040519150601f19603f3d011682016040523d82523d6000602084013e610472565b606091505b509150915060208151101561048d57600093505050506104b0565b8180156104aa5750808060200190518101906104a99190610a50565b5b93505050505b92915050565b6000604051905090565b600080fd5b600080fd5b600073ffffffffffffffffffffffffffffffffffffffff82169050919050565b60006104f5826104ca565b9050919050565b610505816104ea565b811461051057600080fd5b50565b600081359050610522816104fc565b92915050565b600080fd5b6000601f19601f8301169050919050565b7f4e487b7100000000000000000000000000000000000000000000000000000000600052604160045260246000fd5b6105768261052d565b810181811067ffffffffffffffff821117156105955761059461053e565b5b80604052505050565b60006105a86104b6565b90506105b4828261056d565b919050565b600067ffffffffffffffff8211156105d4576105d361053e565b5b602082029050602081019050919050565b600080fd5b60007fffffffff0000000000000000000000000000000000000000000000000000000082169050919050565b61061f816105ea565b811461062a57600080fd5b50565b60008135905061063c81610616565b92915050565b6000610655610650846105b9565b61059e565b90508083825260208201905060208402830185811115610678576106776105e5565b5b835b818110156106a1578061068d888261062d565b84526020840193505060208101905061067a565b5050509392505050565b600082601f8301126106c0576106bf610528565b5b81356106d0848260208601610642565b91505092915050565b600080604083850312156106f0576106ef6104c0565b5b60006106fe85828601610513565b925050602083013567ffffffffffffffff81111561071f5761071e6104c5565b5b61072b858286016106ab565b9150509250929050565b60008115159050919050565b61074a81610735565b82525050565b60006020820190506107656000830184610741565b92915050565b600081519050919050565b600082825260208201905092915050565b6000819050602082019050919050565b6107a081610735565b82525050565b60006107b28383610797565b60208301905092915050565b6000602082019050919050565b60006107d68261076b565b6107e08185610776565b93506107eb83610787565b8060005b8381101561081c57815161080388826107a6565b975061080e836107be565b9250506001810190506107ef565b5085935050505092915050565b6000602082019050818103600083015261084381846107cb565b905092915050565b600060208284031215610861576108606104c0565b5b600061086f84828501610513565b91505092915050565b6000806040838503121561088f5761088e6104c0565b5b600061089d85828601610513565b92505060206108ae8582860161062d565b9150509250929050565b7f4e487b7100000000000000000000000000000000000000000000000000000000600052603260045260246000fd5b7f4e487b7100000000000000000000000000000000000000000000000000000000600052601160045260246000fd5b6000819050919050565b600061092b82610916565b91507fffffffffffffffffffffffffffffffffffffffffffffffffffffffffffffffff82141561095e5761095d6108e7565b5b600182019050919050565b610972816105ea565b82525050565b600060208201905061098d6000830184610969565b92915050565b600081519050919050565b600081905092915050565b60005b838110156109c75780820151818401526020810190506109ac565b838111156109d6576000848401525b50505050565b60006109e782610993565b6109f1818561099e565b9350610a018185602086016109a9565b80840191505092915050565b6000610a1982846109dc565b915081905092915050565b610a2d81610735565b8114610a3857600080fd5b50565b600081519050610a4a81610a24565b92915050565b600060208284031215610a6657610a656104c0565b5b6000610a7484828501610a3b565b9150509291505056fea26469706673582212207144f901efc81785c01d5efe6d014f103f4fdd429e17b9fd449c0fef7f63a5b764736f6c634300080b0033",
  "immutableReferences": {},
  "source": "// SPDX-License-Identifier: MIT\n\npragma solidity ^0.8.0;\n\nimport \"../utils/introspection/ERC165Checker.sol\";\n\ncontract ERC165CheckerMock {\n    using ERC165Checker for address;\n\n    function supportsERC165(address account) public view returns (bool) {\n        return account.supportsERC165();\n    }\n\n    function supportsInterface(address account, bytes4 interfaceId) public view returns (bool) {\n        return account.supportsInterface(interfaceId);\n    }\n\n    function supportsAllInterfaces(address account, bytes4[] memory interfaceIds) public view returns (bool) {\n        return account.supportsAllInterfaces(interfaceIds);\n    }\n\n    function getSupportedInterfaces(address account, bytes4[] memory interfaceIds) public view returns (bool[] memory) {\n        return account.getSupportedInterfaces(interfaceIds);\n    }\n}\n",
  "sourcePath": "D:\\03.block-chain\\01.miquelTC__nft-marketplace\\test-proj\\nft-marketplace-master\\src\\contracts\\ERC721\\mocks\\ERC165CheckerMock.sol",
  "compiler": {
    "name": "solc",
    "version": "0.8.11+commit.d7f03943.Emscripten.clang"
  },
  "schemaVersion": "3.4.4",
  "updatedAt": "2022-02-16T02:59:58.334Z",
  "devdoc": {
    "kind": "dev",
    "methods": {},
    "version": 1
  },
  "userdoc": {
    "kind": "user",
    "methods": {},
    "version": 1
  }
}