{
  "contractName": "ERC1155SupplyMock",
  "abi": [
    {
      "inputs": [
        {
          "internalType": "string",
          "name": "uri",
          "type": "string"
        }
      ],
      "stateMutability": "nonpayable",
      "type": "constructor"
    },
    {
      "anonymous": false,
      "inputs": [
        {
          "indexed": true,
          "internalType": "address",
          "name": "account",
          "type": "address"
        },
        {
          "indexed": true,
          "internalType": "address",
          "name": "operator",
          "type": "address"
        },
        {
          "indexed": false,
          "internalType": "bool",
          "name": "approved",
          "type": "bool"
        }
      ],
      "name": "ApprovalForAll",
      "type": "event"
    },
    {
      "anonymous": false,
      "inputs": [
        {
          "indexed": true,
          "internalType": "address",
          "name": "operator",
          "type": "address"
        },
        {
          "indexed": true,
          "internalType": "address",
          "name": "from",
          "type": "address"
        },
        {
          "indexed": true,
          "internalType": "address",
          "name": "to",
          "type": "address"
        },
        {
          "indexed": false,
          "internalType": "uint256[]",
          "name": "ids",
          "type": "uint256[]"
        },
        {
          "indexed": false,
          "internalType": "uint256[]",
          "name": "values",
          "type": "uint256[]"
        }
      ],
      "name": "TransferBatch",
      "type": "event"
    },
    {
      "anonymous": false,
      "inputs": [
        {
          "indexed": true,
          "internalType": "address",
          "name": "operator",
          "type": "address"
        },
        {
          "indexed": true,
          "internalType": "address",
          "name": "from",
          "type": "address"
        },
        {
          "indexed": true,
          "internalType": "address",
          "name": "to",
          "type": "address"
        },
        {
          "indexed": false,
          "internalType": "uint256",
          "name": "id",
          "type": "uint256"
        },
        {
          "indexed": false,
          "internalType": "uint256",
          "name": "value",
          "type": "uint256"
        }
      ],
      "name": "TransferSingle",
      "type": "event"
    },
    {
      "anonymous": false,
      "inputs": [
        {
          "indexed": false,
          "internalType": "string",
          "name": "value",
          "type": "string"
        },
        {
          "indexed": true,
          "internalType": "uint256",
          "name": "id",
          "type": "uint256"
        }
      ],
      "name": "URI",
      "type": "event"
    },
    {
      "inputs": [
        {
          "internalType": "address",
          "name": "account",
          "type": "address"
        },
        {
          "internalType": "uint256",
          "name": "id",
          "type": "uint256"
        }
      ],
      "name": "balanceOf",
      "outputs": [
        {
          "internalType": "uint256",
          "name": "",
          "type": "uint256"
        }
      ],
      "stateMutability": "view",
      "type": "function"
    },
    {
      "inputs": [
        {
          "internalType": "address[]",
          "name": "accounts",
          "type": "address[]"
        },
        {
          "internalType": "uint256[]",
          "name": "ids",
          "type": "uint256[]"
        }
      ],
      "name": "balanceOfBatch",
      "outputs": [
        {
          "internalType": "uint256[]",
          "name": "",
          "type": "uint256[]"
        }
      ],
      "stateMutability": "view",
      "type": "function"
    },
    {
      "inputs": [
        {
          "internalType": "address",
          "name": "owner",
          "type": "address"
        },
        {
          "internalType": "uint256",
          "name": "id",
          "type": "uint256"
        },
        {
          "internalType": "uint256",
          "name": "value",
          "type": "uint256"
        }
      ],
      "name": "burn",
      "outputs": [],
      "stateMutability": "nonpayable",
      "type": "function"
    },
    {
      "inputs": [
        {
          "internalType": "address",
          "name": "owner",
          "type": "address"
        },
        {
          "internalType": "uint256[]",
          "name": "ids",
          "type": "uint256[]"
        },
        {
          "internalType": "uint256[]",
          "name": "values",
          "type": "uint256[]"
        }
      ],
      "name": "burnBatch",
      "outputs": [],
      "stateMutability": "nonpayable",
      "type": "function"
    },
    {
      "inputs": [
        {
          "internalType": "uint256",
          "name": "id",
          "type": "uint256"
        }
      ],
      "name": "exists",
      "outputs": [
        {
          "internalType": "bool",
          "name": "",
          "type": "bool"
        }
      ],
      "stateMutability": "view",
      "type": "function"
    },
    {
      "inputs": [
        {
          "internalType": "address",
          "name": "account",
          "type": "address"
        },
        {
          "internalType": "address",
          "name": "operator",
          "type": "address"
        }
      ],
      "name": "isApprovedForAll",
      "outputs": [
        {
          "internalType": "bool",
          "name": "",
          "type": "bool"
        }
      ],
      "stateMutability": "view",
      "type": "function"
    },
    {
      "inputs": [
        {
          "internalType": "address",
          "name": "to",
          "type": "address"
        },
        {
          "internalType": "uint256",
          "name": "id",
          "type": "uint256"
        },
        {
          "internalType": "uint256",
          "name": "value",
          "type": "uint256"
        },
        {
          "internalType": "bytes",
          "name": "data",
          "type": "bytes"
        }
      ],
      "name": "mint",
      "outputs": [],
      "stateMutability": "nonpayable",
      "type": "function"
    },
    {
      "inputs": [
        {
          "internalType": "address",
          "name": "to",
          "type": "address"
        },
        {
          "internalType": "uint256[]",
          "name": "ids",
          "type": "uint256[]"
        },
        {
          "internalType": "uint256[]",
          "name": "values",
          "type": "uint256[]"
        },
        {
          "internalType": "bytes",
          "name": "data",
          "type": "bytes"
        }
      ],
      "name": "mintBatch",
      "outputs": [],
      "stateMutability": "nonpayable",
      "type": "function"
    },
    {
      "inputs": [
        {
          "internalType": "address",
          "name": "from",
          "type": "address"
        },
        {
          "internalType": "address",
          "name": "to",
          "type": "address"
        },
        {
          "internalType": "uint256[]",
          "name": "ids",
          "type": "uint256[]"
        },
        {
          "internalType": "uint256[]",
          "name": "amounts",
          "type": "uint256[]"
        },
        {
          "internalType": "bytes",
          "name": "data",
          "type": "bytes"
        }
      ],
      "name": "safeBatchTransferFrom",
      "outputs": [],
      "stateMutability": "nonpayable",
      "type": "function"
    },
    {
      "inputs": [
        {
          "internalType": "address",
          "name": "from",
          "type": "address"
        },
        {
          "internalType": "address",
          "name": "to",
          "type": "address"
        },
        {
          "internalType": "uint256",
          "name": "id",
          "type": "uint256"
        },
        {
          "internalType": "uint256",
          "name": "amount",
          "type": "uint256"
        },
        {
          "internalType": "bytes",
          "name": "data",
          "type": "bytes"
        }
      ],
      "name": "safeTransferFrom",
      "outputs": [],
      "stateMutability": "nonpayable",
      "type": "function"
    },
    {
      "inputs": [
        {
          "internalType": "address",
          "name": "operator",
          "type": "address"
        },
        {
          "internalType": "bool",
          "name": "approved",
          "type": "bool"
        }
      ],
      "name": "setApprovalForAll",
      "outputs": [],
      "stateMutability": "nonpayable",
      "type": "function"
    },
    {
      "inputs": [
        {
          "internalType": "string",
          "name": "newuri",
          "type": "string"
        }
      ],
      "name": "setURI",
      "outputs": [],
      "stateMutability": "nonpayable",
      "type": "function"
    },
    {
      "inputs": [
        {
          "internalType": "bytes4",
          "name": "interfaceId",
          "type": "bytes4"
        }
      ],
      "name": "supportsInterface",
      "outputs": [
        {
          "internalType": "bool",
          "name": "",
          "type": "bool"
        }
      ],
      "stateMutability": "view",
      "type": "function"
    },
    {
      "inputs": [
        {
          "internalType": "uint256",
          "name": "id",
          "type": "uint256"
        }
      ],
      "name": "totalSupply",
      "outputs": [
        {
          "internalType": "uint256",
          "name": "",
          "type": "uint256"
        }
      ],
      "stateMutability": "view",
      "type": "function"
    },
    {
      "inputs": [
        {
          "internalType": "uint256",
          "name": "",
          "type": "uint256"
        }
      ],
      "name": "uri",
      "outputs": [
        {
          "internalType": "string",
          "name": "",
          "type": "string"
        }
      ],
      "stateMutability": "view",
      "type": "function"
    }
  ],
  "bytecode": "0x60806040523480156200001157600080fd5b5060405162003b6338038062003b638339818101604052810190620000379190620002bc565b80806200004a816200005360201b60201c565b50505062000372565b80600290805190602001906200006b9291906200006f565b5050565b8280546200007d906200033c565b90600052602060002090601f016020900481019282620000a15760008555620000ed565b82601f10620000bc57805160ff1916838001178555620000ed565b82800160010185558215620000ed579182015b82811115620000ec578251825591602001919060010190620000cf565b5b509050620000fc919062000100565b5090565b5b808211156200011b57600081600090555060010162000101565b5090565b6000604051905090565b600080fd5b600080fd5b600080fd5b600080fd5b6000601f19601f8301169050919050565b7f4e487b7100000000000000000000000000000000000000000000000000000000600052604160045260246000fd5b62000188826200013d565b810181811067ffffffffffffffff82111715620001aa57620001a96200014e565b5b80604052505050565b6000620001bf6200011f565b9050620001cd82826200017d565b919050565b600067ffffffffffffffff821115620001f057620001ef6200014e565b5b620001fb826200013d565b9050602081019050919050565b60005b83811015620002285780820151818401526020810190506200020b565b8381111562000238576000848401525b50505050565b6000620002556200024f84620001d2565b620001b3565b90508281526020810184848401111562000274576200027362000138565b5b6200028184828562000208565b509392505050565b600082601f830112620002a157620002a062000133565b5b8151620002b38482602086016200023e565b91505092915050565b600060208284031215620002d557620002d462000129565b5b600082015167ffffffffffffffff811115620002f657620002f56200012e565b5b620003048482850162000289565b91505092915050565b7f4e487b7100000000000000000000000000000000000000000000000000000000600052602260045260246000fd5b600060028204905060018216806200035557607f821691505b602082108114156200036c576200036b6200030d565b5b50919050565b6137e180620003826000396000f3fe608060405234801561001057600080fd5b50600436106100f45760003560e01c80634f558e7911610097578063bd85b03911610066578063bd85b03914610291578063e985e9c5146102c1578063f242432a146102f1578063f5298aca1461030d576100f4565b80634f558e791461020d5780636b20c4541461023d578063731133e914610259578063a22cb46514610275576100f4565b80630e89341c116100d35780630e89341c146101755780631f7fdffa146101a55780632eb2c2d6146101c15780634e1273f4146101dd576100f4565b8062fdd58e146100f957806301ffc9a71461012957806302fe530514610159575b600080fd5b610113600480360381019061010e9190612087565b610329565b60405161012091906120d6565b60405180910390f35b610143600480360381019061013e9190612149565b6103f2565b6040516101509190612191565b60405180910390f35b610173600480360381019061016e91906122f2565b6104d4565b005b61018f600480360381019061018a919061233b565b6104e0565b60405161019c91906123f0565b60405180910390f35b6101bf60048036038101906101ba919061257b565b610574565b005b6101db60048036038101906101d69190612636565b610586565b005b6101f760048036038101906101f291906127c8565b610627565b60405161020491906128fe565b60405180910390f35b6102276004803603810190610222919061233b565b610740565b6040516102349190612191565b60405180910390f35b61025760048036038101906102529190612920565b610754565b005b610273600480360381019061026e91906129ab565b610764565b005b61028f600480360381019061028a9190612a5a565b610776565b005b6102ab60048036038101906102a6919061233b565b61078c565b6040516102b891906120d6565b60405180910390f35b6102db60048036038101906102d69190612a9a565b6107a9565b6040516102e89190612191565b60405180910390f35b61030b60048036038101906103069190612ada565b61083d565b005b61032760048036038101906103229190612b71565b6108de565b005b60008073ffffffffffffffffffffffffffffffffffffffff168373ffffffffffffffffffffffffffffffffffffffff16141561039a576040517f08c379a000000000000000000000000000000000000000000000000000000000815260040161039190612c36565b60405180910390fd5b60008083815260200190815260200160002060008473ffffffffffffffffffffffffffffffffffffffff1673ffffffffffffffffffffffffffffffffffffffff16815260200190815260200160002054905092915050565b60007fd9b67a26000000000000000000000000000000000000000000000000000000007bffffffffffffffffffffffffffffffffffffffffffffffffffffffff1916827bffffffffffffffffffffffffffffffffffffffffffffffffffffffff191614806104bd57507f0e89341c000000000000000000000000000000000000000000000000000000007bffffffffffffffffffffffffffffffffffffffffffffffffffffffff1916827bffffffffffffffffffffffffffffffffffffffffffffffffffffffff1916145b806104cd57506104cc826108ee565b5b9050919050565b6104dd81610958565b50565b6060600280546104ef90612c85565b80601f016020809104026020016040519081016040528092919081815260200182805461051b90612c85565b80156105685780601f1061053d57610100808354040283529160200191610568565b820191906000526020600020905b81548152906001019060200180831161054b57829003601f168201915b50505050509050919050565b61058084848484610972565b50505050565b61058e610b90565b73ffffffffffffffffffffffffffffffffffffffff168573ffffffffffffffffffffffffffffffffffffffff1614806105d457506105d3856105ce610b90565b6107a9565b5b610613576040517f08c379a000000000000000000000000000000000000000000000000000000000815260040161060a90612d29565b60405180910390fd5b6106208585858585610b98565b5050505050565b6060815183511461066d576040517f08c379a000000000000000000000000000000000000000000000000000000000815260040161066490612dbb565b60405180910390fd5b6000835167ffffffffffffffff81111561068a576106896121c7565b5b6040519080825280602002602001820160405280156106b85781602001602082028036833780820191505090505b50905060005b8451811015610735576107058582815181106106dd576106dc612ddb565b5b60200260200101518583815181106106f8576106f7612ddb565b5b6020026020010151610329565b82828151811061071857610717612ddb565b5b6020026020010181815250508061072e90612e39565b90506106be565b508091505092915050565b60008061074c8361078c565b119050919050565b61075f838383610eac565b505050565b6107708484848461115d565b50505050565b610788610781610b90565b83836112f3565b5050565b600060036000838152602001908152602001600020549050919050565b6000600160008473ffffffffffffffffffffffffffffffffffffffff1673ffffffffffffffffffffffffffffffffffffffff16815260200190815260200160002060008373ffffffffffffffffffffffffffffffffffffffff1673ffffffffffffffffffffffffffffffffffffffff16815260200190815260200160002060009054906101000a900460ff16905092915050565b610845610b90565b73ffffffffffffffffffffffffffffffffffffffff168573ffffffffffffffffffffffffffffffffffffffff16148061088b575061088a85610885610b90565b6107a9565b5b6108ca576040517f08c379a00000000000000000000000000000000000000000000000000000000081526004016108c190612ef4565b60405180910390fd5b6108d78585858585611460565b5050505050565b6108e98383836116e2565b505050565b60007f01ffc9a7000000000000000000000000000000000000000000000000000000007bffffffffffffffffffffffffffffffffffffffffffffffffffffffff1916827bffffffffffffffffffffffffffffffffffffffffffffffffffffffff1916149050919050565b806002908051906020019061096e929190611f3c565b5050565b600073ffffffffffffffffffffffffffffffffffffffff168473ffffffffffffffffffffffffffffffffffffffff1614156109e2576040517f08c379a00000000000000000000000000000000000000000000000000000000081526004016109d990612f86565b60405180910390fd5b8151835114610a26576040517f08c379a0000000000000000000000000000000000000000000000000000000008152600401610a1d90613018565b60405180910390fd5b6000610a30610b90565b9050610a41816000878787876118ff565b60005b8451811015610afa57838181518110610a6057610a5f612ddb565b5b6020026020010151600080878481518110610a7e57610a7d612ddb565b5b6020026020010151815260200190815260200160002060008873ffffffffffffffffffffffffffffffffffffffff1673ffffffffffffffffffffffffffffffffffffffff1681526020019081526020016000206000828254610ae09190613038565b925050819055508080610af290612e39565b915050610a44565b508473ffffffffffffffffffffffffffffffffffffffff16600073ffffffffffffffffffffffffffffffffffffffff168273ffffffffffffffffffffffffffffffffffffffff167f4a39dc06d4c0dbc64b70af90fd698a233a518aa5d07e595d983b8c0526c8f7fb8787604051610b7292919061308e565b60405180910390a4610b8981600087878787611915565b5050505050565b600033905090565b8151835114610bdc576040517f08c379a0000000000000000000000000000000000000000000000000000000008152600401610bd390613018565b60405180910390fd5b600073ffffffffffffffffffffffffffffffffffffffff168473ffffffffffffffffffffffffffffffffffffffff161415610c4c576040517f08c379a0000000000000000000000000000000000000000000000000000000008152600401610c4390613137565b60405180910390fd5b6000610c56610b90565b9050610c668187878787876118ff565b60005b8451811015610e17576000858281518110610c8757610c86612ddb565b5b602002602001015190506000858381518110610ca657610ca5612ddb565b5b60200260200101519050600080600084815260200190815260200160002060008b73ffffffffffffffffffffffffffffffffffffffff1673ffffffffffffffffffffffffffffffffffffffff16815260200190815260200160002054905081811015610d47576040517f08c379a0000000000000000000000000000000000000000000000000000000008152600401610d3e906131c9565b60405180910390fd5b81810360008085815260200190815260200160002060008c73ffffffffffffffffffffffffffffffffffffffff1673ffffffffffffffffffffffffffffffffffffffff168152602001908152602001600020819055508160008085815260200190815260200160002060008b73ffffffffffffffffffffffffffffffffffffffff1673ffffffffffffffffffffffffffffffffffffffff1681526020019081526020016000206000828254610dfc9190613038565b9250508190555050505080610e1090612e39565b9050610c69565b508473ffffffffffffffffffffffffffffffffffffffff168673ffffffffffffffffffffffffffffffffffffffff168273ffffffffffffffffffffffffffffffffffffffff167f4a39dc06d4c0dbc64b70af90fd698a233a518aa5d07e595d983b8c0526c8f7fb8787604051610e8e92919061308e565b60405180910390a4610ea4818787878787611915565b505050505050565b600073ffffffffffffffffffffffffffffffffffffffff168373ffffffffffffffffffffffffffffffffffffffff161415610f1c576040517f08c379a0000000000000000000000000000000000000000000000000000000008152600401610f139061325b565b60405180910390fd5b8051825114610f60576040517f08c379a0000000000000000000000000000000000000000000000000000000008152600401610f5790613018565b60405180910390fd5b6000610f6a610b90565b9050610f8a818560008686604051806020016040528060008152506118ff565b60005b83518110156110d7576000848281518110610fab57610faa612ddb565b5b602002602001015190506000848381518110610fca57610fc9612ddb565b5b60200260200101519050600080600084815260200190815260200160002060008973ffffffffffffffffffffffffffffffffffffffff1673ffffffffffffffffffffffffffffffffffffffff1681526020019081526020016000205490508181101561106b576040517f08c379a0000000000000000000000000000000000000000000000000000000008152600401611062906132ed565b60405180910390fd5b81810360008085815260200190815260200160002060008a73ffffffffffffffffffffffffffffffffffffffff1673ffffffffffffffffffffffffffffffffffffffff1681526020019081526020016000208190555050505080806110cf90612e39565b915050610f8d565b50600073ffffffffffffffffffffffffffffffffffffffff168473ffffffffffffffffffffffffffffffffffffffff168273ffffffffffffffffffffffffffffffffffffffff167f4a39dc06d4c0dbc64b70af90fd698a233a518aa5d07e595d983b8c0526c8f7fb868660405161114f92919061308e565b60405180910390a450505050565b600073ffffffffffffffffffffffffffffffffffffffff168473ffffffffffffffffffffffffffffffffffffffff1614156111cd576040517f08c379a00000000000000000000000000000000000000000000000000000000081526004016111c490612f86565b60405180910390fd5b60006111d7610b90565b90506111f8816000876111e988611aed565b6111f288611aed565b876118ff565b8260008086815260200190815260200160002060008773ffffffffffffffffffffffffffffffffffffffff1673ffffffffffffffffffffffffffffffffffffffff16815260200190815260200160002060008282546112579190613038565b925050819055508473ffffffffffffffffffffffffffffffffffffffff16600073ffffffffffffffffffffffffffffffffffffffff168273ffffffffffffffffffffffffffffffffffffffff167fc3d58168c5ae7397731d063d5bbf3d657854427343f4c083240f7aacaa2d0f6287876040516112d592919061330d565b60405180910390a46112ec81600087878787611b67565b5050505050565b8173ffffffffffffffffffffffffffffffffffffffff168373ffffffffffffffffffffffffffffffffffffffff161415611362576040517f08c379a0000000000000000000000000000000000000000000000000000000008152600401611359906133a8565b60405180910390fd5b80600160008573ffffffffffffffffffffffffffffffffffffffff1673ffffffffffffffffffffffffffffffffffffffff16815260200190815260200160002060008473ffffffffffffffffffffffffffffffffffffffff1673ffffffffffffffffffffffffffffffffffffffff16815260200190815260200160002060006101000a81548160ff0219169083151502179055508173ffffffffffffffffffffffffffffffffffffffff168373ffffffffffffffffffffffffffffffffffffffff167f17307eab39ab6107e8899845ad3d59bd9653f200f220920489ca2b5937696c31836040516114539190612191565b60405180910390a3505050565b600073ffffffffffffffffffffffffffffffffffffffff168473ffffffffffffffffffffffffffffffffffffffff1614156114d0576040517f08c379a00000000000000000000000000000000000000000000000000000000081526004016114c790613137565b60405180910390fd5b60006114da610b90565b90506114fa8187876114eb88611aed565b6114f488611aed565b876118ff565b600080600086815260200190815260200160002060008873ffffffffffffffffffffffffffffffffffffffff1673ffffffffffffffffffffffffffffffffffffffff16815260200190815260200160002054905083811015611591576040517f08c379a0000000000000000000000000000000000000000000000000000000008152600401611588906131c9565b60405180910390fd5b83810360008087815260200190815260200160002060008973ffffffffffffffffffffffffffffffffffffffff1673ffffffffffffffffffffffffffffffffffffffff168152602001908152602001600020819055508360008087815260200190815260200160002060008873ffffffffffffffffffffffffffffffffffffffff1673ffffffffffffffffffffffffffffffffffffffff16815260200190815260200160002060008282546116469190613038565b925050819055508573ffffffffffffffffffffffffffffffffffffffff168773ffffffffffffffffffffffffffffffffffffffff168373ffffffffffffffffffffffffffffffffffffffff167fc3d58168c5ae7397731d063d5bbf3d657854427343f4c083240f7aacaa2d0f6288886040516116c392919061330d565b60405180910390a46116d9828888888888611b67565b50505050505050565b600073ffffffffffffffffffffffffffffffffffffffff168373ffffffffffffffffffffffffffffffffffffffff161415611752576040517f08c379a00000000000000000000000000000000000000000000000000000000081526004016117499061325b565b60405180910390fd5b600061175c610b90565b905061178c8185600061176e87611aed565b61177787611aed565b604051806020016040528060008152506118ff565b600080600085815260200190815260200160002060008673ffffffffffffffffffffffffffffffffffffffff1673ffffffffffffffffffffffffffffffffffffffff16815260200190815260200160002054905082811015611823576040517f08c379a000000000000000000000000000000000000000000000000000000000815260040161181a906132ed565b60405180910390fd5b82810360008086815260200190815260200160002060008773ffffffffffffffffffffffffffffffffffffffff1673ffffffffffffffffffffffffffffffffffffffff16815260200190815260200160002081905550600073ffffffffffffffffffffffffffffffffffffffff168573ffffffffffffffffffffffffffffffffffffffff168373ffffffffffffffffffffffffffffffffffffffff167fc3d58168c5ae7397731d063d5bbf3d657854427343f4c083240f7aacaa2d0f6287876040516118f092919061330d565b60405180910390a45050505050565b61190d868686868686611d3f565b505050505050565b6119348473ffffffffffffffffffffffffffffffffffffffff16611f11565b15611ae5578373ffffffffffffffffffffffffffffffffffffffff1663bc197c8187878686866040518663ffffffff1660e01b815260040161197a95949392919061342c565b6020604051808303816000875af19250505080156119b657506040513d601f19601f820116820180604052508101906119b391906134a9565b60015b611a5c576119c26134e3565b806308c379a01415611a1f57506119d7613505565b806119e25750611a21565b806040517f08c379a0000000000000000000000000000000000000000000000000000000008152600401611a1691906123f0565b60405180910390fd5b505b6040517f08c379a0000000000000000000000000000000000000000000000000000000008152600401611a539061360d565b60405180910390fd5b63bc197c8160e01b7bffffffffffffffffffffffffffffffffffffffffffffffffffffffff1916817bffffffffffffffffffffffffffffffffffffffffffffffffffffffff191614611ae3576040517f08c379a0000000000000000000000000000000000000000000000000000000008152600401611ada9061369f565b60405180910390fd5b505b505050505050565b60606000600167ffffffffffffffff811115611b0c57611b0b6121c7565b5b604051908082528060200260200182016040528015611b3a5781602001602082028036833780820191505090505b5090508281600081518110611b5257611b51612ddb565b5b60200260200101818152505080915050919050565b611b868473ffffffffffffffffffffffffffffffffffffffff16611f11565b15611d37578373ffffffffffffffffffffffffffffffffffffffff1663f23a6e6187878686866040518663ffffffff1660e01b8152600401611bcc9594939291906136bf565b6020604051808303816000875af1925050508015611c0857506040513d601f19601f82011682018060405250810190611c0591906134a9565b60015b611cae57611c146134e3565b806308c379a01415611c715750611c29613505565b80611c345750611c73565b806040517f08c379a0000000000000000000000000000000000000000000000000000000008152600401611c6891906123f0565b60405180910390fd5b505b6040517f08c379a0000000000000000000000000000000000000000000000000000000008152600401611ca59061360d565b60405180910390fd5b63f23a6e6160e01b7bffffffffffffffffffffffffffffffffffffffffffffffffffffffff1916817bffffffffffffffffffffffffffffffffffffffffffffffffffffffff191614611d35576040517f08c379a0000000000000000000000000000000000000000000000000000000008152600401611d2c9061369f565b60405180910390fd5b505b505050505050565b611d4d868686868686611f34565b600073ffffffffffffffffffffffffffffffffffffffff168573ffffffffffffffffffffffffffffffffffffffff161415611dff5760005b8351811015611dfd57828181518110611da157611da0612ddb565b5b602002602001015160036000868481518110611dc057611dbf612ddb565b5b602002602001015181526020019081526020016000206000828254611de59190613038565b9250508190555080611df690612e39565b9050611d85565b505b600073ffffffffffffffffffffffffffffffffffffffff168473ffffffffffffffffffffffffffffffffffffffff161415611f095760005b8351811015611f07576000848281518110611e5557611e54612ddb565b5b602002602001015190506000848381518110611e7457611e73612ddb565b5b6020026020010151905060006003600084815260200190815260200160002054905081811015611ed9576040517f08c379a0000000000000000000000000000000000000000000000000000000008152600401611ed09061378b565b60405180910390fd5b818103600360008581526020019081526020016000208190555050505080611f0090612e39565b9050611e37565b505b505050505050565b6000808273ffffffffffffffffffffffffffffffffffffffff163b119050919050565b505050505050565b828054611f4890612c85565b90600052602060002090601f016020900481019282611f6a5760008555611fb1565b82601f10611f8357805160ff1916838001178555611fb1565b82800160010185558215611fb1579182015b82811115611fb0578251825591602001919060010190611f95565b5b509050611fbe9190611fc2565b5090565b5b80821115611fdb576000816000905550600101611fc3565b5090565b6000604051905090565b600080fd5b600080fd5b600073ffffffffffffffffffffffffffffffffffffffff82169050919050565b600061201e82611ff3565b9050919050565b61202e81612013565b811461203957600080fd5b50565b60008135905061204b81612025565b92915050565b6000819050919050565b61206481612051565b811461206f57600080fd5b50565b6000813590506120818161205b565b92915050565b6000806040838503121561209e5761209d611fe9565b5b60006120ac8582860161203c565b92505060206120bd85828601612072565b9150509250929050565b6120d081612051565b82525050565b60006020820190506120eb60008301846120c7565b92915050565b60007fffffffff0000000000000000000000000000000000000000000000000000000082169050919050565b612126816120f1565b811461213157600080fd5b50565b6000813590506121438161211d565b92915050565b60006020828403121561215f5761215e611fe9565b5b600061216d84828501612134565b91505092915050565b60008115159050919050565b61218b81612176565b82525050565b60006020820190506121a66000830184612182565b92915050565b600080fd5b600080fd5b6000601f19601f8301169050919050565b7f4e487b7100000000000000000000000000000000000000000000000000000000600052604160045260246000fd5b6121ff826121b6565b810181811067ffffffffffffffff8211171561221e5761221d6121c7565b5b80604052505050565b6000612231611fdf565b905061223d82826121f6565b919050565b600067ffffffffffffffff82111561225d5761225c6121c7565b5b612266826121b6565b9050602081019050919050565b82818337600083830152505050565b600061229561229084612242565b612227565b9050828152602081018484840111156122b1576122b06121b1565b5b6122bc848285612273565b509392505050565b600082601f8301126122d9576122d86121ac565b5b81356122e9848260208601612282565b91505092915050565b60006020828403121561230857612307611fe9565b5b600082013567ffffffffffffffff81111561232657612325611fee565b5b612332848285016122c4565b91505092915050565b60006020828403121561235157612350611fe9565b5b600061235f84828501612072565b91505092915050565b600081519050919050565b600082825260208201905092915050565b60005b838110156123a2578082015181840152602081019050612387565b838111156123b1576000848401525b50505050565b60006123c282612368565b6123cc8185612373565b93506123dc818560208601612384565b6123e5816121b6565b840191505092915050565b6000602082019050818103600083015261240a81846123b7565b905092915050565b600067ffffffffffffffff82111561242d5761242c6121c7565b5b602082029050602081019050919050565b600080fd5b600061245661245184612412565b612227565b905080838252602082019050602084028301858111156124795761247861243e565b5b835b818110156124a2578061248e8882612072565b84526020840193505060208101905061247b565b5050509392505050565b600082601f8301126124c1576124c06121ac565b5b81356124d1848260208601612443565b91505092915050565b600067ffffffffffffffff8211156124f5576124f46121c7565b5b6124fe826121b6565b9050602081019050919050565b600061251e612519846124da565b612227565b90508281526020810184848401111561253a576125396121b1565b5b612545848285612273565b509392505050565b600082601f830112612562576125616121ac565b5b813561257284826020860161250b565b91505092915050565b6000806000806080858703121561259557612594611fe9565b5b60006125a38782880161203c565b945050602085013567ffffffffffffffff8111156125c4576125c3611fee565b5b6125d0878288016124ac565b935050604085013567ffffffffffffffff8111156125f1576125f0611fee565b5b6125fd878288016124ac565b925050606085013567ffffffffffffffff81111561261e5761261d611fee565b5b61262a8782880161254d565b91505092959194509250565b600080600080600060a0868803121561265257612651611fe9565b5b60006126608882890161203c565b95505060206126718882890161203c565b945050604086013567ffffffffffffffff81111561269257612691611fee565b5b61269e888289016124ac565b935050606086013567ffffffffffffffff8111156126bf576126be611fee565b5b6126cb888289016124ac565b925050608086013567ffffffffffffffff8111156126ec576126eb611fee565b5b6126f88882890161254d565b9150509295509295909350565b600067ffffffffffffffff8211156127205761271f6121c7565b5b602082029050602081019050919050565b600061274461273f84612705565b612227565b905080838252602082019050602084028301858111156127675761276661243e565b5b835b81811015612790578061277c888261203c565b845260208401935050602081019050612769565b5050509392505050565b600082601f8301126127af576127ae6121ac565b5b81356127bf848260208601612731565b91505092915050565b600080604083850312156127df576127de611fe9565b5b600083013567ffffffffffffffff8111156127fd576127fc611fee565b5b6128098582860161279a565b925050602083013567ffffffffffffffff81111561282a57612829611fee565b5b612836858286016124ac565b9150509250929050565b600081519050919050565b600082825260208201905092915050565b6000819050602082019050919050565b61287581612051565b82525050565b6000612887838361286c565b60208301905092915050565b6000602082019050919050565b60006128ab82612840565b6128b5818561284b565b93506128c08361285c565b8060005b838110156128f15781516128d8888261287b565b97506128e383612893565b9250506001810190506128c4565b5085935050505092915050565b6000602082019050818103600083015261291881846128a0565b905092915050565b60008060006060848603121561293957612938611fe9565b5b60006129478682870161203c565b935050602084013567ffffffffffffffff81111561296857612967611fee565b5b612974868287016124ac565b925050604084013567ffffffffffffffff81111561299557612994611fee565b5b6129a1868287016124ac565b9150509250925092565b600080600080608085870312156129c5576129c4611fe9565b5b60006129d38782880161203c565b94505060206129e487828801612072565b93505060406129f587828801612072565b925050606085013567ffffffffffffffff811115612a1657612a15611fee565b5b612a228782880161254d565b91505092959194509250565b612a3781612176565b8114612a4257600080fd5b50565b600081359050612a5481612a2e565b92915050565b60008060408385031215612a7157612a70611fe9565b5b6000612a7f8582860161203c565b9250506020612a9085828601612a45565b9150509250929050565b60008060408385031215612ab157612ab0611fe9565b5b6000612abf8582860161203c565b9250506020612ad08582860161203c565b9150509250929050565b600080600080600060a08688031215612af657612af5611fe9565b5b6000612b048882890161203c565b9550506020612b158882890161203c565b9450506040612b2688828901612072565b9350506060612b3788828901612072565b925050608086013567ffffffffffffffff811115612b5857612b57611fee565b5b612b648882890161254d565b9150509295509295909350565b600080600060608486031215612b8a57612b89611fe9565b5b6000612b988682870161203c565b9350506020612ba986828701612072565b9250506040612bba86828701612072565b9150509250925092565b7f455243313135353a2062616c616e636520717565727920666f7220746865207a60008201527f65726f2061646472657373000000000000000000000000000000000000000000602082015250565b6000612c20602b83612373565b9150612c2b82612bc4565b604082019050919050565b60006020820190508181036000830152612c4f81612c13565b9050919050565b7f4e487b7100000000000000000000000000000000000000000000000000000000600052602260045260246000fd5b60006002820490506001821680612c9d57607f821691505b60208210811415612cb157612cb0612c56565b5b50919050565b7f455243313135353a207472616e736665722063616c6c6572206973206e6f742060008201527f6f776e6572206e6f7220617070726f7665640000000000000000000000000000602082015250565b6000612d13603283612373565b9150612d1e82612cb7565b604082019050919050565b60006020820190508181036000830152612d4281612d06565b9050919050565b7f455243313135353a206163636f756e747320616e6420696473206c656e67746860008201527f206d69736d617463680000000000000000000000000000000000000000000000602082015250565b6000612da5602983612373565b9150612db082612d49565b604082019050919050565b60006020820190508181036000830152612dd481612d98565b9050919050565b7f4e487b7100000000000000000000000000000000000000000000000000000000600052603260045260246000fd5b7f4e487b7100000000000000000000000000000000000000000000000000000000600052601160045260246000fd5b6000612e4482612051565b91507fffffffffffffffffffffffffffffffffffffffffffffffffffffffffffffffff821415612e7757612e76612e0a565b5b600182019050919050565b7f455243313135353a2063616c6c6572206973206e6f74206f776e6572206e6f7260008201527f20617070726f7665640000000000000000000000000000000000000000000000602082015250565b6000612ede602983612373565b9150612ee982612e82565b604082019050919050565b60006020820190508181036000830152612f0d81612ed1565b9050919050565b7f455243313135353a206d696e7420746f20746865207a65726f2061646472657360008201527f7300000000000000000000000000000000000000000000000000000000000000602082015250565b6000612f70602183612373565b9150612f7b82612f14565b604082019050919050565b60006020820190508181036000830152612f9f81612f63565b9050919050565b7f455243313135353a2069647320616e6420616d6f756e7473206c656e6774682060008201527f6d69736d61746368000000000000000000000000000000000000000000000000602082015250565b6000613002602883612373565b915061300d82612fa6565b604082019050919050565b6000602082019050818103600083015261303181612ff5565b9050919050565b600061304382612051565b915061304e83612051565b9250827fffffffffffffffffffffffffffffffffffffffffffffffffffffffffffffffff0382111561308357613082612e0a565b5b828201905092915050565b600060408201905081810360008301526130a881856128a0565b905081810360208301526130bc81846128a0565b90509392505050565b7f455243313135353a207472616e7366657220746f20746865207a65726f20616460008201527f6472657373000000000000000000000000000000000000000000000000000000602082015250565b6000613121602583612373565b915061312c826130c5565b604082019050919050565b6000602082019050818103600083015261315081613114565b9050919050565b7f455243313135353a20696e73756666696369656e742062616c616e636520666f60008201527f72207472616e7366657200000000000000000000000000000000000000000000602082015250565b60006131b3602a83612373565b91506131be82613157565b604082019050919050565b600060208201905081810360008301526131e2816131a6565b9050919050565b7f455243313135353a206275726e2066726f6d20746865207a65726f206164647260008201527f6573730000000000000000000000000000000000000000000000000000000000602082015250565b6000613245602383612373565b9150613250826131e9565b604082019050919050565b6000602082019050818103600083015261327481613238565b9050919050565b7f455243313135353a206275726e20616d6f756e7420657863656564732062616c60008201527f616e636500000000000000000000000000000000000000000000000000000000602082015250565b60006132d7602483612373565b91506132e28261327b565b604082019050919050565b60006020820190508181036000830152613306816132ca565b9050919050565b600060408201905061332260008301856120c7565b61332f60208301846120c7565b9392505050565b7f455243313135353a2073657474696e6720617070726f76616c2073746174757360008201527f20666f722073656c660000000000000000000000000000000000000000000000602082015250565b6000613392602983612373565b915061339d82613336565b604082019050919050565b600060208201905081810360008301526133c181613385565b9050919050565b6133d181612013565b82525050565b600081519050919050565b600082825260208201905092915050565b60006133fe826133d7565b61340881856133e2565b9350613418818560208601612384565b613421816121b6565b840191505092915050565b600060a08201905061344160008301886133c8565b61344e60208301876133c8565b818103604083015261346081866128a0565b9050818103606083015261347481856128a0565b9050818103608083015261348881846133f3565b90509695505050505050565b6000815190506134a38161211d565b92915050565b6000602082840312156134bf576134be611fe9565b5b60006134cd84828501613494565b91505092915050565b60008160e01c9050919050565b600060033d11156135025760046000803e6134ff6000516134d6565b90505b90565b600060443d101561351557613598565b61351d611fdf565b60043d036004823e80513d602482011167ffffffffffffffff82111715613545575050613598565b808201805167ffffffffffffffff8111156135635750505050613598565b80602083010160043d038501811115613580575050505050613598565b61358f826020018501866121f6565b82955050505050505b90565b7f455243313135353a207472616e7366657220746f206e6f6e204552433131353560008201527f526563656976657220696d706c656d656e746572000000000000000000000000602082015250565b60006135f7603483612373565b91506136028261359b565b604082019050919050565b60006020820190508181036000830152613626816135ea565b9050919050565b7f455243313135353a204552433131353552656365697665722072656a6563746560008201527f6420746f6b656e73000000000000000000000000000000000000000000000000602082015250565b6000613689602883612373565b91506136948261362d565b604082019050919050565b600060208201905081810360008301526136b88161367c565b9050919050565b600060a0820190506136d460008301886133c8565b6136e160208301876133c8565b6136ee60408301866120c7565b6136fb60608301856120c7565b818103608083015261370d81846133f3565b90509695505050505050565b7f455243313135353a206275726e20616d6f756e74206578636565647320746f7460008201527f616c537570706c79000000000000000000000000000000000000000000000000602082015250565b6000613775602883612373565b915061378082613719565b604082019050919050565b600060208201905081810360008301526137a481613768565b905091905056fea2646970667358221220c9bbe3b5003962d278cfa2c49761a38b120ccfe5772a263cd6699fcc3d3b4aea64736f6c634300080b0033",
  "immutableReferences": {},
  "source": "// SPDX-License-Identifier: MIT\n\npragma solidity ^0.8.0;\n\nimport \"./ERC1155Mock.sol\";\nimport \"../token/ERC1155/extensions/ERC1155Supply.sol\";\n\ncontract ERC1155SupplyMock is ERC1155Mock, ERC1155Supply {\n    constructor(string memory uri) ERC1155Mock(uri) {}\n\n    function _beforeTokenTransfer(\n        address operator,\n        address from,\n        address to,\n        uint256[] memory ids,\n        uint256[] memory amounts,\n        bytes memory data\n    ) internal virtual override(ERC1155, ERC1155Supply) {\n        super._beforeTokenTransfer(operator, from, to, ids, amounts, data);\n    }\n}\n",
  "sourcePath": "D:\\03.block-chain\\01.miquelTC__nft-marketplace\\test-proj\\nft-marketplace-master\\src\\contracts\\ERC721\\mocks\\ERC1155SupplyMock.sol",
  "compiler": {
    "name": "solc",
    "version": "0.8.11+commit.d7f03943.Emscripten.clang"
  },
  "schemaVersion": "3.4.4",
  "updatedAt": "2022-02-16T02:59:58.309Z",
  "devdoc": {
    "kind": "dev",
    "methods": {
      "balanceOf(address,uint256)": {
        "details": "See {IERC1155-balanceOf}. Requirements: - `account` cannot be the zero address."
      },
      "balanceOfBatch(address[],uint256[])": {
        "details": "See {IERC1155-balanceOfBatch}. Requirements: - `accounts` and `ids` must have the same length."
      },
      "exists(uint256)": {
        "details": "Indicates whether any token exist with a given id, or not."
      },
      "isApprovedForAll(address,address)": {
        "details": "See {IERC1155-isApprovedForAll}."
      },
      "safeBatchTransferFrom(address,address,uint256[],uint256[],bytes)": {
        "details": "See {IERC1155-safeBatchTransferFrom}."
      },
      "safeTransferFrom(address,address,uint256,uint256,bytes)": {
        "details": "See {IERC1155-safeTransferFrom}."
      },
      "setApprovalForAll(address,bool)": {
        "details": "See {IERC1155-setApprovalForAll}."
      },
      "supportsInterface(bytes4)": {
        "details": "See {IERC165-supportsInterface}."
      },
      "totalSupply(uint256)": {
        "details": "Total amount of tokens in with a given id."
      },
      "uri(uint256)": {
        "details": "See {IERC1155MetadataURI-uri}. This implementation returns the same URI for *all* token types. It relies on the token type ID substitution mechanism https://eips.ethereum.org/EIPS/eip-1155#metadata[defined in the EIP]. Clients calling this function must replace the `\\{id\\}` substring with the actual token type ID."
      }
    },
    "version": 1
  },
  "userdoc": {
    "kind": "user",
    "methods": {},
    "version": 1
  }
}