{
  "contractName": "ERC20VotesCompMock",
  "abi": [
    {
      "inputs": [
        {
          "internalType": "string",
          "name": "name",
          "type": "string"
        },
        {
          "internalType": "string",
          "name": "symbol",
          "type": "string"
        }
      ],
      "stateMutability": "nonpayable",
      "type": "constructor"
    },
    {
      "anonymous": false,
      "inputs": [
        {
          "indexed": true,
          "internalType": "address",
          "name": "owner",
          "type": "address"
        },
        {
          "indexed": true,
          "internalType": "address",
          "name": "spender",
          "type": "address"
        },
        {
          "indexed": false,
          "internalType": "uint256",
          "name": "value",
          "type": "uint256"
        }
      ],
      "name": "Approval",
      "type": "event"
    },
    {
      "anonymous": false,
      "inputs": [
        {
          "indexed": true,
          "internalType": "address",
          "name": "delegator",
          "type": "address"
        },
        {
          "indexed": true,
          "internalType": "address",
          "name": "fromDelegate",
          "type": "address"
        },
        {
          "indexed": true,
          "internalType": "address",
          "name": "toDelegate",
          "type": "address"
        }
      ],
      "name": "DelegateChanged",
      "type": "event"
    },
    {
      "anonymous": false,
      "inputs": [
        {
          "indexed": true,
          "internalType": "address",
          "name": "delegate",
          "type": "address"
        },
        {
          "indexed": false,
          "internalType": "uint256",
          "name": "previousBalance",
          "type": "uint256"
        },
        {
          "indexed": false,
          "internalType": "uint256",
          "name": "newBalance",
          "type": "uint256"
        }
      ],
      "name": "DelegateVotesChanged",
      "type": "event"
    },
    {
      "anonymous": false,
      "inputs": [
        {
          "indexed": true,
          "internalType": "address",
          "name": "from",
          "type": "address"
        },
        {
          "indexed": true,
          "internalType": "address",
          "name": "to",
          "type": "address"
        },
        {
          "indexed": false,
          "internalType": "uint256",
          "name": "value",
          "type": "uint256"
        }
      ],
      "name": "Transfer",
      "type": "event"
    },
    {
      "inputs": [],
      "name": "DOMAIN_SEPARATOR",
      "outputs": [
        {
          "internalType": "bytes32",
          "name": "",
          "type": "bytes32"
        }
      ],
      "stateMutability": "view",
      "type": "function"
    },
    {
      "inputs": [
        {
          "internalType": "address",
          "name": "owner",
          "type": "address"
        },
        {
          "internalType": "address",
          "name": "spender",
          "type": "address"
        }
      ],
      "name": "allowance",
      "outputs": [
        {
          "internalType": "uint256",
          "name": "",
          "type": "uint256"
        }
      ],
      "stateMutability": "view",
      "type": "function"
    },
    {
      "inputs": [
        {
          "internalType": "address",
          "name": "spender",
          "type": "address"
        },
        {
          "internalType": "uint256",
          "name": "amount",
          "type": "uint256"
        }
      ],
      "name": "approve",
      "outputs": [
        {
          "internalType": "bool",
          "name": "",
          "type": "bool"
        }
      ],
      "stateMutability": "nonpayable",
      "type": "function"
    },
    {
      "inputs": [
        {
          "internalType": "address",
          "name": "account",
          "type": "address"
        }
      ],
      "name": "balanceOf",
      "outputs": [
        {
          "internalType": "uint256",
          "name": "",
          "type": "uint256"
        }
      ],
      "stateMutability": "view",
      "type": "function"
    },
    {
      "inputs": [
        {
          "internalType": "address",
          "name": "account",
          "type": "address"
        },
        {
          "internalType": "uint32",
          "name": "pos",
          "type": "uint32"
        }
      ],
      "name": "checkpoints",
      "outputs": [
        {
          "components": [
            {
              "internalType": "uint32",
              "name": "fromBlock",
              "type": "uint32"
            },
            {
              "internalType": "uint224",
              "name": "votes",
              "type": "uint224"
            }
          ],
          "internalType": "struct ERC20Votes.Checkpoint",
          "name": "",
          "type": "tuple"
        }
      ],
      "stateMutability": "view",
      "type": "function"
    },
    {
      "inputs": [],
      "name": "decimals",
      "outputs": [
        {
          "internalType": "uint8",
          "name": "",
          "type": "uint8"
        }
      ],
      "stateMutability": "view",
      "type": "function"
    },
    {
      "inputs": [
        {
          "internalType": "address",
          "name": "spender",
          "type": "address"
        },
        {
          "internalType": "uint256",
          "name": "subtractedValue",
          "type": "uint256"
        }
      ],
      "name": "decreaseAllowance",
      "outputs": [
        {
          "internalType": "bool",
          "name": "",
          "type": "bool"
        }
      ],
      "stateMutability": "nonpayable",
      "type": "function"
    },
    {
      "inputs": [
        {
          "internalType": "address",
          "name": "delegatee",
          "type": "address"
        }
      ],
      "name": "delegate",
      "outputs": [],
      "stateMutability": "nonpayable",
      "type": "function"
    },
    {
      "inputs": [
        {
          "internalType": "address",
          "name": "delegatee",
          "type": "address"
        },
        {
          "internalType": "uint256",
          "name": "nonce",
          "type": "uint256"
        },
        {
          "internalType": "uint256",
          "name": "expiry",
          "type": "uint256"
        },
        {
          "internalType": "uint8",
          "name": "v",
          "type": "uint8"
        },
        {
          "internalType": "bytes32",
          "name": "r",
          "type": "bytes32"
        },
        {
          "internalType": "bytes32",
          "name": "s",
          "type": "bytes32"
        }
      ],
      "name": "delegateBySig",
      "outputs": [],
      "stateMutability": "nonpayable",
      "type": "function"
    },
    {
      "inputs": [
        {
          "internalType": "address",
          "name": "account",
          "type": "address"
        }
      ],
      "name": "delegates",
      "outputs": [
        {
          "internalType": "address",
          "name": "",
          "type": "address"
        }
      ],
      "stateMutability": "view",
      "type": "function"
    },
    {
      "inputs": [
        {
          "internalType": "address",
          "name": "account",
          "type": "address"
        }
      ],
      "name": "getCurrentVotes",
      "outputs": [
        {
          "internalType": "uint96",
          "name": "",
          "type": "uint96"
        }
      ],
      "stateMutability": "view",
      "type": "function"
    },
    {
      "inputs": [
        {
          "internalType": "uint256",
          "name": "blockNumber",
          "type": "uint256"
        }
      ],
      "name": "getPastTotalSupply",
      "outputs": [
        {
          "internalType": "uint256",
          "name": "",
          "type": "uint256"
        }
      ],
      "stateMutability": "view",
      "type": "function"
    },
    {
      "inputs": [
        {
          "internalType": "address",
          "name": "account",
          "type": "address"
        },
        {
          "internalType": "uint256",
          "name": "blockNumber",
          "type": "uint256"
        }
      ],
      "name": "getPastVotes",
      "outputs": [
        {
          "internalType": "uint256",
          "name": "",
          "type": "uint256"
        }
      ],
      "stateMutability": "view",
      "type": "function"
    },
    {
      "inputs": [
        {
          "internalType": "address",
          "name": "account",
          "type": "address"
        },
        {
          "internalType": "uint256",
          "name": "blockNumber",
          "type": "uint256"
        }
      ],
      "name": "getPriorVotes",
      "outputs": [
        {
          "internalType": "uint96",
          "name": "",
          "type": "uint96"
        }
      ],
      "stateMutability": "view",
      "type": "function"
    },
    {
      "inputs": [
        {
          "internalType": "address",
          "name": "account",
          "type": "address"
        }
      ],
      "name": "getVotes",
      "outputs": [
        {
          "internalType": "uint256",
          "name": "",
          "type": "uint256"
        }
      ],
      "stateMutability": "view",
      "type": "function"
    },
    {
      "inputs": [
        {
          "internalType": "address",
          "name": "spender",
          "type": "address"
        },
        {
          "internalType": "uint256",
          "name": "addedValue",
          "type": "uint256"
        }
      ],
      "name": "increaseAllowance",
      "outputs": [
        {
          "internalType": "bool",
          "name": "",
          "type": "bool"
        }
      ],
      "stateMutability": "nonpayable",
      "type": "function"
    },
    {
      "inputs": [],
      "name": "name",
      "outputs": [
        {
          "internalType": "string",
          "name": "",
          "type": "string"
        }
      ],
      "stateMutability": "view",
      "type": "function"
    },
    {
      "inputs": [
        {
          "internalType": "address",
          "name": "owner",
          "type": "address"
        }
      ],
      "name": "nonces",
      "outputs": [
        {
          "internalType": "uint256",
          "name": "",
          "type": "uint256"
        }
      ],
      "stateMutability": "view",
      "type": "function"
    },
    {
      "inputs": [
        {
          "internalType": "address",
          "name": "account",
          "type": "address"
        }
      ],
      "name": "numCheckpoints",
      "outputs": [
        {
          "internalType": "uint32",
          "name": "",
          "type": "uint32"
        }
      ],
      "stateMutability": "view",
      "type": "function"
    },
    {
      "inputs": [
        {
          "internalType": "address",
          "name": "owner",
          "type": "address"
        },
        {
          "internalType": "address",
          "name": "spender",
          "type": "address"
        },
        {
          "internalType": "uint256",
          "name": "value",
          "type": "uint256"
        },
        {
          "internalType": "uint256",
          "name": "deadline",
          "type": "uint256"
        },
        {
          "internalType": "uint8",
          "name": "v",
          "type": "uint8"
        },
        {
          "internalType": "bytes32",
          "name": "r",
          "type": "bytes32"
        },
        {
          "internalType": "bytes32",
          "name": "s",
          "type": "bytes32"
        }
      ],
      "name": "permit",
      "outputs": [],
      "stateMutability": "nonpayable",
      "type": "function"
    },
    {
      "inputs": [],
      "name": "symbol",
      "outputs": [
        {
          "internalType": "string",
          "name": "",
          "type": "string"
        }
      ],
      "stateMutability": "view",
      "type": "function"
    },
    {
      "inputs": [],
      "name": "totalSupply",
      "outputs": [
        {
          "internalType": "uint256",
          "name": "",
          "type": "uint256"
        }
      ],
      "stateMutability": "view",
      "type": "function"
    },
    {
      "inputs": [
        {
          "internalType": "address",
          "name": "to",
          "type": "address"
        },
        {
          "internalType": "uint256",
          "name": "amount",
          "type": "uint256"
        }
      ],
      "name": "transfer",
      "outputs": [
        {
          "internalType": "bool",
          "name": "",
          "type": "bool"
        }
      ],
      "stateMutability": "nonpayable",
      "type": "function"
    },
    {
      "inputs": [
        {
          "internalType": "address",
          "name": "from",
          "type": "address"
        },
        {
          "internalType": "address",
          "name": "to",
          "type": "address"
        },
        {
          "internalType": "uint256",
          "name": "amount",
          "type": "uint256"
        }
      ],
      "name": "transferFrom",
      "outputs": [
        {
          "internalType": "bool",
          "name": "",
          "type": "bool"
        }
      ],
      "stateMutability": "nonpayable",
      "type": "function"
    },
    {
      "inputs": [
        {
          "internalType": "address",
          "name": "account",
          "type": "address"
        },
        {
          "internalType": "uint256",
          "name": "amount",
          "type": "uint256"
        }
      ],
      "name": "mint",
      "outputs": [],
      "stateMutability": "nonpayable",
      "type": "function"
    },
    {
      "inputs": [
        {
          "internalType": "address",
          "name": "account",
          "type": "address"
        },
        {
          "internalType": "uint256",
          "name": "amount",
          "type": "uint256"
        }
      ],
      "name": "burn",
      "outputs": [],
      "stateMutability": "nonpayable",
      "type": "function"
    },
    {
      "inputs": [],
      "name": "getChainId",
      "outputs": [
        {
          "internalType": "uint256",
          "name": "",
          "type": "uint256"
        }
      ],
      "stateMutability": "view",
      "type": "function"
    }
  ],
  "bytecode": "0x6101606040527f6e71edae12b1b97f4d1f60370fef10105fa2faae0126114a169c64845d6126c9610140908152503480156200003a57600080fd5b50604051620043e5380380620043e5833981810160405281019062000060919062000412565b81806040518060400160405280600181526020017f310000000000000000000000000000000000000000000000000000000000000081525084848160039080519060200190620000b2929190620001c5565b508060049080519060200190620000cb929190620001c5565b50505060008280519060200120905060008280519060200120905060007f8b73c3c69bb8fe3d512ecc4cf759cc79239f7b179b0ffacaa9a75d522b39400f90508260e081815250508161010081815250504660a08181525050620001378184846200018960201b60201c565b608081815250503073ffffffffffffffffffffffffffffffffffffffff1660c08173ffffffffffffffffffffffffffffffffffffffff16815250508061012081815250505050505050505050620005d4565b60008383834630604051602001620001a695949392919062000512565b6040516020818303038152906040528051906020012090509392505050565b828054620001d3906200059e565b90600052602060002090601f016020900481019282620001f7576000855562000243565b82601f106200021257805160ff191683800117855562000243565b8280016001018555821562000243579182015b828111156200024257825182559160200191906001019062000225565b5b50905062000252919062000256565b5090565b5b808211156200027157600081600090555060010162000257565b5090565b6000604051905090565b600080fd5b600080fd5b600080fd5b600080fd5b6000601f19601f8301169050919050565b7f4e487b7100000000000000000000000000000000000000000000000000000000600052604160045260246000fd5b620002de8262000293565b810181811067ffffffffffffffff821117156200030057620002ff620002a4565b5b80604052505050565b60006200031562000275565b9050620003238282620002d3565b919050565b600067ffffffffffffffff821115620003465762000345620002a4565b5b620003518262000293565b9050602081019050919050565b60005b838110156200037e57808201518184015260208101905062000361565b838111156200038e576000848401525b50505050565b6000620003ab620003a58462000328565b62000309565b905082815260208101848484011115620003ca57620003c96200028e565b5b620003d78482856200035e565b509392505050565b600082601f830112620003f757620003f662000289565b5b81516200040984826020860162000394565b91505092915050565b600080604083850312156200042c576200042b6200027f565b5b600083015167ffffffffffffffff8111156200044d576200044c62000284565b5b6200045b85828601620003df565b925050602083015167ffffffffffffffff8111156200047f576200047e62000284565b5b6200048d85828601620003df565b9150509250929050565b6000819050919050565b620004ac8162000497565b82525050565b6000819050919050565b620004c781620004b2565b82525050565b600073ffffffffffffffffffffffffffffffffffffffff82169050919050565b6000620004fa82620004cd565b9050919050565b6200050c81620004ed565b82525050565b600060a082019050620005296000830188620004a1565b620005386020830187620004a1565b620005476040830186620004a1565b620005566060830185620004bc565b62000565608083018462000501565b9695505050505050565b7f4e487b7100000000000000000000000000000000000000000000000000000000600052602260045260246000fd5b60006002820490506001821680620005b757607f821691505b60208210811415620005ce57620005cd6200056f565b5b50919050565b60805160a05160c05160e051610100516101205161014051613db66200062f6000396000610e4601526000611666015260006116a801526000611687015260006115bc015260006116120152600061163b0152613db66000f3fe608060405234801561001057600080fd5b50600436106101a95760003560e01c806370a08231116100f9578063a457c2d711610097578063c3cda52011610071578063c3cda52014610556578063d505accf14610572578063dd62ed3e1461058e578063f1127ed8146105be576101a9565b8063a457c2d7146104c6578063a9059cbb146104f6578063b4b5ea5714610526576101a9565b80638e539e8c116100d35780638e539e8c1461042c57806395d89b411461045c5780639ab24eb01461047a5780639dc29fac146104aa576101a9565b806370a082311461039c578063782d6fe1146103cc5780637ecebe00146103fc576101a9565b80633644e5151161016657806340c10f191161014057806340c10f1914610304578063587cde1e146103205780635c19a95c146103505780636fcfff451461036c576101a9565b80633644e5151461028657806339509351146102a45780633a46b1a8146102d4576101a9565b806306fdde03146101ae578063095ea7b3146101cc57806318160ddd146101fc57806323b872dd1461021a578063313ce5671461024a5780633408e47014610268575b600080fd5b6101b66105ee565b6040516101c391906127ee565b60405180910390f35b6101e660048036038101906101e191906128a9565b610680565b6040516101f39190612904565b60405180910390f35b6102046106a3565b604051610211919061292e565b60405180910390f35b610234600480360381019061022f9190612949565b6106ad565b6040516102419190612904565b60405180910390f35b6102526106dc565b60405161025f91906129b8565b60405180910390f35b6102706106e5565b60405161027d919061292e565b60405180910390f35b61028e6106ed565b60405161029b91906129ec565b60405180910390f35b6102be60048036038101906102b991906128a9565b6106fc565b6040516102cb9190612904565b60405180910390f35b6102ee60048036038101906102e991906128a9565b6107a6565b6040516102fb919061292e565b60405180910390f35b61031e600480360381019061031991906128a9565b61083a565b005b61033a60048036038101906103359190612a07565b610848565b6040516103479190612a43565b60405180910390f35b61036a60048036038101906103659190612a07565b6108b1565b005b61038660048036038101906103819190612a07565b6108c5565b6040516103939190612a7d565b60405180910390f35b6103b660048036038101906103b19190612a07565b610919565b6040516103c3919061292e565b60405180910390f35b6103e660048036038101906103e191906128a9565b610961565b6040516103f39190612abf565b60405180910390f35b61041660048036038101906104119190612a07565b61097d565b604051610423919061292e565b60405180910390f35b61044660048036038101906104419190612ada565b6109cd565b604051610453919061292e565b60405180910390f35b610464610a23565b60405161047191906127ee565b60405180910390f35b610494600480360381019061048f9190612a07565b610ab5565b6040516104a1919061292e565b60405180910390f35b6104c460048036038101906104bf91906128a9565b610bc6565b005b6104e060048036038101906104db91906128a9565b610bd4565b6040516104ed9190612904565b60405180910390f35b610510600480360381019061050b91906128a9565b610cbe565b60405161051d9190612904565b60405180910390f35b610540600480360381019061053b9190612a07565b610ce1565b60405161054d9190612abf565b60405180910390f35b610570600480360381019061056b9190612b5f565b610cfb565b005b61058c60048036038101906105879190612bec565b610dff565b005b6105a860048036038101906105a39190612c8e565b610f41565b6040516105b5919061292e565b60405180910390f35b6105d860048036038101906105d39190612cfa565b610fc8565b6040516105e59190612daf565b60405180910390f35b6060600380546105fd90612df9565b80601f016020809104026020016040519081016040528092919081815260200182805461062990612df9565b80156106765780601f1061064b57610100808354040283529160200191610676565b820191906000526020600020905b81548152906001019060200180831161065957829003601f168201915b5050505050905090565b60008061068b6110d8565b90506106988185856110e0565b600191505092915050565b6000600254905090565b6000806106b86110d8565b90506106c58582856112ab565b6106d0858585611337565b60019150509392505050565b60006012905090565b600046905090565b60006106f76115b8565b905090565b6000806107076110d8565b905061079b818585600160008673ffffffffffffffffffffffffffffffffffffffff1673ffffffffffffffffffffffffffffffffffffffff16815260200190815260200160002060008973ffffffffffffffffffffffffffffffffffffffff1673ffffffffffffffffffffffffffffffffffffffff168152602001908152602001600020546107969190612e5a565b6110e0565b600191505092915050565b60004382106107ea576040517f08c379a00000000000000000000000000000000000000000000000000000000081526004016107e190612efc565b60405180910390fd5b610832600760008573ffffffffffffffffffffffffffffffffffffffff1673ffffffffffffffffffffffffffffffffffffffff168152602001908152602001600020836116d2565b905092915050565b61084482826117de565b5050565b6000600660008373ffffffffffffffffffffffffffffffffffffffff1673ffffffffffffffffffffffffffffffffffffffff16815260200190815260200160002060009054906101000a900473ffffffffffffffffffffffffffffffffffffffff169050919050565b6108c26108bc6110d8565b8261186b565b50565b6000610912600760008473ffffffffffffffffffffffffffffffffffffffff1673ffffffffffffffffffffffffffffffffffffffff16815260200190815260200160002080549050611985565b9050919050565b60008060008373ffffffffffffffffffffffffffffffffffffffff1673ffffffffffffffffffffffffffffffffffffffff168152602001908152602001600020549050919050565b600061097561097084846107a6565b6119d8565b905092915050565b60006109c6600560008473ffffffffffffffffffffffffffffffffffffffff1673ffffffffffffffffffffffffffffffffffffffff168152602001908152602001600020611a33565b9050919050565b6000438210610a11576040517f08c379a0000000000000000000000000000000000000000000000000000000008152600401610a0890612efc565b60405180910390fd5b610a1c6008836116d2565b9050919050565b606060048054610a3290612df9565b80601f0160208091040260200160405190810160405280929190818152602001828054610a5e90612df9565b8015610aab5780601f10610a8057610100808354040283529160200191610aab565b820191906000526020600020905b815481529060010190602001808311610a8e57829003601f168201915b5050505050905090565b600080600760008473ffffffffffffffffffffffffffffffffffffffff1673ffffffffffffffffffffffffffffffffffffffff16815260200190815260200160002080549050905060008114610b9d57600760008473ffffffffffffffffffffffffffffffffffffffff1673ffffffffffffffffffffffffffffffffffffffff168152602001908152602001600020600182610b519190612f1c565b81548110610b6257610b61612f50565b5b9060005260206000200160000160049054906101000a90047bffffffffffffffffffffffffffffffffffffffffffffffffffffffff16610ba0565b60005b7bffffffffffffffffffffffffffffffffffffffffffffffffffffffff16915050919050565b610bd08282611a41565b5050565b600080610bdf6110d8565b90506000600160008373ffffffffffffffffffffffffffffffffffffffff1673ffffffffffffffffffffffffffffffffffffffff16815260200190815260200160002060008673ffffffffffffffffffffffffffffffffffffffff1673ffffffffffffffffffffffffffffffffffffffff16815260200190815260200160002054905083811015610ca5576040517f08c379a0000000000000000000000000000000000000000000000000000000008152600401610c9c90612ff1565b60405180910390fd5b610cb282868684036110e0565b60019250505092915050565b600080610cc96110d8565b9050610cd6818585611337565b600191505092915050565b6000610cf4610cef83610ab5565b6119d8565b9050919050565b83421115610d3e576040517f08c379a0000000000000000000000000000000000000000000000000000000008152600401610d359061305d565b60405180910390fd5b6000610da0610d987fe48329057bfd03d55e49b547132e39cffd9c1820ad7b9d4c5307691425d15adf898989604051602001610d7d949392919061307d565b60405160208183030381529060405280519060200120611a5f565b858585611a79565b9050610dab81611aa4565b8614610dec576040517f08c379a0000000000000000000000000000000000000000000000000000000008152600401610de39061310e565b60405180910390fd5b610df6818861186b565b50505050505050565b83421115610e42576040517f08c379a0000000000000000000000000000000000000000000000000000000008152600401610e399061317a565b60405180910390fd5b60007f0000000000000000000000000000000000000000000000000000000000000000888888610e718c611aa4565b89604051602001610e879695949392919061319a565b6040516020818303038152906040528051906020012090506000610eaa82611a5f565b90506000610eba82878787611a79565b90508973ffffffffffffffffffffffffffffffffffffffff168173ffffffffffffffffffffffffffffffffffffffff1614610f2a576040517f08c379a0000000000000000000000000000000000000000000000000000000008152600401610f2190613247565b60405180910390fd5b610f358a8a8a6110e0565b50505050505050505050565b6000600160008473ffffffffffffffffffffffffffffffffffffffff1673ffffffffffffffffffffffffffffffffffffffff16815260200190815260200160002060008373ffffffffffffffffffffffffffffffffffffffff1673ffffffffffffffffffffffffffffffffffffffff16815260200190815260200160002054905092915050565b610fd0612717565b600760008473ffffffffffffffffffffffffffffffffffffffff1673ffffffffffffffffffffffffffffffffffffffff1681526020019081526020016000208263ffffffff168154811061102757611026612f50565b5b906000526020600020016040518060400160405290816000820160009054906101000a900463ffffffff1663ffffffff1663ffffffff1681526020016000820160049054906101000a90047bffffffffffffffffffffffffffffffffffffffffffffffffffffffff167bffffffffffffffffffffffffffffffffffffffffffffffffffffffff167bffffffffffffffffffffffffffffffffffffffffffffffffffffffff1681525050905092915050565b600033905090565b600073ffffffffffffffffffffffffffffffffffffffff168373ffffffffffffffffffffffffffffffffffffffff161415611150576040517f08c379a0000000000000000000000000000000000000000000000000000000008152600401611147906132d9565b60405180910390fd5b600073ffffffffffffffffffffffffffffffffffffffff168273ffffffffffffffffffffffffffffffffffffffff1614156111c0576040517f08c379a00000000000000000000000000000000000000000000000000000000081526004016111b79061336b565b60405180910390fd5b80600160008573ffffffffffffffffffffffffffffffffffffffff1673ffffffffffffffffffffffffffffffffffffffff16815260200190815260200160002060008473ffffffffffffffffffffffffffffffffffffffff1673ffffffffffffffffffffffffffffffffffffffff168152602001908152602001600020819055508173ffffffffffffffffffffffffffffffffffffffff168373ffffffffffffffffffffffffffffffffffffffff167f8c5be1e5ebec7d5bd14f71427d1e84f3dd0314c0f7b2291e5b200ac8c7c3b9258360405161129e919061292e565b60405180910390a3505050565b60006112b78484610f41565b90507fffffffffffffffffffffffffffffffffffffffffffffffffffffffffffffffff81146113315781811015611323576040517f08c379a000000000000000000000000000000000000000000000000000000000815260040161131a906133d7565b60405180910390fd5b61133084848484036110e0565b5b50505050565b600073ffffffffffffffffffffffffffffffffffffffff168373ffffffffffffffffffffffffffffffffffffffff1614156113a7576040517f08c379a000000000000000000000000000000000000000000000000000000000815260040161139e90613469565b60405180910390fd5b600073ffffffffffffffffffffffffffffffffffffffff168273ffffffffffffffffffffffffffffffffffffffff161415611417576040517f08c379a000000000000000000000000000000000000000000000000000000000815260040161140e906134fb565b60405180910390fd5b611422838383611b02565b60008060008573ffffffffffffffffffffffffffffffffffffffff1673ffffffffffffffffffffffffffffffffffffffff168152602001908152602001600020549050818110156114a8576040517f08c379a000000000000000000000000000000000000000000000000000000000815260040161149f9061358d565b60405180910390fd5b8181036000808673ffffffffffffffffffffffffffffffffffffffff1673ffffffffffffffffffffffffffffffffffffffff16815260200190815260200160002081905550816000808573ffffffffffffffffffffffffffffffffffffffff1673ffffffffffffffffffffffffffffffffffffffff168152602001908152602001600020600082825461153b9190612e5a565b925050819055508273ffffffffffffffffffffffffffffffffffffffff168473ffffffffffffffffffffffffffffffffffffffff167fddf252ad1be2c89b69c2b068fc378daa952ba7f163c4a11628f55a4df523b3ef8460405161159f919061292e565b60405180910390a36115b2848484611b07565b50505050565b60007f000000000000000000000000000000000000000000000000000000000000000073ffffffffffffffffffffffffffffffffffffffff163073ffffffffffffffffffffffffffffffffffffffff1614801561163457507f000000000000000000000000000000000000000000000000000000000000000046145b15611661577f000000000000000000000000000000000000000000000000000000000000000090506116cf565b6116cc7f00000000000000000000000000000000000000000000000000000000000000007f00000000000000000000000000000000000000000000000000000000000000007f0000000000000000000000000000000000000000000000000000000000000000611b32565b90505b90565b6000808380549050905060005b818110156117515760006116f38284611b6c565b90508486828154811061170957611708612f50565b5b9060005260206000200160000160009054906101000a900463ffffffff1663ffffffff16111561173b5780925061174b565b6001816117489190612e5a565b91505b506116df565b600082146117b357846001836117679190612f1c565b8154811061177857611777612f50565b5b9060005260206000200160000160049054906101000a90047bffffffffffffffffffffffffffffffffffffffffffffffffffffffff166117b6565b60005b7bffffffffffffffffffffffffffffffffffffffffffffffffffffffff169250505092915050565b6117e88282611b92565b6117f0611cf2565b7bffffffffffffffffffffffffffffffffffffffffffffffffffffffff166118166106a3565b1115611857576040517f08c379a000000000000000000000000000000000000000000000000000000000815260040161184e9061361f565b60405180910390fd5b6118656008611d0883611d1e565b50505050565b600061187683610848565b9050600061188384610919565b905082600660008673ffffffffffffffffffffffffffffffffffffffff1673ffffffffffffffffffffffffffffffffffffffff16815260200190815260200160002060006101000a81548173ffffffffffffffffffffffffffffffffffffffff021916908373ffffffffffffffffffffffffffffffffffffffff1602179055508273ffffffffffffffffffffffffffffffffffffffff168273ffffffffffffffffffffffffffffffffffffffff168573ffffffffffffffffffffffffffffffffffffffff167f3134e8a2e6d97e929a7e54011ea5485d7d196dd5f0ba4d4ef95803e8e3fc257f60405160405180910390a461197f828483611f96565b50505050565b600063ffffffff80168211156119d0576040517f08c379a00000000000000000000000000000000000000000000000000000000081526004016119c7906136b1565b60405180910390fd5b819050919050565b60006bffffffffffffffffffffffff8016821115611a2b576040517f08c379a0000000000000000000000000000000000000000000000000000000008152600401611a2290613743565b60405180910390fd5b819050919050565b600081600001549050919050565b611a4b828261218f565b611a59600861236683611d1e565b50505050565b6000611a72611a6c6115b8565b8361237c565b9050919050565b6000806000611a8a878787876123af565b91509150611a97816124bc565b8192505050949350505050565b600080600560008473ffffffffffffffffffffffffffffffffffffffff1673ffffffffffffffffffffffffffffffffffffffff1681526020019081526020016000209050611af181611a33565b9150611afc81612691565b50919050565b505050565b611b128383836126a7565b611b2d611b1e84610848565b611b2784610848565b83611f96565b505050565b60008383834630604051602001611b4d959493929190613763565b6040516020818303038152906040528051906020012090509392505050565b60006002828418611b7d91906137e5565b828416611b8a9190612e5a565b905092915050565b600073ffffffffffffffffffffffffffffffffffffffff168273ffffffffffffffffffffffffffffffffffffffff161415611c02576040517f08c379a0000000000000000000000000000000000000000000000000000000008152600401611bf990613862565b60405180910390fd5b611c0e60008383611b02565b8060026000828254611c209190612e5a565b92505081905550806000808473ffffffffffffffffffffffffffffffffffffffff1673ffffffffffffffffffffffffffffffffffffffff1681526020019081526020016000206000828254611c759190612e5a565b925050819055508173ffffffffffffffffffffffffffffffffffffffff16600073ffffffffffffffffffffffffffffffffffffffff167fddf252ad1be2c89b69c2b068fc378daa952ba7f163c4a11628f55a4df523b3ef83604051611cda919061292e565b60405180910390a3611cee60008383611b07565b5050565b60006bffffffffffffffffffffffff8016905090565b60008183611d169190612e5a565b905092915050565b60008060008580549050905060008114611d8c5785600182611d409190612f1c565b81548110611d5157611d50612f50565b5b9060005260206000200160000160049054906101000a90047bffffffffffffffffffffffffffffffffffffffffffffffffffffffff16611d8f565b60005b7bffffffffffffffffffffffffffffffffffffffffffffffffffffffff169250611dbd83858763ffffffff16565b9150600081118015611e1057504386600183611dd99190612f1c565b81548110611dea57611de9612f50565b5b9060005260206000200160000160009054906101000a900463ffffffff1663ffffffff16145b15611e9d57611e1e826126ac565b86600183611e2c9190612f1c565b81548110611e3d57611e3c612f50565b5b9060005260206000200160000160046101000a8154817bffffffffffffffffffffffffffffffffffffffffffffffffffffffff02191690837bffffffffffffffffffffffffffffffffffffffffffffffffffffffff160217905550611f8d565b856040518060400160405280611eb243611985565b63ffffffff168152602001611ec6856126ac565b7bffffffffffffffffffffffffffffffffffffffffffffffffffffffff168152509080600181540180825580915050600190039060005260206000200160009091909190915060008201518160000160006101000a81548163ffffffff021916908363ffffffff16021790555060208201518160000160046101000a8154817bffffffffffffffffffffffffffffffffffffffffffffffffffffffff02191690837bffffffffffffffffffffffffffffffffffffffffffffffffffffffff16021790555050505b50935093915050565b8173ffffffffffffffffffffffffffffffffffffffff168373ffffffffffffffffffffffffffffffffffffffff1614158015611fd25750600081115b1561218a57600073ffffffffffffffffffffffffffffffffffffffff168373ffffffffffffffffffffffffffffffffffffffff16146120b057600080612059600760008773ffffffffffffffffffffffffffffffffffffffff1673ffffffffffffffffffffffffffffffffffffffff16815260200190815260200160002061236685611d1e565b915091508473ffffffffffffffffffffffffffffffffffffffff167fdec2bacdd2f05b59de34da9b523dff8be42e5e38e818c82fdb0bae774387a72483836040516120a5929190613882565b60405180910390a250505b600073ffffffffffffffffffffffffffffffffffffffff168273ffffffffffffffffffffffffffffffffffffffff161461218957600080612132600760008673ffffffffffffffffffffffffffffffffffffffff1673ffffffffffffffffffffffffffffffffffffffff168152602001908152602001600020611d0885611d1e565b915091508373ffffffffffffffffffffffffffffffffffffffff167fdec2bacdd2f05b59de34da9b523dff8be42e5e38e818c82fdb0bae774387a724838360405161217e929190613882565b60405180910390a250505b5b505050565b600073ffffffffffffffffffffffffffffffffffffffff168273ffffffffffffffffffffffffffffffffffffffff1614156121ff576040517f08c379a00000000000000000000000000000000000000000000000000000000081526004016121f69061391d565b60405180910390fd5b61220b82600083611b02565b60008060008473ffffffffffffffffffffffffffffffffffffffff1673ffffffffffffffffffffffffffffffffffffffff16815260200190815260200160002054905081811015612291576040517f08c379a0000000000000000000000000000000000000000000000000000000008152600401612288906139af565b60405180910390fd5b8181036000808573ffffffffffffffffffffffffffffffffffffffff1673ffffffffffffffffffffffffffffffffffffffff1681526020019081526020016000208190555081600260008282546122e89190612f1c565b92505081905550600073ffffffffffffffffffffffffffffffffffffffff168373ffffffffffffffffffffffffffffffffffffffff167fddf252ad1be2c89b69c2b068fc378daa952ba7f163c4a11628f55a4df523b3ef8460405161234d919061292e565b60405180910390a361236183600084611b07565b505050565b600081836123749190612f1c565b905092915050565b60008282604051602001612391929190613a47565b60405160208183030381529060405280519060200120905092915050565b6000807f7fffffffffffffffffffffffffffffff5d576e7357a4501ddfe92f46681b20a08360001c11156123ea5760006003915091506124b3565b601b8560ff16141580156124025750601c8560ff1614155b156124145760006004915091506124b3565b6000600187878787604051600081526020016040526040516124399493929190613a7e565b6020604051602081039080840390855afa15801561245b573d6000803e3d6000fd5b505050602060405103519050600073ffffffffffffffffffffffffffffffffffffffff168173ffffffffffffffffffffffffffffffffffffffff1614156124aa576000600192509250506124b3565b80600092509250505b94509492505050565b600060048111156124d0576124cf613ac3565b5b8160048111156124e3576124e2613ac3565b5b14156124ee5761268e565b6001600481111561250257612501613ac3565b5b81600481111561251557612514613ac3565b5b1415612556576040517f08c379a000000000000000000000000000000000000000000000000000000000815260040161254d90613b3e565b60405180910390fd5b6002600481111561256a57612569613ac3565b5b81600481111561257d5761257c613ac3565b5b14156125be576040517f08c379a00000000000000000000000000000000000000000000000000000000081526004016125b590613baa565b60405180910390fd5b600360048111156125d2576125d1613ac3565b5b8160048111156125e5576125e4613ac3565b5b1415612626576040517f08c379a000000000000000000000000000000000000000000000000000000000815260040161261d90613c3c565b60405180910390fd5b60048081111561263957612638613ac3565b5b81600481111561264c5761264b613ac3565b5b141561268d576040517f08c379a000000000000000000000000000000000000000000000000000000000815260040161268490613cce565b60405180910390fd5b5b50565b6001816000016000828254019250508190555050565b505050565b60007bffffffffffffffffffffffffffffffffffffffffffffffffffffffff801682111561270f576040517f08c379a000000000000000000000000000000000000000000000000000000000815260040161270690613d60565b60405180910390fd5b819050919050565b6040518060400160405280600063ffffffff16815260200160007bffffffffffffffffffffffffffffffffffffffffffffffffffffffff1681525090565b600081519050919050565b600082825260208201905092915050565b60005b8381101561278f578082015181840152602081019050612774565b8381111561279e576000848401525b50505050565b6000601f19601f8301169050919050565b60006127c082612755565b6127ca8185612760565b93506127da818560208601612771565b6127e3816127a4565b840191505092915050565b6000602082019050818103600083015261280881846127b5565b905092915050565b600080fd5b600073ffffffffffffffffffffffffffffffffffffffff82169050919050565b600061284082612815565b9050919050565b61285081612835565b811461285b57600080fd5b50565b60008135905061286d81612847565b92915050565b6000819050919050565b61288681612873565b811461289157600080fd5b50565b6000813590506128a38161287d565b92915050565b600080604083850312156128c0576128bf612810565b5b60006128ce8582860161285e565b92505060206128df85828601612894565b9150509250929050565b60008115159050919050565b6128fe816128e9565b82525050565b600060208201905061291960008301846128f5565b92915050565b61292881612873565b82525050565b6000602082019050612943600083018461291f565b92915050565b60008060006060848603121561296257612961612810565b5b60006129708682870161285e565b93505060206129818682870161285e565b925050604061299286828701612894565b9150509250925092565b600060ff82169050919050565b6129b28161299c565b82525050565b60006020820190506129cd60008301846129a9565b92915050565b6000819050919050565b6129e6816129d3565b82525050565b6000602082019050612a0160008301846129dd565b92915050565b600060208284031215612a1d57612a1c612810565b5b6000612a2b8482850161285e565b91505092915050565b612a3d81612835565b82525050565b6000602082019050612a586000830184612a34565b92915050565b600063ffffffff82169050919050565b612a7781612a5e565b82525050565b6000602082019050612a926000830184612a6e565b92915050565b60006bffffffffffffffffffffffff82169050919050565b612ab981612a98565b82525050565b6000602082019050612ad46000830184612ab0565b92915050565b600060208284031215612af057612aef612810565b5b6000612afe84828501612894565b91505092915050565b612b108161299c565b8114612b1b57600080fd5b50565b600081359050612b2d81612b07565b92915050565b612b3c816129d3565b8114612b4757600080fd5b50565b600081359050612b5981612b33565b92915050565b60008060008060008060c08789031215612b7c57612b7b612810565b5b6000612b8a89828a0161285e565b9650506020612b9b89828a01612894565b9550506040612bac89828a01612894565b9450506060612bbd89828a01612b1e565b9350506080612bce89828a01612b4a565b92505060a0612bdf89828a01612b4a565b9150509295509295509295565b600080600080600080600060e0888a031215612c0b57612c0a612810565b5b6000612c198a828b0161285e565b9750506020612c2a8a828b0161285e565b9650506040612c3b8a828b01612894565b9550506060612c4c8a828b01612894565b9450506080612c5d8a828b01612b1e565b93505060a0612c6e8a828b01612b4a565b92505060c0612c7f8a828b01612b4a565b91505092959891949750929550565b60008060408385031215612ca557612ca4612810565b5b6000612cb38582860161285e565b9250506020612cc48582860161285e565b9150509250929050565b612cd781612a5e565b8114612ce257600080fd5b50565b600081359050612cf481612cce565b92915050565b60008060408385031215612d1157612d10612810565b5b6000612d1f8582860161285e565b9250506020612d3085828601612ce5565b9150509250929050565b612d4381612a5e565b82525050565b60007bffffffffffffffffffffffffffffffffffffffffffffffffffffffff82169050919050565b612d7a81612d49565b82525050565b604082016000820151612d966000850182612d3a565b506020820151612da96020850182612d71565b50505050565b6000604082019050612dc46000830184612d80565b92915050565b7f4e487b7100000000000000000000000000000000000000000000000000000000600052602260045260246000fd5b60006002820490506001821680612e1157607f821691505b60208210811415612e2557612e24612dca565b5b50919050565b7f4e487b7100000000000000000000000000000000000000000000000000000000600052601160045260246000fd5b6000612e6582612873565b9150612e7083612873565b9250827fffffffffffffffffffffffffffffffffffffffffffffffffffffffffffffffff03821115612ea557612ea4612e2b565b5b828201905092915050565b7f4552433230566f7465733a20626c6f636b206e6f7420796574206d696e656400600082015250565b6000612ee6601f83612760565b9150612ef182612eb0565b602082019050919050565b60006020820190508181036000830152612f1581612ed9565b9050919050565b6000612f2782612873565b9150612f3283612873565b925082821015612f4557612f44612e2b565b5b828203905092915050565b7f4e487b7100000000000000000000000000000000000000000000000000000000600052603260045260246000fd5b7f45524332303a2064656372656173656420616c6c6f77616e63652062656c6f7760008201527f207a65726f000000000000000000000000000000000000000000000000000000602082015250565b6000612fdb602583612760565b9150612fe682612f7f565b604082019050919050565b6000602082019050818103600083015261300a81612fce565b9050919050565b7f4552433230566f7465733a207369676e61747572652065787069726564000000600082015250565b6000613047601d83612760565b915061305282613011565b602082019050919050565b600060208201905081810360008301526130768161303a565b9050919050565b600060808201905061309260008301876129dd565b61309f6020830186612a34565b6130ac604083018561291f565b6130b9606083018461291f565b95945050505050565b7f4552433230566f7465733a20696e76616c6964206e6f6e636500000000000000600082015250565b60006130f8601983612760565b9150613103826130c2565b602082019050919050565b60006020820190508181036000830152613127816130eb565b9050919050565b7f45524332305065726d69743a206578706972656420646561646c696e65000000600082015250565b6000613164601d83612760565b915061316f8261312e565b602082019050919050565b6000602082019050818103600083015261319381613157565b9050919050565b600060c0820190506131af60008301896129dd565b6131bc6020830188612a34565b6131c96040830187612a34565b6131d6606083018661291f565b6131e3608083018561291f565b6131f060a083018461291f565b979650505050505050565b7f45524332305065726d69743a20696e76616c6964207369676e61747572650000600082015250565b6000613231601e83612760565b915061323c826131fb565b602082019050919050565b6000602082019050818103600083015261326081613224565b9050919050565b7f45524332303a20617070726f76652066726f6d20746865207a65726f2061646460008201527f7265737300000000000000000000000000000000000000000000000000000000602082015250565b60006132c3602483612760565b91506132ce82613267565b604082019050919050565b600060208201905081810360008301526132f2816132b6565b9050919050565b7f45524332303a20617070726f766520746f20746865207a65726f20616464726560008201527f7373000000000000000000000000000000000000000000000000000000000000602082015250565b6000613355602283612760565b9150613360826132f9565b604082019050919050565b6000602082019050818103600083015261338481613348565b9050919050565b7f45524332303a20696e73756666696369656e7420616c6c6f77616e6365000000600082015250565b60006133c1601d83612760565b91506133cc8261338b565b602082019050919050565b600060208201905081810360008301526133f0816133b4565b9050919050565b7f45524332303a207472616e736665722066726f6d20746865207a65726f20616460008201527f6472657373000000000000000000000000000000000000000000000000000000602082015250565b6000613453602583612760565b915061345e826133f7565b604082019050919050565b6000602082019050818103600083015261348281613446565b9050919050565b7f45524332303a207472616e7366657220746f20746865207a65726f206164647260008201527f6573730000000000000000000000000000000000000000000000000000000000602082015250565b60006134e5602383612760565b91506134f082613489565b604082019050919050565b60006020820190508181036000830152613514816134d8565b9050919050565b7f45524332303a207472616e7366657220616d6f756e742065786365656473206260008201527f616c616e63650000000000000000000000000000000000000000000000000000602082015250565b6000613577602683612760565b91506135828261351b565b604082019050919050565b600060208201905081810360008301526135a68161356a565b9050919050565b7f4552433230566f7465733a20746f74616c20737570706c79207269736b73206f60008201527f766572666c6f77696e6720766f74657300000000000000000000000000000000602082015250565b6000613609603083612760565b9150613614826135ad565b604082019050919050565b60006020820190508181036000830152613638816135fc565b9050919050565b7f53616665436173743a2076616c756520646f65736e27742066697420696e203360008201527f3220626974730000000000000000000000000000000000000000000000000000602082015250565b600061369b602683612760565b91506136a68261363f565b604082019050919050565b600060208201905081810360008301526136ca8161368e565b9050919050565b7f53616665436173743a2076616c756520646f65736e27742066697420696e203960008201527f3620626974730000000000000000000000000000000000000000000000000000602082015250565b600061372d602683612760565b9150613738826136d1565b604082019050919050565b6000602082019050818103600083015261375c81613720565b9050919050565b600060a08201905061377860008301886129dd565b61378560208301876129dd565b61379260408301866129dd565b61379f606083018561291f565b6137ac6080830184612a34565b9695505050505050565b7f4e487b7100000000000000000000000000000000000000000000000000000000600052601260045260246000fd5b60006137f082612873565b91506137fb83612873565b92508261380b5761380a6137b6565b5b828204905092915050565b7f45524332303a206d696e7420746f20746865207a65726f206164647265737300600082015250565b600061384c601f83612760565b915061385782613816565b602082019050919050565b6000602082019050818103600083015261387b8161383f565b9050919050565b6000604082019050613897600083018561291f565b6138a4602083018461291f565b9392505050565b7f45524332303a206275726e2066726f6d20746865207a65726f2061646472657360008201527f7300000000000000000000000000000000000000000000000000000000000000602082015250565b6000613907602183612760565b9150613912826138ab565b604082019050919050565b60006020820190508181036000830152613936816138fa565b9050919050565b7f45524332303a206275726e20616d6f756e7420657863656564732062616c616e60008201527f6365000000000000000000000000000000000000000000000000000000000000602082015250565b6000613999602283612760565b91506139a48261393d565b604082019050919050565b600060208201905081810360008301526139c88161398c565b9050919050565b600081905092915050565b7f1901000000000000000000000000000000000000000000000000000000000000600082015250565b6000613a106002836139cf565b9150613a1b826139da565b600282019050919050565b6000819050919050565b613a41613a3c826129d3565b613a26565b82525050565b6000613a5282613a03565b9150613a5e8285613a30565b602082019150613a6e8284613a30565b6020820191508190509392505050565b6000608082019050613a9360008301876129dd565b613aa060208301866129a9565b613aad60408301856129dd565b613aba60608301846129dd565b95945050505050565b7f4e487b7100000000000000000000000000000000000000000000000000000000600052602160045260246000fd5b7f45434453413a20696e76616c6964207369676e61747572650000000000000000600082015250565b6000613b28601883612760565b9150613b3382613af2565b602082019050919050565b60006020820190508181036000830152613b5781613b1b565b9050919050565b7f45434453413a20696e76616c6964207369676e6174757265206c656e67746800600082015250565b6000613b94601f83612760565b9150613b9f82613b5e565b602082019050919050565b60006020820190508181036000830152613bc381613b87565b9050919050565b7f45434453413a20696e76616c6964207369676e6174757265202773272076616c60008201527f7565000000000000000000000000000000000000000000000000000000000000602082015250565b6000613c26602283612760565b9150613c3182613bca565b604082019050919050565b60006020820190508181036000830152613c5581613c19565b9050919050565b7f45434453413a20696e76616c6964207369676e6174757265202776272076616c60008201527f7565000000000000000000000000000000000000000000000000000000000000602082015250565b6000613cb8602283612760565b9150613cc382613c5c565b604082019050919050565b60006020820190508181036000830152613ce781613cab565b9050919050565b7f53616665436173743a2076616c756520646f65736e27742066697420696e203260008201527f3234206269747300000000000000000000000000000000000000000000000000602082015250565b6000613d4a602783612760565b9150613d5582613cee565b604082019050919050565b60006020820190508181036000830152613d7981613d3d565b905091905056fea2646970667358221220e1c418788f39e61e751135b11ac7587f136e188cc3e11ea83be524b7e5ca1ef464736f6c634300080b0033",
  "immutableReferences": {
    "25142": [
      {
        "length": 32,
        "start": 3654
      }
    ],
    "31235": [
      {
        "length": 32,
        "start": 5691
      }
    ],
    "31237": [
      {
        "length": 32,
        "start": 5650
      }
    ],
    "31239": [
      {
        "length": 32,
        "start": 5564
      }
    ],
    "31241": [
      {
        "length": 32,
        "start": 5767
      }
    ],
    "31243": [
      {
        "length": 32,
        "start": 5800
      }
    ],
    "31245": [
      {
        "length": 32,
        "start": 5734
      }
    ]
  },
  "source": "// SPDX-License-Identifier: MIT\n\npragma solidity ^0.8.0;\n\nimport \"../token/ERC20/extensions/ERC20VotesComp.sol\";\n\ncontract ERC20VotesCompMock is ERC20VotesComp {\n    constructor(string memory name, string memory symbol) ERC20(name, symbol) ERC20Permit(name) {}\n\n    function mint(address account, uint256 amount) public {\n        _mint(account, amount);\n    }\n\n    function burn(address account, uint256 amount) public {\n        _burn(account, amount);\n    }\n\n    function getChainId() external view returns (uint256) {\n        return block.chainid;\n    }\n}\n",
  "sourcePath": "D:\\03.block-chain\\01.miquelTC__nft-marketplace\\test-proj\\nft-marketplace-master\\src\\contracts\\ERC721\\mocks\\ERC20VotesCompMock.sol",
  "compiler": {
    "name": "solc",
    "version": "0.8.11+commit.d7f03943.Emscripten.clang"
  },
  "schemaVersion": "3.4.4",
  "updatedAt": "2022-02-16T02:59:58.416Z",
  "devdoc": {
    "kind": "dev",
    "methods": {
      "DOMAIN_SEPARATOR()": {
        "details": "See {IERC20Permit-DOMAIN_SEPARATOR}."
      },
      "allowance(address,address)": {
        "details": "See {IERC20-allowance}."
      },
      "approve(address,uint256)": {
        "details": "See {IERC20-approve}. NOTE: If `amount` is the maximum `uint256`, the allowance is not updated on `transferFrom`. This is semantically equivalent to an infinite approval. Requirements: - `spender` cannot be the zero address."
      },
      "balanceOf(address)": {
        "details": "See {IERC20-balanceOf}."
      },
      "checkpoints(address,uint32)": {
        "details": "Get the `pos`-th checkpoint for `account`."
      },
      "decimals()": {
        "details": "Returns the number of decimals used to get its user representation. For example, if `decimals` equals `2`, a balance of `505` tokens should be displayed to a user as `5.05` (`505 / 10 ** 2`). Tokens usually opt for a value of 18, imitating the relationship between Ether and Wei. This is the value {ERC20} uses, unless this function is overridden; NOTE: This information is only used for _display_ purposes: it in no way affects any of the arithmetic of the contract, including {IERC20-balanceOf} and {IERC20-transfer}."
      },
      "decreaseAllowance(address,uint256)": {
        "details": "Atomically decreases the allowance granted to `spender` by the caller. This is an alternative to {approve} that can be used as a mitigation for problems described in {IERC20-approve}. Emits an {Approval} event indicating the updated allowance. Requirements: - `spender` cannot be the zero address. - `spender` must have allowance for the caller of at least `subtractedValue`."
      },
      "delegate(address)": {
        "details": "Delegate votes from the sender to `delegatee`."
      },
      "delegateBySig(address,uint256,uint256,uint8,bytes32,bytes32)": {
        "details": "Delegates votes from signer to `delegatee`"
      },
      "delegates(address)": {
        "details": "Get the address `account` is currently delegating to."
      },
      "getCurrentVotes(address)": {
        "details": "Comp version of the {getVotes} accessor, with `uint96` return type."
      },
      "getPastTotalSupply(uint256)": {
        "details": "Retrieve the `totalSupply` at the end of `blockNumber`. Note, this value is the sum of all balances. It is but NOT the sum of all the delegated votes! Requirements: - `blockNumber` must have been already mined"
      },
      "getPastVotes(address,uint256)": {
        "details": "Retrieve the number of votes for `account` at the end of `blockNumber`. Requirements: - `blockNumber` must have been already mined"
      },
      "getPriorVotes(address,uint256)": {
        "details": "Comp version of the {getPastVotes} accessor, with `uint96` return type."
      },
      "getVotes(address)": {
        "details": "Gets the current votes balance for `account`"
      },
      "increaseAllowance(address,uint256)": {
        "details": "Atomically increases the allowance granted to `spender` by the caller. This is an alternative to {approve} that can be used as a mitigation for problems described in {IERC20-approve}. Emits an {Approval} event indicating the updated allowance. Requirements: - `spender` cannot be the zero address."
      },
      "name()": {
        "details": "Returns the name of the token."
      },
      "nonces(address)": {
        "details": "See {IERC20Permit-nonces}."
      },
      "numCheckpoints(address)": {
        "details": "Get number of checkpoints for `account`."
      },
      "permit(address,address,uint256,uint256,uint8,bytes32,bytes32)": {
        "details": "See {IERC20Permit-permit}."
      },
      "symbol()": {
        "details": "Returns the symbol of the token, usually a shorter version of the name."
      },
      "totalSupply()": {
        "details": "See {IERC20-totalSupply}."
      },
      "transfer(address,uint256)": {
        "details": "See {IERC20-transfer}. Requirements: - `to` cannot be the zero address. - the caller must have a balance of at least `amount`."
      },
      "transferFrom(address,address,uint256)": {
        "details": "See {IERC20-transferFrom}. Emits an {Approval} event indicating the updated allowance. This is not required by the EIP. See the note at the beginning of {ERC20}. NOTE: Does not update the allowance if the current allowance is the maximum `uint256`. Requirements: - `from` and `to` cannot be the zero address. - `from` must have a balance of at least `amount`. - the caller must have allowance for ``from``'s tokens of at least `amount`."
      }
    },
    "version": 1
  },
  "userdoc": {
    "kind": "user",
    "methods": {},
    "version": 1
  }
}