{
  "contractName": "ERC20WrapperMock",
  "abi": [
    {
      "inputs": [
        {
          "internalType": "contract IERC20",
          "name": "_underlyingToken",
          "type": "address"
        },
        {
          "internalType": "string",
          "name": "name",
          "type": "string"
        },
        {
          "internalType": "string",
          "name": "symbol",
          "type": "string"
        }
      ],
      "stateMutability": "nonpayable",
      "type": "constructor"
    },
    {
      "anonymous": false,
      "inputs": [
        {
          "indexed": true,
          "internalType": "address",
          "name": "owner",
          "type": "address"
        },
        {
          "indexed": true,
          "internalType": "address",
          "name": "spender",
          "type": "address"
        },
        {
          "indexed": false,
          "internalType": "uint256",
          "name": "value",
          "type": "uint256"
        }
      ],
      "name": "Approval",
      "type": "event"
    },
    {
      "anonymous": false,
      "inputs": [
        {
          "indexed": true,
          "internalType": "address",
          "name": "from",
          "type": "address"
        },
        {
          "indexed": true,
          "internalType": "address",
          "name": "to",
          "type": "address"
        },
        {
          "indexed": false,
          "internalType": "uint256",
          "name": "value",
          "type": "uint256"
        }
      ],
      "name": "Transfer",
      "type": "event"
    },
    {
      "inputs": [
        {
          "internalType": "address",
          "name": "owner",
          "type": "address"
        },
        {
          "internalType": "address",
          "name": "spender",
          "type": "address"
        }
      ],
      "name": "allowance",
      "outputs": [
        {
          "internalType": "uint256",
          "name": "",
          "type": "uint256"
        }
      ],
      "stateMutability": "view",
      "type": "function"
    },
    {
      "inputs": [
        {
          "internalType": "address",
          "name": "spender",
          "type": "address"
        },
        {
          "internalType": "uint256",
          "name": "amount",
          "type": "uint256"
        }
      ],
      "name": "approve",
      "outputs": [
        {
          "internalType": "bool",
          "name": "",
          "type": "bool"
        }
      ],
      "stateMutability": "nonpayable",
      "type": "function"
    },
    {
      "inputs": [
        {
          "internalType": "address",
          "name": "account",
          "type": "address"
        }
      ],
      "name": "balanceOf",
      "outputs": [
        {
          "internalType": "uint256",
          "name": "",
          "type": "uint256"
        }
      ],
      "stateMutability": "view",
      "type": "function"
    },
    {
      "inputs": [],
      "name": "decimals",
      "outputs": [
        {
          "internalType": "uint8",
          "name": "",
          "type": "uint8"
        }
      ],
      "stateMutability": "view",
      "type": "function"
    },
    {
      "inputs": [
        {
          "internalType": "address",
          "name": "spender",
          "type": "address"
        },
        {
          "internalType": "uint256",
          "name": "subtractedValue",
          "type": "uint256"
        }
      ],
      "name": "decreaseAllowance",
      "outputs": [
        {
          "internalType": "bool",
          "name": "",
          "type": "bool"
        }
      ],
      "stateMutability": "nonpayable",
      "type": "function"
    },
    {
      "inputs": [
        {
          "internalType": "address",
          "name": "account",
          "type": "address"
        },
        {
          "internalType": "uint256",
          "name": "amount",
          "type": "uint256"
        }
      ],
      "name": "depositFor",
      "outputs": [
        {
          "internalType": "bool",
          "name": "",
          "type": "bool"
        }
      ],
      "stateMutability": "nonpayable",
      "type": "function"
    },
    {
      "inputs": [
        {
          "internalType": "address",
          "name": "spender",
          "type": "address"
        },
        {
          "internalType": "uint256",
          "name": "addedValue",
          "type": "uint256"
        }
      ],
      "name": "increaseAllowance",
      "outputs": [
        {
          "internalType": "bool",
          "name": "",
          "type": "bool"
        }
      ],
      "stateMutability": "nonpayable",
      "type": "function"
    },
    {
      "inputs": [],
      "name": "name",
      "outputs": [
        {
          "internalType": "string",
          "name": "",
          "type": "string"
        }
      ],
      "stateMutability": "view",
      "type": "function"
    },
    {
      "inputs": [],
      "name": "symbol",
      "outputs": [
        {
          "internalType": "string",
          "name": "",
          "type": "string"
        }
      ],
      "stateMutability": "view",
      "type": "function"
    },
    {
      "inputs": [],
      "name": "totalSupply",
      "outputs": [
        {
          "internalType": "uint256",
          "name": "",
          "type": "uint256"
        }
      ],
      "stateMutability": "view",
      "type": "function"
    },
    {
      "inputs": [
        {
          "internalType": "address",
          "name": "to",
          "type": "address"
        },
        {
          "internalType": "uint256",
          "name": "amount",
          "type": "uint256"
        }
      ],
      "name": "transfer",
      "outputs": [
        {
          "internalType": "bool",
          "name": "",
          "type": "bool"
        }
      ],
      "stateMutability": "nonpayable",
      "type": "function"
    },
    {
      "inputs": [
        {
          "internalType": "address",
          "name": "from",
          "type": "address"
        },
        {
          "internalType": "address",
          "name": "to",
          "type": "address"
        },
        {
          "internalType": "uint256",
          "name": "amount",
          "type": "uint256"
        }
      ],
      "name": "transferFrom",
      "outputs": [
        {
          "internalType": "bool",
          "name": "",
          "type": "bool"
        }
      ],
      "stateMutability": "nonpayable",
      "type": "function"
    },
    {
      "inputs": [],
      "name": "underlying",
      "outputs": [
        {
          "internalType": "contract IERC20",
          "name": "",
          "type": "address"
        }
      ],
      "stateMutability": "view",
      "type": "function"
    },
    {
      "inputs": [
        {
          "internalType": "address",
          "name": "account",
          "type": "address"
        },
        {
          "internalType": "uint256",
          "name": "amount",
          "type": "uint256"
        }
      ],
      "name": "withdrawTo",
      "outputs": [
        {
          "internalType": "bool",
          "name": "",
          "type": "bool"
        }
      ],
      "stateMutability": "nonpayable",
      "type": "function"
    },
    {
      "inputs": [
        {
          "internalType": "address",
          "name": "account",
          "type": "address"
        }
      ],
      "name": "recover",
      "outputs": [
        {
          "internalType": "uint256",
          "name": "",
          "type": "uint256"
        }
      ],
      "stateMutability": "nonpayable",
      "type": "function"
    }
  ],
  "bytecode": "0x60a06040523480156200001157600080fd5b506040516200268938038062002689833981810160405281019062000037919062000372565b828282816003908051906020019062000052929190620000ac565b5080600490805190602001906200006b929190620000ac565b5050508073ffffffffffffffffffffffffffffffffffffffff1660808173ffffffffffffffffffffffffffffffffffffffff16815250505050505062000471565b828054620000ba906200043b565b90600052602060002090601f016020900481019282620000de57600085556200012a565b82601f10620000f957805160ff19168380011785556200012a565b828001600101855582156200012a579182015b82811115620001295782518255916020019190600101906200010c565b5b5090506200013991906200013d565b5090565b5b80821115620001585760008160009055506001016200013e565b5090565b6000604051905090565b600080fd5b600080fd5b600073ffffffffffffffffffffffffffffffffffffffff82169050919050565b60006200019d8262000170565b9050919050565b6000620001b18262000190565b9050919050565b620001c381620001a4565b8114620001cf57600080fd5b50565b600081519050620001e381620001b8565b92915050565b600080fd5b600080fd5b6000601f19601f8301169050919050565b7f4e487b7100000000000000000000000000000000000000000000000000000000600052604160045260246000fd5b6200023e82620001f3565b810181811067ffffffffffffffff8211171562000260576200025f62000204565b5b80604052505050565b6000620002756200015c565b905062000283828262000233565b919050565b600067ffffffffffffffff821115620002a657620002a562000204565b5b620002b182620001f3565b9050602081019050919050565b60005b83811015620002de578082015181840152602081019050620002c1565b83811115620002ee576000848401525b50505050565b60006200030b620003058462000288565b62000269565b9050828152602081018484840111156200032a5762000329620001ee565b5b62000337848285620002be565b509392505050565b600082601f830112620003575762000356620001e9565b5b815162000369848260208601620002f4565b91505092915050565b6000806000606084860312156200038e576200038d62000166565b5b60006200039e86828701620001d2565b935050602084015167ffffffffffffffff811115620003c257620003c16200016b565b5b620003d0868287016200033f565b925050604084015167ffffffffffffffff811115620003f457620003f36200016b565b5b62000402868287016200033f565b9150509250925092565b7f4e487b7100000000000000000000000000000000000000000000000000000000600052602260045260246000fd5b600060028204905060018216806200045457607f821691505b602082108114156200046b576200046a6200040c565b5b50919050565b6080516121e7620004a260003960008181610459015281816104bf015281816105b60152610a2601526121e76000f3fe608060405234801561001057600080fd5b50600436106100f55760003560e01c8063313ce5671161009757806395d89b411161006657806395d89b41146102c2578063a457c2d7146102e0578063a9059cbb14610310578063dd62ed3e14610340576100f5565b8063313ce5671461022657806339509351146102445780636f307dc31461027457806370a0823114610292576100f5565b806318160ddd116100d357806318160ddd14610178578063205c28781461019657806323b872dd146101c65780632f4f21e2146101f6576100f5565b806306fdde03146100fa578063095ea7b3146101185780630cd865ec14610148575b600080fd5b610102610370565b60405161010f9190611550565b60405180910390f35b610132600480360381019061012d919061160b565b610402565b60405161013f9190611666565b60405180910390f35b610162600480360381019061015d9190611681565b610425565b60405161016f91906116bd565b60405180910390f35b610180610437565b60405161018d91906116bd565b60405180910390f35b6101b060048036038101906101ab919061160b565b610441565b6040516101bd9190611666565b60405180910390f35b6101e060048036038101906101db91906116d8565b610489565b6040516101ed9190611666565b60405180910390f35b610210600480360381019061020b919061160b565b6104b8565b60405161021d9190611666565b60405180910390f35b61022e610501565b60405161023b9190611747565b60405180910390f35b61025e6004803603810190610259919061160b565b61050a565b60405161026b9190611666565b60405180910390f35b61027c6105b4565b60405161028991906117c1565b60405180910390f35b6102ac60048036038101906102a79190611681565b6105d8565b6040516102b991906116bd565b60405180910390f35b6102ca610620565b6040516102d79190611550565b60405180910390f35b6102fa60048036038101906102f5919061160b565b6106b2565b6040516103079190611666565b60405180910390f35b61032a6004803603810190610325919061160b565b61079c565b6040516103379190611666565b60405180910390f35b61035a600480360381019061035591906117dc565b6107bf565b60405161036791906116bd565b60405180910390f35b60606003805461037f9061184b565b80601f01602080910402602001604051908101604052809291908181526020018280546103ab9061184b565b80156103f85780601f106103cd576101008083540402835291602001916103f8565b820191906000526020600020905b8154815290600101906020018083116103db57829003601f168201915b5050505050905090565b60008061040d610846565b905061041a81858561084e565b600191505092915050565b600061043082610a19565b9050919050565b6000600254905090565b600061045461044e610846565b83610add565b61047f7f00000000000000000000000000000000000000000000000000000000000000008484610cb4565b6001905092915050565b600080610494610846565b90506104a1858285610d3a565b6104ac858585610dc6565b60019150509392505050565b60006104ed7f00000000000000000000000000000000000000000000000000000000000000006104e6610846565b3085611047565b6104f783836110d0565b6001905092915050565b60006012905090565b600080610515610846565b90506105a9818585600160008673ffffffffffffffffffffffffffffffffffffffff1673ffffffffffffffffffffffffffffffffffffffff16815260200190815260200160002060008973ffffffffffffffffffffffffffffffffffffffff1673ffffffffffffffffffffffffffffffffffffffff168152602001908152602001600020546105a491906118ac565b61084e565b600191505092915050565b7f000000000000000000000000000000000000000000000000000000000000000081565b60008060008373ffffffffffffffffffffffffffffffffffffffff1673ffffffffffffffffffffffffffffffffffffffff168152602001908152602001600020549050919050565b60606004805461062f9061184b565b80601f016020809104026020016040519081016040528092919081815260200182805461065b9061184b565b80156106a85780601f1061067d576101008083540402835291602001916106a8565b820191906000526020600020905b81548152906001019060200180831161068b57829003601f168201915b5050505050905090565b6000806106bd610846565b90506000600160008373ffffffffffffffffffffffffffffffffffffffff1673ffffffffffffffffffffffffffffffffffffffff16815260200190815260200160002060008673ffffffffffffffffffffffffffffffffffffffff1673ffffffffffffffffffffffffffffffffffffffff16815260200190815260200160002054905083811015610783576040517f08c379a000000000000000000000000000000000000000000000000000000000815260040161077a90611974565b60405180910390fd5b610790828686840361084e565b60019250505092915050565b6000806107a7610846565b90506107b4818585610dc6565b600191505092915050565b6000600160008473ffffffffffffffffffffffffffffffffffffffff1673ffffffffffffffffffffffffffffffffffffffff16815260200190815260200160002060008373ffffffffffffffffffffffffffffffffffffffff1673ffffffffffffffffffffffffffffffffffffffff16815260200190815260200160002054905092915050565b600033905090565b600073ffffffffffffffffffffffffffffffffffffffff168373ffffffffffffffffffffffffffffffffffffffff1614156108be576040517f08c379a00000000000000000000000000000000000000000000000000000000081526004016108b590611a06565b60405180910390fd5b600073ffffffffffffffffffffffffffffffffffffffff168273ffffffffffffffffffffffffffffffffffffffff16141561092e576040517f08c379a000000000000000000000000000000000000000000000000000000000815260040161092590611a98565b60405180910390fd5b80600160008573ffffffffffffffffffffffffffffffffffffffff1673ffffffffffffffffffffffffffffffffffffffff16815260200190815260200160002060008473ffffffffffffffffffffffffffffffffffffffff1673ffffffffffffffffffffffffffffffffffffffff168152602001908152602001600020819055508173ffffffffffffffffffffffffffffffffffffffff168373ffffffffffffffffffffffffffffffffffffffff167f8c5be1e5ebec7d5bd14f71427d1e84f3dd0314c0f7b2291e5b200ac8c7c3b92583604051610a0c91906116bd565b60405180910390a3505050565b600080610a24610437565b7f000000000000000000000000000000000000000000000000000000000000000073ffffffffffffffffffffffffffffffffffffffff166370a08231306040518263ffffffff1660e01b8152600401610a7d9190611ac7565b602060405180830381865afa158015610a9a573d6000803e3d6000fd5b505050506040513d601f19601f82011682018060405250810190610abe9190611af7565b610ac89190611b24565b9050610ad483826110d0565b80915050919050565b600073ffffffffffffffffffffffffffffffffffffffff168273ffffffffffffffffffffffffffffffffffffffff161415610b4d576040517f08c379a0000000000000000000000000000000000000000000000000000000008152600401610b4490611bca565b60405180910390fd5b610b5982600083611230565b60008060008473ffffffffffffffffffffffffffffffffffffffff1673ffffffffffffffffffffffffffffffffffffffff16815260200190815260200160002054905081811015610bdf576040517f08c379a0000000000000000000000000000000000000000000000000000000008152600401610bd690611c5c565b60405180910390fd5b8181036000808573ffffffffffffffffffffffffffffffffffffffff1673ffffffffffffffffffffffffffffffffffffffff168152602001908152602001600020819055508160026000828254610c369190611b24565b92505081905550600073ffffffffffffffffffffffffffffffffffffffff168373ffffffffffffffffffffffffffffffffffffffff167fddf252ad1be2c89b69c2b068fc378daa952ba7f163c4a11628f55a4df523b3ef84604051610c9b91906116bd565b60405180910390a3610caf83600084611235565b505050565b610d358363a9059cbb60e01b8484604051602401610cd3929190611c7c565b604051602081830303815290604052907bffffffffffffffffffffffffffffffffffffffffffffffffffffffff19166020820180517bffffffffffffffffffffffffffffffffffffffffffffffffffffffff838183161783525050505061123a565b505050565b6000610d4684846107bf565b90507fffffffffffffffffffffffffffffffffffffffffffffffffffffffffffffffff8114610dc05781811015610db2576040517f08c379a0000000000000000000000000000000000000000000000000000000008152600401610da990611cf1565b60405180910390fd5b610dbf848484840361084e565b5b50505050565b600073ffffffffffffffffffffffffffffffffffffffff168373ffffffffffffffffffffffffffffffffffffffff161415610e36576040517f08c379a0000000000000000000000000000000000000000000000000000000008152600401610e2d90611d83565b60405180910390fd5b600073ffffffffffffffffffffffffffffffffffffffff168273ffffffffffffffffffffffffffffffffffffffff161415610ea6576040517f08c379a0000000000000000000000000000000000000000000000000000000008152600401610e9d90611e15565b60405180910390fd5b610eb1838383611230565b60008060008573ffffffffffffffffffffffffffffffffffffffff1673ffffffffffffffffffffffffffffffffffffffff16815260200190815260200160002054905081811015610f37576040517f08c379a0000000000000000000000000000000000000000000000000000000008152600401610f2e90611ea7565b60405180910390fd5b8181036000808673ffffffffffffffffffffffffffffffffffffffff1673ffffffffffffffffffffffffffffffffffffffff16815260200190815260200160002081905550816000808573ffffffffffffffffffffffffffffffffffffffff1673ffffffffffffffffffffffffffffffffffffffff1681526020019081526020016000206000828254610fca91906118ac565b925050819055508273ffffffffffffffffffffffffffffffffffffffff168473ffffffffffffffffffffffffffffffffffffffff167fddf252ad1be2c89b69c2b068fc378daa952ba7f163c4a11628f55a4df523b3ef8460405161102e91906116bd565b60405180910390a3611041848484611235565b50505050565b6110ca846323b872dd60e01b85858560405160240161106893929190611ec7565b604051602081830303815290604052907bffffffffffffffffffffffffffffffffffffffffffffffffffffffff19166020820180517bffffffffffffffffffffffffffffffffffffffffffffffffffffffff838183161783525050505061123a565b50505050565b600073ffffffffffffffffffffffffffffffffffffffff168273ffffffffffffffffffffffffffffffffffffffff161415611140576040517f08c379a000000000000000000000000000000000000000000000000000000000815260040161113790611f4a565b60405180910390fd5b61114c60008383611230565b806002600082825461115e91906118ac565b92505081905550806000808473ffffffffffffffffffffffffffffffffffffffff1673ffffffffffffffffffffffffffffffffffffffff16815260200190815260200160002060008282546111b391906118ac565b925050819055508173ffffffffffffffffffffffffffffffffffffffff16600073ffffffffffffffffffffffffffffffffffffffff167fddf252ad1be2c89b69c2b068fc378daa952ba7f163c4a11628f55a4df523b3ef8360405161121891906116bd565b60405180910390a361122c60008383611235565b5050565b505050565b505050565b600061129c826040518060400160405280602081526020017f5361666545524332303a206c6f772d6c6576656c2063616c6c206661696c65648152508573ffffffffffffffffffffffffffffffffffffffff166113019092919063ffffffff16565b90506000815111156112fc57808060200190518101906112bc9190611f96565b6112fb576040517f08c379a00000000000000000000000000000000000000000000000000000000081526004016112f290612035565b60405180910390fd5b5b505050565b60606113108484600085611319565b90509392505050565b60608247101561135e576040517f08c379a0000000000000000000000000000000000000000000000000000000008152600401611355906120c7565b60405180910390fd5b6113678561142d565b6113a6576040517f08c379a000000000000000000000000000000000000000000000000000000000815260040161139d90612133565b60405180910390fd5b6000808673ffffffffffffffffffffffffffffffffffffffff1685876040516113cf919061219a565b60006040518083038185875af1925050503d806000811461140c576040519150601f19603f3d011682016040523d82523d6000602084013e611411565b606091505b5091509150611421828286611450565b92505050949350505050565b6000808273ffffffffffffffffffffffffffffffffffffffff163b119050919050565b60608315611460578290506114b0565b6000835111156114735782518084602001fd5b816040517f08c379a00000000000000000000000000000000000000000000000000000000081526004016114a79190611550565b60405180910390fd5b9392505050565b600081519050919050565b600082825260208201905092915050565b60005b838110156114f15780820151818401526020810190506114d6565b83811115611500576000848401525b50505050565b6000601f19601f8301169050919050565b6000611522826114b7565b61152c81856114c2565b935061153c8185602086016114d3565b61154581611506565b840191505092915050565b6000602082019050818103600083015261156a8184611517565b905092915050565b600080fd5b600073ffffffffffffffffffffffffffffffffffffffff82169050919050565b60006115a282611577565b9050919050565b6115b281611597565b81146115bd57600080fd5b50565b6000813590506115cf816115a9565b92915050565b6000819050919050565b6115e8816115d5565b81146115f357600080fd5b50565b600081359050611605816115df565b92915050565b6000806040838503121561162257611621611572565b5b6000611630858286016115c0565b9250506020611641858286016115f6565b9150509250929050565b60008115159050919050565b6116608161164b565b82525050565b600060208201905061167b6000830184611657565b92915050565b60006020828403121561169757611696611572565b5b60006116a5848285016115c0565b91505092915050565b6116b7816115d5565b82525050565b60006020820190506116d260008301846116ae565b92915050565b6000806000606084860312156116f1576116f0611572565b5b60006116ff868287016115c0565b9350506020611710868287016115c0565b9250506040611721868287016115f6565b9150509250925092565b600060ff82169050919050565b6117418161172b565b82525050565b600060208201905061175c6000830184611738565b92915050565b6000819050919050565b600061178761178261177d84611577565b611762565b611577565b9050919050565b60006117998261176c565b9050919050565b60006117ab8261178e565b9050919050565b6117bb816117a0565b82525050565b60006020820190506117d660008301846117b2565b92915050565b600080604083850312156117f3576117f2611572565b5b6000611801858286016115c0565b9250506020611812858286016115c0565b9150509250929050565b7f4e487b7100000000000000000000000000000000000000000000000000000000600052602260045260246000fd5b6000600282049050600182168061186357607f821691505b602082108114156118775761187661181c565b5b50919050565b7f4e487b7100000000000000000000000000000000000000000000000000000000600052601160045260246000fd5b60006118b7826115d5565b91506118c2836115d5565b9250827fffffffffffffffffffffffffffffffffffffffffffffffffffffffffffffffff038211156118f7576118f661187d565b5b828201905092915050565b7f45524332303a2064656372656173656420616c6c6f77616e63652062656c6f7760008201527f207a65726f000000000000000000000000000000000000000000000000000000602082015250565b600061195e6025836114c2565b915061196982611902565b604082019050919050565b6000602082019050818103600083015261198d81611951565b9050919050565b7f45524332303a20617070726f76652066726f6d20746865207a65726f2061646460008201527f7265737300000000000000000000000000000000000000000000000000000000602082015250565b60006119f06024836114c2565b91506119fb82611994565b604082019050919050565b60006020820190508181036000830152611a1f816119e3565b9050919050565b7f45524332303a20617070726f766520746f20746865207a65726f20616464726560008201527f7373000000000000000000000000000000000000000000000000000000000000602082015250565b6000611a826022836114c2565b9150611a8d82611a26565b604082019050919050565b60006020820190508181036000830152611ab181611a75565b9050919050565b611ac181611597565b82525050565b6000602082019050611adc6000830184611ab8565b92915050565b600081519050611af1816115df565b92915050565b600060208284031215611b0d57611b0c611572565b5b6000611b1b84828501611ae2565b91505092915050565b6000611b2f826115d5565b9150611b3a836115d5565b925082821015611b4d57611b4c61187d565b5b828203905092915050565b7f45524332303a206275726e2066726f6d20746865207a65726f2061646472657360008201527f7300000000000000000000000000000000000000000000000000000000000000602082015250565b6000611bb46021836114c2565b9150611bbf82611b58565b604082019050919050565b60006020820190508181036000830152611be381611ba7565b9050919050565b7f45524332303a206275726e20616d6f756e7420657863656564732062616c616e60008201527f6365000000000000000000000000000000000000000000000000000000000000602082015250565b6000611c466022836114c2565b9150611c5182611bea565b604082019050919050565b60006020820190508181036000830152611c7581611c39565b9050919050565b6000604082019050611c916000830185611ab8565b611c9e60208301846116ae565b9392505050565b7f45524332303a20696e73756666696369656e7420616c6c6f77616e6365000000600082015250565b6000611cdb601d836114c2565b9150611ce682611ca5565b602082019050919050565b60006020820190508181036000830152611d0a81611cce565b9050919050565b7f45524332303a207472616e736665722066726f6d20746865207a65726f20616460008201527f6472657373000000000000000000000000000000000000000000000000000000602082015250565b6000611d6d6025836114c2565b9150611d7882611d11565b604082019050919050565b60006020820190508181036000830152611d9c81611d60565b9050919050565b7f45524332303a207472616e7366657220746f20746865207a65726f206164647260008201527f6573730000000000000000000000000000000000000000000000000000000000602082015250565b6000611dff6023836114c2565b9150611e0a82611da3565b604082019050919050565b60006020820190508181036000830152611e2e81611df2565b9050919050565b7f45524332303a207472616e7366657220616d6f756e742065786365656473206260008201527f616c616e63650000000000000000000000000000000000000000000000000000602082015250565b6000611e916026836114c2565b9150611e9c82611e35565b604082019050919050565b60006020820190508181036000830152611ec081611e84565b9050919050565b6000606082019050611edc6000830186611ab8565b611ee96020830185611ab8565b611ef660408301846116ae565b949350505050565b7f45524332303a206d696e7420746f20746865207a65726f206164647265737300600082015250565b6000611f34601f836114c2565b9150611f3f82611efe565b602082019050919050565b60006020820190508181036000830152611f6381611f27565b9050919050565b611f738161164b565b8114611f7e57600080fd5b50565b600081519050611f9081611f6a565b92915050565b600060208284031215611fac57611fab611572565b5b6000611fba84828501611f81565b91505092915050565b7f5361666545524332303a204552433230206f7065726174696f6e20646964206e60008201527f6f74207375636365656400000000000000000000000000000000000000000000602082015250565b600061201f602a836114c2565b915061202a82611fc3565b604082019050919050565b6000602082019050818103600083015261204e81612012565b9050919050565b7f416464726573733a20696e73756666696369656e742062616c616e636520666f60008201527f722063616c6c0000000000000000000000000000000000000000000000000000602082015250565b60006120b16026836114c2565b91506120bc82612055565b604082019050919050565b600060208201905081810360008301526120e0816120a4565b9050919050565b7f416464726573733a2063616c6c20746f206e6f6e2d636f6e7472616374000000600082015250565b600061211d601d836114c2565b9150612128826120e7565b602082019050919050565b6000602082019050818103600083015261214c81612110565b9050919050565b600081519050919050565b600081905092915050565b600061217482612153565b61217e818561215e565b935061218e8185602086016114d3565b80840191505092915050565b60006121a68284612169565b91508190509291505056fea26469706673582212203025b6be8a0d3d5af8d11f5909690824724c28ec7875fd7633dda4322d81f09c64736f6c634300080b0033",
  "immutableReferences": {
    "24990": [
      {
        "length": 32,
        "start": 1113
      },
      {
        "length": 32,
        "start": 1215
      },
      {
        "length": 32,
        "start": 1462
      },
      {
        "length": 32,
        "start": 2598
      }
    ]
  },
  "source": "// SPDX-License-Identifier: MIT\n\npragma solidity ^0.8.0;\n\nimport \"../token/ERC20/extensions/ERC20Wrapper.sol\";\n\ncontract ERC20WrapperMock is ERC20Wrapper {\n    constructor(\n        IERC20 _underlyingToken,\n        string memory name,\n        string memory symbol\n    ) ERC20(name, symbol) ERC20Wrapper(_underlyingToken) {}\n\n    function recover(address account) public returns (uint256) {\n        return _recover(account);\n    }\n}\n",
  "sourcePath": "D:\\03.block-chain\\01.miquelTC__nft-marketplace\\test-proj\\nft-marketplace-master\\src\\contracts\\ERC721\\mocks\\ERC20WrapperMock.sol",
  "compiler": {
    "name": "solc",
    "version": "0.8.11+commit.d7f03943.Emscripten.clang"
  },
  "schemaVersion": "3.4.4",
  "updatedAt": "2022-02-16T02:59:58.442Z",
  "devdoc": {
    "kind": "dev",
    "methods": {
      "allowance(address,address)": {
        "details": "See {IERC20-allowance}."
      },
      "approve(address,uint256)": {
        "details": "See {IERC20-approve}. NOTE: If `amount` is the maximum `uint256`, the allowance is not updated on `transferFrom`. This is semantically equivalent to an infinite approval. Requirements: - `spender` cannot be the zero address."
      },
      "balanceOf(address)": {
        "details": "See {IERC20-balanceOf}."
      },
      "decimals()": {
        "details": "Returns the number of decimals used to get its user representation. For example, if `decimals` equals `2`, a balance of `505` tokens should be displayed to a user as `5.05` (`505 / 10 ** 2`). Tokens usually opt for a value of 18, imitating the relationship between Ether and Wei. This is the value {ERC20} uses, unless this function is overridden; NOTE: This information is only used for _display_ purposes: it in no way affects any of the arithmetic of the contract, including {IERC20-balanceOf} and {IERC20-transfer}."
      },
      "decreaseAllowance(address,uint256)": {
        "details": "Atomically decreases the allowance granted to `spender` by the caller. This is an alternative to {approve} that can be used as a mitigation for problems described in {IERC20-approve}. Emits an {Approval} event indicating the updated allowance. Requirements: - `spender` cannot be the zero address. - `spender` must have allowance for the caller of at least `subtractedValue`."
      },
      "depositFor(address,uint256)": {
        "details": "Allow a user to deposit underlying tokens and mint the corresponding number of wrapped tokens."
      },
      "increaseAllowance(address,uint256)": {
        "details": "Atomically increases the allowance granted to `spender` by the caller. This is an alternative to {approve} that can be used as a mitigation for problems described in {IERC20-approve}. Emits an {Approval} event indicating the updated allowance. Requirements: - `spender` cannot be the zero address."
      },
      "name()": {
        "details": "Returns the name of the token."
      },
      "symbol()": {
        "details": "Returns the symbol of the token, usually a shorter version of the name."
      },
      "totalSupply()": {
        "details": "See {IERC20-totalSupply}."
      },
      "transfer(address,uint256)": {
        "details": "See {IERC20-transfer}. Requirements: - `to` cannot be the zero address. - the caller must have a balance of at least `amount`."
      },
      "transferFrom(address,address,uint256)": {
        "details": "See {IERC20-transferFrom}. Emits an {Approval} event indicating the updated allowance. This is not required by the EIP. See the note at the beginning of {ERC20}. NOTE: Does not update the allowance if the current allowance is the maximum `uint256`. Requirements: - `from` and `to` cannot be the zero address. - `from` must have a balance of at least `amount`. - the caller must have allowance for ``from``'s tokens of at least `amount`."
      },
      "withdrawTo(address,uint256)": {
        "details": "Allow a user to burn a number of wrapped tokens and withdraw the corresponding number of underlying tokens."
      }
    },
    "version": 1
  },
  "userdoc": {
    "kind": "user",
    "methods": {},
    "version": 1
  }
}