{
  "contractName": "ERC20CappedMock",
  "abi": [
    {
      "inputs": [
        {
          "internalType": "string",
          "name": "name",
          "type": "string"
        },
        {
          "internalType": "string",
          "name": "symbol",
          "type": "string"
        },
        {
          "internalType": "uint256",
          "name": "cap",
          "type": "uint256"
        }
      ],
      "stateMutability": "nonpayable",
      "type": "constructor"
    },
    {
      "anonymous": false,
      "inputs": [
        {
          "indexed": true,
          "internalType": "address",
          "name": "owner",
          "type": "address"
        },
        {
          "indexed": true,
          "internalType": "address",
          "name": "spender",
          "type": "address"
        },
        {
          "indexed": false,
          "internalType": "uint256",
          "name": "value",
          "type": "uint256"
        }
      ],
      "name": "Approval",
      "type": "event"
    },
    {
      "anonymous": false,
      "inputs": [
        {
          "indexed": true,
          "internalType": "address",
          "name": "from",
          "type": "address"
        },
        {
          "indexed": true,
          "internalType": "address",
          "name": "to",
          "type": "address"
        },
        {
          "indexed": false,
          "internalType": "uint256",
          "name": "value",
          "type": "uint256"
        }
      ],
      "name": "Transfer",
      "type": "event"
    },
    {
      "inputs": [
        {
          "internalType": "address",
          "name": "owner",
          "type": "address"
        },
        {
          "internalType": "address",
          "name": "spender",
          "type": "address"
        }
      ],
      "name": "allowance",
      "outputs": [
        {
          "internalType": "uint256",
          "name": "",
          "type": "uint256"
        }
      ],
      "stateMutability": "view",
      "type": "function"
    },
    {
      "inputs": [
        {
          "internalType": "address",
          "name": "spender",
          "type": "address"
        },
        {
          "internalType": "uint256",
          "name": "amount",
          "type": "uint256"
        }
      ],
      "name": "approve",
      "outputs": [
        {
          "internalType": "bool",
          "name": "",
          "type": "bool"
        }
      ],
      "stateMutability": "nonpayable",
      "type": "function"
    },
    {
      "inputs": [
        {
          "internalType": "address",
          "name": "account",
          "type": "address"
        }
      ],
      "name": "balanceOf",
      "outputs": [
        {
          "internalType": "uint256",
          "name": "",
          "type": "uint256"
        }
      ],
      "stateMutability": "view",
      "type": "function"
    },
    {
      "inputs": [],
      "name": "cap",
      "outputs": [
        {
          "internalType": "uint256",
          "name": "",
          "type": "uint256"
        }
      ],
      "stateMutability": "view",
      "type": "function"
    },
    {
      "inputs": [],
      "name": "decimals",
      "outputs": [
        {
          "internalType": "uint8",
          "name": "",
          "type": "uint8"
        }
      ],
      "stateMutability": "view",
      "type": "function"
    },
    {
      "inputs": [
        {
          "internalType": "address",
          "name": "spender",
          "type": "address"
        },
        {
          "internalType": "uint256",
          "name": "subtractedValue",
          "type": "uint256"
        }
      ],
      "name": "decreaseAllowance",
      "outputs": [
        {
          "internalType": "bool",
          "name": "",
          "type": "bool"
        }
      ],
      "stateMutability": "nonpayable",
      "type": "function"
    },
    {
      "inputs": [
        {
          "internalType": "address",
          "name": "spender",
          "type": "address"
        },
        {
          "internalType": "uint256",
          "name": "addedValue",
          "type": "uint256"
        }
      ],
      "name": "increaseAllowance",
      "outputs": [
        {
          "internalType": "bool",
          "name": "",
          "type": "bool"
        }
      ],
      "stateMutability": "nonpayable",
      "type": "function"
    },
    {
      "inputs": [],
      "name": "name",
      "outputs": [
        {
          "internalType": "string",
          "name": "",
          "type": "string"
        }
      ],
      "stateMutability": "view",
      "type": "function"
    },
    {
      "inputs": [],
      "name": "symbol",
      "outputs": [
        {
          "internalType": "string",
          "name": "",
          "type": "string"
        }
      ],
      "stateMutability": "view",
      "type": "function"
    },
    {
      "inputs": [],
      "name": "totalSupply",
      "outputs": [
        {
          "internalType": "uint256",
          "name": "",
          "type": "uint256"
        }
      ],
      "stateMutability": "view",
      "type": "function"
    },
    {
      "inputs": [
        {
          "internalType": "address",
          "name": "to",
          "type": "address"
        },
        {
          "internalType": "uint256",
          "name": "amount",
          "type": "uint256"
        }
      ],
      "name": "transfer",
      "outputs": [
        {
          "internalType": "bool",
          "name": "",
          "type": "bool"
        }
      ],
      "stateMutability": "nonpayable",
      "type": "function"
    },
    {
      "inputs": [
        {
          "internalType": "address",
          "name": "from",
          "type": "address"
        },
        {
          "internalType": "address",
          "name": "to",
          "type": "address"
        },
        {
          "internalType": "uint256",
          "name": "amount",
          "type": "uint256"
        }
      ],
      "name": "transferFrom",
      "outputs": [
        {
          "internalType": "bool",
          "name": "",
          "type": "bool"
        }
      ],
      "stateMutability": "nonpayable",
      "type": "function"
    },
    {
      "inputs": [
        {
          "internalType": "address",
          "name": "to",
          "type": "address"
        },
        {
          "internalType": "uint256",
          "name": "tokenId",
          "type": "uint256"
        }
      ],
      "name": "mint",
      "outputs": [],
      "stateMutability": "nonpayable",
      "type": "function"
    }
  ],
  "bytecode": "0x60a06040523480156200001157600080fd5b5060405162001b7238038062001b7283398181016040528101906200003791906200034e565b808383816003908051906020019062000052929190620000c6565b5080600490805190602001906200006b929190620000c6565b50505060008111620000b4576040517f08c379a0000000000000000000000000000000000000000000000000000000008152600401620000ab9062000449565b60405180910390fd5b806080818152505050505050620004d0565b828054620000d4906200049a565b90600052602060002090601f016020900481019282620000f8576000855562000144565b82601f106200011357805160ff191683800117855562000144565b8280016001018555821562000144579182015b828111156200014357825182559160200191906001019062000126565b5b50905062000153919062000157565b5090565b5b808211156200017257600081600090555060010162000158565b5090565b6000604051905090565b600080fd5b600080fd5b600080fd5b600080fd5b6000601f19601f8301169050919050565b7f4e487b7100000000000000000000000000000000000000000000000000000000600052604160045260246000fd5b620001df8262000194565b810181811067ffffffffffffffff82111715620002015762000200620001a5565b5b80604052505050565b60006200021662000176565b9050620002248282620001d4565b919050565b600067ffffffffffffffff821115620002475762000246620001a5565b5b620002528262000194565b9050602081019050919050565b60005b838110156200027f57808201518184015260208101905062000262565b838111156200028f576000848401525b50505050565b6000620002ac620002a68462000229565b6200020a565b905082815260208101848484011115620002cb57620002ca6200018f565b5b620002d88482856200025f565b509392505050565b600082601f830112620002f857620002f76200018a565b5b81516200030a84826020860162000295565b91505092915050565b6000819050919050565b620003288162000313565b81146200033457600080fd5b50565b60008151905062000348816200031d565b92915050565b6000806000606084860312156200036a576200036962000180565b5b600084015167ffffffffffffffff8111156200038b576200038a62000185565b5b6200039986828701620002e0565b935050602084015167ffffffffffffffff811115620003bd57620003bc62000185565b5b620003cb86828701620002e0565b9250506040620003de8682870162000337565b9150509250925092565b600082825260208201905092915050565b7f45524332304361707065643a2063617020697320300000000000000000000000600082015250565b600062000431601583620003e8565b91506200043e82620003f9565b602082019050919050565b60006020820190508181036000830152620004648162000422565b9050919050565b7f4e487b7100000000000000000000000000000000000000000000000000000000600052602260045260246000fd5b60006002820490506001821680620004b357607f821691505b60208210811415620004ca57620004c96200046b565b5b50919050565b608051611686620004ec60003960006103d101526116866000f3fe608060405234801561001057600080fd5b50600436106100cf5760003560e01c8063395093511161008c57806395d89b411161006657806395d89b4114610228578063a457c2d714610246578063a9059cbb14610276578063dd62ed3e146102a6576100cf565b806339509351146101ac57806340c10f19146101dc57806370a08231146101f8576100cf565b806306fdde03146100d4578063095ea7b3146100f257806318160ddd1461012257806323b872dd14610140578063313ce56714610170578063355274ea1461018e575b600080fd5b6100dc6102d6565b6040516100e99190610e68565b60405180910390f35b61010c60048036038101906101079190610f23565b610368565b6040516101199190610f7e565b60405180910390f35b61012a61038b565b6040516101379190610fa8565b60405180910390f35b61015a60048036038101906101559190610fc3565b610395565b6040516101679190610f7e565b60405180910390f35b6101786103c4565b6040516101859190611032565b60405180910390f35b6101966103cd565b6040516101a39190610fa8565b60405180910390f35b6101c660048036038101906101c19190610f23565b6103f5565b6040516101d39190610f7e565b60405180910390f35b6101f660048036038101906101f19190610f23565b61049f565b005b610212600480360381019061020d919061104d565b6104ad565b60405161021f9190610fa8565b60405180910390f35b6102306104f5565b60405161023d9190610e68565b60405180910390f35b610260600480360381019061025b9190610f23565b610587565b60405161026d9190610f7e565b60405180910390f35b610290600480360381019061028b9190610f23565b610671565b60405161029d9190610f7e565b60405180910390f35b6102c060048036038101906102bb919061107a565b610694565b6040516102cd9190610fa8565b60405180910390f35b6060600380546102e5906110e9565b80601f0160208091040260200160405190810160405280929190818152602001828054610311906110e9565b801561035e5780601f106103335761010080835404028352916020019161035e565b820191906000526020600020905b81548152906001019060200180831161034157829003601f168201915b5050505050905090565b60008061037361071b565b9050610380818585610723565b600191505092915050565b6000600254905090565b6000806103a061071b565b90506103ad8582856108ee565b6103b885858561097a565b60019150509392505050565b60006012905090565b60007f0000000000000000000000000000000000000000000000000000000000000000905090565b60008061040061071b565b9050610494818585600160008673ffffffffffffffffffffffffffffffffffffffff1673ffffffffffffffffffffffffffffffffffffffff16815260200190815260200160002060008973ffffffffffffffffffffffffffffffffffffffff1673ffffffffffffffffffffffffffffffffffffffff1681526020019081526020016000205461048f919061114a565b610723565b600191505092915050565b6104a98282610bfb565b5050565b60008060008373ffffffffffffffffffffffffffffffffffffffff1673ffffffffffffffffffffffffffffffffffffffff168152602001908152602001600020549050919050565b606060048054610504906110e9565b80601f0160208091040260200160405190810160405280929190818152602001828054610530906110e9565b801561057d5780601f106105525761010080835404028352916020019161057d565b820191906000526020600020905b81548152906001019060200180831161056057829003601f168201915b5050505050905090565b60008061059261071b565b90506000600160008373ffffffffffffffffffffffffffffffffffffffff1673ffffffffffffffffffffffffffffffffffffffff16815260200190815260200160002060008673ffffffffffffffffffffffffffffffffffffffff1673ffffffffffffffffffffffffffffffffffffffff16815260200190815260200160002054905083811015610658576040517f08c379a000000000000000000000000000000000000000000000000000000000815260040161064f90611212565b60405180910390fd5b6106658286868403610723565b60019250505092915050565b60008061067c61071b565b905061068981858561097a565b600191505092915050565b6000600160008473ffffffffffffffffffffffffffffffffffffffff1673ffffffffffffffffffffffffffffffffffffffff16815260200190815260200160002060008373ffffffffffffffffffffffffffffffffffffffff1673ffffffffffffffffffffffffffffffffffffffff16815260200190815260200160002054905092915050565b600033905090565b600073ffffffffffffffffffffffffffffffffffffffff168373ffffffffffffffffffffffffffffffffffffffff161415610793576040517f08c379a000000000000000000000000000000000000000000000000000000000815260040161078a906112a4565b60405180910390fd5b600073ffffffffffffffffffffffffffffffffffffffff168273ffffffffffffffffffffffffffffffffffffffff161415610803576040517f08c379a00000000000000000000000000000000000000000000000000000000081526004016107fa90611336565b60405180910390fd5b80600160008573ffffffffffffffffffffffffffffffffffffffff1673ffffffffffffffffffffffffffffffffffffffff16815260200190815260200160002060008473ffffffffffffffffffffffffffffffffffffffff1673ffffffffffffffffffffffffffffffffffffffff168152602001908152602001600020819055508173ffffffffffffffffffffffffffffffffffffffff168373ffffffffffffffffffffffffffffffffffffffff167f8c5be1e5ebec7d5bd14f71427d1e84f3dd0314c0f7b2291e5b200ac8c7c3b925836040516108e19190610fa8565b60405180910390a3505050565b60006108fa8484610694565b90507fffffffffffffffffffffffffffffffffffffffffffffffffffffffffffffffff81146109745781811015610966576040517f08c379a000000000000000000000000000000000000000000000000000000000815260040161095d906113a2565b60405180910390fd5b6109738484848403610723565b5b50505050565b600073ffffffffffffffffffffffffffffffffffffffff168373ffffffffffffffffffffffffffffffffffffffff1614156109ea576040517f08c379a00000000000000000000000000000000000000000000000000000000081526004016109e190611434565b60405180910390fd5b600073ffffffffffffffffffffffffffffffffffffffff168273ffffffffffffffffffffffffffffffffffffffff161415610a5a576040517f08c379a0000000000000000000000000000000000000000000000000000000008152600401610a51906114c6565b60405180910390fd5b610a65838383610c65565b60008060008573ffffffffffffffffffffffffffffffffffffffff1673ffffffffffffffffffffffffffffffffffffffff16815260200190815260200160002054905081811015610aeb576040517f08c379a0000000000000000000000000000000000000000000000000000000008152600401610ae290611558565b60405180910390fd5b8181036000808673ffffffffffffffffffffffffffffffffffffffff1673ffffffffffffffffffffffffffffffffffffffff16815260200190815260200160002081905550816000808573ffffffffffffffffffffffffffffffffffffffff1673ffffffffffffffffffffffffffffffffffffffff1681526020019081526020016000206000828254610b7e919061114a565b925050819055508273ffffffffffffffffffffffffffffffffffffffff168473ffffffffffffffffffffffffffffffffffffffff167fddf252ad1be2c89b69c2b068fc378daa952ba7f163c4a11628f55a4df523b3ef84604051610be29190610fa8565b60405180910390a3610bf5848484610c6a565b50505050565b610c036103cd565b81610c0c61038b565b610c16919061114a565b1115610c57576040517f08c379a0000000000000000000000000000000000000000000000000000000008152600401610c4e906115c4565b60405180910390fd5b610c618282610c6f565b5050565b505050565b505050565b600073ffffffffffffffffffffffffffffffffffffffff168273ffffffffffffffffffffffffffffffffffffffff161415610cdf576040517f08c379a0000000000000000000000000000000000000000000000000000000008152600401610cd690611630565b60405180910390fd5b610ceb60008383610c65565b8060026000828254610cfd919061114a565b92505081905550806000808473ffffffffffffffffffffffffffffffffffffffff1673ffffffffffffffffffffffffffffffffffffffff1681526020019081526020016000206000828254610d52919061114a565b925050819055508173ffffffffffffffffffffffffffffffffffffffff16600073ffffffffffffffffffffffffffffffffffffffff167fddf252ad1be2c89b69c2b068fc378daa952ba7f163c4a11628f55a4df523b3ef83604051610db79190610fa8565b60405180910390a3610dcb60008383610c6a565b5050565b600081519050919050565b600082825260208201905092915050565b60005b83811015610e09578082015181840152602081019050610dee565b83811115610e18576000848401525b50505050565b6000601f19601f8301169050919050565b6000610e3a82610dcf565b610e448185610dda565b9350610e54818560208601610deb565b610e5d81610e1e565b840191505092915050565b60006020820190508181036000830152610e828184610e2f565b905092915050565b600080fd5b600073ffffffffffffffffffffffffffffffffffffffff82169050919050565b6000610eba82610e8f565b9050919050565b610eca81610eaf565b8114610ed557600080fd5b50565b600081359050610ee781610ec1565b92915050565b6000819050919050565b610f0081610eed565b8114610f0b57600080fd5b50565b600081359050610f1d81610ef7565b92915050565b60008060408385031215610f3a57610f39610e8a565b5b6000610f4885828601610ed8565b9250506020610f5985828601610f0e565b9150509250929050565b60008115159050919050565b610f7881610f63565b82525050565b6000602082019050610f936000830184610f6f565b92915050565b610fa281610eed565b82525050565b6000602082019050610fbd6000830184610f99565b92915050565b600080600060608486031215610fdc57610fdb610e8a565b5b6000610fea86828701610ed8565b9350506020610ffb86828701610ed8565b925050604061100c86828701610f0e565b9150509250925092565b600060ff82169050919050565b61102c81611016565b82525050565b60006020820190506110476000830184611023565b92915050565b60006020828403121561106357611062610e8a565b5b600061107184828501610ed8565b91505092915050565b6000806040838503121561109157611090610e8a565b5b600061109f85828601610ed8565b92505060206110b085828601610ed8565b9150509250929050565b7f4e487b7100000000000000000000000000000000000000000000000000000000600052602260045260246000fd5b6000600282049050600182168061110157607f821691505b60208210811415611115576111146110ba565b5b50919050565b7f4e487b7100000000000000000000000000000000000000000000000000000000600052601160045260246000fd5b600061115582610eed565b915061116083610eed565b9250827fffffffffffffffffffffffffffffffffffffffffffffffffffffffffffffffff038211156111955761119461111b565b5b828201905092915050565b7f45524332303a2064656372656173656420616c6c6f77616e63652062656c6f7760008201527f207a65726f000000000000000000000000000000000000000000000000000000602082015250565b60006111fc602583610dda565b9150611207826111a0565b604082019050919050565b6000602082019050818103600083015261122b816111ef565b9050919050565b7f45524332303a20617070726f76652066726f6d20746865207a65726f2061646460008201527f7265737300000000000000000000000000000000000000000000000000000000602082015250565b600061128e602483610dda565b915061129982611232565b604082019050919050565b600060208201905081810360008301526112bd81611281565b9050919050565b7f45524332303a20617070726f766520746f20746865207a65726f20616464726560008201527f7373000000000000000000000000000000000000000000000000000000000000602082015250565b6000611320602283610dda565b915061132b826112c4565b604082019050919050565b6000602082019050818103600083015261134f81611313565b9050919050565b7f45524332303a20696e73756666696369656e7420616c6c6f77616e6365000000600082015250565b600061138c601d83610dda565b915061139782611356565b602082019050919050565b600060208201905081810360008301526113bb8161137f565b9050919050565b7f45524332303a207472616e736665722066726f6d20746865207a65726f20616460008201527f6472657373000000000000000000000000000000000000000000000000000000602082015250565b600061141e602583610dda565b9150611429826113c2565b604082019050919050565b6000602082019050818103600083015261144d81611411565b9050919050565b7f45524332303a207472616e7366657220746f20746865207a65726f206164647260008201527f6573730000000000000000000000000000000000000000000000000000000000602082015250565b60006114b0602383610dda565b91506114bb82611454565b604082019050919050565b600060208201905081810360008301526114df816114a3565b9050919050565b7f45524332303a207472616e7366657220616d6f756e742065786365656473206260008201527f616c616e63650000000000000000000000000000000000000000000000000000602082015250565b6000611542602683610dda565b915061154d826114e6565b604082019050919050565b6000602082019050818103600083015261157181611535565b9050919050565b7f45524332304361707065643a2063617020657863656564656400000000000000600082015250565b60006115ae601983610dda565b91506115b982611578565b602082019050919050565b600060208201905081810360008301526115dd816115a1565b9050919050565b7f45524332303a206d696e7420746f20746865207a65726f206164647265737300600082015250565b600061161a601f83610dda565b9150611625826115e4565b602082019050919050565b600060208201905081810360008301526116498161160d565b905091905056fea2646970667358221220b5e7ffc303406413fb505f81039d4c713a2c7cdd3cd7f951c3c5a65fbf10a70864736f6c634300080b0033",
  "immutableReferences": {
    "23690": [
      {
        "length": 32,
        "start": 977
      }
    ]
  },
  "source": "// SPDX-License-Identifier: MIT\n\npragma solidity ^0.8.0;\n\nimport \"../token/ERC20/extensions/ERC20Capped.sol\";\n\ncontract ERC20CappedMock is ERC20Capped {\n    constructor(\n        string memory name,\n        string memory symbol,\n        uint256 cap\n    ) ERC20(name, symbol) ERC20Capped(cap) {}\n\n    function mint(address to, uint256 tokenId) public {\n        _mint(to, tokenId);\n    }\n}\n",
  "sourcePath": "D:\\03.block-chain\\01.miquelTC__nft-marketplace\\test-proj\\nft-marketplace-master\\src\\contracts\\ERC721\\mocks\\ERC20CappedMock.sol",
  "compiler": {
    "name": "solc",
    "version": "0.8.11+commit.d7f03943.Emscripten.clang"
  },
  "schemaVersion": "3.4.4",
  "updatedAt": "2022-02-16T02:59:58.354Z",
  "devdoc": {
    "kind": "dev",
    "methods": {
      "allowance(address,address)": {
        "details": "See {IERC20-allowance}."
      },
      "approve(address,uint256)": {
        "details": "See {IERC20-approve}. NOTE: If `amount` is the maximum `uint256`, the allowance is not updated on `transferFrom`. This is semantically equivalent to an infinite approval. Requirements: - `spender` cannot be the zero address."
      },
      "balanceOf(address)": {
        "details": "See {IERC20-balanceOf}."
      },
      "cap()": {
        "details": "Returns the cap on the token's total supply."
      },
      "decimals()": {
        "details": "Returns the number of decimals used to get its user representation. For example, if `decimals` equals `2`, a balance of `505` tokens should be displayed to a user as `5.05` (`505 / 10 ** 2`). Tokens usually opt for a value of 18, imitating the relationship between Ether and Wei. This is the value {ERC20} uses, unless this function is overridden; NOTE: This information is only used for _display_ purposes: it in no way affects any of the arithmetic of the contract, including {IERC20-balanceOf} and {IERC20-transfer}."
      },
      "decreaseAllowance(address,uint256)": {
        "details": "Atomically decreases the allowance granted to `spender` by the caller. This is an alternative to {approve} that can be used as a mitigation for problems described in {IERC20-approve}. Emits an {Approval} event indicating the updated allowance. Requirements: - `spender` cannot be the zero address. - `spender` must have allowance for the caller of at least `subtractedValue`."
      },
      "increaseAllowance(address,uint256)": {
        "details": "Atomically increases the allowance granted to `spender` by the caller. This is an alternative to {approve} that can be used as a mitigation for problems described in {IERC20-approve}. Emits an {Approval} event indicating the updated allowance. Requirements: - `spender` cannot be the zero address."
      },
      "name()": {
        "details": "Returns the name of the token."
      },
      "symbol()": {
        "details": "Returns the symbol of the token, usually a shorter version of the name."
      },
      "totalSupply()": {
        "details": "See {IERC20-totalSupply}."
      },
      "transfer(address,uint256)": {
        "details": "See {IERC20-transfer}. Requirements: - `to` cannot be the zero address. - the caller must have a balance of at least `amount`."
      },
      "transferFrom(address,address,uint256)": {
        "details": "See {IERC20-transferFrom}. Emits an {Approval} event indicating the updated allowance. This is not required by the EIP. See the note at the beginning of {ERC20}. NOTE: Does not update the allowance if the current allowance is the maximum `uint256`. Requirements: - `from` and `to` cannot be the zero address. - `from` must have a balance of at least `amount`. - the caller must have allowance for ``from``'s tokens of at least `amount`."
      }
    },
    "version": 1
  },
  "userdoc": {
    "kind": "user",
    "methods": {},
    "version": 1
  }
}