{
  "contractName": "ERC721Shares",
  "abi": [
    {
      "inputs": [
        {
          "internalType": "string",
          "name": "__name",
          "type": "string"
        },
        {
          "internalType": "string",
          "name": "__symbol",
          "type": "string"
        },
        {
          "internalType": "contract ERC721Wrapper",
          "name": "_wrapper",
          "type": "address"
        },
        {
          "internalType": "uint256",
          "name": "_tokenId",
          "type": "uint256"
        },
        {
          "internalType": "address",
          "name": "_from",
          "type": "address"
        },
        {
          "internalType": "uint256",
          "name": "_sharesCount",
          "type": "uint256"
        },
        {
          "internalType": "uint8",
          "name": "_decimals",
          "type": "uint8"
        },
        {
          "internalType": "uint256",
          "name": "_sharePrice",
          "type": "uint256"
        },
        {
          "internalType": "contract IERC20",
          "name": "_paymentToken",
          "type": "address"
        },
        {
          "internalType": "bool",
          "name": "_remnant",
          "type": "bool"
        }
      ],
      "stateMutability": "nonpayable",
      "type": "constructor"
    },
    {
      "anonymous": false,
      "inputs": [
        {
          "indexed": true,
          "internalType": "address",
          "name": "owner",
          "type": "address"
        },
        {
          "indexed": true,
          "internalType": "address",
          "name": "spender",
          "type": "address"
        },
        {
          "indexed": false,
          "internalType": "uint256",
          "name": "value",
          "type": "uint256"
        }
      ],
      "name": "Approval",
      "type": "event"
    },
    {
      "anonymous": false,
      "inputs": [
        {
          "indexed": true,
          "internalType": "address",
          "name": "_from",
          "type": "address"
        },
        {
          "indexed": true,
          "internalType": "address",
          "name": "_target",
          "type": "address"
        },
        {
          "indexed": true,
          "internalType": "uint256",
          "name": "_tokenId",
          "type": "uint256"
        },
        {
          "indexed": false,
          "internalType": "address",
          "name": "_shares",
          "type": "address"
        },
        {
          "indexed": false,
          "internalType": "uint256",
          "name": "_sharesCount",
          "type": "uint256"
        }
      ],
      "name": "Claim",
      "type": "event"
    },
    {
      "anonymous": false,
      "inputs": [
        {
          "indexed": true,
          "internalType": "address",
          "name": "_from",
          "type": "address"
        },
        {
          "indexed": true,
          "internalType": "address",
          "name": "_target",
          "type": "address"
        },
        {
          "indexed": true,
          "internalType": "uint256",
          "name": "_tokenId",
          "type": "uint256"
        },
        {
          "indexed": false,
          "internalType": "address",
          "name": "_shares",
          "type": "address"
        }
      ],
      "name": "Redeem",
      "type": "event"
    },
    {
      "anonymous": false,
      "inputs": [
        {
          "indexed": true,
          "internalType": "address",
          "name": "_from",
          "type": "address"
        },
        {
          "indexed": true,
          "internalType": "address",
          "name": "_target",
          "type": "address"
        },
        {
          "indexed": true,
          "internalType": "uint256",
          "name": "_tokenId",
          "type": "uint256"
        },
        {
          "indexed": false,
          "internalType": "address",
          "name": "_shares",
          "type": "address"
        }
      ],
      "name": "Securitize",
      "type": "event"
    },
    {
      "anonymous": false,
      "inputs": [
        {
          "indexed": true,
          "internalType": "address",
          "name": "from",
          "type": "address"
        },
        {
          "indexed": true,
          "internalType": "address",
          "name": "to",
          "type": "address"
        },
        {
          "indexed": false,
          "internalType": "uint256",
          "name": "value",
          "type": "uint256"
        }
      ],
      "name": "Transfer",
      "type": "event"
    },
    {
      "inputs": [
        {
          "internalType": "address",
          "name": "owner",
          "type": "address"
        },
        {
          "internalType": "address",
          "name": "spender",
          "type": "address"
        }
      ],
      "name": "allowance",
      "outputs": [
        {
          "internalType": "uint256",
          "name": "",
          "type": "uint256"
        }
      ],
      "stateMutability": "view",
      "type": "function"
    },
    {
      "inputs": [
        {
          "internalType": "address",
          "name": "spender",
          "type": "address"
        },
        {
          "internalType": "uint256",
          "name": "amount",
          "type": "uint256"
        }
      ],
      "name": "approve",
      "outputs": [
        {
          "internalType": "bool",
          "name": "",
          "type": "bool"
        }
      ],
      "stateMutability": "nonpayable",
      "type": "function"
    },
    {
      "inputs": [
        {
          "internalType": "address",
          "name": "account",
          "type": "address"
        }
      ],
      "name": "balanceOf",
      "outputs": [
        {
          "internalType": "uint256",
          "name": "",
          "type": "uint256"
        }
      ],
      "stateMutability": "view",
      "type": "function"
    },
    {
      "inputs": [],
      "name": "decimals",
      "outputs": [
        {
          "internalType": "uint8",
          "name": "",
          "type": "uint8"
        }
      ],
      "stateMutability": "view",
      "type": "function"
    },
    {
      "inputs": [
        {
          "internalType": "address",
          "name": "spender",
          "type": "address"
        },
        {
          "internalType": "uint256",
          "name": "subtractedValue",
          "type": "uint256"
        }
      ],
      "name": "decreaseAllowance",
      "outputs": [
        {
          "internalType": "bool",
          "name": "",
          "type": "bool"
        }
      ],
      "stateMutability": "nonpayable",
      "type": "function"
    },
    {
      "inputs": [
        {
          "internalType": "address",
          "name": "spender",
          "type": "address"
        },
        {
          "internalType": "uint256",
          "name": "addedValue",
          "type": "uint256"
        }
      ],
      "name": "increaseAllowance",
      "outputs": [
        {
          "internalType": "bool",
          "name": "",
          "type": "bool"
        }
      ],
      "stateMutability": "nonpayable",
      "type": "function"
    },
    {
      "inputs": [],
      "name": "name",
      "outputs": [
        {
          "internalType": "string",
          "name": "",
          "type": "string"
        }
      ],
      "stateMutability": "view",
      "type": "function"
    },
    {
      "inputs": [
        {
          "internalType": "address",
          "name": "",
          "type": "address"
        },
        {
          "internalType": "address",
          "name": "",
          "type": "address"
        },
        {
          "internalType": "uint256",
          "name": "",
          "type": "uint256"
        },
        {
          "internalType": "bytes",
          "name": "",
          "type": "bytes"
        }
      ],
      "name": "onERC721Received",
      "outputs": [
        {
          "internalType": "bytes4",
          "name": "",
          "type": "bytes4"
        }
      ],
      "stateMutability": "nonpayable",
      "type": "function"
    },
    {
      "inputs": [],
      "name": "paymentToken",
      "outputs": [
        {
          "internalType": "contract IERC20",
          "name": "",
          "type": "address"
        }
      ],
      "stateMutability": "view",
      "type": "function"
    },
    {
      "inputs": [],
      "name": "released",
      "outputs": [
        {
          "internalType": "bool",
          "name": "",
          "type": "bool"
        }
      ],
      "stateMutability": "view",
      "type": "function"
    },
    {
      "inputs": [],
      "name": "remnant",
      "outputs": [
        {
          "internalType": "bool",
          "name": "",
          "type": "bool"
        }
      ],
      "stateMutability": "view",
      "type": "function"
    },
    {
      "inputs": [],
      "name": "sharePrice",
      "outputs": [
        {
          "internalType": "uint256",
          "name": "",
          "type": "uint256"
        }
      ],
      "stateMutability": "view",
      "type": "function"
    },
    {
      "inputs": [],
      "name": "sharesCount",
      "outputs": [
        {
          "internalType": "uint256",
          "name": "",
          "type": "uint256"
        }
      ],
      "stateMutability": "view",
      "type": "function"
    },
    {
      "inputs": [],
      "name": "symbol",
      "outputs": [
        {
          "internalType": "string",
          "name": "",
          "type": "string"
        }
      ],
      "stateMutability": "view",
      "type": "function"
    },
    {
      "inputs": [],
      "name": "tokenId",
      "outputs": [
        {
          "internalType": "uint256",
          "name": "",
          "type": "uint256"
        }
      ],
      "stateMutability": "view",
      "type": "function"
    },
    {
      "inputs": [],
      "name": "totalSupply",
      "outputs": [
        {
          "internalType": "uint256",
          "name": "",
          "type": "uint256"
        }
      ],
      "stateMutability": "view",
      "type": "function"
    },
    {
      "inputs": [
        {
          "internalType": "address",
          "name": "to",
          "type": "address"
        },
        {
          "internalType": "uint256",
          "name": "amount",
          "type": "uint256"
        }
      ],
      "name": "transfer",
      "outputs": [
        {
          "internalType": "bool",
          "name": "",
          "type": "bool"
        }
      ],
      "stateMutability": "nonpayable",
      "type": "function"
    },
    {
      "inputs": [
        {
          "internalType": "address",
          "name": "from",
          "type": "address"
        },
        {
          "internalType": "address",
          "name": "to",
          "type": "address"
        },
        {
          "internalType": "uint256",
          "name": "amount",
          "type": "uint256"
        }
      ],
      "name": "transferFrom",
      "outputs": [
        {
          "internalType": "bool",
          "name": "",
          "type": "bool"
        }
      ],
      "stateMutability": "nonpayable",
      "type": "function"
    },
    {
      "inputs": [],
      "name": "wrapper",
      "outputs": [
        {
          "internalType": "contract ERC721Wrapper",
          "name": "",
          "type": "address"
        }
      ],
      "stateMutability": "view",
      "type": "function"
    },
    {
      "inputs": [],
      "name": "exitPrice",
      "outputs": [
        {
          "internalType": "uint256",
          "name": "_exitPrice",
          "type": "uint256"
        }
      ],
      "stateMutability": "view",
      "type": "function"
    },
    {
      "inputs": [
        {
          "internalType": "address",
          "name": "_from",
          "type": "address"
        }
      ],
      "name": "redeemAmountOf",
      "outputs": [
        {
          "internalType": "uint256",
          "name": "_redeemAmount",
          "type": "uint256"
        }
      ],
      "stateMutability": "view",
      "type": "function"
    },
    {
      "inputs": [],
      "name": "vaultBalance",
      "outputs": [
        {
          "internalType": "uint256",
          "name": "_vaultBalance",
          "type": "uint256"
        }
      ],
      "stateMutability": "view",
      "type": "function"
    },
    {
      "inputs": [
        {
          "internalType": "address",
          "name": "_from",
          "type": "address"
        }
      ],
      "name": "vaultBalanceOf",
      "outputs": [
        {
          "internalType": "uint256",
          "name": "_vaultBalanceOf",
          "type": "uint256"
        }
      ],
      "stateMutability": "view",
      "type": "function"
    },
    {
      "inputs": [],
      "name": "redeem",
      "outputs": [],
      "stateMutability": "payable",
      "type": "function"
    },
    {
      "inputs": [],
      "name": "claim",
      "outputs": [],
      "stateMutability": "nonpayable",
      "type": "function"
    }
  ],
  "bytecode": "0x6101406040523480156200001257600080fd5b50604051620040283803806200402883398181016040528101906200003891906200078f565b89898160039080519060200190620000529291906200039d565b5080600490805190602001906200006b9291906200039d565b50505060016005819055508773ffffffffffffffffffffffffffffffffffffffff1660808173ffffffffffffffffffffffffffffffffffffffff16815250508660a081815250508460c081815250508260e081815250508173ffffffffffffffffffffffffffffffffffffffff166101008173ffffffffffffffffffffffffffffffffffffffff1681525050801515610120811515815250506000600660006101000a81548160ff0219169083151502179055506200013186866200021a60201b60201c565b868873ffffffffffffffffffffffffffffffffffffffff1663d4b839926040518163ffffffff1660e01b8152600401602060405180830381865afa1580156200017e573d6000803e3d6000fd5b505050506040513d601f19601f82011682018060405250810190620001a4919062000908565b73ffffffffffffffffffffffffffffffffffffffff168773ffffffffffffffffffffffffffffffffffffffff167fe259ac84bd3aee38e303a84136fa4b9af4453411ca90b8be2dd9adc7a42e90b8306040516200020291906200094b565b60405180910390a45050505050505050505062000b0a565b600073ffffffffffffffffffffffffffffffffffffffff168273ffffffffffffffffffffffffffffffffffffffff1614156200028d576040517f08c379a00000000000000000000000000000000000000000000000000000000081526004016200028490620009c9565b60405180910390fd5b620002a1600083836200039360201b60201c565b8060026000828254620002b5919062000a1a565b92505081905550806000808473ffffffffffffffffffffffffffffffffffffffff1673ffffffffffffffffffffffffffffffffffffffff16815260200190815260200160002060008282546200030c919062000a1a565b925050819055508173ffffffffffffffffffffffffffffffffffffffff16600073ffffffffffffffffffffffffffffffffffffffff167fddf252ad1be2c89b69c2b068fc378daa952ba7f163c4a11628f55a4df523b3ef8360405162000373919062000a88565b60405180910390a36200038f600083836200039860201b60201c565b5050565b505050565b505050565b828054620003ab9062000ad4565b90600052602060002090601f016020900481019282620003cf57600085556200041b565b82601f10620003ea57805160ff19168380011785556200041b565b828001600101855582156200041b579182015b828111156200041a578251825591602001919060010190620003fd565b5b5090506200042a91906200042e565b5090565b5b80821115620004495760008160009055506001016200042f565b5090565b6000604051905090565b600080fd5b600080fd5b600080fd5b600080fd5b6000601f19601f8301169050919050565b7f4e487b7100000000000000000000000000000000000000000000000000000000600052604160045260246000fd5b620004b6826200046b565b810181811067ffffffffffffffff82111715620004d857620004d76200047c565b5b80604052505050565b6000620004ed6200044d565b9050620004fb8282620004ab565b919050565b600067ffffffffffffffff8211156200051e576200051d6200047c565b5b62000529826200046b565b9050602081019050919050565b60005b838110156200055657808201518184015260208101905062000539565b8381111562000566576000848401525b50505050565b6000620005836200057d8462000500565b620004e1565b905082815260208101848484011115620005a257620005a162000466565b5b620005af84828562000536565b509392505050565b600082601f830112620005cf57620005ce62000461565b5b8151620005e18482602086016200056c565b91505092915050565b600073ffffffffffffffffffffffffffffffffffffffff82169050919050565b60006200061782620005ea565b9050919050565b60006200062b826200060a565b9050919050565b6200063d816200061e565b81146200064957600080fd5b50565b6000815190506200065d8162000632565b92915050565b6000819050919050565b620006788162000663565b81146200068457600080fd5b50565b60008151905062000698816200066d565b92915050565b620006a9816200060a565b8114620006b557600080fd5b50565b600081519050620006c9816200069e565b92915050565b600060ff82169050919050565b620006e781620006cf565b8114620006f357600080fd5b50565b6000815190506200070781620006dc565b92915050565b60006200071a826200060a565b9050919050565b6200072c816200070d565b81146200073857600080fd5b50565b6000815190506200074c8162000721565b92915050565b60008115159050919050565b620007698162000752565b81146200077557600080fd5b50565b60008151905062000789816200075e565b92915050565b6000806000806000806000806000806101408b8d031215620007b657620007b562000457565b5b60008b015167ffffffffffffffff811115620007d757620007d66200045c565b5b620007e58d828e01620005b7565b9a505060208b015167ffffffffffffffff8111156200080957620008086200045c565b5b620008178d828e01620005b7565b99505060406200082a8d828e016200064c565b98505060606200083d8d828e0162000687565b9750506080620008508d828e01620006b8565b96505060a0620008638d828e0162000687565b95505060c0620008768d828e01620006f6565b94505060e0620008898d828e0162000687565b9350506101006200089d8d828e016200073b565b925050610120620008b18d828e0162000778565b9150509295989b9194979a5092959850565b6000620008d0826200060a565b9050919050565b620008e281620008c3565b8114620008ee57600080fd5b50565b6000815190506200090281620008d7565b92915050565b60006020828403121562000921576200092062000457565b5b60006200093184828501620008f1565b91505092915050565b62000945816200060a565b82525050565b60006020820190506200096260008301846200093a565b92915050565b600082825260208201905092915050565b7f45524332303a206d696e7420746f20746865207a65726f206164647265737300600082015250565b6000620009b1601f8362000968565b9150620009be8262000979565b602082019050919050565b60006020820190508181036000830152620009e481620009a2565b9050919050565b7f4e487b7100000000000000000000000000000000000000000000000000000000600052601160045260246000fd5b600062000a278262000663565b915062000a348362000663565b9250827fffffffffffffffffffffffffffffffffffffffffffffffffffffffffffffffff0382111562000a6c5762000a6b620009eb565b5b828201905092915050565b62000a828162000663565b82525050565b600060208201905062000a9f600083018462000a77565b92915050565b7f4e487b7100000000000000000000000000000000000000000000000000000000600052602260045260246000fd5b6000600282049050600182168062000aed57607f821691505b6020821081141562000b045762000b0362000aa5565b5b50919050565b60805160a05160c05160e051610100516101205161343b62000bed6000396000818161126801526116710152600081816107a301528181610a0d01528181610a9b0152818161104b01526111920152600081816106ff015281816107fc01528181610c5501528181610ede0152610f20015260008181610d1e0152610f4101526000818161074601528181610ae20152818161124701528181611384015281816114d60152611547015260008181610b0301528181610e4f0152818161120a015281816112d90152818161142a015281816115680152611e6e015261343b6000f3fe6080604052600436106101665760003560e01c806370a08231116100d1578063a9059cbb1161008a578063b9c6b12b11610064578063b9c6b12b14610580578063be040fb0146105ab578063c67663c0146105b5578063dd62ed3e146105e057610166565b8063a9059cbb146104db578063ac210cc714610518578063b73b8c391461054357610166565b806370a08231146103b557806387269729146103f257806395d89b411461041d57806396132521146104485780639d555cfa14610473578063a457c2d71461049e57610166565b806323b872dd1161012357806323b872dd146102915780633013ce29146102ce578063313ce567146102f9578063313f85e81461032457806339509351146103615780634e71d92d1461039e57610166565b806306fdde031461016b578063095ea7b3146101965780630bf6cc08146101d3578063150b7a02146101fe57806317d70f7c1461023b57806318160ddd14610266575b600080fd5b34801561017757600080fd5b5061018061061d565b60405161018d91906122b2565b60405180910390f35b3480156101a257600080fd5b506101bd60048036038101906101b8919061237c565b6106af565b6040516101ca91906123d7565b60405180910390f35b3480156101df57600080fd5b506101e86106d2565b6040516101f59190612401565b60405180910390f35b34801561020a57600080fd5b5061022560048036038101906102209190612551565b610730565b604051610232919061260f565b60405180910390f35b34801561024757600080fd5b50610250610744565b60405161025d9190612401565b60405180910390f35b34801561027257600080fd5b5061027b610768565b6040516102889190612401565b60405180910390f35b34801561029d57600080fd5b506102b860048036038101906102b3919061262a565b610772565b6040516102c591906123d7565b60405180910390f35b3480156102da57600080fd5b506102e36107a1565b6040516102f091906126dc565b60405180910390f35b34801561030557600080fd5b5061030e6107c5565b60405161031b9190612713565b60405180910390f35b34801561033057600080fd5b5061034b6004803603810190610346919061272e565b6107ce565b6040516103589190612401565b60405180910390f35b34801561036d57600080fd5b506103886004803603810190610383919061237c565b61082f565b60405161039591906123d7565b60405180910390f35b3480156103aa57600080fd5b506103b36108d9565b005b3480156103c157600080fd5b506103dc60048036038101906103d7919061272e565b610c0b565b6040516103e99190612401565b60405180910390f35b3480156103fe57600080fd5b50610407610c53565b6040516104149190612401565b60405180910390f35b34801561042957600080fd5b50610432610c77565b60405161043f91906122b2565b60405180910390f35b34801561045457600080fd5b5061045d610d09565b60405161046a91906123d7565b60405180910390f35b34801561047f57600080fd5b50610488610d1c565b6040516104959190612401565b60405180910390f35b3480156104aa57600080fd5b506104c560048036038101906104c0919061237c565b610d40565b6040516104d291906123d7565b60405180910390f35b3480156104e757600080fd5b5061050260048036038101906104fd919061237c565b610e2a565b60405161050f91906123d7565b60405180910390f35b34801561052457600080fd5b5061052d610e4d565b60405161053a919061277c565b60405180910390f35b34801561054f57600080fd5b5061056a6004803603810190610565919061272e565b610e71565b6040516105779190612401565b60405180910390f35b34801561058c57600080fd5b50610595610f1c565b6040516105a29190612401565b60405180910390f35b6105b3610f6f565b005b3480156105c157600080fd5b506105ca61166f565b6040516105d791906123d7565b60405180910390f35b3480156105ec57600080fd5b5061060760048036038101906106029190612797565b611693565b6040516106149190612401565b60405180910390f35b60606003805461062c90612806565b80601f016020809104026020016040519081016040528092919081815260200182805461065890612806565b80156106a55780601f1061067a576101008083540402835291602001916106a5565b820191906000526020600020905b81548152906001019060200180831161068857829003601f168201915b5050505050905090565b6000806106ba61171a565b90506106c7818585611722565b600191505092915050565b6000600660009054906101000a900460ff166106f1576000905061072d565b60006106fb610768565b90507f0000000000000000000000000000000000000000000000000000000000000000816107299190612867565b9150505b90565b600063150b7a0260e01b9050949350505050565b7f000000000000000000000000000000000000000000000000000000000000000081565b6000600254905090565b60008061077d61171a565b905061078a8582856118ed565b610795858585611979565b60019150509392505050565b7f000000000000000000000000000000000000000000000000000000000000000081565b60006012905090565b6000600660009054906101000a900460ff166107ed576000905061082a565b60006107f883610c0b565b90507f0000000000000000000000000000000000000000000000000000000000000000816108269190612867565b9150505b919050565b60008061083a61171a565b90506108ce818585600160008673ffffffffffffffffffffffffffffffffffffffff1673ffffffffffffffffffffffffffffffffffffffff16815260200190815260200160002060008973ffffffffffffffffffffffffffffffffffffffff1673ffffffffffffffffffffffffffffffffffffffff168152602001908152602001600020546108c991906128c1565b611722565b600191505092915050565b6002600554141561091f576040517f08c379a000000000000000000000000000000000000000000000000000000000815260040161091690612963565b60405180910390fd5b6002600581905550600660009054906101000a900460ff16610976576040517f08c379a000000000000000000000000000000000000000000000000000000000815260040161096d906129cf565b60405180910390fd5b6000339050600061098682610c0b565b9050600081116109cb576040517f08c379a00000000000000000000000000000000000000000000000000000000081526004016109c290612a3b565b60405180910390fd5b60006109d6836107ce565b9050600081116109e9576109e8612a5b565b5b6109f38383611bfa565b600073ffffffffffffffffffffffffffffffffffffffff167f000000000000000000000000000000000000000000000000000000000000000073ffffffffffffffffffffffffffffffffffffffff161415610a94578273ffffffffffffffffffffffffffffffffffffffff166108fc829081150290604051600060405180830381858888f19350505050158015610a8e573d6000803e3d6000fd5b50610ae0565b610adf83827f000000000000000000000000000000000000000000000000000000000000000073ffffffffffffffffffffffffffffffffffffffff16611dd19092919063ffffffff16565b5b7f00000000000000000000000000000000000000000000000000000000000000007f000000000000000000000000000000000000000000000000000000000000000073ffffffffffffffffffffffffffffffffffffffff1663d4b839926040518163ffffffff1660e01b8152600401602060405180830381865afa158015610b6c573d6000803e3d6000fd5b505050506040513d601f19601f82011682018060405250810190610b909190612ac8565b73ffffffffffffffffffffffffffffffffffffffff168473ffffffffffffffffffffffffffffffffffffffff167fa2d3c4c1fc934d6d2d8f9e862df90c01ae4eb0e920cd8957d242ba26b8dc40783086604051610bee929190612b04565b60405180910390a4610bfe611e57565b5050506001600581905550565b60008060008373ffffffffffffffffffffffffffffffffffffffff1673ffffffffffffffffffffffffffffffffffffffff168152602001908152602001600020549050919050565b7f000000000000000000000000000000000000000000000000000000000000000081565b606060048054610c8690612806565b80601f0160208091040260200160405190810160405280929190818152602001828054610cb290612806565b8015610cff5780601f10610cd457610100808354040283529160200191610cff565b820191906000526020600020905b815481529060010190602001808311610ce257829003601f168201915b5050505050905090565b600660009054906101000a900460ff1681565b7f000000000000000000000000000000000000000000000000000000000000000081565b600080610d4b61171a565b90506000600160008373ffffffffffffffffffffffffffffffffffffffff1673ffffffffffffffffffffffffffffffffffffffff16815260200190815260200160002060008673ffffffffffffffffffffffffffffffffffffffff1673ffffffffffffffffffffffffffffffffffffffff16815260200190815260200160002054905083811015610e11576040517f08c379a0000000000000000000000000000000000000000000000000000000008152600401610e0890612b9f565b60405180910390fd5b610e1e8286868403611722565b60019250505092915050565b600080610e3561171a565b9050610e42818585611979565b600191505092915050565b7f000000000000000000000000000000000000000000000000000000000000000081565b6000600660009054906101000a900460ff1615610ec3576040517f08c379a0000000000000000000000000000000000000000000000000000000008152600401610eba90612c0b565b60405180910390fd5b6000610ece83610c0b565b90506000610eda610f1c565b90507f000000000000000000000000000000000000000000000000000000000000000082610f089190612867565b81610f139190612c2b565b92505050919050565b60007f00000000000000000000000000000000000000000000000000000000000000007f0000000000000000000000000000000000000000000000000000000000000000610f6a9190612867565b905090565b60026005541415610fb5576040517f08c379a0000000000000000000000000000000000000000000000000000000008152600401610fac90612963565b60405180910390fd5b6002600581905550600660009054906101000a900460ff161561100d576040517f08c379a000000000000000000000000000000000000000000000000000000000815260040161100490612c0b565b60405180910390fd5b60003390506000349050600061102283610c0b565b9050600061102f84610e71565b9050600073ffffffffffffffffffffffffffffffffffffffff167f000000000000000000000000000000000000000000000000000000000000000073ffffffffffffffffffffffffffffffffffffffff16141561113057808310156110c9576040517f08c379a00000000000000000000000000000000000000000000000000000000081526004016110c090612cab565b60405180910390fd5b600081846110d79190612c2b565b9050600081111561112a578473ffffffffffffffffffffffffffffffffffffffff166108fc829081150290604051600060405180830381858888f19350505050158015611128573d6000803e3d6000fd5b505b506111d9565b6000831115611181578373ffffffffffffffffffffffffffffffffffffffff166108fc849081150290604051600060405180830381858888f1935050505015801561117f573d6000803e3d6000fd5b505b60008111156111d8576111d78430837f000000000000000000000000000000000000000000000000000000000000000073ffffffffffffffffffffffffffffffffffffffff16611f09909392919063ffffffff16565b5b5b6001600660006101000a81548160ff0219169083151502179055506000821115611208576112078483611bfa565b5b7f000000000000000000000000000000000000000000000000000000000000000073ffffffffffffffffffffffffffffffffffffffff1663290bfdc5857f00000000000000000000000000000000000000000000000000000000000000007f00000000000000000000000000000000000000000000000000000000000000006040518463ffffffff1660e01b81526004016112a593929190612ccb565b600060405180830381600087803b1580156112bf57600080fd5b505af11580156112d3573d6000803e3d6000fd5b505050507f000000000000000000000000000000000000000000000000000000000000000073ffffffffffffffffffffffffffffffffffffffff1663d4b839926040518163ffffffff1660e01b8152600401602060405180830381865afa158015611342573d6000803e3d6000fd5b505050506040513d601f19601f820116820180604052508101906113669190612ac8565b73ffffffffffffffffffffffffffffffffffffffff1663095ea7b3307f00000000000000000000000000000000000000000000000000000000000000006040518363ffffffff1660e01b81526004016113c0929190612b04565b600060405180830381600087803b1580156113da57600080fd5b505af19250505080156113eb575060015b611427573d806000811461141b576040519150601f19603f3d011682016040523d82523d6000602084013e611420565b606091505b5050611428565b5b7f000000000000000000000000000000000000000000000000000000000000000073ffffffffffffffffffffffffffffffffffffffff1663d4b839926040518163ffffffff1660e01b8152600401602060405180830381865afa158015611493573d6000803e3d6000fd5b505050506040513d601f19601f820116820180604052508101906114b79190612ac8565b73ffffffffffffffffffffffffffffffffffffffff166323b872dd30867f00000000000000000000000000000000000000000000000000000000000000006040518463ffffffff1660e01b815260040161151393929190612d02565b600060405180830381600087803b15801561152d57600080fd5b505af1158015611541573d6000803e3d6000fd5b505050507f00000000000000000000000000000000000000000000000000000000000000007f000000000000000000000000000000000000000000000000000000000000000073ffffffffffffffffffffffffffffffffffffffff1663d4b839926040518163ffffffff1660e01b8152600401602060405180830381865afa1580156115d1573d6000803e3d6000fd5b505050506040513d601f19601f820116820180604052508101906115f59190612ac8565b73ffffffffffffffffffffffffffffffffffffffff168573ffffffffffffffffffffffffffffffffffffffff167fcacee0140de57cd3e95273d0a4007f94b2c026faea38ef59c178bae71368b3f5306040516116519190612d39565b60405180910390a4611661611e57565b505050506001600581905550565b7f000000000000000000000000000000000000000000000000000000000000000081565b6000600160008473ffffffffffffffffffffffffffffffffffffffff1673ffffffffffffffffffffffffffffffffffffffff16815260200190815260200160002060008373ffffffffffffffffffffffffffffffffffffffff1673ffffffffffffffffffffffffffffffffffffffff16815260200190815260200160002054905092915050565b600033905090565b600073ffffffffffffffffffffffffffffffffffffffff168373ffffffffffffffffffffffffffffffffffffffff161415611792576040517f08c379a000000000000000000000000000000000000000000000000000000000815260040161178990612dc6565b60405180910390fd5b600073ffffffffffffffffffffffffffffffffffffffff168273ffffffffffffffffffffffffffffffffffffffff161415611802576040517f08c379a00000000000000000000000000000000000000000000000000000000081526004016117f990612e58565b60405180910390fd5b80600160008573ffffffffffffffffffffffffffffffffffffffff1673ffffffffffffffffffffffffffffffffffffffff16815260200190815260200160002060008473ffffffffffffffffffffffffffffffffffffffff1673ffffffffffffffffffffffffffffffffffffffff168152602001908152602001600020819055508173ffffffffffffffffffffffffffffffffffffffff168373ffffffffffffffffffffffffffffffffffffffff167f8c5be1e5ebec7d5bd14f71427d1e84f3dd0314c0f7b2291e5b200ac8c7c3b925836040516118e09190612401565b60405180910390a3505050565b60006118f98484611693565b90507fffffffffffffffffffffffffffffffffffffffffffffffffffffffffffffffff81146119735781811015611965576040517f08c379a000000000000000000000000000000000000000000000000000000000815260040161195c90612ec4565b60405180910390fd5b6119728484848403611722565b5b50505050565b600073ffffffffffffffffffffffffffffffffffffffff168373ffffffffffffffffffffffffffffffffffffffff1614156119e9576040517f08c379a00000000000000000000000000000000000000000000000000000000081526004016119e090612f56565b60405180910390fd5b600073ffffffffffffffffffffffffffffffffffffffff168273ffffffffffffffffffffffffffffffffffffffff161415611a59576040517f08c379a0000000000000000000000000000000000000000000000000000000008152600401611a5090612fe8565b60405180910390fd5b611a64838383611f92565b60008060008573ffffffffffffffffffffffffffffffffffffffff1673ffffffffffffffffffffffffffffffffffffffff16815260200190815260200160002054905081811015611aea576040517f08c379a0000000000000000000000000000000000000000000000000000000008152600401611ae19061307a565b60405180910390fd5b8181036000808673ffffffffffffffffffffffffffffffffffffffff1673ffffffffffffffffffffffffffffffffffffffff16815260200190815260200160002081905550816000808573ffffffffffffffffffffffffffffffffffffffff1673ffffffffffffffffffffffffffffffffffffffff1681526020019081526020016000206000828254611b7d91906128c1565b925050819055508273ffffffffffffffffffffffffffffffffffffffff168473ffffffffffffffffffffffffffffffffffffffff167fddf252ad1be2c89b69c2b068fc378daa952ba7f163c4a11628f55a4df523b3ef84604051611be19190612401565b60405180910390a3611bf4848484611f97565b50505050565b600073ffffffffffffffffffffffffffffffffffffffff168273ffffffffffffffffffffffffffffffffffffffff161415611c6a576040517f08c379a0000000000000000000000000000000000000000000000000000000008152600401611c619061310c565b60405180910390fd5b611c7682600083611f92565b60008060008473ffffffffffffffffffffffffffffffffffffffff1673ffffffffffffffffffffffffffffffffffffffff16815260200190815260200160002054905081811015611cfc576040517f08c379a0000000000000000000000000000000000000000000000000000000008152600401611cf39061319e565b60405180910390fd5b8181036000808573ffffffffffffffffffffffffffffffffffffffff1673ffffffffffffffffffffffffffffffffffffffff168152602001908152602001600020819055508160026000828254611d539190612c2b565b92505081905550600073ffffffffffffffffffffffffffffffffffffffff168373ffffffffffffffffffffffffffffffffffffffff167fddf252ad1be2c89b69c2b068fc378daa952ba7f163c4a11628f55a4df523b3ef84604051611db89190612401565b60405180910390a3611dcc83600084611f97565b505050565b611e528363a9059cbb60e01b8484604051602401611df0929190612b04565b604051602081830303815290604052907bffffffffffffffffffffffffffffffffffffffffffffffffffffffff19166020820180517bffffffffffffffffffffffffffffffffffffffffffffffffffffffff8381831617835250505050611f9c565b505050565b6000611e61610768565b90506000811415611f06577f000000000000000000000000000000000000000000000000000000000000000073ffffffffffffffffffffffffffffffffffffffff16638739a92d6040518163ffffffff1660e01b8152600401600060405180830381600087803b158015611ed457600080fd5b505af1158015611ee8573d6000803e3d6000fd5b50505050600073ffffffffffffffffffffffffffffffffffffffff16ff5b50565b611f8c846323b872dd60e01b858585604051602401611f2a93929190612d02565b604051602081830303815290604052907bffffffffffffffffffffffffffffffffffffffffffffffffffffffff19166020820180517bffffffffffffffffffffffffffffffffffffffffffffffffffffffff8381831617835250505050611f9c565b50505050565b505050565b505050565b6000611ffe826040518060400160405280602081526020017f5361666545524332303a206c6f772d6c6576656c2063616c6c206661696c65648152508573ffffffffffffffffffffffffffffffffffffffff166120639092919063ffffffff16565b905060008151111561205e578080602001905181019061201e91906131ea565b61205d576040517f08c379a000000000000000000000000000000000000000000000000000000000815260040161205490613289565b60405180910390fd5b5b505050565b6060612072848460008561207b565b90509392505050565b6060824710156120c0576040517f08c379a00000000000000000000000000000000000000000000000000000000081526004016120b79061331b565b60405180910390fd5b6120c98561218f565b612108576040517f08c379a00000000000000000000000000000000000000000000000000000000081526004016120ff90613387565b60405180910390fd5b6000808673ffffffffffffffffffffffffffffffffffffffff16858760405161213191906133ee565b60006040518083038185875af1925050503d806000811461216e576040519150601f19603f3d011682016040523d82523d6000602084013e612173565b606091505b50915091506121838282866121b2565b92505050949350505050565b6000808273ffffffffffffffffffffffffffffffffffffffff163b119050919050565b606083156121c257829050612212565b6000835111156121d55782518084602001fd5b816040517f08c379a000000000000000000000000000000000000000000000000000000000815260040161220991906122b2565b60405180910390fd5b9392505050565b600081519050919050565b600082825260208201905092915050565b60005b83811015612253578082015181840152602081019050612238565b83811115612262576000848401525b50505050565b6000601f19601f8301169050919050565b600061228482612219565b61228e8185612224565b935061229e818560208601612235565b6122a781612268565b840191505092915050565b600060208201905081810360008301526122cc8184612279565b905092915050565b6000604051905090565b600080fd5b600080fd5b600073ffffffffffffffffffffffffffffffffffffffff82169050919050565b6000612313826122e8565b9050919050565b61232381612308565b811461232e57600080fd5b50565b6000813590506123408161231a565b92915050565b6000819050919050565b61235981612346565b811461236457600080fd5b50565b60008135905061237681612350565b92915050565b60008060408385031215612393576123926122de565b5b60006123a185828601612331565b92505060206123b285828601612367565b9150509250929050565b60008115159050919050565b6123d1816123bc565b82525050565b60006020820190506123ec60008301846123c8565b92915050565b6123fb81612346565b82525050565b600060208201905061241660008301846123f2565b92915050565b600080fd5b600080fd5b7f4e487b7100000000000000000000000000000000000000000000000000000000600052604160045260246000fd5b61245e82612268565b810181811067ffffffffffffffff8211171561247d5761247c612426565b5b80604052505050565b60006124906122d4565b905061249c8282612455565b919050565b600067ffffffffffffffff8211156124bc576124bb612426565b5b6124c582612268565b9050602081019050919050565b82818337600083830152505050565b60006124f46124ef846124a1565b612486565b9050828152602081018484840111156125105761250f612421565b5b61251b8482856124d2565b509392505050565b600082601f8301126125385761253761241c565b5b81356125488482602086016124e1565b91505092915050565b6000806000806080858703121561256b5761256a6122de565b5b600061257987828801612331565b945050602061258a87828801612331565b935050604061259b87828801612367565b925050606085013567ffffffffffffffff8111156125bc576125bb6122e3565b5b6125c887828801612523565b91505092959194509250565b60007fffffffff0000000000000000000000000000000000000000000000000000000082169050919050565b612609816125d4565b82525050565b60006020820190506126246000830184612600565b92915050565b600080600060608486031215612643576126426122de565b5b600061265186828701612331565b935050602061266286828701612331565b925050604061267386828701612367565b9150509250925092565b6000819050919050565b60006126a261269d612698846122e8565b61267d565b6122e8565b9050919050565b60006126b482612687565b9050919050565b60006126c6826126a9565b9050919050565b6126d6816126bb565b82525050565b60006020820190506126f160008301846126cd565b92915050565b600060ff82169050919050565b61270d816126f7565b82525050565b60006020820190506127286000830184612704565b92915050565b600060208284031215612744576127436122de565b5b600061275284828501612331565b91505092915050565b6000612766826126a9565b9050919050565b6127768161275b565b82525050565b6000602082019050612791600083018461276d565b92915050565b600080604083850312156127ae576127ad6122de565b5b60006127bc85828601612331565b92505060206127cd85828601612331565b9150509250929050565b7f4e487b7100000000000000000000000000000000000000000000000000000000600052602260045260246000fd5b6000600282049050600182168061281e57607f821691505b60208210811415612832576128316127d7565b5b50919050565b7f4e487b7100000000000000000000000000000000000000000000000000000000600052601160045260246000fd5b600061287282612346565b915061287d83612346565b9250817fffffffffffffffffffffffffffffffffffffffffffffffffffffffffffffffff04831182151516156128b6576128b5612838565b5b828202905092915050565b60006128cc82612346565b91506128d783612346565b9250827fffffffffffffffffffffffffffffffffffffffffffffffffffffffffffffffff0382111561290c5761290b612838565b5b828201905092915050565b7f5265656e7472616e637947756172643a207265656e7472616e742063616c6c00600082015250565b600061294d601f83612224565b915061295882612917565b602082019050919050565b6000602082019050818103600083015261297c81612940565b9050919050565b7f746f6b656e206e6f742072656465656d65640000000000000000000000000000600082015250565b60006129b9601283612224565b91506129c482612983565b602082019050919050565b600060208201905081810360008301526129e8816129ac565b9050919050565b7f6e6f7468696e6720746f20636c61696d00000000000000000000000000000000600082015250565b6000612a25601083612224565b9150612a30826129ef565b602082019050919050565b60006020820190508181036000830152612a5481612a18565b9050919050565b7f4e487b7100000000000000000000000000000000000000000000000000000000600052600160045260246000fd5b6000612a9582612308565b9050919050565b612aa581612a8a565b8114612ab057600080fd5b50565b600081519050612ac281612a9c565b92915050565b600060208284031215612ade57612add6122de565b5b6000612aec84828501612ab3565b91505092915050565b612afe81612308565b82525050565b6000604082019050612b196000830185612af5565b612b2660208301846123f2565b9392505050565b7f45524332303a2064656372656173656420616c6c6f77616e63652062656c6f7760008201527f207a65726f000000000000000000000000000000000000000000000000000000602082015250565b6000612b89602583612224565b9150612b9482612b2d565b604082019050919050565b60006020820190508181036000830152612bb881612b7c565b9050919050565b7f746f6b656e20616c72656164792072656465656d656400000000000000000000600082015250565b6000612bf5601683612224565b9150612c0082612bbf565b602082019050919050565b60006020820190508181036000830152612c2481612be8565b9050919050565b6000612c3682612346565b9150612c4183612346565b925082821015612c5457612c53612838565b5b828203905092915050565b7f696e73756666696369656e74207061796d656e7420616d6f756e740000000000600082015250565b6000612c95601b83612224565b9150612ca082612c5f565b602082019050919050565b60006020820190508181036000830152612cc481612c88565b9050919050565b6000606082019050612ce06000830186612af5565b612ced60208301856123f2565b612cfa60408301846123c8565b949350505050565b6000606082019050612d176000830186612af5565b612d246020830185612af5565b612d3160408301846123f2565b949350505050565b6000602082019050612d4e6000830184612af5565b92915050565b7f45524332303a20617070726f76652066726f6d20746865207a65726f2061646460008201527f7265737300000000000000000000000000000000000000000000000000000000602082015250565b6000612db0602483612224565b9150612dbb82612d54565b604082019050919050565b60006020820190508181036000830152612ddf81612da3565b9050919050565b7f45524332303a20617070726f766520746f20746865207a65726f20616464726560008201527f7373000000000000000000000000000000000000000000000000000000000000602082015250565b6000612e42602283612224565b9150612e4d82612de6565b604082019050919050565b60006020820190508181036000830152612e7181612e35565b9050919050565b7f45524332303a20696e73756666696369656e7420616c6c6f77616e6365000000600082015250565b6000612eae601d83612224565b9150612eb982612e78565b602082019050919050565b60006020820190508181036000830152612edd81612ea1565b9050919050565b7f45524332303a207472616e736665722066726f6d20746865207a65726f20616460008201527f6472657373000000000000000000000000000000000000000000000000000000602082015250565b6000612f40602583612224565b9150612f4b82612ee4565b604082019050919050565b60006020820190508181036000830152612f6f81612f33565b9050919050565b7f45524332303a207472616e7366657220746f20746865207a65726f206164647260008201527f6573730000000000000000000000000000000000000000000000000000000000602082015250565b6000612fd2602383612224565b9150612fdd82612f76565b604082019050919050565b6000602082019050818103600083015261300181612fc5565b9050919050565b7f45524332303a207472616e7366657220616d6f756e742065786365656473206260008201527f616c616e63650000000000000000000000000000000000000000000000000000602082015250565b6000613064602683612224565b915061306f82613008565b604082019050919050565b6000602082019050818103600083015261309381613057565b9050919050565b7f45524332303a206275726e2066726f6d20746865207a65726f2061646472657360008201527f7300000000000000000000000000000000000000000000000000000000000000602082015250565b60006130f6602183612224565b91506131018261309a565b604082019050919050565b60006020820190508181036000830152613125816130e9565b9050919050565b7f45524332303a206275726e20616d6f756e7420657863656564732062616c616e60008201527f6365000000000000000000000000000000000000000000000000000000000000602082015250565b6000613188602283612224565b91506131938261312c565b604082019050919050565b600060208201905081810360008301526131b78161317b565b9050919050565b6131c7816123bc565b81146131d257600080fd5b50565b6000815190506131e4816131be565b92915050565b600060208284031215613200576131ff6122de565b5b600061320e848285016131d5565b91505092915050565b7f5361666545524332303a204552433230206f7065726174696f6e20646964206e60008201527f6f74207375636365656400000000000000000000000000000000000000000000602082015250565b6000613273602a83612224565b915061327e82613217565b604082019050919050565b600060208201905081810360008301526132a281613266565b9050919050565b7f416464726573733a20696e73756666696369656e742062616c616e636520666f60008201527f722063616c6c0000000000000000000000000000000000000000000000000000602082015250565b6000613305602683612224565b9150613310826132a9565b604082019050919050565b60006020820190508181036000830152613334816132f8565b9050919050565b7f416464726573733a2063616c6c20746f206e6f6e2d636f6e7472616374000000600082015250565b6000613371601d83612224565b915061337c8261333b565b602082019050919050565b600060208201905081810360008301526133a081613364565b9050919050565b600081519050919050565b600081905092915050565b60006133c8826133a7565b6133d281856133b2565b93506133e2818560208601612235565b80840191505092915050565b60006133fa82846133bd565b91508190509291505056fea2646970667358221220b89057cec780c6607470a213d805f1baa26634c9dc26692fc3c3e262a8c55f8364736f6c634300080c0033",
  "immutableReferences": {
    "4654": [
      {
        "length": 32,
        "start": 2819
      },
      {
        "length": 32,
        "start": 3663
      },
      {
        "length": 32,
        "start": 4618
      },
      {
        "length": 32,
        "start": 4825
      },
      {
        "length": 32,
        "start": 5162
      },
      {
        "length": 32,
        "start": 5480
      },
      {
        "length": 32,
        "start": 7790
      }
    ],
    "4656": [
      {
        "length": 32,
        "start": 1862
      },
      {
        "length": 32,
        "start": 2786
      },
      {
        "length": 32,
        "start": 4679
      },
      {
        "length": 32,
        "start": 4996
      },
      {
        "length": 32,
        "start": 5334
      },
      {
        "length": 32,
        "start": 5447
      }
    ],
    "4658": [
      {
        "length": 32,
        "start": 3358
      },
      {
        "length": 32,
        "start": 3905
      }
    ],
    "4660": [
      {
        "length": 32,
        "start": 1791
      },
      {
        "length": 32,
        "start": 2044
      },
      {
        "length": 32,
        "start": 3157
      },
      {
        "length": 32,
        "start": 3806
      },
      {
        "length": 32,
        "start": 3872
      }
    ],
    "4663": [
      {
        "length": 32,
        "start": 1955
      },
      {
        "length": 32,
        "start": 2573
      },
      {
        "length": 32,
        "start": 2715
      },
      {
        "length": 32,
        "start": 4171
      },
      {
        "length": 32,
        "start": 4498
      }
    ],
    "4665": [
      {
        "length": 32,
        "start": 4712
      },
      {
        "length": 32,
        "start": 5745
      }
    ]
  },
  "source": "// Shares / ERC721Shares\r\n// SPDX-License-Identifier: GPL-3.0-only\r\npragma solidity ^0.8.0;\r\n\r\nimport { ERC20 } from \"@openzeppelin/contracts/token/ERC20/ERC20.sol\";\r\nimport { IERC20 } from \"@openzeppelin/contracts/token/ERC20/IERC20.sol\";\r\nimport { SafeERC20 } from \"@openzeppelin/contracts/token/ERC20/utils/SafeERC20.sol\";\r\nimport { ERC721Holder } from \"@openzeppelin/contracts/token/ERC721/utils/ERC721Holder.sol\";\r\nimport { IERC721 } from \"@openzeppelin/contracts/token/ERC721/IERC721.sol\";\r\nimport { IERC721Metadata } from \"@openzeppelin/contracts/token/ERC721/extensions/IERC721Metadata.sol\";\r\nimport { ReentrancyGuard } from \"@openzeppelin/contracts/security/ReentrancyGuard.sol\";\r\nimport { Strings } from \"@openzeppelin/contracts/utils/Strings.sol\";\r\n\r\nimport { SafeERC721Metadata } from \"./SafeERC721Metadata.sol\";\r\nimport { ERC721Wrapper } from \"./Wrapper.sol\";\r\n\r\nlibrary Shares\r\n{\r\n\tusing Strings for uint256;\r\n\tusing SafeERC721Metadata for IERC721Metadata;\r\n\r\n\tfunction create(ERC721Wrapper _wrapper, uint256 _tokenId, address _from, uint256 _sharesCount, uint8 _decimals, uint256 _sharePrice, IERC20 _paymentToken, bool _remnant) public returns (ERC721Shares _shares)\r\n\t{\r\n\t\tIERC721 _target = _wrapper.target();\r\n\t\tIERC721Metadata _metadata = IERC721Metadata(address(_target));\r\n\t\tstring memory _name = string(abi.encodePacked(_metadata.safeName(), \" #\", _tokenId.toString(), \" Shares\"));\r\n\t\tstring memory _symbol = string(abi.encodePacked(_metadata.safeSymbol(), _tokenId.toString()));\r\n\t\treturn new ERC721Shares(_name, _symbol, _wrapper, _tokenId, _from, _sharesCount, _decimals, _sharePrice, _paymentToken, _remnant);\r\n\t}\r\n}\r\n\r\ncontract ERC721Shares is ERC721Holder, ERC20, ReentrancyGuard\r\n{\r\n\tusing SafeERC20 for IERC20;\r\n\r\n\tERC721Wrapper public immutable wrapper;\r\n\tuint256 public immutable tokenId;\r\n\tuint256 public immutable sharesCount;\r\n\tuint256 public immutable sharePrice;\r\n\tIERC20 public immutable paymentToken;\r\n\tbool public immutable remnant;\r\n\r\n\tbool public released;\r\n\r\n\tconstructor (string memory __name, string memory __symbol, ERC721Wrapper _wrapper, uint256 _tokenId, address _from, uint256 _sharesCount, uint8 _decimals, uint256 _sharePrice, IERC20 _paymentToken, bool _remnant) ERC20(__name, __symbol) public\r\n\t{\r\n\t\twrapper = _wrapper;\r\n\t\ttokenId = _tokenId;\r\n\t\tsharesCount = _sharesCount;\r\n\t\tsharePrice = _sharePrice;\r\n\t\tpaymentToken = _paymentToken;\r\n\t\tremnant = _remnant;\r\n\t\treleased = false;\r\n\r\n\t\t// from 0.6.0 ~ 0.8.x | no need?\r\n\t\t//_setupDecimals(_decimals);\t\r\n\t\t//<--- \r\n\t\t_mint(_from, _sharesCount);\r\n\t\temit Securitize(_from, address(_wrapper.target()), _tokenId, address(this));\r\n\t}\r\n\r\n\tfunction exitPrice() public view returns (uint256 _exitPrice)\r\n\t{\r\n\t\treturn sharesCount * sharePrice;\r\n\t}\r\n\r\n\tfunction redeemAmountOf(address _from) public view returns (uint256 _redeemAmount)\r\n\t{\r\n\t\trequire(!released, \"token already redeemed\");\r\n\t\tuint256 _sharesCount = balanceOf(_from);\r\n\t\tuint256 _exitPrice = exitPrice();\r\n\t\treturn _exitPrice - _sharesCount * sharePrice;\r\n\t}\r\n\r\n\tfunction vaultBalance() external view returns (uint256 _vaultBalance)\r\n\t{\r\n\t\tif (!released) return 0;\r\n\t\tuint256 _sharesCount = totalSupply();\r\n\t\treturn _sharesCount * sharePrice;\r\n\t}\r\n\r\n\tfunction vaultBalanceOf(address _from) public view returns (uint256 _vaultBalanceOf)\r\n\t{\r\n\t\tif (!released) return 0;\r\n\t\tuint256 _sharesCount = balanceOf(_from);\r\n\t\treturn _sharesCount * sharePrice;\r\n\t}\r\n\r\n\tfunction redeem() external payable nonReentrant\r\n\t{\r\n\t\trequire(!released, \"token already redeemed\");\r\n\t\t\r\n\t\t//address payable _from = msg.sender;\r\n\t\taddress _from = msg.sender;\t\r\n\t\t//<--- \r\n\r\n\t\tuint256 _paymentAmount = msg.value;\r\n\t\tuint256 _sharesCount = balanceOf(_from);\r\n\t\tuint256 _redeemAmount = redeemAmountOf(_from);\r\n\r\n\t\t//if (paymentToken == IERC20(0)) {\r\n\t\tif (paymentToken == IERC20(address(0))) {\r\n\t\t//<---\r\n\r\n\t\t\trequire(_paymentAmount >= _redeemAmount, \"insufficient payment amount\");\r\n\t\t\tuint256 _changeAmount = _paymentAmount - _redeemAmount;\r\n\t\t\t\r\n\t\t\t//if (_changeAmount > 0) _from.transfer(_changeAmount);\r\n\t\t\tif (_changeAmount > 0) payable(_from).transfer(_changeAmount);\r\n\t\t\t//<---\r\n\t\t\t\r\n\t\t} else {\r\n\r\n\r\n\t\t\t//if (_paymentAmount > 0) _from.transfer(_paymentAmount);\r\n\t\t\tif (_paymentAmount > 0) payable(_from).transfer(_paymentAmount);\r\n\t\t\t//<---\r\n\t\t\tif (_redeemAmount > 0) paymentToken.safeTransferFrom(_from, address(this), _redeemAmount);\r\n\t\t}\r\n\t\treleased = true;\r\n\t\tif (_sharesCount > 0) _burn(_from, _sharesCount);\r\n\t\twrapper._remove(_from, tokenId, remnant);\r\n\t\ttry wrapper.target().approve(address(this), tokenId) {\r\n\t\t} catch (bytes memory /* _data */) {\r\n\t\t}\r\n\t\twrapper.target().transferFrom(address(this), _from, tokenId);\r\n\t\temit Redeem(_from, address(wrapper.target()), tokenId, address(this));\r\n\t\t_cleanup();\r\n\t}\r\n\r\n\tfunction claim() external nonReentrant\r\n\t{\r\n\t\trequire(released, \"token not redeemed\");\r\n\t\t\r\n\t\t//address payable _from = msg.sender;\r\n\t\taddress _from = msg.sender;\r\n\t\t//<--- \r\n\r\n\t\tuint256 _sharesCount = balanceOf(_from);\r\n\t\trequire(_sharesCount > 0, \"nothing to claim\");\r\n\t\tuint256 _claimAmount = vaultBalanceOf(_from);\r\n\t\tassert(_claimAmount > 0);\r\n\t\t_burn(_from, _sharesCount);\r\n\r\n\t\t//if (paymentToken == IERC20(0)) _from.transfer(_claimAmount);\r\n\t\tif (paymentToken == IERC20(address(0))) payable(_from).transfer(_claimAmount);\r\n\t\t//<---\r\n\r\n\t\telse paymentToken.safeTransfer(_from, _claimAmount);\r\n\t\temit Claim(_from, address(wrapper.target()), tokenId, address(this), _sharesCount);\r\n\t\t_cleanup();\r\n\t}\r\n\r\n\tfunction _cleanup() internal\r\n\t{\r\n\t\tuint256 _sharesLeft = totalSupply();\r\n\t\tif (_sharesLeft == 0) {\r\n\t\t\twrapper._forget();\r\n\t\t\t//selfdestruct(address(0));\r\n\t\t\tselfdestruct( payable(address(0)));\r\n\t\t\t//<---\r\n\t\t}\r\n\t}\r\n\r\n\tevent Securitize(address indexed _from, address indexed _target, uint256 indexed _tokenId, address _shares);\r\n\tevent Redeem(address indexed _from, address indexed _target, uint256 indexed _tokenId, address _shares);\r\n\tevent Claim(address indexed _from, address indexed _target, uint256 indexed _tokenId, address _shares, uint256 _sharesCount);\r\n}\r\n",
  "sourcePath": "D:\\03.block-chain\\01.miquelTC__nft-marketplace\\test-proj\\nft-marketplace-master\\src\\contracts\\Loan NFTfi\\v1.0\\Shares.sol",
  "compiler": {
    "name": "solc",
    "version": "0.8.12+commit.f00d7308.Emscripten.clang"
  },
  "schemaVersion": "3.4.4",
  "updatedAt": "2022-02-22T12:12:46.982Z",
  "devdoc": {
    "kind": "dev",
    "methods": {
      "allowance(address,address)": {
        "details": "See {IERC20-allowance}."
      },
      "approve(address,uint256)": {
        "details": "See {IERC20-approve}. NOTE: If `amount` is the maximum `uint256`, the allowance is not updated on `transferFrom`. This is semantically equivalent to an infinite approval. Requirements: - `spender` cannot be the zero address."
      },
      "balanceOf(address)": {
        "details": "See {IERC20-balanceOf}."
      },
      "decimals()": {
        "details": "Returns the number of decimals used to get its user representation. For example, if `decimals` equals `2`, a balance of `505` tokens should be displayed to a user as `5.05` (`505 / 10 ** 2`). Tokens usually opt for a value of 18, imitating the relationship between Ether and Wei. This is the value {ERC20} uses, unless this function is overridden; NOTE: This information is only used for _display_ purposes: it in no way affects any of the arithmetic of the contract, including {IERC20-balanceOf} and {IERC20-transfer}."
      },
      "decreaseAllowance(address,uint256)": {
        "details": "Atomically decreases the allowance granted to `spender` by the caller. This is an alternative to {approve} that can be used as a mitigation for problems described in {IERC20-approve}. Emits an {Approval} event indicating the updated allowance. Requirements: - `spender` cannot be the zero address. - `spender` must have allowance for the caller of at least `subtractedValue`."
      },
      "increaseAllowance(address,uint256)": {
        "details": "Atomically increases the allowance granted to `spender` by the caller. This is an alternative to {approve} that can be used as a mitigation for problems described in {IERC20-approve}. Emits an {Approval} event indicating the updated allowance. Requirements: - `spender` cannot be the zero address."
      },
      "name()": {
        "details": "Returns the name of the token."
      },
      "onERC721Received(address,address,uint256,bytes)": {
        "details": "See {IERC721Receiver-onERC721Received}. Always returns `IERC721Receiver.onERC721Received.selector`."
      },
      "symbol()": {
        "details": "Returns the symbol of the token, usually a shorter version of the name."
      },
      "totalSupply()": {
        "details": "See {IERC20-totalSupply}."
      },
      "transfer(address,uint256)": {
        "details": "See {IERC20-transfer}. Requirements: - `to` cannot be the zero address. - the caller must have a balance of at least `amount`."
      },
      "transferFrom(address,address,uint256)": {
        "details": "See {IERC20-transferFrom}. Emits an {Approval} event indicating the updated allowance. This is not required by the EIP. See the note at the beginning of {ERC20}. NOTE: Does not update the allowance if the current allowance is the maximum `uint256`. Requirements: - `from` and `to` cannot be the zero address. - `from` must have a balance of at least `amount`. - the caller must have allowance for ``from``'s tokens of at least `amount`."
      }
    },
    "version": 1
  },
  "userdoc": {
    "kind": "user",
    "methods": {},
    "version": 1
  }
}