{
  "contractName": "ERC721Mock",
  "abi": [
    {
      "inputs": [
        {
          "internalType": "string",
          "name": "name",
          "type": "string"
        },
        {
          "internalType": "string",
          "name": "symbol",
          "type": "string"
        }
      ],
      "stateMutability": "nonpayable",
      "type": "constructor"
    },
    {
      "anonymous": false,
      "inputs": [
        {
          "indexed": true,
          "internalType": "address",
          "name": "owner",
          "type": "address"
        },
        {
          "indexed": true,
          "internalType": "address",
          "name": "approved",
          "type": "address"
        },
        {
          "indexed": true,
          "internalType": "uint256",
          "name": "tokenId",
          "type": "uint256"
        }
      ],
      "name": "Approval",
      "type": "event"
    },
    {
      "anonymous": false,
      "inputs": [
        {
          "indexed": true,
          "internalType": "address",
          "name": "owner",
          "type": "address"
        },
        {
          "indexed": true,
          "internalType": "address",
          "name": "operator",
          "type": "address"
        },
        {
          "indexed": false,
          "internalType": "bool",
          "name": "approved",
          "type": "bool"
        }
      ],
      "name": "ApprovalForAll",
      "type": "event"
    },
    {
      "anonymous": false,
      "inputs": [
        {
          "indexed": true,
          "internalType": "address",
          "name": "from",
          "type": "address"
        },
        {
          "indexed": true,
          "internalType": "address",
          "name": "to",
          "type": "address"
        },
        {
          "indexed": true,
          "internalType": "uint256",
          "name": "tokenId",
          "type": "uint256"
        }
      ],
      "name": "Transfer",
      "type": "event"
    },
    {
      "inputs": [
        {
          "internalType": "address",
          "name": "to",
          "type": "address"
        },
        {
          "internalType": "uint256",
          "name": "tokenId",
          "type": "uint256"
        }
      ],
      "name": "approve",
      "outputs": [],
      "stateMutability": "nonpayable",
      "type": "function"
    },
    {
      "inputs": [
        {
          "internalType": "address",
          "name": "owner",
          "type": "address"
        }
      ],
      "name": "balanceOf",
      "outputs": [
        {
          "internalType": "uint256",
          "name": "",
          "type": "uint256"
        }
      ],
      "stateMutability": "view",
      "type": "function"
    },
    {
      "inputs": [
        {
          "internalType": "uint256",
          "name": "tokenId",
          "type": "uint256"
        }
      ],
      "name": "getApproved",
      "outputs": [
        {
          "internalType": "address",
          "name": "",
          "type": "address"
        }
      ],
      "stateMutability": "view",
      "type": "function"
    },
    {
      "inputs": [
        {
          "internalType": "address",
          "name": "owner",
          "type": "address"
        },
        {
          "internalType": "address",
          "name": "operator",
          "type": "address"
        }
      ],
      "name": "isApprovedForAll",
      "outputs": [
        {
          "internalType": "bool",
          "name": "",
          "type": "bool"
        }
      ],
      "stateMutability": "view",
      "type": "function"
    },
    {
      "inputs": [],
      "name": "name",
      "outputs": [
        {
          "internalType": "string",
          "name": "",
          "type": "string"
        }
      ],
      "stateMutability": "view",
      "type": "function"
    },
    {
      "inputs": [
        {
          "internalType": "uint256",
          "name": "tokenId",
          "type": "uint256"
        }
      ],
      "name": "ownerOf",
      "outputs": [
        {
          "internalType": "address",
          "name": "",
          "type": "address"
        }
      ],
      "stateMutability": "view",
      "type": "function"
    },
    {
      "inputs": [
        {
          "internalType": "address",
          "name": "from",
          "type": "address"
        },
        {
          "internalType": "address",
          "name": "to",
          "type": "address"
        },
        {
          "internalType": "uint256",
          "name": "tokenId",
          "type": "uint256"
        }
      ],
      "name": "safeTransferFrom",
      "outputs": [],
      "stateMutability": "nonpayable",
      "type": "function"
    },
    {
      "inputs": [
        {
          "internalType": "address",
          "name": "from",
          "type": "address"
        },
        {
          "internalType": "address",
          "name": "to",
          "type": "address"
        },
        {
          "internalType": "uint256",
          "name": "tokenId",
          "type": "uint256"
        },
        {
          "internalType": "bytes",
          "name": "_data",
          "type": "bytes"
        }
      ],
      "name": "safeTransferFrom",
      "outputs": [],
      "stateMutability": "nonpayable",
      "type": "function"
    },
    {
      "inputs": [
        {
          "internalType": "address",
          "name": "operator",
          "type": "address"
        },
        {
          "internalType": "bool",
          "name": "approved",
          "type": "bool"
        }
      ],
      "name": "setApprovalForAll",
      "outputs": [],
      "stateMutability": "nonpayable",
      "type": "function"
    },
    {
      "inputs": [
        {
          "internalType": "bytes4",
          "name": "interfaceId",
          "type": "bytes4"
        }
      ],
      "name": "supportsInterface",
      "outputs": [
        {
          "internalType": "bool",
          "name": "",
          "type": "bool"
        }
      ],
      "stateMutability": "view",
      "type": "function"
    },
    {
      "inputs": [],
      "name": "symbol",
      "outputs": [
        {
          "internalType": "string",
          "name": "",
          "type": "string"
        }
      ],
      "stateMutability": "view",
      "type": "function"
    },
    {
      "inputs": [
        {
          "internalType": "uint256",
          "name": "tokenId",
          "type": "uint256"
        }
      ],
      "name": "tokenURI",
      "outputs": [
        {
          "internalType": "string",
          "name": "",
          "type": "string"
        }
      ],
      "stateMutability": "view",
      "type": "function"
    },
    {
      "inputs": [
        {
          "internalType": "address",
          "name": "from",
          "type": "address"
        },
        {
          "internalType": "address",
          "name": "to",
          "type": "address"
        },
        {
          "internalType": "uint256",
          "name": "tokenId",
          "type": "uint256"
        }
      ],
      "name": "transferFrom",
      "outputs": [],
      "stateMutability": "nonpayable",
      "type": "function"
    },
    {
      "inputs": [],
      "name": "baseURI",
      "outputs": [
        {
          "internalType": "string",
          "name": "",
          "type": "string"
        }
      ],
      "stateMutability": "view",
      "type": "function"
    },
    {
      "inputs": [
        {
          "internalType": "uint256",
          "name": "tokenId",
          "type": "uint256"
        }
      ],
      "name": "exists",
      "outputs": [
        {
          "internalType": "bool",
          "name": "",
          "type": "bool"
        }
      ],
      "stateMutability": "view",
      "type": "function"
    },
    {
      "inputs": [
        {
          "internalType": "address",
          "name": "to",
          "type": "address"
        },
        {
          "internalType": "uint256",
          "name": "tokenId",
          "type": "uint256"
        }
      ],
      "name": "mint",
      "outputs": [],
      "stateMutability": "nonpayable",
      "type": "function"
    },
    {
      "inputs": [
        {
          "internalType": "address",
          "name": "to",
          "type": "address"
        },
        {
          "internalType": "uint256",
          "name": "tokenId",
          "type": "uint256"
        },
        {
          "internalType": "bytes",
          "name": "_data",
          "type": "bytes"
        }
      ],
      "name": "safeMint",
      "outputs": [],
      "stateMutability": "nonpayable",
      "type": "function"
    },
    {
      "inputs": [
        {
          "internalType": "address",
          "name": "to",
          "type": "address"
        },
        {
          "internalType": "uint256",
          "name": "tokenId",
          "type": "uint256"
        }
      ],
      "name": "safeMint",
      "outputs": [],
      "stateMutability": "nonpayable",
      "type": "function"
    },
    {
      "inputs": [
        {
          "internalType": "uint256",
          "name": "tokenId",
          "type": "uint256"
        }
      ],
      "name": "burn",
      "outputs": [],
      "stateMutability": "nonpayable",
      "type": "function"
    }
  ],
  "bytecode": "0x60806040523480156200001157600080fd5b5060405162002dbb38038062002dbb8339818101604052810190620000379190620002c2565b818181600090805190602001906200005192919062000075565b5080600190805190602001906200006a92919062000075565b5050505050620003ac565b828054620000839062000376565b90600052602060002090601f016020900481019282620000a75760008555620000f3565b82601f10620000c257805160ff1916838001178555620000f3565b82800160010185558215620000f3579182015b82811115620000f2578251825591602001919060010190620000d5565b5b50905062000102919062000106565b5090565b5b808211156200012157600081600090555060010162000107565b5090565b6000604051905090565b600080fd5b600080fd5b600080fd5b600080fd5b6000601f19601f8301169050919050565b7f4e487b7100000000000000000000000000000000000000000000000000000000600052604160045260246000fd5b6200018e8262000143565b810181811067ffffffffffffffff82111715620001b057620001af62000154565b5b80604052505050565b6000620001c562000125565b9050620001d3828262000183565b919050565b600067ffffffffffffffff821115620001f657620001f562000154565b5b620002018262000143565b9050602081019050919050565b60005b838110156200022e57808201518184015260208101905062000211565b838111156200023e576000848401525b50505050565b60006200025b6200025584620001d8565b620001b9565b9050828152602081018484840111156200027a57620002796200013e565b5b620002878482856200020e565b509392505050565b600082601f830112620002a757620002a662000139565b5b8151620002b984826020860162000244565b91505092915050565b60008060408385031215620002dc57620002db6200012f565b5b600083015167ffffffffffffffff811115620002fd57620002fc62000134565b5b6200030b858286016200028f565b925050602083015167ffffffffffffffff8111156200032f576200032e62000134565b5b6200033d858286016200028f565b9150509250929050565b7f4e487b7100000000000000000000000000000000000000000000000000000000600052602260045260246000fd5b600060028204905060018216806200038f57607f821691505b60208210811415620003a657620003a562000347565b5b50919050565b6129ff80620003bc6000396000f3fe608060405234801561001057600080fd5b50600436106101215760003560e01c80636352211e116100ad578063a144819411610071578063a144819414610318578063a22cb46514610334578063b88d4fde14610350578063c87b56dd1461036c578063e985e9c51461039c57610121565b80636352211e146102605780636c0360eb1461029057806370a08231146102ae5780638832e6e3146102de57806395d89b41146102fa57610121565b806323b872dd116100f457806323b872dd146101c057806340c10f19146101dc57806342842e0e146101f857806342966c68146102145780634f558e791461023057610121565b806301ffc9a71461012657806306fdde0314610156578063081812fc14610174578063095ea7b3146101a4575b600080fd5b610140600480360381019061013b9190611913565b6103cc565b60405161014d919061195b565b60405180910390f35b61015e6104ae565b60405161016b9190611a0f565b60405180910390f35b61018e60048036038101906101899190611a67565b610540565b60405161019b9190611ad5565b60405180910390f35b6101be60048036038101906101b99190611b1c565b6105c5565b005b6101da60048036038101906101d59190611b5c565b6106dd565b005b6101f660048036038101906101f19190611b1c565b61073d565b005b610212600480360381019061020d9190611b5c565b61074b565b005b61022e60048036038101906102299190611a67565b61076b565b005b61024a60048036038101906102459190611a67565b610777565b604051610257919061195b565b60405180910390f35b61027a60048036038101906102759190611a67565b610789565b6040516102879190611ad5565b60405180910390f35b61029861083b565b6040516102a59190611a0f565b60405180910390f35b6102c860048036038101906102c39190611baf565b61084a565b6040516102d59190611beb565b60405180910390f35b6102f860048036038101906102f39190611d3b565b610902565b005b610302610912565b60405161030f9190611a0f565b60405180910390f35b610332600480360381019061032d9190611b1c565b6109a4565b005b61034e60048036038101906103499190611dd6565b6109b2565b005b61036a60048036038101906103659190611e16565b6109c8565b005b61038660048036038101906103819190611a67565b610a2a565b6040516103939190611a0f565b60405180910390f35b6103b660048036038101906103b19190611e99565b610ad1565b6040516103c3919061195b565b60405180910390f35b60007f80ac58cd000000000000000000000000000000000000000000000000000000007bffffffffffffffffffffffffffffffffffffffffffffffffffffffff1916827bffffffffffffffffffffffffffffffffffffffffffffffffffffffff1916148061049757507f5b5e139f000000000000000000000000000000000000000000000000000000007bffffffffffffffffffffffffffffffffffffffffffffffffffffffff1916827bffffffffffffffffffffffffffffffffffffffffffffffffffffffff1916145b806104a757506104a682610b65565b5b9050919050565b6060600080546104bd90611f08565b80601f01602080910402602001604051908101604052809291908181526020018280546104e990611f08565b80156105365780601f1061050b57610100808354040283529160200191610536565b820191906000526020600020905b81548152906001019060200180831161051957829003601f168201915b5050505050905090565b600061054b82610bcf565b61058a576040517f08c379a000000000000000000000000000000000000000000000000000000000815260040161058190611fac565b60405180910390fd5b6004600083815260200190815260200160002060009054906101000a900473ffffffffffffffffffffffffffffffffffffffff169050919050565b60006105d082610789565b90508073ffffffffffffffffffffffffffffffffffffffff168373ffffffffffffffffffffffffffffffffffffffff161415610641576040517f08c379a00000000000000000000000000000000000000000000000000000000081526004016106389061203e565b60405180910390fd5b8073ffffffffffffffffffffffffffffffffffffffff16610660610c3b565b73ffffffffffffffffffffffffffffffffffffffff16148061068f575061068e81610689610c3b565b610ad1565b5b6106ce576040517f08c379a00000000000000000000000000000000000000000000000000000000081526004016106c5906120d0565b60405180910390fd5b6106d88383610c43565b505050565b6106ee6106e8610c3b565b82610cfc565b61072d576040517f08c379a000000000000000000000000000000000000000000000000000000000815260040161072490612162565b60405180910390fd5b610738838383610dda565b505050565b6107478282611041565b5050565b610766838383604051806020016040528060008152506109c8565b505050565b6107748161121b565b50565b600061078282610bcf565b9050919050565b6000806002600084815260200190815260200160002060009054906101000a900473ffffffffffffffffffffffffffffffffffffffff169050600073ffffffffffffffffffffffffffffffffffffffff168173ffffffffffffffffffffffffffffffffffffffff161415610832576040517f08c379a0000000000000000000000000000000000000000000000000000000008152600401610829906121f4565b60405180910390fd5b80915050919050565b6060610845611338565b905090565b60008073ffffffffffffffffffffffffffffffffffffffff168273ffffffffffffffffffffffffffffffffffffffff1614156108bb576040517f08c379a00000000000000000000000000000000000000000000000000000000081526004016108b290612286565b60405180910390fd5b600360008373ffffffffffffffffffffffffffffffffffffffff1673ffffffffffffffffffffffffffffffffffffffff168152602001908152602001600020549050919050565b61090d83838361134f565b505050565b60606001805461092190611f08565b80601f016020809104026020016040519081016040528092919081815260200182805461094d90611f08565b801561099a5780601f1061096f5761010080835404028352916020019161099a565b820191906000526020600020905b81548152906001019060200180831161097d57829003601f168201915b5050505050905090565b6109ae82826113aa565b5050565b6109c46109bd610c3b565b83836113c8565b5050565b6109d96109d3610c3b565b83610cfc565b610a18576040517f08c379a0000000000000000000000000000000000000000000000000000000008152600401610a0f90612162565b60405180910390fd5b610a2484848484611535565b50505050565b6060610a3582610bcf565b610a74576040517f08c379a0000000000000000000000000000000000000000000000000000000008152600401610a6b90612318565b60405180910390fd5b6000610a7e611338565b90506000815111610a9e5760405180602001604052806000815250610ac9565b80610aa884611591565b604051602001610ab9929190612374565b6040516020818303038152906040525b915050919050565b6000600560008473ffffffffffffffffffffffffffffffffffffffff1673ffffffffffffffffffffffffffffffffffffffff16815260200190815260200160002060008373ffffffffffffffffffffffffffffffffffffffff1673ffffffffffffffffffffffffffffffffffffffff16815260200190815260200160002060009054906101000a900460ff16905092915050565b60007f01ffc9a7000000000000000000000000000000000000000000000000000000007bffffffffffffffffffffffffffffffffffffffffffffffffffffffff1916827bffffffffffffffffffffffffffffffffffffffffffffffffffffffff1916149050919050565b60008073ffffffffffffffffffffffffffffffffffffffff166002600084815260200190815260200160002060009054906101000a900473ffffffffffffffffffffffffffffffffffffffff1673ffffffffffffffffffffffffffffffffffffffff1614159050919050565b600033905090565b816004600083815260200190815260200160002060006101000a81548173ffffffffffffffffffffffffffffffffffffffff021916908373ffffffffffffffffffffffffffffffffffffffff160217905550808273ffffffffffffffffffffffffffffffffffffffff16610cb683610789565b73ffffffffffffffffffffffffffffffffffffffff167f8c5be1e5ebec7d5bd14f71427d1e84f3dd0314c0f7b2291e5b200ac8c7c3b92560405160405180910390a45050565b6000610d0782610bcf565b610d46576040517f08c379a0000000000000000000000000000000000000000000000000000000008152600401610d3d9061240a565b60405180910390fd5b6000610d5183610789565b90508073ffffffffffffffffffffffffffffffffffffffff168473ffffffffffffffffffffffffffffffffffffffff161480610dc057508373ffffffffffffffffffffffffffffffffffffffff16610da884610540565b73ffffffffffffffffffffffffffffffffffffffff16145b80610dd15750610dd08185610ad1565b5b91505092915050565b8273ffffffffffffffffffffffffffffffffffffffff16610dfa82610789565b73ffffffffffffffffffffffffffffffffffffffff1614610e50576040517f08c379a0000000000000000000000000000000000000000000000000000000008152600401610e479061249c565b60405180910390fd5b600073ffffffffffffffffffffffffffffffffffffffff168273ffffffffffffffffffffffffffffffffffffffff161415610ec0576040517f08c379a0000000000000000000000000000000000000000000000000000000008152600401610eb79061252e565b60405180910390fd5b610ecb8383836116f2565b610ed6600082610c43565b6001600360008573ffffffffffffffffffffffffffffffffffffffff1673ffffffffffffffffffffffffffffffffffffffff1681526020019081526020016000206000828254610f26919061257d565b925050819055506001600360008473ffffffffffffffffffffffffffffffffffffffff1673ffffffffffffffffffffffffffffffffffffffff1681526020019081526020016000206000828254610f7d91906125b1565b92505081905550816002600083815260200190815260200160002060006101000a81548173ffffffffffffffffffffffffffffffffffffffff021916908373ffffffffffffffffffffffffffffffffffffffff160217905550808273ffffffffffffffffffffffffffffffffffffffff168473ffffffffffffffffffffffffffffffffffffffff167fddf252ad1be2c89b69c2b068fc378daa952ba7f163c4a11628f55a4df523b3ef60405160405180910390a461103c8383836116f7565b505050565b600073ffffffffffffffffffffffffffffffffffffffff168273ffffffffffffffffffffffffffffffffffffffff1614156110b1576040517f08c379a00000000000000000000000000000000000000000000000000000000081526004016110a890612653565b60405180910390fd5b6110ba81610bcf565b156110fa576040517f08c379a00000000000000000000000000000000000000000000000000000000081526004016110f1906126bf565b60405180910390fd5b611106600083836116f2565b6001600360008473ffffffffffffffffffffffffffffffffffffffff1673ffffffffffffffffffffffffffffffffffffffff168152602001908152602001600020600082825461115691906125b1565b92505081905550816002600083815260200190815260200160002060006101000a81548173ffffffffffffffffffffffffffffffffffffffff021916908373ffffffffffffffffffffffffffffffffffffffff160217905550808273ffffffffffffffffffffffffffffffffffffffff16600073ffffffffffffffffffffffffffffffffffffffff167fddf252ad1be2c89b69c2b068fc378daa952ba7f163c4a11628f55a4df523b3ef60405160405180910390a4611217600083836116f7565b5050565b600061122682610789565b9050611234816000846116f2565b61123f600083610c43565b6001600360008373ffffffffffffffffffffffffffffffffffffffff1673ffffffffffffffffffffffffffffffffffffffff168152602001908152602001600020600082825461128f919061257d565b925050819055506002600083815260200190815260200160002060006101000a81549073ffffffffffffffffffffffffffffffffffffffff021916905581600073ffffffffffffffffffffffffffffffffffffffff168273ffffffffffffffffffffffffffffffffffffffff167fddf252ad1be2c89b69c2b068fc378daa952ba7f163c4a11628f55a4df523b3ef60405160405180910390a4611334816000846116f7565b5050565b606060405180602001604052806000815250905090565b6113598383611041565b61136660008484846116fc565b6113a5576040517f08c379a000000000000000000000000000000000000000000000000000000000815260040161139c90612751565b60405180910390fd5b505050565b6113c482826040518060200160405280600081525061134f565b5050565b8173ffffffffffffffffffffffffffffffffffffffff168373ffffffffffffffffffffffffffffffffffffffff161415611437576040517f08c379a000000000000000000000000000000000000000000000000000000000815260040161142e906127bd565b60405180910390fd5b80600560008573ffffffffffffffffffffffffffffffffffffffff1673ffffffffffffffffffffffffffffffffffffffff16815260200190815260200160002060008473ffffffffffffffffffffffffffffffffffffffff1673ffffffffffffffffffffffffffffffffffffffff16815260200190815260200160002060006101000a81548160ff0219169083151502179055508173ffffffffffffffffffffffffffffffffffffffff168373ffffffffffffffffffffffffffffffffffffffff167f17307eab39ab6107e8899845ad3d59bd9653f200f220920489ca2b5937696c3183604051611528919061195b565b60405180910390a3505050565b611540848484610dda565b61154c848484846116fc565b61158b576040517f08c379a000000000000000000000000000000000000000000000000000000000815260040161158290612751565b60405180910390fd5b50505050565b606060008214156115d9576040518060400160405280600181526020017f300000000000000000000000000000000000000000000000000000000000000081525090506116ed565b600082905060005b6000821461160b5780806115f4906127dd565b915050600a826116049190612855565b91506115e1565b60008167ffffffffffffffff81111561162757611626611c10565b5b6040519080825280601f01601f1916602001820160405280156116595781602001600182028036833780820191505090505b5090505b600085146116e657600182611672919061257d565b9150600a856116819190612886565b603061168d91906125b1565b60f81b8183815181106116a3576116a26128b7565b5b60200101907effffffffffffffffffffffffffffffffffffffffffffffffffffffffffffff1916908160001a905350600a856116df9190612855565b945061165d565b8093505050505b919050565b505050565b505050565b600061171d8473ffffffffffffffffffffffffffffffffffffffff16611884565b15611877578373ffffffffffffffffffffffffffffffffffffffff1663150b7a02611746610c3b565b8786866040518563ffffffff1660e01b8152600401611768949392919061293b565b6020604051808303816000875af19250505080156117a457506040513d601f19601f820116820180604052508101906117a1919061299c565b60015b611827573d80600081146117d4576040519150601f19603f3d011682016040523d82523d6000602084013e6117d9565b606091505b5060008151141561181f576040517f08c379a000000000000000000000000000000000000000000000000000000000815260040161181690612751565b60405180910390fd5b805181602001fd5b63150b7a0260e01b7bffffffffffffffffffffffffffffffffffffffffffffffffffffffff1916817bffffffffffffffffffffffffffffffffffffffffffffffffffffffff19161491505061187c565b600190505b949350505050565b6000808273ffffffffffffffffffffffffffffffffffffffff163b119050919050565b6000604051905090565b600080fd5b600080fd5b60007fffffffff0000000000000000000000000000000000000000000000000000000082169050919050565b6118f0816118bb565b81146118fb57600080fd5b50565b60008135905061190d816118e7565b92915050565b600060208284031215611929576119286118b1565b5b6000611937848285016118fe565b91505092915050565b60008115159050919050565b61195581611940565b82525050565b6000602082019050611970600083018461194c565b92915050565b600081519050919050565b600082825260208201905092915050565b60005b838110156119b0578082015181840152602081019050611995565b838111156119bf576000848401525b50505050565b6000601f19601f8301169050919050565b60006119e182611976565b6119eb8185611981565b93506119fb818560208601611992565b611a04816119c5565b840191505092915050565b60006020820190508181036000830152611a2981846119d6565b905092915050565b6000819050919050565b611a4481611a31565b8114611a4f57600080fd5b50565b600081359050611a6181611a3b565b92915050565b600060208284031215611a7d57611a7c6118b1565b5b6000611a8b84828501611a52565b91505092915050565b600073ffffffffffffffffffffffffffffffffffffffff82169050919050565b6000611abf82611a94565b9050919050565b611acf81611ab4565b82525050565b6000602082019050611aea6000830184611ac6565b92915050565b611af981611ab4565b8114611b0457600080fd5b50565b600081359050611b1681611af0565b92915050565b60008060408385031215611b3357611b326118b1565b5b6000611b4185828601611b07565b9250506020611b5285828601611a52565b9150509250929050565b600080600060608486031215611b7557611b746118b1565b5b6000611b8386828701611b07565b9350506020611b9486828701611b07565b9250506040611ba586828701611a52565b9150509250925092565b600060208284031215611bc557611bc46118b1565b5b6000611bd384828501611b07565b91505092915050565b611be581611a31565b82525050565b6000602082019050611c006000830184611bdc565b92915050565b600080fd5b600080fd5b7f4e487b7100000000000000000000000000000000000000000000000000000000600052604160045260246000fd5b611c48826119c5565b810181811067ffffffffffffffff82111715611c6757611c66611c10565b5b80604052505050565b6000611c7a6118a7565b9050611c868282611c3f565b919050565b600067ffffffffffffffff821115611ca657611ca5611c10565b5b611caf826119c5565b9050602081019050919050565b82818337600083830152505050565b6000611cde611cd984611c8b565b611c70565b905082815260208101848484011115611cfa57611cf9611c0b565b5b611d05848285611cbc565b509392505050565b600082601f830112611d2257611d21611c06565b5b8135611d32848260208601611ccb565b91505092915050565b600080600060608486031215611d5457611d536118b1565b5b6000611d6286828701611b07565b9350506020611d7386828701611a52565b925050604084013567ffffffffffffffff811115611d9457611d936118b6565b5b611da086828701611d0d565b9150509250925092565b611db381611940565b8114611dbe57600080fd5b50565b600081359050611dd081611daa565b92915050565b60008060408385031215611ded57611dec6118b1565b5b6000611dfb85828601611b07565b9250506020611e0c85828601611dc1565b9150509250929050565b60008060008060808587031215611e3057611e2f6118b1565b5b6000611e3e87828801611b07565b9450506020611e4f87828801611b07565b9350506040611e6087828801611a52565b925050606085013567ffffffffffffffff811115611e8157611e806118b6565b5b611e8d87828801611d0d565b91505092959194509250565b60008060408385031215611eb057611eaf6118b1565b5b6000611ebe85828601611b07565b9250506020611ecf85828601611b07565b9150509250929050565b7f4e487b7100000000000000000000000000000000000000000000000000000000600052602260045260246000fd5b60006002820490506001821680611f2057607f821691505b60208210811415611f3457611f33611ed9565b5b50919050565b7f4552433732313a20617070726f76656420717565727920666f72206e6f6e657860008201527f697374656e7420746f6b656e0000000000000000000000000000000000000000602082015250565b6000611f96602c83611981565b9150611fa182611f3a565b604082019050919050565b60006020820190508181036000830152611fc581611f89565b9050919050565b7f4552433732313a20617070726f76616c20746f2063757272656e74206f776e6560008201527f7200000000000000000000000000000000000000000000000000000000000000602082015250565b6000612028602183611981565b915061203382611fcc565b604082019050919050565b600060208201905081810360008301526120578161201b565b9050919050565b7f4552433732313a20617070726f76652063616c6c6572206973206e6f74206f7760008201527f6e6572206e6f7220617070726f76656420666f7220616c6c0000000000000000602082015250565b60006120ba603883611981565b91506120c58261205e565b604082019050919050565b600060208201905081810360008301526120e9816120ad565b9050919050565b7f4552433732313a207472616e736665722063616c6c6572206973206e6f74206f60008201527f776e6572206e6f7220617070726f766564000000000000000000000000000000602082015250565b600061214c603183611981565b9150612157826120f0565b604082019050919050565b6000602082019050818103600083015261217b8161213f565b9050919050565b7f4552433732313a206f776e657220717565727920666f72206e6f6e657869737460008201527f656e7420746f6b656e0000000000000000000000000000000000000000000000602082015250565b60006121de602983611981565b91506121e982612182565b604082019050919050565b6000602082019050818103600083015261220d816121d1565b9050919050565b7f4552433732313a2062616c616e636520717565727920666f7220746865207a6560008201527f726f206164647265737300000000000000000000000000000000000000000000602082015250565b6000612270602a83611981565b915061227b82612214565b604082019050919050565b6000602082019050818103600083015261229f81612263565b9050919050565b7f4552433732314d657461646174613a2055524920717565727920666f72206e6f60008201527f6e6578697374656e7420746f6b656e0000000000000000000000000000000000602082015250565b6000612302602f83611981565b915061230d826122a6565b604082019050919050565b60006020820190508181036000830152612331816122f5565b9050919050565b600081905092915050565b600061234e82611976565b6123588185612338565b9350612368818560208601611992565b80840191505092915050565b60006123808285612343565b915061238c8284612343565b91508190509392505050565b7f4552433732313a206f70657261746f7220717565727920666f72206e6f6e657860008201527f697374656e7420746f6b656e0000000000000000000000000000000000000000602082015250565b60006123f4602c83611981565b91506123ff82612398565b604082019050919050565b60006020820190508181036000830152612423816123e7565b9050919050565b7f4552433732313a207472616e736665722066726f6d20696e636f72726563742060008201527f6f776e6572000000000000000000000000000000000000000000000000000000602082015250565b6000612486602583611981565b91506124918261242a565b604082019050919050565b600060208201905081810360008301526124b581612479565b9050919050565b7f4552433732313a207472616e7366657220746f20746865207a65726f2061646460008201527f7265737300000000000000000000000000000000000000000000000000000000602082015250565b6000612518602483611981565b9150612523826124bc565b604082019050919050565b600060208201905081810360008301526125478161250b565b9050919050565b7f4e487b7100000000000000000000000000000000000000000000000000000000600052601160045260246000fd5b600061258882611a31565b915061259383611a31565b9250828210156125a6576125a561254e565b5b828203905092915050565b60006125bc82611a31565b91506125c783611a31565b9250827fffffffffffffffffffffffffffffffffffffffffffffffffffffffffffffffff038211156125fc576125fb61254e565b5b828201905092915050565b7f4552433732313a206d696e7420746f20746865207a65726f2061646472657373600082015250565b600061263d602083611981565b915061264882612607565b602082019050919050565b6000602082019050818103600083015261266c81612630565b9050919050565b7f4552433732313a20746f6b656e20616c7265616479206d696e74656400000000600082015250565b60006126a9601c83611981565b91506126b482612673565b602082019050919050565b600060208201905081810360008301526126d88161269c565b9050919050565b7f4552433732313a207472616e7366657220746f206e6f6e20455243373231526560008201527f63656976657220696d706c656d656e7465720000000000000000000000000000602082015250565b600061273b603283611981565b9150612746826126df565b604082019050919050565b6000602082019050818103600083015261276a8161272e565b9050919050565b7f4552433732313a20617070726f766520746f2063616c6c657200000000000000600082015250565b60006127a7601983611981565b91506127b282612771565b602082019050919050565b600060208201905081810360008301526127d68161279a565b9050919050565b60006127e882611a31565b91507fffffffffffffffffffffffffffffffffffffffffffffffffffffffffffffffff82141561281b5761281a61254e565b5b600182019050919050565b7f4e487b7100000000000000000000000000000000000000000000000000000000600052601260045260246000fd5b600061286082611a31565b915061286b83611a31565b92508261287b5761287a612826565b5b828204905092915050565b600061289182611a31565b915061289c83611a31565b9250826128ac576128ab612826565b5b828206905092915050565b7f4e487b7100000000000000000000000000000000000000000000000000000000600052603260045260246000fd5b600081519050919050565b600082825260208201905092915050565b600061290d826128e6565b61291781856128f1565b9350612927818560208601611992565b612930816119c5565b840191505092915050565b60006080820190506129506000830187611ac6565b61295d6020830186611ac6565b61296a6040830185611bdc565b818103606083015261297c8184612902565b905095945050505050565b600081519050612996816118e7565b92915050565b6000602082840312156129b2576129b16118b1565b5b60006129c084828501612987565b9150509291505056fea2646970667358221220bb7f1f6dbebf328b6320bb0279566acbc909da56056081ad94cc83dcaa5875e064736f6c634300080b0033",
  "immutableReferences": {},
  "source": "// SPDX-License-Identifier: MIT\n\npragma solidity ^0.8.0;\n\nimport \"../token/ERC721/ERC721.sol\";\n\n/**\n * @title ERC721Mock\n * This mock just provides a public safeMint, mint, and burn functions for testing purposes\n */\ncontract ERC721Mock is ERC721 {\n    constructor(string memory name, string memory symbol) ERC721(name, symbol) {}\n\n    function baseURI() public view returns (string memory) {\n        return _baseURI();\n    }\n\n    function exists(uint256 tokenId) public view returns (bool) {\n        return _exists(tokenId);\n    }\n\n    function mint(address to, uint256 tokenId) public {\n        _mint(to, tokenId);\n    }\n\n    function safeMint(address to, uint256 tokenId) public {\n        _safeMint(to, tokenId);\n    }\n\n    function safeMint(\n        address to,\n        uint256 tokenId,\n        bytes memory _data\n    ) public {\n        _safeMint(to, tokenId, _data);\n    }\n\n    function burn(uint256 tokenId) public {\n        _burn(tokenId);\n    }\n}\n",
  "sourcePath": "D:\\03.block-chain\\01.miquelTC__nft-marketplace\\test-proj\\nft-marketplace-master\\src\\contracts\\ERC721\\mocks\\ERC721Mock.sol",
  "compiler": {
    "name": "solc",
    "version": "0.8.11+commit.d7f03943.Emscripten.clang"
  },
  "schemaVersion": "3.4.4",
  "updatedAt": "2022-02-16T02:59:58.486Z",
  "devdoc": {
    "kind": "dev",
    "methods": {
      "approve(address,uint256)": {
        "details": "See {IERC721-approve}."
      },
      "balanceOf(address)": {
        "details": "See {IERC721-balanceOf}."
      },
      "getApproved(uint256)": {
        "details": "See {IERC721-getApproved}."
      },
      "isApprovedForAll(address,address)": {
        "details": "See {IERC721-isApprovedForAll}."
      },
      "name()": {
        "details": "See {IERC721Metadata-name}."
      },
      "ownerOf(uint256)": {
        "details": "See {IERC721-ownerOf}."
      },
      "safeTransferFrom(address,address,uint256)": {
        "details": "See {IERC721-safeTransferFrom}."
      },
      "safeTransferFrom(address,address,uint256,bytes)": {
        "details": "See {IERC721-safeTransferFrom}."
      },
      "setApprovalForAll(address,bool)": {
        "details": "See {IERC721-setApprovalForAll}."
      },
      "supportsInterface(bytes4)": {
        "details": "See {IERC165-supportsInterface}."
      },
      "symbol()": {
        "details": "See {IERC721Metadata-symbol}."
      },
      "tokenURI(uint256)": {
        "details": "See {IERC721Metadata-tokenURI}."
      },
      "transferFrom(address,address,uint256)": {
        "details": "See {IERC721-transferFrom}."
      }
    },
    "title": "ERC721Mock This mock just provides a public safeMint, mint, and burn functions for testing purposes",
    "version": 1
  },
  "userdoc": {
    "kind": "user",
    "methods": {},
    "version": 1
  }
}