{
  "contractName": "ERC721Lending",
  "abi": [
    {
      "anonymous": false,
      "inputs": [
        {
          "indexed": false,
          "internalType": "address",
          "name": "tokenAddress",
          "type": "address"
        },
        {
          "indexed": false,
          "internalType": "uint256",
          "name": "tokenId",
          "type": "uint256"
        }
      ],
      "name": "ERC721ForLendRemoved",
      "type": "event"
    },
    {
      "anonymous": false,
      "inputs": [
        {
          "indexed": false,
          "internalType": "address",
          "name": "lenderAddress",
          "type": "address"
        },
        {
          "indexed": false,
          "internalType": "address",
          "name": "tokenAddress",
          "type": "address"
        },
        {
          "indexed": false,
          "internalType": "uint256",
          "name": "tokenId",
          "type": "uint256"
        }
      ],
      "name": "ERC721ForLendRemovedV2",
      "type": "event"
    },
    {
      "anonymous": false,
      "inputs": [
        {
          "indexed": false,
          "internalType": "address",
          "name": "tokenAddress",
          "type": "address"
        },
        {
          "indexed": false,
          "internalType": "uint256",
          "name": "tokenId",
          "type": "uint256"
        }
      ],
      "name": "ERC721ForLendUpdated",
      "type": "event"
    },
    {
      "anonymous": false,
      "inputs": [
        {
          "indexed": false,
          "internalType": "address",
          "name": "lenderAddress",
          "type": "address"
        },
        {
          "indexed": false,
          "internalType": "address",
          "name": "tokenAddress",
          "type": "address"
        },
        {
          "indexed": false,
          "internalType": "uint256",
          "name": "tokenId",
          "type": "uint256"
        }
      ],
      "name": "ERC721ForLendUpdatedV2",
      "type": "event"
    },
    {
      "inputs": [],
      "name": "acceptedPayTokenAddress",
      "outputs": [
        {
          "internalType": "address",
          "name": "",
          "type": "address"
        }
      ],
      "stateMutability": "view",
      "type": "function"
    },
    {
      "inputs": [],
      "name": "feesContractAddress",
      "outputs": [
        {
          "internalType": "address",
          "name": "",
          "type": "address"
        }
      ],
      "stateMutability": "view",
      "type": "function"
    },
    {
      "inputs": [
        {
          "internalType": "uint256",
          "name": "",
          "type": "uint256"
        }
      ],
      "name": "lendersWithTokens",
      "outputs": [
        {
          "internalType": "address",
          "name": "lenderAddress",
          "type": "address"
        },
        {
          "internalType": "address",
          "name": "tokenAddress",
          "type": "address"
        },
        {
          "internalType": "uint256",
          "name": "tokenId",
          "type": "uint256"
        }
      ],
      "stateMutability": "view",
      "type": "function"
    },
    {
      "inputs": [
        {
          "internalType": "address",
          "name": "",
          "type": "address"
        },
        {
          "internalType": "uint256",
          "name": "",
          "type": "uint256"
        },
        {
          "internalType": "address",
          "name": "",
          "type": "address"
        }
      ],
      "name": "lendingPool",
      "outputs": [
        {
          "internalType": "uint256",
          "name": "durationHours",
          "type": "uint256"
        },
        {
          "internalType": "uint256",
          "name": "initialWorth",
          "type": "uint256"
        },
        {
          "internalType": "uint256",
          "name": "earningGoal",
          "type": "uint256"
        },
        {
          "internalType": "uint256",
          "name": "borrowedAtTimestamp",
          "type": "uint256"
        },
        {
          "internalType": "address",
          "name": "lender",
          "type": "address"
        },
        {
          "internalType": "address",
          "name": "borrower",
          "type": "address"
        },
        {
          "internalType": "bool",
          "name": "lenderClaimedCollateral",
          "type": "bool"
        },
        {
          "internalType": "uint256",
          "name": "sablierSalaryId",
          "type": "uint256"
        },
        {
          "internalType": "uint256",
          "name": "platformFeesPercent",
          "type": "uint256"
        }
      ],
      "stateMutability": "view",
      "type": "function"
    },
    {
      "inputs": [],
      "name": "lentCount",
      "outputs": [
        {
          "internalType": "uint256",
          "name": "",
          "type": "uint256"
        }
      ],
      "stateMutability": "view",
      "type": "function"
    },
    {
      "inputs": [
        {
          "internalType": "address",
          "name": "",
          "type": "address"
        },
        {
          "internalType": "uint256",
          "name": "",
          "type": "uint256"
        }
      ],
      "name": "lentERC721List",
      "outputs": [
        {
          "internalType": "uint256",
          "name": "durationHours",
          "type": "uint256"
        },
        {
          "internalType": "uint256",
          "name": "initialWorth",
          "type": "uint256"
        },
        {
          "internalType": "uint256",
          "name": "earningGoal",
          "type": "uint256"
        },
        {
          "internalType": "uint256",
          "name": "borrowedAtTimestamp",
          "type": "uint256"
        },
        {
          "internalType": "address",
          "name": "lender",
          "type": "address"
        },
        {
          "internalType": "address",
          "name": "borrower",
          "type": "address"
        },
        {
          "internalType": "bool",
          "name": "lenderClaimedCollateral",
          "type": "bool"
        },
        {
          "internalType": "uint256",
          "name": "sablierSalaryId",
          "type": "uint256"
        },
        {
          "internalType": "uint256",
          "name": "platformFeesPercent",
          "type": "uint256"
        }
      ],
      "stateMutability": "view",
      "type": "function"
    },
    {
      "inputs": [],
      "name": "sablierContractAddress",
      "outputs": [
        {
          "internalType": "address",
          "name": "",
          "type": "address"
        }
      ],
      "stateMutability": "view",
      "type": "function"
    },
    {
      "inputs": [
        {
          "internalType": "address",
          "name": "tokenAddress",
          "type": "address"
        }
      ],
      "name": "initialize",
      "outputs": [],
      "stateMutability": "nonpayable",
      "type": "function"
    },
    {
      "inputs": [
        {
          "internalType": "address",
          "name": "contractAddress",
          "type": "address"
        }
      ],
      "name": "setSablierContractAddress",
      "outputs": [],
      "stateMutability": "nonpayable",
      "type": "function"
    },
    {
      "inputs": [
        {
          "internalType": "address",
          "name": "contractAddress",
          "type": "address"
        }
      ],
      "name": "setFeesContractAddress",
      "outputs": [],
      "stateMutability": "nonpayable",
      "type": "function"
    },
    {
      "inputs": [
        {
          "internalType": "address",
          "name": "tokenAddress",
          "type": "address"
        },
        {
          "internalType": "uint256",
          "name": "tokenId",
          "type": "uint256"
        },
        {
          "internalType": "uint256",
          "name": "durationHours",
          "type": "uint256"
        },
        {
          "internalType": "uint256",
          "name": "initialWorth",
          "type": "uint256"
        },
        {
          "internalType": "uint256",
          "name": "earningGoal",
          "type": "uint256"
        }
      ],
      "name": "setLendSettings",
      "outputs": [
        {
          "internalType": "uint256",
          "name": "",
          "type": "uint256"
        }
      ],
      "stateMutability": "nonpayable",
      "type": "function"
    },
    {
      "inputs": [
        {
          "internalType": "address",
          "name": "tokenAddress",
          "type": "address"
        },
        {
          "internalType": "uint256",
          "name": "tokenId",
          "type": "uint256"
        }
      ],
      "name": "startBorrowing",
      "outputs": [],
      "stateMutability": "nonpayable",
      "type": "function"
    },
    {
      "inputs": [
        {
          "internalType": "address",
          "name": "tokenAddress",
          "type": "address"
        },
        {
          "internalType": "uint256",
          "name": "tokenId",
          "type": "uint256"
        }
      ],
      "name": "stopBorrowing",
      "outputs": [],
      "stateMutability": "nonpayable",
      "type": "function"
    },
    {
      "inputs": [
        {
          "internalType": "address",
          "name": "tokenAddress",
          "type": "address"
        },
        {
          "internalType": "uint256",
          "name": "tokenId",
          "type": "uint256"
        }
      ],
      "name": "calculateLendSum",
      "outputs": [
        {
          "internalType": "uint256",
          "name": "",
          "type": "uint256"
        }
      ],
      "stateMutability": "view",
      "type": "function"
    },
    {
      "inputs": [
        {
          "internalType": "uint256",
          "name": "borrowedAtTimestamp",
          "type": "uint256"
        },
        {
          "internalType": "uint256",
          "name": "durationHours",
          "type": "uint256"
        }
      ],
      "name": "isDurationExpired",
      "outputs": [
        {
          "internalType": "bool",
          "name": "",
          "type": "bool"
        }
      ],
      "stateMutability": "view",
      "type": "function"
    },
    {
      "inputs": [
        {
          "internalType": "address",
          "name": "tokenAddress",
          "type": "address"
        },
        {
          "internalType": "uint256",
          "name": "tokenId",
          "type": "uint256"
        }
      ],
      "name": "removeFromLending",
      "outputs": [],
      "stateMutability": "nonpayable",
      "type": "function"
    },
    {
      "inputs": [
        {
          "internalType": "address",
          "name": "tokenAddress",
          "type": "address"
        },
        {
          "internalType": "uint256",
          "name": "tokenId",
          "type": "uint256"
        }
      ],
      "name": "claimBorrowerCollateral",
      "outputs": [],
      "stateMutability": "nonpayable",
      "type": "function"
    },
    {
      "inputs": [
        {
          "internalType": "address",
          "name": "tokenAddress",
          "type": "address"
        },
        {
          "internalType": "uint256",
          "name": "tokenId",
          "type": "uint256"
        }
      ],
      "name": "isValidNFT",
      "outputs": [
        {
          "internalType": "bool",
          "name": "",
          "type": "bool"
        }
      ],
      "stateMutability": "view",
      "type": "function"
    }
  ],
  "bytecode": "0x6080604052600060015534801561001557600080fd5b50614660806100256000396000f3fe608060405234801561001057600080fd5b50600436106101165760003560e01c80637eca3870116100a2578063a36d2bee11610071578063a36d2bee146102d3578063afe89ab514610303578063c4d66de814610335578063c80d922214610351578063ca6ddbae1461038157610116565b80637eca38701461024757806394f583f014610263578063973e071f1461027f5780639baa72111461029b57610116565b80634c806ffc116100e95780634c806ffc146101a35780634dbbfd89146101bf578063537aa868146101db5780635e2afd961461020b57806360aecb411461022957610116565b80631e9f57a51461011b578063227893f21461014b57806322af94c5146101695780633b1a337114610187575b600080fd5b61013560048036038101906101309190613662565b6103b9565b60405161014291906136b1565b60405180910390f35b610153610480565b60405161016091906136db565b60405180910390f35b6101716104a6565b60405161017e91906136b1565b60405180910390f35b6101a1600480360381019061019c9190613662565b6104ac565b005b6101bd60048036038101906101b89190613662565b610af2565b005b6101d960048036038101906101d491906136f6565b611779565b005b6101f560048036038101906101f09190613662565b61184e565b604051610202919061373e565b60405180910390f35b610213611901565b60405161022091906136db565b60405180910390f35b610231611927565b60405161023e91906136db565b60405180910390f35b610261600480360381019061025c9190613662565b61194d565b005b61027d600480360381019061027891906136f6565b6122ac565b005b61029960048036038101906102949190613662565b612381565b005b6102b560048036038101906102b09190613662565b612a3e565b6040516102ca99989796959493929190613759565b60405180910390f35b6102ed60048036038101906102e891906137e6565b612ae6565b6040516102fa91906136b1565b60405180910390f35b61031d60048036038101906103189190613861565b612b2f565b60405161032c9392919061388e565b60405180910390f35b61034f600480360381019061034a91906136f6565b612ba9565b005b61036b600480360381019061036691906138c5565b612ccf565b604051610378919061373e565b60405180910390f35b61039b60048036038101906103969190613905565b612d09565b6040516103b099989796959493929190613759565b60405180910390f35b600080600360008573ffffffffffffffffffffffffffffffffffffffff1673ffffffffffffffffffffffffffffffffffffffff16815260200190815260200160002060008481526020019081526020016000206002015490506000600360008673ffffffffffffffffffffffffffffffffffffffff1673ffffffffffffffffffffffffffffffffffffffff168152602001908152602001600020600085815260200190815260200160002060010154905081816104769190613987565b9250505092915050565b600560009054906101000a900473ffffffffffffffffffffffffffffffffffffffff1681565b60015481565b3373ffffffffffffffffffffffffffffffffffffffff16600360008473ffffffffffffffffffffffffffffffffffffffff1673ffffffffffffffffffffffffffffffffffffffff168152602001908152602001600020600083815260200190815260200160002060040160009054906101000a900473ffffffffffffffffffffffffffffffffffffffff1673ffffffffffffffffffffffffffffffffffffffff161461058d576040517f08c379a000000000000000000000000000000000000000000000000000000000815260040161058490613a60565b60405180910390fd5b600073ffffffffffffffffffffffffffffffffffffffff16600360008473ffffffffffffffffffffffffffffffffffffffff1673ffffffffffffffffffffffffffffffffffffffff168152602001908152602001600020600083815260200190815260200160002060050160009054906101000a900473ffffffffffffffffffffffffffffffffffffffff1673ffffffffffffffffffffffffffffffffffffffff161461066f576040517f08c379a000000000000000000000000000000000000000000000000000000000815260040161066690613acc565b60405180910390fd5b60001515600360008473ffffffffffffffffffffffffffffffffffffffff1673ffffffffffffffffffffffffffffffffffffffff168152602001908152602001600020600083815260200190815260200160002060050160149054906101000a900460ff16151514610716576040517f08c379a000000000000000000000000000000000000000000000000000000000815260040161070d90613b38565b60405180910390fd5b60008273ffffffffffffffffffffffffffffffffffffffff163083604051602401610742929190613b58565b6040516020818303038152906040527f095ea7b3000000000000000000000000000000000000000000000000000000007bffffffffffffffffffffffffffffffffffffffffffffffffffffffff19166020820180517bffffffffffffffffffffffffffffffffffffffffffffffffffffffff83818316178352505050506040516107cc9190613bfb565b6000604051808303816000865af19150503d8060008114610809576040519150601f19603f3d011682016040523d82523d6000602084013e61080e565b606091505b505090508015610886578273ffffffffffffffffffffffffffffffffffffffff1663095ea7b330846040518363ffffffff1660e01b8152600401610853929190613b58565b600060405180830381600087803b15801561086d57600080fd5b505af1158015610881573d6000803e3d6000fd5b505050505b8273ffffffffffffffffffffffffffffffffffffffff166323b872dd3033856040518463ffffffff1660e01b81526004016108c39392919061388e565b600060405180830381600087803b1580156108dd57600080fd5b505af11580156108f1573d6000803e3d6000fd5b5050505060405180610120016040528060008152602001600081526020016000815260200160008152602001600073ffffffffffffffffffffffffffffffffffffffff168152602001600073ffffffffffffffffffffffffffffffffffffffff168152602001600015158152602001600081526020016000815250600360008573ffffffffffffffffffffffffffffffffffffffff1673ffffffffffffffffffffffffffffffffffffffff16815260200190815260200160002060008481526020019081526020016000206000820151816000015560208201518160010155604082015181600201556060820151816003015560808201518160040160006101000a81548173ffffffffffffffffffffffffffffffffffffffff021916908373ffffffffffffffffffffffffffffffffffffffff16021790555060a08201518160050160006101000a81548173ffffffffffffffffffffffffffffffffffffffff021916908373ffffffffffffffffffffffffffffffffffffffff16021790555060c08201518160050160146101000a81548160ff02191690831515021790555060e082015181600601556101008201518160070155905050610ab48383612dbe565b7f948592af2167a41ba05b6478e8646bf065736f7ccea16c304ffec4b6b441b22a8383604051610ae5929190613b58565b60405180910390a1505050565b6000600360008473ffffffffffffffffffffffffffffffffffffffff1673ffffffffffffffffffffffffffffffffffffffff168152602001908152602001600020600083815260200190815260200160002060050160009054906101000a900473ffffffffffffffffffffffffffffffffffffffff1690503373ffffffffffffffffffffffffffffffffffffffff168173ffffffffffffffffffffffffffffffffffffffff1614610bd8576040517f08c379a0000000000000000000000000000000000000000000000000000000008152600401610bcf90613c84565b60405180910390fd5b60001515600360008573ffffffffffffffffffffffffffffffffffffffff1673ffffffffffffffffffffffffffffffffffffffff168152602001908152602001600020600084815260200190815260200160002060050160149054906101000a900460ff1615151415611585578273ffffffffffffffffffffffffffffffffffffffff166323b872dd3330856040518463ffffffff1660e01b8152600401610c829392919061388e565b600060405180830381600087803b158015610c9c57600080fd5b505af1158015610cb0573d6000803e3d6000fd5b505050506000600360008573ffffffffffffffffffffffffffffffffffffffff1673ffffffffffffffffffffffffffffffffffffffff1681526020019081526020016000206000848152602001908152602001600020600101549050600260009054906101000a900473ffffffffffffffffffffffffffffffffffffffff1673ffffffffffffffffffffffffffffffffffffffff1663a9059cbb83836040518363ffffffff1660e01b8152600401610d69929190613b58565b6020604051808303816000875af1158015610d88573d6000803e3d6000fd5b505050506040513d601f19601f82011682018060405250810190610dac9190613cd0565b506000600360008673ffffffffffffffffffffffffffffffffffffffff1673ffffffffffffffffffffffffffffffffffffffff168152602001908152602001600020600085815260200190815260200160002060050160006101000a81548173ffffffffffffffffffffffffffffffffffffffff021916908373ffffffffffffffffffffffffffffffffffffffff1602179055506000600360008673ffffffffffffffffffffffffffffffffffffffff1673ffffffffffffffffffffffffffffffffffffffff1681526020019081526020016000206000858152602001908152602001600020600301819055506000600360008673ffffffffffffffffffffffffffffffffffffffff1673ffffffffffffffffffffffffffffffffffffffff168152602001908152602001600020600085815260200190815260200160002060040160009054906101000a900473ffffffffffffffffffffffffffffffffffffffff1690506000600360008773ffffffffffffffffffffffffffffffffffffffff1673ffffffffffffffffffffffffffffffffffffffff16815260200190815260200160002060008681526020019081526020016000206006015490506000811461148257600080600080600560009054906101000a900473ffffffffffffffffffffffffffffffffffffffff1673ffffffffffffffffffffffffffffffffffffffff166380bfacc2866040518263ffffffff1660e01b8152600401610fd291906136b1565b61010060405180830381865afa158015610ff0573d6000803e3d6000fd5b505050506040513d601f19601f820116820180604052508101906110149190613d27565b97505096509650509550505060008242101561104d5761103f84426110399190613ddd565b83613194565b8561104a9190613e1b565b90505b600560009054906101000a900473ffffffffffffffffffffffffffffffffffffffff1673ffffffffffffffffffffffffffffffffffffffff1663c5a66ff9876040518263ffffffff1660e01b81526004016110a891906136b1565b6020604051808303816000875af11580156110c7573d6000803e3d6000fd5b505050506040513d601f19601f820116820180604052508101906110eb9190613cd0565b506000600360008d73ffffffffffffffffffffffffffffffffffffffff1673ffffffffffffffffffffffffffffffffffffffff16815260200190815260200160002060008c815260200190815260200160002060060181905550600080600360008e73ffffffffffffffffffffffffffffffffffffffff1673ffffffffffffffffffffffffffffffffffffffff16815260200190815260200160002060008d815260200190815260200160002060070154905060008111156111be576111bb6111b58860646131aa565b82613194565b91505b600083131561134e5760008211156112ac5760006111dc88856131c0565b905060006111f46111ee8360646131aa565b84613194565b9050600061120285836131c0565b9050819450600260009054906101000a900473ffffffffffffffffffffffffffffffffffffffff1673ffffffffffffffffffffffffffffffffffffffff1663a9059cbb8d836040518363ffffffff1660e01b8152600401611264929190613b58565b6020604051808303816000875af1158015611283573d6000803e3d6000fd5b505050506040513d601f19601f820116820180604052508101906112a79190613cd0565b505050505b600260009054906101000a900473ffffffffffffffffffffffffffffffffffffffff1673ffffffffffffffffffffffffffffffffffffffff1663a9059cbb8c856040518363ffffffff1660e01b8152600401611309929190613b58565b6020604051808303816000875af1158015611328573d6000803e3d6000fd5b505050506040513d601f19601f8201168201806040525081019061134c9190613cd0565b505b600073ffffffffffffffffffffffffffffffffffffffff16600860009054906101000a900473ffffffffffffffffffffffffffffffffffffffff1673ffffffffffffffffffffffffffffffffffffffff16141580156113ad5750600082115b1561147657600260009054906101000a900473ffffffffffffffffffffffffffffffffffffffff1673ffffffffffffffffffffffffffffffffffffffff1663a9059cbb600860009054906101000a900473ffffffffffffffffffffffffffffffffffffffff16846040518363ffffffff1660e01b8152600401611431929190613b58565b6020604051808303816000875af1158015611450573d6000803e3d6000fd5b505050506040513d601f19601f820116820180604052508101906114749190613cd0565b505b5050505050505061157d565b6000600360008873ffffffffffffffffffffffffffffffffffffffff1673ffffffffffffffffffffffffffffffffffffffff1681526020019081526020016000206000878152602001908152602001600020600201549050600260009054906101000a900473ffffffffffffffffffffffffffffffffffffffff1673ffffffffffffffffffffffffffffffffffffffff1663a9059cbb84836040518363ffffffff1660e01b8152600401611537929190613b58565b6020604051808303816000875af1158015611556573d6000803e3d6000fd5b505050506040513d601f19601f8201168201806040525081019061157a9190613cd0565b50505b50505061173b565b60405180610120016040528060008152602001600081526020016000815260200160008152602001600073ffffffffffffffffffffffffffffffffffffffff168152602001600073ffffffffffffffffffffffffffffffffffffffff168152602001600015158152602001600081526020016000815250600360008573ffffffffffffffffffffffffffffffffffffffff1673ffffffffffffffffffffffffffffffffffffffff16815260200190815260200160002060008481526020019081526020016000206000820151816000015560208201518160010155604082015181600201556060820151816003015560808201518160040160006101000a81548173ffffffffffffffffffffffffffffffffffffffff021916908373ffffffffffffffffffffffffffffffffffffffff16021790555060a08201518160050160006101000a81548173ffffffffffffffffffffffffffffffffffffffff021916908373ffffffffffffffffffffffffffffffffffffffff16021790555060c08201518160050160146101000a81548160ff02191690831515021790555060e0820151816006015561010082015181600701559050505b7fff57598c219d5cf768267ac0800789e8a5705c0651c6a1f2c5f0caa47d971213838360405161176c929190613b58565b60405180910390a1505050565b600073ffffffffffffffffffffffffffffffffffffffff16600860009054906101000a900473ffffffffffffffffffffffffffffffffffffffff1673ffffffffffffffffffffffffffffffffffffffff161461180a576040517f08c379a000000000000000000000000000000000000000000000000000000000815260040161180190613f21565b60405180910390fd5b80600860006101000a81548173ffffffffffffffffffffffffffffffffffffffff021916908373ffffffffffffffffffffffffffffffffffffffff16021790555050565b60008073ffffffffffffffffffffffffffffffffffffffff168373ffffffffffffffffffffffffffffffffffffffff16636352211e846040518263ffffffff1660e01b81526004016118a091906136b1565b602060405180830381865afa1580156118bd573d6000803e3d6000fd5b505050506040513d601f19601f820116820180604052508101906118e19190613f41565b73ffffffffffffffffffffffffffffffffffffffff161415905092915050565b600260009054906101000a900473ffffffffffffffffffffffffffffffffffffffff1681565b600860009054906101000a900473ffffffffffffffffffffffffffffffffffffffff1681565b600073ffffffffffffffffffffffffffffffffffffffff16600360008473ffffffffffffffffffffffffffffffffffffffff1673ffffffffffffffffffffffffffffffffffffffff168152602001908152602001600020600083815260200190815260200160002060050160009054906101000a900473ffffffffffffffffffffffffffffffffffffffff1673ffffffffffffffffffffffffffffffffffffffff161415611a30576040517f08c379a0000000000000000000000000000000000000000000000000000000008152600401611a2790613fba565b60405180910390fd5b3373ffffffffffffffffffffffffffffffffffffffff16600360008473ffffffffffffffffffffffffffffffffffffffff1673ffffffffffffffffffffffffffffffffffffffff168152602001908152602001600020600083815260200190815260200160002060040160009054906101000a900473ffffffffffffffffffffffffffffffffffffffff1673ffffffffffffffffffffffffffffffffffffffff1614611b11576040517f08c379a0000000000000000000000000000000000000000000000000000000008152600401611b0890613a60565b60405180910390fd5b6000600360008473ffffffffffffffffffffffffffffffffffffffff1673ffffffffffffffffffffffffffffffffffffffff16815260200190815260200160002060008381526020019081526020016000206003015490506000600360008573ffffffffffffffffffffffffffffffffffffffff1673ffffffffffffffffffffffffffffffffffffffff1681526020019081526020016000206000848152602001908152602001600020600001549050611bcb8282612ccf565b611c0a576040517f08c379a0000000000000000000000000000000000000000000000000000000008152600401611c019061404c565b60405180910390fd5b60001515600360008673ffffffffffffffffffffffffffffffffffffffff1673ffffffffffffffffffffffffffffffffffffffff168152602001908152602001600020600085815260200190815260200160002060050160149054906101000a900460ff16151514611cb1576040517f08c379a0000000000000000000000000000000000000000000000000000000008152600401611ca8906140b8565b60405180910390fd5b6001600360008673ffffffffffffffffffffffffffffffffffffffff1673ffffffffffffffffffffffffffffffffffffffff168152602001908152602001600020600085815260200190815260200160002060050160146101000a81548160ff0219169083151502179055506000600360008673ffffffffffffffffffffffffffffffffffffffff1673ffffffffffffffffffffffffffffffffffffffff1681526020019081526020016000206000858152602001908152602001600020600601549050600081146121b1576000600560009054906101000a900473ffffffffffffffffffffffffffffffffffffffff1673ffffffffffffffffffffffffffffffffffffffff166380bfacc2836040518263ffffffff1660e01b8152600401611dda91906136b1565b61010060405180830381865afa158015611df8573d6000803e3d6000fd5b505050506040513d601f19601f82011682018060405250810190611e1c9190613d27565b505050505092505050600260009054906101000a900473ffffffffffffffffffffffffffffffffffffffff1673ffffffffffffffffffffffffffffffffffffffff1663a9059cbb33600360008a73ffffffffffffffffffffffffffffffffffffffff1673ffffffffffffffffffffffffffffffffffffffff1681526020019081526020016000206000898152602001908152602001600020600101546040518363ffffffff1660e01b8152600401611ed5929190613b58565b6020604051808303816000875af1158015611ef4573d6000803e3d6000fd5b505050506040513d601f19601f82011682018060405250810190611f189190613cd0565b50600560009054906101000a900473ffffffffffffffffffffffffffffffffffffffff1673ffffffffffffffffffffffffffffffffffffffff1663c5a66ff9836040518263ffffffff1660e01b8152600401611f7491906136b1565b6020604051808303816000875af1158015611f93573d6000803e3d6000fd5b505050506040513d601f19601f82011682018060405250810190611fb79190613cd0565b506000600360008873ffffffffffffffffffffffffffffffffffffffff1673ffffffffffffffffffffffffffffffffffffffff1681526020019081526020016000206000878152602001908152602001600020600601819055506000600360008873ffffffffffffffffffffffffffffffffffffffff1673ffffffffffffffffffffffffffffffffffffffff1681526020019081526020016000206000878152602001908152602001600020600701549050600073ffffffffffffffffffffffffffffffffffffffff16600860009054906101000a900473ffffffffffffffffffffffffffffffffffffffff1673ffffffffffffffffffffffffffffffffffffffff16141580156120c85750600081115b156121aa5760006120e36120dd8460646131aa565b83613194565b9050600260009054906101000a900473ffffffffffffffffffffffffffffffffffffffff1673ffffffffffffffffffffffffffffffffffffffff1663a9059cbb600860009054906101000a900473ffffffffffffffffffffffffffffffffffffffff16836040518363ffffffff1660e01b8152600401612164929190613b58565b6020604051808303816000875af1158015612183573d6000803e3d6000fd5b505050506040513d601f19601f820116820180604052508101906121a79190613cd0565b50505b5050612262565b60006121bd86866103b9565b9050600260009054906101000a900473ffffffffffffffffffffffffffffffffffffffff1673ffffffffffffffffffffffffffffffffffffffff1663a9059cbb33836040518363ffffffff1660e01b815260040161221c929190613b58565b6020604051808303816000875af115801561223b573d6000803e3d6000fd5b505050506040513d601f19601f8201168201806040525081019061225f9190613cd0565b50505b61226c8585612dbe565b7fff57598c219d5cf768267ac0800789e8a5705c0651c6a1f2c5f0caa47d971213858560405161229d929190613b58565b60405180910390a15050505050565b600073ffffffffffffffffffffffffffffffffffffffff16600560009054906101000a900473ffffffffffffffffffffffffffffffffffffffff1673ffffffffffffffffffffffffffffffffffffffff161461233d576040517f08c379a00000000000000000000000000000000000000000000000000000000081526004016123349061414a565b60405180910390fd5b80600560006101000a81548173ffffffffffffffffffffffffffffffffffffffff021916908373ffffffffffffffffffffffffffffffffffffffff16021790555050565b600073ffffffffffffffffffffffffffffffffffffffff16600360008473ffffffffffffffffffffffffffffffffffffffff1673ffffffffffffffffffffffffffffffffffffffff168152602001908152602001600020600083815260200190815260200160002060050160009054906101000a900473ffffffffffffffffffffffffffffffffffffffff1673ffffffffffffffffffffffffffffffffffffffff1614612463576040517f08c379a000000000000000000000000000000000000000000000000000000000815260040161245a906141b6565b60405180910390fd5b6000600360008473ffffffffffffffffffffffffffffffffffffffff1673ffffffffffffffffffffffffffffffffffffffff168152602001908152602001600020600083815260200190815260200160002060020154116124f9576040517f08c379a00000000000000000000000000000000000000000000000000000000081526004016124f090614248565b60405180910390fd5b6000600360008473ffffffffffffffffffffffffffffffffffffffff1673ffffffffffffffffffffffffffffffffffffffff1681526020019081526020016000206000838152602001908152602001600020600101541161258f576040517f08c379a0000000000000000000000000000000000000000000000000000000008152600401612586906142da565b60405180910390fd5b6000600260009054906101000a900473ffffffffffffffffffffffffffffffffffffffff16905060006125c284846103b9565b905060008273ffffffffffffffffffffffffffffffffffffffff1663dd62ed3e33306040518363ffffffff1660e01b81526004016126019291906142fa565b602060405180830381865afa15801561261e573d6000803e3d6000fd5b505050506040513d601f19601f820116820180604052508101906126429190614323565b905081811015612687576040517f08c379a000000000000000000000000000000000000000000000000000000000815260040161267e906143c2565b60405180910390fd5b600260009054906101000a900473ffffffffffffffffffffffffffffffffffffffff1673ffffffffffffffffffffffffffffffffffffffff166323b872dd3330856040518463ffffffff1660e01b81526004016126e69392919061388e565b6020604051808303816000875af1158015612705573d6000803e3d6000fd5b505050506040513d601f19601f820116820180604052508101906127299190613cd0565b5060008573ffffffffffffffffffffffffffffffffffffffff163086604051602401612756929190613b58565b6040516020818303038152906040527f095ea7b3000000000000000000000000000000000000000000000000000000007bffffffffffffffffffffffffffffffffffffffffffffffffffffffff19166020820180517bffffffffffffffffffffffffffffffffffffffffffffffffffffffff83818316178352505050506040516127e09190613bfb565b6000604051808303816000865af19150503d806000811461281d576040519150601f19603f3d011682016040523d82523d6000602084013e612822565b606091505b50509050801561289a578573ffffffffffffffffffffffffffffffffffffffff1663095ea7b330876040518363ffffffff1660e01b8152600401612867929190613b58565b600060405180830381600087803b15801561288157600080fd5b505af1158015612895573d6000803e3d6000fd5b505050505b8573ffffffffffffffffffffffffffffffffffffffff166323b872dd3033886040518463ffffffff1660e01b81526004016128d79392919061388e565b600060405180830381600087803b1580156128f157600080fd5b505af1158015612905573d6000803e3d6000fd5b5050505033600360008873ffffffffffffffffffffffffffffffffffffffff1673ffffffffffffffffffffffffffffffffffffffff168152602001908152602001600020600087815260200190815260200160002060050160006101000a81548173ffffffffffffffffffffffffffffffffffffffff021916908373ffffffffffffffffffffffffffffffffffffffff16021790555042600360008873ffffffffffffffffffffffffffffffffffffffff1673ffffffffffffffffffffffffffffffffffffffff1681526020019081526020016000206000878152602001908152602001600020600301819055506129fd86866131d6565b7fff57598c219d5cf768267ac0800789e8a5705c0651c6a1f2c5f0caa47d9712138686604051612a2e929190613b58565b60405180910390a1505050505050565b6003602052816000526040600020602052806000526040600020600091509150508060000154908060010154908060020154908060030154908060040160009054906101000a900473ffffffffffffffffffffffffffffffffffffffff16908060050160009054906101000a900473ffffffffffffffffffffffffffffffffffffffff16908060050160149054906101000a900460ff16908060060154908060070154905089565b60007fff57598c219d5cf768267ac0800789e8a5705c0651c6a1f2c5f0caa47d9712138686604051612b19929190613b58565b60405180910390a1600154905095945050505050565b60048181548110612b3f57600080fd5b90600052602060002090600302016000915090508060000160009054906101000a900473ffffffffffffffffffffffffffffffffffffffff16908060010160009054906101000a900473ffffffffffffffffffffffffffffffffffffffff16908060020154905083565b600060019054906101000a900460ff16612bd15760008054906101000a900460ff1615612bda565b612bd9613595565b5b612c19576040517f08c379a0000000000000000000000000000000000000000000000000000000008152600401612c1090614454565b60405180910390fd5b60008060019054906101000a900460ff161590508015612c69576001600060016101000a81548160ff02191690831515021790555060016000806101000a81548160ff0219169083151502179055505b81600260006101000a81548173ffffffffffffffffffffffffffffffffffffffff021916908373ffffffffffffffffffffffffffffffffffffffff1602179055508015612ccb5760008060016101000a81548160ff0219169083151502179055505b5050565b6000808342612cde9190613ddd565b90506000603c8083612cf09190614474565b612cfa9190614474565b90508381119250505092915050565b600660205282600052604060002060205281600052604060002060205280600052604060002060009250925050508060000154908060010154908060020154908060030154908060040160009054906101000a900473ffffffffffffffffffffffffffffffffffffffff16908060050160009054906101000a900473ffffffffffffffffffffffffffffffffffffffff16908060050160149054906101000a900460ff16908060060154908060070154905089565b6000600480549050905060018111156131125760005b8181101561308557600060048281548110612df257612df16144ce565b5b90600052602060002090600302016040518060600160405290816000820160009054906101000a900473ffffffffffffffffffffffffffffffffffffffff1673ffffffffffffffffffffffffffffffffffffffff1673ffffffffffffffffffffffffffffffffffffffff1681526020016001820160009054906101000a900473ffffffffffffffffffffffffffffffffffffffff1673ffffffffffffffffffffffffffffffffffffffff1673ffffffffffffffffffffffffffffffffffffffff16815260200160028201548152505090503373ffffffffffffffffffffffffffffffffffffffff16816000015173ffffffffffffffffffffffffffffffffffffffff16148015612f3157508473ffffffffffffffffffffffffffffffffffffffff16816020015173ffffffffffffffffffffffffffffffffffffffff16145b8015612f405750838160400151145b15613071576004600184612f549190613ddd565b81548110612f6557612f646144ce565b5b906000526020600020906003020160048381548110612f8757612f866144ce565b5b90600052602060002090600302016000820160009054906101000a900473ffffffffffffffffffffffffffffffffffffffff168160000160006101000a81548173ffffffffffffffffffffffffffffffffffffffff021916908373ffffffffffffffffffffffffffffffffffffffff1602179055506001820160009054906101000a900473ffffffffffffffffffffffffffffffffffffffff168160010160006101000a81548173ffffffffffffffffffffffffffffffffffffffff021916908373ffffffffffffffffffffffffffffffffffffffff160217905550600282015481600201559050505b50808061307d906144fd565b915050612dd4565b5060046001826130959190613ddd565b815481106130a6576130a56144ce565b5b9060005260206000209060030201600080820160006101000a81549073ffffffffffffffffffffffffffffffffffffffff02191690556001820160006101000a81549073ffffffffffffffffffffffffffffffffffffffff02191690556002820160009055505061318f565b6004600081548110613127576131266144ce565b5b9060005260206000209060030201600080820160006101000a81549073ffffffffffffffffffffffffffffffffffffffff02191690556001820160006101000a81549073ffffffffffffffffffffffffffffffffffffffff0219169055600282016000905550505b505050565b600081836131a29190614474565b905092915050565b600081836131b89190614575565b905092915050565b600081836131ce9190613ddd565b905092915050565b600073ffffffffffffffffffffffffffffffffffffffff16600560009054906101000a900473ffffffffffffffffffffffffffffffffffffffff1673ffffffffffffffffffffffffffffffffffffffff1614613591576000603c4261323b9190613987565b90506000610e10600360008673ffffffffffffffffffffffffffffffffffffffff1673ffffffffffffffffffffffffffffffffffffffff1681526020019081526020016000206000858152602001908152602001600020600001546132a09190614474565b826132ab9190613987565b90506000600360008673ffffffffffffffffffffffffffffffffffffffff1673ffffffffffffffffffffffffffffffffffffffff1681526020019081526020016000206000858152602001908152602001600020600201549050600083836133139190613ddd565b90506000818361332391906145a6565b8361332e9190613ddd565b9050600260009054906101000a900473ffffffffffffffffffffffffffffffffffffffff1673ffffffffffffffffffffffffffffffffffffffff1663095ea7b3600560009054906101000a900473ffffffffffffffffffffffffffffffffffffffff16836040518363ffffffff1660e01b81526004016133af929190613b58565b6020604051808303816000875af11580156133ce573d6000803e3d6000fd5b505050506040513d601f19601f820116820180604052508101906133f29190613cd0565b506000600560009054906101000a900473ffffffffffffffffffffffffffffffffffffffff1673ffffffffffffffffffffffffffffffffffffffff1663dc7d9369600360008b73ffffffffffffffffffffffffffffffffffffffff1673ffffffffffffffffffffffffffffffffffffffff16815260200190815260200160002060008a815260200190815260200160002060040160009054906101000a900473ffffffffffffffffffffffffffffffffffffffff1684600260009054906101000a900473ffffffffffffffffffffffffffffffffffffffff168a8a6040518663ffffffff1660e01b81526004016134ed9594939291906145d7565b6020604051808303816000875af115801561350c573d6000803e3d6000fd5b505050506040513d601f19601f820116820180604052508101906135309190614323565b905080600360008a73ffffffffffffffffffffffffffffffffffffffff1673ffffffffffffffffffffffffffffffffffffffff1681526020019081526020016000206000898152602001908152602001600020600601819055505050505050505b5050565b60006135a0306135a6565b15905090565b6000808273ffffffffffffffffffffffffffffffffffffffff163b119050919050565b600080fd5b600073ffffffffffffffffffffffffffffffffffffffff82169050919050565b60006135f9826135ce565b9050919050565b613609816135ee565b811461361457600080fd5b50565b60008135905061362681613600565b92915050565b6000819050919050565b61363f8161362c565b811461364a57600080fd5b50565b60008135905061365c81613636565b92915050565b60008060408385031215613679576136786135c9565b5b600061368785828601613617565b92505060206136988582860161364d565b9150509250929050565b6136ab8161362c565b82525050565b60006020820190506136c660008301846136a2565b92915050565b6136d5816135ee565b82525050565b60006020820190506136f060008301846136cc565b92915050565b60006020828403121561370c5761370b6135c9565b5b600061371a84828501613617565b91505092915050565b60008115159050919050565b61373881613723565b82525050565b6000602082019050613753600083018461372f565b92915050565b60006101208201905061376f600083018c6136a2565b61377c602083018b6136a2565b613789604083018a6136a2565b61379660608301896136a2565b6137a360808301886136cc565b6137b060a08301876136cc565b6137bd60c083018661372f565b6137ca60e08301856136a2565b6137d86101008301846136a2565b9a9950505050505050505050565b600080600080600060a08688031215613802576138016135c9565b5b600061381088828901613617565b95505060206138218882890161364d565b94505060406138328882890161364d565b93505060606138438882890161364d565b92505060806138548882890161364d565b9150509295509295909350565b600060208284031215613877576138766135c9565b5b60006138858482850161364d565b91505092915050565b60006060820190506138a360008301866136cc565b6138b060208301856136cc565b6138bd60408301846136a2565b949350505050565b600080604083850312156138dc576138db6135c9565b5b60006138ea8582860161364d565b92505060206138fb8582860161364d565b9150509250929050565b60008060006060848603121561391e5761391d6135c9565b5b600061392c86828701613617565b935050602061393d8682870161364d565b925050604061394e86828701613617565b9150509250925092565b7f4e487b7100000000000000000000000000000000000000000000000000000000600052601160045260246000fd5b60006139928261362c565b915061399d8361362c565b9250827fffffffffffffffffffffffffffffffffffffffffffffffffffffffffffffffff038211156139d2576139d1613958565b5b828201905092915050565b600082825260208201905092915050565b7f436c61696d3a2043616e6e6f7420636c61696d206e6f74206f776e6564206c6560008201527f6e64000000000000000000000000000000000000000000000000000000000000602082015250565b6000613a4a6022836139dd565b9150613a55826139ee565b604082019050919050565b60006020820190508181036000830152613a7981613a3d565b9050919050565b7f4c656e64696e673a2043616e6e6f742063616e63656c206966206c656e740000600082015250565b6000613ab6601e836139dd565b9150613ac182613a80565b602082019050919050565b60006020820190508181036000830152613ae581613aa9565b9050919050565b7f4c656e64696e673a20436f6c6c61746572616c20636c61696d65640000000000600082015250565b6000613b22601b836139dd565b9150613b2d82613aec565b602082019050919050565b60006020820190508181036000830152613b5181613b15565b9050919050565b6000604082019050613b6d60008301856136cc565b613b7a60208301846136a2565b9392505050565b600081519050919050565b600081905092915050565b60005b83811015613bb5578082015181840152602081019050613b9a565b83811115613bc4576000848401525b50505050565b6000613bd582613b81565b613bdf8185613b8c565b9350613bef818560208601613b97565b80840191505092915050565b6000613c078284613bca565b915081905092915050565b7f426f72726f77696e673a2043616e2062652073746f70706564206f6e6c79206260008201527f792061637469766520626f72726f776572000000000000000000000000000000602082015250565b6000613c6e6031836139dd565b9150613c7982613c12565b604082019050919050565b60006020820190508181036000830152613c9d81613c61565b9050919050565b613cad81613723565b8114613cb857600080fd5b50565b600081519050613cca81613ca4565b92915050565b600060208284031215613ce657613ce56135c9565b5b6000613cf484828501613cbb565b91505092915050565b600081519050613d0c81613600565b92915050565b600081519050613d2181613636565b92915050565b600080600080600080600080610100898b031215613d4857613d476135c9565b5b6000613d568b828c01613cfd565b9850506020613d678b828c01613cfd565b9750506040613d788b828c01613d12565b9650506060613d898b828c01613cfd565b9550506080613d9a8b828c01613d12565b94505060a0613dab8b828c01613d12565b93505060c0613dbc8b828c01613d12565b92505060e0613dcd8b828c01613d12565b9150509295985092959890939650565b6000613de88261362c565b9150613df38361362c565b925082821015613e0657613e05613958565b5b828203905092915050565b6000819050919050565b6000613e2682613e11565b9150613e3183613e11565b9250827f800000000000000000000000000000000000000000000000000000000000000001821260008412151615613e6c57613e6b613958565b5b827f7fffffffffffffffffffffffffffffffffffffffffffffffffffffffffffffff018213600084121615613ea457613ea3613958565b5b828203905092915050565b7f4665657320636f6e7472616374206164647265737320616c726561647920736560008201527f7400000000000000000000000000000000000000000000000000000000000000602082015250565b6000613f0b6021836139dd565b9150613f1682613eaf565b604082019050919050565b60006020820190508181036000830152613f3a81613efe565b9050919050565b600060208284031215613f5757613f566135c9565b5b6000613f6584828501613cfd565b91505092915050565b7f436c61696d3a2043616e6e6f7420636c61696d2069662073746f707065640000600082015250565b6000613fa4601e836139dd565b9150613faf82613f6e565b602082019050919050565b60006020820190508181036000830152613fd381613f97565b9050919050565b7f436c61696d3a2043616e6e6f7420636c61696d206265666f7265206c656e646960008201527f6e67206578706972656400000000000000000000000000000000000000000000602082015250565b6000614036602a836139dd565b915061404182613fda565b604082019050919050565b6000602082019050818103600083015261406581614029565b9050919050565b7f436c61696d3a20416c726561647920636c61696d656400000000000000000000600082015250565b60006140a26016836139dd565b91506140ad8261406c565b602082019050919050565b600060208201905081810360008301526140d181614095565b9050919050565b7f5361626c69657220636f6e7472616374206164647265737320616c726561647960008201527f2073657400000000000000000000000000000000000000000000000000000000602082015250565b60006141346024836139dd565b915061413f826140d8565b604082019050919050565b6000602082019050818103600083015261416381614127565b9050919050565b7f426f72726f77696e673a20416c7265616479206c656e74000000000000000000600082015250565b60006141a06017836139dd565b91506141ab8261416a565b602082019050919050565b600060208201905081810360008301526141cf81614193565b9050919050565b7f426f72726f77696e673a204c656e64657220646964206e6f742073657420656160008201527f726e696e6720676f616c20796574000000000000000000000000000000000000602082015250565b6000614232602e836139dd565b915061423d826141d6565b604082019050919050565b6000602082019050818103600083015261426181614225565b9050919050565b7f426f72726f77696e673a204c656e64657220646964206e6f742073657420696e60008201527f697469616c20776f727468207965740000000000000000000000000000000000602082015250565b60006142c4602f836139dd565b91506142cf82614268565b604082019050919050565b600060208201905081810360008301526142f3816142b7565b9050919050565b600060408201905061430f60008301856136cc565b61431c60208301846136cc565b9392505050565b600060208284031215614339576143386135c9565b5b600061434784828501613d12565b91505092915050565b7f426f72726f77696e673a204e6f7420656e6f75676820636f6c6c61746572616c60008201527f2072656365697665640000000000000000000000000000000000000000000000602082015250565b60006143ac6029836139dd565b91506143b782614350565b604082019050919050565b600060208201905081810360008301526143db8161439f565b9050919050565b7f496e697469616c697a61626c653a20636f6e747261637420697320616c72656160008201527f647920696e697469616c697a6564000000000000000000000000000000000000602082015250565b600061443e602e836139dd565b9150614449826143e2565b604082019050919050565b6000602082019050818103600083015261446d81614431565b9050919050565b600061447f8261362c565b915061448a8361362c565b9250817fffffffffffffffffffffffffffffffffffffffffffffffffffffffffffffffff04831182151516156144c3576144c2613958565b5b828202905092915050565b7f4e487b7100000000000000000000000000000000000000000000000000000000600052603260045260246000fd5b60006145088261362c565b91507fffffffffffffffffffffffffffffffffffffffffffffffffffffffffffffffff82141561453b5761453a613958565b5b600182019050919050565b7f4e487b7100000000000000000000000000000000000000000000000000000000600052601260045260246000fd5b60006145808261362c565b915061458b8361362c565b92508261459b5761459a614546565b5b828204905092915050565b60006145b18261362c565b91506145bc8361362c565b9250826145cc576145cb614546565b5b828206905092915050565b600060a0820190506145ec60008301886136cc565b6145f960208301876136a2565b61460660408301866136cc565b61461360608301856136a2565b61462060808301846136a2565b969550505050505056fea2646970667358221220259781b5b82b33146f5d4adce9586d4b29e2024f5d8f58f482eff02fcea4164064736f6c634300080c0033",
  "immutableReferences": {},
  "source": "// SPDX-License-Identifier: MIT\r\npragma solidity ^0.8.0;\r\n\r\nimport \"@openzeppelin/contracts-upgradeable/proxy/utils/Initializable.sol\";\r\nimport \"@openzeppelin/contracts/token/ERC20/IERC20.sol\";\r\nimport \"@openzeppelin/contracts/token/ERC721/IERC721.sol\";\r\nimport \"@openzeppelin/contracts/utils/Address.sol\";\r\nimport \"@openzeppelin/contracts/utils/math/SafeMath.sol\";\r\nimport \"hardhat/console.sol\";\r\n\r\ninterface Sablier  {\r\n  function createSalary(address recipient, uint256 deposit, address tokenAddress, uint256 startTime, uint256 stopTime) external returns(uint256) ;\r\n  function cancelSalary(uint256 salaryId) external returns (bool) ;\r\n  function getSalary(uint256 salaryId) external view returns (\r\n    address company,\r\n    address employee,\r\n    uint256 salary,\r\n    address tokenAddress,\r\n    uint256 startTime,\r\n    uint256 stopTime,\r\n    uint256 remainingBalance,\r\n    uint256 rate\r\n  );\r\n} \r\n\r\ncontract ERC721Lending is Initializable {\r\n  uint public lentCount = 0;\r\n  address public acceptedPayTokenAddress;\r\n\r\n  struct ERC721ForLend {\r\n    uint256 durationHours;\r\n    uint256 initialWorth;\r\n    uint256 earningGoal;\r\n    uint256 borrowedAtTimestamp;\r\n    address lender;\r\n    address borrower;\r\n    bool lenderClaimedCollateral;\r\n    uint256 sablierSalaryId;\r\n    uint256 platformFeesPercent;\r\n  }\r\n\r\n  // V1 mapping\r\n  mapping(address => mapping(uint256 => ERC721ForLend)) public lentERC721List;\r\n\r\n  struct ERC721TokenEntry { \r\n    address lenderAddress;\r\n    address tokenAddress;\r\n    uint256 tokenId;\r\n  }\r\n\r\n  ERC721TokenEntry[] public lendersWithTokens;\r\n\r\n  event ERC721ForLendUpdated(address tokenAddress, uint256 tokenId);\r\n  event ERC721ForLendRemoved(address tokenAddress, uint256 tokenId);\r\n\r\n  address public sablierContractAddress;\r\n\r\n  // V2, token address -> token id -> owner (lender) address -> lending details\r\n  mapping(address => mapping(uint256 => mapping(address => ERC721ForLend))) public lendingPool;\r\n\r\n  // Note: version helper for migrations\r\n  uint256 migrateVersion;\r\n\r\n  address public feesContractAddress;\r\n\r\n  event ERC721ForLendUpdatedV2(address lenderAddress, address tokenAddress, uint256 tokenId);\r\n  event ERC721ForLendRemovedV2(address lenderAddress, address tokenAddress, uint256 tokenId);\r\n\r\n  function initialize(address tokenAddress) public initializer {\r\n    acceptedPayTokenAddress = tokenAddress;\r\n  }\r\n\r\n  function setSablierContractAddress(address contractAddress) public {\r\n    require(sablierContractAddress == address(0), 'Sablier contract address already set');\r\n    sablierContractAddress = contractAddress;\r\n  }\r\n\r\n  function setFeesContractAddress(address contractAddress) public {\r\n    require(feesContractAddress == address(0), 'Fees contract address already set');\r\n    feesContractAddress = contractAddress;\r\n  }\r\n\r\n  // one NFT several times lending is available, while prev lending is ended, \r\n  //      thus tokenId is needed.\r\n  // tokenAddress is ERC721 NFT token\r\n  function setLendSettings(address tokenAddress, uint256 tokenId, uint256 durationHours, uint256 initialWorth, uint256 earningGoal) public returns(uint256){\r\n    // require(initialWorth > 0, 'Lending: Initial token worth must be above 0');\r\n    // require(earningGoal > 0, 'Lending: Earning goal must be above 0');\r\n    // require(durationHours > 0, 'Lending: Lending duration must be above 0');\r\n    // require(lentERC721List[tokenAddress][tokenId].borrower == address(0), 'Lending: Cannot change settings, token already lent');\r\n    // require(lentERC721List[tokenAddress][tokenId].lenderClaimedCollateral == false, 'Lending: Collateral already claimed');\r\n\r\n\r\n    // // assuming token transfer is approved\r\n    // address fromOwner = IERC721(tokenAddress).ownerOf(tokenId);//address fromOwner = msg.sender;\r\n    // address toAddress = address(this);    // this class contract address\r\n    //                         IERC721(tokenAddress).approve(fromOwner, tokenId);\r\n    // IERC721(tokenAddress).transferFrom(fromOwner, toAddress, tokenId);\r\n\r\n    // lentCount ++;\r\n    // // lentERC721List[tokenAddress][tokenId] = ERC721ForLend(durationHours, initialWorth, earningGoal, 0, msg.sender, address(0), false, 0, 0);\r\n    // lendersWithTokens.push(ERC721TokenEntry(fromOwner, tokenAddress, tokenId));\r\n\r\n    emit ERC721ForLendUpdated(tokenAddress, tokenId);\r\n\r\n    return lentCount;\r\n    \r\n  }\r\n\r\n  // after a borrower call setLendSettings,a lender aprove that loan and start lending.\r\n  // parameters are same to the above function\r\n  function startBorrowing(address tokenAddress, uint256 tokenId) public {\r\n    require(lentERC721List[tokenAddress][tokenId].borrower == address(0), 'Borrowing: Already lent');\r\n    require(lentERC721List[tokenAddress][tokenId].earningGoal > 0, 'Borrowing: Lender did not set earning goal yet');\r\n    require(lentERC721List[tokenAddress][tokenId].initialWorth > 0, 'Borrowing: Lender did not set initial worth yet');\r\n\r\n    IERC20 _payToken = IERC20(acceptedPayTokenAddress);\r\n    uint256 _requiredSum = calculateLendSum(tokenAddress, tokenId);\r\n    uint256 _allowedCollateral = _payToken.allowance(msg.sender, address(this));\r\n    require(_allowedCollateral >= _requiredSum, 'Borrowing: Not enough collateral received');\r\n\r\n    IERC20(acceptedPayTokenAddress).transferFrom(msg.sender, address(this), _requiredSum);\r\n\r\n    // check if needs approval as some tokens fail due this\r\n    (bool success,) = tokenAddress.call(abi.encodeWithSignature(\r\n        \"approve(address,uint256)\",\r\n        address(this),            // this class contract address\r\n        tokenId\r\n      ));\r\n    if (success) {\r\n      IERC721(tokenAddress).approve(address(this), tokenId);\r\n    }\r\n    IERC721(tokenAddress).transferFrom(address(this), msg.sender, tokenId);\r\n\r\n    lentERC721List[tokenAddress][tokenId].borrower = msg.sender;\r\n    lentERC721List[tokenAddress][tokenId].borrowedAtTimestamp = block.timestamp;\r\n\r\n    // check if sablier address set and setup salary\r\n    createSalaryIfPossible(tokenAddress, tokenId);\r\n\r\n    emit ERC721ForLendUpdated(tokenAddress, tokenId);\r\n  }\r\n\r\n  function stopBorrowing(address tokenAddress, uint256 tokenId) public {\r\n    address _borrower = lentERC721List[tokenAddress][tokenId].borrower;\r\n    require(_borrower == msg.sender, 'Borrowing: Can be stopped only by active borrower');\r\n\r\n    if (lentERC721List[tokenAddress][tokenId].lenderClaimedCollateral == false) {\r\n      // assuming token transfer is approved\r\n      IERC721(tokenAddress).transferFrom(msg.sender, address(this), tokenId);\r\n\r\n      uint256 _initialWorth = lentERC721List[tokenAddress][tokenId].initialWorth;\r\n\r\n      IERC20(acceptedPayTokenAddress).transfer(_borrower, _initialWorth);\r\n\r\n      lentERC721List[tokenAddress][tokenId].borrower = address(0);\r\n      lentERC721List[tokenAddress][tokenId].borrowedAtTimestamp = 0;\r\n\r\n      address lenderAddress = lentERC721List[tokenAddress][tokenId].lender;\r\n\r\n      uint256 _sablierSalaryId = lentERC721List[tokenAddress][tokenId].sablierSalaryId;\r\n      if (_sablierSalaryId != 0) {\r\n        // get balance that is not streamed during period, it will be returned to borrower\r\n        (\r\n        ,\r\n        ,\r\n        uint256 _streamSalaryAmount,\r\n        ,\r\n        uint256 _streamStartTime,\r\n        uint256 _streamStopTime,\r\n        ,\r\n        uint256 _streamRatePerSecond\r\n        ) = Sablier(sablierContractAddress).getSalary(_sablierSalaryId);\r\n\r\n        int256 _balanceNotStreamed = 0;\r\n        if (block.timestamp < _streamStopTime) {\r\n          _balanceNotStreamed = int256(_streamSalaryAmount) - int256(SafeMath.mul(block.timestamp - _streamStartTime, _streamRatePerSecond));\r\n        }\r\n\r\n        // cancel salary to lender if sablier salary exists\r\n        Sablier(sablierContractAddress).cancelSalary(_sablierSalaryId);\r\n        lentERC721List[tokenAddress][tokenId].sablierSalaryId = 0;\r\n\r\n        // check if lending entry has fees\r\n        uint256 _platformFeeToCollect = 0;\r\n        uint256 _feesPercent = lentERC721List[tokenAddress][tokenId].platformFeesPercent;\r\n        if (_feesPercent > 0) {\r\n          _platformFeeToCollect = SafeMath.mul(SafeMath.div(_streamSalaryAmount, 100), _feesPercent);\r\n        }\r\n\r\n        if (_balanceNotStreamed > 0) {\r\n          // check if lending has fees\r\n          if (_platformFeeToCollect > 0) {\r\n            // lending did not go through full period, fees percent will be lower, lets refund to lender\r\n            uint256 _actualSalaryLenderReceives = SafeMath.sub(_streamSalaryAmount, uint256(_balanceNotStreamed));\r\n            uint256 _platformFeeToCollectUpdated = SafeMath.mul(SafeMath.div(_actualSalaryLenderReceives, 100), _feesPercent);\r\n            uint256 _platformFeeToRefund = SafeMath.sub(_platformFeeToCollect, _platformFeeToCollectUpdated);\r\n            _platformFeeToCollect =_platformFeeToCollectUpdated;\r\n            IERC20(acceptedPayTokenAddress).transfer(lenderAddress, uint256(_platformFeeToRefund));\r\n          }\r\n\r\n          // return unstreamed balance to borrower\r\n          IERC20(acceptedPayTokenAddress).transfer(_borrower, uint256(_balanceNotStreamed));\r\n        }\r\n\r\n        // check if fees collecting address set and lending has fees\r\n        if (feesContractAddress != address(0) && _platformFeeToCollect > 0) {\r\n          IERC20(acceptedPayTokenAddress).transfer(feesContractAddress, _platformFeeToCollect);\r\n        }\r\n      } else {\r\n        // legacy: send lender his interest\r\n        uint256 _earningGoal = lentERC721List[tokenAddress][tokenId].earningGoal;\r\n        IERC20(acceptedPayTokenAddress).transfer(lenderAddress, _earningGoal);\r\n      }\r\n    } else {\r\n      // lender claimed collateral, this is borrower's last call, let's reset everything\r\n      lentERC721List[tokenAddress][tokenId] = ERC721ForLend(0, 0, 0, 0, address(0), address(0), false, 0, 0); // reset details\r\n    }\r\n\r\n    emit ERC721ForLendUpdated(tokenAddress, tokenId);\r\n  }\r\n\r\n  function calculateLendSum(address tokenAddress, uint256 tokenId) public view returns(uint256) {\r\n    uint256 _earningGoal = lentERC721List[tokenAddress][tokenId].earningGoal;\r\n    uint256 _initialWorth = lentERC721List[tokenAddress][tokenId].initialWorth;\r\n    return _initialWorth + _earningGoal;\r\n  }\r\n\r\n  function isDurationExpired(uint256 borrowedAtTimestamp, uint256 durationHours) public view returns(bool) {\r\n    uint256 secondsPassed = block.timestamp - borrowedAtTimestamp;\r\n    uint256 hoursPassed = secondsPassed * 60 * 60;\r\n    return hoursPassed > durationHours;\r\n  }\r\n\r\n  function removeFromLendersWithTokens(address tokenAddress, uint256 tokenId) internal {\r\n    // reset lenders to sent token mapping, swap with last element to fill the gap\r\n    uint totalCount = lendersWithTokens.length;\r\n    if (totalCount > 1) {\r\n      for (uint i = 0; i<totalCount; i++) {\r\n        ERC721TokenEntry memory tokenEntry = lendersWithTokens[i];\r\n        if (tokenEntry.lenderAddress == msg.sender && tokenEntry.tokenAddress == tokenAddress && tokenEntry.tokenId == tokenId) {\r\n          lendersWithTokens[i] = lendersWithTokens[totalCount-1]; // insert last from array\r\n        }\r\n      }\r\n      //lendersWithTokens.length--;\r\n      delete lendersWithTokens[totalCount-1];\r\n      //<--- \r\n    } else {\r\n      delete lendersWithTokens[0];\r\n    }\r\n  }\r\n\r\n  function createSalaryIfPossible(address tokenAddress, uint256 tokenId) internal {\r\n    if (sablierContractAddress != address(0)) {\r\n      uint256 _salaryStartTime = block.timestamp + 60;\r\n      uint256 _salaryStopTime = _salaryStartTime + (lentERC721List[tokenAddress][tokenId].durationHours * 3600);\r\n      uint256 _actualSalaryAmount = lentERC721List[tokenAddress][tokenId].earningGoal;\r\n\r\n      // set platform fees percent for borrowed entry\r\n      // v1.1\r\n//      uint256 _feesPercent = 5;\r\n//      lentERC721List[tokenAddress][tokenId].platformFeesPercent = _feesPercent;\r\n\r\n      // reserve fees percent from salary\r\n//      uint256 _actualSalaryAmountAfterPlatformFees = SafeMath.sub(\r\n//        _actualSalaryAmount,\r\n//        SafeMath.mul(SafeMath.div(_actualSalaryAmount, 100), _feesPercent)\r\n//      );\r\n\r\n      // per Sablier docs  deposit amount must be divided by the time delta\r\n      // and then the remainder subtracted from the initial deposit number\r\n      uint256 _timeDelta = _salaryStopTime - _salaryStartTime;\r\n      uint256 _salaryAmount = _actualSalaryAmount - (_actualSalaryAmount % _timeDelta);\r\n\r\n      // approve amount for Sablier contract usage\r\n      IERC20(acceptedPayTokenAddress).approve(sablierContractAddress, _salaryAmount);\r\n\r\n      // the salary id is needed later to withdraw from or cancel the salary\r\n      uint256 _sablierSalaryId = Sablier(sablierContractAddress).createSalary(\r\n        lentERC721List[tokenAddress][tokenId].lender,\r\n        _salaryAmount,\r\n        acceptedPayTokenAddress,\r\n        _salaryStartTime,\r\n        _salaryStopTime\r\n      );\r\n\r\n      lentERC721List[tokenAddress][tokenId].sablierSalaryId = _sablierSalaryId;\r\n    }\r\n  }\r\n\r\n  function removeFromLending(address tokenAddress, uint256 tokenId) public {\r\n    require(lentERC721List[tokenAddress][tokenId].lender == msg.sender, 'Claim: Cannot claim not owned lend');\r\n\r\n    require(lentERC721List[tokenAddress][tokenId].borrower == address(0), 'Lending: Cannot cancel if lent');\r\n    require(lentERC721List[tokenAddress][tokenId].lenderClaimedCollateral == false, 'Lending: Collateral claimed');\r\n\r\n    // check if needs approval as some tokens fail due this\r\n    (bool success,) = tokenAddress.call(abi.encodeWithSignature(\r\n        \"approve(address,uint256)\",\r\n        address(this),\r\n        tokenId\r\n      ));\r\n    if (success) {\r\n      IERC721(tokenAddress).approve(address(this), tokenId);\r\n    }\r\n    IERC721(tokenAddress).transferFrom(address(this), msg.sender, tokenId);\r\n\r\n    lentERC721List[tokenAddress][tokenId] = ERC721ForLend(0, 0, 0, 0, address(0), address(0), false, 0, 0); // reset details\r\n\r\n    // reset lenders to sent token mapping, swap with last element to fill the gap\r\n    removeFromLendersWithTokens(tokenAddress, tokenId);\r\n\r\n    emit ERC721ForLendRemoved(tokenAddress, tokenId);\r\n  }\r\n\r\n  function claimBorrowerCollateral(address tokenAddress, uint256 tokenId) public {\r\n    require(lentERC721List[tokenAddress][tokenId].borrower != address(0), 'Claim: Cannot claim if stopped');\r\n    require(lentERC721List[tokenAddress][tokenId].lender == msg.sender, 'Claim: Cannot claim not owned lend');\r\n\r\n    uint256 _borrowedAtTimestamp = lentERC721List[tokenAddress][tokenId].borrowedAtTimestamp;\r\n    uint256 _durationHours = lentERC721List[tokenAddress][tokenId].durationHours;\r\n    require(isDurationExpired(_borrowedAtTimestamp, _durationHours), 'Claim: Cannot claim before lending expired');\r\n\r\n    require(lentERC721List[tokenAddress][tokenId].lenderClaimedCollateral == false, 'Claim: Already claimed');\r\n\r\n    lentERC721List[tokenAddress][tokenId].lenderClaimedCollateral = true;\r\n\r\n    uint256 _sablierSalaryId = lentERC721List[tokenAddress][tokenId].sablierSalaryId;\r\n    if (_sablierSalaryId != 0) {\r\n      // get salary amount to send to fees collector address\r\n      (,, uint256 _streamSalaryAmount,,,,,) = Sablier(sablierContractAddress).getSalary(_sablierSalaryId);\r\n\r\n      // if salary exists cancel salary and send only initial worth collateral amount\r\n      IERC20(acceptedPayTokenAddress).transfer(msg.sender, lentERC721List[tokenAddress][tokenId].initialWorth);\r\n      Sablier(sablierContractAddress).cancelSalary(_sablierSalaryId);\r\n      lentERC721List[tokenAddress][tokenId].sablierSalaryId = 0;\r\n\r\n      // check if lending entry has fees\r\n      uint256 _feesPercent = lentERC721List[tokenAddress][tokenId].platformFeesPercent;\r\n      if (feesContractAddress != address(0) && _feesPercent > 0) {\r\n        // send collected fees to collecting contract address\r\n        uint256 _platformFeeToCollect = SafeMath.mul(SafeMath.div(_streamSalaryAmount, 100), _feesPercent);\r\n        IERC20(acceptedPayTokenAddress).transfer(feesContractAddress, _platformFeeToCollect);\r\n      }\r\n    } else {\r\n      // legacy: send interest and collateral sum amount\r\n      uint256 _collateralSum = calculateLendSum(tokenAddress, tokenId);\r\n      IERC20(acceptedPayTokenAddress).transfer(msg.sender, _collateralSum);\r\n    }\r\n\r\n    // reset lenders to sent token mapping, swap with last element to fill the gap\r\n    removeFromLendersWithTokens(tokenAddress, tokenId);\r\n\r\n    emit ERC721ForLendUpdated(tokenAddress, tokenId);\r\n  }\r\n\r\n  function isValidNFT(address tokenAddress, uint256 tokenId) public view returns(bool) {\r\n    // no owner is most likely burnt NFT\r\n    return IERC721(tokenAddress).ownerOf(tokenId) != address(0);\r\n  }\r\n}\r\n",
  "sourcePath": "D:\\03.block-chain\\01.miquelTC__nft-marketplace\\test-proj\\nft-marketplace-master\\src\\contracts\\ERC721Lending.sol",
  "compiler": {
    "name": "solc",
    "version": "0.8.12+commit.f00d7308.Emscripten.clang"
  },
  "schemaVersion": "3.4.4",
  "updatedAt": "2022-03-02T11:26:21.638Z",
  "devdoc": {
    "kind": "dev",
    "methods": {},
    "version": 1
  },
  "userdoc": {
    "kind": "user",
    "methods": {},
    "version": 1
  }
}