{
  "contractName": "ERC721RoyaltyMock",
  "abi": [
    {
      "inputs": [
        {
          "internalType": "string",
          "name": "name",
          "type": "string"
        },
        {
          "internalType": "string",
          "name": "symbol",
          "type": "string"
        }
      ],
      "stateMutability": "nonpayable",
      "type": "constructor"
    },
    {
      "anonymous": false,
      "inputs": [
        {
          "indexed": true,
          "internalType": "address",
          "name": "owner",
          "type": "address"
        },
        {
          "indexed": true,
          "internalType": "address",
          "name": "approved",
          "type": "address"
        },
        {
          "indexed": true,
          "internalType": "uint256",
          "name": "tokenId",
          "type": "uint256"
        }
      ],
      "name": "Approval",
      "type": "event"
    },
    {
      "anonymous": false,
      "inputs": [
        {
          "indexed": true,
          "internalType": "address",
          "name": "owner",
          "type": "address"
        },
        {
          "indexed": true,
          "internalType": "address",
          "name": "operator",
          "type": "address"
        },
        {
          "indexed": false,
          "internalType": "bool",
          "name": "approved",
          "type": "bool"
        }
      ],
      "name": "ApprovalForAll",
      "type": "event"
    },
    {
      "anonymous": false,
      "inputs": [
        {
          "indexed": true,
          "internalType": "address",
          "name": "from",
          "type": "address"
        },
        {
          "indexed": true,
          "internalType": "address",
          "name": "to",
          "type": "address"
        },
        {
          "indexed": true,
          "internalType": "uint256",
          "name": "tokenId",
          "type": "uint256"
        }
      ],
      "name": "Transfer",
      "type": "event"
    },
    {
      "inputs": [
        {
          "internalType": "address",
          "name": "to",
          "type": "address"
        },
        {
          "internalType": "uint256",
          "name": "tokenId",
          "type": "uint256"
        }
      ],
      "name": "approve",
      "outputs": [],
      "stateMutability": "nonpayable",
      "type": "function"
    },
    {
      "inputs": [
        {
          "internalType": "address",
          "name": "owner",
          "type": "address"
        }
      ],
      "name": "balanceOf",
      "outputs": [
        {
          "internalType": "uint256",
          "name": "",
          "type": "uint256"
        }
      ],
      "stateMutability": "view",
      "type": "function"
    },
    {
      "inputs": [
        {
          "internalType": "uint256",
          "name": "tokenId",
          "type": "uint256"
        }
      ],
      "name": "getApproved",
      "outputs": [
        {
          "internalType": "address",
          "name": "",
          "type": "address"
        }
      ],
      "stateMutability": "view",
      "type": "function"
    },
    {
      "inputs": [
        {
          "internalType": "address",
          "name": "owner",
          "type": "address"
        },
        {
          "internalType": "address",
          "name": "operator",
          "type": "address"
        }
      ],
      "name": "isApprovedForAll",
      "outputs": [
        {
          "internalType": "bool",
          "name": "",
          "type": "bool"
        }
      ],
      "stateMutability": "view",
      "type": "function"
    },
    {
      "inputs": [],
      "name": "name",
      "outputs": [
        {
          "internalType": "string",
          "name": "",
          "type": "string"
        }
      ],
      "stateMutability": "view",
      "type": "function"
    },
    {
      "inputs": [
        {
          "internalType": "uint256",
          "name": "tokenId",
          "type": "uint256"
        }
      ],
      "name": "ownerOf",
      "outputs": [
        {
          "internalType": "address",
          "name": "",
          "type": "address"
        }
      ],
      "stateMutability": "view",
      "type": "function"
    },
    {
      "inputs": [
        {
          "internalType": "uint256",
          "name": "_tokenId",
          "type": "uint256"
        },
        {
          "internalType": "uint256",
          "name": "_salePrice",
          "type": "uint256"
        }
      ],
      "name": "royaltyInfo",
      "outputs": [
        {
          "internalType": "address",
          "name": "",
          "type": "address"
        },
        {
          "internalType": "uint256",
          "name": "",
          "type": "uint256"
        }
      ],
      "stateMutability": "view",
      "type": "function"
    },
    {
      "inputs": [
        {
          "internalType": "address",
          "name": "from",
          "type": "address"
        },
        {
          "internalType": "address",
          "name": "to",
          "type": "address"
        },
        {
          "internalType": "uint256",
          "name": "tokenId",
          "type": "uint256"
        }
      ],
      "name": "safeTransferFrom",
      "outputs": [],
      "stateMutability": "nonpayable",
      "type": "function"
    },
    {
      "inputs": [
        {
          "internalType": "address",
          "name": "from",
          "type": "address"
        },
        {
          "internalType": "address",
          "name": "to",
          "type": "address"
        },
        {
          "internalType": "uint256",
          "name": "tokenId",
          "type": "uint256"
        },
        {
          "internalType": "bytes",
          "name": "_data",
          "type": "bytes"
        }
      ],
      "name": "safeTransferFrom",
      "outputs": [],
      "stateMutability": "nonpayable",
      "type": "function"
    },
    {
      "inputs": [
        {
          "internalType": "address",
          "name": "operator",
          "type": "address"
        },
        {
          "internalType": "bool",
          "name": "approved",
          "type": "bool"
        }
      ],
      "name": "setApprovalForAll",
      "outputs": [],
      "stateMutability": "nonpayable",
      "type": "function"
    },
    {
      "inputs": [
        {
          "internalType": "bytes4",
          "name": "interfaceId",
          "type": "bytes4"
        }
      ],
      "name": "supportsInterface",
      "outputs": [
        {
          "internalType": "bool",
          "name": "",
          "type": "bool"
        }
      ],
      "stateMutability": "view",
      "type": "function"
    },
    {
      "inputs": [],
      "name": "symbol",
      "outputs": [
        {
          "internalType": "string",
          "name": "",
          "type": "string"
        }
      ],
      "stateMutability": "view",
      "type": "function"
    },
    {
      "inputs": [
        {
          "internalType": "uint256",
          "name": "tokenId",
          "type": "uint256"
        }
      ],
      "name": "tokenURI",
      "outputs": [
        {
          "internalType": "string",
          "name": "",
          "type": "string"
        }
      ],
      "stateMutability": "view",
      "type": "function"
    },
    {
      "inputs": [
        {
          "internalType": "address",
          "name": "from",
          "type": "address"
        },
        {
          "internalType": "address",
          "name": "to",
          "type": "address"
        },
        {
          "internalType": "uint256",
          "name": "tokenId",
          "type": "uint256"
        }
      ],
      "name": "transferFrom",
      "outputs": [],
      "stateMutability": "nonpayable",
      "type": "function"
    },
    {
      "inputs": [
        {
          "internalType": "uint256",
          "name": "tokenId",
          "type": "uint256"
        },
        {
          "internalType": "address",
          "name": "recipient",
          "type": "address"
        },
        {
          "internalType": "uint96",
          "name": "fraction",
          "type": "uint96"
        }
      ],
      "name": "setTokenRoyalty",
      "outputs": [],
      "stateMutability": "nonpayable",
      "type": "function"
    },
    {
      "inputs": [
        {
          "internalType": "address",
          "name": "recipient",
          "type": "address"
        },
        {
          "internalType": "uint96",
          "name": "fraction",
          "type": "uint96"
        }
      ],
      "name": "setDefaultRoyalty",
      "outputs": [],
      "stateMutability": "nonpayable",
      "type": "function"
    },
    {
      "inputs": [
        {
          "internalType": "address",
          "name": "to",
          "type": "address"
        },
        {
          "internalType": "uint256",
          "name": "tokenId",
          "type": "uint256"
        }
      ],
      "name": "mint",
      "outputs": [],
      "stateMutability": "nonpayable",
      "type": "function"
    },
    {
      "inputs": [
        {
          "internalType": "uint256",
          "name": "tokenId",
          "type": "uint256"
        }
      ],
      "name": "burn",
      "outputs": [],
      "stateMutability": "nonpayable",
      "type": "function"
    },
    {
      "inputs": [],
      "name": "deleteDefaultRoyalty",
      "outputs": [],
      "stateMutability": "nonpayable",
      "type": "function"
    }
  ],
  "bytecode": "0x60806040523480156200001157600080fd5b506040516200362c3803806200362c8339818101604052810190620000379190620002c2565b818181600290805190602001906200005192919062000075565b5080600390805190602001906200006a92919062000075565b5050505050620003ac565b828054620000839062000376565b90600052602060002090601f016020900481019282620000a75760008555620000f3565b82601f10620000c257805160ff1916838001178555620000f3565b82800160010185558215620000f3579182015b82811115620000f2578251825591602001919060010190620000d5565b5b50905062000102919062000106565b5090565b5b808211156200012157600081600090555060010162000107565b5090565b6000604051905090565b600080fd5b600080fd5b600080fd5b600080fd5b6000601f19601f8301169050919050565b7f4e487b7100000000000000000000000000000000000000000000000000000000600052604160045260246000fd5b6200018e8262000143565b810181811067ffffffffffffffff82111715620001b057620001af62000154565b5b80604052505050565b6000620001c562000125565b9050620001d3828262000183565b919050565b600067ffffffffffffffff821115620001f657620001f562000154565b5b620002018262000143565b9050602081019050919050565b60005b838110156200022e57808201518184015260208101905062000211565b838111156200023e576000848401525b50505050565b60006200025b6200025584620001d8565b620001b9565b9050828152602081018484840111156200027a57620002796200013e565b5b620002878482856200020e565b509392505050565b600082601f830112620002a757620002a662000139565b5b8151620002b984826020860162000244565b91505092915050565b60008060408385031215620002dc57620002db6200012f565b5b600083015167ffffffffffffffff811115620002fd57620002fc62000134565b5b6200030b858286016200028f565b925050602083015167ffffffffffffffff8111156200032f576200032e62000134565b5b6200033d858286016200028f565b9150509250929050565b7f4e487b7100000000000000000000000000000000000000000000000000000000600052602260045260246000fd5b600060028204905060018216806200038f57607f821691505b60208210811415620003a657620003a562000347565b5b50919050565b61327080620003bc6000396000f3fe608060405234801561001057600080fd5b50600436106101215760003560e01c806342966c68116100ad578063a22cb46511610071578063a22cb46514610317578063aa1b103f14610333578063b88d4fde1461033d578063c87b56dd14610359578063e985e9c51461038957610121565b806342966c68146102615780635944c7531461027d5780636352211e1461029957806370a08231146102c957806395d89b41146102f957610121565b8063095ea7b3116100f4578063095ea7b3146101c057806323b872dd146101dc5780632a55205a146101f857806340c10f191461022957806342842e0e1461024557610121565b806301ffc9a71461012657806304634d8d1461015657806306fdde0314610172578063081812fc14610190575b600080fd5b610140600480360381019061013b9190611eef565b6103b9565b60405161014d9190611f37565b60405180910390f35b610170600480360381019061016b9190611ff4565b6103cb565b005b61017a6103d9565b60405161018791906120cd565b60405180910390f35b6101aa60048036038101906101a59190612125565b61046b565b6040516101b79190612161565b60405180910390f35b6101da60048036038101906101d5919061217c565b6104f0565b005b6101f660048036038101906101f191906121bc565b610608565b005b610212600480360381019061020d919061220f565b610668565b60405161022092919061225e565b60405180910390f35b610243600480360381019061023e919061217c565b610853565b005b61025f600480360381019061025a91906121bc565b610861565b005b61027b60048036038101906102769190612125565b610881565b005b61029760048036038101906102929190612287565b61088d565b005b6102b360048036038101906102ae9190612125565b61089d565b6040516102c09190612161565b60405180910390f35b6102e360048036038101906102de91906122da565b61094f565b6040516102f09190612307565b60405180910390f35b610301610a07565b60405161030e91906120cd565b60405180910390f35b610331600480360381019061032c919061234e565b610a99565b005b61033b610aaf565b005b610357600480360381019061035291906124c3565b610ab9565b005b610373600480360381019061036e9190612125565b610b1b565b60405161038091906120cd565b60405180910390f35b6103a3600480360381019061039e9190612546565b610bc2565b6040516103b09190611f37565b60405180910390f35b60006103c482610c56565b9050919050565b6103d58282610d38565b5050565b6060600280546103e8906125b5565b80601f0160208091040260200160405190810160405280929190818152602001828054610414906125b5565b80156104615780601f1061043657610100808354040283529160200191610461565b820191906000526020600020905b81548152906001019060200180831161044457829003601f168201915b5050505050905090565b600061047682610ecd565b6104b5576040517f08c379a00000000000000000000000000000000000000000000000000000000081526004016104ac90612659565b60405180910390fd5b6006600083815260200190815260200160002060009054906101000a900473ffffffffffffffffffffffffffffffffffffffff169050919050565b60006104fb8261089d565b90508073ffffffffffffffffffffffffffffffffffffffff168373ffffffffffffffffffffffffffffffffffffffff16141561056c576040517f08c379a0000000000000000000000000000000000000000000000000000000008152600401610563906126eb565b60405180910390fd5b8073ffffffffffffffffffffffffffffffffffffffff1661058b610f39565b73ffffffffffffffffffffffffffffffffffffffff1614806105ba57506105b9816105b4610f39565b610bc2565b5b6105f9576040517f08c379a00000000000000000000000000000000000000000000000000000000081526004016105f09061277d565b60405180910390fd5b6106038383610f41565b505050565b610619610613610f39565b82610ffa565b610658576040517f08c379a000000000000000000000000000000000000000000000000000000000815260040161064f9061280f565b60405180910390fd5b6106638383836110d8565b505050565b6000806000600160008681526020019081526020016000206040518060400160405290816000820160009054906101000a900473ffffffffffffffffffffffffffffffffffffffff1673ffffffffffffffffffffffffffffffffffffffff1673ffffffffffffffffffffffffffffffffffffffff1681526020016000820160149054906101000a90046bffffffffffffffffffffffff166bffffffffffffffffffffffff166bffffffffffffffffffffffff16815250509050600073ffffffffffffffffffffffffffffffffffffffff16816000015173ffffffffffffffffffffffffffffffffffffffff1614156107fe5760006040518060400160405290816000820160009054906101000a900473ffffffffffffffffffffffffffffffffffffffff1673ffffffffffffffffffffffffffffffffffffffff1673ffffffffffffffffffffffffffffffffffffffff1681526020016000820160149054906101000a90046bffffffffffffffffffffffff166bffffffffffffffffffffffff166bffffffffffffffffffffffff168152505090505b600061080861133f565b6bffffffffffffffffffffffff1682602001516bffffffffffffffffffffffff1686610834919061285e565b61083e91906128e7565b90508160000151819350935050509250929050565b61085d8282611349565b5050565b61087c83838360405180602001604052806000815250610ab9565b505050565b61088a81611523565b50565b610898838383611538565b505050565b6000806004600084815260200190815260200160002060009054906101000a900473ffffffffffffffffffffffffffffffffffffffff169050600073ffffffffffffffffffffffffffffffffffffffff168173ffffffffffffffffffffffffffffffffffffffff161415610946576040517f08c379a000000000000000000000000000000000000000000000000000000000815260040161093d9061298a565b60405180910390fd5b80915050919050565b60008073ffffffffffffffffffffffffffffffffffffffff168273ffffffffffffffffffffffffffffffffffffffff1614156109c0576040517f08c379a00000000000000000000000000000000000000000000000000000000081526004016109b790612a1c565b60405180910390fd5b600560008373ffffffffffffffffffffffffffffffffffffffff1673ffffffffffffffffffffffffffffffffffffffff168152602001908152602001600020549050919050565b606060038054610a16906125b5565b80601f0160208091040260200160405190810160405280929190818152602001828054610a42906125b5565b8015610a8f5780601f10610a6457610100808354040283529160200191610a8f565b820191906000526020600020905b815481529060010190602001808311610a7257829003601f168201915b5050505050905090565b610aab610aa4610f39565b83836116e0565b5050565b610ab761184d565b565b610aca610ac4610f39565b83610ffa565b610b09576040517f08c379a0000000000000000000000000000000000000000000000000000000008152600401610b009061280f565b60405180910390fd5b610b158484848461189a565b50505050565b6060610b2682610ecd565b610b65576040517f08c379a0000000000000000000000000000000000000000000000000000000008152600401610b5c90612aae565b60405180910390fd5b6000610b6f6118f6565b90506000815111610b8f5760405180602001604052806000815250610bba565b80610b998461190d565b604051602001610baa929190612b0a565b6040516020818303038152906040525b915050919050565b6000600760008473ffffffffffffffffffffffffffffffffffffffff1673ffffffffffffffffffffffffffffffffffffffff16815260200190815260200160002060008373ffffffffffffffffffffffffffffffffffffffff1673ffffffffffffffffffffffffffffffffffffffff16815260200190815260200160002060009054906101000a900460ff16905092915050565b60007f80ac58cd000000000000000000000000000000000000000000000000000000007bffffffffffffffffffffffffffffffffffffffffffffffffffffffff1916827bffffffffffffffffffffffffffffffffffffffffffffffffffffffff19161480610d2157507f5b5e139f000000000000000000000000000000000000000000000000000000007bffffffffffffffffffffffffffffffffffffffffffffffffffffffff1916827bffffffffffffffffffffffffffffffffffffffffffffffffffffffff1916145b80610d315750610d3082611a6e565b5b9050919050565b610d4061133f565b6bffffffffffffffffffffffff16816bffffffffffffffffffffffff161115610d9e576040517f08c379a0000000000000000000000000000000000000000000000000000000008152600401610d9590612ba0565b60405180910390fd5b600073ffffffffffffffffffffffffffffffffffffffff168273ffffffffffffffffffffffffffffffffffffffff161415610e0e576040517f08c379a0000000000000000000000000000000000000000000000000000000008152600401610e0590612c0c565b60405180910390fd5b60405180604001604052808373ffffffffffffffffffffffffffffffffffffffff168152602001826bffffffffffffffffffffffff168152506000808201518160000160006101000a81548173ffffffffffffffffffffffffffffffffffffffff021916908373ffffffffffffffffffffffffffffffffffffffff16021790555060208201518160000160146101000a8154816bffffffffffffffffffffffff02191690836bffffffffffffffffffffffff1602179055509050505050565b60008073ffffffffffffffffffffffffffffffffffffffff166004600084815260200190815260200160002060009054906101000a900473ffffffffffffffffffffffffffffffffffffffff1673ffffffffffffffffffffffffffffffffffffffff1614159050919050565b600033905090565b816006600083815260200190815260200160002060006101000a81548173ffffffffffffffffffffffffffffffffffffffff021916908373ffffffffffffffffffffffffffffffffffffffff160217905550808273ffffffffffffffffffffffffffffffffffffffff16610fb48361089d565b73ffffffffffffffffffffffffffffffffffffffff167f8c5be1e5ebec7d5bd14f71427d1e84f3dd0314c0f7b2291e5b200ac8c7c3b92560405160405180910390a45050565b600061100582610ecd565b611044576040517f08c379a000000000000000000000000000000000000000000000000000000000815260040161103b90612c9e565b60405180910390fd5b600061104f8361089d565b90508073ffffffffffffffffffffffffffffffffffffffff168473ffffffffffffffffffffffffffffffffffffffff1614806110be57508373ffffffffffffffffffffffffffffffffffffffff166110a68461046b565b73ffffffffffffffffffffffffffffffffffffffff16145b806110cf57506110ce8185610bc2565b5b91505092915050565b8273ffffffffffffffffffffffffffffffffffffffff166110f88261089d565b73ffffffffffffffffffffffffffffffffffffffff161461114e576040517f08c379a000000000000000000000000000000000000000000000000000000000815260040161114590612d30565b60405180910390fd5b600073ffffffffffffffffffffffffffffffffffffffff168273ffffffffffffffffffffffffffffffffffffffff1614156111be576040517f08c379a00000000000000000000000000000000000000000000000000000000081526004016111b590612dc2565b60405180910390fd5b6111c9838383611ae8565b6111d4600082610f41565b6001600560008573ffffffffffffffffffffffffffffffffffffffff1673ffffffffffffffffffffffffffffffffffffffff16815260200190815260200160002060008282546112249190612de2565b925050819055506001600560008473ffffffffffffffffffffffffffffffffffffffff1673ffffffffffffffffffffffffffffffffffffffff168152602001908152602001600020600082825461127b9190612e16565b92505081905550816004600083815260200190815260200160002060006101000a81548173ffffffffffffffffffffffffffffffffffffffff021916908373ffffffffffffffffffffffffffffffffffffffff160217905550808273ffffffffffffffffffffffffffffffffffffffff168473ffffffffffffffffffffffffffffffffffffffff167fddf252ad1be2c89b69c2b068fc378daa952ba7f163c4a11628f55a4df523b3ef60405160405180910390a461133a838383611aed565b505050565b6000612710905090565b600073ffffffffffffffffffffffffffffffffffffffff168273ffffffffffffffffffffffffffffffffffffffff1614156113b9576040517f08c379a00000000000000000000000000000000000000000000000000000000081526004016113b090612eb8565b60405180910390fd5b6113c281610ecd565b15611402576040517f08c379a00000000000000000000000000000000000000000000000000000000081526004016113f990612f24565b60405180910390fd5b61140e60008383611ae8565b6001600560008473ffffffffffffffffffffffffffffffffffffffff1673ffffffffffffffffffffffffffffffffffffffff168152602001908152602001600020600082825461145e9190612e16565b92505081905550816004600083815260200190815260200160002060006101000a81548173ffffffffffffffffffffffffffffffffffffffff021916908373ffffffffffffffffffffffffffffffffffffffff160217905550808273ffffffffffffffffffffffffffffffffffffffff16600073ffffffffffffffffffffffffffffffffffffffff167fddf252ad1be2c89b69c2b068fc378daa952ba7f163c4a11628f55a4df523b3ef60405160405180910390a461151f60008383611aed565b5050565b61152c81611af2565b61153581611c0f565b50565b61154061133f565b6bffffffffffffffffffffffff16816bffffffffffffffffffffffff16111561159e576040517f08c379a000000000000000000000000000000000000000000000000000000000815260040161159590612ba0565b60405180910390fd5b600073ffffffffffffffffffffffffffffffffffffffff168273ffffffffffffffffffffffffffffffffffffffff16141561160e576040517f08c379a000000000000000000000000000000000000000000000000000000000815260040161160590612f90565b60405180910390fd5b60405180604001604052808373ffffffffffffffffffffffffffffffffffffffff168152602001826bffffffffffffffffffffffff168152506001600085815260200190815260200160002060008201518160000160006101000a81548173ffffffffffffffffffffffffffffffffffffffff021916908373ffffffffffffffffffffffffffffffffffffffff16021790555060208201518160000160146101000a8154816bffffffffffffffffffffffff02191690836bffffffffffffffffffffffff160217905550905050505050565b8173ffffffffffffffffffffffffffffffffffffffff168373ffffffffffffffffffffffffffffffffffffffff16141561174f576040517f08c379a000000000000000000000000000000000000000000000000000000000815260040161174690612ffc565b60405180910390fd5b80600760008573ffffffffffffffffffffffffffffffffffffffff1673ffffffffffffffffffffffffffffffffffffffff16815260200190815260200160002060008473ffffffffffffffffffffffffffffffffffffffff1673ffffffffffffffffffffffffffffffffffffffff16815260200190815260200160002060006101000a81548160ff0219169083151502179055508173ffffffffffffffffffffffffffffffffffffffff168373ffffffffffffffffffffffffffffffffffffffff167f17307eab39ab6107e8899845ad3d59bd9653f200f220920489ca2b5937696c31836040516118409190611f37565b60405180910390a3505050565b6000806000820160006101000a81549073ffffffffffffffffffffffffffffffffffffffff02191690556000820160146101000a8154906bffffffffffffffffffffffff02191690555050565b6118a58484846110d8565b6118b184848484611c6e565b6118f0576040517f08c379a00000000000000000000000000000000000000000000000000000000081526004016118e79061308e565b60405180910390fd5b50505050565b606060405180602001604052806000815250905090565b60606000821415611955576040518060400160405280600181526020017f30000000000000000000000000000000000000000000000000000000000000008152509050611a69565b600082905060005b60008214611987578080611970906130ae565b915050600a8261198091906128e7565b915061195d565b60008167ffffffffffffffff8111156119a3576119a2612398565b5b6040519080825280601f01601f1916602001820160405280156119d55781602001600182028036833780820191505090505b5090505b60008514611a62576001826119ee9190612de2565b9150600a856119fd91906130f7565b6030611a099190612e16565b60f81b818381518110611a1f57611a1e613128565b5b60200101907effffffffffffffffffffffffffffffffffffffffffffffffffffffffffffff1916908160001a905350600a85611a5b91906128e7565b94506119d9565b8093505050505b919050565b60007f2a55205a000000000000000000000000000000000000000000000000000000007bffffffffffffffffffffffffffffffffffffffffffffffffffffffff1916827bffffffffffffffffffffffffffffffffffffffffffffffffffffffff19161480611ae15750611ae082611df6565b5b9050919050565b505050565b505050565b6000611afd8261089d565b9050611b0b81600084611ae8565b611b16600083610f41565b6001600560008373ffffffffffffffffffffffffffffffffffffffff1673ffffffffffffffffffffffffffffffffffffffff1681526020019081526020016000206000828254611b669190612de2565b925050819055506004600083815260200190815260200160002060006101000a81549073ffffffffffffffffffffffffffffffffffffffff021916905581600073ffffffffffffffffffffffffffffffffffffffff168273ffffffffffffffffffffffffffffffffffffffff167fddf252ad1be2c89b69c2b068fc378daa952ba7f163c4a11628f55a4df523b3ef60405160405180910390a4611c0b81600084611aed565b5050565b60016000828152602001908152602001600020600080820160006101000a81549073ffffffffffffffffffffffffffffffffffffffff02191690556000820160146101000a8154906bffffffffffffffffffffffff0219169055505050565b6000611c8f8473ffffffffffffffffffffffffffffffffffffffff16611e60565b15611de9578373ffffffffffffffffffffffffffffffffffffffff1663150b7a02611cb8610f39565b8786866040518563ffffffff1660e01b8152600401611cda94939291906131ac565b6020604051808303816000875af1925050508015611d1657506040513d601f19601f82011682018060405250810190611d13919061320d565b60015b611d99573d8060008114611d46576040519150601f19603f3d011682016040523d82523d6000602084013e611d4b565b606091505b50600081511415611d91576040517f08c379a0000000000000000000000000000000000000000000000000000000008152600401611d889061308e565b60405180910390fd5b805181602001fd5b63150b7a0260e01b7bffffffffffffffffffffffffffffffffffffffffffffffffffffffff1916817bffffffffffffffffffffffffffffffffffffffffffffffffffffffff191614915050611dee565b600190505b949350505050565b60007f01ffc9a7000000000000000000000000000000000000000000000000000000007bffffffffffffffffffffffffffffffffffffffffffffffffffffffff1916827bffffffffffffffffffffffffffffffffffffffffffffffffffffffff1916149050919050565b6000808273ffffffffffffffffffffffffffffffffffffffff163b119050919050565b6000604051905090565b600080fd5b600080fd5b60007fffffffff0000000000000000000000000000000000000000000000000000000082169050919050565b611ecc81611e97565b8114611ed757600080fd5b50565b600081359050611ee981611ec3565b92915050565b600060208284031215611f0557611f04611e8d565b5b6000611f1384828501611eda565b91505092915050565b60008115159050919050565b611f3181611f1c565b82525050565b6000602082019050611f4c6000830184611f28565b92915050565b600073ffffffffffffffffffffffffffffffffffffffff82169050919050565b6000611f7d82611f52565b9050919050565b611f8d81611f72565b8114611f9857600080fd5b50565b600081359050611faa81611f84565b92915050565b60006bffffffffffffffffffffffff82169050919050565b611fd181611fb0565b8114611fdc57600080fd5b50565b600081359050611fee81611fc8565b92915050565b6000806040838503121561200b5761200a611e8d565b5b600061201985828601611f9b565b925050602061202a85828601611fdf565b9150509250929050565b600081519050919050565b600082825260208201905092915050565b60005b8381101561206e578082015181840152602081019050612053565b8381111561207d576000848401525b50505050565b6000601f19601f8301169050919050565b600061209f82612034565b6120a9818561203f565b93506120b9818560208601612050565b6120c281612083565b840191505092915050565b600060208201905081810360008301526120e78184612094565b905092915050565b6000819050919050565b612102816120ef565b811461210d57600080fd5b50565b60008135905061211f816120f9565b92915050565b60006020828403121561213b5761213a611e8d565b5b600061214984828501612110565b91505092915050565b61215b81611f72565b82525050565b60006020820190506121766000830184612152565b92915050565b6000806040838503121561219357612192611e8d565b5b60006121a185828601611f9b565b92505060206121b285828601612110565b9150509250929050565b6000806000606084860312156121d5576121d4611e8d565b5b60006121e386828701611f9b565b93505060206121f486828701611f9b565b925050604061220586828701612110565b9150509250925092565b6000806040838503121561222657612225611e8d565b5b600061223485828601612110565b925050602061224585828601612110565b9150509250929050565b612258816120ef565b82525050565b60006040820190506122736000830185612152565b612280602083018461224f565b9392505050565b6000806000606084860312156122a05761229f611e8d565b5b60006122ae86828701612110565b93505060206122bf86828701611f9b565b92505060406122d086828701611fdf565b9150509250925092565b6000602082840312156122f0576122ef611e8d565b5b60006122fe84828501611f9b565b91505092915050565b600060208201905061231c600083018461224f565b92915050565b61232b81611f1c565b811461233657600080fd5b50565b60008135905061234881612322565b92915050565b6000806040838503121561236557612364611e8d565b5b600061237385828601611f9b565b925050602061238485828601612339565b9150509250929050565b600080fd5b600080fd5b7f4e487b7100000000000000000000000000000000000000000000000000000000600052604160045260246000fd5b6123d082612083565b810181811067ffffffffffffffff821117156123ef576123ee612398565b5b80604052505050565b6000612402611e83565b905061240e82826123c7565b919050565b600067ffffffffffffffff82111561242e5761242d612398565b5b61243782612083565b9050602081019050919050565b82818337600083830152505050565b600061246661246184612413565b6123f8565b90508281526020810184848401111561248257612481612393565b5b61248d848285612444565b509392505050565b600082601f8301126124aa576124a961238e565b5b81356124ba848260208601612453565b91505092915050565b600080600080608085870312156124dd576124dc611e8d565b5b60006124eb87828801611f9b565b94505060206124fc87828801611f9b565b935050604061250d87828801612110565b925050606085013567ffffffffffffffff81111561252e5761252d611e92565b5b61253a87828801612495565b91505092959194509250565b6000806040838503121561255d5761255c611e8d565b5b600061256b85828601611f9b565b925050602061257c85828601611f9b565b9150509250929050565b7f4e487b7100000000000000000000000000000000000000000000000000000000600052602260045260246000fd5b600060028204905060018216806125cd57607f821691505b602082108114156125e1576125e0612586565b5b50919050565b7f4552433732313a20617070726f76656420717565727920666f72206e6f6e657860008201527f697374656e7420746f6b656e0000000000000000000000000000000000000000602082015250565b6000612643602c8361203f565b915061264e826125e7565b604082019050919050565b6000602082019050818103600083015261267281612636565b9050919050565b7f4552433732313a20617070726f76616c20746f2063757272656e74206f776e6560008201527f7200000000000000000000000000000000000000000000000000000000000000602082015250565b60006126d560218361203f565b91506126e082612679565b604082019050919050565b60006020820190508181036000830152612704816126c8565b9050919050565b7f4552433732313a20617070726f76652063616c6c6572206973206e6f74206f7760008201527f6e6572206e6f7220617070726f76656420666f7220616c6c0000000000000000602082015250565b600061276760388361203f565b91506127728261270b565b604082019050919050565b600060208201905081810360008301526127968161275a565b9050919050565b7f4552433732313a207472616e736665722063616c6c6572206973206e6f74206f60008201527f776e6572206e6f7220617070726f766564000000000000000000000000000000602082015250565b60006127f960318361203f565b91506128048261279d565b604082019050919050565b60006020820190508181036000830152612828816127ec565b9050919050565b7f4e487b7100000000000000000000000000000000000000000000000000000000600052601160045260246000fd5b6000612869826120ef565b9150612874836120ef565b9250817fffffffffffffffffffffffffffffffffffffffffffffffffffffffffffffffff04831182151516156128ad576128ac61282f565b5b828202905092915050565b7f4e487b7100000000000000000000000000000000000000000000000000000000600052601260045260246000fd5b60006128f2826120ef565b91506128fd836120ef565b92508261290d5761290c6128b8565b5b828204905092915050565b7f4552433732313a206f776e657220717565727920666f72206e6f6e657869737460008201527f656e7420746f6b656e0000000000000000000000000000000000000000000000602082015250565b600061297460298361203f565b915061297f82612918565b604082019050919050565b600060208201905081810360008301526129a381612967565b9050919050565b7f4552433732313a2062616c616e636520717565727920666f7220746865207a6560008201527f726f206164647265737300000000000000000000000000000000000000000000602082015250565b6000612a06602a8361203f565b9150612a11826129aa565b604082019050919050565b60006020820190508181036000830152612a35816129f9565b9050919050565b7f4552433732314d657461646174613a2055524920717565727920666f72206e6f60008201527f6e6578697374656e7420746f6b656e0000000000000000000000000000000000602082015250565b6000612a98602f8361203f565b9150612aa382612a3c565b604082019050919050565b60006020820190508181036000830152612ac781612a8b565b9050919050565b600081905092915050565b6000612ae482612034565b612aee8185612ace565b9350612afe818560208601612050565b80840191505092915050565b6000612b168285612ad9565b9150612b228284612ad9565b91508190509392505050565b7f455243323938313a20726f79616c7479206665652077696c6c2065786365656460008201527f2073616c65507269636500000000000000000000000000000000000000000000602082015250565b6000612b8a602a8361203f565b9150612b9582612b2e565b604082019050919050565b60006020820190508181036000830152612bb981612b7d565b9050919050565b7f455243323938313a20696e76616c696420726563656976657200000000000000600082015250565b6000612bf660198361203f565b9150612c0182612bc0565b602082019050919050565b60006020820190508181036000830152612c2581612be9565b9050919050565b7f4552433732313a206f70657261746f7220717565727920666f72206e6f6e657860008201527f697374656e7420746f6b656e0000000000000000000000000000000000000000602082015250565b6000612c88602c8361203f565b9150612c9382612c2c565b604082019050919050565b60006020820190508181036000830152612cb781612c7b565b9050919050565b7f4552433732313a207472616e736665722066726f6d20696e636f72726563742060008201527f6f776e6572000000000000000000000000000000000000000000000000000000602082015250565b6000612d1a60258361203f565b9150612d2582612cbe565b604082019050919050565b60006020820190508181036000830152612d4981612d0d565b9050919050565b7f4552433732313a207472616e7366657220746f20746865207a65726f2061646460008201527f7265737300000000000000000000000000000000000000000000000000000000602082015250565b6000612dac60248361203f565b9150612db782612d50565b604082019050919050565b60006020820190508181036000830152612ddb81612d9f565b9050919050565b6000612ded826120ef565b9150612df8836120ef565b925082821015612e0b57612e0a61282f565b5b828203905092915050565b6000612e21826120ef565b9150612e2c836120ef565b9250827fffffffffffffffffffffffffffffffffffffffffffffffffffffffffffffffff03821115612e6157612e6061282f565b5b828201905092915050565b7f4552433732313a206d696e7420746f20746865207a65726f2061646472657373600082015250565b6000612ea260208361203f565b9150612ead82612e6c565b602082019050919050565b60006020820190508181036000830152612ed181612e95565b9050919050565b7f4552433732313a20746f6b656e20616c7265616479206d696e74656400000000600082015250565b6000612f0e601c8361203f565b9150612f1982612ed8565b602082019050919050565b60006020820190508181036000830152612f3d81612f01565b9050919050565b7f455243323938313a20496e76616c696420706172616d65746572730000000000600082015250565b6000612f7a601b8361203f565b9150612f8582612f44565b602082019050919050565b60006020820190508181036000830152612fa981612f6d565b9050919050565b7f4552433732313a20617070726f766520746f2063616c6c657200000000000000600082015250565b6000612fe660198361203f565b9150612ff182612fb0565b602082019050919050565b6000602082019050818103600083015261301581612fd9565b9050919050565b7f4552433732313a207472616e7366657220746f206e6f6e20455243373231526560008201527f63656976657220696d706c656d656e7465720000000000000000000000000000602082015250565b600061307860328361203f565b91506130838261301c565b604082019050919050565b600060208201905081810360008301526130a78161306b565b9050919050565b60006130b9826120ef565b91507fffffffffffffffffffffffffffffffffffffffffffffffffffffffffffffffff8214156130ec576130eb61282f565b5b600182019050919050565b6000613102826120ef565b915061310d836120ef565b92508261311d5761311c6128b8565b5b828206905092915050565b7f4e487b7100000000000000000000000000000000000000000000000000000000600052603260045260246000fd5b600081519050919050565b600082825260208201905092915050565b600061317e82613157565b6131888185613162565b9350613198818560208601612050565b6131a181612083565b840191505092915050565b60006080820190506131c16000830187612152565b6131ce6020830186612152565b6131db604083018561224f565b81810360608301526131ed8184613173565b905095945050505050565b60008151905061320781611ec3565b92915050565b60006020828403121561322357613222611e8d565b5b6000613231848285016131f8565b9150509291505056fea2646970667358221220564f6d0ba21561ac47d46dd661a3db3d1273be7dfea59e5654509c6b5f741ff964736f6c634300080b0033",
  "immutableReferences": {},
  "source": "// SPDX-License-Identifier: MIT\n\npragma solidity ^0.8.0;\n\nimport \"../token/ERC721/extensions/ERC721Royalty.sol\";\n\ncontract ERC721RoyaltyMock is ERC721Royalty {\n    constructor(string memory name, string memory symbol) ERC721(name, symbol) {}\n\n    function setTokenRoyalty(\n        uint256 tokenId,\n        address recipient,\n        uint96 fraction\n    ) public {\n        _setTokenRoyalty(tokenId, recipient, fraction);\n    }\n\n    function setDefaultRoyalty(address recipient, uint96 fraction) public {\n        _setDefaultRoyalty(recipient, fraction);\n    }\n\n    function mint(address to, uint256 tokenId) public {\n        _mint(to, tokenId);\n    }\n\n    function burn(uint256 tokenId) public {\n        _burn(tokenId);\n    }\n\n    function deleteDefaultRoyalty() public {\n        _deleteDefaultRoyalty();\n    }\n}\n",
  "sourcePath": "D:\\03.block-chain\\01.miquelTC__nft-marketplace\\test-proj\\nft-marketplace-master\\src\\contracts\\ERC721\\mocks\\ERC721RoyaltyMock.sol",
  "compiler": {
    "name": "solc",
    "version": "0.8.11+commit.d7f03943.Emscripten.clang"
  },
  "schemaVersion": "3.4.4",
  "updatedAt": "2022-02-16T02:59:58.518Z",
  "devdoc": {
    "kind": "dev",
    "methods": {
      "approve(address,uint256)": {
        "details": "See {IERC721-approve}."
      },
      "balanceOf(address)": {
        "details": "See {IERC721-balanceOf}."
      },
      "getApproved(uint256)": {
        "details": "See {IERC721-getApproved}."
      },
      "isApprovedForAll(address,address)": {
        "details": "See {IERC721-isApprovedForAll}."
      },
      "name()": {
        "details": "See {IERC721Metadata-name}."
      },
      "ownerOf(uint256)": {
        "details": "See {IERC721-ownerOf}."
      },
      "royaltyInfo(uint256,uint256)": {
        "details": "Returns how much royalty is owed and to whom, based on a sale price that may be denominated in any unit of exchange. The royalty amount is denominated and should be payed in that same unit of exchange."
      },
      "safeTransferFrom(address,address,uint256)": {
        "details": "See {IERC721-safeTransferFrom}."
      },
      "safeTransferFrom(address,address,uint256,bytes)": {
        "details": "See {IERC721-safeTransferFrom}."
      },
      "setApprovalForAll(address,bool)": {
        "details": "See {IERC721-setApprovalForAll}."
      },
      "supportsInterface(bytes4)": {
        "details": "See {IERC165-supportsInterface}."
      },
      "symbol()": {
        "details": "See {IERC721Metadata-symbol}."
      },
      "tokenURI(uint256)": {
        "details": "See {IERC721Metadata-tokenURI}."
      },
      "transferFrom(address,address,uint256)": {
        "details": "See {IERC721-transferFrom}."
      }
    },
    "version": 1
  },
  "userdoc": {
    "kind": "user",
    "methods": {},
    "version": 1
  }
}