{
  "contractName": "ERC721Lending",
  "abi": [
    {
      "anonymous": false,
      "inputs": [
        {
          "indexed": false,
          "internalType": "address",
          "name": "tokenAddress",
          "type": "address"
        },
        {
          "indexed": false,
          "internalType": "uint256",
          "name": "tokenId",
          "type": "uint256"
        }
      ],
      "name": "ERC721ForLendRemoved",
      "type": "event"
    },
    {
      "anonymous": false,
      "inputs": [
        {
          "indexed": false,
          "internalType": "address",
          "name": "lenderAddress",
          "type": "address"
        },
        {
          "indexed": false,
          "internalType": "address",
          "name": "tokenAddress",
          "type": "address"
        },
        {
          "indexed": false,
          "internalType": "uint256",
          "name": "tokenId",
          "type": "uint256"
        }
      ],
      "name": "ERC721ForLendRemovedV2",
      "type": "event"
    },
    {
      "anonymous": false,
      "inputs": [
        {
          "indexed": false,
          "internalType": "address",
          "name": "tokenAddress",
          "type": "address"
        },
        {
          "indexed": false,
          "internalType": "uint256",
          "name": "tokenId",
          "type": "uint256"
        }
      ],
      "name": "ERC721ForLendUpdated",
      "type": "event"
    },
    {
      "anonymous": false,
      "inputs": [
        {
          "indexed": false,
          "internalType": "address",
          "name": "lenderAddress",
          "type": "address"
        },
        {
          "indexed": false,
          "internalType": "address",
          "name": "tokenAddress",
          "type": "address"
        },
        {
          "indexed": false,
          "internalType": "uint256",
          "name": "tokenId",
          "type": "uint256"
        }
      ],
      "name": "ERC721ForLendUpdatedV2",
      "type": "event"
    },
    {
      "inputs": [],
      "name": "acceptedPayTokenAddress",
      "outputs": [
        {
          "internalType": "address",
          "name": "",
          "type": "address"
        }
      ],
      "stateMutability": "view",
      "type": "function"
    },
    {
      "inputs": [],
      "name": "feesContractAddress",
      "outputs": [
        {
          "internalType": "address",
          "name": "",
          "type": "address"
        }
      ],
      "stateMutability": "view",
      "type": "function"
    },
    {
      "inputs": [
        {
          "internalType": "uint256",
          "name": "",
          "type": "uint256"
        }
      ],
      "name": "lendersWithTokens",
      "outputs": [
        {
          "internalType": "address",
          "name": "lenderAddress",
          "type": "address"
        },
        {
          "internalType": "address",
          "name": "tokenAddress",
          "type": "address"
        },
        {
          "internalType": "uint256",
          "name": "tokenId",
          "type": "uint256"
        }
      ],
      "stateMutability": "view",
      "type": "function"
    },
    {
      "inputs": [
        {
          "internalType": "address",
          "name": "",
          "type": "address"
        },
        {
          "internalType": "uint256",
          "name": "",
          "type": "uint256"
        },
        {
          "internalType": "address",
          "name": "",
          "type": "address"
        }
      ],
      "name": "lendingPool",
      "outputs": [
        {
          "internalType": "uint256",
          "name": "durationHours",
          "type": "uint256"
        },
        {
          "internalType": "uint256",
          "name": "initialWorth",
          "type": "uint256"
        },
        {
          "internalType": "uint256",
          "name": "earningGoal",
          "type": "uint256"
        },
        {
          "internalType": "uint256",
          "name": "borrowedAtTimestamp",
          "type": "uint256"
        },
        {
          "internalType": "address",
          "name": "lender",
          "type": "address"
        },
        {
          "internalType": "address",
          "name": "borrower",
          "type": "address"
        },
        {
          "internalType": "bool",
          "name": "lenderClaimedCollateral",
          "type": "bool"
        },
        {
          "internalType": "uint256",
          "name": "sablierSalaryId",
          "type": "uint256"
        },
        {
          "internalType": "uint256",
          "name": "platformFeesPercent",
          "type": "uint256"
        }
      ],
      "stateMutability": "view",
      "type": "function"
    },
    {
      "inputs": [
        {
          "internalType": "address",
          "name": "",
          "type": "address"
        },
        {
          "internalType": "uint256",
          "name": "",
          "type": "uint256"
        }
      ],
      "name": "lentERC721List",
      "outputs": [
        {
          "internalType": "uint256",
          "name": "durationHours",
          "type": "uint256"
        },
        {
          "internalType": "uint256",
          "name": "initialWorth",
          "type": "uint256"
        },
        {
          "internalType": "uint256",
          "name": "earningGoal",
          "type": "uint256"
        },
        {
          "internalType": "uint256",
          "name": "borrowedAtTimestamp",
          "type": "uint256"
        },
        {
          "internalType": "address",
          "name": "lender",
          "type": "address"
        },
        {
          "internalType": "address",
          "name": "borrower",
          "type": "address"
        },
        {
          "internalType": "bool",
          "name": "lenderClaimedCollateral",
          "type": "bool"
        },
        {
          "internalType": "uint256",
          "name": "sablierSalaryId",
          "type": "uint256"
        },
        {
          "internalType": "uint256",
          "name": "platformFeesPercent",
          "type": "uint256"
        }
      ],
      "stateMutability": "view",
      "type": "function"
    },
    {
      "inputs": [],
      "name": "sablierContractAddress",
      "outputs": [
        {
          "internalType": "address",
          "name": "",
          "type": "address"
        }
      ],
      "stateMutability": "view",
      "type": "function"
    },
    {
      "inputs": [
        {
          "internalType": "address",
          "name": "tokenAddress",
          "type": "address"
        }
      ],
      "name": "initialize",
      "outputs": [],
      "stateMutability": "nonpayable",
      "type": "function"
    },
    {
      "inputs": [
        {
          "internalType": "address",
          "name": "contractAddress",
          "type": "address"
        }
      ],
      "name": "setSablierContractAddress",
      "outputs": [],
      "stateMutability": "nonpayable",
      "type": "function"
    },
    {
      "inputs": [
        {
          "internalType": "address",
          "name": "contractAddress",
          "type": "address"
        }
      ],
      "name": "setFeesContractAddress",
      "outputs": [],
      "stateMutability": "nonpayable",
      "type": "function"
    },
    {
      "inputs": [
        {
          "internalType": "address",
          "name": "tokenAddress",
          "type": "address"
        },
        {
          "internalType": "uint256",
          "name": "tokenId",
          "type": "uint256"
        },
        {
          "internalType": "uint256",
          "name": "durationHours",
          "type": "uint256"
        },
        {
          "internalType": "uint256",
          "name": "initialWorth",
          "type": "uint256"
        },
        {
          "internalType": "uint256",
          "name": "earningGoal",
          "type": "uint256"
        }
      ],
      "name": "setLendSettings",
      "outputs": [],
      "stateMutability": "nonpayable",
      "type": "function"
    },
    {
      "inputs": [
        {
          "internalType": "address",
          "name": "tokenAddress",
          "type": "address"
        },
        {
          "internalType": "uint256",
          "name": "tokenId",
          "type": "uint256"
        }
      ],
      "name": "startBorrowing",
      "outputs": [],
      "stateMutability": "nonpayable",
      "type": "function"
    },
    {
      "inputs": [
        {
          "internalType": "address",
          "name": "tokenAddress",
          "type": "address"
        },
        {
          "internalType": "uint256",
          "name": "tokenId",
          "type": "uint256"
        }
      ],
      "name": "stopBorrowing",
      "outputs": [],
      "stateMutability": "nonpayable",
      "type": "function"
    },
    {
      "inputs": [
        {
          "internalType": "address",
          "name": "tokenAddress",
          "type": "address"
        },
        {
          "internalType": "uint256",
          "name": "tokenId",
          "type": "uint256"
        }
      ],
      "name": "calculateLendSum",
      "outputs": [
        {
          "internalType": "uint256",
          "name": "",
          "type": "uint256"
        }
      ],
      "stateMutability": "view",
      "type": "function"
    },
    {
      "inputs": [
        {
          "internalType": "uint256",
          "name": "borrowedAtTimestamp",
          "type": "uint256"
        },
        {
          "internalType": "uint256",
          "name": "durationHours",
          "type": "uint256"
        }
      ],
      "name": "isDurationExpired",
      "outputs": [
        {
          "internalType": "bool",
          "name": "",
          "type": "bool"
        }
      ],
      "stateMutability": "view",
      "type": "function"
    },
    {
      "inputs": [
        {
          "internalType": "address",
          "name": "tokenAddress",
          "type": "address"
        },
        {
          "internalType": "uint256",
          "name": "tokenId",
          "type": "uint256"
        }
      ],
      "name": "removeFromLending",
      "outputs": [],
      "stateMutability": "nonpayable",
      "type": "function"
    },
    {
      "inputs": [
        {
          "internalType": "address",
          "name": "tokenAddress",
          "type": "address"
        },
        {
          "internalType": "uint256",
          "name": "tokenId",
          "type": "uint256"
        }
      ],
      "name": "claimBorrowerCollateral",
      "outputs": [],
      "stateMutability": "nonpayable",
      "type": "function"
    },
    {
      "inputs": [
        {
          "internalType": "address",
          "name": "tokenAddress",
          "type": "address"
        },
        {
          "internalType": "uint256",
          "name": "tokenId",
          "type": "uint256"
        }
      ],
      "name": "isValidNFT",
      "outputs": [
        {
          "internalType": "bool",
          "name": "",
          "type": "bool"
        }
      ],
      "stateMutability": "view",
      "type": "function"
    }
  ],
  "bytecode": "0x608060405234801561001057600080fd5b50614e7b806100206000396000f3fe608060405234801561001057600080fd5b506004361061010b5760003560e01c80637eca3870116100a2578063a36d2bee11610071578063a36d2bee146102aa578063afe89ab5146102c6578063c4d66de8146102f8578063c80d922214610314578063ca6ddbae146103445761010b565b80637eca38701461021e57806394f583f01461023a578063973e071f146102565780639baa7211146102725761010b565b80634dbbfd89116100de5780634dbbfd8914610196578063537aa868146101b25780635e2afd96146101e257806360aecb41146102005761010b565b80631e9f57a514610110578063227893f2146101405780633b1a33711461015e5780634c806ffc1461017a575b600080fd5b61012a60048036038101906101259190613ba3565b61037c565b6040516101379190613bf2565b60405180910390f35b610148610443565b6040516101559190613c1c565b60405180910390f35b61017860048036038101906101739190613ba3565b610469565b005b610194600480360381019061018f9190613ba3565b610aaf565b005b6101b060048036038101906101ab9190613c37565b611736565b005b6101cc60048036038101906101c79190613ba3565b61180b565b6040516101d99190613c7f565b60405180910390f35b6101ea6118be565b6040516101f79190613c1c565b60405180910390f35b6102086118e4565b6040516102159190613c1c565b60405180910390f35b61023860048036038101906102339190613ba3565b61190a565b005b610254600480360381019061024f9190613c37565b612268565b005b610270600480360381019061026b9190613ba3565b61233d565b005b61028c60048036038101906102879190613ba3565b6129f9565b6040516102a199989796959493929190613c9a565b60405180910390f35b6102c460048036038101906102bf9190613d27565b612aa1565b005b6102e060048036038101906102db9190613da2565b61306b565b6040516102ef93929190613dcf565b60405180910390f35b610312600480360381019061030d9190613c37565b6130e5565b005b61032e60048036038101906103299190613e06565b61320b565b60405161033b9190613c7f565b60405180910390f35b61035e60048036038101906103599190613e46565b613245565b60405161037399989796959493929190613c9a565b60405180910390f35b600080600160008573ffffffffffffffffffffffffffffffffffffffff1673ffffffffffffffffffffffffffffffffffffffff16815260200190815260200160002060008481526020019081526020016000206002015490506000600160008673ffffffffffffffffffffffffffffffffffffffff1673ffffffffffffffffffffffffffffffffffffffff168152602001908152602001600020600085815260200190815260200160002060010154905081816104399190613ec8565b9250505092915050565b600360009054906101000a900473ffffffffffffffffffffffffffffffffffffffff1681565b3373ffffffffffffffffffffffffffffffffffffffff16600160008473ffffffffffffffffffffffffffffffffffffffff1673ffffffffffffffffffffffffffffffffffffffff168152602001908152602001600020600083815260200190815260200160002060040160009054906101000a900473ffffffffffffffffffffffffffffffffffffffff1673ffffffffffffffffffffffffffffffffffffffff161461054a576040517f08c379a000000000000000000000000000000000000000000000000000000000815260040161054190613fa1565b60405180910390fd5b600073ffffffffffffffffffffffffffffffffffffffff16600160008473ffffffffffffffffffffffffffffffffffffffff1673ffffffffffffffffffffffffffffffffffffffff168152602001908152602001600020600083815260200190815260200160002060050160009054906101000a900473ffffffffffffffffffffffffffffffffffffffff1673ffffffffffffffffffffffffffffffffffffffff161461062c576040517f08c379a00000000000000000000000000000000000000000000000000000000081526004016106239061400d565b60405180910390fd5b60001515600160008473ffffffffffffffffffffffffffffffffffffffff1673ffffffffffffffffffffffffffffffffffffffff168152602001908152602001600020600083815260200190815260200160002060050160149054906101000a900460ff161515146106d3576040517f08c379a00000000000000000000000000000000000000000000000000000000081526004016106ca90614079565b60405180910390fd5b60008273ffffffffffffffffffffffffffffffffffffffff1630836040516024016106ff929190614099565b6040516020818303038152906040527f095ea7b3000000000000000000000000000000000000000000000000000000007bffffffffffffffffffffffffffffffffffffffffffffffffffffffff19166020820180517bffffffffffffffffffffffffffffffffffffffffffffffffffffffff8381831617835250505050604051610789919061413c565b6000604051808303816000865af19150503d80600081146107c6576040519150601f19603f3d011682016040523d82523d6000602084013e6107cb565b606091505b505090508015610843578273ffffffffffffffffffffffffffffffffffffffff1663095ea7b330846040518363ffffffff1660e01b8152600401610810929190614099565b600060405180830381600087803b15801561082a57600080fd5b505af115801561083e573d6000803e3d6000fd5b505050505b8273ffffffffffffffffffffffffffffffffffffffff166323b872dd3033856040518463ffffffff1660e01b815260040161088093929190613dcf565b600060405180830381600087803b15801561089a57600080fd5b505af11580156108ae573d6000803e3d6000fd5b5050505060405180610120016040528060008152602001600081526020016000815260200160008152602001600073ffffffffffffffffffffffffffffffffffffffff168152602001600073ffffffffffffffffffffffffffffffffffffffff168152602001600015158152602001600081526020016000815250600160008573ffffffffffffffffffffffffffffffffffffffff1673ffffffffffffffffffffffffffffffffffffffff16815260200190815260200160002060008481526020019081526020016000206000820151816000015560208201518160010155604082015181600201556060820151816003015560808201518160040160006101000a81548173ffffffffffffffffffffffffffffffffffffffff021916908373ffffffffffffffffffffffffffffffffffffffff16021790555060a08201518160050160006101000a81548173ffffffffffffffffffffffffffffffffffffffff021916908373ffffffffffffffffffffffffffffffffffffffff16021790555060c08201518160050160146101000a81548160ff02191690831515021790555060e082015181600601556101008201518160070155905050610a7183836132fa565b7f948592af2167a41ba05b6478e8646bf065736f7ccea16c304ffec4b6b441b22a8383604051610aa2929190614099565b60405180910390a1505050565b6000600160008473ffffffffffffffffffffffffffffffffffffffff1673ffffffffffffffffffffffffffffffffffffffff168152602001908152602001600020600083815260200190815260200160002060050160009054906101000a900473ffffffffffffffffffffffffffffffffffffffff1690503373ffffffffffffffffffffffffffffffffffffffff168173ffffffffffffffffffffffffffffffffffffffff1614610b95576040517f08c379a0000000000000000000000000000000000000000000000000000000008152600401610b8c906141c5565b60405180910390fd5b60001515600160008573ffffffffffffffffffffffffffffffffffffffff1673ffffffffffffffffffffffffffffffffffffffff168152602001908152602001600020600084815260200190815260200160002060050160149054906101000a900460ff1615151415611542578273ffffffffffffffffffffffffffffffffffffffff166323b872dd3330856040518463ffffffff1660e01b8152600401610c3f93929190613dcf565b600060405180830381600087803b158015610c5957600080fd5b505af1158015610c6d573d6000803e3d6000fd5b505050506000600160008573ffffffffffffffffffffffffffffffffffffffff1673ffffffffffffffffffffffffffffffffffffffff1681526020019081526020016000206000848152602001908152602001600020600101549050600060029054906101000a900473ffffffffffffffffffffffffffffffffffffffff1673ffffffffffffffffffffffffffffffffffffffff1663a9059cbb83836040518363ffffffff1660e01b8152600401610d26929190614099565b6020604051808303816000875af1158015610d45573d6000803e3d6000fd5b505050506040513d601f19601f82011682018060405250810190610d699190614211565b506000600160008673ffffffffffffffffffffffffffffffffffffffff1673ffffffffffffffffffffffffffffffffffffffff168152602001908152602001600020600085815260200190815260200160002060050160006101000a81548173ffffffffffffffffffffffffffffffffffffffff021916908373ffffffffffffffffffffffffffffffffffffffff1602179055506000600160008673ffffffffffffffffffffffffffffffffffffffff1673ffffffffffffffffffffffffffffffffffffffff1681526020019081526020016000206000858152602001908152602001600020600301819055506000600160008673ffffffffffffffffffffffffffffffffffffffff1673ffffffffffffffffffffffffffffffffffffffff168152602001908152602001600020600085815260200190815260200160002060040160009054906101000a900473ffffffffffffffffffffffffffffffffffffffff1690506000600160008773ffffffffffffffffffffffffffffffffffffffff1673ffffffffffffffffffffffffffffffffffffffff16815260200190815260200160002060008681526020019081526020016000206006015490506000811461143f57600080600080600360009054906101000a900473ffffffffffffffffffffffffffffffffffffffff1673ffffffffffffffffffffffffffffffffffffffff166380bfacc2866040518263ffffffff1660e01b8152600401610f8f9190613bf2565b61010060405180830381865afa158015610fad573d6000803e3d6000fd5b505050506040513d601f19601f82011682018060405250810190610fd19190614268565b97505096509650509550505060008242101561100a57610ffc8442610ff6919061431e565b836136d5565b85611007919061435c565b90505b600360009054906101000a900473ffffffffffffffffffffffffffffffffffffffff1673ffffffffffffffffffffffffffffffffffffffff1663c5a66ff9876040518263ffffffff1660e01b81526004016110659190613bf2565b6020604051808303816000875af1158015611084573d6000803e3d6000fd5b505050506040513d601f19601f820116820180604052508101906110a89190614211565b506000600160008d73ffffffffffffffffffffffffffffffffffffffff1673ffffffffffffffffffffffffffffffffffffffff16815260200190815260200160002060008c815260200190815260200160002060060181905550600080600160008e73ffffffffffffffffffffffffffffffffffffffff1673ffffffffffffffffffffffffffffffffffffffff16815260200190815260200160002060008d8152602001908152602001600020600701549050600081111561117b576111786111728860646136eb565b826136d5565b91505b600083131561130b5760008211156112695760006111998885613701565b905060006111b16111ab8360646136eb565b846136d5565b905060006111bf8583613701565b9050819450600060029054906101000a900473ffffffffffffffffffffffffffffffffffffffff1673ffffffffffffffffffffffffffffffffffffffff1663a9059cbb8d836040518363ffffffff1660e01b8152600401611221929190614099565b6020604051808303816000875af1158015611240573d6000803e3d6000fd5b505050506040513d601f19601f820116820180604052508101906112649190614211565b505050505b600060029054906101000a900473ffffffffffffffffffffffffffffffffffffffff1673ffffffffffffffffffffffffffffffffffffffff1663a9059cbb8c856040518363ffffffff1660e01b81526004016112c6929190614099565b6020604051808303816000875af11580156112e5573d6000803e3d6000fd5b505050506040513d601f19601f820116820180604052508101906113099190614211565b505b600073ffffffffffffffffffffffffffffffffffffffff16600660009054906101000a900473ffffffffffffffffffffffffffffffffffffffff1673ffffffffffffffffffffffffffffffffffffffff161415801561136a5750600082115b1561143357600060029054906101000a900473ffffffffffffffffffffffffffffffffffffffff1673ffffffffffffffffffffffffffffffffffffffff1663a9059cbb600660009054906101000a900473ffffffffffffffffffffffffffffffffffffffff16846040518363ffffffff1660e01b81526004016113ee929190614099565b6020604051808303816000875af115801561140d573d6000803e3d6000fd5b505050506040513d601f19601f820116820180604052508101906114319190614211565b505b5050505050505061153a565b6000600160008873ffffffffffffffffffffffffffffffffffffffff1673ffffffffffffffffffffffffffffffffffffffff1681526020019081526020016000206000878152602001908152602001600020600201549050600060029054906101000a900473ffffffffffffffffffffffffffffffffffffffff1673ffffffffffffffffffffffffffffffffffffffff1663a9059cbb84836040518363ffffffff1660e01b81526004016114f4929190614099565b6020604051808303816000875af1158015611513573d6000803e3d6000fd5b505050506040513d601f19601f820116820180604052508101906115379190614211565b50505b5050506116f8565b60405180610120016040528060008152602001600081526020016000815260200160008152602001600073ffffffffffffffffffffffffffffffffffffffff168152602001600073ffffffffffffffffffffffffffffffffffffffff168152602001600015158152602001600081526020016000815250600160008573ffffffffffffffffffffffffffffffffffffffff1673ffffffffffffffffffffffffffffffffffffffff16815260200190815260200160002060008481526020019081526020016000206000820151816000015560208201518160010155604082015181600201556060820151816003015560808201518160040160006101000a81548173ffffffffffffffffffffffffffffffffffffffff021916908373ffffffffffffffffffffffffffffffffffffffff16021790555060a08201518160050160006101000a81548173ffffffffffffffffffffffffffffffffffffffff021916908373ffffffffffffffffffffffffffffffffffffffff16021790555060c08201518160050160146101000a81548160ff02191690831515021790555060e0820151816006015561010082015181600701559050505b7fff57598c219d5cf768267ac0800789e8a5705c0651c6a1f2c5f0caa47d9712138383604051611729929190614099565b60405180910390a1505050565b600073ffffffffffffffffffffffffffffffffffffffff16600660009054906101000a900473ffffffffffffffffffffffffffffffffffffffff1673ffffffffffffffffffffffffffffffffffffffff16146117c7576040517f08c379a00000000000000000000000000000000000000000000000000000000081526004016117be90614462565b60405180910390fd5b80600660006101000a81548173ffffffffffffffffffffffffffffffffffffffff021916908373ffffffffffffffffffffffffffffffffffffffff16021790555050565b60008073ffffffffffffffffffffffffffffffffffffffff168373ffffffffffffffffffffffffffffffffffffffff16636352211e846040518263ffffffff1660e01b815260040161185d9190613bf2565b602060405180830381865afa15801561187a573d6000803e3d6000fd5b505050506040513d601f19601f8201168201806040525081019061189e9190614482565b73ffffffffffffffffffffffffffffffffffffffff161415905092915050565b600060029054906101000a900473ffffffffffffffffffffffffffffffffffffffff1681565b600660009054906101000a900473ffffffffffffffffffffffffffffffffffffffff1681565b600073ffffffffffffffffffffffffffffffffffffffff16600160008473ffffffffffffffffffffffffffffffffffffffff1673ffffffffffffffffffffffffffffffffffffffff168152602001908152602001600020600083815260200190815260200160002060050160009054906101000a900473ffffffffffffffffffffffffffffffffffffffff1673ffffffffffffffffffffffffffffffffffffffff1614156119ed576040517f08c379a00000000000000000000000000000000000000000000000000000000081526004016119e4906144fb565b60405180910390fd5b3373ffffffffffffffffffffffffffffffffffffffff16600160008473ffffffffffffffffffffffffffffffffffffffff1673ffffffffffffffffffffffffffffffffffffffff168152602001908152602001600020600083815260200190815260200160002060040160009054906101000a900473ffffffffffffffffffffffffffffffffffffffff1673ffffffffffffffffffffffffffffffffffffffff1614611ace576040517f08c379a0000000000000000000000000000000000000000000000000000000008152600401611ac590613fa1565b60405180910390fd5b6000600160008473ffffffffffffffffffffffffffffffffffffffff1673ffffffffffffffffffffffffffffffffffffffff16815260200190815260200160002060008381526020019081526020016000206003015490506000600160008573ffffffffffffffffffffffffffffffffffffffff1673ffffffffffffffffffffffffffffffffffffffff1681526020019081526020016000206000848152602001908152602001600020600001549050611b88828261320b565b611bc7576040517f08c379a0000000000000000000000000000000000000000000000000000000008152600401611bbe9061458d565b60405180910390fd5b60001515600160008673ffffffffffffffffffffffffffffffffffffffff1673ffffffffffffffffffffffffffffffffffffffff168152602001908152602001600020600085815260200190815260200160002060050160149054906101000a900460ff16151514611c6e576040517f08c379a0000000000000000000000000000000000000000000000000000000008152600401611c65906145f9565b60405180910390fd5b60018060008673ffffffffffffffffffffffffffffffffffffffff1673ffffffffffffffffffffffffffffffffffffffff168152602001908152602001600020600085815260200190815260200160002060050160146101000a81548160ff0219169083151502179055506000600160008673ffffffffffffffffffffffffffffffffffffffff1673ffffffffffffffffffffffffffffffffffffffff16815260200190815260200160002060008581526020019081526020016000206006015490506000811461216d576000600360009054906101000a900473ffffffffffffffffffffffffffffffffffffffff1673ffffffffffffffffffffffffffffffffffffffff166380bfacc2836040518263ffffffff1660e01b8152600401611d969190613bf2565b61010060405180830381865afa158015611db4573d6000803e3d6000fd5b505050506040513d601f19601f82011682018060405250810190611dd89190614268565b505050505092505050600060029054906101000a900473ffffffffffffffffffffffffffffffffffffffff1673ffffffffffffffffffffffffffffffffffffffff1663a9059cbb33600160008a73ffffffffffffffffffffffffffffffffffffffff1673ffffffffffffffffffffffffffffffffffffffff1681526020019081526020016000206000898152602001908152602001600020600101546040518363ffffffff1660e01b8152600401611e91929190614099565b6020604051808303816000875af1158015611eb0573d6000803e3d6000fd5b505050506040513d601f19601f82011682018060405250810190611ed49190614211565b50600360009054906101000a900473ffffffffffffffffffffffffffffffffffffffff1673ffffffffffffffffffffffffffffffffffffffff1663c5a66ff9836040518263ffffffff1660e01b8152600401611f309190613bf2565b6020604051808303816000875af1158015611f4f573d6000803e3d6000fd5b505050506040513d601f19601f82011682018060405250810190611f739190614211565b506000600160008873ffffffffffffffffffffffffffffffffffffffff1673ffffffffffffffffffffffffffffffffffffffff1681526020019081526020016000206000878152602001908152602001600020600601819055506000600160008873ffffffffffffffffffffffffffffffffffffffff1673ffffffffffffffffffffffffffffffffffffffff1681526020019081526020016000206000878152602001908152602001600020600701549050600073ffffffffffffffffffffffffffffffffffffffff16600660009054906101000a900473ffffffffffffffffffffffffffffffffffffffff1673ffffffffffffffffffffffffffffffffffffffff16141580156120845750600081115b1561216657600061209f6120998460646136eb565b836136d5565b9050600060029054906101000a900473ffffffffffffffffffffffffffffffffffffffff1673ffffffffffffffffffffffffffffffffffffffff1663a9059cbb600660009054906101000a900473ffffffffffffffffffffffffffffffffffffffff16836040518363ffffffff1660e01b8152600401612120929190614099565b6020604051808303816000875af115801561213f573d6000803e3d6000fd5b505050506040513d601f19601f820116820180604052508101906121639190614211565b50505b505061221e565b6000612179868661037c565b9050600060029054906101000a900473ffffffffffffffffffffffffffffffffffffffff1673ffffffffffffffffffffffffffffffffffffffff1663a9059cbb33836040518363ffffffff1660e01b81526004016121d8929190614099565b6020604051808303816000875af11580156121f7573d6000803e3d6000fd5b505050506040513d601f19601f8201168201806040525081019061221b9190614211565b50505b61222885856132fa565b7fff57598c219d5cf768267ac0800789e8a5705c0651c6a1f2c5f0caa47d9712138585604051612259929190614099565b60405180910390a15050505050565b600073ffffffffffffffffffffffffffffffffffffffff16600360009054906101000a900473ffffffffffffffffffffffffffffffffffffffff1673ffffffffffffffffffffffffffffffffffffffff16146122f9576040517f08c379a00000000000000000000000000000000000000000000000000000000081526004016122f09061468b565b60405180910390fd5b80600360006101000a81548173ffffffffffffffffffffffffffffffffffffffff021916908373ffffffffffffffffffffffffffffffffffffffff16021790555050565b600073ffffffffffffffffffffffffffffffffffffffff16600160008473ffffffffffffffffffffffffffffffffffffffff1673ffffffffffffffffffffffffffffffffffffffff168152602001908152602001600020600083815260200190815260200160002060050160009054906101000a900473ffffffffffffffffffffffffffffffffffffffff1673ffffffffffffffffffffffffffffffffffffffff161461241f576040517f08c379a0000000000000000000000000000000000000000000000000000000008152600401612416906146f7565b60405180910390fd5b6000600160008473ffffffffffffffffffffffffffffffffffffffff1673ffffffffffffffffffffffffffffffffffffffff168152602001908152602001600020600083815260200190815260200160002060020154116124b5576040517f08c379a00000000000000000000000000000000000000000000000000000000081526004016124ac90614789565b60405180910390fd5b6000600160008473ffffffffffffffffffffffffffffffffffffffff1673ffffffffffffffffffffffffffffffffffffffff1681526020019081526020016000206000838152602001908152602001600020600101541161254b576040517f08c379a00000000000000000000000000000000000000000000000000000000081526004016125429061481b565b60405180910390fd5b60008060029054906101000a900473ffffffffffffffffffffffffffffffffffffffff169050600061257d848461037c565b905060008273ffffffffffffffffffffffffffffffffffffffff1663dd62ed3e33306040518363ffffffff1660e01b81526004016125bc92919061483b565b602060405180830381865afa1580156125d9573d6000803e3d6000fd5b505050506040513d601f19601f820116820180604052508101906125fd9190614864565b905081811015612642576040517f08c379a000000000000000000000000000000000000000000000000000000000815260040161263990614903565b60405180910390fd5b600060029054906101000a900473ffffffffffffffffffffffffffffffffffffffff1673ffffffffffffffffffffffffffffffffffffffff166323b872dd3330856040518463ffffffff1660e01b81526004016126a193929190613dcf565b6020604051808303816000875af11580156126c0573d6000803e3d6000fd5b505050506040513d601f19601f820116820180604052508101906126e49190614211565b5060008573ffffffffffffffffffffffffffffffffffffffff163086604051602401612711929190614099565b6040516020818303038152906040527f095ea7b3000000000000000000000000000000000000000000000000000000007bffffffffffffffffffffffffffffffffffffffffffffffffffffffff19166020820180517bffffffffffffffffffffffffffffffffffffffffffffffffffffffff838183161783525050505060405161279b919061413c565b6000604051808303816000865af19150503d80600081146127d8576040519150601f19603f3d011682016040523d82523d6000602084013e6127dd565b606091505b505090508015612855578573ffffffffffffffffffffffffffffffffffffffff1663095ea7b330876040518363ffffffff1660e01b8152600401612822929190614099565b600060405180830381600087803b15801561283c57600080fd5b505af1158015612850573d6000803e3d6000fd5b505050505b8573ffffffffffffffffffffffffffffffffffffffff166323b872dd3033886040518463ffffffff1660e01b815260040161289293929190613dcf565b600060405180830381600087803b1580156128ac57600080fd5b505af11580156128c0573d6000803e3d6000fd5b5050505033600160008873ffffffffffffffffffffffffffffffffffffffff1673ffffffffffffffffffffffffffffffffffffffff168152602001908152602001600020600087815260200190815260200160002060050160006101000a81548173ffffffffffffffffffffffffffffffffffffffff021916908373ffffffffffffffffffffffffffffffffffffffff16021790555042600160008873ffffffffffffffffffffffffffffffffffffffff1673ffffffffffffffffffffffffffffffffffffffff1681526020019081526020016000206000878152602001908152602001600020600301819055506129b88686613717565b7fff57598c219d5cf768267ac0800789e8a5705c0651c6a1f2c5f0caa47d97121386866040516129e9929190614099565b60405180910390a1505050505050565b6001602052816000526040600020602052806000526040600020600091509150508060000154908060010154908060020154908060030154908060040160009054906101000a900473ffffffffffffffffffffffffffffffffffffffff16908060050160009054906101000a900473ffffffffffffffffffffffffffffffffffffffff16908060050160149054906101000a900460ff16908060060154908060070154905089565b60008211612ae4576040517f08c379a0000000000000000000000000000000000000000000000000000000008152600401612adb90614995565b60405180910390fd5b60008111612b27576040517f08c379a0000000000000000000000000000000000000000000000000000000008152600401612b1e90614a27565b60405180910390fd5b60008311612b6a576040517f08c379a0000000000000000000000000000000000000000000000000000000008152600401612b6190614ab9565b60405180910390fd5b600073ffffffffffffffffffffffffffffffffffffffff16600160008773ffffffffffffffffffffffffffffffffffffffff1673ffffffffffffffffffffffffffffffffffffffff168152602001908152602001600020600086815260200190815260200160002060050160009054906101000a900473ffffffffffffffffffffffffffffffffffffffff1673ffffffffffffffffffffffffffffffffffffffff1614612c4c576040517f08c379a0000000000000000000000000000000000000000000000000000000008152600401612c4390614b4b565b60405180910390fd5b60001515600160008773ffffffffffffffffffffffffffffffffffffffff1673ffffffffffffffffffffffffffffffffffffffff168152602001908152602001600020600086815260200190815260200160002060050160149054906101000a900460ff16151514612cf3576040517f08c379a0000000000000000000000000000000000000000000000000000000008152600401612cea90614bdd565b60405180910390fd5b600033905060003090508673ffffffffffffffffffffffffffffffffffffffff166323b872dd8383896040518463ffffffff1660e01b8152600401612d3a93929190613dcf565b600060405180830381600087803b158015612d5457600080fd5b505af1158015612d68573d6000803e3d6000fd5b50505050604051806101200160405280868152602001858152602001848152602001600081526020013373ffffffffffffffffffffffffffffffffffffffff168152602001600073ffffffffffffffffffffffffffffffffffffffff168152602001600015158152602001600081526020016000815250600160008973ffffffffffffffffffffffffffffffffffffffff1673ffffffffffffffffffffffffffffffffffffffff16815260200190815260200160002060008881526020019081526020016000206000820151816000015560208201518160010155604082015181600201556060820151816003015560808201518160040160006101000a81548173ffffffffffffffffffffffffffffffffffffffff021916908373ffffffffffffffffffffffffffffffffffffffff16021790555060a08201518160050160006101000a81548173ffffffffffffffffffffffffffffffffffffffff021916908373ffffffffffffffffffffffffffffffffffffffff16021790555060c08201518160050160146101000a81548160ff02191690831515021790555060e082015181600601556101008201518160070155905050600260405180606001604052808473ffffffffffffffffffffffffffffffffffffffff1681526020018973ffffffffffffffffffffffffffffffffffffffff16815260200188815250908060018154018082558091505060019003906000526020600020906003020160009091909190915060008201518160000160006101000a81548173ffffffffffffffffffffffffffffffffffffffff021916908373ffffffffffffffffffffffffffffffffffffffff16021790555060208201518160010160006101000a81548173ffffffffffffffffffffffffffffffffffffffff021916908373ffffffffffffffffffffffffffffffffffffffff1602179055506040820151816002015550507fff57598c219d5cf768267ac0800789e8a5705c0651c6a1f2c5f0caa47d971213878760405161305a929190614099565b60405180910390a150505050505050565b6002818154811061307b57600080fd5b90600052602060002090600302016000915090508060000160009054906101000a900473ffffffffffffffffffffffffffffffffffffffff16908060010160009054906101000a900473ffffffffffffffffffffffffffffffffffffffff16908060020154905083565b600060019054906101000a900460ff1661310d5760008054906101000a900460ff1615613116565b613115613ad6565b5b613155576040517f08c379a000000000000000000000000000000000000000000000000000000000815260040161314c90614c6f565b60405180910390fd5b60008060019054906101000a900460ff1615905080156131a5576001600060016101000a81548160ff02191690831515021790555060016000806101000a81548160ff0219169083151502179055505b81600060026101000a81548173ffffffffffffffffffffffffffffffffffffffff021916908373ffffffffffffffffffffffffffffffffffffffff16021790555080156132075760008060016101000a81548160ff0219169083151502179055505b5050565b600080834261321a919061431e565b90506000603c808361322c9190614c8f565b6132369190614c8f565b90508381119250505092915050565b600460205282600052604060002060205281600052604060002060205280600052604060002060009250925050508060000154908060010154908060020154908060030154908060040160009054906101000a900473ffffffffffffffffffffffffffffffffffffffff16908060050160009054906101000a900473ffffffffffffffffffffffffffffffffffffffff16908060050160149054906101000a900460ff16908060060154908060070154905089565b6000600280549050905060018111156136535760005b818110156135c15760006002828154811061332e5761332d614ce9565b5b90600052602060002090600302016040518060600160405290816000820160009054906101000a900473ffffffffffffffffffffffffffffffffffffffff1673ffffffffffffffffffffffffffffffffffffffff1673ffffffffffffffffffffffffffffffffffffffff1681526020016001820160009054906101000a900473ffffffffffffffffffffffffffffffffffffffff1673ffffffffffffffffffffffffffffffffffffffff1673ffffffffffffffffffffffffffffffffffffffff16815260200160028201548152505090503373ffffffffffffffffffffffffffffffffffffffff16816000015173ffffffffffffffffffffffffffffffffffffffff1614801561346d57508473ffffffffffffffffffffffffffffffffffffffff16816020015173ffffffffffffffffffffffffffffffffffffffff16145b801561347c5750838160400151145b156135ad576002600184613490919061431e565b815481106134a1576134a0614ce9565b5b9060005260206000209060030201600283815481106134c3576134c2614ce9565b5b90600052602060002090600302016000820160009054906101000a900473ffffffffffffffffffffffffffffffffffffffff168160000160006101000a81548173ffffffffffffffffffffffffffffffffffffffff021916908373ffffffffffffffffffffffffffffffffffffffff1602179055506001820160009054906101000a900473ffffffffffffffffffffffffffffffffffffffff168160010160006101000a81548173ffffffffffffffffffffffffffffffffffffffff021916908373ffffffffffffffffffffffffffffffffffffffff160217905550600282015481600201559050505b5080806135b990614d18565b915050613310565b50600260016002805490506135d6919061431e565b815481106135e7576135e6614ce9565b5b9060005260206000209060030201600080820160006101000a81549073ffffffffffffffffffffffffffffffffffffffff02191690556001820160006101000a81549073ffffffffffffffffffffffffffffffffffffffff0219169055600282016000905550506136d0565b600260008154811061366857613667614ce9565b5b9060005260206000209060030201600080820160006101000a81549073ffffffffffffffffffffffffffffffffffffffff02191690556001820160006101000a81549073ffffffffffffffffffffffffffffffffffffffff0219169055600282016000905550505b505050565b600081836136e39190614c8f565b905092915050565b600081836136f99190614d90565b905092915050565b6000818361370f919061431e565b905092915050565b600073ffffffffffffffffffffffffffffffffffffffff16600360009054906101000a900473ffffffffffffffffffffffffffffffffffffffff1673ffffffffffffffffffffffffffffffffffffffff1614613ad2576000603c4261377c9190613ec8565b90506000610e10600160008673ffffffffffffffffffffffffffffffffffffffff1673ffffffffffffffffffffffffffffffffffffffff1681526020019081526020016000206000858152602001908152602001600020600001546137e19190614c8f565b826137ec9190613ec8565b90506000600160008673ffffffffffffffffffffffffffffffffffffffff1673ffffffffffffffffffffffffffffffffffffffff168152602001908152602001600020600085815260200190815260200160002060020154905060008383613854919061431e565b9050600081836138649190614dc1565b8361386f919061431e565b9050600060029054906101000a900473ffffffffffffffffffffffffffffffffffffffff1673ffffffffffffffffffffffffffffffffffffffff1663095ea7b3600360009054906101000a900473ffffffffffffffffffffffffffffffffffffffff16836040518363ffffffff1660e01b81526004016138f0929190614099565b6020604051808303816000875af115801561390f573d6000803e3d6000fd5b505050506040513d601f19601f820116820180604052508101906139339190614211565b506000600360009054906101000a900473ffffffffffffffffffffffffffffffffffffffff1673ffffffffffffffffffffffffffffffffffffffff1663dc7d9369600160008b73ffffffffffffffffffffffffffffffffffffffff1673ffffffffffffffffffffffffffffffffffffffff16815260200190815260200160002060008a815260200190815260200160002060040160009054906101000a900473ffffffffffffffffffffffffffffffffffffffff1684600060029054906101000a900473ffffffffffffffffffffffffffffffffffffffff168a8a6040518663ffffffff1660e01b8152600401613a2e959493929190614df2565b6020604051808303816000875af1158015613a4d573d6000803e3d6000fd5b505050506040513d601f19601f82011682018060405250810190613a719190614864565b905080600160008a73ffffffffffffffffffffffffffffffffffffffff1673ffffffffffffffffffffffffffffffffffffffff1681526020019081526020016000206000898152602001908152602001600020600601819055505050505050505b5050565b6000613ae130613ae7565b15905090565b6000808273ffffffffffffffffffffffffffffffffffffffff163b119050919050565b600080fd5b600073ffffffffffffffffffffffffffffffffffffffff82169050919050565b6000613b3a82613b0f565b9050919050565b613b4a81613b2f565b8114613b5557600080fd5b50565b600081359050613b6781613b41565b92915050565b6000819050919050565b613b8081613b6d565b8114613b8b57600080fd5b50565b600081359050613b9d81613b77565b92915050565b60008060408385031215613bba57613bb9613b0a565b5b6000613bc885828601613b58565b9250506020613bd985828601613b8e565b9150509250929050565b613bec81613b6d565b82525050565b6000602082019050613c076000830184613be3565b92915050565b613c1681613b2f565b82525050565b6000602082019050613c316000830184613c0d565b92915050565b600060208284031215613c4d57613c4c613b0a565b5b6000613c5b84828501613b58565b91505092915050565b60008115159050919050565b613c7981613c64565b82525050565b6000602082019050613c946000830184613c70565b92915050565b600061012082019050613cb0600083018c613be3565b613cbd602083018b613be3565b613cca604083018a613be3565b613cd76060830189613be3565b613ce46080830188613c0d565b613cf160a0830187613c0d565b613cfe60c0830186613c70565b613d0b60e0830185613be3565b613d19610100830184613be3565b9a9950505050505050505050565b600080600080600060a08688031215613d4357613d42613b0a565b5b6000613d5188828901613b58565b9550506020613d6288828901613b8e565b9450506040613d7388828901613b8e565b9350506060613d8488828901613b8e565b9250506080613d9588828901613b8e565b9150509295509295909350565b600060208284031215613db857613db7613b0a565b5b6000613dc684828501613b8e565b91505092915050565b6000606082019050613de46000830186613c0d565b613df16020830185613c0d565b613dfe6040830184613be3565b949350505050565b60008060408385031215613e1d57613e1c613b0a565b5b6000613e2b85828601613b8e565b9250506020613e3c85828601613b8e565b9150509250929050565b600080600060608486031215613e5f57613e5e613b0a565b5b6000613e6d86828701613b58565b9350506020613e7e86828701613b8e565b9250506040613e8f86828701613b58565b9150509250925092565b7f4e487b7100000000000000000000000000000000000000000000000000000000600052601160045260246000fd5b6000613ed382613b6d565b9150613ede83613b6d565b9250827fffffffffffffffffffffffffffffffffffffffffffffffffffffffffffffffff03821115613f1357613f12613e99565b5b828201905092915050565b600082825260208201905092915050565b7f436c61696d3a2043616e6e6f7420636c61696d206e6f74206f776e6564206c6560008201527f6e64000000000000000000000000000000000000000000000000000000000000602082015250565b6000613f8b602283613f1e565b9150613f9682613f2f565b604082019050919050565b60006020820190508181036000830152613fba81613f7e565b9050919050565b7f4c656e64696e673a2043616e6e6f742063616e63656c206966206c656e740000600082015250565b6000613ff7601e83613f1e565b915061400282613fc1565b602082019050919050565b6000602082019050818103600083015261402681613fea565b9050919050565b7f4c656e64696e673a20436f6c6c61746572616c20636c61696d65640000000000600082015250565b6000614063601b83613f1e565b915061406e8261402d565b602082019050919050565b6000602082019050818103600083015261409281614056565b9050919050565b60006040820190506140ae6000830185613c0d565b6140bb6020830184613be3565b9392505050565b600081519050919050565b600081905092915050565b60005b838110156140f65780820151818401526020810190506140db565b83811115614105576000848401525b50505050565b6000614116826140c2565b61412081856140cd565b93506141308185602086016140d8565b80840191505092915050565b6000614148828461410b565b915081905092915050565b7f426f72726f77696e673a2043616e2062652073746f70706564206f6e6c79206260008201527f792061637469766520626f72726f776572000000000000000000000000000000602082015250565b60006141af603183613f1e565b91506141ba82614153565b604082019050919050565b600060208201905081810360008301526141de816141a2565b9050919050565b6141ee81613c64565b81146141f957600080fd5b50565b60008151905061420b816141e5565b92915050565b60006020828403121561422757614226613b0a565b5b6000614235848285016141fc565b91505092915050565b60008151905061424d81613b41565b92915050565b60008151905061426281613b77565b92915050565b600080600080600080600080610100898b03121561428957614288613b0a565b5b60006142978b828c0161423e565b98505060206142a88b828c0161423e565b97505060406142b98b828c01614253565b96505060606142ca8b828c0161423e565b95505060806142db8b828c01614253565b94505060a06142ec8b828c01614253565b93505060c06142fd8b828c01614253565b92505060e061430e8b828c01614253565b9150509295985092959890939650565b600061432982613b6d565b915061433483613b6d565b92508282101561434757614346613e99565b5b828203905092915050565b6000819050919050565b600061436782614352565b915061437283614352565b9250827f8000000000000000000000000000000000000000000000000000000000000000018212600084121516156143ad576143ac613e99565b5b827f7fffffffffffffffffffffffffffffffffffffffffffffffffffffffffffffff0182136000841216156143e5576143e4613e99565b5b828203905092915050565b7f4665657320636f6e7472616374206164647265737320616c726561647920736560008201527f7400000000000000000000000000000000000000000000000000000000000000602082015250565b600061444c602183613f1e565b9150614457826143f0565b604082019050919050565b6000602082019050818103600083015261447b8161443f565b9050919050565b60006020828403121561449857614497613b0a565b5b60006144a68482850161423e565b91505092915050565b7f436c61696d3a2043616e6e6f7420636c61696d2069662073746f707065640000600082015250565b60006144e5601e83613f1e565b91506144f0826144af565b602082019050919050565b60006020820190508181036000830152614514816144d8565b9050919050565b7f436c61696d3a2043616e6e6f7420636c61696d206265666f7265206c656e646960008201527f6e67206578706972656400000000000000000000000000000000000000000000602082015250565b6000614577602a83613f1e565b91506145828261451b565b604082019050919050565b600060208201905081810360008301526145a68161456a565b9050919050565b7f436c61696d3a20416c726561647920636c61696d656400000000000000000000600082015250565b60006145e3601683613f1e565b91506145ee826145ad565b602082019050919050565b60006020820190508181036000830152614612816145d6565b9050919050565b7f5361626c69657220636f6e7472616374206164647265737320616c726561647960008201527f2073657400000000000000000000000000000000000000000000000000000000602082015250565b6000614675602483613f1e565b915061468082614619565b604082019050919050565b600060208201905081810360008301526146a481614668565b9050919050565b7f426f72726f77696e673a20416c7265616479206c656e74000000000000000000600082015250565b60006146e1601783613f1e565b91506146ec826146ab565b602082019050919050565b60006020820190508181036000830152614710816146d4565b9050919050565b7f426f72726f77696e673a204c656e64657220646964206e6f742073657420656160008201527f726e696e6720676f616c20796574000000000000000000000000000000000000602082015250565b6000614773602e83613f1e565b915061477e82614717565b604082019050919050565b600060208201905081810360008301526147a281614766565b9050919050565b7f426f72726f77696e673a204c656e64657220646964206e6f742073657420696e60008201527f697469616c20776f727468207965740000000000000000000000000000000000602082015250565b6000614805602f83613f1e565b9150614810826147a9565b604082019050919050565b60006020820190508181036000830152614834816147f8565b9050919050565b60006040820190506148506000830185613c0d565b61485d6020830184613c0d565b9392505050565b60006020828403121561487a57614879613b0a565b5b600061488884828501614253565b91505092915050565b7f426f72726f77696e673a204e6f7420656e6f75676820636f6c6c61746572616c60008201527f2072656365697665640000000000000000000000000000000000000000000000602082015250565b60006148ed602983613f1e565b91506148f882614891565b604082019050919050565b6000602082019050818103600083015261491c816148e0565b9050919050565b7f4c656e64696e673a20496e697469616c20746f6b656e20776f727468206d757360008201527f742062652061626f766520300000000000000000000000000000000000000000602082015250565b600061497f602c83613f1e565b915061498a82614923565b604082019050919050565b600060208201905081810360008301526149ae81614972565b9050919050565b7f4c656e64696e673a204561726e696e6720676f616c206d75737420626520616260008201527f6f76652030000000000000000000000000000000000000000000000000000000602082015250565b6000614a11602583613f1e565b9150614a1c826149b5565b604082019050919050565b60006020820190508181036000830152614a4081614a04565b9050919050565b7f4c656e64696e673a204c656e64696e67206475726174696f6e206d757374206260008201527f652061626f766520300000000000000000000000000000000000000000000000602082015250565b6000614aa3602983613f1e565b9150614aae82614a47565b604082019050919050565b60006020820190508181036000830152614ad281614a96565b9050919050565b7f4c656e64696e673a2043616e6e6f74206368616e67652073657474696e67732c60008201527f20746f6b656e20616c7265616479206c656e7400000000000000000000000000602082015250565b6000614b35603383613f1e565b9150614b4082614ad9565b604082019050919050565b60006020820190508181036000830152614b6481614b28565b9050919050565b7f4c656e64696e673a20436f6c6c61746572616c20616c726561647920636c616960008201527f6d65640000000000000000000000000000000000000000000000000000000000602082015250565b6000614bc7602383613f1e565b9150614bd282614b6b565b604082019050919050565b60006020820190508181036000830152614bf681614bba565b9050919050565b7f496e697469616c697a61626c653a20636f6e747261637420697320616c72656160008201527f647920696e697469616c697a6564000000000000000000000000000000000000602082015250565b6000614c59602e83613f1e565b9150614c6482614bfd565b604082019050919050565b60006020820190508181036000830152614c8881614c4c565b9050919050565b6000614c9a82613b6d565b9150614ca583613b6d565b9250817fffffffffffffffffffffffffffffffffffffffffffffffffffffffffffffffff0483118215151615614cde57614cdd613e99565b5b828202905092915050565b7f4e487b7100000000000000000000000000000000000000000000000000000000600052603260045260246000fd5b6000614d2382613b6d565b91507fffffffffffffffffffffffffffffffffffffffffffffffffffffffffffffffff821415614d5657614d55613e99565b5b600182019050919050565b7f4e487b7100000000000000000000000000000000000000000000000000000000600052601260045260246000fd5b6000614d9b82613b6d565b9150614da683613b6d565b925082614db657614db5614d61565b5b828204905092915050565b6000614dcc82613b6d565b9150614dd783613b6d565b925082614de757614de6614d61565b5b828206905092915050565b600060a082019050614e076000830188613c0d565b614e146020830187613be3565b614e216040830186613c0d565b614e2e6060830185613be3565b614e3b6080830184613be3565b969550505050505056fea264697066735822122097691bdc7cedb0ffcb16c0a456fe2cd2628579bde08c45a63c0e42873944071b64736f6c634300080c0033",
  "immutableReferences": {},
  "source": "// SPDX-License-Identifier: MIT\r\npragma solidity ^0.8.0;\r\n\r\nimport \"@openzeppelin/contracts-upgradeable/proxy/utils/Initializable.sol\";\r\nimport \"@openzeppelin/contracts/token/ERC20/IERC20.sol\";\r\nimport \"@openzeppelin/contracts/token/ERC721/IERC721.sol\";\r\nimport \"@openzeppelin/contracts/utils/Address.sol\";\r\nimport \"@openzeppelin/contracts/utils/math/SafeMath.sol\";\r\n\r\ninterface Sablier  {\r\n  function createSalary(address recipient, uint256 deposit, address tokenAddress, uint256 startTime, uint256 stopTime) external returns(uint256) ;\r\n  function cancelSalary(uint256 salaryId) external returns (bool) ;\r\n  function getSalary(uint256 salaryId) external view returns (\r\n    address company,\r\n    address employee,\r\n    uint256 salary,\r\n    address tokenAddress,\r\n    uint256 startTime,\r\n    uint256 stopTime,\r\n    uint256 remainingBalance,\r\n    uint256 rate\r\n  );\r\n} \r\n\r\ncontract ERC721Lending is Initializable {\r\n  address public acceptedPayTokenAddress;\r\n\r\n  struct ERC721ForLend {\r\n    uint256 durationHours;\r\n    uint256 initialWorth;\r\n    uint256 earningGoal;\r\n    uint256 borrowedAtTimestamp;\r\n    address lender;\r\n    address borrower;\r\n    bool lenderClaimedCollateral;\r\n    uint256 sablierSalaryId;\r\n    uint256 platformFeesPercent;\r\n  }\r\n\r\n  // V1 mapping\r\n  mapping(address => mapping(uint256 => ERC721ForLend)) public lentERC721List;\r\n\r\n  struct ERC721TokenEntry {\r\n    address lenderAddress;\r\n    address tokenAddress;\r\n    uint256 tokenId;\r\n  }\r\n\r\n  ERC721TokenEntry[] public lendersWithTokens;\r\n\r\n  event ERC721ForLendUpdated(address tokenAddress, uint256 tokenId);\r\n  event ERC721ForLendRemoved(address tokenAddress, uint256 tokenId);\r\n\r\n  address public sablierContractAddress;\r\n\r\n  // V2, token address -> token id -> owner (lender) address -> lending details\r\n  mapping(address => mapping(uint256 => mapping(address => ERC721ForLend))) public lendingPool;\r\n\r\n  // Note: version helper for migrations\r\n  uint256 migrateVersion;\r\n\r\n  address public feesContractAddress;\r\n\r\n  event ERC721ForLendUpdatedV2(address lenderAddress, address tokenAddress, uint256 tokenId);\r\n  event ERC721ForLendRemovedV2(address lenderAddress, address tokenAddress, uint256 tokenId);\r\n\r\n  function initialize(address tokenAddress) public initializer {\r\n    acceptedPayTokenAddress = tokenAddress;\r\n  }\r\n\r\n  function setSablierContractAddress(address contractAddress) public {\r\n    require(sablierContractAddress == address(0), 'Sablier contract address already set');\r\n    sablierContractAddress = contractAddress;\r\n  }\r\n\r\n  function setFeesContractAddress(address contractAddress) public {\r\n    require(feesContractAddress == address(0), 'Fees contract address already set');\r\n    feesContractAddress = contractAddress;\r\n  }\r\n\r\n  function setLendSettings(address tokenAddress, uint256 tokenId, uint256 durationHours, uint256 initialWorth, uint256 earningGoal) public {\r\n    require(initialWorth > 0, 'Lending: Initial token worth must be above 0');\r\n    require(earningGoal > 0, 'Lending: Earning goal must be above 0');\r\n    require(durationHours > 0, 'Lending: Lending duration must be above 0');\r\n    require(lentERC721List[tokenAddress][tokenId].borrower == address(0), 'Lending: Cannot change settings, token already lent');\r\n    require(lentERC721List[tokenAddress][tokenId].lenderClaimedCollateral == false, 'Lending: Collateral already claimed');\r\n\r\n    // assuming token transfer is approved\r\n    address fromOwner = msg.sender;\r\n    address toAddress = address(this);\r\n    IERC721(tokenAddress).transferFrom(fromOwner, toAddress, tokenId);\r\n\r\n    lentERC721List[tokenAddress][tokenId] = ERC721ForLend(durationHours, initialWorth, earningGoal, 0, msg.sender, address(0), false, 0, 0);\r\n\r\n    lendersWithTokens.push(ERC721TokenEntry(fromOwner, tokenAddress, tokenId));\r\n\r\n    emit ERC721ForLendUpdated(tokenAddress, tokenId);\r\n  }\r\n\r\n  function startBorrowing(address tokenAddress, uint256 tokenId) public {\r\n    require(lentERC721List[tokenAddress][tokenId].borrower == address(0), 'Borrowing: Already lent');\r\n    require(lentERC721List[tokenAddress][tokenId].earningGoal > 0, 'Borrowing: Lender did not set earning goal yet');\r\n    require(lentERC721List[tokenAddress][tokenId].initialWorth > 0, 'Borrowing: Lender did not set initial worth yet');\r\n\r\n    IERC20 _payToken = IERC20(acceptedPayTokenAddress);\r\n    uint256 _requiredSum = calculateLendSum(tokenAddress, tokenId);\r\n    uint256 _allowedCollateral = _payToken.allowance(msg.sender, address(this));\r\n    require(_allowedCollateral >= _requiredSum, 'Borrowing: Not enough collateral received');\r\n\r\n    IERC20(acceptedPayTokenAddress).transferFrom(msg.sender, address(this), _requiredSum);\r\n\r\n    // check if needs approval as some tokens fail due this\r\n    (bool success,) = tokenAddress.call(abi.encodeWithSignature(\r\n        \"approve(address,uint256)\",\r\n        address(this),\r\n        tokenId\r\n      ));\r\n    if (success) {\r\n      IERC721(tokenAddress).approve(address(this), tokenId);\r\n    }\r\n    IERC721(tokenAddress).transferFrom(address(this), msg.sender, tokenId);\r\n\r\n    lentERC721List[tokenAddress][tokenId].borrower = msg.sender;\r\n    lentERC721List[tokenAddress][tokenId].borrowedAtTimestamp = block.timestamp;\r\n\r\n    // check if sablier address set and setup salary\r\n    createSalaryIfPossible(tokenAddress, tokenId);\r\n\r\n    emit ERC721ForLendUpdated(tokenAddress, tokenId);\r\n  }\r\n\r\n  function stopBorrowing(address tokenAddress, uint256 tokenId) public {\r\n    address _borrower = lentERC721List[tokenAddress][tokenId].borrower;\r\n    require(_borrower == msg.sender, 'Borrowing: Can be stopped only by active borrower');\r\n\r\n    if (lentERC721List[tokenAddress][tokenId].lenderClaimedCollateral == false) {\r\n      // assuming token transfer is approved\r\n      IERC721(tokenAddress).transferFrom(msg.sender, address(this), tokenId);\r\n\r\n      uint256 _initialWorth = lentERC721List[tokenAddress][tokenId].initialWorth;\r\n\r\n      IERC20(acceptedPayTokenAddress).transfer(_borrower, _initialWorth);\r\n\r\n      lentERC721List[tokenAddress][tokenId].borrower = address(0);\r\n      lentERC721List[tokenAddress][tokenId].borrowedAtTimestamp = 0;\r\n\r\n      address lenderAddress = lentERC721List[tokenAddress][tokenId].lender;\r\n\r\n      uint256 _sablierSalaryId = lentERC721List[tokenAddress][tokenId].sablierSalaryId;\r\n      if (_sablierSalaryId != 0) {\r\n        // get balance that is not streamed during period, it will be returned to borrower\r\n        (\r\n        ,\r\n        ,\r\n        uint256 _streamSalaryAmount,\r\n        ,\r\n        uint256 _streamStartTime,\r\n        uint256 _streamStopTime,\r\n        ,\r\n        uint256 _streamRatePerSecond\r\n        ) = Sablier(sablierContractAddress).getSalary(_sablierSalaryId);\r\n\r\n        int256 _balanceNotStreamed = 0;\r\n        if (block.timestamp < _streamStopTime) {\r\n          _balanceNotStreamed = int256(_streamSalaryAmount) - int256(SafeMath.mul(block.timestamp - _streamStartTime, _streamRatePerSecond));\r\n        }\r\n\r\n        // cancel salary to lender if sablier salary exists\r\n        Sablier(sablierContractAddress).cancelSalary(_sablierSalaryId);\r\n        lentERC721List[tokenAddress][tokenId].sablierSalaryId = 0;\r\n\r\n        // check if lending entry has fees\r\n        uint256 _platformFeeToCollect = 0;\r\n        uint256 _feesPercent = lentERC721List[tokenAddress][tokenId].platformFeesPercent;\r\n        if (_feesPercent > 0) {\r\n          _platformFeeToCollect = SafeMath.mul(SafeMath.div(_streamSalaryAmount, 100), _feesPercent);\r\n        }\r\n\r\n        if (_balanceNotStreamed > 0) {\r\n          // check if lending has fees\r\n          if (_platformFeeToCollect > 0) {\r\n            // lending did not go through full period, fees percent will be lower, lets refund to lender\r\n            uint256 _actualSalaryLenderReceives = SafeMath.sub(_streamSalaryAmount, uint256(_balanceNotStreamed));\r\n            uint256 _platformFeeToCollectUpdated = SafeMath.mul(SafeMath.div(_actualSalaryLenderReceives, 100), _feesPercent);\r\n            uint256 _platformFeeToRefund = SafeMath.sub(_platformFeeToCollect, _platformFeeToCollectUpdated);\r\n            _platformFeeToCollect =_platformFeeToCollectUpdated;\r\n            IERC20(acceptedPayTokenAddress).transfer(lenderAddress, uint256(_platformFeeToRefund));\r\n          }\r\n\r\n          // return unstreamed balance to borrower\r\n          IERC20(acceptedPayTokenAddress).transfer(_borrower, uint256(_balanceNotStreamed));\r\n        }\r\n\r\n        // check if fees collecting address set and lending has fees\r\n        if (feesContractAddress != address(0) && _platformFeeToCollect > 0) {\r\n          IERC20(acceptedPayTokenAddress).transfer(feesContractAddress, _platformFeeToCollect);\r\n        }\r\n      } else {\r\n        // legacy: send lender his interest\r\n        uint256 _earningGoal = lentERC721List[tokenAddress][tokenId].earningGoal;\r\n        IERC20(acceptedPayTokenAddress).transfer(lenderAddress, _earningGoal);\r\n      }\r\n    } else {\r\n      // lender claimed collateral, this is borrower's last call, let's reset everything\r\n      lentERC721List[tokenAddress][tokenId] = ERC721ForLend(0, 0, 0, 0, address(0), address(0), false, 0, 0); // reset details\r\n    }\r\n\r\n    emit ERC721ForLendUpdated(tokenAddress, tokenId);\r\n  }\r\n\r\n  function calculateLendSum(address tokenAddress, uint256 tokenId) public view returns(uint256) {\r\n    uint256 _earningGoal = lentERC721List[tokenAddress][tokenId].earningGoal;\r\n    uint256 _initialWorth = lentERC721List[tokenAddress][tokenId].initialWorth;\r\n    return _initialWorth + _earningGoal;\r\n  }\r\n\r\n  function isDurationExpired(uint256 borrowedAtTimestamp, uint256 durationHours) public view returns(bool) {\r\n    uint256 secondsPassed = block.timestamp - borrowedAtTimestamp;\r\n    uint256 hoursPassed = secondsPassed * 60 * 60;\r\n    return hoursPassed > durationHours;\r\n  }\r\n\r\n  function removeFromLendersWithTokens(address tokenAddress, uint256 tokenId) internal {\r\n    // reset lenders to sent token mapping, swap with last element to fill the gap\r\n    uint totalCount = lendersWithTokens.length;\r\n    if (totalCount > 1) {\r\n      for (uint i = 0; i<totalCount; i++) {\r\n        ERC721TokenEntry memory tokenEntry = lendersWithTokens[i];\r\n        if (tokenEntry.lenderAddress == msg.sender && tokenEntry.tokenAddress == tokenAddress && tokenEntry.tokenId == tokenId) {\r\n          lendersWithTokens[i] = lendersWithTokens[totalCount-1]; // insert last from array\r\n        }\r\n      }\r\n      //lendersWithTokens.length--;\r\n      delete lendersWithTokens[lendersWithTokens.length-1];\r\n      //<--- \r\n    } else {\r\n      delete lendersWithTokens[0];\r\n    }\r\n  }\r\n\r\n  function createSalaryIfPossible(address tokenAddress, uint256 tokenId) internal {\r\n    if (sablierContractAddress != address(0)) {\r\n      uint256 _salaryStartTime = block.timestamp + 60;\r\n      uint256 _salaryStopTime = _salaryStartTime + (lentERC721List[tokenAddress][tokenId].durationHours * 3600);\r\n      uint256 _actualSalaryAmount = lentERC721List[tokenAddress][tokenId].earningGoal;\r\n\r\n      // set platform fees percent for borrowed entry\r\n      // v1.1\r\n//      uint256 _feesPercent = 5;\r\n//      lentERC721List[tokenAddress][tokenId].platformFeesPercent = _feesPercent;\r\n\r\n      // reserve fees percent from salary\r\n//      uint256 _actualSalaryAmountAfterPlatformFees = SafeMath.sub(\r\n//        _actualSalaryAmount,\r\n//        SafeMath.mul(SafeMath.div(_actualSalaryAmount, 100), _feesPercent)\r\n//      );\r\n\r\n      // per Sablier docs  deposit amount must be divided by the time delta\r\n      // and then the remainder subtracted from the initial deposit number\r\n      uint256 _timeDelta = _salaryStopTime - _salaryStartTime;\r\n      uint256 _salaryAmount = _actualSalaryAmount - (_actualSalaryAmount % _timeDelta);\r\n\r\n      // approve amount for Sablier contract usage\r\n      IERC20(acceptedPayTokenAddress).approve(sablierContractAddress, _salaryAmount);\r\n\r\n      // the salary id is needed later to withdraw from or cancel the salary\r\n      uint256 _sablierSalaryId = Sablier(sablierContractAddress).createSalary(\r\n        lentERC721List[tokenAddress][tokenId].lender,\r\n        _salaryAmount,\r\n        acceptedPayTokenAddress,\r\n        _salaryStartTime,\r\n        _salaryStopTime\r\n      );\r\n\r\n      lentERC721List[tokenAddress][tokenId].sablierSalaryId = _sablierSalaryId;\r\n    }\r\n  }\r\n\r\n  function removeFromLending(address tokenAddress, uint256 tokenId) public {\r\n    require(lentERC721List[tokenAddress][tokenId].lender == msg.sender, 'Claim: Cannot claim not owned lend');\r\n\r\n    require(lentERC721List[tokenAddress][tokenId].borrower == address(0), 'Lending: Cannot cancel if lent');\r\n    require(lentERC721List[tokenAddress][tokenId].lenderClaimedCollateral == false, 'Lending: Collateral claimed');\r\n\r\n    // check if needs approval as some tokens fail due this\r\n    (bool success,) = tokenAddress.call(abi.encodeWithSignature(\r\n        \"approve(address,uint256)\",\r\n        address(this),\r\n        tokenId\r\n      ));\r\n    if (success) {\r\n      IERC721(tokenAddress).approve(address(this), tokenId);\r\n    }\r\n    IERC721(tokenAddress).transferFrom(address(this), msg.sender, tokenId);\r\n\r\n    lentERC721List[tokenAddress][tokenId] = ERC721ForLend(0, 0, 0, 0, address(0), address(0), false, 0, 0); // reset details\r\n\r\n    // reset lenders to sent token mapping, swap with last element to fill the gap\r\n    removeFromLendersWithTokens(tokenAddress, tokenId);\r\n\r\n    emit ERC721ForLendRemoved(tokenAddress, tokenId);\r\n  }\r\n\r\n  function claimBorrowerCollateral(address tokenAddress, uint256 tokenId) public {\r\n    require(lentERC721List[tokenAddress][tokenId].borrower != address(0), 'Claim: Cannot claim if stopped');\r\n    require(lentERC721List[tokenAddress][tokenId].lender == msg.sender, 'Claim: Cannot claim not owned lend');\r\n\r\n    uint256 _borrowedAtTimestamp = lentERC721List[tokenAddress][tokenId].borrowedAtTimestamp;\r\n    uint256 _durationHours = lentERC721List[tokenAddress][tokenId].durationHours;\r\n    require(isDurationExpired(_borrowedAtTimestamp, _durationHours), 'Claim: Cannot claim before lending expired');\r\n\r\n    require(lentERC721List[tokenAddress][tokenId].lenderClaimedCollateral == false, 'Claim: Already claimed');\r\n\r\n    lentERC721List[tokenAddress][tokenId].lenderClaimedCollateral = true;\r\n\r\n    uint256 _sablierSalaryId = lentERC721List[tokenAddress][tokenId].sablierSalaryId;\r\n    if (_sablierSalaryId != 0) {\r\n      // get salary amount to send to fees collector address\r\n      (,, uint256 _streamSalaryAmount,,,,,) = Sablier(sablierContractAddress).getSalary(_sablierSalaryId);\r\n\r\n      // if salary exists cancel salary and send only initial worth collateral amount\r\n      IERC20(acceptedPayTokenAddress).transfer(msg.sender, lentERC721List[tokenAddress][tokenId].initialWorth);\r\n      Sablier(sablierContractAddress).cancelSalary(_sablierSalaryId);\r\n      lentERC721List[tokenAddress][tokenId].sablierSalaryId = 0;\r\n\r\n      // check if lending entry has fees\r\n      uint256 _feesPercent = lentERC721List[tokenAddress][tokenId].platformFeesPercent;\r\n      if (feesContractAddress != address(0) && _feesPercent > 0) {\r\n        // send collected fees to collecting contract address\r\n        uint256 _platformFeeToCollect = SafeMath.mul(SafeMath.div(_streamSalaryAmount, 100), _feesPercent);\r\n        IERC20(acceptedPayTokenAddress).transfer(feesContractAddress, _platformFeeToCollect);\r\n      }\r\n    } else {\r\n      // legacy: send interest and collateral sum amount\r\n      uint256 _collateralSum = calculateLendSum(tokenAddress, tokenId);\r\n      IERC20(acceptedPayTokenAddress).transfer(msg.sender, _collateralSum);\r\n    }\r\n\r\n    // reset lenders to sent token mapping, swap with last element to fill the gap\r\n    removeFromLendersWithTokens(tokenAddress, tokenId);\r\n\r\n    emit ERC721ForLendUpdated(tokenAddress, tokenId);\r\n  }\r\n\r\n  function isValidNFT(address tokenAddress, uint256 tokenId) public view returns(bool) {\r\n    // no owner is most likely burnt NFT\r\n    return IERC721(tokenAddress).ownerOf(tokenId) != address(0);\r\n  }\r\n}\r\n",
  "sourcePath": "D:\\03.block-chain\\01.miquelTC__nft-marketplace\\test-proj\\nft-marketplace-master\\src\\contracts\\ERC721Lending.sol",
  "compiler": {
    "name": "solc",
    "version": "0.8.12+commit.f00d7308.Emscripten.clang"
  },
  "schemaVersion": "3.4.4",
  "updatedAt": "2022-02-24T07:02:06.928Z",
  "devdoc": {
    "kind": "dev",
    "methods": {},
    "version": 1
  },
  "userdoc": {
    "kind": "user",
    "methods": {},
    "version": 1
  }
}