{
  "contractName": "ERC721Wrapper",
  "abi": [
    {
      "inputs": [
        {
          "internalType": "string",
          "name": "_name",
          "type": "string"
        },
        {
          "internalType": "string",
          "name": "_symbol",
          "type": "string"
        },
        {
          "internalType": "contract IERC721",
          "name": "_target",
          "type": "address"
        }
      ],
      "stateMutability": "nonpayable",
      "type": "constructor"
    },
    {
      "anonymous": false,
      "inputs": [
        {
          "indexed": true,
          "internalType": "address",
          "name": "owner",
          "type": "address"
        },
        {
          "indexed": true,
          "internalType": "address",
          "name": "approved",
          "type": "address"
        },
        {
          "indexed": true,
          "internalType": "uint256",
          "name": "tokenId",
          "type": "uint256"
        }
      ],
      "name": "Approval",
      "type": "event"
    },
    {
      "anonymous": false,
      "inputs": [
        {
          "indexed": true,
          "internalType": "address",
          "name": "owner",
          "type": "address"
        },
        {
          "indexed": true,
          "internalType": "address",
          "name": "operator",
          "type": "address"
        },
        {
          "indexed": false,
          "internalType": "bool",
          "name": "approved",
          "type": "bool"
        }
      ],
      "name": "ApprovalForAll",
      "type": "event"
    },
    {
      "anonymous": false,
      "inputs": [
        {
          "indexed": true,
          "internalType": "address",
          "name": "previousOwner",
          "type": "address"
        },
        {
          "indexed": true,
          "internalType": "address",
          "name": "newOwner",
          "type": "address"
        }
      ],
      "name": "OwnershipTransferred",
      "type": "event"
    },
    {
      "anonymous": false,
      "inputs": [
        {
          "indexed": true,
          "internalType": "address",
          "name": "from",
          "type": "address"
        },
        {
          "indexed": true,
          "internalType": "address",
          "name": "to",
          "type": "address"
        },
        {
          "indexed": true,
          "internalType": "uint256",
          "name": "tokenId",
          "type": "uint256"
        }
      ],
      "name": "Transfer",
      "type": "event"
    },
    {
      "inputs": [
        {
          "internalType": "address",
          "name": "to",
          "type": "address"
        },
        {
          "internalType": "uint256",
          "name": "tokenId",
          "type": "uint256"
        }
      ],
      "name": "approve",
      "outputs": [],
      "stateMutability": "nonpayable",
      "type": "function"
    },
    {
      "inputs": [
        {
          "internalType": "address",
          "name": "owner",
          "type": "address"
        }
      ],
      "name": "balanceOf",
      "outputs": [
        {
          "internalType": "uint256",
          "name": "",
          "type": "uint256"
        }
      ],
      "stateMutability": "view",
      "type": "function"
    },
    {
      "inputs": [
        {
          "internalType": "uint256",
          "name": "tokenId",
          "type": "uint256"
        }
      ],
      "name": "getApproved",
      "outputs": [
        {
          "internalType": "address",
          "name": "",
          "type": "address"
        }
      ],
      "stateMutability": "view",
      "type": "function"
    },
    {
      "inputs": [
        {
          "internalType": "address",
          "name": "owner",
          "type": "address"
        },
        {
          "internalType": "address",
          "name": "operator",
          "type": "address"
        }
      ],
      "name": "isApprovedForAll",
      "outputs": [
        {
          "internalType": "bool",
          "name": "",
          "type": "bool"
        }
      ],
      "stateMutability": "view",
      "type": "function"
    },
    {
      "inputs": [],
      "name": "name",
      "outputs": [
        {
          "internalType": "string",
          "name": "",
          "type": "string"
        }
      ],
      "stateMutability": "view",
      "type": "function"
    },
    {
      "inputs": [],
      "name": "owner",
      "outputs": [
        {
          "internalType": "address",
          "name": "",
          "type": "address"
        }
      ],
      "stateMutability": "view",
      "type": "function"
    },
    {
      "inputs": [
        {
          "internalType": "uint256",
          "name": "tokenId",
          "type": "uint256"
        }
      ],
      "name": "ownerOf",
      "outputs": [
        {
          "internalType": "address",
          "name": "",
          "type": "address"
        }
      ],
      "stateMutability": "view",
      "type": "function"
    },
    {
      "inputs": [],
      "name": "renounceOwnership",
      "outputs": [],
      "stateMutability": "nonpayable",
      "type": "function"
    },
    {
      "inputs": [
        {
          "internalType": "address",
          "name": "from",
          "type": "address"
        },
        {
          "internalType": "address",
          "name": "to",
          "type": "address"
        },
        {
          "internalType": "uint256",
          "name": "tokenId",
          "type": "uint256"
        }
      ],
      "name": "safeTransferFrom",
      "outputs": [],
      "stateMutability": "nonpayable",
      "type": "function"
    },
    {
      "inputs": [
        {
          "internalType": "address",
          "name": "from",
          "type": "address"
        },
        {
          "internalType": "address",
          "name": "to",
          "type": "address"
        },
        {
          "internalType": "uint256",
          "name": "tokenId",
          "type": "uint256"
        },
        {
          "internalType": "bytes",
          "name": "_data",
          "type": "bytes"
        }
      ],
      "name": "safeTransferFrom",
      "outputs": [],
      "stateMutability": "nonpayable",
      "type": "function"
    },
    {
      "inputs": [
        {
          "internalType": "address",
          "name": "operator",
          "type": "address"
        },
        {
          "internalType": "bool",
          "name": "approved",
          "type": "bool"
        }
      ],
      "name": "setApprovalForAll",
      "outputs": [],
      "stateMutability": "nonpayable",
      "type": "function"
    },
    {
      "inputs": [
        {
          "internalType": "uint256",
          "name": "",
          "type": "uint256"
        }
      ],
      "name": "shares",
      "outputs": [
        {
          "internalType": "contract ERC721Shares",
          "name": "",
          "type": "address"
        }
      ],
      "stateMutability": "view",
      "type": "function"
    },
    {
      "inputs": [
        {
          "internalType": "bytes4",
          "name": "interfaceId",
          "type": "bytes4"
        }
      ],
      "name": "supportsInterface",
      "outputs": [
        {
          "internalType": "bool",
          "name": "",
          "type": "bool"
        }
      ],
      "stateMutability": "view",
      "type": "function"
    },
    {
      "inputs": [],
      "name": "symbol",
      "outputs": [
        {
          "internalType": "string",
          "name": "",
          "type": "string"
        }
      ],
      "stateMutability": "view",
      "type": "function"
    },
    {
      "inputs": [],
      "name": "target",
      "outputs": [
        {
          "internalType": "contract IERC721",
          "name": "",
          "type": "address"
        }
      ],
      "stateMutability": "view",
      "type": "function"
    },
    {
      "inputs": [
        {
          "internalType": "uint256",
          "name": "tokenId",
          "type": "uint256"
        }
      ],
      "name": "tokenURI",
      "outputs": [
        {
          "internalType": "string",
          "name": "",
          "type": "string"
        }
      ],
      "stateMutability": "view",
      "type": "function"
    },
    {
      "inputs": [
        {
          "internalType": "address",
          "name": "from",
          "type": "address"
        },
        {
          "internalType": "address",
          "name": "to",
          "type": "address"
        },
        {
          "internalType": "uint256",
          "name": "tokenId",
          "type": "uint256"
        }
      ],
      "name": "transferFrom",
      "outputs": [],
      "stateMutability": "nonpayable",
      "type": "function"
    },
    {
      "inputs": [
        {
          "internalType": "address",
          "name": "newOwner",
          "type": "address"
        }
      ],
      "name": "transferOwnership",
      "outputs": [],
      "stateMutability": "nonpayable",
      "type": "function"
    },
    {
      "inputs": [
        {
          "internalType": "uint256",
          "name": "_tokenId",
          "type": "uint256"
        }
      ],
      "name": "securitized",
      "outputs": [
        {
          "internalType": "bool",
          "name": "_securitized",
          "type": "bool"
        }
      ],
      "stateMutability": "view",
      "type": "function"
    },
    {
      "inputs": [],
      "name": "historyLength",
      "outputs": [
        {
          "internalType": "uint256",
          "name": "_length",
          "type": "uint256"
        }
      ],
      "stateMutability": "view",
      "type": "function"
    },
    {
      "inputs": [
        {
          "internalType": "uint256",
          "name": "_index",
          "type": "uint256"
        }
      ],
      "name": "historyAt",
      "outputs": [
        {
          "internalType": "contract ERC721Shares",
          "name": "_shares",
          "type": "address"
        }
      ],
      "stateMutability": "view",
      "type": "function"
    },
    {
      "inputs": [
        {
          "internalType": "address",
          "name": "_from",
          "type": "address"
        },
        {
          "internalType": "uint256",
          "name": "_tokenId",
          "type": "uint256"
        },
        {
          "internalType": "bool",
          "name": "_remnant",
          "type": "bool"
        },
        {
          "internalType": "contract ERC721Shares",
          "name": "_shares",
          "type": "address"
        }
      ],
      "name": "_insert",
      "outputs": [],
      "stateMutability": "nonpayable",
      "type": "function"
    },
    {
      "inputs": [
        {
          "internalType": "address",
          "name": "_from",
          "type": "address"
        },
        {
          "internalType": "uint256",
          "name": "_tokenId",
          "type": "uint256"
        },
        {
          "internalType": "bool",
          "name": "_remnant",
          "type": "bool"
        }
      ],
      "name": "_remove",
      "outputs": [],
      "stateMutability": "nonpayable",
      "type": "function"
    },
    {
      "inputs": [],
      "name": "_forget",
      "outputs": [],
      "stateMutability": "nonpayable",
      "type": "function"
    }
  ],
  "bytecode": "0x60a06040523480156200001157600080fd5b506040516200415f3803806200415f83398181016040528101906200003791906200045c565b8282620000596200004d620000ca60201b60201c565b620000d260201b60201c565b81600190805190602001906200007192919062000196565b5080600290805190602001906200008a92919062000196565b5050508073ffffffffffffffffffffffffffffffffffffffff1660808173ffffffffffffffffffffffffffffffffffffffff16815250505050506200055b565b600033905090565b60008060009054906101000a900473ffffffffffffffffffffffffffffffffffffffff169050816000806101000a81548173ffffffffffffffffffffffffffffffffffffffff021916908373ffffffffffffffffffffffffffffffffffffffff1602179055508173ffffffffffffffffffffffffffffffffffffffff168173ffffffffffffffffffffffffffffffffffffffff167f8be0079c531659141344cd1fd0a4f28419497f9722a3daafe3b4186f6b6457e060405160405180910390a35050565b828054620001a49062000525565b90600052602060002090601f016020900481019282620001c8576000855562000214565b82601f10620001e357805160ff191683800117855562000214565b8280016001018555821562000214579182015b8281111562000213578251825591602001919060010190620001f6565b5b50905062000223919062000227565b5090565b5b808211156200024257600081600090555060010162000228565b5090565b6000604051905090565b600080fd5b600080fd5b600080fd5b600080fd5b6000601f19601f8301169050919050565b7f4e487b7100000000000000000000000000000000000000000000000000000000600052604160045260246000fd5b620002af8262000264565b810181811067ffffffffffffffff82111715620002d157620002d062000275565b5b80604052505050565b6000620002e662000246565b9050620002f48282620002a4565b919050565b600067ffffffffffffffff82111562000317576200031662000275565b5b620003228262000264565b9050602081019050919050565b60005b838110156200034f57808201518184015260208101905062000332565b838111156200035f576000848401525b50505050565b60006200037c6200037684620002f9565b620002da565b9050828152602081018484840111156200039b576200039a6200025f565b5b620003a88482856200032f565b509392505050565b600082601f830112620003c857620003c76200025a565b5b8151620003da84826020860162000365565b91505092915050565b600073ffffffffffffffffffffffffffffffffffffffff82169050919050565b60006200041082620003e3565b9050919050565b6000620004248262000403565b9050919050565b620004368162000417565b81146200044257600080fd5b50565b60008151905062000456816200042b565b92915050565b60008060006060848603121562000478576200047762000250565b5b600084015167ffffffffffffffff81111562000499576200049862000255565b5b620004a786828701620003b0565b935050602084015167ffffffffffffffff811115620004cb57620004ca62000255565b5b620004d986828701620003b0565b9250506040620004ec8682870162000445565b9150509250925092565b7f4e487b7100000000000000000000000000000000000000000000000000000000600052602260045260246000fd5b600060028204905060018216806200053e57607f821691505b60208210811415620005555762000554620004f6565b5b50919050565b608051613be16200057e60003960008181610bb701526110760152613be16000f3fe608060405234801561001057600080fd5b50600436106101585760003560e01c80638739a92d116100c3578063d4b839921161007c578063d4b83992146103af578063d5e5afa6146103cd578063e985e9c5146103fd578063efaa06d31461042d578063f1279c8c1461045d578063f2fde38b1461047b57610158565b80638739a92d146103015780638da5cb5b1461030b57806395d89b4114610329578063a22cb46514610347578063b88d4fde14610363578063c87b56dd1461037f57610158565b806342842e0e1161011557806342842e0e1461022f57806357a858fc1461024b5780636352211e1461027b5780636b7ac257146102ab57806370a08231146102c7578063715018a6146102f757610158565b806301ffc9a71461015d57806306fdde031461018d578063081812fc146101ab578063095ea7b3146101db57806323b872dd146101f7578063290bfdc514610213575b600080fd5b610177600480360381019061017291906125f3565b610497565b604051610184919061263b565b60405180910390f35b610195610579565b6040516101a291906126ef565b60405180910390f35b6101c560048036038101906101c09190612747565b61060b565b6040516101d291906127b5565b60405180910390f35b6101f560048036038101906101f091906127fc565b610690565b005b610211600480360381019061020c919061283c565b6107a8565b005b61022d600480360381019061022891906128bb565b610808565b005b6102496004803603810190610244919061283c565b610934565b005b61026560048036038101906102609190612747565b610954565b604051610272919061296d565b60405180910390f35b61029560048036038101906102909190612747565b610987565b6040516102a291906127b5565b60405180910390f35b6102c560048036038101906102c091906129c6565b610a39565b005b6102e160048036038101906102dc9190612a2d565b610c86565b6040516102ee9190612a69565b60405180910390f35b6102ff610d3e565b005b610309610dc6565b005b610313610def565b60405161032091906127b5565b60405180910390f35b610331610e18565b60405161033e91906126ef565b60405180910390f35b610361600480360381019061035c9190612a84565b610eaa565b005b61037d60048036038101906103789190612bf9565b610ec0565b005b61039960048036038101906103949190612747565b610f22565b6040516103a691906126ef565b60405180910390f35b6103b7611074565b6040516103c49190612c9d565b60405180910390f35b6103e760048036038101906103e29190612747565b611098565b6040516103f4919061263b565b60405180910390f35b61041760048036038101906104129190612cb8565b611104565b604051610424919061263b565b60405180910390f35b61044760048036038101906104429190612747565b611198565b604051610454919061296d565b60405180910390f35b6104656111b5565b6040516104729190612a69565b60405180910390f35b61049560048036038101906104909190612a2d565b6111c6565b005b60007f80ac58cd000000000000000000000000000000000000000000000000000000007bffffffffffffffffffffffffffffffffffffffffffffffffffffffff1916827bffffffffffffffffffffffffffffffffffffffffffffffffffffffff1916148061056257507f5b5e139f000000000000000000000000000000000000000000000000000000007bffffffffffffffffffffffffffffffffffffffffffffffffffffffff1916827bffffffffffffffffffffffffffffffffffffffffffffffffffffffff1916145b806105725750610571826112be565b5b9050919050565b60606001805461058890612d27565b80601f01602080910402602001604051908101604052809291908181526020018280546105b490612d27565b80156106015780601f106105d657610100808354040283529160200191610601565b820191906000526020600020905b8154815290600101906020018083116105e457829003601f168201915b5050505050905090565b600061061682611328565b610655576040517f08c379a000000000000000000000000000000000000000000000000000000000815260040161064c90612dcb565b60405180910390fd5b6005600083815260200190815260200160002060009054906101000a900473ffffffffffffffffffffffffffffffffffffffff169050919050565b600061069b82610987565b90508073ffffffffffffffffffffffffffffffffffffffff168373ffffffffffffffffffffffffffffffffffffffff16141561070c576040517f08c379a000000000000000000000000000000000000000000000000000000000815260040161070390612e5d565b60405180910390fd5b8073ffffffffffffffffffffffffffffffffffffffff1661072b611394565b73ffffffffffffffffffffffffffffffffffffffff16148061075a575061075981610754611394565b611104565b5b610799576040517f08c379a000000000000000000000000000000000000000000000000000000000815260040161079090612eef565b60405180910390fd5b6107a3838361139c565b505050565b6107b96107b3611394565b82611455565b6107f8576040517f08c379a00000000000000000000000000000000000000000000000000000000081526004016107ef90612f81565b60405180910390fd5b610803838383611533565b505050565b60003390508073ffffffffffffffffffffffffffffffffffffffff166008600085815260200190815260200160002060009054906101000a900473ffffffffffffffffffffffffffffffffffffffff1673ffffffffffffffffffffffffffffffffffffffff161461087c5761087b612fa1565b5b60006008600085815260200190815260200160002060006101000a81548173ffffffffffffffffffffffffffffffffffffffff021916908373ffffffffffffffffffffffffffffffffffffffff1602179055506000826108dc57816108de565b845b90506108e984610987565b73ffffffffffffffffffffffffffffffffffffffff168173ffffffffffffffffffffffffffffffffffffffff161461092457610923612fa1565b5b61092d8461179a565b5050505050565b61094f83838360405180602001604052806000815250610ec0565b505050565b60086020528060005260406000206000915054906101000a900473ffffffffffffffffffffffffffffffffffffffff1681565b6000806003600084815260200190815260200160002060009054906101000a900473ffffffffffffffffffffffffffffffffffffffff169050600073ffffffffffffffffffffffffffffffffffffffff168173ffffffffffffffffffffffffffffffffffffffff161415610a30576040517f08c379a0000000000000000000000000000000000000000000000000000000008152600401610a2790613042565b60405180910390fd5b80915050919050565b610a41611394565b73ffffffffffffffffffffffffffffffffffffffff16610a5f610def565b73ffffffffffffffffffffffffffffffffffffffff1614610ab5576040517f08c379a0000000000000000000000000000000000000000000000000000000008152600401610aac906130ae565b60405180910390fd5b600073ffffffffffffffffffffffffffffffffffffffff166008600085815260200190815260200160002060009054906101000a900473ffffffffffffffffffffffffffffffffffffffff1673ffffffffffffffffffffffffffffffffffffffff1614610b2557610b24612fa1565b5b806008600085815260200190815260200160002060006101000a81548173ffffffffffffffffffffffffffffffffffffffff021916908373ffffffffffffffffffffffffffffffffffffffff160217905550610b8b8160096117ed90919063ffffffff16565b610b9857610b97612fa1565b5b600082610ba55781610ba7565b845b9050610bb3818561181d565b60007f0000000000000000000000000000000000000000000000000000000000000000905060008173ffffffffffffffffffffffffffffffffffffffff1673__SafeERC721Metadata____________________6335ce8e7f9091886040518363ffffffff1660e01b8152600401610c2b9291906130fe565b600060405180830381865af4158015610c48573d6000803e3d6000fd5b505050506040513d6000823e3d601f19601f82011682018060405250810190610c7191906131c8565b9050610c7d868261183b565b50505050505050565b60008073ffffffffffffffffffffffffffffffffffffffff168273ffffffffffffffffffffffffffffffffffffffff161415610cf7576040517f08c379a0000000000000000000000000000000000000000000000000000000008152600401610cee90613283565b60405180910390fd5b600460008373ffffffffffffffffffffffffffffffffffffffff1673ffffffffffffffffffffffffffffffffffffffff168152602001908152602001600020549050919050565b610d46611394565b73ffffffffffffffffffffffffffffffffffffffff16610d64610def565b73ffffffffffffffffffffffffffffffffffffffff1614610dba576040517f08c379a0000000000000000000000000000000000000000000000000000000008152600401610db1906130ae565b60405180910390fd5b610dc460006118af565b565b6000339050610ddf81600961197390919063ffffffff16565b610dec57610deb612fa1565b5b50565b60008060009054906101000a900473ffffffffffffffffffffffffffffffffffffffff16905090565b606060028054610e2790612d27565b80601f0160208091040260200160405190810160405280929190818152602001828054610e5390612d27565b8015610ea05780601f10610e7557610100808354040283529160200191610ea0565b820191906000526020600020905b815481529060010190602001808311610e8357829003601f168201915b5050505050905090565b610ebc610eb5611394565b83836119a3565b5050565b610ed1610ecb611394565b83611455565b610f10576040517f08c379a0000000000000000000000000000000000000000000000000000000008152600401610f0790612f81565b60405180910390fd5b610f1c84848484611b10565b50505050565b6060610f2d82611328565b610f6c576040517f08c379a0000000000000000000000000000000000000000000000000000000008152600401610f6390613315565b60405180910390fd5b6000600760008481526020019081526020016000208054610f8c90612d27565b80601f0160208091040260200160405190810160405280929190818152602001828054610fb890612d27565b80156110055780601f10610fda57610100808354040283529160200191611005565b820191906000526020600020905b815481529060010190602001808311610fe857829003601f168201915b505050505090506000611016611b6c565b905060008151141561102c57819250505061106f565b600082511115611061578082604051602001611049929190613371565b6040516020818303038152906040529250505061106f565b61106a84611b83565b925050505b919050565b7f000000000000000000000000000000000000000000000000000000000000000081565b60008073ffffffffffffffffffffffffffffffffffffffff166008600084815260200190815260200160002060009054906101000a900473ffffffffffffffffffffffffffffffffffffffff1673ffffffffffffffffffffffffffffffffffffffff1614159050919050565b6000600660008473ffffffffffffffffffffffffffffffffffffffff1673ffffffffffffffffffffffffffffffffffffffff16815260200190815260200160002060008373ffffffffffffffffffffffffffffffffffffffff1673ffffffffffffffffffffffffffffffffffffffff16815260200190815260200160002060009054906101000a900460ff16905092915050565b60006111ae826009611c2a90919063ffffffff16565b9050919050565b60006111c16009611c44565b905090565b6111ce611394565b73ffffffffffffffffffffffffffffffffffffffff166111ec610def565b73ffffffffffffffffffffffffffffffffffffffff1614611242576040517f08c379a0000000000000000000000000000000000000000000000000000000008152600401611239906130ae565b60405180910390fd5b600073ffffffffffffffffffffffffffffffffffffffff168173ffffffffffffffffffffffffffffffffffffffff1614156112b2576040517f08c379a00000000000000000000000000000000000000000000000000000000081526004016112a990613407565b60405180910390fd5b6112bb816118af565b50565b60007f01ffc9a7000000000000000000000000000000000000000000000000000000007bffffffffffffffffffffffffffffffffffffffffffffffffffffffff1916827bffffffffffffffffffffffffffffffffffffffffffffffffffffffff1916149050919050565b60008073ffffffffffffffffffffffffffffffffffffffff166003600084815260200190815260200160002060009054906101000a900473ffffffffffffffffffffffffffffffffffffffff1673ffffffffffffffffffffffffffffffffffffffff1614159050919050565b600033905090565b816005600083815260200190815260200160002060006101000a81548173ffffffffffffffffffffffffffffffffffffffff021916908373ffffffffffffffffffffffffffffffffffffffff160217905550808273ffffffffffffffffffffffffffffffffffffffff1661140f83610987565b73ffffffffffffffffffffffffffffffffffffffff167f8c5be1e5ebec7d5bd14f71427d1e84f3dd0314c0f7b2291e5b200ac8c7c3b92560405160405180910390a45050565b600061146082611328565b61149f576040517f08c379a000000000000000000000000000000000000000000000000000000000815260040161149690613499565b60405180910390fd5b60006114aa83610987565b90508073ffffffffffffffffffffffffffffffffffffffff168473ffffffffffffffffffffffffffffffffffffffff16148061151957508373ffffffffffffffffffffffffffffffffffffffff166115018461060b565b73ffffffffffffffffffffffffffffffffffffffff16145b8061152a57506115298185611104565b5b91505092915050565b8273ffffffffffffffffffffffffffffffffffffffff1661155382610987565b73ffffffffffffffffffffffffffffffffffffffff16146115a9576040517f08c379a00000000000000000000000000000000000000000000000000000000081526004016115a09061352b565b60405180910390fd5b600073ffffffffffffffffffffffffffffffffffffffff168273ffffffffffffffffffffffffffffffffffffffff161415611619576040517f08c379a0000000000000000000000000000000000000000000000000000000008152600401611610906135bd565b60405180910390fd5b611624838383611c59565b61162f60008261139c565b6001600460008573ffffffffffffffffffffffffffffffffffffffff1673ffffffffffffffffffffffffffffffffffffffff168152602001908152602001600020600082825461167f919061360c565b925050819055506001600460008473ffffffffffffffffffffffffffffffffffffffff1673ffffffffffffffffffffffffffffffffffffffff16815260200190815260200160002060008282546116d69190613640565b92505081905550816003600083815260200190815260200160002060006101000a81548173ffffffffffffffffffffffffffffffffffffffff021916908373ffffffffffffffffffffffffffffffffffffffff160217905550808273ffffffffffffffffffffffffffffffffffffffff168473ffffffffffffffffffffffffffffffffffffffff167fddf252ad1be2c89b69c2b068fc378daa952ba7f163c4a11628f55a4df523b3ef60405160405180910390a4611795838383611c5e565b505050565b6117a381611c63565b60006007600083815260200190815260200160002080546117c390612d27565b9050146117ea576007600082815260200190815260200160002060006117e991906124a4565b5b50565b6000611815836000018373ffffffffffffffffffffffffffffffffffffffff1660001b611d80565b905092915050565b611837828260405180602001604052806000815250611df0565b5050565b61184482611328565b611883576040517f08c379a000000000000000000000000000000000000000000000000000000000815260040161187a90613708565b60405180910390fd5b806007600084815260200190815260200160002090805190602001906118aa9291906124e4565b505050565b60008060009054906101000a900473ffffffffffffffffffffffffffffffffffffffff169050816000806101000a81548173ffffffffffffffffffffffffffffffffffffffff021916908373ffffffffffffffffffffffffffffffffffffffff1602179055508173ffffffffffffffffffffffffffffffffffffffff168173ffffffffffffffffffffffffffffffffffffffff167f8be0079c531659141344cd1fd0a4f28419497f9722a3daafe3b4186f6b6457e060405160405180910390a35050565b600061199b836000018373ffffffffffffffffffffffffffffffffffffffff1660001b611e4b565b905092915050565b8173ffffffffffffffffffffffffffffffffffffffff168373ffffffffffffffffffffffffffffffffffffffff161415611a12576040517f08c379a0000000000000000000000000000000000000000000000000000000008152600401611a0990613774565b60405180910390fd5b80600660008573ffffffffffffffffffffffffffffffffffffffff1673ffffffffffffffffffffffffffffffffffffffff16815260200190815260200160002060008473ffffffffffffffffffffffffffffffffffffffff1673ffffffffffffffffffffffffffffffffffffffff16815260200190815260200160002060006101000a81548160ff0219169083151502179055508173ffffffffffffffffffffffffffffffffffffffff168373ffffffffffffffffffffffffffffffffffffffff167f17307eab39ab6107e8899845ad3d59bd9653f200f220920489ca2b5937696c3183604051611b03919061263b565b60405180910390a3505050565b611b1b848484611533565b611b2784848484611f5f565b611b66576040517f08c379a0000000000000000000000000000000000000000000000000000000008152600401611b5d90613806565b60405180910390fd5b50505050565b606060405180602001604052806000815250905090565b6060611b8e82611328565b611bcd576040517f08c379a0000000000000000000000000000000000000000000000000000000008152600401611bc490613898565b60405180910390fd5b6000611bd7611b6c565b90506000815111611bf75760405180602001604052806000815250611c22565b80611c01846120e7565b604051602001611c12929190613371565b6040516020818303038152906040525b915050919050565b6000611c398360000183612248565b60001c905092915050565b6000611c5282600001612273565b9050919050565b505050565b505050565b6000611c6e82610987565b9050611c7c81600084611c59565b611c8760008361139c565b6001600460008373ffffffffffffffffffffffffffffffffffffffff1673ffffffffffffffffffffffffffffffffffffffff1681526020019081526020016000206000828254611cd7919061360c565b925050819055506003600083815260200190815260200160002060006101000a81549073ffffffffffffffffffffffffffffffffffffffff021916905581600073ffffffffffffffffffffffffffffffffffffffff168273ffffffffffffffffffffffffffffffffffffffff167fddf252ad1be2c89b69c2b068fc378daa952ba7f163c4a11628f55a4df523b3ef60405160405180910390a4611d7c81600084611c5e565b5050565b6000611d8c8383612284565b611de5578260000182908060018154018082558091505060019003906000526020600020016000909190919091505582600001805490508360010160008481526020019081526020016000208190555060019050611dea565b600090505b92915050565b611dfa83836122a7565b611e076000848484611f5f565b611e46576040517f08c379a0000000000000000000000000000000000000000000000000000000008152600401611e3d90613806565b60405180910390fd5b505050565b60008083600101600084815260200190815260200160002054905060008114611f53576000600182611e7d919061360c565b9050600060018660000180549050611e95919061360c565b9050818114611f04576000866000018281548110611eb657611eb56138b8565b5b9060005260206000200154905080876000018481548110611eda57611ed96138b8565b5b90600052602060002001819055508387600101600083815260200190815260200160002081905550505b85600001805480611f1857611f176138e7565b5b600190038181906000526020600020016000905590558560010160008681526020019081526020016000206000905560019350505050611f59565b60009150505b92915050565b6000611f808473ffffffffffffffffffffffffffffffffffffffff16612481565b156120da578373ffffffffffffffffffffffffffffffffffffffff1663150b7a02611fa9611394565b8786866040518563ffffffff1660e01b8152600401611fcb949392919061396b565b6020604051808303816000875af192505050801561200757506040513d601f19601f8201168201806040525081019061200491906139cc565b60015b61208a573d8060008114612037576040519150601f19603f3d011682016040523d82523d6000602084013e61203c565b606091505b50600081511415612082576040517f08c379a000000000000000000000000000000000000000000000000000000000815260040161207990613806565b60405180910390fd5b805181602001fd5b63150b7a0260e01b7bffffffffffffffffffffffffffffffffffffffffffffffffffffffff1916817bffffffffffffffffffffffffffffffffffffffffffffffffffffffff1916149150506120df565b600190505b949350505050565b6060600082141561212f576040518060400160405280600181526020017f30000000000000000000000000000000000000000000000000000000000000008152509050612243565b600082905060005b6000821461216157808061214a906139f9565b915050600a8261215a9190613a71565b9150612137565b60008167ffffffffffffffff81111561217d5761217c612ace565b5b6040519080825280601f01601f1916602001820160405280156121af5781602001600182028036833780820191505090505b5090505b6000851461223c576001826121c8919061360c565b9150600a856121d79190613aa2565b60306121e39190613640565b60f81b8183815181106121f9576121f86138b8565b5b60200101907effffffffffffffffffffffffffffffffffffffffffffffffffffffffffffff1916908160001a905350600a856122359190613a71565b94506121b3565b8093505050505b919050565b60008260000182815481106122605761225f6138b8565b5b9060005260206000200154905092915050565b600081600001805490509050919050565b600080836001016000848152602001908152602001600020541415905092915050565b600073ffffffffffffffffffffffffffffffffffffffff168273ffffffffffffffffffffffffffffffffffffffff161415612317576040517f08c379a000000000000000000000000000000000000000000000000000000000815260040161230e90613b1f565b60405180910390fd5b61232081611328565b15612360576040517f08c379a000000000000000000000000000000000000000000000000000000000815260040161235790613b8b565b60405180910390fd5b61236c60008383611c59565b6001600460008473ffffffffffffffffffffffffffffffffffffffff1673ffffffffffffffffffffffffffffffffffffffff16815260200190815260200160002060008282546123bc9190613640565b92505081905550816003600083815260200190815260200160002060006101000a81548173ffffffffffffffffffffffffffffffffffffffff021916908373ffffffffffffffffffffffffffffffffffffffff160217905550808273ffffffffffffffffffffffffffffffffffffffff16600073ffffffffffffffffffffffffffffffffffffffff167fddf252ad1be2c89b69c2b068fc378daa952ba7f163c4a11628f55a4df523b3ef60405160405180910390a461247d60008383611c5e565b5050565b6000808273ffffffffffffffffffffffffffffffffffffffff163b119050919050565b5080546124b090612d27565b6000825580601f106124c257506124e1565b601f0160209004906000526020600020908101906124e0919061256a565b5b50565b8280546124f090612d27565b90600052602060002090601f0160209004810192826125125760008555612559565b82601f1061252b57805160ff1916838001178555612559565b82800160010185558215612559579182015b8281111561255857825182559160200191906001019061253d565b5b509050612566919061256a565b5090565b5b8082111561258357600081600090555060010161256b565b5090565b6000604051905090565b600080fd5b600080fd5b60007fffffffff0000000000000000000000000000000000000000000000000000000082169050919050565b6125d08161259b565b81146125db57600080fd5b50565b6000813590506125ed816125c7565b92915050565b60006020828403121561260957612608612591565b5b6000612617848285016125de565b91505092915050565b60008115159050919050565b61263581612620565b82525050565b6000602082019050612650600083018461262c565b92915050565b600081519050919050565b600082825260208201905092915050565b60005b83811015612690578082015181840152602081019050612675565b8381111561269f576000848401525b50505050565b6000601f19601f8301169050919050565b60006126c182612656565b6126cb8185612661565b93506126db818560208601612672565b6126e4816126a5565b840191505092915050565b6000602082019050818103600083015261270981846126b6565b905092915050565b6000819050919050565b61272481612711565b811461272f57600080fd5b50565b6000813590506127418161271b565b92915050565b60006020828403121561275d5761275c612591565b5b600061276b84828501612732565b91505092915050565b600073ffffffffffffffffffffffffffffffffffffffff82169050919050565b600061279f82612774565b9050919050565b6127af81612794565b82525050565b60006020820190506127ca60008301846127a6565b92915050565b6127d981612794565b81146127e457600080fd5b50565b6000813590506127f6816127d0565b92915050565b6000806040838503121561281357612812612591565b5b6000612821858286016127e7565b925050602061283285828601612732565b9150509250929050565b60008060006060848603121561285557612854612591565b5b6000612863868287016127e7565b9350506020612874868287016127e7565b925050604061288586828701612732565b9150509250925092565b61289881612620565b81146128a357600080fd5b50565b6000813590506128b58161288f565b92915050565b6000806000606084860312156128d4576128d3612591565b5b60006128e2868287016127e7565b93505060206128f386828701612732565b9250506040612904868287016128a6565b9150509250925092565b6000819050919050565b600061293361292e61292984612774565b61290e565b612774565b9050919050565b600061294582612918565b9050919050565b60006129578261293a565b9050919050565b6129678161294c565b82525050565b6000602082019050612982600083018461295e565b92915050565b600061299382612794565b9050919050565b6129a381612988565b81146129ae57600080fd5b50565b6000813590506129c08161299a565b92915050565b600080600080608085870312156129e0576129df612591565b5b60006129ee878288016127e7565b94505060206129ff87828801612732565b9350506040612a10878288016128a6565b9250506060612a21878288016129b1565b91505092959194509250565b600060208284031215612a4357612a42612591565b5b6000612a51848285016127e7565b91505092915050565b612a6381612711565b82525050565b6000602082019050612a7e6000830184612a5a565b92915050565b60008060408385031215612a9b57612a9a612591565b5b6000612aa9858286016127e7565b9250506020612aba858286016128a6565b9150509250929050565b600080fd5b600080fd5b7f4e487b7100000000000000000000000000000000000000000000000000000000600052604160045260246000fd5b612b06826126a5565b810181811067ffffffffffffffff82111715612b2557612b24612ace565b5b80604052505050565b6000612b38612587565b9050612b448282612afd565b919050565b600067ffffffffffffffff821115612b6457612b63612ace565b5b612b6d826126a5565b9050602081019050919050565b82818337600083830152505050565b6000612b9c612b9784612b49565b612b2e565b905082815260208101848484011115612bb857612bb7612ac9565b5b612bc3848285612b7a565b509392505050565b600082601f830112612be057612bdf612ac4565b5b8135612bf0848260208601612b89565b91505092915050565b60008060008060808587031215612c1357612c12612591565b5b6000612c21878288016127e7565b9450506020612c32878288016127e7565b9350506040612c4387828801612732565b925050606085013567ffffffffffffffff811115612c6457612c63612596565b5b612c7087828801612bcb565b91505092959194509250565b6000612c878261293a565b9050919050565b612c9781612c7c565b82525050565b6000602082019050612cb26000830184612c8e565b92915050565b60008060408385031215612ccf57612cce612591565b5b6000612cdd858286016127e7565b9250506020612cee858286016127e7565b9150509250929050565b7f4e487b7100000000000000000000000000000000000000000000000000000000600052602260045260246000fd5b60006002820490506001821680612d3f57607f821691505b60208210811415612d5357612d52612cf8565b5b50919050565b7f4552433732313a20617070726f76656420717565727920666f72206e6f6e657860008201527f697374656e7420746f6b656e0000000000000000000000000000000000000000602082015250565b6000612db5602c83612661565b9150612dc082612d59565b604082019050919050565b60006020820190508181036000830152612de481612da8565b9050919050565b7f4552433732313a20617070726f76616c20746f2063757272656e74206f776e6560008201527f7200000000000000000000000000000000000000000000000000000000000000602082015250565b6000612e47602183612661565b9150612e5282612deb565b604082019050919050565b60006020820190508181036000830152612e7681612e3a565b9050919050565b7f4552433732313a20617070726f76652063616c6c6572206973206e6f74206f7760008201527f6e6572206e6f7220617070726f76656420666f7220616c6c0000000000000000602082015250565b6000612ed9603883612661565b9150612ee482612e7d565b604082019050919050565b60006020820190508181036000830152612f0881612ecc565b9050919050565b7f4552433732313a207472616e736665722063616c6c6572206973206e6f74206f60008201527f776e6572206e6f7220617070726f766564000000000000000000000000000000602082015250565b6000612f6b603183612661565b9150612f7682612f0f565b604082019050919050565b60006020820190508181036000830152612f9a81612f5e565b9050919050565b7f4e487b7100000000000000000000000000000000000000000000000000000000600052600160045260246000fd5b7f4552433732313a206f776e657220717565727920666f72206e6f6e657869737460008201527f656e7420746f6b656e0000000000000000000000000000000000000000000000602082015250565b600061302c602983612661565b915061303782612fd0565b604082019050919050565b6000602082019050818103600083015261305b8161301f565b9050919050565b7f4f776e61626c653a2063616c6c6572206973206e6f7420746865206f776e6572600082015250565b6000613098602083612661565b91506130a382613062565b602082019050919050565b600060208201905081810360008301526130c78161308b565b9050919050565b60006130d98261293a565b9050919050565b6130e9816130ce565b82525050565b6130f881612711565b82525050565b600060408201905061311360008301856130e0565b61312060208301846130ef565b9392505050565b600067ffffffffffffffff82111561314257613141612ace565b5b61314b826126a5565b9050602081019050919050565b600061316b61316684613127565b612b2e565b90508281526020810184848401111561318757613186612ac9565b5b613192848285612672565b509392505050565b600082601f8301126131af576131ae612ac4565b5b81516131bf848260208601613158565b91505092915050565b6000602082840312156131de576131dd612591565b5b600082015167ffffffffffffffff8111156131fc576131fb612596565b5b6132088482850161319a565b91505092915050565b7f4552433732313a2062616c616e636520717565727920666f7220746865207a6560008201527f726f206164647265737300000000000000000000000000000000000000000000602082015250565b600061326d602a83612661565b915061327882613211565b604082019050919050565b6000602082019050818103600083015261329c81613260565b9050919050565b7f45524337323155524953746f726167653a2055524920717565727920666f722060008201527f6e6f6e6578697374656e7420746f6b656e000000000000000000000000000000602082015250565b60006132ff603183612661565b915061330a826132a3565b604082019050919050565b6000602082019050818103600083015261332e816132f2565b9050919050565b600081905092915050565b600061334b82612656565b6133558185613335565b9350613365818560208601612672565b80840191505092915050565b600061337d8285613340565b91506133898284613340565b91508190509392505050565b7f4f776e61626c653a206e6577206f776e657220697320746865207a65726f206160008201527f6464726573730000000000000000000000000000000000000000000000000000602082015250565b60006133f1602683612661565b91506133fc82613395565b604082019050919050565b60006020820190508181036000830152613420816133e4565b9050919050565b7f4552433732313a206f70657261746f7220717565727920666f72206e6f6e657860008201527f697374656e7420746f6b656e0000000000000000000000000000000000000000602082015250565b6000613483602c83612661565b915061348e82613427565b604082019050919050565b600060208201905081810360008301526134b281613476565b9050919050565b7f4552433732313a207472616e736665722066726f6d20696e636f72726563742060008201527f6f776e6572000000000000000000000000000000000000000000000000000000602082015250565b6000613515602583612661565b9150613520826134b9565b604082019050919050565b6000602082019050818103600083015261354481613508565b9050919050565b7f4552433732313a207472616e7366657220746f20746865207a65726f2061646460008201527f7265737300000000000000000000000000000000000000000000000000000000602082015250565b60006135a7602483612661565b91506135b28261354b565b604082019050919050565b600060208201905081810360008301526135d68161359a565b9050919050565b7f4e487b7100000000000000000000000000000000000000000000000000000000600052601160045260246000fd5b600061361782612711565b915061362283612711565b925082821015613635576136346135dd565b5b828203905092915050565b600061364b82612711565b915061365683612711565b9250827fffffffffffffffffffffffffffffffffffffffffffffffffffffffffffffffff0382111561368b5761368a6135dd565b5b828201905092915050565b7f45524337323155524953746f726167653a2055524920736574206f66206e6f6e60008201527f6578697374656e7420746f6b656e000000000000000000000000000000000000602082015250565b60006136f2602e83612661565b91506136fd82613696565b604082019050919050565b60006020820190508181036000830152613721816136e5565b9050919050565b7f4552433732313a20617070726f766520746f2063616c6c657200000000000000600082015250565b600061375e601983612661565b915061376982613728565b602082019050919050565b6000602082019050818103600083015261378d81613751565b9050919050565b7f4552433732313a207472616e7366657220746f206e6f6e20455243373231526560008201527f63656976657220696d706c656d656e7465720000000000000000000000000000602082015250565b60006137f0603283612661565b91506137fb82613794565b604082019050919050565b6000602082019050818103600083015261381f816137e3565b9050919050565b7f4552433732314d657461646174613a2055524920717565727920666f72206e6f60008201527f6e6578697374656e7420746f6b656e0000000000000000000000000000000000602082015250565b6000613882602f83612661565b915061388d82613826565b604082019050919050565b600060208201905081810360008301526138b181613875565b9050919050565b7f4e487b7100000000000000000000000000000000000000000000000000000000600052603260045260246000fd5b7f4e487b7100000000000000000000000000000000000000000000000000000000600052603160045260246000fd5b600081519050919050565b600082825260208201905092915050565b600061393d82613916565b6139478185613921565b9350613957818560208601612672565b613960816126a5565b840191505092915050565b600060808201905061398060008301876127a6565b61398d60208301866127a6565b61399a6040830185612a5a565b81810360608301526139ac8184613932565b905095945050505050565b6000815190506139c6816125c7565b92915050565b6000602082840312156139e2576139e1612591565b5b60006139f0848285016139b7565b91505092915050565b6000613a0482612711565b91507fffffffffffffffffffffffffffffffffffffffffffffffffffffffffffffffff821415613a3757613a366135dd565b5b600182019050919050565b7f4e487b7100000000000000000000000000000000000000000000000000000000600052601260045260246000fd5b6000613a7c82612711565b9150613a8783612711565b925082613a9757613a96613a42565b5b828204905092915050565b6000613aad82612711565b9150613ab883612711565b925082613ac857613ac7613a42565b5b828206905092915050565b7f4552433732313a206d696e7420746f20746865207a65726f2061646472657373600082015250565b6000613b09602083612661565b9150613b1482613ad3565b602082019050919050565b60006020820190508181036000830152613b3881613afc565b9050919050565b7f4552433732313a20746f6b656e20616c7265616479206d696e74656400000000600082015250565b6000613b75601c83612661565b9150613b8082613b3f565b602082019050919050565b60006020820190508181036000830152613ba481613b68565b905091905056fea264697066735822122086e818131489db07e5e4d6924b18ab508e9b025877f8aaceae96c8db3e33fbc664736f6c634300080c0033",
  "immutableReferences": {
    "5238": [
      {
        "length": 32,
        "start": 2999
      },
      {
        "length": 32,
        "start": 4214
      }
    ]
  },
  "source": "// Wrapper / ERC721Wrapper\r\n// SPDX-License-Identifier: GPL-3.0-only\r\npragma solidity ^0.8.0;\r\n\r\nimport { Ownable } from \"@openzeppelin/contracts/access/Ownable.sol\";\r\nimport { ERC721 } from \"@openzeppelin/contracts/token/ERC721/ERC721.sol\";\r\nimport { IERC721 } from \"@openzeppelin/contracts/token/ERC721/IERC721.sol\";\r\nimport { IERC721Metadata } from \"@openzeppelin/contracts/token/ERC721/extensions/IERC721Metadata.sol\";\r\nimport { EnumerableSet } from \"@openzeppelin/contracts/utils/structs/EnumerableSet.sol\";\r\n\r\nimport { SafeERC721Metadata } from \"./SafeERC721Metadata.sol\";\r\nimport { ERC721Shares } from \"./Shares.sol\";\r\n\r\nimport \"@openzeppelin/contracts/token/ERC721/extensions/ERC721URIStorage.sol\";\r\n\r\nlibrary Wrapper\r\n{\r\n\tusing SafeERC721Metadata for IERC721Metadata;\r\n\r\n\tfunction create(IERC721 _target) public returns (ERC721Wrapper _wrapper)\r\n\t{\r\n\t\tIERC721Metadata _metadata = IERC721Metadata(address(_target));\r\n\t\tstring memory _name = string(abi.encodePacked(\"Wrapped \", _metadata.safeName()));\r\n\t\tstring memory _symbol = string(abi.encodePacked(\"w\", _metadata.safeSymbol()));\r\n\t\treturn new ERC721Wrapper(_name, _symbol, _target);\r\n\t}\r\n}\r\n\r\ncontract ERC721Wrapper is Ownable, ERC721URIStorage\t\t// from ERC721 (0.6.0 ~ 0.8.x)\r\n{\r\n\tusing SafeERC721Metadata for IERC721Metadata;\r\n\tusing EnumerableSet for EnumerableSet.AddressSet;\r\n\r\n\tIERC721 public immutable target;\r\n\tmapping (uint256 => ERC721Shares) public shares;\r\n\tEnumerableSet.AddressSet private history;\r\n\r\n\tconstructor (string memory _name, string memory _symbol, IERC721 _target) ERC721(_name, _symbol) public\r\n\t{\r\n\t\ttarget = _target;\r\n\t}\r\n\r\n\tfunction securitized(uint256 _tokenId) external view returns (bool _securitized)\r\n\t{\r\n\t\t//return shares[_tokenId] != ERC721Shares(0);\r\n\t\treturn shares[_tokenId] != ERC721Shares( address(0) );\r\n\t\t//<---\r\n\t}\r\n\r\n\tfunction historyLength() external view returns (uint256 _length)\r\n\t{\r\n\t\treturn history.length();\r\n\t}\r\n\r\n\tfunction historyAt(uint256 _index) external view returns (ERC721Shares _shares)\r\n\t{\r\n\t\treturn ERC721Shares(history.at(_index));\r\n\t}\r\n\r\n\tfunction _insert(address _from, uint256 _tokenId, bool _remnant, ERC721Shares _shares) external onlyOwner\r\n\t{\r\n\t\t//assert(shares[_tokenId] == ERC721Shares(0));\r\n\t\tassert(shares[_tokenId] == ERC721Shares(address(0)));\r\n\t\t//<---\r\n\r\n\t\tshares[_tokenId] = _shares;\r\n\t\tassert(history.add(address(_shares)));\r\n\t\taddress _holder = _remnant ? _from : address(_shares);\r\n\t\t_safeMint(_holder, _tokenId);\r\n\t\tIERC721Metadata _metadata = IERC721Metadata(address(target));\r\n\t\tstring memory _tokenURI = _metadata.safeTokenURI(_tokenId);\r\n\t\t_setTokenURI(_tokenId, _tokenURI);\r\n\t}\r\n\r\n\tfunction _remove(address _from, uint256 _tokenId, bool _remnant) external\r\n\t{\r\n\t\tERC721Shares _shares = ERC721Shares(msg.sender);\r\n\t\tassert(shares[_tokenId] == _shares);\r\n\t\t//shares[_tokenId] = ERC721Shares(0);\r\n\t\tshares[_tokenId] = ERC721Shares(address(0));\r\n\t\t//<--- \r\n\t\taddress _holder = _remnant ? _from : address(_shares);\r\n\t\tassert(_holder == ownerOf(_tokenId));\r\n\t\t_burn(_tokenId);\r\n\t}\r\n\r\n\tfunction _forget() external\r\n\t{\r\n\t\tERC721Shares _shares = ERC721Shares(msg.sender);\r\n\t\tassert(history.remove(address(_shares)));\r\n\t}\r\n}\r\n",
  "sourcePath": "D:\\03.block-chain\\01.miquelTC__nft-marketplace\\test-proj\\nft-marketplace-master\\src\\contracts\\Loan NFTfi\\v1.0\\Wrapper.sol",
  "compiler": {
    "name": "solc",
    "version": "0.8.12+commit.f00d7308.Emscripten.clang"
  },
  "schemaVersion": "3.4.4",
  "updatedAt": "2022-02-22T12:12:47.027Z",
  "devdoc": {
    "kind": "dev",
    "methods": {
      "approve(address,uint256)": {
        "details": "See {IERC721-approve}."
      },
      "balanceOf(address)": {
        "details": "See {IERC721-balanceOf}."
      },
      "getApproved(uint256)": {
        "details": "See {IERC721-getApproved}."
      },
      "isApprovedForAll(address,address)": {
        "details": "See {IERC721-isApprovedForAll}."
      },
      "name()": {
        "details": "See {IERC721Metadata-name}."
      },
      "owner()": {
        "details": "Returns the address of the current owner."
      },
      "ownerOf(uint256)": {
        "details": "See {IERC721-ownerOf}."
      },
      "renounceOwnership()": {
        "details": "Leaves the contract without owner. It will not be possible to call `onlyOwner` functions anymore. Can only be called by the current owner. NOTE: Renouncing ownership will leave the contract without an owner, thereby removing any functionality that is only available to the owner."
      },
      "safeTransferFrom(address,address,uint256)": {
        "details": "See {IERC721-safeTransferFrom}."
      },
      "safeTransferFrom(address,address,uint256,bytes)": {
        "details": "See {IERC721-safeTransferFrom}."
      },
      "setApprovalForAll(address,bool)": {
        "details": "See {IERC721-setApprovalForAll}."
      },
      "supportsInterface(bytes4)": {
        "details": "See {IERC165-supportsInterface}."
      },
      "symbol()": {
        "details": "See {IERC721Metadata-symbol}."
      },
      "tokenURI(uint256)": {
        "details": "See {IERC721Metadata-tokenURI}."
      },
      "transferFrom(address,address,uint256)": {
        "details": "See {IERC721-transferFrom}."
      },
      "transferOwnership(address)": {
        "details": "Transfers ownership of the contract to a new account (`newOwner`). Can only be called by the current owner."
      }
    },
    "version": 1
  },
  "userdoc": {
    "kind": "user",
    "methods": {},
    "version": 1
  }
}