{
  "contractName": "ERC721URIStorageMock",
  "abi": [
    {
      "inputs": [
        {
          "internalType": "string",
          "name": "name",
          "type": "string"
        },
        {
          "internalType": "string",
          "name": "symbol",
          "type": "string"
        }
      ],
      "stateMutability": "nonpayable",
      "type": "constructor"
    },
    {
      "anonymous": false,
      "inputs": [
        {
          "indexed": true,
          "internalType": "address",
          "name": "owner",
          "type": "address"
        },
        {
          "indexed": true,
          "internalType": "address",
          "name": "approved",
          "type": "address"
        },
        {
          "indexed": true,
          "internalType": "uint256",
          "name": "tokenId",
          "type": "uint256"
        }
      ],
      "name": "Approval",
      "type": "event"
    },
    {
      "anonymous": false,
      "inputs": [
        {
          "indexed": true,
          "internalType": "address",
          "name": "owner",
          "type": "address"
        },
        {
          "indexed": true,
          "internalType": "address",
          "name": "operator",
          "type": "address"
        },
        {
          "indexed": false,
          "internalType": "bool",
          "name": "approved",
          "type": "bool"
        }
      ],
      "name": "ApprovalForAll",
      "type": "event"
    },
    {
      "anonymous": false,
      "inputs": [
        {
          "indexed": true,
          "internalType": "address",
          "name": "from",
          "type": "address"
        },
        {
          "indexed": true,
          "internalType": "address",
          "name": "to",
          "type": "address"
        },
        {
          "indexed": true,
          "internalType": "uint256",
          "name": "tokenId",
          "type": "uint256"
        }
      ],
      "name": "Transfer",
      "type": "event"
    },
    {
      "inputs": [
        {
          "internalType": "address",
          "name": "to",
          "type": "address"
        },
        {
          "internalType": "uint256",
          "name": "tokenId",
          "type": "uint256"
        }
      ],
      "name": "approve",
      "outputs": [],
      "stateMutability": "nonpayable",
      "type": "function"
    },
    {
      "inputs": [
        {
          "internalType": "address",
          "name": "owner",
          "type": "address"
        }
      ],
      "name": "balanceOf",
      "outputs": [
        {
          "internalType": "uint256",
          "name": "",
          "type": "uint256"
        }
      ],
      "stateMutability": "view",
      "type": "function"
    },
    {
      "inputs": [
        {
          "internalType": "uint256",
          "name": "tokenId",
          "type": "uint256"
        }
      ],
      "name": "getApproved",
      "outputs": [
        {
          "internalType": "address",
          "name": "",
          "type": "address"
        }
      ],
      "stateMutability": "view",
      "type": "function"
    },
    {
      "inputs": [
        {
          "internalType": "address",
          "name": "owner",
          "type": "address"
        },
        {
          "internalType": "address",
          "name": "operator",
          "type": "address"
        }
      ],
      "name": "isApprovedForAll",
      "outputs": [
        {
          "internalType": "bool",
          "name": "",
          "type": "bool"
        }
      ],
      "stateMutability": "view",
      "type": "function"
    },
    {
      "inputs": [],
      "name": "name",
      "outputs": [
        {
          "internalType": "string",
          "name": "",
          "type": "string"
        }
      ],
      "stateMutability": "view",
      "type": "function"
    },
    {
      "inputs": [
        {
          "internalType": "uint256",
          "name": "tokenId",
          "type": "uint256"
        }
      ],
      "name": "ownerOf",
      "outputs": [
        {
          "internalType": "address",
          "name": "",
          "type": "address"
        }
      ],
      "stateMutability": "view",
      "type": "function"
    },
    {
      "inputs": [
        {
          "internalType": "address",
          "name": "from",
          "type": "address"
        },
        {
          "internalType": "address",
          "name": "to",
          "type": "address"
        },
        {
          "internalType": "uint256",
          "name": "tokenId",
          "type": "uint256"
        }
      ],
      "name": "safeTransferFrom",
      "outputs": [],
      "stateMutability": "nonpayable",
      "type": "function"
    },
    {
      "inputs": [
        {
          "internalType": "address",
          "name": "from",
          "type": "address"
        },
        {
          "internalType": "address",
          "name": "to",
          "type": "address"
        },
        {
          "internalType": "uint256",
          "name": "tokenId",
          "type": "uint256"
        },
        {
          "internalType": "bytes",
          "name": "_data",
          "type": "bytes"
        }
      ],
      "name": "safeTransferFrom",
      "outputs": [],
      "stateMutability": "nonpayable",
      "type": "function"
    },
    {
      "inputs": [
        {
          "internalType": "address",
          "name": "operator",
          "type": "address"
        },
        {
          "internalType": "bool",
          "name": "approved",
          "type": "bool"
        }
      ],
      "name": "setApprovalForAll",
      "outputs": [],
      "stateMutability": "nonpayable",
      "type": "function"
    },
    {
      "inputs": [
        {
          "internalType": "bytes4",
          "name": "interfaceId",
          "type": "bytes4"
        }
      ],
      "name": "supportsInterface",
      "outputs": [
        {
          "internalType": "bool",
          "name": "",
          "type": "bool"
        }
      ],
      "stateMutability": "view",
      "type": "function"
    },
    {
      "inputs": [],
      "name": "symbol",
      "outputs": [
        {
          "internalType": "string",
          "name": "",
          "type": "string"
        }
      ],
      "stateMutability": "view",
      "type": "function"
    },
    {
      "inputs": [
        {
          "internalType": "uint256",
          "name": "tokenId",
          "type": "uint256"
        }
      ],
      "name": "tokenURI",
      "outputs": [
        {
          "internalType": "string",
          "name": "",
          "type": "string"
        }
      ],
      "stateMutability": "view",
      "type": "function"
    },
    {
      "inputs": [
        {
          "internalType": "address",
          "name": "from",
          "type": "address"
        },
        {
          "internalType": "address",
          "name": "to",
          "type": "address"
        },
        {
          "internalType": "uint256",
          "name": "tokenId",
          "type": "uint256"
        }
      ],
      "name": "transferFrom",
      "outputs": [],
      "stateMutability": "nonpayable",
      "type": "function"
    },
    {
      "inputs": [
        {
          "internalType": "string",
          "name": "newBaseTokenURI",
          "type": "string"
        }
      ],
      "name": "setBaseURI",
      "outputs": [],
      "stateMutability": "nonpayable",
      "type": "function"
    },
    {
      "inputs": [],
      "name": "baseURI",
      "outputs": [
        {
          "internalType": "string",
          "name": "",
          "type": "string"
        }
      ],
      "stateMutability": "view",
      "type": "function"
    },
    {
      "inputs": [
        {
          "internalType": "uint256",
          "name": "tokenId",
          "type": "uint256"
        },
        {
          "internalType": "string",
          "name": "_tokenURI",
          "type": "string"
        }
      ],
      "name": "setTokenURI",
      "outputs": [],
      "stateMutability": "nonpayable",
      "type": "function"
    },
    {
      "inputs": [
        {
          "internalType": "uint256",
          "name": "tokenId",
          "type": "uint256"
        }
      ],
      "name": "exists",
      "outputs": [
        {
          "internalType": "bool",
          "name": "",
          "type": "bool"
        }
      ],
      "stateMutability": "view",
      "type": "function"
    },
    {
      "inputs": [
        {
          "internalType": "address",
          "name": "to",
          "type": "address"
        },
        {
          "internalType": "uint256",
          "name": "tokenId",
          "type": "uint256"
        }
      ],
      "name": "mint",
      "outputs": [],
      "stateMutability": "nonpayable",
      "type": "function"
    },
    {
      "inputs": [
        {
          "internalType": "address",
          "name": "to",
          "type": "address"
        },
        {
          "internalType": "uint256",
          "name": "tokenId",
          "type": "uint256"
        },
        {
          "internalType": "bytes",
          "name": "_data",
          "type": "bytes"
        }
      ],
      "name": "safeMint",
      "outputs": [],
      "stateMutability": "nonpayable",
      "type": "function"
    },
    {
      "inputs": [
        {
          "internalType": "address",
          "name": "to",
          "type": "address"
        },
        {
          "internalType": "uint256",
          "name": "tokenId",
          "type": "uint256"
        }
      ],
      "name": "safeMint",
      "outputs": [],
      "stateMutability": "nonpayable",
      "type": "function"
    },
    {
      "inputs": [
        {
          "internalType": "uint256",
          "name": "tokenId",
          "type": "uint256"
        }
      ],
      "name": "burn",
      "outputs": [],
      "stateMutability": "nonpayable",
      "type": "function"
    }
  ],
  "bytecode": "0x60806040523480156200001157600080fd5b50604051620034f8380380620034f88339818101604052810190620000379190620002c2565b818181600090805190602001906200005192919062000075565b5080600190805190602001906200006a92919062000075565b5050505050620003ac565b828054620000839062000376565b90600052602060002090601f016020900481019282620000a75760008555620000f3565b82601f10620000c257805160ff1916838001178555620000f3565b82800160010185558215620000f3579182015b82811115620000f2578251825591602001919060010190620000d5565b5b50905062000102919062000106565b5090565b5b808211156200012157600081600090555060010162000107565b5090565b6000604051905090565b600080fd5b600080fd5b600080fd5b600080fd5b6000601f19601f8301169050919050565b7f4e487b7100000000000000000000000000000000000000000000000000000000600052604160045260246000fd5b6200018e8262000143565b810181811067ffffffffffffffff82111715620001b057620001af62000154565b5b80604052505050565b6000620001c562000125565b9050620001d3828262000183565b919050565b600067ffffffffffffffff821115620001f657620001f562000154565b5b620002018262000143565b9050602081019050919050565b60005b838110156200022e57808201518184015260208101905062000211565b838111156200023e576000848401525b50505050565b60006200025b6200025584620001d8565b620001b9565b9050828152602081018484840111156200027a57620002796200013e565b5b620002878482856200020e565b509392505050565b600082601f830112620002a757620002a662000139565b5b8151620002b984826020860162000244565b91505092915050565b60008060408385031215620002dc57620002db6200012f565b5b600083015167ffffffffffffffff811115620002fd57620002fc62000134565b5b6200030b858286016200028f565b925050602083015167ffffffffffffffff8111156200032f576200032e62000134565b5b6200033d858286016200028f565b9150509250929050565b7f4e487b7100000000000000000000000000000000000000000000000000000000600052602260045260246000fd5b600060028204905060018216806200038f57607f821691505b60208210811415620003a657620003a562000347565b5b50919050565b61313c80620003bc6000396000f3fe608060405234801561001057600080fd5b50600436106101375760003560e01c806355f804b3116100b857806395d89b411161007c57806395d89b4114610348578063a144819414610366578063a22cb46514610382578063b88d4fde1461039e578063c87b56dd146103ba578063e985e9c5146103ea57610137565b806355f804b3146102925780636352211e146102ae5780636c0360eb146102de57806370a08231146102fc5780638832e6e31461032c57610137565b806323b872dd116100ff57806323b872dd146101f257806340c10f191461020e57806342842e0e1461022a57806342966c68146102465780634f558e791461026257610137565b806301ffc9a71461013c57806306fdde031461016c578063081812fc1461018a578063095ea7b3146101ba578063162094c4146101d6575b600080fd5b61015660048036038101906101519190611d82565b61041a565b6040516101639190611dca565b60405180910390f35b6101746104fc565b6040516101819190611e7e565b60405180910390f35b6101a4600480360381019061019f9190611ed6565b61058e565b6040516101b19190611f44565b60405180910390f35b6101d460048036038101906101cf9190611f8b565b610613565b005b6101f060048036038101906101eb9190612100565b61072b565b005b61020c6004803603810190610207919061215c565b610739565b005b61022860048036038101906102239190611f8b565b610799565b005b610244600480360381019061023f919061215c565b6107a7565b005b610260600480360381019061025b9190611ed6565b6107c7565b005b61027c60048036038101906102779190611ed6565b6107d3565b6040516102899190611dca565b60405180910390f35b6102ac60048036038101906102a7919061220f565b6107e5565b005b6102c860048036038101906102c39190611ed6565b6107fb565b6040516102d59190611f44565b60405180910390f35b6102e66108ad565b6040516102f39190611e7e565b60405180910390f35b6103166004803603810190610311919061225c565b6108bc565b6040516103239190612298565b60405180910390f35b61034660048036038101906103419190612354565b610974565b005b610350610984565b60405161035d9190611e7e565b60405180910390f35b610380600480360381019061037b9190611f8b565b610a16565b005b61039c600480360381019061039791906123ef565b610a24565b005b6103b860048036038101906103b3919061242f565b610a3a565b005b6103d460048036038101906103cf9190611ed6565b610a9c565b6040516103e19190611e7e565b60405180910390f35b61040460048036038101906103ff91906124b2565b610bee565b6040516104119190611dca565b60405180910390f35b60007f80ac58cd000000000000000000000000000000000000000000000000000000007bffffffffffffffffffffffffffffffffffffffffffffffffffffffff1916827bffffffffffffffffffffffffffffffffffffffffffffffffffffffff191614806104e557507f5b5e139f000000000000000000000000000000000000000000000000000000007bffffffffffffffffffffffffffffffffffffffffffffffffffffffff1916827bffffffffffffffffffffffffffffffffffffffffffffffffffffffff1916145b806104f557506104f482610c82565b5b9050919050565b60606000805461050b90612521565b80601f016020809104026020016040519081016040528092919081815260200182805461053790612521565b80156105845780601f1061055957610100808354040283529160200191610584565b820191906000526020600020905b81548152906001019060200180831161056757829003601f168201915b5050505050905090565b600061059982610cec565b6105d8576040517f08c379a00000000000000000000000000000000000000000000000000000000081526004016105cf906125c5565b60405180910390fd5b6004600083815260200190815260200160002060009054906101000a900473ffffffffffffffffffffffffffffffffffffffff169050919050565b600061061e826107fb565b90508073ffffffffffffffffffffffffffffffffffffffff168373ffffffffffffffffffffffffffffffffffffffff16141561068f576040517f08c379a000000000000000000000000000000000000000000000000000000000815260040161068690612657565b60405180910390fd5b8073ffffffffffffffffffffffffffffffffffffffff166106ae610d58565b73ffffffffffffffffffffffffffffffffffffffff1614806106dd57506106dc816106d7610d58565b610bee565b5b61071c576040517f08c379a0000000000000000000000000000000000000000000000000000000008152600401610713906126e9565b60405180910390fd5b6107268383610d60565b505050565b6107358282610e19565b5050565b61074a610744610d58565b82610e8d565b610789576040517f08c379a00000000000000000000000000000000000000000000000000000000081526004016107809061277b565b60405180910390fd5b610794838383610f6b565b505050565b6107a382826111d2565b5050565b6107c283838360405180602001604052806000815250610a3a565b505050565b6107d0816113ac565b50565b60006107de82610cec565b9050919050565b8181600791906107f6929190611bad565b505050565b6000806002600084815260200190815260200160002060009054906101000a900473ffffffffffffffffffffffffffffffffffffffff169050600073ffffffffffffffffffffffffffffffffffffffff168173ffffffffffffffffffffffffffffffffffffffff1614156108a4576040517f08c379a000000000000000000000000000000000000000000000000000000000815260040161089b9061280d565b60405180910390fd5b80915050919050565b60606108b76113ff565b905090565b60008073ffffffffffffffffffffffffffffffffffffffff168273ffffffffffffffffffffffffffffffffffffffff16141561092d576040517f08c379a00000000000000000000000000000000000000000000000000000000081526004016109249061289f565b60405180910390fd5b600360008373ffffffffffffffffffffffffffffffffffffffff1673ffffffffffffffffffffffffffffffffffffffff168152602001908152602001600020549050919050565b61097f838383611491565b505050565b60606001805461099390612521565b80601f01602080910402602001604051908101604052809291908181526020018280546109bf90612521565b8015610a0c5780601f106109e157610100808354040283529160200191610a0c565b820191906000526020600020905b8154815290600101906020018083116109ef57829003601f168201915b5050505050905090565b610a2082826114ec565b5050565b610a36610a2f610d58565b838361150a565b5050565b610a4b610a45610d58565b83610e8d565b610a8a576040517f08c379a0000000000000000000000000000000000000000000000000000000008152600401610a819061277b565b60405180910390fd5b610a9684848484611677565b50505050565b6060610aa782610cec565b610ae6576040517f08c379a0000000000000000000000000000000000000000000000000000000008152600401610add90612931565b60405180910390fd5b6000600660008481526020019081526020016000208054610b0690612521565b80601f0160208091040260200160405190810160405280929190818152602001828054610b3290612521565b8015610b7f5780601f10610b5457610100808354040283529160200191610b7f565b820191906000526020600020905b815481529060010190602001808311610b6257829003601f168201915b505050505090506000610b906113ff565b9050600081511415610ba6578192505050610be9565b600082511115610bdb578082604051602001610bc392919061298d565b60405160208183030381529060405292505050610be9565b610be4846116d3565b925050505b919050565b6000600560008473ffffffffffffffffffffffffffffffffffffffff1673ffffffffffffffffffffffffffffffffffffffff16815260200190815260200160002060008373ffffffffffffffffffffffffffffffffffffffff1673ffffffffffffffffffffffffffffffffffffffff16815260200190815260200160002060009054906101000a900460ff16905092915050565b60007f01ffc9a7000000000000000000000000000000000000000000000000000000007bffffffffffffffffffffffffffffffffffffffffffffffffffffffff1916827bffffffffffffffffffffffffffffffffffffffffffffffffffffffff1916149050919050565b60008073ffffffffffffffffffffffffffffffffffffffff166002600084815260200190815260200160002060009054906101000a900473ffffffffffffffffffffffffffffffffffffffff1673ffffffffffffffffffffffffffffffffffffffff1614159050919050565b600033905090565b816004600083815260200190815260200160002060006101000a81548173ffffffffffffffffffffffffffffffffffffffff021916908373ffffffffffffffffffffffffffffffffffffffff160217905550808273ffffffffffffffffffffffffffffffffffffffff16610dd3836107fb565b73ffffffffffffffffffffffffffffffffffffffff167f8c5be1e5ebec7d5bd14f71427d1e84f3dd0314c0f7b2291e5b200ac8c7c3b92560405160405180910390a45050565b610e2282610cec565b610e61576040517f08c379a0000000000000000000000000000000000000000000000000000000008152600401610e5890612a23565b60405180910390fd5b80600660008481526020019081526020016000209080519060200190610e88929190611c33565b505050565b6000610e9882610cec565b610ed7576040517f08c379a0000000000000000000000000000000000000000000000000000000008152600401610ece90612ab5565b60405180910390fd5b6000610ee2836107fb565b90508073ffffffffffffffffffffffffffffffffffffffff168473ffffffffffffffffffffffffffffffffffffffff161480610f5157508373ffffffffffffffffffffffffffffffffffffffff16610f398461058e565b73ffffffffffffffffffffffffffffffffffffffff16145b80610f625750610f618185610bee565b5b91505092915050565b8273ffffffffffffffffffffffffffffffffffffffff16610f8b826107fb565b73ffffffffffffffffffffffffffffffffffffffff1614610fe1576040517f08c379a0000000000000000000000000000000000000000000000000000000008152600401610fd890612b47565b60405180910390fd5b600073ffffffffffffffffffffffffffffffffffffffff168273ffffffffffffffffffffffffffffffffffffffff161415611051576040517f08c379a000000000000000000000000000000000000000000000000000000000815260040161104890612bd9565b60405180910390fd5b61105c83838361177a565b611067600082610d60565b6001600360008573ffffffffffffffffffffffffffffffffffffffff1673ffffffffffffffffffffffffffffffffffffffff16815260200190815260200160002060008282546110b79190612c28565b925050819055506001600360008473ffffffffffffffffffffffffffffffffffffffff1673ffffffffffffffffffffffffffffffffffffffff168152602001908152602001600020600082825461110e9190612c5c565b92505081905550816002600083815260200190815260200160002060006101000a81548173ffffffffffffffffffffffffffffffffffffffff021916908373ffffffffffffffffffffffffffffffffffffffff160217905550808273ffffffffffffffffffffffffffffffffffffffff168473ffffffffffffffffffffffffffffffffffffffff167fddf252ad1be2c89b69c2b068fc378daa952ba7f163c4a11628f55a4df523b3ef60405160405180910390a46111cd83838361177f565b505050565b600073ffffffffffffffffffffffffffffffffffffffff168273ffffffffffffffffffffffffffffffffffffffff161415611242576040517f08c379a000000000000000000000000000000000000000000000000000000000815260040161123990612cfe565b60405180910390fd5b61124b81610cec565b1561128b576040517f08c379a000000000000000000000000000000000000000000000000000000000815260040161128290612d6a565b60405180910390fd5b6112976000838361177a565b6001600360008473ffffffffffffffffffffffffffffffffffffffff1673ffffffffffffffffffffffffffffffffffffffff16815260200190815260200160002060008282546112e79190612c5c565b92505081905550816002600083815260200190815260200160002060006101000a81548173ffffffffffffffffffffffffffffffffffffffff021916908373ffffffffffffffffffffffffffffffffffffffff160217905550808273ffffffffffffffffffffffffffffffffffffffff16600073ffffffffffffffffffffffffffffffffffffffff167fddf252ad1be2c89b69c2b068fc378daa952ba7f163c4a11628f55a4df523b3ef60405160405180910390a46113a86000838361177f565b5050565b6113b581611784565b60006006600083815260200190815260200160002080546113d590612521565b9050146113fc576006600082815260200190815260200160002060006113fb9190611cb9565b5b50565b60606007805461140e90612521565b80601f016020809104026020016040519081016040528092919081815260200182805461143a90612521565b80156114875780601f1061145c57610100808354040283529160200191611487565b820191906000526020600020905b81548152906001019060200180831161146a57829003601f168201915b5050505050905090565b61149b83836111d2565b6114a860008484846118a1565b6114e7576040517f08c379a00000000000000000000000000000000000000000000000000000000081526004016114de90612dfc565b60405180910390fd5b505050565b611506828260405180602001604052806000815250611491565b5050565b8173ffffffffffffffffffffffffffffffffffffffff168373ffffffffffffffffffffffffffffffffffffffff161415611579576040517f08c379a000000000000000000000000000000000000000000000000000000000815260040161157090612e68565b60405180910390fd5b80600560008573ffffffffffffffffffffffffffffffffffffffff1673ffffffffffffffffffffffffffffffffffffffff16815260200190815260200160002060008473ffffffffffffffffffffffffffffffffffffffff1673ffffffffffffffffffffffffffffffffffffffff16815260200190815260200160002060006101000a81548160ff0219169083151502179055508173ffffffffffffffffffffffffffffffffffffffff168373ffffffffffffffffffffffffffffffffffffffff167f17307eab39ab6107e8899845ad3d59bd9653f200f220920489ca2b5937696c318360405161166a9190611dca565b60405180910390a3505050565b611682848484610f6b565b61168e848484846118a1565b6116cd576040517f08c379a00000000000000000000000000000000000000000000000000000000081526004016116c490612dfc565b60405180910390fd5b50505050565b60606116de82610cec565b61171d576040517f08c379a000000000000000000000000000000000000000000000000000000000815260040161171490612efa565b60405180910390fd5b60006117276113ff565b905060008151116117475760405180602001604052806000815250611772565b8061175184611a29565b60405160200161176292919061298d565b6040516020818303038152906040525b915050919050565b505050565b505050565b600061178f826107fb565b905061179d8160008461177a565b6117a8600083610d60565b6001600360008373ffffffffffffffffffffffffffffffffffffffff1673ffffffffffffffffffffffffffffffffffffffff16815260200190815260200160002060008282546117f89190612c28565b925050819055506002600083815260200190815260200160002060006101000a81549073ffffffffffffffffffffffffffffffffffffffff021916905581600073ffffffffffffffffffffffffffffffffffffffff168273ffffffffffffffffffffffffffffffffffffffff167fddf252ad1be2c89b69c2b068fc378daa952ba7f163c4a11628f55a4df523b3ef60405160405180910390a461189d8160008461177f565b5050565b60006118c28473ffffffffffffffffffffffffffffffffffffffff16611b8a565b15611a1c578373ffffffffffffffffffffffffffffffffffffffff1663150b7a026118eb610d58565b8786866040518563ffffffff1660e01b815260040161190d9493929190612f6f565b6020604051808303816000875af192505050801561194957506040513d601f19601f820116820180604052508101906119469190612fd0565b60015b6119cc573d8060008114611979576040519150601f19603f3d011682016040523d82523d6000602084013e61197e565b606091505b506000815114156119c4576040517f08c379a00000000000000000000000000000000000000000000000000000000081526004016119bb90612dfc565b60405180910390fd5b805181602001fd5b63150b7a0260e01b7bffffffffffffffffffffffffffffffffffffffffffffffffffffffff1916817bffffffffffffffffffffffffffffffffffffffffffffffffffffffff191614915050611a21565b600190505b949350505050565b60606000821415611a71576040518060400160405280600181526020017f30000000000000000000000000000000000000000000000000000000000000008152509050611b85565b600082905060005b60008214611aa3578080611a8c90612ffd565b915050600a82611a9c9190613075565b9150611a79565b60008167ffffffffffffffff811115611abf57611abe611fd5565b5b6040519080825280601f01601f191660200182016040528015611af15781602001600182028036833780820191505090505b5090505b60008514611b7e57600182611b0a9190612c28565b9150600a85611b1991906130a6565b6030611b259190612c5c565b60f81b818381518110611b3b57611b3a6130d7565b5b60200101907effffffffffffffffffffffffffffffffffffffffffffffffffffffffffffff1916908160001a905350600a85611b779190613075565b9450611af5565b8093505050505b919050565b6000808273ffffffffffffffffffffffffffffffffffffffff163b119050919050565b828054611bb990612521565b90600052602060002090601f016020900481019282611bdb5760008555611c22565b82601f10611bf457803560ff1916838001178555611c22565b82800160010185558215611c22579182015b82811115611c21578235825591602001919060010190611c06565b5b509050611c2f9190611cf9565b5090565b828054611c3f90612521565b90600052602060002090601f016020900481019282611c615760008555611ca8565b82601f10611c7a57805160ff1916838001178555611ca8565b82800160010185558215611ca8579182015b82811115611ca7578251825591602001919060010190611c8c565b5b509050611cb59190611cf9565b5090565b508054611cc590612521565b6000825580601f10611cd75750611cf6565b601f016020900490600052602060002090810190611cf59190611cf9565b5b50565b5b80821115611d12576000816000905550600101611cfa565b5090565b6000604051905090565b600080fd5b600080fd5b60007fffffffff0000000000000000000000000000000000000000000000000000000082169050919050565b611d5f81611d2a565b8114611d6a57600080fd5b50565b600081359050611d7c81611d56565b92915050565b600060208284031215611d9857611d97611d20565b5b6000611da684828501611d6d565b91505092915050565b60008115159050919050565b611dc481611daf565b82525050565b6000602082019050611ddf6000830184611dbb565b92915050565b600081519050919050565b600082825260208201905092915050565b60005b83811015611e1f578082015181840152602081019050611e04565b83811115611e2e576000848401525b50505050565b6000601f19601f8301169050919050565b6000611e5082611de5565b611e5a8185611df0565b9350611e6a818560208601611e01565b611e7381611e34565b840191505092915050565b60006020820190508181036000830152611e988184611e45565b905092915050565b6000819050919050565b611eb381611ea0565b8114611ebe57600080fd5b50565b600081359050611ed081611eaa565b92915050565b600060208284031215611eec57611eeb611d20565b5b6000611efa84828501611ec1565b91505092915050565b600073ffffffffffffffffffffffffffffffffffffffff82169050919050565b6000611f2e82611f03565b9050919050565b611f3e81611f23565b82525050565b6000602082019050611f596000830184611f35565b92915050565b611f6881611f23565b8114611f7357600080fd5b50565b600081359050611f8581611f5f565b92915050565b60008060408385031215611fa257611fa1611d20565b5b6000611fb085828601611f76565b9250506020611fc185828601611ec1565b9150509250929050565b600080fd5b600080fd5b7f4e487b7100000000000000000000000000000000000000000000000000000000600052604160045260246000fd5b61200d82611e34565b810181811067ffffffffffffffff8211171561202c5761202b611fd5565b5b80604052505050565b600061203f611d16565b905061204b8282612004565b919050565b600067ffffffffffffffff82111561206b5761206a611fd5565b5b61207482611e34565b9050602081019050919050565b82818337600083830152505050565b60006120a361209e84612050565b612035565b9050828152602081018484840111156120bf576120be611fd0565b5b6120ca848285612081565b509392505050565b600082601f8301126120e7576120e6611fcb565b5b81356120f7848260208601612090565b91505092915050565b6000806040838503121561211757612116611d20565b5b600061212585828601611ec1565b925050602083013567ffffffffffffffff81111561214657612145611d25565b5b612152858286016120d2565b9150509250929050565b60008060006060848603121561217557612174611d20565b5b600061218386828701611f76565b935050602061219486828701611f76565b92505060406121a586828701611ec1565b9150509250925092565b600080fd5b600080fd5b60008083601f8401126121cf576121ce611fcb565b5b8235905067ffffffffffffffff8111156121ec576121eb6121af565b5b602083019150836001820283011115612208576122076121b4565b5b9250929050565b6000806020838503121561222657612225611d20565b5b600083013567ffffffffffffffff81111561224457612243611d25565b5b612250858286016121b9565b92509250509250929050565b60006020828403121561227257612271611d20565b5b600061228084828501611f76565b91505092915050565b61229281611ea0565b82525050565b60006020820190506122ad6000830184612289565b92915050565b600067ffffffffffffffff8211156122ce576122cd611fd5565b5b6122d782611e34565b9050602081019050919050565b60006122f76122f2846122b3565b612035565b90508281526020810184848401111561231357612312611fd0565b5b61231e848285612081565b509392505050565b600082601f83011261233b5761233a611fcb565b5b813561234b8482602086016122e4565b91505092915050565b60008060006060848603121561236d5761236c611d20565b5b600061237b86828701611f76565b935050602061238c86828701611ec1565b925050604084013567ffffffffffffffff8111156123ad576123ac611d25565b5b6123b986828701612326565b9150509250925092565b6123cc81611daf565b81146123d757600080fd5b50565b6000813590506123e9816123c3565b92915050565b6000806040838503121561240657612405611d20565b5b600061241485828601611f76565b9250506020612425858286016123da565b9150509250929050565b6000806000806080858703121561244957612448611d20565b5b600061245787828801611f76565b945050602061246887828801611f76565b935050604061247987828801611ec1565b925050606085013567ffffffffffffffff81111561249a57612499611d25565b5b6124a687828801612326565b91505092959194509250565b600080604083850312156124c9576124c8611d20565b5b60006124d785828601611f76565b92505060206124e885828601611f76565b9150509250929050565b7f4e487b7100000000000000000000000000000000000000000000000000000000600052602260045260246000fd5b6000600282049050600182168061253957607f821691505b6020821081141561254d5761254c6124f2565b5b50919050565b7f4552433732313a20617070726f76656420717565727920666f72206e6f6e657860008201527f697374656e7420746f6b656e0000000000000000000000000000000000000000602082015250565b60006125af602c83611df0565b91506125ba82612553565b604082019050919050565b600060208201905081810360008301526125de816125a2565b9050919050565b7f4552433732313a20617070726f76616c20746f2063757272656e74206f776e6560008201527f7200000000000000000000000000000000000000000000000000000000000000602082015250565b6000612641602183611df0565b915061264c826125e5565b604082019050919050565b6000602082019050818103600083015261267081612634565b9050919050565b7f4552433732313a20617070726f76652063616c6c6572206973206e6f74206f7760008201527f6e6572206e6f7220617070726f76656420666f7220616c6c0000000000000000602082015250565b60006126d3603883611df0565b91506126de82612677565b604082019050919050565b60006020820190508181036000830152612702816126c6565b9050919050565b7f4552433732313a207472616e736665722063616c6c6572206973206e6f74206f60008201527f776e6572206e6f7220617070726f766564000000000000000000000000000000602082015250565b6000612765603183611df0565b915061277082612709565b604082019050919050565b6000602082019050818103600083015261279481612758565b9050919050565b7f4552433732313a206f776e657220717565727920666f72206e6f6e657869737460008201527f656e7420746f6b656e0000000000000000000000000000000000000000000000602082015250565b60006127f7602983611df0565b91506128028261279b565b604082019050919050565b60006020820190508181036000830152612826816127ea565b9050919050565b7f4552433732313a2062616c616e636520717565727920666f7220746865207a6560008201527f726f206164647265737300000000000000000000000000000000000000000000602082015250565b6000612889602a83611df0565b91506128948261282d565b604082019050919050565b600060208201905081810360008301526128b88161287c565b9050919050565b7f45524337323155524953746f726167653a2055524920717565727920666f722060008201527f6e6f6e6578697374656e7420746f6b656e000000000000000000000000000000602082015250565b600061291b603183611df0565b9150612926826128bf565b604082019050919050565b6000602082019050818103600083015261294a8161290e565b9050919050565b600081905092915050565b600061296782611de5565b6129718185612951565b9350612981818560208601611e01565b80840191505092915050565b6000612999828561295c565b91506129a5828461295c565b91508190509392505050565b7f45524337323155524953746f726167653a2055524920736574206f66206e6f6e60008201527f6578697374656e7420746f6b656e000000000000000000000000000000000000602082015250565b6000612a0d602e83611df0565b9150612a18826129b1565b604082019050919050565b60006020820190508181036000830152612a3c81612a00565b9050919050565b7f4552433732313a206f70657261746f7220717565727920666f72206e6f6e657860008201527f697374656e7420746f6b656e0000000000000000000000000000000000000000602082015250565b6000612a9f602c83611df0565b9150612aaa82612a43565b604082019050919050565b60006020820190508181036000830152612ace81612a92565b9050919050565b7f4552433732313a207472616e736665722066726f6d20696e636f72726563742060008201527f6f776e6572000000000000000000000000000000000000000000000000000000602082015250565b6000612b31602583611df0565b9150612b3c82612ad5565b604082019050919050565b60006020820190508181036000830152612b6081612b24565b9050919050565b7f4552433732313a207472616e7366657220746f20746865207a65726f2061646460008201527f7265737300000000000000000000000000000000000000000000000000000000602082015250565b6000612bc3602483611df0565b9150612bce82612b67565b604082019050919050565b60006020820190508181036000830152612bf281612bb6565b9050919050565b7f4e487b7100000000000000000000000000000000000000000000000000000000600052601160045260246000fd5b6000612c3382611ea0565b9150612c3e83611ea0565b925082821015612c5157612c50612bf9565b5b828203905092915050565b6000612c6782611ea0565b9150612c7283611ea0565b9250827fffffffffffffffffffffffffffffffffffffffffffffffffffffffffffffffff03821115612ca757612ca6612bf9565b5b828201905092915050565b7f4552433732313a206d696e7420746f20746865207a65726f2061646472657373600082015250565b6000612ce8602083611df0565b9150612cf382612cb2565b602082019050919050565b60006020820190508181036000830152612d1781612cdb565b9050919050565b7f4552433732313a20746f6b656e20616c7265616479206d696e74656400000000600082015250565b6000612d54601c83611df0565b9150612d5f82612d1e565b602082019050919050565b60006020820190508181036000830152612d8381612d47565b9050919050565b7f4552433732313a207472616e7366657220746f206e6f6e20455243373231526560008201527f63656976657220696d706c656d656e7465720000000000000000000000000000602082015250565b6000612de6603283611df0565b9150612df182612d8a565b604082019050919050565b60006020820190508181036000830152612e1581612dd9565b9050919050565b7f4552433732313a20617070726f766520746f2063616c6c657200000000000000600082015250565b6000612e52601983611df0565b9150612e5d82612e1c565b602082019050919050565b60006020820190508181036000830152612e8181612e45565b9050919050565b7f4552433732314d657461646174613a2055524920717565727920666f72206e6f60008201527f6e6578697374656e7420746f6b656e0000000000000000000000000000000000602082015250565b6000612ee4602f83611df0565b9150612eef82612e88565b604082019050919050565b60006020820190508181036000830152612f1381612ed7565b9050919050565b600081519050919050565b600082825260208201905092915050565b6000612f4182612f1a565b612f4b8185612f25565b9350612f5b818560208601611e01565b612f6481611e34565b840191505092915050565b6000608082019050612f846000830187611f35565b612f916020830186611f35565b612f9e6040830185612289565b8181036060830152612fb08184612f36565b905095945050505050565b600081519050612fca81611d56565b92915050565b600060208284031215612fe657612fe5611d20565b5b6000612ff484828501612fbb565b91505092915050565b600061300882611ea0565b91507fffffffffffffffffffffffffffffffffffffffffffffffffffffffffffffffff82141561303b5761303a612bf9565b5b600182019050919050565b7f4e487b7100000000000000000000000000000000000000000000000000000000600052601260045260246000fd5b600061308082611ea0565b915061308b83611ea0565b92508261309b5761309a613046565b5b828204905092915050565b60006130b182611ea0565b91506130bc83611ea0565b9250826130cc576130cb613046565b5b828206905092915050565b7f4e487b7100000000000000000000000000000000000000000000000000000000600052603260045260246000fdfea26469706673582212203207a18b0a7227bea2f8d1d9e607c10e4fef4528fcb08e98fa7f5da2192883b764736f6c634300080b0033",
  "immutableReferences": {},
  "source": "// SPDX-License-Identifier: MIT\n\npragma solidity ^0.8.0;\n\nimport \"../token/ERC721/extensions/ERC721URIStorage.sol\";\n\n/**\n * @title ERC721Mock\n * This mock just provides a public safeMint, mint, and burn functions for testing purposes\n */\ncontract ERC721URIStorageMock is ERC721URIStorage {\n    string private _baseTokenURI;\n\n    constructor(string memory name, string memory symbol) ERC721(name, symbol) {}\n\n    function _baseURI() internal view virtual override returns (string memory) {\n        return _baseTokenURI;\n    }\n\n    function setBaseURI(string calldata newBaseTokenURI) public {\n        _baseTokenURI = newBaseTokenURI;\n    }\n\n    function baseURI() public view returns (string memory) {\n        return _baseURI();\n    }\n\n    function setTokenURI(uint256 tokenId, string memory _tokenURI) public {\n        _setTokenURI(tokenId, _tokenURI);\n    }\n\n    function exists(uint256 tokenId) public view returns (bool) {\n        return _exists(tokenId);\n    }\n\n    function mint(address to, uint256 tokenId) public {\n        _mint(to, tokenId);\n    }\n\n    function safeMint(address to, uint256 tokenId) public {\n        _safeMint(to, tokenId);\n    }\n\n    function safeMint(\n        address to,\n        uint256 tokenId,\n        bytes memory _data\n    ) public {\n        _safeMint(to, tokenId, _data);\n    }\n\n    function burn(uint256 tokenId) public {\n        _burn(tokenId);\n    }\n}\n",
  "sourcePath": "D:\\03.block-chain\\01.miquelTC__nft-marketplace\\test-proj\\nft-marketplace-master\\src\\contracts\\ERC721\\mocks\\ERC721URIStorageMock.sol",
  "compiler": {
    "name": "solc",
    "version": "0.8.11+commit.d7f03943.Emscripten.clang"
  },
  "schemaVersion": "3.4.4",
  "updatedAt": "2022-02-16T02:59:58.530Z",
  "devdoc": {
    "kind": "dev",
    "methods": {
      "approve(address,uint256)": {
        "details": "See {IERC721-approve}."
      },
      "balanceOf(address)": {
        "details": "See {IERC721-balanceOf}."
      },
      "getApproved(uint256)": {
        "details": "See {IERC721-getApproved}."
      },
      "isApprovedForAll(address,address)": {
        "details": "See {IERC721-isApprovedForAll}."
      },
      "name()": {
        "details": "See {IERC721Metadata-name}."
      },
      "ownerOf(uint256)": {
        "details": "See {IERC721-ownerOf}."
      },
      "safeTransferFrom(address,address,uint256)": {
        "details": "See {IERC721-safeTransferFrom}."
      },
      "safeTransferFrom(address,address,uint256,bytes)": {
        "details": "See {IERC721-safeTransferFrom}."
      },
      "setApprovalForAll(address,bool)": {
        "details": "See {IERC721-setApprovalForAll}."
      },
      "supportsInterface(bytes4)": {
        "details": "See {IERC165-supportsInterface}."
      },
      "symbol()": {
        "details": "See {IERC721Metadata-symbol}."
      },
      "tokenURI(uint256)": {
        "details": "See {IERC721Metadata-tokenURI}."
      },
      "transferFrom(address,address,uint256)": {
        "details": "See {IERC721-transferFrom}."
      }
    },
    "title": "ERC721Mock This mock just provides a public safeMint, mint, and burn functions for testing purposes",
    "version": 1
  },
  "userdoc": {
    "kind": "user",
    "methods": {},
    "version": 1
  }
}