{
  "contractName": "ERC721Lending",
  "abi": [
    {
      "anonymous": false,
      "inputs": [
        {
          "indexed": false,
          "internalType": "address",
          "name": "tokenAddress",
          "type": "address"
        },
        {
          "indexed": false,
          "internalType": "uint256",
          "name": "tokenId",
          "type": "uint256"
        }
      ],
      "name": "ERC721ForLendRemoved",
      "type": "event"
    },
    {
      "anonymous": false,
      "inputs": [
        {
          "indexed": false,
          "internalType": "address",
          "name": "lenderAddress",
          "type": "address"
        },
        {
          "indexed": false,
          "internalType": "address",
          "name": "tokenAddress",
          "type": "address"
        },
        {
          "indexed": false,
          "internalType": "uint256",
          "name": "tokenId",
          "type": "uint256"
        }
      ],
      "name": "ERC721ForLendRemovedV2",
      "type": "event"
    },
    {
      "anonymous": false,
      "inputs": [
        {
          "indexed": false,
          "internalType": "address",
          "name": "tokenAddress",
          "type": "address"
        },
        {
          "indexed": false,
          "internalType": "uint256",
          "name": "tokenId",
          "type": "uint256"
        }
      ],
      "name": "ERC721ForLendUpdated",
      "type": "event"
    },
    {
      "anonymous": false,
      "inputs": [
        {
          "indexed": false,
          "internalType": "address",
          "name": "lenderAddress",
          "type": "address"
        },
        {
          "indexed": false,
          "internalType": "address",
          "name": "tokenAddress",
          "type": "address"
        },
        {
          "indexed": false,
          "internalType": "uint256",
          "name": "tokenId",
          "type": "uint256"
        }
      ],
      "name": "ERC721ForLendUpdatedV2",
      "type": "event"
    },
    {
      "inputs": [],
      "name": "acceptedPayTokenAddress",
      "outputs": [
        {
          "internalType": "address",
          "name": "",
          "type": "address"
        }
      ],
      "stateMutability": "view",
      "type": "function"
    },
    {
      "inputs": [],
      "name": "feesContractAddress",
      "outputs": [
        {
          "internalType": "address",
          "name": "",
          "type": "address"
        }
      ],
      "stateMutability": "view",
      "type": "function"
    },
    {
      "inputs": [
        {
          "internalType": "uint256",
          "name": "",
          "type": "uint256"
        }
      ],
      "name": "lendersWithTokens",
      "outputs": [
        {
          "internalType": "address",
          "name": "lenderAddress",
          "type": "address"
        },
        {
          "internalType": "address",
          "name": "tokenAddress",
          "type": "address"
        },
        {
          "internalType": "uint256",
          "name": "tokenId",
          "type": "uint256"
        }
      ],
      "stateMutability": "view",
      "type": "function"
    },
    {
      "inputs": [
        {
          "internalType": "address",
          "name": "",
          "type": "address"
        },
        {
          "internalType": "uint256",
          "name": "",
          "type": "uint256"
        },
        {
          "internalType": "address",
          "name": "",
          "type": "address"
        }
      ],
      "name": "lendingPool",
      "outputs": [
        {
          "internalType": "uint256",
          "name": "durationHours",
          "type": "uint256"
        },
        {
          "internalType": "uint256",
          "name": "initialWorth",
          "type": "uint256"
        },
        {
          "internalType": "uint256",
          "name": "earningGoal",
          "type": "uint256"
        },
        {
          "internalType": "uint256",
          "name": "borrowedAtTimestamp",
          "type": "uint256"
        },
        {
          "internalType": "address",
          "name": "lender",
          "type": "address"
        },
        {
          "internalType": "address",
          "name": "borrower",
          "type": "address"
        },
        {
          "internalType": "bool",
          "name": "lenderClaimedCollateral",
          "type": "bool"
        },
        {
          "internalType": "uint256",
          "name": "sablierSalaryId",
          "type": "uint256"
        },
        {
          "internalType": "uint256",
          "name": "platformFeesPercent",
          "type": "uint256"
        }
      ],
      "stateMutability": "view",
      "type": "function"
    },
    {
      "inputs": [],
      "name": "lentCount",
      "outputs": [
        {
          "internalType": "uint256",
          "name": "",
          "type": "uint256"
        }
      ],
      "stateMutability": "view",
      "type": "function"
    },
    {
      "inputs": [
        {
          "internalType": "address",
          "name": "",
          "type": "address"
        },
        {
          "internalType": "uint256",
          "name": "",
          "type": "uint256"
        }
      ],
      "name": "lentERC721List",
      "outputs": [
        {
          "internalType": "uint256",
          "name": "durationHours",
          "type": "uint256"
        },
        {
          "internalType": "uint256",
          "name": "initialWorth",
          "type": "uint256"
        },
        {
          "internalType": "uint256",
          "name": "earningGoal",
          "type": "uint256"
        },
        {
          "internalType": "uint256",
          "name": "borrowedAtTimestamp",
          "type": "uint256"
        },
        {
          "internalType": "address",
          "name": "lender",
          "type": "address"
        },
        {
          "internalType": "address",
          "name": "borrower",
          "type": "address"
        },
        {
          "internalType": "bool",
          "name": "lenderClaimedCollateral",
          "type": "bool"
        },
        {
          "internalType": "uint256",
          "name": "sablierSalaryId",
          "type": "uint256"
        },
        {
          "internalType": "uint256",
          "name": "platformFeesPercent",
          "type": "uint256"
        }
      ],
      "stateMutability": "view",
      "type": "function"
    },
    {
      "inputs": [],
      "name": "sablierContractAddress",
      "outputs": [
        {
          "internalType": "address",
          "name": "",
          "type": "address"
        }
      ],
      "stateMutability": "view",
      "type": "function"
    },
    {
      "inputs": [
        {
          "internalType": "address",
          "name": "tokenAddress",
          "type": "address"
        }
      ],
      "name": "initialize",
      "outputs": [],
      "stateMutability": "nonpayable",
      "type": "function"
    },
    {
      "inputs": [
        {
          "internalType": "address",
          "name": "contractAddress",
          "type": "address"
        }
      ],
      "name": "setSablierContractAddress",
      "outputs": [],
      "stateMutability": "nonpayable",
      "type": "function"
    },
    {
      "inputs": [
        {
          "internalType": "address",
          "name": "contractAddress",
          "type": "address"
        }
      ],
      "name": "setFeesContractAddress",
      "outputs": [],
      "stateMutability": "nonpayable",
      "type": "function"
    },
    {
      "inputs": [
        {
          "internalType": "address",
          "name": "tokenAddress",
          "type": "address"
        },
        {
          "internalType": "uint256",
          "name": "tokenId",
          "type": "uint256"
        },
        {
          "internalType": "uint256",
          "name": "durationHours",
          "type": "uint256"
        },
        {
          "internalType": "uint256",
          "name": "initialWorth",
          "type": "uint256"
        },
        {
          "internalType": "uint256",
          "name": "earningGoal",
          "type": "uint256"
        }
      ],
      "name": "setLendSettings",
      "outputs": [
        {
          "internalType": "uint256",
          "name": "",
          "type": "uint256"
        }
      ],
      "stateMutability": "nonpayable",
      "type": "function"
    }
  ],
  "bytecode": "0x6080604052600060015534801561001557600080fd5b5061158d806100256000396000f3fe608060405234801561001057600080fd5b50600436106100a95760003560e01c806394f583f01161007157806394f583f0146101425780639baa72111461015e578063a36d2bee14610196578063afe89ab5146101c6578063c4d66de8146101f8578063ca6ddbae14610214576100a9565b8063227893f2146100ae57806322af94c5146100cc5780634dbbfd89146100ea5780635e2afd961461010657806360aecb4114610124575b600080fd5b6100b661024c565b6040516100c39190610c5c565b60405180910390f35b6100d4610272565b6040516100e19190610c90565b60405180910390f35b61010460048036038101906100ff9190610cdc565b610278565b005b61010e61034d565b60405161011b9190610c5c565b60405180910390f35b61012c610373565b6040516101399190610c5c565b60405180910390f35b61015c60048036038101906101579190610cdc565b610399565b005b61017860048036038101906101739190610d35565b61046e565b60405161018d99989796959493929190610d90565b60405180910390f35b6101b060048036038101906101ab9190610e1d565b610516565b6040516101bd9190610c90565b60405180910390f35b6101e060048036038101906101db9190610e98565b610992565b6040516101ef93929190610ec5565b60405180910390f35b610212600480360381019061020d9190610cdc565b610a0c565b005b61022e60048036038101906102299190610efc565b610b32565b60405161024399989796959493929190610d90565b60405180910390f35b600560009054906101000a900473ffffffffffffffffffffffffffffffffffffffff1681565b60015481565b600073ffffffffffffffffffffffffffffffffffffffff16600860009054906101000a900473ffffffffffffffffffffffffffffffffffffffff1673ffffffffffffffffffffffffffffffffffffffff1614610309576040517f08c379a000000000000000000000000000000000000000000000000000000000815260040161030090610fd2565b60405180910390fd5b80600860006101000a81548173ffffffffffffffffffffffffffffffffffffffff021916908373ffffffffffffffffffffffffffffffffffffffff16021790555050565b600260009054906101000a900473ffffffffffffffffffffffffffffffffffffffff1681565b600860009054906101000a900473ffffffffffffffffffffffffffffffffffffffff1681565b600073ffffffffffffffffffffffffffffffffffffffff16600560009054906101000a900473ffffffffffffffffffffffffffffffffffffffff1673ffffffffffffffffffffffffffffffffffffffff161461042a576040517f08c379a000000000000000000000000000000000000000000000000000000000815260040161042190611064565b60405180910390fd5b80600560006101000a81548173ffffffffffffffffffffffffffffffffffffffff021916908373ffffffffffffffffffffffffffffffffffffffff16021790555050565b6003602052816000526040600020602052806000526040600020600091509150508060000154908060010154908060020154908060030154908060040160009054906101000a900473ffffffffffffffffffffffffffffffffffffffff16908060050160009054906101000a900473ffffffffffffffffffffffffffffffffffffffff16908060050160149054906101000a900460ff16908060060154908060070154905089565b600080831161055a576040517f08c379a0000000000000000000000000000000000000000000000000000000008152600401610551906110f6565b60405180910390fd5b6000821161059d576040517f08c379a000000000000000000000000000000000000000000000000000000000815260040161059490611188565b60405180910390fd5b600084116105e0576040517f08c379a00000000000000000000000000000000000000000000000000000000081526004016105d79061121a565b60405180910390fd5b600073ffffffffffffffffffffffffffffffffffffffff16600360008873ffffffffffffffffffffffffffffffffffffffff1673ffffffffffffffffffffffffffffffffffffffff168152602001908152602001600020600087815260200190815260200160002060050160009054906101000a900473ffffffffffffffffffffffffffffffffffffffff1673ffffffffffffffffffffffffffffffffffffffff16146106c2576040517f08c379a00000000000000000000000000000000000000000000000000000000081526004016106b9906112ac565b60405180910390fd5b60001515600360008873ffffffffffffffffffffffffffffffffffffffff1673ffffffffffffffffffffffffffffffffffffffff168152602001908152602001600020600087815260200190815260200160002060050160149054906101000a900460ff16151514610769576040517f08c379a00000000000000000000000000000000000000000000000000000000081526004016107609061133e565b60405180910390fd5b6000869050600030905060007360919a2d0a81cde72a52589160141129f7308a9190508073ffffffffffffffffffffffffffffffffffffffff1663b88d4fde7360919a2d0a81cde72a52589160141129f7308a91732bb9454d0be9d010aa7e99de517da9e66452b51b60016040518463ffffffff1660e01b81526004016107f2939291906113da565b600060405180830381600087803b15801561080c57600080fd5b505af1158015610820573d6000803e3d6000fd5b505050506001600081548092919061083790611453565b9190505550600460405180606001604052808573ffffffffffffffffffffffffffffffffffffffff1681526020018b73ffffffffffffffffffffffffffffffffffffffff1681526020018a815250908060018154018082558091505060019003906000526020600020906003020160009091909190915060008201518160000160006101000a81548173ffffffffffffffffffffffffffffffffffffffff021916908373ffffffffffffffffffffffffffffffffffffffff16021790555060208201518160010160006101000a81548173ffffffffffffffffffffffffffffffffffffffff021916908373ffffffffffffffffffffffffffffffffffffffff1602179055506040820151816002015550507fff57598c219d5cf768267ac0800789e8a5705c0651c6a1f2c5f0caa47d971213898960405161097992919061149c565b60405180910390a1600154935050505095945050505050565b600481815481106109a257600080fd5b90600052602060002090600302016000915090508060000160009054906101000a900473ffffffffffffffffffffffffffffffffffffffff16908060010160009054906101000a900473ffffffffffffffffffffffffffffffffffffffff16908060020154905083565b600060019054906101000a900460ff16610a345760008054906101000a900460ff1615610a3d565b610a3c610be7565b5b610a7c576040517f08c379a0000000000000000000000000000000000000000000000000000000008152600401610a7390611537565b60405180910390fd5b60008060019054906101000a900460ff161590508015610acc576001600060016101000a81548160ff02191690831515021790555060016000806101000a81548160ff0219169083151502179055505b81600260006101000a81548173ffffffffffffffffffffffffffffffffffffffff021916908373ffffffffffffffffffffffffffffffffffffffff1602179055508015610b2e5760008060016101000a81548160ff0219169083151502179055505b5050565b600660205282600052604060002060205281600052604060002060205280600052604060002060009250925050508060000154908060010154908060020154908060030154908060040160009054906101000a900473ffffffffffffffffffffffffffffffffffffffff16908060050160009054906101000a900473ffffffffffffffffffffffffffffffffffffffff16908060050160149054906101000a900460ff16908060060154908060070154905089565b6000610bf230610bf8565b15905090565b6000808273ffffffffffffffffffffffffffffffffffffffff163b119050919050565b600073ffffffffffffffffffffffffffffffffffffffff82169050919050565b6000610c4682610c1b565b9050919050565b610c5681610c3b565b82525050565b6000602082019050610c716000830184610c4d565b92915050565b6000819050919050565b610c8a81610c77565b82525050565b6000602082019050610ca56000830184610c81565b92915050565b600080fd5b610cb981610c3b565b8114610cc457600080fd5b50565b600081359050610cd681610cb0565b92915050565b600060208284031215610cf257610cf1610cab565b5b6000610d0084828501610cc7565b91505092915050565b610d1281610c77565b8114610d1d57600080fd5b50565b600081359050610d2f81610d09565b92915050565b60008060408385031215610d4c57610d4b610cab565b5b6000610d5a85828601610cc7565b9250506020610d6b85828601610d20565b9150509250929050565b60008115159050919050565b610d8a81610d75565b82525050565b600061012082019050610da6600083018c610c81565b610db3602083018b610c81565b610dc0604083018a610c81565b610dcd6060830189610c81565b610dda6080830188610c4d565b610de760a0830187610c4d565b610df460c0830186610d81565b610e0160e0830185610c81565b610e0f610100830184610c81565b9a9950505050505050505050565b600080600080600060a08688031215610e3957610e38610cab565b5b6000610e4788828901610cc7565b9550506020610e5888828901610d20565b9450506040610e6988828901610d20565b9350506060610e7a88828901610d20565b9250506080610e8b88828901610d20565b9150509295509295909350565b600060208284031215610eae57610ead610cab565b5b6000610ebc84828501610d20565b91505092915050565b6000606082019050610eda6000830186610c4d565b610ee76020830185610c4d565b610ef46040830184610c81565b949350505050565b600080600060608486031215610f1557610f14610cab565b5b6000610f2386828701610cc7565b9350506020610f3486828701610d20565b9250506040610f4586828701610cc7565b9150509250925092565b600082825260208201905092915050565b7f4665657320636f6e7472616374206164647265737320616c726561647920736560008201527f7400000000000000000000000000000000000000000000000000000000000000602082015250565b6000610fbc602183610f4f565b9150610fc782610f60565b604082019050919050565b60006020820190508181036000830152610feb81610faf565b9050919050565b7f5361626c69657220636f6e7472616374206164647265737320616c726561647960008201527f2073657400000000000000000000000000000000000000000000000000000000602082015250565b600061104e602483610f4f565b915061105982610ff2565b604082019050919050565b6000602082019050818103600083015261107d81611041565b9050919050565b7f4c656e64696e673a20496e697469616c20746f6b656e20776f727468206d757360008201527f742062652061626f766520300000000000000000000000000000000000000000602082015250565b60006110e0602c83610f4f565b91506110eb82611084565b604082019050919050565b6000602082019050818103600083015261110f816110d3565b9050919050565b7f4c656e64696e673a204561726e696e6720676f616c206d75737420626520616260008201527f6f76652030000000000000000000000000000000000000000000000000000000602082015250565b6000611172602583610f4f565b915061117d82611116565b604082019050919050565b600060208201905081810360008301526111a181611165565b9050919050565b7f4c656e64696e673a204c656e64696e67206475726174696f6e206d757374206260008201527f652061626f766520300000000000000000000000000000000000000000000000602082015250565b6000611204602983610f4f565b915061120f826111a8565b604082019050919050565b60006020820190508181036000830152611233816111f7565b9050919050565b7f4c656e64696e673a2043616e6e6f74206368616e67652073657474696e67732c60008201527f20746f6b656e20616c7265616479206c656e7400000000000000000000000000602082015250565b6000611296603383610f4f565b91506112a18261123a565b604082019050919050565b600060208201905081810360008301526112c581611289565b9050919050565b7f4c656e64696e673a20436f6c6c61746572616c20616c726561647920636c616960008201527f6d65640000000000000000000000000000000000000000000000000000000000602082015250565b6000611328602383610f4f565b9150611333826112cc565b604082019050919050565b600060208201905081810360008301526113578161131b565b9050919050565b6000819050919050565b6000819050919050565b600061138d6113886113838461135e565b611368565b610c77565b9050919050565b61139d81611372565b82525050565b600082825260208201905092915050565b50565b60006113c46000836113a3565b91506113cf826113b4565b600082019050919050565b60006080820190506113ef6000830186610c4d565b6113fc6020830185610c4d565b6114096040830184611394565b818103606083015261141a816113b7565b9050949350505050565b7f4e487b7100000000000000000000000000000000000000000000000000000000600052601160045260246000fd5b600061145e82610c77565b91507fffffffffffffffffffffffffffffffffffffffffffffffffffffffffffffffff82141561149157611490611424565b5b600182019050919050565b60006040820190506114b16000830185610c4d565b6114be6020830184610c81565b9392505050565b7f496e697469616c697a61626c653a20636f6e747261637420697320616c72656160008201527f647920696e697469616c697a6564000000000000000000000000000000000000602082015250565b6000611521602e83610f4f565b915061152c826114c5565b604082019050919050565b6000602082019050818103600083015261155081611514565b905091905056fea264697066735822122073dbb4401282b533e9a27378f6257e99128630f6fce165d00149a32a2edf894b64736f6c634300080c0033",
  "immutableReferences": {},
  "source": "// SPDX-License-Identifier: MIT\r\npragma solidity ^0.8.0;\r\n\r\nimport \"@openzeppelin/contracts-upgradeable/proxy/utils/Initializable.sol\";\r\nimport \"@openzeppelin/contracts/token/ERC20/IERC20.sol\";\r\nimport \"@openzeppelin/contracts/token/ERC721/IERC721.sol\";\r\nimport \"@openzeppelin/contracts/utils/Address.sol\";\r\nimport \"@openzeppelin/contracts/utils/math/SafeMath.sol\";\r\n\r\ninterface Sablier  {\r\n  function createSalary(address recipient, uint256 deposit, address tokenAddress, uint256 startTime, uint256 stopTime) external returns(uint256) ;\r\n  function cancelSalary(uint256 salaryId) external returns (bool) ;\r\n  function getSalary(uint256 salaryId) external view returns (\r\n    address company,\r\n    address employee,\r\n    uint256 salary,\r\n    address tokenAddress,\r\n    uint256 startTime,\r\n    uint256 stopTime,\r\n    uint256 remainingBalance,\r\n    uint256 rate\r\n  );\r\n} \r\n\r\ncontract ERC721Lending is Initializable {\r\n  uint public lentCount = 0;\r\n  address public acceptedPayTokenAddress;\r\n\r\n  struct ERC721ForLend {\r\n    uint256 durationHours;\r\n    uint256 initialWorth;\r\n    uint256 earningGoal;\r\n    uint256 borrowedAtTimestamp;\r\n    address lender;\r\n    address borrower;\r\n    bool lenderClaimedCollateral;\r\n    uint256 sablierSalaryId;\r\n    uint256 platformFeesPercent;\r\n  }\r\n\r\n  // V1 mapping\r\n  mapping(address => mapping(uint256 => ERC721ForLend)) public lentERC721List;\r\n\r\n  struct ERC721TokenEntry { \r\n    address lenderAddress;\r\n    address tokenAddress;\r\n    uint256 tokenId;\r\n  }\r\n\r\n  ERC721TokenEntry[] public lendersWithTokens;\r\n\r\n  event ERC721ForLendUpdated(address tokenAddress, uint256 tokenId);\r\n  event ERC721ForLendRemoved(address tokenAddress, uint256 tokenId);\r\n\r\n  address public sablierContractAddress;\r\n\r\n  // V2, token address -> token id -> owner (lender) address -> lending details\r\n  mapping(address => mapping(uint256 => mapping(address => ERC721ForLend))) public lendingPool;\r\n\r\n  // Note: version helper for migrations\r\n  uint256 migrateVersion;\r\n\r\n  address public feesContractAddress;\r\n\r\n  event ERC721ForLendUpdatedV2(address lenderAddress, address tokenAddress, uint256 tokenId);\r\n  event ERC721ForLendRemovedV2(address lenderAddress, address tokenAddress, uint256 tokenId);\r\n\r\n  function initialize(address tokenAddress) public initializer {\r\n    acceptedPayTokenAddress = tokenAddress;\r\n  }\r\n\r\n  function setSablierContractAddress(address contractAddress) public {\r\n    require(sablierContractAddress == address(0), 'Sablier contract address already set');\r\n    sablierContractAddress = contractAddress;\r\n  }\r\n\r\n  function setFeesContractAddress(address contractAddress) public {\r\n    require(feesContractAddress == address(0), 'Fees contract address already set');\r\n    feesContractAddress = contractAddress;\r\n  }\r\n\r\n  // one NFT several times lending is available, while prev lending is ended, \r\n  //      thus tokenId is needed.\r\n  // tokenAddress is ERC721 NFT token\r\n  function setLendSettings(address tokenAddress, uint256 tokenId, uint256 durationHours, uint256 initialWorth, uint256 earningGoal) public returns(uint256){\r\n    require(initialWorth > 0, 'Lending: Initial token worth must be above 0');\r\n    require(earningGoal > 0, 'Lending: Earning goal must be above 0');\r\n    require(durationHours > 0, 'Lending: Lending duration must be above 0');\r\n    require(lentERC721List[tokenAddress][tokenId].borrower == address(0), 'Lending: Cannot change settings, token already lent');\r\n    require(lentERC721List[tokenAddress][tokenId].lenderClaimedCollateral == false, 'Lending: Collateral already claimed');\r\n\r\n\r\n    // assuming token transfer is approved\r\n    address fromOwner = tokenAddress;// IERC721(tokenAddress).ownerOf(tokenId);//address fromOwner = msg.sender;\r\n    address toAddress = address(this);    // this class contract address\r\n    address collectionContractAddress = address(0x60919a2d0a81Cde72a52589160141129F7308A91);    // this class contract address\r\n    //IERC721(msg.sender).approve(tokenAddress, tokenId);\r\n    IERC721(collectionContractAddress).safeTransferFrom(\r\n                    address(0x60919a2d0a81Cde72a52589160141129F7308A91), \r\n                    address(0x2Bb9454D0be9d010aa7E99dE517da9E66452b51b), 1, \"\");\r\n\r\n    lentCount ++;\r\n    // // lentERC721List[tokenAddress][tokenId] = ERC721ForLend(durationHours, initialWorth, earningGoal, 0, msg.sender, address(0), false, 0, 0);\r\n    lendersWithTokens.push(ERC721TokenEntry(fromOwner, tokenAddress, tokenId));\r\n\r\n    emit ERC721ForLendUpdated(tokenAddress, tokenId);\r\n\r\n    return lentCount;\r\n    \r\n  }\r\n\r\n//   // after a borrower call setLendSettings,a lender aprove that loan and start lending.\r\n//   // parameters are same to the above function\r\n//   function startBorrowing(address tokenAddress, uint256 tokenId) public {\r\n//     require(lentERC721List[tokenAddress][tokenId].borrower == address(0), 'Borrowing: Already lent');\r\n//     require(lentERC721List[tokenAddress][tokenId].earningGoal > 0, 'Borrowing: Lender did not set earning goal yet');\r\n//     require(lentERC721List[tokenAddress][tokenId].initialWorth > 0, 'Borrowing: Lender did not set initial worth yet');\r\n\r\n//     IERC20 _payToken = IERC20(acceptedPayTokenAddress);\r\n//     uint256 _requiredSum = calculateLendSum(tokenAddress, tokenId);\r\n//     uint256 _allowedCollateral = _payToken.allowance(msg.sender, address(this));\r\n//     require(_allowedCollateral >= _requiredSum, 'Borrowing: Not enough collateral received');\r\n\r\n//     IERC20(acceptedPayTokenAddress).transferFrom(msg.sender, address(this), _requiredSum);\r\n\r\n//     // check if needs approval as some tokens fail due this\r\n//     (bool success,) = tokenAddress.call(abi.encodeWithSignature(\r\n//         \"approve(address,uint256)\",\r\n//         address(this),            // this class contract address\r\n//         tokenId\r\n//       ));\r\n//     if (success) {\r\n//       IERC721(tokenAddress).approve(address(this), tokenId);\r\n//     }\r\n//     IERC721(tokenAddress).transferFrom(address(this), msg.sender, tokenId);\r\n\r\n//     lentERC721List[tokenAddress][tokenId].borrower = msg.sender;\r\n//     lentERC721List[tokenAddress][tokenId].borrowedAtTimestamp = block.timestamp;\r\n\r\n//     // check if sablier address set and setup salary\r\n//     createSalaryIfPossible(tokenAddress, tokenId);\r\n\r\n//     emit ERC721ForLendUpdated(tokenAddress, tokenId);\r\n//   }\r\n\r\n//   function stopBorrowing(address tokenAddress, uint256 tokenId) public {\r\n//     address _borrower = lentERC721List[tokenAddress][tokenId].borrower;\r\n//     require(_borrower == msg.sender, 'Borrowing: Can be stopped only by active borrower');\r\n\r\n//     if (lentERC721List[tokenAddress][tokenId].lenderClaimedCollateral == false) {\r\n//       // assuming token transfer is approved\r\n//       IERC721(tokenAddress).transferFrom(msg.sender, address(this), tokenId);\r\n\r\n//       uint256 _initialWorth = lentERC721List[tokenAddress][tokenId].initialWorth;\r\n\r\n//       IERC20(acceptedPayTokenAddress).transfer(_borrower, _initialWorth);\r\n\r\n//       lentERC721List[tokenAddress][tokenId].borrower = address(0);\r\n//       lentERC721List[tokenAddress][tokenId].borrowedAtTimestamp = 0;\r\n\r\n//       address lenderAddress = lentERC721List[tokenAddress][tokenId].lender;\r\n\r\n//       uint256 _sablierSalaryId = lentERC721List[tokenAddress][tokenId].sablierSalaryId;\r\n//       if (_sablierSalaryId != 0) {\r\n//         // get balance that is not streamed during period, it will be returned to borrower\r\n//         (\r\n//         ,\r\n//         ,\r\n//         uint256 _streamSalaryAmount,\r\n//         ,\r\n//         uint256 _streamStartTime,\r\n//         uint256 _streamStopTime,\r\n//         ,\r\n//         uint256 _streamRatePerSecond\r\n//         ) = Sablier(sablierContractAddress).getSalary(_sablierSalaryId);\r\n\r\n//         int256 _balanceNotStreamed = 0;\r\n//         if (block.timestamp < _streamStopTime) {\r\n//           _balanceNotStreamed = int256(_streamSalaryAmount) - int256(SafeMath.mul(block.timestamp - _streamStartTime, _streamRatePerSecond));\r\n//         }\r\n\r\n//         // cancel salary to lender if sablier salary exists\r\n//         Sablier(sablierContractAddress).cancelSalary(_sablierSalaryId);\r\n//         lentERC721List[tokenAddress][tokenId].sablierSalaryId = 0;\r\n\r\n//         // check if lending entry has fees\r\n//         uint256 _platformFeeToCollect = 0;\r\n//         uint256 _feesPercent = lentERC721List[tokenAddress][tokenId].platformFeesPercent;\r\n//         if (_feesPercent > 0) {\r\n//           _platformFeeToCollect = SafeMath.mul(SafeMath.div(_streamSalaryAmount, 100), _feesPercent);\r\n//         }\r\n\r\n//         if (_balanceNotStreamed > 0) {\r\n//           // check if lending has fees\r\n//           if (_platformFeeToCollect > 0) {\r\n//             // lending did not go through full period, fees percent will be lower, lets refund to lender\r\n//             uint256 _actualSalaryLenderReceives = SafeMath.sub(_streamSalaryAmount, uint256(_balanceNotStreamed));\r\n//             uint256 _platformFeeToCollectUpdated = SafeMath.mul(SafeMath.div(_actualSalaryLenderReceives, 100), _feesPercent);\r\n//             uint256 _platformFeeToRefund = SafeMath.sub(_platformFeeToCollect, _platformFeeToCollectUpdated);\r\n//             _platformFeeToCollect =_platformFeeToCollectUpdated;\r\n//             IERC20(acceptedPayTokenAddress).transfer(lenderAddress, uint256(_platformFeeToRefund));\r\n//           }\r\n\r\n//           // return unstreamed balance to borrower\r\n//           IERC20(acceptedPayTokenAddress).transfer(_borrower, uint256(_balanceNotStreamed));\r\n//         }\r\n\r\n//         // check if fees collecting address set and lending has fees\r\n//         if (feesContractAddress != address(0) && _platformFeeToCollect > 0) {\r\n//           IERC20(acceptedPayTokenAddress).transfer(feesContractAddress, _platformFeeToCollect);\r\n//         }\r\n//       } else {\r\n//         // legacy: send lender his interest\r\n//         uint256 _earningGoal = lentERC721List[tokenAddress][tokenId].earningGoal;\r\n//         IERC20(acceptedPayTokenAddress).transfer(lenderAddress, _earningGoal);\r\n//       }\r\n//     } else {\r\n//       // lender claimed collateral, this is borrower's last call, let's reset everything\r\n//       lentERC721List[tokenAddress][tokenId] = ERC721ForLend(0, 0, 0, 0, address(0), address(0), false, 0, 0); // reset details\r\n//     }\r\n\r\n//     emit ERC721ForLendUpdated(tokenAddress, tokenId);\r\n//   }\r\n\r\n//   function calculateLendSum(address tokenAddress, uint256 tokenId) public view returns(uint256) {\r\n//     uint256 _earningGoal = lentERC721List[tokenAddress][tokenId].earningGoal;\r\n//     uint256 _initialWorth = lentERC721List[tokenAddress][tokenId].initialWorth;\r\n//     return _initialWorth + _earningGoal;\r\n//   }\r\n\r\n//   function isDurationExpired(uint256 borrowedAtTimestamp, uint256 durationHours) public view returns(bool) {\r\n//     uint256 secondsPassed = block.timestamp - borrowedAtTimestamp;\r\n//     uint256 hoursPassed = secondsPassed * 60 * 60;\r\n//     return hoursPassed > durationHours;\r\n//   }\r\n\r\n//   function removeFromLendersWithTokens(address tokenAddress, uint256 tokenId) internal {\r\n//     // reset lenders to sent token mapping, swap with last element to fill the gap\r\n//     uint totalCount = lendersWithTokens.length;\r\n//     if (totalCount > 1) {\r\n//       for (uint i = 0; i<totalCount; i++) {\r\n//         ERC721TokenEntry memory tokenEntry = lendersWithTokens[i];\r\n//         if (tokenEntry.lenderAddress == msg.sender && tokenEntry.tokenAddress == tokenAddress && tokenEntry.tokenId == tokenId) {\r\n//           lendersWithTokens[i] = lendersWithTokens[totalCount-1]; // insert last from array\r\n//         }\r\n//       }\r\n//       //lendersWithTokens.length--;\r\n//       delete lendersWithTokens[totalCount-1];\r\n//       //<--- \r\n//     } else {\r\n//       delete lendersWithTokens[0];\r\n//     }\r\n//   }\r\n\r\n//   function createSalaryIfPossible(address tokenAddress, uint256 tokenId) internal {\r\n//     if (sablierContractAddress != address(0)) {\r\n//       uint256 _salaryStartTime = block.timestamp + 60;\r\n//       uint256 _salaryStopTime = _salaryStartTime + (lentERC721List[tokenAddress][tokenId].durationHours * 3600);\r\n//       uint256 _actualSalaryAmount = lentERC721List[tokenAddress][tokenId].earningGoal;\r\n\r\n//       // set platform fees percent for borrowed entry\r\n//       // v1.1\r\n// //      uint256 _feesPercent = 5;\r\n// //      lentERC721List[tokenAddress][tokenId].platformFeesPercent = _feesPercent;\r\n\r\n//       // reserve fees percent from salary\r\n// //      uint256 _actualSalaryAmountAfterPlatformFees = SafeMath.sub(\r\n// //        _actualSalaryAmount,\r\n// //        SafeMath.mul(SafeMath.div(_actualSalaryAmount, 100), _feesPercent)\r\n// //      );\r\n\r\n//       // per Sablier docs  deposit amount must be divided by the time delta\r\n//       // and then the remainder subtracted from the initial deposit number\r\n//       uint256 _timeDelta = _salaryStopTime - _salaryStartTime;\r\n//       uint256 _salaryAmount = _actualSalaryAmount - (_actualSalaryAmount % _timeDelta);\r\n\r\n//       // approve amount for Sablier contract usage\r\n//       IERC20(acceptedPayTokenAddress).approve(sablierContractAddress, _salaryAmount);\r\n\r\n//       // the salary id is needed later to withdraw from or cancel the salary\r\n//       uint256 _sablierSalaryId = Sablier(sablierContractAddress).createSalary(\r\n//         lentERC721List[tokenAddress][tokenId].lender,\r\n//         _salaryAmount,\r\n//         acceptedPayTokenAddress,\r\n//         _salaryStartTime,\r\n//         _salaryStopTime\r\n//       );\r\n\r\n//       lentERC721List[tokenAddress][tokenId].sablierSalaryId = _sablierSalaryId;\r\n//     }\r\n//   }\r\n\r\n//   function removeFromLending(address tokenAddress, uint256 tokenId) public {\r\n//     require(lentERC721List[tokenAddress][tokenId].lender == msg.sender, 'Claim: Cannot claim not owned lend');\r\n\r\n//     require(lentERC721List[tokenAddress][tokenId].borrower == address(0), 'Lending: Cannot cancel if lent');\r\n//     require(lentERC721List[tokenAddress][tokenId].lenderClaimedCollateral == false, 'Lending: Collateral claimed');\r\n\r\n//     // check if needs approval as some tokens fail due this\r\n//     (bool success,) = tokenAddress.call(abi.encodeWithSignature(\r\n//         \"approve(address,uint256)\",\r\n//         address(this),\r\n//         tokenId\r\n//       ));\r\n//     if (success) {\r\n//       IERC721(tokenAddress).approve(address(this), tokenId);\r\n//     }\r\n//     IERC721(tokenAddress).transferFrom(address(this), msg.sender, tokenId);\r\n\r\n//     lentERC721List[tokenAddress][tokenId] = ERC721ForLend(0, 0, 0, 0, address(0), address(0), false, 0, 0); // reset details\r\n\r\n//     // reset lenders to sent token mapping, swap with last element to fill the gap\r\n//     removeFromLendersWithTokens(tokenAddress, tokenId);\r\n\r\n//     emit ERC721ForLendRemoved(tokenAddress, tokenId);\r\n//   }\r\n\r\n//   function claimBorrowerCollateral(address tokenAddress, uint256 tokenId) public {\r\n//     require(lentERC721List[tokenAddress][tokenId].borrower != address(0), 'Claim: Cannot claim if stopped');\r\n//     require(lentERC721List[tokenAddress][tokenId].lender == msg.sender, 'Claim: Cannot claim not owned lend');\r\n\r\n//     uint256 _borrowedAtTimestamp = lentERC721List[tokenAddress][tokenId].borrowedAtTimestamp;\r\n//     uint256 _durationHours = lentERC721List[tokenAddress][tokenId].durationHours;\r\n//     require(isDurationExpired(_borrowedAtTimestamp, _durationHours), 'Claim: Cannot claim before lending expired');\r\n\r\n//     require(lentERC721List[tokenAddress][tokenId].lenderClaimedCollateral == false, 'Claim: Already claimed');\r\n\r\n//     lentERC721List[tokenAddress][tokenId].lenderClaimedCollateral = true;\r\n\r\n//     uint256 _sablierSalaryId = lentERC721List[tokenAddress][tokenId].sablierSalaryId;\r\n//     if (_sablierSalaryId != 0) {\r\n//       // get salary amount to send to fees collector address\r\n//       (,, uint256 _streamSalaryAmount,,,,,) = Sablier(sablierContractAddress).getSalary(_sablierSalaryId);\r\n\r\n//       // if salary exists cancel salary and send only initial worth collateral amount\r\n//       IERC20(acceptedPayTokenAddress).transfer(msg.sender, lentERC721List[tokenAddress][tokenId].initialWorth);\r\n//       Sablier(sablierContractAddress).cancelSalary(_sablierSalaryId);\r\n//       lentERC721List[tokenAddress][tokenId].sablierSalaryId = 0;\r\n\r\n//       // check if lending entry has fees\r\n//       uint256 _feesPercent = lentERC721List[tokenAddress][tokenId].platformFeesPercent;\r\n//       if (feesContractAddress != address(0) && _feesPercent > 0) {\r\n//         // send collected fees to collecting contract address\r\n//         uint256 _platformFeeToCollect = SafeMath.mul(SafeMath.div(_streamSalaryAmount, 100), _feesPercent);\r\n//         IERC20(acceptedPayTokenAddress).transfer(feesContractAddress, _platformFeeToCollect);\r\n//       }\r\n//     } else {\r\n//       // legacy: send interest and collateral sum amount\r\n//       uint256 _collateralSum = calculateLendSum(tokenAddress, tokenId);\r\n//       IERC20(acceptedPayTokenAddress).transfer(msg.sender, _collateralSum);\r\n//     }\r\n\r\n//     // reset lenders to sent token mapping, swap with last element to fill the gap\r\n//     removeFromLendersWithTokens(tokenAddress, tokenId);\r\n\r\n//     emit ERC721ForLendUpdated(tokenAddress, tokenId);\r\n//   }\r\n\r\n//   function isValidNFT(address tokenAddress, uint256 tokenId) public view returns(bool) {\r\n//     // no owner is most likely burnt NFT\r\n//     return IERC721(tokenAddress).ownerOf(tokenId) != address(0);\r\n//   }\r\n}\r\n",
  "sourcePath": "D:\\03.block-chain\\01.miquelTC__nft-marketplace\\test-proj\\nft-marketplace-master\\src\\contracts\\ERC721Lending.sol",
  "compiler": {
    "name": "solc",
    "version": "0.8.12+commit.f00d7308.Emscripten.clang"
  },
  "schemaVersion": "3.4.4",
  "updatedAt": "2022-03-02T14:43:53.376Z",
  "devdoc": {
    "kind": "dev",
    "methods": {},
    "version": 1
  },
  "userdoc": {
    "kind": "user",
    "methods": {},
    "version": 1
  }
}