{
  "contractName": "ERC721Lending",
  "abi": [
    {
      "anonymous": false,
      "inputs": [
        {
          "indexed": false,
          "internalType": "address",
          "name": "tokenAddress",
          "type": "address"
        },
        {
          "indexed": false,
          "internalType": "uint256",
          "name": "tokenId",
          "type": "uint256"
        }
      ],
      "name": "ERC721ForLendRemoved",
      "type": "event"
    },
    {
      "anonymous": false,
      "inputs": [
        {
          "indexed": false,
          "internalType": "address",
          "name": "lenderAddress",
          "type": "address"
        },
        {
          "indexed": false,
          "internalType": "address",
          "name": "tokenAddress",
          "type": "address"
        },
        {
          "indexed": false,
          "internalType": "uint256",
          "name": "tokenId",
          "type": "uint256"
        }
      ],
      "name": "ERC721ForLendRemovedV2",
      "type": "event"
    },
    {
      "anonymous": false,
      "inputs": [
        {
          "indexed": false,
          "internalType": "address",
          "name": "tokenAddress",
          "type": "address"
        },
        {
          "indexed": false,
          "internalType": "uint256",
          "name": "tokenId",
          "type": "uint256"
        }
      ],
      "name": "ERC721ForLendUpdated",
      "type": "event"
    },
    {
      "anonymous": false,
      "inputs": [
        {
          "indexed": false,
          "internalType": "address",
          "name": "lenderAddress",
          "type": "address"
        },
        {
          "indexed": false,
          "internalType": "address",
          "name": "tokenAddress",
          "type": "address"
        },
        {
          "indexed": false,
          "internalType": "uint256",
          "name": "tokenId",
          "type": "uint256"
        }
      ],
      "name": "ERC721ForLendUpdatedV2",
      "type": "event"
    },
    {
      "inputs": [],
      "name": "acceptedPayTokenAddress",
      "outputs": [
        {
          "internalType": "address",
          "name": "",
          "type": "address"
        }
      ],
      "stateMutability": "view",
      "type": "function"
    },
    {
      "inputs": [],
      "name": "feesContractAddress",
      "outputs": [
        {
          "internalType": "address",
          "name": "",
          "type": "address"
        }
      ],
      "stateMutability": "view",
      "type": "function"
    },
    {
      "inputs": [
        {
          "internalType": "uint256",
          "name": "",
          "type": "uint256"
        }
      ],
      "name": "lendersWithTokens",
      "outputs": [
        {
          "internalType": "address",
          "name": "lenderAddress",
          "type": "address"
        },
        {
          "internalType": "address",
          "name": "tokenAddress",
          "type": "address"
        },
        {
          "internalType": "uint256",
          "name": "tokenId",
          "type": "uint256"
        }
      ],
      "stateMutability": "view",
      "type": "function"
    },
    {
      "inputs": [
        {
          "internalType": "address",
          "name": "",
          "type": "address"
        },
        {
          "internalType": "uint256",
          "name": "",
          "type": "uint256"
        },
        {
          "internalType": "address",
          "name": "",
          "type": "address"
        }
      ],
      "name": "lendingPool",
      "outputs": [
        {
          "internalType": "uint256",
          "name": "durationHours",
          "type": "uint256"
        },
        {
          "internalType": "uint256",
          "name": "initialWorth",
          "type": "uint256"
        },
        {
          "internalType": "uint256",
          "name": "earningGoal",
          "type": "uint256"
        },
        {
          "internalType": "uint256",
          "name": "borrowedAtTimestamp",
          "type": "uint256"
        },
        {
          "internalType": "address",
          "name": "lender",
          "type": "address"
        },
        {
          "internalType": "address",
          "name": "borrower",
          "type": "address"
        },
        {
          "internalType": "bool",
          "name": "lenderClaimedCollateral",
          "type": "bool"
        },
        {
          "internalType": "uint256",
          "name": "sablierSalaryId",
          "type": "uint256"
        },
        {
          "internalType": "uint256",
          "name": "platformFeesPercent",
          "type": "uint256"
        }
      ],
      "stateMutability": "view",
      "type": "function"
    },
    {
      "inputs": [],
      "name": "lentCount",
      "outputs": [
        {
          "internalType": "uint256",
          "name": "",
          "type": "uint256"
        }
      ],
      "stateMutability": "view",
      "type": "function"
    },
    {
      "inputs": [
        {
          "internalType": "address",
          "name": "",
          "type": "address"
        },
        {
          "internalType": "uint256",
          "name": "",
          "type": "uint256"
        }
      ],
      "name": "lentERC721List",
      "outputs": [
        {
          "internalType": "uint256",
          "name": "durationHours",
          "type": "uint256"
        },
        {
          "internalType": "uint256",
          "name": "initialWorth",
          "type": "uint256"
        },
        {
          "internalType": "uint256",
          "name": "earningGoal",
          "type": "uint256"
        },
        {
          "internalType": "uint256",
          "name": "borrowedAtTimestamp",
          "type": "uint256"
        },
        {
          "internalType": "address",
          "name": "lender",
          "type": "address"
        },
        {
          "internalType": "address",
          "name": "borrower",
          "type": "address"
        },
        {
          "internalType": "bool",
          "name": "lenderClaimedCollateral",
          "type": "bool"
        },
        {
          "internalType": "uint256",
          "name": "sablierSalaryId",
          "type": "uint256"
        },
        {
          "internalType": "uint256",
          "name": "platformFeesPercent",
          "type": "uint256"
        }
      ],
      "stateMutability": "view",
      "type": "function"
    },
    {
      "inputs": [],
      "name": "sablierContractAddress",
      "outputs": [
        {
          "internalType": "address",
          "name": "",
          "type": "address"
        }
      ],
      "stateMutability": "view",
      "type": "function"
    },
    {
      "inputs": [
        {
          "internalType": "address",
          "name": "tokenAddress",
          "type": "address"
        }
      ],
      "name": "initialize",
      "outputs": [],
      "stateMutability": "nonpayable",
      "type": "function"
    },
    {
      "inputs": [
        {
          "internalType": "address",
          "name": "contractAddress",
          "type": "address"
        }
      ],
      "name": "setSablierContractAddress",
      "outputs": [],
      "stateMutability": "nonpayable",
      "type": "function"
    },
    {
      "inputs": [
        {
          "internalType": "address",
          "name": "contractAddress",
          "type": "address"
        }
      ],
      "name": "setFeesContractAddress",
      "outputs": [],
      "stateMutability": "nonpayable",
      "type": "function"
    },
    {
      "inputs": [
        {
          "internalType": "address",
          "name": "tokenAddress",
          "type": "address"
        },
        {
          "internalType": "uint256",
          "name": "tokenId",
          "type": "uint256"
        },
        {
          "internalType": "uint256",
          "name": "durationHours",
          "type": "uint256"
        },
        {
          "internalType": "uint256",
          "name": "initialWorth",
          "type": "uint256"
        },
        {
          "internalType": "uint256",
          "name": "earningGoal",
          "type": "uint256"
        }
      ],
      "name": "setLendSettings",
      "outputs": [],
      "stateMutability": "nonpayable",
      "type": "function"
    },
    {
      "inputs": [
        {
          "internalType": "address",
          "name": "tokenAddress",
          "type": "address"
        },
        {
          "internalType": "uint256",
          "name": "tokenId",
          "type": "uint256"
        }
      ],
      "name": "startBorrowing",
      "outputs": [],
      "stateMutability": "nonpayable",
      "type": "function"
    },
    {
      "inputs": [
        {
          "internalType": "address",
          "name": "tokenAddress",
          "type": "address"
        },
        {
          "internalType": "uint256",
          "name": "tokenId",
          "type": "uint256"
        }
      ],
      "name": "stopBorrowing",
      "outputs": [],
      "stateMutability": "nonpayable",
      "type": "function"
    },
    {
      "inputs": [
        {
          "internalType": "address",
          "name": "tokenAddress",
          "type": "address"
        },
        {
          "internalType": "uint256",
          "name": "tokenId",
          "type": "uint256"
        }
      ],
      "name": "calculateLendSum",
      "outputs": [
        {
          "internalType": "uint256",
          "name": "",
          "type": "uint256"
        }
      ],
      "stateMutability": "view",
      "type": "function"
    },
    {
      "inputs": [
        {
          "internalType": "uint256",
          "name": "borrowedAtTimestamp",
          "type": "uint256"
        },
        {
          "internalType": "uint256",
          "name": "durationHours",
          "type": "uint256"
        }
      ],
      "name": "isDurationExpired",
      "outputs": [
        {
          "internalType": "bool",
          "name": "",
          "type": "bool"
        }
      ],
      "stateMutability": "view",
      "type": "function"
    },
    {
      "inputs": [
        {
          "internalType": "address",
          "name": "tokenAddress",
          "type": "address"
        },
        {
          "internalType": "uint256",
          "name": "tokenId",
          "type": "uint256"
        }
      ],
      "name": "removeFromLending",
      "outputs": [],
      "stateMutability": "nonpayable",
      "type": "function"
    },
    {
      "inputs": [
        {
          "internalType": "address",
          "name": "tokenAddress",
          "type": "address"
        },
        {
          "internalType": "uint256",
          "name": "tokenId",
          "type": "uint256"
        }
      ],
      "name": "claimBorrowerCollateral",
      "outputs": [],
      "stateMutability": "nonpayable",
      "type": "function"
    },
    {
      "inputs": [
        {
          "internalType": "address",
          "name": "tokenAddress",
          "type": "address"
        },
        {
          "internalType": "uint256",
          "name": "tokenId",
          "type": "uint256"
        }
      ],
      "name": "isValidNFT",
      "outputs": [
        {
          "internalType": "bool",
          "name": "",
          "type": "bool"
        }
      ],
      "stateMutability": "view",
      "type": "function"
    }
  ],
  "bytecode": "0x6080604052600060015534801561001557600080fd5b50614c47806100256000396000f3fe608060405234801561001057600080fd5b50600436106101165760003560e01c80637eca3870116100a2578063a36d2bee11610071578063a36d2bee146102d3578063afe89ab5146102ef578063c4d66de814610321578063c80d92221461033d578063ca6ddbae1461036d57610116565b80637eca38701461024757806394f583f014610263578063973e071f1461027f5780639baa72111461029b57610116565b80634c806ffc116100e95780634c806ffc146101a35780634dbbfd89146101bf578063537aa868146101db5780635e2afd961461020b57806360aecb411461022957610116565b80631e9f57a51461011b578063227893f21461014b57806322af94c5146101695780633b1a337114610187575b600080fd5b6101356004803603810190610130919061396f565b6103a5565b60405161014291906139be565b60405180910390f35b61015361046c565b60405161016091906139e8565b60405180910390f35b610171610492565b60405161017e91906139be565b60405180910390f35b6101a1600480360381019061019c919061396f565b610498565b005b6101bd60048036038101906101b8919061396f565b610ade565b005b6101d960048036038101906101d49190613a03565b611765565b005b6101f560048036038101906101f0919061396f565b61183a565b6040516102029190613a4b565b60405180910390f35b6102136118ed565b60405161022091906139e8565b60405180910390f35b610231611913565b60405161023e91906139e8565b60405180910390f35b610261600480360381019061025c919061396f565b611939565b005b61027d60048036038101906102789190613a03565b612298565b005b6102996004803603810190610294919061396f565b61236d565b005b6102b560048036038101906102b0919061396f565b612a2a565b6040516102ca99989796959493929190613a66565b60405180910390f35b6102ed60048036038101906102e89190613af3565b612ad2565b005b61030960048036038101906103049190613b6e565b612e37565b60405161031893929190613b9b565b60405180910390f35b61033b60048036038101906103369190613a03565b612eb1565b005b61035760048036038101906103529190613bd2565b612fd7565b6040516103649190613a4b565b60405180910390f35b61038760048036038101906103829190613c12565b613011565b60405161039c99989796959493929190613a66565b60405180910390f35b600080600360008573ffffffffffffffffffffffffffffffffffffffff1673ffffffffffffffffffffffffffffffffffffffff16815260200190815260200160002060008481526020019081526020016000206002015490506000600360008673ffffffffffffffffffffffffffffffffffffffff1673ffffffffffffffffffffffffffffffffffffffff168152602001908152602001600020600085815260200190815260200160002060010154905081816104629190613c94565b9250505092915050565b600560009054906101000a900473ffffffffffffffffffffffffffffffffffffffff1681565b60015481565b3373ffffffffffffffffffffffffffffffffffffffff16600360008473ffffffffffffffffffffffffffffffffffffffff1673ffffffffffffffffffffffffffffffffffffffff168152602001908152602001600020600083815260200190815260200160002060040160009054906101000a900473ffffffffffffffffffffffffffffffffffffffff1673ffffffffffffffffffffffffffffffffffffffff1614610579576040517f08c379a000000000000000000000000000000000000000000000000000000000815260040161057090613d6d565b60405180910390fd5b600073ffffffffffffffffffffffffffffffffffffffff16600360008473ffffffffffffffffffffffffffffffffffffffff1673ffffffffffffffffffffffffffffffffffffffff168152602001908152602001600020600083815260200190815260200160002060050160009054906101000a900473ffffffffffffffffffffffffffffffffffffffff1673ffffffffffffffffffffffffffffffffffffffff161461065b576040517f08c379a000000000000000000000000000000000000000000000000000000000815260040161065290613dd9565b60405180910390fd5b60001515600360008473ffffffffffffffffffffffffffffffffffffffff1673ffffffffffffffffffffffffffffffffffffffff168152602001908152602001600020600083815260200190815260200160002060050160149054906101000a900460ff16151514610702576040517f08c379a00000000000000000000000000000000000000000000000000000000081526004016106f990613e45565b60405180910390fd5b60008273ffffffffffffffffffffffffffffffffffffffff16308360405160240161072e929190613e65565b6040516020818303038152906040527f095ea7b3000000000000000000000000000000000000000000000000000000007bffffffffffffffffffffffffffffffffffffffffffffffffffffffff19166020820180517bffffffffffffffffffffffffffffffffffffffffffffffffffffffff83818316178352505050506040516107b89190613f08565b6000604051808303816000865af19150503d80600081146107f5576040519150601f19603f3d011682016040523d82523d6000602084013e6107fa565b606091505b505090508015610872578273ffffffffffffffffffffffffffffffffffffffff1663095ea7b330846040518363ffffffff1660e01b815260040161083f929190613e65565b600060405180830381600087803b15801561085957600080fd5b505af115801561086d573d6000803e3d6000fd5b505050505b8273ffffffffffffffffffffffffffffffffffffffff166323b872dd3033856040518463ffffffff1660e01b81526004016108af93929190613b9b565b600060405180830381600087803b1580156108c957600080fd5b505af11580156108dd573d6000803e3d6000fd5b5050505060405180610120016040528060008152602001600081526020016000815260200160008152602001600073ffffffffffffffffffffffffffffffffffffffff168152602001600073ffffffffffffffffffffffffffffffffffffffff168152602001600015158152602001600081526020016000815250600360008573ffffffffffffffffffffffffffffffffffffffff1673ffffffffffffffffffffffffffffffffffffffff16815260200190815260200160002060008481526020019081526020016000206000820151816000015560208201518160010155604082015181600201556060820151816003015560808201518160040160006101000a81548173ffffffffffffffffffffffffffffffffffffffff021916908373ffffffffffffffffffffffffffffffffffffffff16021790555060a08201518160050160006101000a81548173ffffffffffffffffffffffffffffffffffffffff021916908373ffffffffffffffffffffffffffffffffffffffff16021790555060c08201518160050160146101000a81548160ff02191690831515021790555060e082015181600601556101008201518160070155905050610aa083836130c6565b7f948592af2167a41ba05b6478e8646bf065736f7ccea16c304ffec4b6b441b22a8383604051610ad1929190613e65565b60405180910390a1505050565b6000600360008473ffffffffffffffffffffffffffffffffffffffff1673ffffffffffffffffffffffffffffffffffffffff168152602001908152602001600020600083815260200190815260200160002060050160009054906101000a900473ffffffffffffffffffffffffffffffffffffffff1690503373ffffffffffffffffffffffffffffffffffffffff168173ffffffffffffffffffffffffffffffffffffffff1614610bc4576040517f08c379a0000000000000000000000000000000000000000000000000000000008152600401610bbb90613f91565b60405180910390fd5b60001515600360008573ffffffffffffffffffffffffffffffffffffffff1673ffffffffffffffffffffffffffffffffffffffff168152602001908152602001600020600084815260200190815260200160002060050160149054906101000a900460ff1615151415611571578273ffffffffffffffffffffffffffffffffffffffff166323b872dd3330856040518463ffffffff1660e01b8152600401610c6e93929190613b9b565b600060405180830381600087803b158015610c8857600080fd5b505af1158015610c9c573d6000803e3d6000fd5b505050506000600360008573ffffffffffffffffffffffffffffffffffffffff1673ffffffffffffffffffffffffffffffffffffffff1681526020019081526020016000206000848152602001908152602001600020600101549050600260009054906101000a900473ffffffffffffffffffffffffffffffffffffffff1673ffffffffffffffffffffffffffffffffffffffff1663a9059cbb83836040518363ffffffff1660e01b8152600401610d55929190613e65565b6020604051808303816000875af1158015610d74573d6000803e3d6000fd5b505050506040513d601f19601f82011682018060405250810190610d989190613fdd565b506000600360008673ffffffffffffffffffffffffffffffffffffffff1673ffffffffffffffffffffffffffffffffffffffff168152602001908152602001600020600085815260200190815260200160002060050160006101000a81548173ffffffffffffffffffffffffffffffffffffffff021916908373ffffffffffffffffffffffffffffffffffffffff1602179055506000600360008673ffffffffffffffffffffffffffffffffffffffff1673ffffffffffffffffffffffffffffffffffffffff1681526020019081526020016000206000858152602001908152602001600020600301819055506000600360008673ffffffffffffffffffffffffffffffffffffffff1673ffffffffffffffffffffffffffffffffffffffff168152602001908152602001600020600085815260200190815260200160002060040160009054906101000a900473ffffffffffffffffffffffffffffffffffffffff1690506000600360008773ffffffffffffffffffffffffffffffffffffffff1673ffffffffffffffffffffffffffffffffffffffff16815260200190815260200160002060008681526020019081526020016000206006015490506000811461146e57600080600080600560009054906101000a900473ffffffffffffffffffffffffffffffffffffffff1673ffffffffffffffffffffffffffffffffffffffff166380bfacc2866040518263ffffffff1660e01b8152600401610fbe91906139be565b61010060405180830381865afa158015610fdc573d6000803e3d6000fd5b505050506040513d601f19601f820116820180604052508101906110009190614034565b9750509650965050955050506000824210156110395761102b844261102591906140ea565b836134a1565b856110369190614128565b90505b600560009054906101000a900473ffffffffffffffffffffffffffffffffffffffff1673ffffffffffffffffffffffffffffffffffffffff1663c5a66ff9876040518263ffffffff1660e01b815260040161109491906139be565b6020604051808303816000875af11580156110b3573d6000803e3d6000fd5b505050506040513d601f19601f820116820180604052508101906110d79190613fdd565b506000600360008d73ffffffffffffffffffffffffffffffffffffffff1673ffffffffffffffffffffffffffffffffffffffff16815260200190815260200160002060008c815260200190815260200160002060060181905550600080600360008e73ffffffffffffffffffffffffffffffffffffffff1673ffffffffffffffffffffffffffffffffffffffff16815260200190815260200160002060008d815260200190815260200160002060070154905060008111156111aa576111a76111a18860646134b7565b826134a1565b91505b600083131561133a5760008211156112985760006111c888856134cd565b905060006111e06111da8360646134b7565b846134a1565b905060006111ee85836134cd565b9050819450600260009054906101000a900473ffffffffffffffffffffffffffffffffffffffff1673ffffffffffffffffffffffffffffffffffffffff1663a9059cbb8d836040518363ffffffff1660e01b8152600401611250929190613e65565b6020604051808303816000875af115801561126f573d6000803e3d6000fd5b505050506040513d601f19601f820116820180604052508101906112939190613fdd565b505050505b600260009054906101000a900473ffffffffffffffffffffffffffffffffffffffff1673ffffffffffffffffffffffffffffffffffffffff1663a9059cbb8c856040518363ffffffff1660e01b81526004016112f5929190613e65565b6020604051808303816000875af1158015611314573d6000803e3d6000fd5b505050506040513d601f19601f820116820180604052508101906113389190613fdd565b505b600073ffffffffffffffffffffffffffffffffffffffff16600860009054906101000a900473ffffffffffffffffffffffffffffffffffffffff1673ffffffffffffffffffffffffffffffffffffffff16141580156113995750600082115b1561146257600260009054906101000a900473ffffffffffffffffffffffffffffffffffffffff1673ffffffffffffffffffffffffffffffffffffffff1663a9059cbb600860009054906101000a900473ffffffffffffffffffffffffffffffffffffffff16846040518363ffffffff1660e01b815260040161141d929190613e65565b6020604051808303816000875af115801561143c573d6000803e3d6000fd5b505050506040513d601f19601f820116820180604052508101906114609190613fdd565b505b50505050505050611569565b6000600360008873ffffffffffffffffffffffffffffffffffffffff1673ffffffffffffffffffffffffffffffffffffffff1681526020019081526020016000206000878152602001908152602001600020600201549050600260009054906101000a900473ffffffffffffffffffffffffffffffffffffffff1673ffffffffffffffffffffffffffffffffffffffff1663a9059cbb84836040518363ffffffff1660e01b8152600401611523929190613e65565b6020604051808303816000875af1158015611542573d6000803e3d6000fd5b505050506040513d601f19601f820116820180604052508101906115669190613fdd565b50505b505050611727565b60405180610120016040528060008152602001600081526020016000815260200160008152602001600073ffffffffffffffffffffffffffffffffffffffff168152602001600073ffffffffffffffffffffffffffffffffffffffff168152602001600015158152602001600081526020016000815250600360008573ffffffffffffffffffffffffffffffffffffffff1673ffffffffffffffffffffffffffffffffffffffff16815260200190815260200160002060008481526020019081526020016000206000820151816000015560208201518160010155604082015181600201556060820151816003015560808201518160040160006101000a81548173ffffffffffffffffffffffffffffffffffffffff021916908373ffffffffffffffffffffffffffffffffffffffff16021790555060a08201518160050160006101000a81548173ffffffffffffffffffffffffffffffffffffffff021916908373ffffffffffffffffffffffffffffffffffffffff16021790555060c08201518160050160146101000a81548160ff02191690831515021790555060e0820151816006015561010082015181600701559050505b7fff57598c219d5cf768267ac0800789e8a5705c0651c6a1f2c5f0caa47d9712138383604051611758929190613e65565b60405180910390a1505050565b600073ffffffffffffffffffffffffffffffffffffffff16600860009054906101000a900473ffffffffffffffffffffffffffffffffffffffff1673ffffffffffffffffffffffffffffffffffffffff16146117f6576040517f08c379a00000000000000000000000000000000000000000000000000000000081526004016117ed9061422e565b60405180910390fd5b80600860006101000a81548173ffffffffffffffffffffffffffffffffffffffff021916908373ffffffffffffffffffffffffffffffffffffffff16021790555050565b60008073ffffffffffffffffffffffffffffffffffffffff168373ffffffffffffffffffffffffffffffffffffffff16636352211e846040518263ffffffff1660e01b815260040161188c91906139be565b602060405180830381865afa1580156118a9573d6000803e3d6000fd5b505050506040513d601f19601f820116820180604052508101906118cd919061424e565b73ffffffffffffffffffffffffffffffffffffffff161415905092915050565b600260009054906101000a900473ffffffffffffffffffffffffffffffffffffffff1681565b600860009054906101000a900473ffffffffffffffffffffffffffffffffffffffff1681565b600073ffffffffffffffffffffffffffffffffffffffff16600360008473ffffffffffffffffffffffffffffffffffffffff1673ffffffffffffffffffffffffffffffffffffffff168152602001908152602001600020600083815260200190815260200160002060050160009054906101000a900473ffffffffffffffffffffffffffffffffffffffff1673ffffffffffffffffffffffffffffffffffffffff161415611a1c576040517f08c379a0000000000000000000000000000000000000000000000000000000008152600401611a13906142c7565b60405180910390fd5b3373ffffffffffffffffffffffffffffffffffffffff16600360008473ffffffffffffffffffffffffffffffffffffffff1673ffffffffffffffffffffffffffffffffffffffff168152602001908152602001600020600083815260200190815260200160002060040160009054906101000a900473ffffffffffffffffffffffffffffffffffffffff1673ffffffffffffffffffffffffffffffffffffffff1614611afd576040517f08c379a0000000000000000000000000000000000000000000000000000000008152600401611af490613d6d565b60405180910390fd5b6000600360008473ffffffffffffffffffffffffffffffffffffffff1673ffffffffffffffffffffffffffffffffffffffff16815260200190815260200160002060008381526020019081526020016000206003015490506000600360008573ffffffffffffffffffffffffffffffffffffffff1673ffffffffffffffffffffffffffffffffffffffff1681526020019081526020016000206000848152602001908152602001600020600001549050611bb78282612fd7565b611bf6576040517f08c379a0000000000000000000000000000000000000000000000000000000008152600401611bed90614359565b60405180910390fd5b60001515600360008673ffffffffffffffffffffffffffffffffffffffff1673ffffffffffffffffffffffffffffffffffffffff168152602001908152602001600020600085815260200190815260200160002060050160149054906101000a900460ff16151514611c9d576040517f08c379a0000000000000000000000000000000000000000000000000000000008152600401611c94906143c5565b60405180910390fd5b6001600360008673ffffffffffffffffffffffffffffffffffffffff1673ffffffffffffffffffffffffffffffffffffffff168152602001908152602001600020600085815260200190815260200160002060050160146101000a81548160ff0219169083151502179055506000600360008673ffffffffffffffffffffffffffffffffffffffff1673ffffffffffffffffffffffffffffffffffffffff16815260200190815260200160002060008581526020019081526020016000206006015490506000811461219d576000600560009054906101000a900473ffffffffffffffffffffffffffffffffffffffff1673ffffffffffffffffffffffffffffffffffffffff166380bfacc2836040518263ffffffff1660e01b8152600401611dc691906139be565b61010060405180830381865afa158015611de4573d6000803e3d6000fd5b505050506040513d601f19601f82011682018060405250810190611e089190614034565b505050505092505050600260009054906101000a900473ffffffffffffffffffffffffffffffffffffffff1673ffffffffffffffffffffffffffffffffffffffff1663a9059cbb33600360008a73ffffffffffffffffffffffffffffffffffffffff1673ffffffffffffffffffffffffffffffffffffffff1681526020019081526020016000206000898152602001908152602001600020600101546040518363ffffffff1660e01b8152600401611ec1929190613e65565b6020604051808303816000875af1158015611ee0573d6000803e3d6000fd5b505050506040513d601f19601f82011682018060405250810190611f049190613fdd565b50600560009054906101000a900473ffffffffffffffffffffffffffffffffffffffff1673ffffffffffffffffffffffffffffffffffffffff1663c5a66ff9836040518263ffffffff1660e01b8152600401611f6091906139be565b6020604051808303816000875af1158015611f7f573d6000803e3d6000fd5b505050506040513d601f19601f82011682018060405250810190611fa39190613fdd565b506000600360008873ffffffffffffffffffffffffffffffffffffffff1673ffffffffffffffffffffffffffffffffffffffff1681526020019081526020016000206000878152602001908152602001600020600601819055506000600360008873ffffffffffffffffffffffffffffffffffffffff1673ffffffffffffffffffffffffffffffffffffffff1681526020019081526020016000206000878152602001908152602001600020600701549050600073ffffffffffffffffffffffffffffffffffffffff16600860009054906101000a900473ffffffffffffffffffffffffffffffffffffffff1673ffffffffffffffffffffffffffffffffffffffff16141580156120b45750600081115b156121965760006120cf6120c98460646134b7565b836134a1565b9050600260009054906101000a900473ffffffffffffffffffffffffffffffffffffffff1673ffffffffffffffffffffffffffffffffffffffff1663a9059cbb600860009054906101000a900473ffffffffffffffffffffffffffffffffffffffff16836040518363ffffffff1660e01b8152600401612150929190613e65565b6020604051808303816000875af115801561216f573d6000803e3d6000fd5b505050506040513d601f19601f820116820180604052508101906121939190613fdd565b50505b505061224e565b60006121a986866103a5565b9050600260009054906101000a900473ffffffffffffffffffffffffffffffffffffffff1673ffffffffffffffffffffffffffffffffffffffff1663a9059cbb33836040518363ffffffff1660e01b8152600401612208929190613e65565b6020604051808303816000875af1158015612227573d6000803e3d6000fd5b505050506040513d601f19601f8201168201806040525081019061224b9190613fdd565b50505b61225885856130c6565b7fff57598c219d5cf768267ac0800789e8a5705c0651c6a1f2c5f0caa47d9712138585604051612289929190613e65565b60405180910390a15050505050565b600073ffffffffffffffffffffffffffffffffffffffff16600560009054906101000a900473ffffffffffffffffffffffffffffffffffffffff1673ffffffffffffffffffffffffffffffffffffffff1614612329576040517f08c379a000000000000000000000000000000000000000000000000000000000815260040161232090614457565b60405180910390fd5b80600560006101000a81548173ffffffffffffffffffffffffffffffffffffffff021916908373ffffffffffffffffffffffffffffffffffffffff16021790555050565b600073ffffffffffffffffffffffffffffffffffffffff16600360008473ffffffffffffffffffffffffffffffffffffffff1673ffffffffffffffffffffffffffffffffffffffff168152602001908152602001600020600083815260200190815260200160002060050160009054906101000a900473ffffffffffffffffffffffffffffffffffffffff1673ffffffffffffffffffffffffffffffffffffffff161461244f576040517f08c379a0000000000000000000000000000000000000000000000000000000008152600401612446906144c3565b60405180910390fd5b6000600360008473ffffffffffffffffffffffffffffffffffffffff1673ffffffffffffffffffffffffffffffffffffffff168152602001908152602001600020600083815260200190815260200160002060020154116124e5576040517f08c379a00000000000000000000000000000000000000000000000000000000081526004016124dc90614555565b60405180910390fd5b6000600360008473ffffffffffffffffffffffffffffffffffffffff1673ffffffffffffffffffffffffffffffffffffffff1681526020019081526020016000206000838152602001908152602001600020600101541161257b576040517f08c379a0000000000000000000000000000000000000000000000000000000008152600401612572906145e7565b60405180910390fd5b6000600260009054906101000a900473ffffffffffffffffffffffffffffffffffffffff16905060006125ae84846103a5565b905060008273ffffffffffffffffffffffffffffffffffffffff1663dd62ed3e33306040518363ffffffff1660e01b81526004016125ed929190614607565b602060405180830381865afa15801561260a573d6000803e3d6000fd5b505050506040513d601f19601f8201168201806040525081019061262e9190614630565b905081811015612673576040517f08c379a000000000000000000000000000000000000000000000000000000000815260040161266a906146cf565b60405180910390fd5b600260009054906101000a900473ffffffffffffffffffffffffffffffffffffffff1673ffffffffffffffffffffffffffffffffffffffff166323b872dd3330856040518463ffffffff1660e01b81526004016126d293929190613b9b565b6020604051808303816000875af11580156126f1573d6000803e3d6000fd5b505050506040513d601f19601f820116820180604052508101906127159190613fdd565b5060008573ffffffffffffffffffffffffffffffffffffffff163086604051602401612742929190613e65565b6040516020818303038152906040527f095ea7b3000000000000000000000000000000000000000000000000000000007bffffffffffffffffffffffffffffffffffffffffffffffffffffffff19166020820180517bffffffffffffffffffffffffffffffffffffffffffffffffffffffff83818316178352505050506040516127cc9190613f08565b6000604051808303816000865af19150503d8060008114612809576040519150601f19603f3d011682016040523d82523d6000602084013e61280e565b606091505b505090508015612886578573ffffffffffffffffffffffffffffffffffffffff1663095ea7b330876040518363ffffffff1660e01b8152600401612853929190613e65565b600060405180830381600087803b15801561286d57600080fd5b505af1158015612881573d6000803e3d6000fd5b505050505b8573ffffffffffffffffffffffffffffffffffffffff166323b872dd3033886040518463ffffffff1660e01b81526004016128c393929190613b9b565b600060405180830381600087803b1580156128dd57600080fd5b505af11580156128f1573d6000803e3d6000fd5b5050505033600360008873ffffffffffffffffffffffffffffffffffffffff1673ffffffffffffffffffffffffffffffffffffffff168152602001908152602001600020600087815260200190815260200160002060050160006101000a81548173ffffffffffffffffffffffffffffffffffffffff021916908373ffffffffffffffffffffffffffffffffffffffff16021790555042600360008873ffffffffffffffffffffffffffffffffffffffff1673ffffffffffffffffffffffffffffffffffffffff1681526020019081526020016000206000878152602001908152602001600020600301819055506129e986866134e3565b7fff57598c219d5cf768267ac0800789e8a5705c0651c6a1f2c5f0caa47d9712138686604051612a1a929190613e65565b60405180910390a1505050505050565b6003602052816000526040600020602052806000526040600020600091509150508060000154908060010154908060020154908060030154908060040160009054906101000a900473ffffffffffffffffffffffffffffffffffffffff16908060050160009054906101000a900473ffffffffffffffffffffffffffffffffffffffff16908060050160149054906101000a900460ff16908060060154908060070154905089565b60008211612b15576040517f08c379a0000000000000000000000000000000000000000000000000000000008152600401612b0c90614761565b60405180910390fd5b60008111612b58576040517f08c379a0000000000000000000000000000000000000000000000000000000008152600401612b4f906147f3565b60405180910390fd5b60008311612b9b576040517f08c379a0000000000000000000000000000000000000000000000000000000008152600401612b9290614885565b60405180910390fd5b600073ffffffffffffffffffffffffffffffffffffffff16600360008773ffffffffffffffffffffffffffffffffffffffff1673ffffffffffffffffffffffffffffffffffffffff168152602001908152602001600020600086815260200190815260200160002060050160009054906101000a900473ffffffffffffffffffffffffffffffffffffffff1673ffffffffffffffffffffffffffffffffffffffff1614612c7d576040517f08c379a0000000000000000000000000000000000000000000000000000000008152600401612c7490614917565b60405180910390fd5b60001515600360008773ffffffffffffffffffffffffffffffffffffffff1673ffffffffffffffffffffffffffffffffffffffff168152602001908152602001600020600086815260200190815260200160002060050160149054906101000a900460ff16151514612d24576040517f08c379a0000000000000000000000000000000000000000000000000000000008152600401612d1b906149a9565b60405180910390fd5b60008573ffffffffffffffffffffffffffffffffffffffff16636352211e866040518263ffffffff1660e01b8152600401612d5f91906139be565b602060405180830381865afa158015612d7c573d6000803e3d6000fd5b505050506040513d601f19601f82011682018060405250810190612da0919061424e565b905060003090508673ffffffffffffffffffffffffffffffffffffffff166323b872dd8383896040518463ffffffff1660e01b8152600401612de493929190613b9b565b600060405180830381600087803b158015612dfe57600080fd5b505af1158015612e12573d6000803e3d6000fd5b5050505060016000815480929190612e29906149c9565b919050555050505050505050565b60048181548110612e4757600080fd5b90600052602060002090600302016000915090508060000160009054906101000a900473ffffffffffffffffffffffffffffffffffffffff16908060010160009054906101000a900473ffffffffffffffffffffffffffffffffffffffff16908060020154905083565b600060019054906101000a900460ff16612ed95760008054906101000a900460ff1615612ee2565b612ee16138a2565b5b612f21576040517f08c379a0000000000000000000000000000000000000000000000000000000008152600401612f1890614a84565b60405180910390fd5b60008060019054906101000a900460ff161590508015612f71576001600060016101000a81548160ff02191690831515021790555060016000806101000a81548160ff0219169083151502179055505b81600260006101000a81548173ffffffffffffffffffffffffffffffffffffffff021916908373ffffffffffffffffffffffffffffffffffffffff1602179055508015612fd35760008060016101000a81548160ff0219169083151502179055505b5050565b6000808342612fe691906140ea565b90506000603c8083612ff89190614aa4565b6130029190614aa4565b90508381119250505092915050565b600660205282600052604060002060205281600052604060002060205280600052604060002060009250925050508060000154908060010154908060020154908060030154908060040160009054906101000a900473ffffffffffffffffffffffffffffffffffffffff16908060050160009054906101000a900473ffffffffffffffffffffffffffffffffffffffff16908060050160149054906101000a900460ff16908060060154908060070154905089565b60006004805490509050600181111561341f5760005b8181101561338d576000600482815481106130fa576130f9614afe565b5b90600052602060002090600302016040518060600160405290816000820160009054906101000a900473ffffffffffffffffffffffffffffffffffffffff1673ffffffffffffffffffffffffffffffffffffffff1673ffffffffffffffffffffffffffffffffffffffff1681526020016001820160009054906101000a900473ffffffffffffffffffffffffffffffffffffffff1673ffffffffffffffffffffffffffffffffffffffff1673ffffffffffffffffffffffffffffffffffffffff16815260200160028201548152505090503373ffffffffffffffffffffffffffffffffffffffff16816000015173ffffffffffffffffffffffffffffffffffffffff1614801561323957508473ffffffffffffffffffffffffffffffffffffffff16816020015173ffffffffffffffffffffffffffffffffffffffff16145b80156132485750838160400151145b1561337957600460018461325c91906140ea565b8154811061326d5761326c614afe565b5b90600052602060002090600302016004838154811061328f5761328e614afe565b5b90600052602060002090600302016000820160009054906101000a900473ffffffffffffffffffffffffffffffffffffffff168160000160006101000a81548173ffffffffffffffffffffffffffffffffffffffff021916908373ffffffffffffffffffffffffffffffffffffffff1602179055506001820160009054906101000a900473ffffffffffffffffffffffffffffffffffffffff168160010160006101000a81548173ffffffffffffffffffffffffffffffffffffffff021916908373ffffffffffffffffffffffffffffffffffffffff160217905550600282015481600201559050505b508080613385906149c9565b9150506130dc565b50600460016004805490506133a291906140ea565b815481106133b3576133b2614afe565b5b9060005260206000209060030201600080820160006101000a81549073ffffffffffffffffffffffffffffffffffffffff02191690556001820160006101000a81549073ffffffffffffffffffffffffffffffffffffffff02191690556002820160009055505061349c565b600460008154811061343457613433614afe565b5b9060005260206000209060030201600080820160006101000a81549073ffffffffffffffffffffffffffffffffffffffff02191690556001820160006101000a81549073ffffffffffffffffffffffffffffffffffffffff0219169055600282016000905550505b505050565b600081836134af9190614aa4565b905092915050565b600081836134c59190614b5c565b905092915050565b600081836134db91906140ea565b905092915050565b600073ffffffffffffffffffffffffffffffffffffffff16600560009054906101000a900473ffffffffffffffffffffffffffffffffffffffff1673ffffffffffffffffffffffffffffffffffffffff161461389e576000603c426135489190613c94565b90506000610e10600360008673ffffffffffffffffffffffffffffffffffffffff1673ffffffffffffffffffffffffffffffffffffffff1681526020019081526020016000206000858152602001908152602001600020600001546135ad9190614aa4565b826135b89190613c94565b90506000600360008673ffffffffffffffffffffffffffffffffffffffff1673ffffffffffffffffffffffffffffffffffffffff16815260200190815260200160002060008581526020019081526020016000206002015490506000838361362091906140ea565b9050600081836136309190614b8d565b8361363b91906140ea565b9050600260009054906101000a900473ffffffffffffffffffffffffffffffffffffffff1673ffffffffffffffffffffffffffffffffffffffff1663095ea7b3600560009054906101000a900473ffffffffffffffffffffffffffffffffffffffff16836040518363ffffffff1660e01b81526004016136bc929190613e65565b6020604051808303816000875af11580156136db573d6000803e3d6000fd5b505050506040513d601f19601f820116820180604052508101906136ff9190613fdd565b506000600560009054906101000a900473ffffffffffffffffffffffffffffffffffffffff1673ffffffffffffffffffffffffffffffffffffffff1663dc7d9369600360008b73ffffffffffffffffffffffffffffffffffffffff1673ffffffffffffffffffffffffffffffffffffffff16815260200190815260200160002060008a815260200190815260200160002060040160009054906101000a900473ffffffffffffffffffffffffffffffffffffffff1684600260009054906101000a900473ffffffffffffffffffffffffffffffffffffffff168a8a6040518663ffffffff1660e01b81526004016137fa959493929190614bbe565b6020604051808303816000875af1158015613819573d6000803e3d6000fd5b505050506040513d601f19601f8201168201806040525081019061383d9190614630565b905080600360008a73ffffffffffffffffffffffffffffffffffffffff1673ffffffffffffffffffffffffffffffffffffffff1681526020019081526020016000206000898152602001908152602001600020600601819055505050505050505b5050565b60006138ad306138b3565b15905090565b6000808273ffffffffffffffffffffffffffffffffffffffff163b119050919050565b600080fd5b600073ffffffffffffffffffffffffffffffffffffffff82169050919050565b6000613906826138db565b9050919050565b613916816138fb565b811461392157600080fd5b50565b6000813590506139338161390d565b92915050565b6000819050919050565b61394c81613939565b811461395757600080fd5b50565b60008135905061396981613943565b92915050565b60008060408385031215613986576139856138d6565b5b600061399485828601613924565b92505060206139a58582860161395a565b9150509250929050565b6139b881613939565b82525050565b60006020820190506139d360008301846139af565b92915050565b6139e2816138fb565b82525050565b60006020820190506139fd60008301846139d9565b92915050565b600060208284031215613a1957613a186138d6565b5b6000613a2784828501613924565b91505092915050565b60008115159050919050565b613a4581613a30565b82525050565b6000602082019050613a606000830184613a3c565b92915050565b600061012082019050613a7c600083018c6139af565b613a89602083018b6139af565b613a96604083018a6139af565b613aa360608301896139af565b613ab060808301886139d9565b613abd60a08301876139d9565b613aca60c0830186613a3c565b613ad760e08301856139af565b613ae56101008301846139af565b9a9950505050505050505050565b600080600080600060a08688031215613b0f57613b0e6138d6565b5b6000613b1d88828901613924565b9550506020613b2e8882890161395a565b9450506040613b3f8882890161395a565b9350506060613b508882890161395a565b9250506080613b618882890161395a565b9150509295509295909350565b600060208284031215613b8457613b836138d6565b5b6000613b928482850161395a565b91505092915050565b6000606082019050613bb060008301866139d9565b613bbd60208301856139d9565b613bca60408301846139af565b949350505050565b60008060408385031215613be957613be86138d6565b5b6000613bf78582860161395a565b9250506020613c088582860161395a565b9150509250929050565b600080600060608486031215613c2b57613c2a6138d6565b5b6000613c3986828701613924565b9350506020613c4a8682870161395a565b9250506040613c5b86828701613924565b9150509250925092565b7f4e487b7100000000000000000000000000000000000000000000000000000000600052601160045260246000fd5b6000613c9f82613939565b9150613caa83613939565b9250827fffffffffffffffffffffffffffffffffffffffffffffffffffffffffffffffff03821115613cdf57613cde613c65565b5b828201905092915050565b600082825260208201905092915050565b7f436c61696d3a2043616e6e6f7420636c61696d206e6f74206f776e6564206c6560008201527f6e64000000000000000000000000000000000000000000000000000000000000602082015250565b6000613d57602283613cea565b9150613d6282613cfb565b604082019050919050565b60006020820190508181036000830152613d8681613d4a565b9050919050565b7f4c656e64696e673a2043616e6e6f742063616e63656c206966206c656e740000600082015250565b6000613dc3601e83613cea565b9150613dce82613d8d565b602082019050919050565b60006020820190508181036000830152613df281613db6565b9050919050565b7f4c656e64696e673a20436f6c6c61746572616c20636c61696d65640000000000600082015250565b6000613e2f601b83613cea565b9150613e3a82613df9565b602082019050919050565b60006020820190508181036000830152613e5e81613e22565b9050919050565b6000604082019050613e7a60008301856139d9565b613e8760208301846139af565b9392505050565b600081519050919050565b600081905092915050565b60005b83811015613ec2578082015181840152602081019050613ea7565b83811115613ed1576000848401525b50505050565b6000613ee282613e8e565b613eec8185613e99565b9350613efc818560208601613ea4565b80840191505092915050565b6000613f148284613ed7565b915081905092915050565b7f426f72726f77696e673a2043616e2062652073746f70706564206f6e6c79206260008201527f792061637469766520626f72726f776572000000000000000000000000000000602082015250565b6000613f7b603183613cea565b9150613f8682613f1f565b604082019050919050565b60006020820190508181036000830152613faa81613f6e565b9050919050565b613fba81613a30565b8114613fc557600080fd5b50565b600081519050613fd781613fb1565b92915050565b600060208284031215613ff357613ff26138d6565b5b600061400184828501613fc8565b91505092915050565b6000815190506140198161390d565b92915050565b60008151905061402e81613943565b92915050565b600080600080600080600080610100898b031215614055576140546138d6565b5b60006140638b828c0161400a565b98505060206140748b828c0161400a565b97505060406140858b828c0161401f565b96505060606140968b828c0161400a565b95505060806140a78b828c0161401f565b94505060a06140b88b828c0161401f565b93505060c06140c98b828c0161401f565b92505060e06140da8b828c0161401f565b9150509295985092959890939650565b60006140f582613939565b915061410083613939565b92508282101561411357614112613c65565b5b828203905092915050565b6000819050919050565b60006141338261411e565b915061413e8361411e565b9250827f80000000000000000000000000000000000000000000000000000000000000000182126000841215161561417957614178613c65565b5b827f7fffffffffffffffffffffffffffffffffffffffffffffffffffffffffffffff0182136000841216156141b1576141b0613c65565b5b828203905092915050565b7f4665657320636f6e7472616374206164647265737320616c726561647920736560008201527f7400000000000000000000000000000000000000000000000000000000000000602082015250565b6000614218602183613cea565b9150614223826141bc565b604082019050919050565b600060208201905081810360008301526142478161420b565b9050919050565b600060208284031215614264576142636138d6565b5b60006142728482850161400a565b91505092915050565b7f436c61696d3a2043616e6e6f7420636c61696d2069662073746f707065640000600082015250565b60006142b1601e83613cea565b91506142bc8261427b565b602082019050919050565b600060208201905081810360008301526142e0816142a4565b9050919050565b7f436c61696d3a2043616e6e6f7420636c61696d206265666f7265206c656e646960008201527f6e67206578706972656400000000000000000000000000000000000000000000602082015250565b6000614343602a83613cea565b915061434e826142e7565b604082019050919050565b6000602082019050818103600083015261437281614336565b9050919050565b7f436c61696d3a20416c726561647920636c61696d656400000000000000000000600082015250565b60006143af601683613cea565b91506143ba82614379565b602082019050919050565b600060208201905081810360008301526143de816143a2565b9050919050565b7f5361626c69657220636f6e7472616374206164647265737320616c726561647960008201527f2073657400000000000000000000000000000000000000000000000000000000602082015250565b6000614441602483613cea565b915061444c826143e5565b604082019050919050565b6000602082019050818103600083015261447081614434565b9050919050565b7f426f72726f77696e673a20416c7265616479206c656e74000000000000000000600082015250565b60006144ad601783613cea565b91506144b882614477565b602082019050919050565b600060208201905081810360008301526144dc816144a0565b9050919050565b7f426f72726f77696e673a204c656e64657220646964206e6f742073657420656160008201527f726e696e6720676f616c20796574000000000000000000000000000000000000602082015250565b600061453f602e83613cea565b915061454a826144e3565b604082019050919050565b6000602082019050818103600083015261456e81614532565b9050919050565b7f426f72726f77696e673a204c656e64657220646964206e6f742073657420696e60008201527f697469616c20776f727468207965740000000000000000000000000000000000602082015250565b60006145d1602f83613cea565b91506145dc82614575565b604082019050919050565b60006020820190508181036000830152614600816145c4565b9050919050565b600060408201905061461c60008301856139d9565b61462960208301846139d9565b9392505050565b600060208284031215614646576146456138d6565b5b60006146548482850161401f565b91505092915050565b7f426f72726f77696e673a204e6f7420656e6f75676820636f6c6c61746572616c60008201527f2072656365697665640000000000000000000000000000000000000000000000602082015250565b60006146b9602983613cea565b91506146c48261465d565b604082019050919050565b600060208201905081810360008301526146e8816146ac565b9050919050565b7f4c656e64696e673a20496e697469616c20746f6b656e20776f727468206d757360008201527f742062652061626f766520300000000000000000000000000000000000000000602082015250565b600061474b602c83613cea565b9150614756826146ef565b604082019050919050565b6000602082019050818103600083015261477a8161473e565b9050919050565b7f4c656e64696e673a204561726e696e6720676f616c206d75737420626520616260008201527f6f76652030000000000000000000000000000000000000000000000000000000602082015250565b60006147dd602583613cea565b91506147e882614781565b604082019050919050565b6000602082019050818103600083015261480c816147d0565b9050919050565b7f4c656e64696e673a204c656e64696e67206475726174696f6e206d757374206260008201527f652061626f766520300000000000000000000000000000000000000000000000602082015250565b600061486f602983613cea565b915061487a82614813565b604082019050919050565b6000602082019050818103600083015261489e81614862565b9050919050565b7f4c656e64696e673a2043616e6e6f74206368616e67652073657474696e67732c60008201527f20746f6b656e20616c7265616479206c656e7400000000000000000000000000602082015250565b6000614901603383613cea565b915061490c826148a5565b604082019050919050565b60006020820190508181036000830152614930816148f4565b9050919050565b7f4c656e64696e673a20436f6c6c61746572616c20616c726561647920636c616960008201527f6d65640000000000000000000000000000000000000000000000000000000000602082015250565b6000614993602383613cea565b915061499e82614937565b604082019050919050565b600060208201905081810360008301526149c281614986565b9050919050565b60006149d482613939565b91507fffffffffffffffffffffffffffffffffffffffffffffffffffffffffffffffff821415614a0757614a06613c65565b5b600182019050919050565b7f496e697469616c697a61626c653a20636f6e747261637420697320616c72656160008201527f647920696e697469616c697a6564000000000000000000000000000000000000602082015250565b6000614a6e602e83613cea565b9150614a7982614a12565b604082019050919050565b60006020820190508181036000830152614a9d81614a61565b9050919050565b6000614aaf82613939565b9150614aba83613939565b9250817fffffffffffffffffffffffffffffffffffffffffffffffffffffffffffffffff0483118215151615614af357614af2613c65565b5b828202905092915050565b7f4e487b7100000000000000000000000000000000000000000000000000000000600052603260045260246000fd5b7f4e487b7100000000000000000000000000000000000000000000000000000000600052601260045260246000fd5b6000614b6782613939565b9150614b7283613939565b925082614b8257614b81614b2d565b5b828204905092915050565b6000614b9882613939565b9150614ba383613939565b925082614bb357614bb2614b2d565b5b828206905092915050565b600060a082019050614bd360008301886139d9565b614be060208301876139af565b614bed60408301866139d9565b614bfa60608301856139af565b614c0760808301846139af565b969550505050505056fea2646970667358221220517263cc44f82224b9270e47a227d735ad816dfb653ede1e1d7f1335fce8273364736f6c634300080c0033",
  "immutableReferences": {},
  "source": "// SPDX-License-Identifier: MIT\r\npragma solidity ^0.8.0;\r\n\r\nimport \"@openzeppelin/contracts-upgradeable/proxy/utils/Initializable.sol\";\r\nimport \"@openzeppelin/contracts/token/ERC20/IERC20.sol\";\r\nimport \"@openzeppelin/contracts/token/ERC721/IERC721.sol\";\r\nimport \"@openzeppelin/contracts/utils/Address.sol\";\r\nimport \"@openzeppelin/contracts/utils/math/SafeMath.sol\";\r\n\r\ninterface Sablier  {\r\n  function createSalary(address recipient, uint256 deposit, address tokenAddress, uint256 startTime, uint256 stopTime) external returns(uint256) ;\r\n  function cancelSalary(uint256 salaryId) external returns (bool) ;\r\n  function getSalary(uint256 salaryId) external view returns (\r\n    address company,\r\n    address employee,\r\n    uint256 salary,\r\n    address tokenAddress,\r\n    uint256 startTime,\r\n    uint256 stopTime,\r\n    uint256 remainingBalance,\r\n    uint256 rate\r\n  );\r\n} \r\n\r\ncontract ERC721Lending is Initializable {\r\n  uint public lentCount = 0;\r\n  address public acceptedPayTokenAddress;\r\n\r\n  struct ERC721ForLend {\r\n    uint256 durationHours;\r\n    uint256 initialWorth;\r\n    uint256 earningGoal;\r\n    uint256 borrowedAtTimestamp;\r\n    address lender;\r\n    address borrower;\r\n    bool lenderClaimedCollateral;\r\n    uint256 sablierSalaryId;\r\n    uint256 platformFeesPercent;\r\n  }\r\n\r\n  // V1 mapping\r\n  mapping(address => mapping(uint256 => ERC721ForLend)) public lentERC721List;\r\n\r\n  struct ERC721TokenEntry {\r\n    address lenderAddress;\r\n    address tokenAddress;\r\n    uint256 tokenId;\r\n  }\r\n\r\n  ERC721TokenEntry[] public lendersWithTokens;\r\n\r\n  event ERC721ForLendUpdated(address tokenAddress, uint256 tokenId);\r\n  event ERC721ForLendRemoved(address tokenAddress, uint256 tokenId);\r\n\r\n  address public sablierContractAddress;\r\n\r\n  // V2, token address -> token id -> owner (lender) address -> lending details\r\n  mapping(address => mapping(uint256 => mapping(address => ERC721ForLend))) public lendingPool;\r\n\r\n  // Note: version helper for migrations\r\n  uint256 migrateVersion;\r\n\r\n  address public feesContractAddress;\r\n\r\n  event ERC721ForLendUpdatedV2(address lenderAddress, address tokenAddress, uint256 tokenId);\r\n  event ERC721ForLendRemovedV2(address lenderAddress, address tokenAddress, uint256 tokenId);\r\n\r\n  function initialize(address tokenAddress) public initializer {\r\n    acceptedPayTokenAddress = tokenAddress;\r\n  }\r\n\r\n  function setSablierContractAddress(address contractAddress) public {\r\n    require(sablierContractAddress == address(0), 'Sablier contract address already set');\r\n    sablierContractAddress = contractAddress;\r\n  }\r\n\r\n  function setFeesContractAddress(address contractAddress) public {\r\n    require(feesContractAddress == address(0), 'Fees contract address already set');\r\n    feesContractAddress = contractAddress;\r\n  }\r\n\r\n  // one NFT several times lending is available, while prev lending is ended, \r\n  //      thus tokenId is needed.\r\n  // tokenAddress is ERC721 NFT token\r\n  function setLendSettings(address tokenAddress, uint256 tokenId, uint256 durationHours, uint256 initialWorth, uint256 earningGoal) public {\r\n    require(initialWorth > 0, 'Lending: Initial token worth must be above 0');\r\n    require(earningGoal > 0, 'Lending: Earning goal must be above 0');\r\n    require(durationHours > 0, 'Lending: Lending duration must be above 0');\r\n    require(lentERC721List[tokenAddress][tokenId].borrower == address(0), 'Lending: Cannot change settings, token already lent');\r\n    require(lentERC721List[tokenAddress][tokenId].lenderClaimedCollateral == false, 'Lending: Collateral already claimed');\r\n\r\n\r\n\r\n    // assuming token transfer is approved\r\n    address fromOwner = IERC721(tokenAddress).ownerOf(tokenId);//address fromOwner = msg.sender;\r\n    address toAddress = address(this);    // this class contract address\r\n    //IERC721(tokenAddress).approve(fromOwner, tokenId);\r\n    IERC721(tokenAddress).transferFrom(fromOwner, toAddress, tokenId);\r\n\r\n    lentCount ++;\r\n    // lentERC721List[tokenAddress][tokenId] = ERC721ForLend(durationHours, initialWorth, earningGoal, 0, msg.sender, address(0), false, 0, 0);\r\n\r\n    // lendersWithTokens.push(ERC721TokenEntry(fromOwner, tokenAddress, tokenId));\r\n\r\n    // emit ERC721ForLendUpdated(tokenAddress, tokenId);\r\n  }\r\n\r\n  // after a borrower call setLendSettings,a lender aprove that loan and start lending.\r\n  // parameters are same to the above function\r\n  function startBorrowing(address tokenAddress, uint256 tokenId) public {\r\n    require(lentERC721List[tokenAddress][tokenId].borrower == address(0), 'Borrowing: Already lent');\r\n    require(lentERC721List[tokenAddress][tokenId].earningGoal > 0, 'Borrowing: Lender did not set earning goal yet');\r\n    require(lentERC721List[tokenAddress][tokenId].initialWorth > 0, 'Borrowing: Lender did not set initial worth yet');\r\n\r\n    IERC20 _payToken = IERC20(acceptedPayTokenAddress);\r\n    uint256 _requiredSum = calculateLendSum(tokenAddress, tokenId);\r\n    uint256 _allowedCollateral = _payToken.allowance(msg.sender, address(this));\r\n    require(_allowedCollateral >= _requiredSum, 'Borrowing: Not enough collateral received');\r\n\r\n    IERC20(acceptedPayTokenAddress).transferFrom(msg.sender, address(this), _requiredSum);\r\n\r\n    // check if needs approval as some tokens fail due this\r\n    (bool success,) = tokenAddress.call(abi.encodeWithSignature(\r\n        \"approve(address,uint256)\",\r\n        address(this),            // this class contract address\r\n        tokenId\r\n      ));\r\n    if (success) {\r\n      IERC721(tokenAddress).approve(address(this), tokenId);\r\n    }\r\n    IERC721(tokenAddress).transferFrom(address(this), msg.sender, tokenId);\r\n\r\n    lentERC721List[tokenAddress][tokenId].borrower = msg.sender;\r\n    lentERC721List[tokenAddress][tokenId].borrowedAtTimestamp = block.timestamp;\r\n\r\n    // check if sablier address set and setup salary\r\n    createSalaryIfPossible(tokenAddress, tokenId);\r\n\r\n    emit ERC721ForLendUpdated(tokenAddress, tokenId);\r\n  }\r\n\r\n  function stopBorrowing(address tokenAddress, uint256 tokenId) public {\r\n    address _borrower = lentERC721List[tokenAddress][tokenId].borrower;\r\n    require(_borrower == msg.sender, 'Borrowing: Can be stopped only by active borrower');\r\n\r\n    if (lentERC721List[tokenAddress][tokenId].lenderClaimedCollateral == false) {\r\n      // assuming token transfer is approved\r\n      IERC721(tokenAddress).transferFrom(msg.sender, address(this), tokenId);\r\n\r\n      uint256 _initialWorth = lentERC721List[tokenAddress][tokenId].initialWorth;\r\n\r\n      IERC20(acceptedPayTokenAddress).transfer(_borrower, _initialWorth);\r\n\r\n      lentERC721List[tokenAddress][tokenId].borrower = address(0);\r\n      lentERC721List[tokenAddress][tokenId].borrowedAtTimestamp = 0;\r\n\r\n      address lenderAddress = lentERC721List[tokenAddress][tokenId].lender;\r\n\r\n      uint256 _sablierSalaryId = lentERC721List[tokenAddress][tokenId].sablierSalaryId;\r\n      if (_sablierSalaryId != 0) {\r\n        // get balance that is not streamed during period, it will be returned to borrower\r\n        (\r\n        ,\r\n        ,\r\n        uint256 _streamSalaryAmount,\r\n        ,\r\n        uint256 _streamStartTime,\r\n        uint256 _streamStopTime,\r\n        ,\r\n        uint256 _streamRatePerSecond\r\n        ) = Sablier(sablierContractAddress).getSalary(_sablierSalaryId);\r\n\r\n        int256 _balanceNotStreamed = 0;\r\n        if (block.timestamp < _streamStopTime) {\r\n          _balanceNotStreamed = int256(_streamSalaryAmount) - int256(SafeMath.mul(block.timestamp - _streamStartTime, _streamRatePerSecond));\r\n        }\r\n\r\n        // cancel salary to lender if sablier salary exists\r\n        Sablier(sablierContractAddress).cancelSalary(_sablierSalaryId);\r\n        lentERC721List[tokenAddress][tokenId].sablierSalaryId = 0;\r\n\r\n        // check if lending entry has fees\r\n        uint256 _platformFeeToCollect = 0;\r\n        uint256 _feesPercent = lentERC721List[tokenAddress][tokenId].platformFeesPercent;\r\n        if (_feesPercent > 0) {\r\n          _platformFeeToCollect = SafeMath.mul(SafeMath.div(_streamSalaryAmount, 100), _feesPercent);\r\n        }\r\n\r\n        if (_balanceNotStreamed > 0) {\r\n          // check if lending has fees\r\n          if (_platformFeeToCollect > 0) {\r\n            // lending did not go through full period, fees percent will be lower, lets refund to lender\r\n            uint256 _actualSalaryLenderReceives = SafeMath.sub(_streamSalaryAmount, uint256(_balanceNotStreamed));\r\n            uint256 _platformFeeToCollectUpdated = SafeMath.mul(SafeMath.div(_actualSalaryLenderReceives, 100), _feesPercent);\r\n            uint256 _platformFeeToRefund = SafeMath.sub(_platformFeeToCollect, _platformFeeToCollectUpdated);\r\n            _platformFeeToCollect =_platformFeeToCollectUpdated;\r\n            IERC20(acceptedPayTokenAddress).transfer(lenderAddress, uint256(_platformFeeToRefund));\r\n          }\r\n\r\n          // return unstreamed balance to borrower\r\n          IERC20(acceptedPayTokenAddress).transfer(_borrower, uint256(_balanceNotStreamed));\r\n        }\r\n\r\n        // check if fees collecting address set and lending has fees\r\n        if (feesContractAddress != address(0) && _platformFeeToCollect > 0) {\r\n          IERC20(acceptedPayTokenAddress).transfer(feesContractAddress, _platformFeeToCollect);\r\n        }\r\n      } else {\r\n        // legacy: send lender his interest\r\n        uint256 _earningGoal = lentERC721List[tokenAddress][tokenId].earningGoal;\r\n        IERC20(acceptedPayTokenAddress).transfer(lenderAddress, _earningGoal);\r\n      }\r\n    } else {\r\n      // lender claimed collateral, this is borrower's last call, let's reset everything\r\n      lentERC721List[tokenAddress][tokenId] = ERC721ForLend(0, 0, 0, 0, address(0), address(0), false, 0, 0); // reset details\r\n    }\r\n\r\n    emit ERC721ForLendUpdated(tokenAddress, tokenId);\r\n  }\r\n\r\n  function calculateLendSum(address tokenAddress, uint256 tokenId) public view returns(uint256) {\r\n    uint256 _earningGoal = lentERC721List[tokenAddress][tokenId].earningGoal;\r\n    uint256 _initialWorth = lentERC721List[tokenAddress][tokenId].initialWorth;\r\n    return _initialWorth + _earningGoal;\r\n  }\r\n\r\n  function isDurationExpired(uint256 borrowedAtTimestamp, uint256 durationHours) public view returns(bool) {\r\n    uint256 secondsPassed = block.timestamp - borrowedAtTimestamp;\r\n    uint256 hoursPassed = secondsPassed * 60 * 60;\r\n    return hoursPassed > durationHours;\r\n  }\r\n\r\n  function removeFromLendersWithTokens(address tokenAddress, uint256 tokenId) internal {\r\n    // reset lenders to sent token mapping, swap with last element to fill the gap\r\n    uint totalCount = lendersWithTokens.length;\r\n    if (totalCount > 1) {\r\n      for (uint i = 0; i<totalCount; i++) {\r\n        ERC721TokenEntry memory tokenEntry = lendersWithTokens[i];\r\n        if (tokenEntry.lenderAddress == msg.sender && tokenEntry.tokenAddress == tokenAddress && tokenEntry.tokenId == tokenId) {\r\n          lendersWithTokens[i] = lendersWithTokens[totalCount-1]; // insert last from array\r\n        }\r\n      }\r\n      //lendersWithTokens.length--;\r\n      delete lendersWithTokens[lendersWithTokens.length-1];\r\n      //<--- \r\n    } else {\r\n      delete lendersWithTokens[0];\r\n    }\r\n  }\r\n\r\n  function createSalaryIfPossible(address tokenAddress, uint256 tokenId) internal {\r\n    if (sablierContractAddress != address(0)) {\r\n      uint256 _salaryStartTime = block.timestamp + 60;\r\n      uint256 _salaryStopTime = _salaryStartTime + (lentERC721List[tokenAddress][tokenId].durationHours * 3600);\r\n      uint256 _actualSalaryAmount = lentERC721List[tokenAddress][tokenId].earningGoal;\r\n\r\n      // set platform fees percent for borrowed entry\r\n      // v1.1\r\n//      uint256 _feesPercent = 5;\r\n//      lentERC721List[tokenAddress][tokenId].platformFeesPercent = _feesPercent;\r\n\r\n      // reserve fees percent from salary\r\n//      uint256 _actualSalaryAmountAfterPlatformFees = SafeMath.sub(\r\n//        _actualSalaryAmount,\r\n//        SafeMath.mul(SafeMath.div(_actualSalaryAmount, 100), _feesPercent)\r\n//      );\r\n\r\n      // per Sablier docs  deposit amount must be divided by the time delta\r\n      // and then the remainder subtracted from the initial deposit number\r\n      uint256 _timeDelta = _salaryStopTime - _salaryStartTime;\r\n      uint256 _salaryAmount = _actualSalaryAmount - (_actualSalaryAmount % _timeDelta);\r\n\r\n      // approve amount for Sablier contract usage\r\n      IERC20(acceptedPayTokenAddress).approve(sablierContractAddress, _salaryAmount);\r\n\r\n      // the salary id is needed later to withdraw from or cancel the salary\r\n      uint256 _sablierSalaryId = Sablier(sablierContractAddress).createSalary(\r\n        lentERC721List[tokenAddress][tokenId].lender,\r\n        _salaryAmount,\r\n        acceptedPayTokenAddress,\r\n        _salaryStartTime,\r\n        _salaryStopTime\r\n      );\r\n\r\n      lentERC721List[tokenAddress][tokenId].sablierSalaryId = _sablierSalaryId;\r\n    }\r\n  }\r\n\r\n  function removeFromLending(address tokenAddress, uint256 tokenId) public {\r\n    require(lentERC721List[tokenAddress][tokenId].lender == msg.sender, 'Claim: Cannot claim not owned lend');\r\n\r\n    require(lentERC721List[tokenAddress][tokenId].borrower == address(0), 'Lending: Cannot cancel if lent');\r\n    require(lentERC721List[tokenAddress][tokenId].lenderClaimedCollateral == false, 'Lending: Collateral claimed');\r\n\r\n    // check if needs approval as some tokens fail due this\r\n    (bool success,) = tokenAddress.call(abi.encodeWithSignature(\r\n        \"approve(address,uint256)\",\r\n        address(this),\r\n        tokenId\r\n      ));\r\n    if (success) {\r\n      IERC721(tokenAddress).approve(address(this), tokenId);\r\n    }\r\n    IERC721(tokenAddress).transferFrom(address(this), msg.sender, tokenId);\r\n\r\n    lentERC721List[tokenAddress][tokenId] = ERC721ForLend(0, 0, 0, 0, address(0), address(0), false, 0, 0); // reset details\r\n\r\n    // reset lenders to sent token mapping, swap with last element to fill the gap\r\n    removeFromLendersWithTokens(tokenAddress, tokenId);\r\n\r\n    emit ERC721ForLendRemoved(tokenAddress, tokenId);\r\n  }\r\n\r\n  function claimBorrowerCollateral(address tokenAddress, uint256 tokenId) public {\r\n    require(lentERC721List[tokenAddress][tokenId].borrower != address(0), 'Claim: Cannot claim if stopped');\r\n    require(lentERC721List[tokenAddress][tokenId].lender == msg.sender, 'Claim: Cannot claim not owned lend');\r\n\r\n    uint256 _borrowedAtTimestamp = lentERC721List[tokenAddress][tokenId].borrowedAtTimestamp;\r\n    uint256 _durationHours = lentERC721List[tokenAddress][tokenId].durationHours;\r\n    require(isDurationExpired(_borrowedAtTimestamp, _durationHours), 'Claim: Cannot claim before lending expired');\r\n\r\n    require(lentERC721List[tokenAddress][tokenId].lenderClaimedCollateral == false, 'Claim: Already claimed');\r\n\r\n    lentERC721List[tokenAddress][tokenId].lenderClaimedCollateral = true;\r\n\r\n    uint256 _sablierSalaryId = lentERC721List[tokenAddress][tokenId].sablierSalaryId;\r\n    if (_sablierSalaryId != 0) {\r\n      // get salary amount to send to fees collector address\r\n      (,, uint256 _streamSalaryAmount,,,,,) = Sablier(sablierContractAddress).getSalary(_sablierSalaryId);\r\n\r\n      // if salary exists cancel salary and send only initial worth collateral amount\r\n      IERC20(acceptedPayTokenAddress).transfer(msg.sender, lentERC721List[tokenAddress][tokenId].initialWorth);\r\n      Sablier(sablierContractAddress).cancelSalary(_sablierSalaryId);\r\n      lentERC721List[tokenAddress][tokenId].sablierSalaryId = 0;\r\n\r\n      // check if lending entry has fees\r\n      uint256 _feesPercent = lentERC721List[tokenAddress][tokenId].platformFeesPercent;\r\n      if (feesContractAddress != address(0) && _feesPercent > 0) {\r\n        // send collected fees to collecting contract address\r\n        uint256 _platformFeeToCollect = SafeMath.mul(SafeMath.div(_streamSalaryAmount, 100), _feesPercent);\r\n        IERC20(acceptedPayTokenAddress).transfer(feesContractAddress, _platformFeeToCollect);\r\n      }\r\n    } else {\r\n      // legacy: send interest and collateral sum amount\r\n      uint256 _collateralSum = calculateLendSum(tokenAddress, tokenId);\r\n      IERC20(acceptedPayTokenAddress).transfer(msg.sender, _collateralSum);\r\n    }\r\n\r\n    // reset lenders to sent token mapping, swap with last element to fill the gap\r\n    removeFromLendersWithTokens(tokenAddress, tokenId);\r\n\r\n    emit ERC721ForLendUpdated(tokenAddress, tokenId);\r\n  }\r\n\r\n  function isValidNFT(address tokenAddress, uint256 tokenId) public view returns(bool) {\r\n    // no owner is most likely burnt NFT\r\n    return IERC721(tokenAddress).ownerOf(tokenId) != address(0);\r\n  }\r\n}\r\n",
  "sourcePath": "D:\\03.block-chain\\01.miquelTC__nft-marketplace\\test-proj\\nft-marketplace-master\\src\\contracts\\ERC721Lending.sol",
  "compiler": {
    "name": "solc",
    "version": "0.8.12+commit.f00d7308.Emscripten.clang"
  },
  "schemaVersion": "3.4.4",
  "updatedAt": "2022-02-28T12:17:19.489Z",
  "devdoc": {
    "kind": "dev",
    "methods": {},
    "version": 1
  },
  "userdoc": {
    "kind": "user",
    "methods": {},
    "version": 1
  }
}