{
  "contractName": "GovernorMock",
  "abi": [
    {
      "inputs": [
        {
          "internalType": "string",
          "name": "name_",
          "type": "string"
        },
        {
          "internalType": "contract IVotes",
          "name": "token_",
          "type": "address"
        },
        {
          "internalType": "uint256",
          "name": "votingDelay_",
          "type": "uint256"
        },
        {
          "internalType": "uint256",
          "name": "votingPeriod_",
          "type": "uint256"
        },
        {
          "internalType": "uint256",
          "name": "quorumNumerator_",
          "type": "uint256"
        }
      ],
      "stateMutability": "nonpayable",
      "type": "constructor"
    },
    {
      "anonymous": false,
      "inputs": [
        {
          "indexed": false,
          "internalType": "uint256",
          "name": "proposalId",
          "type": "uint256"
        }
      ],
      "name": "ProposalCanceled",
      "type": "event"
    },
    {
      "anonymous": false,
      "inputs": [
        {
          "indexed": false,
          "internalType": "uint256",
          "name": "proposalId",
          "type": "uint256"
        },
        {
          "indexed": false,
          "internalType": "address",
          "name": "proposer",
          "type": "address"
        },
        {
          "indexed": false,
          "internalType": "address[]",
          "name": "targets",
          "type": "address[]"
        },
        {
          "indexed": false,
          "internalType": "uint256[]",
          "name": "values",
          "type": "uint256[]"
        },
        {
          "indexed": false,
          "internalType": "string[]",
          "name": "signatures",
          "type": "string[]"
        },
        {
          "indexed": false,
          "internalType": "bytes[]",
          "name": "calldatas",
          "type": "bytes[]"
        },
        {
          "indexed": false,
          "internalType": "uint256",
          "name": "startBlock",
          "type": "uint256"
        },
        {
          "indexed": false,
          "internalType": "uint256",
          "name": "endBlock",
          "type": "uint256"
        },
        {
          "indexed": false,
          "internalType": "string",
          "name": "description",
          "type": "string"
        }
      ],
      "name": "ProposalCreated",
      "type": "event"
    },
    {
      "anonymous": false,
      "inputs": [
        {
          "indexed": false,
          "internalType": "uint256",
          "name": "proposalId",
          "type": "uint256"
        }
      ],
      "name": "ProposalExecuted",
      "type": "event"
    },
    {
      "anonymous": false,
      "inputs": [
        {
          "indexed": false,
          "internalType": "uint256",
          "name": "oldProposalThreshold",
          "type": "uint256"
        },
        {
          "indexed": false,
          "internalType": "uint256",
          "name": "newProposalThreshold",
          "type": "uint256"
        }
      ],
      "name": "ProposalThresholdSet",
      "type": "event"
    },
    {
      "anonymous": false,
      "inputs": [
        {
          "indexed": false,
          "internalType": "uint256",
          "name": "oldQuorumNumerator",
          "type": "uint256"
        },
        {
          "indexed": false,
          "internalType": "uint256",
          "name": "newQuorumNumerator",
          "type": "uint256"
        }
      ],
      "name": "QuorumNumeratorUpdated",
      "type": "event"
    },
    {
      "anonymous": false,
      "inputs": [
        {
          "indexed": true,
          "internalType": "address",
          "name": "voter",
          "type": "address"
        },
        {
          "indexed": false,
          "internalType": "uint256",
          "name": "proposalId",
          "type": "uint256"
        },
        {
          "indexed": false,
          "internalType": "uint8",
          "name": "support",
          "type": "uint8"
        },
        {
          "indexed": false,
          "internalType": "uint256",
          "name": "weight",
          "type": "uint256"
        },
        {
          "indexed": false,
          "internalType": "string",
          "name": "reason",
          "type": "string"
        }
      ],
      "name": "VoteCast",
      "type": "event"
    },
    {
      "anonymous": false,
      "inputs": [
        {
          "indexed": false,
          "internalType": "uint256",
          "name": "oldVotingDelay",
          "type": "uint256"
        },
        {
          "indexed": false,
          "internalType": "uint256",
          "name": "newVotingDelay",
          "type": "uint256"
        }
      ],
      "name": "VotingDelaySet",
      "type": "event"
    },
    {
      "anonymous": false,
      "inputs": [
        {
          "indexed": false,
          "internalType": "uint256",
          "name": "oldVotingPeriod",
          "type": "uint256"
        },
        {
          "indexed": false,
          "internalType": "uint256",
          "name": "newVotingPeriod",
          "type": "uint256"
        }
      ],
      "name": "VotingPeriodSet",
      "type": "event"
    },
    {
      "inputs": [],
      "name": "BALLOT_TYPEHASH",
      "outputs": [
        {
          "internalType": "bytes32",
          "name": "",
          "type": "bytes32"
        }
      ],
      "stateMutability": "view",
      "type": "function"
    },
    {
      "inputs": [],
      "name": "COUNTING_MODE",
      "outputs": [
        {
          "internalType": "string",
          "name": "",
          "type": "string"
        }
      ],
      "stateMutability": "pure",
      "type": "function"
    },
    {
      "inputs": [
        {
          "internalType": "uint256",
          "name": "proposalId",
          "type": "uint256"
        },
        {
          "internalType": "uint8",
          "name": "support",
          "type": "uint8"
        }
      ],
      "name": "castVote",
      "outputs": [
        {
          "internalType": "uint256",
          "name": "",
          "type": "uint256"
        }
      ],
      "stateMutability": "nonpayable",
      "type": "function"
    },
    {
      "inputs": [
        {
          "internalType": "uint256",
          "name": "proposalId",
          "type": "uint256"
        },
        {
          "internalType": "uint8",
          "name": "support",
          "type": "uint8"
        },
        {
          "internalType": "uint8",
          "name": "v",
          "type": "uint8"
        },
        {
          "internalType": "bytes32",
          "name": "r",
          "type": "bytes32"
        },
        {
          "internalType": "bytes32",
          "name": "s",
          "type": "bytes32"
        }
      ],
      "name": "castVoteBySig",
      "outputs": [
        {
          "internalType": "uint256",
          "name": "",
          "type": "uint256"
        }
      ],
      "stateMutability": "nonpayable",
      "type": "function"
    },
    {
      "inputs": [
        {
          "internalType": "uint256",
          "name": "proposalId",
          "type": "uint256"
        },
        {
          "internalType": "uint8",
          "name": "support",
          "type": "uint8"
        },
        {
          "internalType": "string",
          "name": "reason",
          "type": "string"
        }
      ],
      "name": "castVoteWithReason",
      "outputs": [
        {
          "internalType": "uint256",
          "name": "",
          "type": "uint256"
        }
      ],
      "stateMutability": "nonpayable",
      "type": "function"
    },
    {
      "inputs": [
        {
          "internalType": "address[]",
          "name": "targets",
          "type": "address[]"
        },
        {
          "internalType": "uint256[]",
          "name": "values",
          "type": "uint256[]"
        },
        {
          "internalType": "bytes[]",
          "name": "calldatas",
          "type": "bytes[]"
        },
        {
          "internalType": "bytes32",
          "name": "descriptionHash",
          "type": "bytes32"
        }
      ],
      "name": "execute",
      "outputs": [
        {
          "internalType": "uint256",
          "name": "",
          "type": "uint256"
        }
      ],
      "stateMutability": "payable",
      "type": "function"
    },
    {
      "inputs": [
        {
          "internalType": "uint256",
          "name": "proposalId",
          "type": "uint256"
        },
        {
          "internalType": "address",
          "name": "account",
          "type": "address"
        }
      ],
      "name": "hasVoted",
      "outputs": [
        {
          "internalType": "bool",
          "name": "",
          "type": "bool"
        }
      ],
      "stateMutability": "view",
      "type": "function"
    },
    {
      "inputs": [
        {
          "internalType": "address[]",
          "name": "targets",
          "type": "address[]"
        },
        {
          "internalType": "uint256[]",
          "name": "values",
          "type": "uint256[]"
        },
        {
          "internalType": "bytes[]",
          "name": "calldatas",
          "type": "bytes[]"
        },
        {
          "internalType": "bytes32",
          "name": "descriptionHash",
          "type": "bytes32"
        }
      ],
      "name": "hashProposal",
      "outputs": [
        {
          "internalType": "uint256",
          "name": "",
          "type": "uint256"
        }
      ],
      "stateMutability": "pure",
      "type": "function"
    },
    {
      "inputs": [],
      "name": "name",
      "outputs": [
        {
          "internalType": "string",
          "name": "",
          "type": "string"
        }
      ],
      "stateMutability": "view",
      "type": "function"
    },
    {
      "inputs": [
        {
          "internalType": "uint256",
          "name": "proposalId",
          "type": "uint256"
        }
      ],
      "name": "proposalDeadline",
      "outputs": [
        {
          "internalType": "uint256",
          "name": "",
          "type": "uint256"
        }
      ],
      "stateMutability": "view",
      "type": "function"
    },
    {
      "inputs": [
        {
          "internalType": "uint256",
          "name": "proposalId",
          "type": "uint256"
        }
      ],
      "name": "proposalSnapshot",
      "outputs": [
        {
          "internalType": "uint256",
          "name": "",
          "type": "uint256"
        }
      ],
      "stateMutability": "view",
      "type": "function"
    },
    {
      "inputs": [
        {
          "internalType": "uint256",
          "name": "proposalId",
          "type": "uint256"
        }
      ],
      "name": "proposalVotes",
      "outputs": [
        {
          "internalType": "uint256",
          "name": "againstVotes",
          "type": "uint256"
        },
        {
          "internalType": "uint256",
          "name": "forVotes",
          "type": "uint256"
        },
        {
          "internalType": "uint256",
          "name": "abstainVotes",
          "type": "uint256"
        }
      ],
      "stateMutability": "view",
      "type": "function"
    },
    {
      "inputs": [
        {
          "internalType": "uint256",
          "name": "blockNumber",
          "type": "uint256"
        }
      ],
      "name": "quorum",
      "outputs": [
        {
          "internalType": "uint256",
          "name": "",
          "type": "uint256"
        }
      ],
      "stateMutability": "view",
      "type": "function"
    },
    {
      "inputs": [],
      "name": "quorumDenominator",
      "outputs": [
        {
          "internalType": "uint256",
          "name": "",
          "type": "uint256"
        }
      ],
      "stateMutability": "view",
      "type": "function"
    },
    {
      "inputs": [],
      "name": "quorumNumerator",
      "outputs": [
        {
          "internalType": "uint256",
          "name": "",
          "type": "uint256"
        }
      ],
      "stateMutability": "view",
      "type": "function"
    },
    {
      "inputs": [
        {
          "internalType": "address",
          "name": "target",
          "type": "address"
        },
        {
          "internalType": "uint256",
          "name": "value",
          "type": "uint256"
        },
        {
          "internalType": "bytes",
          "name": "data",
          "type": "bytes"
        }
      ],
      "name": "relay",
      "outputs": [],
      "stateMutability": "nonpayable",
      "type": "function"
    },
    {
      "inputs": [
        {
          "internalType": "uint256",
          "name": "newProposalThreshold",
          "type": "uint256"
        }
      ],
      "name": "setProposalThreshold",
      "outputs": [],
      "stateMutability": "nonpayable",
      "type": "function"
    },
    {
      "inputs": [
        {
          "internalType": "uint256",
          "name": "newVotingDelay",
          "type": "uint256"
        }
      ],
      "name": "setVotingDelay",
      "outputs": [],
      "stateMutability": "nonpayable",
      "type": "function"
    },
    {
      "inputs": [
        {
          "internalType": "uint256",
          "name": "newVotingPeriod",
          "type": "uint256"
        }
      ],
      "name": "setVotingPeriod",
      "outputs": [],
      "stateMutability": "nonpayable",
      "type": "function"
    },
    {
      "inputs": [
        {
          "internalType": "uint256",
          "name": "proposalId",
          "type": "uint256"
        }
      ],
      "name": "state",
      "outputs": [
        {
          "internalType": "enum IGovernor.ProposalState",
          "name": "",
          "type": "uint8"
        }
      ],
      "stateMutability": "view",
      "type": "function"
    },
    {
      "inputs": [
        {
          "internalType": "bytes4",
          "name": "interfaceId",
          "type": "bytes4"
        }
      ],
      "name": "supportsInterface",
      "outputs": [
        {
          "internalType": "bool",
          "name": "",
          "type": "bool"
        }
      ],
      "stateMutability": "view",
      "type": "function"
    },
    {
      "inputs": [],
      "name": "token",
      "outputs": [
        {
          "internalType": "contract IVotes",
          "name": "",
          "type": "address"
        }
      ],
      "stateMutability": "view",
      "type": "function"
    },
    {
      "inputs": [
        {
          "internalType": "uint256",
          "name": "newQuorumNumerator",
          "type": "uint256"
        }
      ],
      "name": "updateQuorumNumerator",
      "outputs": [],
      "stateMutability": "nonpayable",
      "type": "function"
    },
    {
      "inputs": [],
      "name": "version",
      "outputs": [
        {
          "internalType": "string",
          "name": "",
          "type": "string"
        }
      ],
      "stateMutability": "view",
      "type": "function"
    },
    {
      "inputs": [],
      "name": "votingDelay",
      "outputs": [
        {
          "internalType": "uint256",
          "name": "",
          "type": "uint256"
        }
      ],
      "stateMutability": "view",
      "type": "function"
    },
    {
      "inputs": [],
      "name": "votingPeriod",
      "outputs": [
        {
          "internalType": "uint256",
          "name": "",
          "type": "uint256"
        }
      ],
      "stateMutability": "view",
      "type": "function"
    },
    {
      "stateMutability": "payable",
      "type": "receive"
    },
    {
      "inputs": [
        {
          "internalType": "address[]",
          "name": "targets",
          "type": "address[]"
        },
        {
          "internalType": "uint256[]",
          "name": "values",
          "type": "uint256[]"
        },
        {
          "internalType": "bytes[]",
          "name": "calldatas",
          "type": "bytes[]"
        },
        {
          "internalType": "bytes32",
          "name": "salt",
          "type": "bytes32"
        }
      ],
      "name": "cancel",
      "outputs": [
        {
          "internalType": "uint256",
          "name": "proposalId",
          "type": "uint256"
        }
      ],
      "stateMutability": "nonpayable",
      "type": "function"
    },
    {
      "inputs": [
        {
          "internalType": "address",
          "name": "account",
          "type": "address"
        },
        {
          "internalType": "uint256",
          "name": "blockNumber",
          "type": "uint256"
        }
      ],
      "name": "getVotes",
      "outputs": [
        {
          "internalType": "uint256",
          "name": "",
          "type": "uint256"
        }
      ],
      "stateMutability": "view",
      "type": "function"
    },
    {
      "inputs": [],
      "name": "proposalThreshold",
      "outputs": [
        {
          "internalType": "uint256",
          "name": "",
          "type": "uint256"
        }
      ],
      "stateMutability": "view",
      "type": "function"
    },
    {
      "inputs": [
        {
          "internalType": "address[]",
          "name": "targets",
          "type": "address[]"
        },
        {
          "internalType": "uint256[]",
          "name": "values",
          "type": "uint256[]"
        },
        {
          "internalType": "bytes[]",
          "name": "calldatas",
          "type": "bytes[]"
        },
        {
          "internalType": "string",
          "name": "description",
          "type": "string"
        }
      ],
      "name": "propose",
      "outputs": [
        {
          "internalType": "uint256",
          "name": "",
          "type": "uint256"
        }
      ],
      "stateMutability": "nonpayable",
      "type": "function"
    }
  ],
  "bytecode": "0x6101606040523480156200001257600080fd5b5060405162005384380380620053848339818101604052810190620000389190620006e5565b808484846000898062000050620001a560201b60201c565b60008280519060200120905060008280519060200120905060007f8b73c3c69bb8fe3d512ecc4cf759cc79239f7b179b0ffacaa9a75d522b39400f90508260e081815250508161010081815250504660a08181525050620000b9818484620001e260201b60201c565b608081815250503073ffffffffffffffffffffffffffffffffffffffff1660c08173ffffffffffffffffffffffffffffffffffffffff1681525050806101208181525050505050505080600090805190602001906200011a929190620003e4565b50506200012d836200021e60201b60201c565b6200013e826200026560201b60201c565b6200014f81620002f260201b60201c565b5050508073ffffffffffffffffffffffffffffffffffffffff166101408173ffffffffffffffffffffffffffffffffffffffff16815250505062000199816200033960201b60201c565b50505050505062000a1f565b60606040518060400160405280600181526020017f3100000000000000000000000000000000000000000000000000000000000000815250905090565b60008383834630604051602001620001ff959493929190620007c9565b6040516020818303038152906040528051906020012090509392505050565b7fc565b045403dc03c2eea82b81a0465edad9e2e7fc4d97e11421c209da93d7a93600254826040516200025392919062000826565b60405180910390a18060028190555050565b60008111620002ab576040517f08c379a0000000000000000000000000000000000000000000000000000000008152600401620002a290620008da565b60405180910390fd5b7f7e3f7f0708a84de9203036abaa450dccc85ad5ff52f78c170f3edb55cf5e882860035482604051620002e092919062000826565b60405180910390a18060038190555050565b7fccb45da8d5717e6c4544694297c4ba5cf151d455c9bb0ed4fc7a38411bc05461600454826040516200032792919062000826565b60405180910390a18060048190555050565b62000349620003db60201b60201c565b8111156200038e576040517f08c379a0000000000000000000000000000000000000000000000000000000008152600401620003859062000998565b60405180910390fd5b60006005549050816005819055507f0553476bf02ef2726e8ce5ced78d63e26e602e4a2257b1f559418e24b46339978183604051620003cf92919062000826565b60405180910390a15050565b60006064905090565b828054620003f290620009e9565b90600052602060002090601f01602090048101928262000416576000855562000462565b82601f106200043157805160ff191683800117855562000462565b8280016001018555821562000462579182015b828111156200046157825182559160200191906001019062000444565b5b50905062000471919062000475565b5090565b5b808211156200049057600081600090555060010162000476565b5090565b6000604051905090565b600080fd5b600080fd5b600080fd5b600080fd5b6000601f19601f8301169050919050565b7f4e487b7100000000000000000000000000000000000000000000000000000000600052604160045260246000fd5b620004fd82620004b2565b810181811067ffffffffffffffff821117156200051f576200051e620004c3565b5b80604052505050565b60006200053462000494565b9050620005428282620004f2565b919050565b600067ffffffffffffffff821115620005655762000564620004c3565b5b6200057082620004b2565b9050602081019050919050565b60005b838110156200059d57808201518184015260208101905062000580565b83811115620005ad576000848401525b50505050565b6000620005ca620005c48462000547565b62000528565b905082815260208101848484011115620005e957620005e8620004ad565b5b620005f68482856200057d565b509392505050565b600082601f830112620006165762000615620004a8565b5b815162000628848260208601620005b3565b91505092915050565b600073ffffffffffffffffffffffffffffffffffffffff82169050919050565b60006200065e8262000631565b9050919050565b6000620006728262000651565b9050919050565b620006848162000665565b81146200069057600080fd5b50565b600081519050620006a48162000679565b92915050565b6000819050919050565b620006bf81620006aa565b8114620006cb57600080fd5b50565b600081519050620006df81620006b4565b92915050565b600080600080600060a086880312156200070457620007036200049e565b5b600086015167ffffffffffffffff811115620007255762000724620004a3565b5b6200073388828901620005fe565b9550506020620007468882890162000693565b94505060406200075988828901620006ce565b93505060606200076c88828901620006ce565b92505060806200077f88828901620006ce565b9150509295509295909350565b6000819050919050565b620007a1816200078c565b82525050565b620007b281620006aa565b82525050565b620007c38162000651565b82525050565b600060a082019050620007e0600083018862000796565b620007ef602083018762000796565b620007fe604083018662000796565b6200080d6060830185620007a7565b6200081c6080830184620007b8565b9695505050505050565b60006040820190506200083d6000830185620007a7565b6200084c6020830184620007a7565b9392505050565b600082825260208201905092915050565b7f476f7665726e6f7253657474696e67733a20766f74696e6720706572696f642060008201527f746f6f206c6f7700000000000000000000000000000000000000000000000000602082015250565b6000620008c260278362000853565b9150620008cf8262000864565b604082019050919050565b60006020820190508181036000830152620008f581620008b3565b9050919050565b7f476f7665726e6f72566f74657351756f72756d4672616374696f6e3a2071756f60008201527f72756d4e756d657261746f72206f7665722071756f72756d44656e6f6d696e6160208201527f746f720000000000000000000000000000000000000000000000000000000000604082015250565b60006200098060438362000853565b91506200098d82620008fc565b606082019050919050565b60006020820190508181036000830152620009b38162000971565b9050919050565b7f4e487b7100000000000000000000000000000000000000000000000000000000600052602260045260246000fd5b6000600282049050600182168062000a0257607f821691505b6020821081141562000a195762000a18620009ba565b5b50919050565b60805160a05160c05160e0516101005161012051610140516148fc62000a88600039600081816112770152818161132c01526119f801526000611bf401526000611c3601526000611c1501526000611b4a01526000611ba001526000611bc901526148fc6000f3fe6080604052600436106101d15760003560e01c80637b3c71d3116100f7578063c59057e411610095578063eb9019d411610064578063eb9019d414610751578063ece40cc11461078e578063f8ce560a146107b7578063fc0c546a146107f457610217565b8063c59057e414610695578063dd4e2ba5146106d2578063deaaa7cc146106fd578063ea0217cf1461072857610217565b8063a7713a70116100d1578063a7713a70146105d9578063b58131b014610604578063c01f9e371461062f578063c28bc2fa1461066c57610217565b80637b3c71d3146105345780637d5e81e21461057157806397c3d334146105ae57610217565b80633bccf4fd1161016f578063544ffc9c1161013e578063544ffc9c1461046457806354fd4d50146104a357806356781388146104ce57806370b0f6601461050b57610217565b80633bccf4fd146103705780633e4f49e6146103ad57806343859632146103ea578063452115d61461042757610217565b806306fdde03116101ab57806306fdde03146102ad5780632656227d146102d85780632d63f693146103085780633932abb11461034557610217565b806301ffc9a71461021c57806302a251a31461025957806306f3f9e61461028457610217565b36610217573073ffffffffffffffffffffffffffffffffffffffff166101f561081f565b73ffffffffffffffffffffffffffffffffffffffff161461021557600080fd5b005b600080fd5b34801561022857600080fd5b50610243600480360381019061023e91906126f8565b610827565b6040516102509190612740565b60405180910390f35b34801561026557600080fd5b5061026e6108a1565b60405161027b9190612774565b60405180910390f35b34801561029057600080fd5b506102ab60048036038101906102a691906127bb565b6108ab565b005b3480156102b957600080fd5b506102c2610933565b6040516102cf9190612881565b60405180910390f35b6102f260048036038101906102ed9190612cd8565b6109c5565b6040516102ff9190612774565b60405180910390f35b34801561031457600080fd5b5061032f600480360381019061032a91906127bb565b610af8565b60405161033c9190612774565b60405180910390f35b34801561035157600080fd5b5061035a610b66565b6040516103679190612774565b60405180910390f35b34801561037c57600080fd5b5061039760048036038101906103929190612dcc565b610b70565b6040516103a49190612774565b60405180910390f35b3480156103b957600080fd5b506103d460048036038101906103cf91906127bb565b610bfa565b6040516103e19190612ebe565b60405180910390f35b3480156103f657600080fd5b50610411600480360381019061040c9190612ed9565b610d0f565b60405161041e9190612740565b60405180910390f35b34801561043357600080fd5b5061044e60048036038101906104499190612cd8565b610d7a565b60405161045b9190612774565b60405180910390f35b34801561047057600080fd5b5061048b600480360381019061048691906127bb565b610d92565b60405161049a93929190612f19565b60405180910390f35b3480156104af57600080fd5b506104b8610dca565b6040516104c59190612881565b60405180910390f35b3480156104da57600080fd5b506104f560048036038101906104f09190612f50565b610e07565b6040516105029190612774565b60405180910390f35b34801561051757600080fd5b50610532600480360381019061052d91906127bb565b610e38565b005b34801561054057600080fd5b5061055b60048036038101906105569190612feb565b610ec0565b6040516105689190612774565b60405180910390f35b34801561057d57600080fd5b5061059860048036038101906105939190613100565b610f28565b6040516105a59190612774565b60405180910390f35b3480156105ba57600080fd5b506105c3610f40565b6040516105d09190612774565b60405180910390f35b3480156105e557600080fd5b506105ee610f49565b6040516105fb9190612774565b60405180910390f35b34801561061057600080fd5b50610619610f53565b6040516106269190612774565b60405180910390f35b34801561063b57600080fd5b50610656600480360381019061065191906127bb565b610f62565b6040516106639190612774565b60405180910390f35b34801561067857600080fd5b50610693600480360381019061068e919061322d565b610fd0565b005b3480156106a157600080fd5b506106bc60048036038101906106b79190612cd8565b6110a2565b6040516106c99190612774565b60405180910390f35b3480156106de57600080fd5b506106e76110de565b6040516106f49190612881565b60405180910390f35b34801561070957600080fd5b5061071261111b565b60405161071f91906132b0565b60405180910390f35b34801561073457600080fd5b5061074f600480360381019061074a91906127bb565b61113f565b005b34801561075d57600080fd5b50610778600480360381019061077391906132cb565b6111c7565b6040516107859190612774565b60405180910390f35b34801561079a57600080fd5b506107b560048036038101906107b091906127bb565b6111db565b005b3480156107c357600080fd5b506107de60048036038101906107d991906127bb565b611263565b6040516107eb9190612774565b60405180910390f35b34801561080057600080fd5b5061080961132a565b604051610816919061336a565b60405180910390f35b600030905090565b60007fbf26d897000000000000000000000000000000000000000000000000000000007bffffffffffffffffffffffffffffffffffffffffffffffffffffffff1916827bffffffffffffffffffffffffffffffffffffffffffffffffffffffff1916148061089a57506108998261134e565b5b9050919050565b6000600354905090565b6108b361081f565b73ffffffffffffffffffffffffffffffffffffffff166108d16113b8565b73ffffffffffffffffffffffffffffffffffffffff1614610927576040517f08c379a000000000000000000000000000000000000000000000000000000000815260040161091e906133d1565b60405180910390fd5b610930816113c0565b50565b60606000805461094290613420565b80601f016020809104026020016040519081016040528092919081815260200182805461096e90613420565b80156109bb5780601f10610990576101008083540402835291602001916109bb565b820191906000526020600020905b81548152906001019060200180831161099e57829003601f168201915b5050505050905090565b6000806109d4868686866110a2565b905060006109e182610bfa565b9050600460078111156109f7576109f6612e47565b5b816007811115610a0a57610a09612e47565b5b1480610a3a575060056007811115610a2557610a24612e47565b5b816007811115610a3857610a37612e47565b5b145b610a79576040517f08c379a0000000000000000000000000000000000000000000000000000000008152600401610a70906134c4565b60405180910390fd5b600180600084815260200190815260200160002060020160006101000a81548160ff0219169083151502179055507f712ae1383f79ac853f8d882153778e0260ef8f03b504e2866e0593e04d2b291f82604051610ad69190612774565b60405180910390a1610aeb8288888888611455565b8192505050949350505050565b6000610b55600160008481526020019081526020016000206000016040518060200160405290816000820160009054906101000a900467ffffffffffffffff1667ffffffffffffffff1667ffffffffffffffff1681525050611564565b67ffffffffffffffff169050919050565b6000600254905090565b600080610bd1610bc97f150214d74d59b7d1e90c73fc22ef3d991dd0a76b046543d4d80ab92d2a50328f8989604051602001610bae939291906134f3565b60405160208183030381529060405280519060200120611572565b86868661158c565b9050610bee878288604051806020016040528060008152506115b7565b91505095945050505050565b6000806001600084815260200190815260200160002090508060020160009054906101000a900460ff1615610c33576007915050610d0a565b8060020160019054906101000a900460ff1615610c54576002915050610d0a565b6000610c5f84610af8565b90506000811415610ca5576040517f08c379a0000000000000000000000000000000000000000000000000000000008152600401610c9c90613576565b60405180910390fd5b438110610cb757600092505050610d0a565b6000610cc285610f62565b9050438110610cd75760019350505050610d0a565b610ce08561170b565b8015610cf15750610cf085611752565b5b15610d025760049350505050610d0a565b600393505050505b919050565b60006006600084815260200190815260200160002060030160008373ffffffffffffffffffffffffffffffffffffffff1673ffffffffffffffffffffffffffffffffffffffff16815260200190815260200160002060009054906101000a900460ff16905092915050565b6000610d888585858561177d565b9050949350505050565b600080600080600660008681526020019081526020016000209050806000015481600101548260020154935093509350509193909250565b60606040518060400160405280600181526020017f3100000000000000000000000000000000000000000000000000000000000000815250905090565b600080610e126113b8565b9050610e2f848285604051806020016040528060008152506115b7565b91505092915050565b610e4061081f565b73ffffffffffffffffffffffffffffffffffffffff16610e5e6113b8565b73ffffffffffffffffffffffffffffffffffffffff1614610eb4576040517f08c379a0000000000000000000000000000000000000000000000000000000008152600401610eab906133d1565b60405180910390fd5b610ebd816118d6565b50565b600080610ecb6113b8565b9050610f1d86828787878080601f016020809104026020016040519081016040528093929190818152602001838380828437600081840152601f19601f820116905080830192505050505050506115b7565b915050949350505050565b6000610f368585858561191b565b9050949350505050565b60006064905090565b6000600554905090565b6000610f5d611933565b905090565b6000610fbf600160008481526020019081526020016000206001016040518060200160405290816000820160009054906101000a900467ffffffffffffffff1667ffffffffffffffff1667ffffffffffffffff1681525050611564565b67ffffffffffffffff169050919050565b610fd861081f565b73ffffffffffffffffffffffffffffffffffffffff16610ff66113b8565b73ffffffffffffffffffffffffffffffffffffffff161461104c576040517f08c379a0000000000000000000000000000000000000000000000000000000008152600401611043906133d1565b60405180910390fd5b61109b8483838080601f016020809104026020016040519081016040528093929190818152602001838380828437600081840152601f19601f820116905080830192505050505050508561193d565b5050505050565b6000848484846040516020016110bb9493929190613829565b6040516020818303038152906040528051906020012060001c9050949350505050565b60606040518060400160405280602081526020017f737570706f72743d627261766f2671756f72756d3d666f722c6162737461696e815250905090565b7f150214d74d59b7d1e90c73fc22ef3d991dd0a76b046543d4d80ab92d2a50328f81565b61114761081f565b73ffffffffffffffffffffffffffffffffffffffff166111656113b8565b73ffffffffffffffffffffffffffffffffffffffff16146111bb576040517f08c379a00000000000000000000000000000000000000000000000000000000081526004016111b2906133d1565b60405180910390fd5b6111c48161196c565b50565b60006111d383836119f4565b905092915050565b6111e361081f565b73ffffffffffffffffffffffffffffffffffffffff166112016113b8565b73ffffffffffffffffffffffffffffffffffffffff1614611257576040517f08c379a000000000000000000000000000000000000000000000000000000000815260040161124e906133d1565b60405180910390fd5b61126081611a9a565b50565b600061126d610f40565b611275610f49565b7f000000000000000000000000000000000000000000000000000000000000000073ffffffffffffffffffffffffffffffffffffffff16638e539e8c856040518263ffffffff1660e01b81526004016112ce9190612774565b602060405180830381865afa1580156112eb573d6000803e3d6000fd5b505050506040513d601f19601f8201168201806040525081019061130f9190613898565b61131991906138f4565b611323919061397d565b9050919050565b7f000000000000000000000000000000000000000000000000000000000000000081565b60007f01ffc9a7000000000000000000000000000000000000000000000000000000007bffffffffffffffffffffffffffffffffffffffffffffffffffffffff1916827bffffffffffffffffffffffffffffffffffffffffffffffffffffffff1916149050919050565b600033905090565b6113c8610f40565b81111561140a576040517f08c379a000000000000000000000000000000000000000000000000000000000815260040161140190613a46565b60405180910390fd5b60006005549050816005819055507f0553476bf02ef2726e8ce5ced78d63e26e602e4a2257b1f559418e24b46339978183604051611449929190613a66565b60405180910390a15050565b600060405180606001604052806027815260200161487760279139905060005b855181101561155b5760008087838151811061149457611493613a8f565b5b602002602001015173ffffffffffffffffffffffffffffffffffffffff168784815181106114c5576114c4613a8f565b5b60200260200101518785815181106114e0576114df613a8f565b5b60200260200101516040516114f59190613afa565b60006040518083038185875af1925050503d8060008114611532576040519150601f19603f3d011682016040523d82523d6000602084013e611537565b606091505b5091509150611547828286611adf565b5050508061155490613b11565b9050611475565b50505050505050565b600081600001519050919050565b600061158561157f611b46565b83611c60565b9050919050565b600080600061159d87878787611c93565b915091506115aa81611da0565b8192505050949350505050565b600080600160008781526020019081526020016000209050600160078111156115e3576115e2612e47565b5b6115ec87610bfa565b60078111156115fe576115fd612e47565b5b1461163e576040517f08c379a000000000000000000000000000000000000000000000000000000000815260040161163590613bcc565b60405180910390fd5b600061169c8661168d846000016040518060200160405290816000820160009054906101000a900467ffffffffffffffff1667ffffffffffffffff1667ffffffffffffffff1681525050611564565b67ffffffffffffffff166111c7565b90506116aa87878784611f75565b8573ffffffffffffffffffffffffffffffffffffffff167fb8e138887d0aa13bab447e82de9d5c1777041ecd21ca36ba824ff1e6c07ddda4888784886040516116f69493929190613bec565b60405180910390a28092505050949350505050565b600080600660008481526020019081526020016000209050806002015481600101546117379190613c38565b61174861174385610af8565b611263565b1115915050919050565b6000806006600084815260200190815260200160002090508060000154816001015411915050919050565b60008061178c868686866110a2565b9050600061179982610bfa565b9050600260078111156117af576117ae612e47565b5b8160078111156117c2576117c1612e47565b5b141580156117f55750600660078111156117df576117de612e47565b5b8160078111156117f2576117f1612e47565b5b14155b8015611825575060078081111561180f5761180e612e47565b5b81600781111561182257611821612e47565b5b14155b611864576040517f08c379a000000000000000000000000000000000000000000000000000000000815260040161185b90613cda565b60405180910390fd5b600180600084815260200190815260200160002060020160016101000a81548160ff0219169083151502179055507f789cf55be980739dad1d0699b93b58e806b51c9d96619bfa8fe0a28abaa7b30c826040516118c19190612774565b60405180910390a18192505050949350505050565b7fc565b045403dc03c2eea82b81a0465edad9e2e7fc4d97e11421c209da93d7a9360025482604051611909929190613a66565b60405180910390a18060028190555050565b60006119298585858561217b565b9050949350505050565b6000600454905090565b606061196384848460405180606001604052806029815260200161489e6029913961247b565b90509392505050565b600081116119af576040517f08c379a00000000000000000000000000000000000000000000000000000000081526004016119a690613d6c565b60405180910390fd5b7f7e3f7f0708a84de9203036abaa450dccc85ad5ff52f78c170f3edb55cf5e8828600354826040516119e2929190613a66565b60405180910390a18060038190555050565b60007f000000000000000000000000000000000000000000000000000000000000000073ffffffffffffffffffffffffffffffffffffffff16633a46b1a884846040518363ffffffff1660e01b8152600401611a51929190613d9b565b602060405180830381865afa158015611a6e573d6000803e3d6000fd5b505050506040513d601f19601f82011682018060405250810190611a929190613898565b905092915050565b7fccb45da8d5717e6c4544694297c4ba5cf151d455c9bb0ed4fc7a38411bc0546160045482604051611acd929190613a66565b60405180910390a18060048190555050565b60608315611aef57829050611b3f565b600083511115611b025782518084602001fd5b816040517f08c379a0000000000000000000000000000000000000000000000000000000008152600401611b369190612881565b60405180910390fd5b9392505050565b60007f000000000000000000000000000000000000000000000000000000000000000073ffffffffffffffffffffffffffffffffffffffff163073ffffffffffffffffffffffffffffffffffffffff16148015611bc257507f000000000000000000000000000000000000000000000000000000000000000046145b15611bef577f00000000000000000000000000000000000000000000000000000000000000009050611c5d565b611c5a7f00000000000000000000000000000000000000000000000000000000000000007f00000000000000000000000000000000000000000000000000000000000000007f000000000000000000000000000000000000000000000000000000000000000061258f565b90505b90565b60008282604051602001611c75929190613e3c565b60405160208183030381529060405280519060200120905092915050565b6000807f7fffffffffffffffffffffffffffffff5d576e7357a4501ddfe92f46681b20a08360001c1115611cce576000600391509150611d97565b601b8560ff1614158015611ce65750601c8560ff1614155b15611cf8576000600491509150611d97565b600060018787878760405160008152602001604052604051611d1d9493929190613e73565b6020604051602081039080840390855afa158015611d3f573d6000803e3d6000fd5b505050602060405103519050600073ffffffffffffffffffffffffffffffffffffffff168173ffffffffffffffffffffffffffffffffffffffff161415611d8e57600060019250925050611d97565b80600092509250505b94509492505050565b60006004811115611db457611db3612e47565b5b816004811115611dc757611dc6612e47565b5b1415611dd257611f72565b60016004811115611de657611de5612e47565b5b816004811115611df957611df8612e47565b5b1415611e3a576040517f08c379a0000000000000000000000000000000000000000000000000000000008152600401611e3190613f04565b60405180910390fd5b60026004811115611e4e57611e4d612e47565b5b816004811115611e6157611e60612e47565b5b1415611ea2576040517f08c379a0000000000000000000000000000000000000000000000000000000008152600401611e9990613f70565b60405180910390fd5b60036004811115611eb657611eb5612e47565b5b816004811115611ec957611ec8612e47565b5b1415611f0a576040517f08c379a0000000000000000000000000000000000000000000000000000000008152600401611f0190614002565b60405180910390fd5b600480811115611f1d57611f1c612e47565b5b816004811115611f3057611f2f612e47565b5b1415611f71576040517f08c379a0000000000000000000000000000000000000000000000000000000008152600401611f6890614094565b60405180910390fd5b5b50565b60006006600086815260200190815260200160002090508060030160008573ffffffffffffffffffffffffffffffffffffffff1673ffffffffffffffffffffffffffffffffffffffff16815260200190815260200160002060009054906101000a900460ff161561201b576040517f08c379a000000000000000000000000000000000000000000000000000000000815260040161201290614126565b60405180910390fd5b60018160030160008673ffffffffffffffffffffffffffffffffffffffff1673ffffffffffffffffffffffffffffffffffffffff16815260200190815260200160002060006101000a81548160ff0219169083151502179055506000600281111561208957612088612e47565b5b60ff168360ff1614156120b657818160000160008282546120aa9190613c38565b92505081905550612174565b600160028111156120ca576120c9612e47565b5b60ff168360ff1614156120f757818160010160008282546120eb9190613c38565b92505081905550612173565b60028081111561210a57612109612e47565b5b60ff168360ff161415612137578181600201600082825461212b9190613c38565b92505081905550612172565b6040517f08c379a0000000000000000000000000000000000000000000000000000000008152600401612169906141b8565b60405180910390fd5b5b5b5050505050565b6000612185610f53565b61219b3360014361219691906141d8565b6111c7565b10156121dc576040517f08c379a00000000000000000000000000000000000000000000000000000000081526004016121d3906142a4565b60405180910390fd5b60006121f186868686805190602001206110a2565b90508451865114612237576040517f08c379a000000000000000000000000000000000000000000000000000000000815260040161222e90614336565b60405180910390fd5b835186511461227b576040517f08c379a000000000000000000000000000000000000000000000000000000000815260040161227290614336565b60405180910390fd5b60008651116122bf576040517f08c379a00000000000000000000000000000000000000000000000000000000081526004016122b6906143a2565b60405180910390fd5b600060016000838152602001908152602001600020905061231f816000016040518060200160405290816000820160009054906101000a900467ffffffffffffffff1667ffffffffffffffff1667ffffffffffffffff16815250506125c9565b61235e576040517f08c379a000000000000000000000000000000000000000000000000000000000815260040161235590614434565b60405180910390fd5b600061237061236b610b66565b6125e3565b612379436125e3565b6123839190614468565b905060006123976123926108a1565b6125e3565b826123a29190614468565b90506123ba828460000161263a90919063ffffffff16565b6123d0818460010161263a90919063ffffffff16565b7f7d84a6263ae0d98d3329bd7b46bb4e8d6f98cd35a7adb45c274c8b7fd5ebd5e0846123fa6113b8565b8b8b8d5167ffffffffffffffff811115612417576124166128a8565b5b60405190808252806020026020018201604052801561244a57816020015b60608152602001906001900390816124355790505b508c88888e604051612464999897969594939291906145e3565b60405180910390a183945050505050949350505050565b6060824710156124c0576040517f08c379a00000000000000000000000000000000000000000000000000000000081526004016124b790614705565b60405180910390fd5b6124c985612669565b612508576040517f08c379a00000000000000000000000000000000000000000000000000000000081526004016124ff90614771565b60405180910390fd5b6000808673ffffffffffffffffffffffffffffffffffffffff1685876040516125319190613afa565b60006040518083038185875af1925050503d806000811461256e576040519150601f19603f3d011682016040523d82523d6000602084013e612573565b606091505b5091509150612583828286611adf565b92505050949350505050565b600083838346306040516020016125aa959493929190614791565b6040516020818303038152906040528051906020012090509392505050565b600080826000015167ffffffffffffffff16149050919050565b600067ffffffffffffffff8016821115612632576040517f08c379a000000000000000000000000000000000000000000000000000000000815260040161262990614856565b60405180910390fd5b819050919050565b808260000160006101000a81548167ffffffffffffffff021916908367ffffffffffffffff1602179055505050565b6000808273ffffffffffffffffffffffffffffffffffffffff163b119050919050565b6000604051905090565b600080fd5b600080fd5b60007fffffffff0000000000000000000000000000000000000000000000000000000082169050919050565b6126d5816126a0565b81146126e057600080fd5b50565b6000813590506126f2816126cc565b92915050565b60006020828403121561270e5761270d612696565b5b600061271c848285016126e3565b91505092915050565b60008115159050919050565b61273a81612725565b82525050565b60006020820190506127556000830184612731565b92915050565b6000819050919050565b61276e8161275b565b82525050565b60006020820190506127896000830184612765565b92915050565b6127988161275b565b81146127a357600080fd5b50565b6000813590506127b58161278f565b92915050565b6000602082840312156127d1576127d0612696565b5b60006127df848285016127a6565b91505092915050565b600081519050919050565b600082825260208201905092915050565b60005b83811015612822578082015181840152602081019050612807565b83811115612831576000848401525b50505050565b6000601f19601f8301169050919050565b6000612853826127e8565b61285d81856127f3565b935061286d818560208601612804565b61287681612837565b840191505092915050565b6000602082019050818103600083015261289b8184612848565b905092915050565b600080fd5b7f4e487b7100000000000000000000000000000000000000000000000000000000600052604160045260246000fd5b6128e082612837565b810181811067ffffffffffffffff821117156128ff576128fe6128a8565b5b80604052505050565b600061291261268c565b905061291e82826128d7565b919050565b600067ffffffffffffffff82111561293e5761293d6128a8565b5b602082029050602081019050919050565b600080fd5b600073ffffffffffffffffffffffffffffffffffffffff82169050919050565b600061297f82612954565b9050919050565b61298f81612974565b811461299a57600080fd5b50565b6000813590506129ac81612986565b92915050565b60006129c56129c084612923565b612908565b905080838252602082019050602084028301858111156129e8576129e761294f565b5b835b81811015612a1157806129fd888261299d565b8452602084019350506020810190506129ea565b5050509392505050565b600082601f830112612a3057612a2f6128a3565b5b8135612a408482602086016129b2565b91505092915050565b600067ffffffffffffffff821115612a6457612a636128a8565b5b602082029050602081019050919050565b6000612a88612a8384612a49565b612908565b90508083825260208201905060208402830185811115612aab57612aaa61294f565b5b835b81811015612ad45780612ac088826127a6565b845260208401935050602081019050612aad565b5050509392505050565b600082601f830112612af357612af26128a3565b5b8135612b03848260208601612a75565b91505092915050565b600067ffffffffffffffff821115612b2757612b266128a8565b5b602082029050602081019050919050565b600080fd5b600067ffffffffffffffff821115612b5857612b576128a8565b5b612b6182612837565b9050602081019050919050565b82818337600083830152505050565b6000612b90612b8b84612b3d565b612908565b905082815260208101848484011115612bac57612bab612b38565b5b612bb7848285612b6e565b509392505050565b600082601f830112612bd457612bd36128a3565b5b8135612be4848260208601612b7d565b91505092915050565b6000612c00612bfb84612b0c565b612908565b90508083825260208201905060208402830185811115612c2357612c2261294f565b5b835b81811015612c6a57803567ffffffffffffffff811115612c4857612c476128a3565b5b808601612c558982612bbf565b85526020850194505050602081019050612c25565b5050509392505050565b600082601f830112612c8957612c886128a3565b5b8135612c99848260208601612bed565b91505092915050565b6000819050919050565b612cb581612ca2565b8114612cc057600080fd5b50565b600081359050612cd281612cac565b92915050565b60008060008060808587031215612cf257612cf1612696565b5b600085013567ffffffffffffffff811115612d1057612d0f61269b565b5b612d1c87828801612a1b565b945050602085013567ffffffffffffffff811115612d3d57612d3c61269b565b5b612d4987828801612ade565b935050604085013567ffffffffffffffff811115612d6a57612d6961269b565b5b612d7687828801612c74565b9250506060612d8787828801612cc3565b91505092959194509250565b600060ff82169050919050565b612da981612d93565b8114612db457600080fd5b50565b600081359050612dc681612da0565b92915050565b600080600080600060a08688031215612de857612de7612696565b5b6000612df6888289016127a6565b9550506020612e0788828901612db7565b9450506040612e1888828901612db7565b9350506060612e2988828901612cc3565b9250506080612e3a88828901612cc3565b9150509295509295909350565b7f4e487b7100000000000000000000000000000000000000000000000000000000600052602160045260246000fd5b60088110612e8757612e86612e47565b5b50565b6000819050612e9882612e76565b919050565b6000612ea882612e8a565b9050919050565b612eb881612e9d565b82525050565b6000602082019050612ed36000830184612eaf565b92915050565b60008060408385031215612ef057612eef612696565b5b6000612efe858286016127a6565b9250506020612f0f8582860161299d565b9150509250929050565b6000606082019050612f2e6000830186612765565b612f3b6020830185612765565b612f486040830184612765565b949350505050565b60008060408385031215612f6757612f66612696565b5b6000612f75858286016127a6565b9250506020612f8685828601612db7565b9150509250929050565b600080fd5b60008083601f840112612fab57612faa6128a3565b5b8235905067ffffffffffffffff811115612fc857612fc7612f90565b5b602083019150836001820283011115612fe457612fe361294f565b5b9250929050565b6000806000806060858703121561300557613004612696565b5b6000613013878288016127a6565b945050602061302487828801612db7565b935050604085013567ffffffffffffffff8111156130455761304461269b565b5b61305187828801612f95565b925092505092959194509250565b600067ffffffffffffffff82111561307a576130796128a8565b5b61308382612837565b9050602081019050919050565b60006130a361309e8461305f565b612908565b9050828152602081018484840111156130bf576130be612b38565b5b6130ca848285612b6e565b509392505050565b600082601f8301126130e7576130e66128a3565b5b81356130f7848260208601613090565b91505092915050565b6000806000806080858703121561311a57613119612696565b5b600085013567ffffffffffffffff8111156131385761313761269b565b5b61314487828801612a1b565b945050602085013567ffffffffffffffff8111156131655761316461269b565b5b61317187828801612ade565b935050604085013567ffffffffffffffff8111156131925761319161269b565b5b61319e87828801612c74565b925050606085013567ffffffffffffffff8111156131bf576131be61269b565b5b6131cb878288016130d2565b91505092959194509250565b60008083601f8401126131ed576131ec6128a3565b5b8235905067ffffffffffffffff81111561320a57613209612f90565b5b6020830191508360018202830111156132265761322561294f565b5b9250929050565b6000806000806060858703121561324757613246612696565b5b60006132558782880161299d565b9450506020613266878288016127a6565b935050604085013567ffffffffffffffff8111156132875761328661269b565b5b613293878288016131d7565b925092505092959194509250565b6132aa81612ca2565b82525050565b60006020820190506132c560008301846132a1565b92915050565b600080604083850312156132e2576132e1612696565b5b60006132f08582860161299d565b9250506020613301858286016127a6565b9150509250929050565b6000819050919050565b600061333061332b61332684612954565b61330b565b612954565b9050919050565b600061334282613315565b9050919050565b600061335482613337565b9050919050565b61336481613349565b82525050565b600060208201905061337f600083018461335b565b92915050565b7f476f7665726e6f723a206f6e6c79476f7665726e616e63650000000000000000600082015250565b60006133bb6018836127f3565b91506133c682613385565b602082019050919050565b600060208201905081810360008301526133ea816133ae565b9050919050565b7f4e487b7100000000000000000000000000000000000000000000000000000000600052602260045260246000fd5b6000600282049050600182168061343857607f821691505b6020821081141561344c5761344b6133f1565b5b50919050565b7f476f7665726e6f723a2070726f706f73616c206e6f742073756363657373667560008201527f6c00000000000000000000000000000000000000000000000000000000000000602082015250565b60006134ae6021836127f3565b91506134b982613452565b604082019050919050565b600060208201905081810360008301526134dd816134a1565b9050919050565b6134ed81612d93565b82525050565b600060608201905061350860008301866132a1565b6135156020830185612765565b61352260408301846134e4565b949350505050565b7f476f7665726e6f723a20756e6b6e6f776e2070726f706f73616c206964000000600082015250565b6000613560601d836127f3565b915061356b8261352a565b602082019050919050565b6000602082019050818103600083015261358f81613553565b9050919050565b600081519050919050565b600082825260208201905092915050565b6000819050602082019050919050565b6135cb81612974565b82525050565b60006135dd83836135c2565b60208301905092915050565b6000602082019050919050565b600061360182613596565b61360b81856135a1565b9350613616836135b2565b8060005b8381101561364757815161362e88826135d1565b9750613639836135e9565b92505060018101905061361a565b5085935050505092915050565b600081519050919050565b600082825260208201905092915050565b6000819050602082019050919050565b6136898161275b565b82525050565b600061369b8383613680565b60208301905092915050565b6000602082019050919050565b60006136bf82613654565b6136c9818561365f565b93506136d483613670565b8060005b838110156137055781516136ec888261368f565b97506136f7836136a7565b9250506001810190506136d8565b5085935050505092915050565b600081519050919050565b600082825260208201905092915050565b6000819050602082019050919050565b600081519050919050565b600082825260208201905092915050565b60006137658261373e565b61376f8185613749565b935061377f818560208601612804565b61378881612837565b840191505092915050565b600061379f838361375a565b905092915050565b6000602082019050919050565b60006137bf82613712565b6137c9818561371d565b9350836020820285016137db8561372e565b8060005b8581101561381757848403895281516137f88582613793565b9450613803836137a7565b925060208a019950506001810190506137df565b50829750879550505050505092915050565b6000608082019050818103600083015261384381876135f6565b9050818103602083015261385781866136b4565b9050818103604083015261386b81856137b4565b905061387a60608301846132a1565b95945050505050565b6000815190506138928161278f565b92915050565b6000602082840312156138ae576138ad612696565b5b60006138bc84828501613883565b91505092915050565b7f4e487b7100000000000000000000000000000000000000000000000000000000600052601160045260246000fd5b60006138ff8261275b565b915061390a8361275b565b9250817fffffffffffffffffffffffffffffffffffffffffffffffffffffffffffffffff0483118215151615613943576139426138c5565b5b828202905092915050565b7f4e487b7100000000000000000000000000000000000000000000000000000000600052601260045260246000fd5b60006139888261275b565b91506139938361275b565b9250826139a3576139a261394e565b5b828204905092915050565b7f476f7665726e6f72566f74657351756f72756d4672616374696f6e3a2071756f60008201527f72756d4e756d657261746f72206f7665722071756f72756d44656e6f6d696e6160208201527f746f720000000000000000000000000000000000000000000000000000000000604082015250565b6000613a306043836127f3565b9150613a3b826139ae565b606082019050919050565b60006020820190508181036000830152613a5f81613a23565b9050919050565b6000604082019050613a7b6000830185612765565b613a886020830184612765565b9392505050565b7f4e487b7100000000000000000000000000000000000000000000000000000000600052603260045260246000fd5b600081905092915050565b6000613ad48261373e565b613ade8185613abe565b9350613aee818560208601612804565b80840191505092915050565b6000613b068284613ac9565b915081905092915050565b6000613b1c8261275b565b91507fffffffffffffffffffffffffffffffffffffffffffffffffffffffffffffffff821415613b4f57613b4e6138c5565b5b600182019050919050565b7f476f7665726e6f723a20766f7465206e6f742063757272656e746c792061637460008201527f6976650000000000000000000000000000000000000000000000000000000000602082015250565b6000613bb66023836127f3565b9150613bc182613b5a565b604082019050919050565b60006020820190508181036000830152613be581613ba9565b9050919050565b6000608082019050613c016000830187612765565b613c0e60208301866134e4565b613c1b6040830185612765565b8181036060830152613c2d8184612848565b905095945050505050565b6000613c438261275b565b9150613c4e8361275b565b9250827fffffffffffffffffffffffffffffffffffffffffffffffffffffffffffffffff03821115613c8357613c826138c5565b5b828201905092915050565b7f476f7665726e6f723a2070726f706f73616c206e6f7420616374697665000000600082015250565b6000613cc4601d836127f3565b9150613ccf82613c8e565b602082019050919050565b60006020820190508181036000830152613cf381613cb7565b9050919050565b7f476f7665726e6f7253657474696e67733a20766f74696e6720706572696f642060008201527f746f6f206c6f7700000000000000000000000000000000000000000000000000602082015250565b6000613d566027836127f3565b9150613d6182613cfa565b604082019050919050565b60006020820190508181036000830152613d8581613d49565b9050919050565b613d9581612974565b82525050565b6000604082019050613db06000830185613d8c565b613dbd6020830184612765565b9392505050565b600081905092915050565b7f1901000000000000000000000000000000000000000000000000000000000000600082015250565b6000613e05600283613dc4565b9150613e1082613dcf565b600282019050919050565b6000819050919050565b613e36613e3182612ca2565b613e1b565b82525050565b6000613e4782613df8565b9150613e538285613e25565b602082019150613e638284613e25565b6020820191508190509392505050565b6000608082019050613e8860008301876132a1565b613e9560208301866134e4565b613ea260408301856132a1565b613eaf60608301846132a1565b95945050505050565b7f45434453413a20696e76616c6964207369676e61747572650000000000000000600082015250565b6000613eee6018836127f3565b9150613ef982613eb8565b602082019050919050565b60006020820190508181036000830152613f1d81613ee1565b9050919050565b7f45434453413a20696e76616c6964207369676e6174757265206c656e67746800600082015250565b6000613f5a601f836127f3565b9150613f6582613f24565b602082019050919050565b60006020820190508181036000830152613f8981613f4d565b9050919050565b7f45434453413a20696e76616c6964207369676e6174757265202773272076616c60008201527f7565000000000000000000000000000000000000000000000000000000000000602082015250565b6000613fec6022836127f3565b9150613ff782613f90565b604082019050919050565b6000602082019050818103600083015261401b81613fdf565b9050919050565b7f45434453413a20696e76616c6964207369676e6174757265202776272076616c60008201527f7565000000000000000000000000000000000000000000000000000000000000602082015250565b600061407e6022836127f3565b915061408982614022565b604082019050919050565b600060208201905081810360008301526140ad81614071565b9050919050565b7f476f7665726e6f72566f74696e6753696d706c653a20766f746520616c72656160008201527f6479206361737400000000000000000000000000000000000000000000000000602082015250565b60006141106027836127f3565b915061411b826140b4565b604082019050919050565b6000602082019050818103600083015261413f81614103565b9050919050565b7f476f7665726e6f72566f74696e6753696d706c653a20696e76616c696420766160008201527f6c756520666f7220656e756d20566f7465547970650000000000000000000000602082015250565b60006141a26035836127f3565b91506141ad82614146565b604082019050919050565b600060208201905081810360008301526141d181614195565b9050919050565b60006141e38261275b565b91506141ee8361275b565b925082821015614201576142006138c5565b5b828203905092915050565b7f476f7665726e6f72436f6d7061746962696c697479427261766f3a2070726f7060008201527f6f73657220766f7465732062656c6f772070726f706f73616c2074687265736860208201527f6f6c640000000000000000000000000000000000000000000000000000000000604082015250565b600061428e6043836127f3565b91506142998261420c565b606082019050919050565b600060208201905081810360008301526142bd81614281565b9050919050565b7f476f7665726e6f723a20696e76616c69642070726f706f73616c206c656e677460008201527f6800000000000000000000000000000000000000000000000000000000000000602082015250565b60006143206021836127f3565b915061432b826142c4565b604082019050919050565b6000602082019050818103600083015261434f81614313565b9050919050565b7f476f7665726e6f723a20656d7074792070726f706f73616c0000000000000000600082015250565b600061438c6018836127f3565b915061439782614356565b602082019050919050565b600060208201905081810360008301526143bb8161437f565b9050919050565b7f476f7665726e6f723a2070726f706f73616c20616c726561647920657869737460008201527f7300000000000000000000000000000000000000000000000000000000000000602082015250565b600061441e6021836127f3565b9150614429826143c2565b604082019050919050565b6000602082019050818103600083015261444d81614411565b9050919050565b600067ffffffffffffffff82169050919050565b600061447382614454565b915061447e83614454565b92508267ffffffffffffffff0382111561449b5761449a6138c5565b5b828201905092915050565b600081519050919050565b600082825260208201905092915050565b6000819050602082019050919050565b600082825260208201905092915050565b60006144ee826127e8565b6144f881856144d2565b9350614508818560208601612804565b61451181612837565b840191505092915050565b600061452883836144e3565b905092915050565b6000602082019050919050565b6000614548826144a6565b61455281856144b1565b935083602082028501614564856144c2565b8060005b858110156145a05784840389528151614581858261451c565b945061458c83614530565b925060208a01995050600181019050614568565b50829750879550505050505092915050565b60006145cd6145c86145c384614454565b61330b565b61275b565b9050919050565b6145dd816145b2565b82525050565b6000610120820190506145f9600083018c612765565b614606602083018b613d8c565b8181036040830152614618818a6135f6565b9050818103606083015261462c81896136b4565b90508181036080830152614640818861453d565b905081810360a083015261465481876137b4565b905061466360c08301866145d4565b61467060e08301856145d4565b8181036101008301526146838184612848565b90509a9950505050505050505050565b7f416464726573733a20696e73756666696369656e742062616c616e636520666f60008201527f722063616c6c0000000000000000000000000000000000000000000000000000602082015250565b60006146ef6026836127f3565b91506146fa82614693565b604082019050919050565b6000602082019050818103600083015261471e816146e2565b9050919050565b7f416464726573733a2063616c6c20746f206e6f6e2d636f6e7472616374000000600082015250565b600061475b601d836127f3565b915061476682614725565b602082019050919050565b6000602082019050818103600083015261478a8161474e565b9050919050565b600060a0820190506147a660008301886132a1565b6147b360208301876132a1565b6147c060408301866132a1565b6147cd6060830185612765565b6147da6080830184613d8c565b9695505050505050565b7f53616665436173743a2076616c756520646f65736e27742066697420696e203660008201527f3420626974730000000000000000000000000000000000000000000000000000602082015250565b60006148406026836127f3565b915061484b826147e4565b604082019050919050565b6000602082019050818103600083015261486f81614833565b905091905056fe476f7665726e6f723a2063616c6c20726576657274656420776974686f7574206d657373616765416464726573733a206c6f772d6c6576656c2063616c6c20776974682076616c7565206661696c6564a2646970667358221220e5bed2c9126b958e5205d31803a738bf6d84ab7df0bedd4c8fc6135aa740b28364736f6c634300080b0033",
  "immutableReferences": {
    "9076": [
      {
        "length": 32,
        "start": 4727
      },
      {
        "length": 32,
        "start": 4908
      },
      {
        "length": 32,
        "start": 6648
      }
    ],
    "31235": [
      {
        "length": 32,
        "start": 7113
      }
    ],
    "31237": [
      {
        "length": 32,
        "start": 7072
      }
    ],
    "31239": [
      {
        "length": 32,
        "start": 6986
      }
    ],
    "31241": [
      {
        "length": 32,
        "start": 7189
      }
    ],
    "31243": [
      {
        "length": 32,
        "start": 7222
      }
    ],
    "31245": [
      {
        "length": 32,
        "start": 7156
      }
    ]
  },
  "source": "// SPDX-License-Identifier: MIT\n\npragma solidity ^0.8.0;\n\nimport \"../governance/extensions/GovernorProposalThreshold.sol\";\nimport \"../governance/extensions/GovernorSettings.sol\";\nimport \"../governance/extensions/GovernorCountingSimple.sol\";\nimport \"../governance/extensions/GovernorVotesQuorumFraction.sol\";\n\ncontract GovernorMock is\n    GovernorProposalThreshold,\n    GovernorSettings,\n    GovernorVotesQuorumFraction,\n    GovernorCountingSimple\n{\n    constructor(\n        string memory name_,\n        IVotes token_,\n        uint256 votingDelay_,\n        uint256 votingPeriod_,\n        uint256 quorumNumerator_\n    )\n        Governor(name_)\n        GovernorSettings(votingDelay_, votingPeriod_, 0)\n        GovernorVotes(token_)\n        GovernorVotesQuorumFraction(quorumNumerator_)\n    {}\n\n    function cancel(\n        address[] memory targets,\n        uint256[] memory values,\n        bytes[] memory calldatas,\n        bytes32 salt\n    ) public returns (uint256 proposalId) {\n        return _cancel(targets, values, calldatas, salt);\n    }\n\n    function getVotes(address account, uint256 blockNumber)\n        public\n        view\n        virtual\n        override(IGovernor, GovernorVotes)\n        returns (uint256)\n    {\n        return super.getVotes(account, blockNumber);\n    }\n\n    function proposalThreshold() public view override(Governor, GovernorSettings) returns (uint256) {\n        return super.proposalThreshold();\n    }\n\n    function propose(\n        address[] memory targets,\n        uint256[] memory values,\n        bytes[] memory calldatas,\n        string memory description\n    ) public virtual override(Governor, GovernorProposalThreshold) returns (uint256) {\n        return super.propose(targets, values, calldatas, description);\n    }\n}\n",
  "sourcePath": "D:\\03.block-chain\\01.miquelTC__nft-marketplace\\test-proj\\nft-marketplace-master\\src\\contracts\\ERC721\\mocks\\GovernorMock.sol",
  "compiler": {
    "name": "solc",
    "version": "0.8.11+commit.d7f03943.Emscripten.clang"
  },
  "schemaVersion": "3.4.4",
  "updatedAt": "2022-02-16T02:59:58.669Z",
  "devdoc": {
    "kind": "dev",
    "methods": {
      "COUNTING_MODE()": {
        "details": "See {IGovernor-COUNTING_MODE}."
      },
      "castVote(uint256,uint8)": {
        "details": "See {IGovernor-castVote}."
      },
      "castVoteBySig(uint256,uint8,uint8,bytes32,bytes32)": {
        "details": "See {IGovernor-castVoteBySig}."
      },
      "castVoteWithReason(uint256,uint8,string)": {
        "details": "See {IGovernor-castVoteWithReason}."
      },
      "execute(address[],uint256[],bytes[],bytes32)": {
        "details": "See {IGovernor-execute}."
      },
      "hasVoted(uint256,address)": {
        "details": "See {IGovernor-hasVoted}."
      },
      "hashProposal(address[],uint256[],bytes[],bytes32)": {
        "details": "See {IGovernor-hashProposal}. The proposal id is produced by hashing the RLC encoded `targets` array, the `values` array, the `calldatas` array and the descriptionHash (bytes32 which itself is the keccak256 hash of the description string). This proposal id can be produced from the proposal data which is part of the {ProposalCreated} event. It can even be computed in advance, before the proposal is submitted. Note that the chainId and the governor address are not part of the proposal id computation. Consequently, the same proposal (with same operation and same description) will have the same id if submitted on multiple governors accross multiple networks. This also means that in order to execute the same operation twice (on the same governor) the proposer will have to change the description in order to avoid proposal id conflicts."
      },
      "name()": {
        "details": "See {IGovernor-name}."
      },
      "proposalDeadline(uint256)": {
        "details": "See {IGovernor-proposalDeadline}."
      },
      "proposalSnapshot(uint256)": {
        "details": "See {IGovernor-proposalSnapshot}."
      },
      "proposalVotes(uint256)": {
        "details": "Accessor to the internal vote counts."
      },
      "quorum(uint256)": {
        "details": "Returns the quorum for a block number, in terms of number of votes: `supply * numerator / denominator`."
      },
      "quorumDenominator()": {
        "details": "Returns the quorum denominator. Defaults to 100, but may be overridden."
      },
      "quorumNumerator()": {
        "details": "Returns the current quorum numerator. See {quorumDenominator}."
      },
      "relay(address,uint256,bytes)": {
        "details": "Relays a transaction or function call to an arbitrary target. In cases where the governance executor is some contract other than the governor itself, like when using a timelock, this function can be invoked in a governance proposal to recover tokens or Ether that was sent to the governor contract by mistake. Note that if the executor is simply the governor itself, use of `relay` is redundant."
      },
      "setProposalThreshold(uint256)": {
        "details": "Update the proposal threshold. This operation can only be performed through a governance proposal. Emits a {ProposalThresholdSet} event."
      },
      "setVotingDelay(uint256)": {
        "details": "Update the voting delay. This operation can only be performed through a governance proposal. Emits a {VotingDelaySet} event."
      },
      "setVotingPeriod(uint256)": {
        "details": "Update the voting period. This operation can only be performed through a governance proposal. Emits a {VotingPeriodSet} event."
      },
      "state(uint256)": {
        "details": "See {IGovernor-state}."
      },
      "supportsInterface(bytes4)": {
        "details": "See {IERC165-supportsInterface}."
      },
      "updateQuorumNumerator(uint256)": {
        "details": "Changes the quorum numerator. Emits a {QuorumNumeratorUpdated} event. Requirements: - Must be called through a governance proposal. - New numerator must be smaller or equal to the denominator."
      },
      "version()": {
        "details": "See {IGovernor-version}."
      },
      "votingDelay()": {
        "details": "See {IGovernor-votingDelay}."
      },
      "votingPeriod()": {
        "details": "See {IGovernor-votingPeriod}."
      }
    },
    "version": 1
  },
  "userdoc": {
    "kind": "user",
    "methods": {},
    "version": 1
  }
}