{
  "contractName": "GovernorTimelockCompoundMock",
  "abi": [
    {
      "inputs": [
        {
          "internalType": "string",
          "name": "name_",
          "type": "string"
        },
        {
          "internalType": "contract IVotes",
          "name": "token_",
          "type": "address"
        },
        {
          "internalType": "uint256",
          "name": "votingDelay_",
          "type": "uint256"
        },
        {
          "internalType": "uint256",
          "name": "votingPeriod_",
          "type": "uint256"
        },
        {
          "internalType": "contract ICompoundTimelock",
          "name": "timelock_",
          "type": "address"
        },
        {
          "internalType": "uint256",
          "name": "quorumNumerator_",
          "type": "uint256"
        }
      ],
      "stateMutability": "nonpayable",
      "type": "constructor"
    },
    {
      "anonymous": false,
      "inputs": [
        {
          "indexed": false,
          "internalType": "uint256",
          "name": "proposalId",
          "type": "uint256"
        }
      ],
      "name": "ProposalCanceled",
      "type": "event"
    },
    {
      "anonymous": false,
      "inputs": [
        {
          "indexed": false,
          "internalType": "uint256",
          "name": "proposalId",
          "type": "uint256"
        },
        {
          "indexed": false,
          "internalType": "address",
          "name": "proposer",
          "type": "address"
        },
        {
          "indexed": false,
          "internalType": "address[]",
          "name": "targets",
          "type": "address[]"
        },
        {
          "indexed": false,
          "internalType": "uint256[]",
          "name": "values",
          "type": "uint256[]"
        },
        {
          "indexed": false,
          "internalType": "string[]",
          "name": "signatures",
          "type": "string[]"
        },
        {
          "indexed": false,
          "internalType": "bytes[]",
          "name": "calldatas",
          "type": "bytes[]"
        },
        {
          "indexed": false,
          "internalType": "uint256",
          "name": "startBlock",
          "type": "uint256"
        },
        {
          "indexed": false,
          "internalType": "uint256",
          "name": "endBlock",
          "type": "uint256"
        },
        {
          "indexed": false,
          "internalType": "string",
          "name": "description",
          "type": "string"
        }
      ],
      "name": "ProposalCreated",
      "type": "event"
    },
    {
      "anonymous": false,
      "inputs": [
        {
          "indexed": false,
          "internalType": "uint256",
          "name": "proposalId",
          "type": "uint256"
        }
      ],
      "name": "ProposalExecuted",
      "type": "event"
    },
    {
      "anonymous": false,
      "inputs": [
        {
          "indexed": false,
          "internalType": "uint256",
          "name": "proposalId",
          "type": "uint256"
        },
        {
          "indexed": false,
          "internalType": "uint256",
          "name": "eta",
          "type": "uint256"
        }
      ],
      "name": "ProposalQueued",
      "type": "event"
    },
    {
      "anonymous": false,
      "inputs": [
        {
          "indexed": false,
          "internalType": "uint256",
          "name": "oldProposalThreshold",
          "type": "uint256"
        },
        {
          "indexed": false,
          "internalType": "uint256",
          "name": "newProposalThreshold",
          "type": "uint256"
        }
      ],
      "name": "ProposalThresholdSet",
      "type": "event"
    },
    {
      "anonymous": false,
      "inputs": [
        {
          "indexed": false,
          "internalType": "uint256",
          "name": "oldQuorumNumerator",
          "type": "uint256"
        },
        {
          "indexed": false,
          "internalType": "uint256",
          "name": "newQuorumNumerator",
          "type": "uint256"
        }
      ],
      "name": "QuorumNumeratorUpdated",
      "type": "event"
    },
    {
      "anonymous": false,
      "inputs": [
        {
          "indexed": false,
          "internalType": "address",
          "name": "oldTimelock",
          "type": "address"
        },
        {
          "indexed": false,
          "internalType": "address",
          "name": "newTimelock",
          "type": "address"
        }
      ],
      "name": "TimelockChange",
      "type": "event"
    },
    {
      "anonymous": false,
      "inputs": [
        {
          "indexed": true,
          "internalType": "address",
          "name": "voter",
          "type": "address"
        },
        {
          "indexed": false,
          "internalType": "uint256",
          "name": "proposalId",
          "type": "uint256"
        },
        {
          "indexed": false,
          "internalType": "uint8",
          "name": "support",
          "type": "uint8"
        },
        {
          "indexed": false,
          "internalType": "uint256",
          "name": "weight",
          "type": "uint256"
        },
        {
          "indexed": false,
          "internalType": "string",
          "name": "reason",
          "type": "string"
        }
      ],
      "name": "VoteCast",
      "type": "event"
    },
    {
      "anonymous": false,
      "inputs": [
        {
          "indexed": false,
          "internalType": "uint256",
          "name": "oldVotingDelay",
          "type": "uint256"
        },
        {
          "indexed": false,
          "internalType": "uint256",
          "name": "newVotingDelay",
          "type": "uint256"
        }
      ],
      "name": "VotingDelaySet",
      "type": "event"
    },
    {
      "anonymous": false,
      "inputs": [
        {
          "indexed": false,
          "internalType": "uint256",
          "name": "oldVotingPeriod",
          "type": "uint256"
        },
        {
          "indexed": false,
          "internalType": "uint256",
          "name": "newVotingPeriod",
          "type": "uint256"
        }
      ],
      "name": "VotingPeriodSet",
      "type": "event"
    },
    {
      "inputs": [],
      "name": "BALLOT_TYPEHASH",
      "outputs": [
        {
          "internalType": "bytes32",
          "name": "",
          "type": "bytes32"
        }
      ],
      "stateMutability": "view",
      "type": "function"
    },
    {
      "inputs": [],
      "name": "COUNTING_MODE",
      "outputs": [
        {
          "internalType": "string",
          "name": "",
          "type": "string"
        }
      ],
      "stateMutability": "pure",
      "type": "function"
    },
    {
      "inputs": [],
      "name": "__acceptAdmin",
      "outputs": [],
      "stateMutability": "nonpayable",
      "type": "function"
    },
    {
      "inputs": [
        {
          "internalType": "uint256",
          "name": "proposalId",
          "type": "uint256"
        },
        {
          "internalType": "uint8",
          "name": "support",
          "type": "uint8"
        }
      ],
      "name": "castVote",
      "outputs": [
        {
          "internalType": "uint256",
          "name": "",
          "type": "uint256"
        }
      ],
      "stateMutability": "nonpayable",
      "type": "function"
    },
    {
      "inputs": [
        {
          "internalType": "uint256",
          "name": "proposalId",
          "type": "uint256"
        },
        {
          "internalType": "uint8",
          "name": "support",
          "type": "uint8"
        },
        {
          "internalType": "uint8",
          "name": "v",
          "type": "uint8"
        },
        {
          "internalType": "bytes32",
          "name": "r",
          "type": "bytes32"
        },
        {
          "internalType": "bytes32",
          "name": "s",
          "type": "bytes32"
        }
      ],
      "name": "castVoteBySig",
      "outputs": [
        {
          "internalType": "uint256",
          "name": "",
          "type": "uint256"
        }
      ],
      "stateMutability": "nonpayable",
      "type": "function"
    },
    {
      "inputs": [
        {
          "internalType": "uint256",
          "name": "proposalId",
          "type": "uint256"
        },
        {
          "internalType": "uint8",
          "name": "support",
          "type": "uint8"
        },
        {
          "internalType": "string",
          "name": "reason",
          "type": "string"
        }
      ],
      "name": "castVoteWithReason",
      "outputs": [
        {
          "internalType": "uint256",
          "name": "",
          "type": "uint256"
        }
      ],
      "stateMutability": "nonpayable",
      "type": "function"
    },
    {
      "inputs": [
        {
          "internalType": "address[]",
          "name": "targets",
          "type": "address[]"
        },
        {
          "internalType": "uint256[]",
          "name": "values",
          "type": "uint256[]"
        },
        {
          "internalType": "bytes[]",
          "name": "calldatas",
          "type": "bytes[]"
        },
        {
          "internalType": "bytes32",
          "name": "descriptionHash",
          "type": "bytes32"
        }
      ],
      "name": "execute",
      "outputs": [
        {
          "internalType": "uint256",
          "name": "",
          "type": "uint256"
        }
      ],
      "stateMutability": "payable",
      "type": "function"
    },
    {
      "inputs": [
        {
          "internalType": "uint256",
          "name": "proposalId",
          "type": "uint256"
        },
        {
          "internalType": "address",
          "name": "account",
          "type": "address"
        }
      ],
      "name": "hasVoted",
      "outputs": [
        {
          "internalType": "bool",
          "name": "",
          "type": "bool"
        }
      ],
      "stateMutability": "view",
      "type": "function"
    },
    {
      "inputs": [
        {
          "internalType": "address[]",
          "name": "targets",
          "type": "address[]"
        },
        {
          "internalType": "uint256[]",
          "name": "values",
          "type": "uint256[]"
        },
        {
          "internalType": "bytes[]",
          "name": "calldatas",
          "type": "bytes[]"
        },
        {
          "internalType": "bytes32",
          "name": "descriptionHash",
          "type": "bytes32"
        }
      ],
      "name": "hashProposal",
      "outputs": [
        {
          "internalType": "uint256",
          "name": "",
          "type": "uint256"
        }
      ],
      "stateMutability": "pure",
      "type": "function"
    },
    {
      "inputs": [],
      "name": "name",
      "outputs": [
        {
          "internalType": "string",
          "name": "",
          "type": "string"
        }
      ],
      "stateMutability": "view",
      "type": "function"
    },
    {
      "inputs": [
        {
          "internalType": "uint256",
          "name": "proposalId",
          "type": "uint256"
        }
      ],
      "name": "proposalDeadline",
      "outputs": [
        {
          "internalType": "uint256",
          "name": "",
          "type": "uint256"
        }
      ],
      "stateMutability": "view",
      "type": "function"
    },
    {
      "inputs": [
        {
          "internalType": "uint256",
          "name": "proposalId",
          "type": "uint256"
        }
      ],
      "name": "proposalEta",
      "outputs": [
        {
          "internalType": "uint256",
          "name": "",
          "type": "uint256"
        }
      ],
      "stateMutability": "view",
      "type": "function"
    },
    {
      "inputs": [
        {
          "internalType": "uint256",
          "name": "proposalId",
          "type": "uint256"
        }
      ],
      "name": "proposalSnapshot",
      "outputs": [
        {
          "internalType": "uint256",
          "name": "",
          "type": "uint256"
        }
      ],
      "stateMutability": "view",
      "type": "function"
    },
    {
      "inputs": [
        {
          "internalType": "uint256",
          "name": "proposalId",
          "type": "uint256"
        }
      ],
      "name": "proposalVotes",
      "outputs": [
        {
          "internalType": "uint256",
          "name": "againstVotes",
          "type": "uint256"
        },
        {
          "internalType": "uint256",
          "name": "forVotes",
          "type": "uint256"
        },
        {
          "internalType": "uint256",
          "name": "abstainVotes",
          "type": "uint256"
        }
      ],
      "stateMutability": "view",
      "type": "function"
    },
    {
      "inputs": [
        {
          "internalType": "address[]",
          "name": "targets",
          "type": "address[]"
        },
        {
          "internalType": "uint256[]",
          "name": "values",
          "type": "uint256[]"
        },
        {
          "internalType": "bytes[]",
          "name": "calldatas",
          "type": "bytes[]"
        },
        {
          "internalType": "string",
          "name": "description",
          "type": "string"
        }
      ],
      "name": "propose",
      "outputs": [
        {
          "internalType": "uint256",
          "name": "",
          "type": "uint256"
        }
      ],
      "stateMutability": "nonpayable",
      "type": "function"
    },
    {
      "inputs": [
        {
          "internalType": "address[]",
          "name": "targets",
          "type": "address[]"
        },
        {
          "internalType": "uint256[]",
          "name": "values",
          "type": "uint256[]"
        },
        {
          "internalType": "bytes[]",
          "name": "calldatas",
          "type": "bytes[]"
        },
        {
          "internalType": "bytes32",
          "name": "descriptionHash",
          "type": "bytes32"
        }
      ],
      "name": "queue",
      "outputs": [
        {
          "internalType": "uint256",
          "name": "",
          "type": "uint256"
        }
      ],
      "stateMutability": "nonpayable",
      "type": "function"
    },
    {
      "inputs": [],
      "name": "quorumDenominator",
      "outputs": [
        {
          "internalType": "uint256",
          "name": "",
          "type": "uint256"
        }
      ],
      "stateMutability": "view",
      "type": "function"
    },
    {
      "inputs": [],
      "name": "quorumNumerator",
      "outputs": [
        {
          "internalType": "uint256",
          "name": "",
          "type": "uint256"
        }
      ],
      "stateMutability": "view",
      "type": "function"
    },
    {
      "inputs": [
        {
          "internalType": "address",
          "name": "target",
          "type": "address"
        },
        {
          "internalType": "uint256",
          "name": "value",
          "type": "uint256"
        },
        {
          "internalType": "bytes",
          "name": "data",
          "type": "bytes"
        }
      ],
      "name": "relay",
      "outputs": [],
      "stateMutability": "nonpayable",
      "type": "function"
    },
    {
      "inputs": [
        {
          "internalType": "uint256",
          "name": "newProposalThreshold",
          "type": "uint256"
        }
      ],
      "name": "setProposalThreshold",
      "outputs": [],
      "stateMutability": "nonpayable",
      "type": "function"
    },
    {
      "inputs": [
        {
          "internalType": "uint256",
          "name": "newVotingDelay",
          "type": "uint256"
        }
      ],
      "name": "setVotingDelay",
      "outputs": [],
      "stateMutability": "nonpayable",
      "type": "function"
    },
    {
      "inputs": [
        {
          "internalType": "uint256",
          "name": "newVotingPeriod",
          "type": "uint256"
        }
      ],
      "name": "setVotingPeriod",
      "outputs": [],
      "stateMutability": "nonpayable",
      "type": "function"
    },
    {
      "inputs": [],
      "name": "timelock",
      "outputs": [
        {
          "internalType": "address",
          "name": "",
          "type": "address"
        }
      ],
      "stateMutability": "view",
      "type": "function"
    },
    {
      "inputs": [],
      "name": "token",
      "outputs": [
        {
          "internalType": "contract IVotes",
          "name": "",
          "type": "address"
        }
      ],
      "stateMutability": "view",
      "type": "function"
    },
    {
      "inputs": [
        {
          "internalType": "uint256",
          "name": "newQuorumNumerator",
          "type": "uint256"
        }
      ],
      "name": "updateQuorumNumerator",
      "outputs": [],
      "stateMutability": "nonpayable",
      "type": "function"
    },
    {
      "inputs": [
        {
          "internalType": "contract ICompoundTimelock",
          "name": "newTimelock",
          "type": "address"
        }
      ],
      "name": "updateTimelock",
      "outputs": [],
      "stateMutability": "nonpayable",
      "type": "function"
    },
    {
      "inputs": [],
      "name": "version",
      "outputs": [
        {
          "internalType": "string",
          "name": "",
          "type": "string"
        }
      ],
      "stateMutability": "view",
      "type": "function"
    },
    {
      "inputs": [],
      "name": "votingDelay",
      "outputs": [
        {
          "internalType": "uint256",
          "name": "",
          "type": "uint256"
        }
      ],
      "stateMutability": "view",
      "type": "function"
    },
    {
      "inputs": [],
      "name": "votingPeriod",
      "outputs": [
        {
          "internalType": "uint256",
          "name": "",
          "type": "uint256"
        }
      ],
      "stateMutability": "view",
      "type": "function"
    },
    {
      "stateMutability": "payable",
      "type": "receive"
    },
    {
      "inputs": [
        {
          "internalType": "bytes4",
          "name": "interfaceId",
          "type": "bytes4"
        }
      ],
      "name": "supportsInterface",
      "outputs": [
        {
          "internalType": "bool",
          "name": "",
          "type": "bool"
        }
      ],
      "stateMutability": "view",
      "type": "function"
    },
    {
      "inputs": [
        {
          "internalType": "uint256",
          "name": "blockNumber",
          "type": "uint256"
        }
      ],
      "name": "quorum",
      "outputs": [
        {
          "internalType": "uint256",
          "name": "",
          "type": "uint256"
        }
      ],
      "stateMutability": "view",
      "type": "function"
    },
    {
      "inputs": [
        {
          "internalType": "address[]",
          "name": "targets",
          "type": "address[]"
        },
        {
          "internalType": "uint256[]",
          "name": "values",
          "type": "uint256[]"
        },
        {
          "internalType": "bytes[]",
          "name": "calldatas",
          "type": "bytes[]"
        },
        {
          "internalType": "bytes32",
          "name": "salt",
          "type": "bytes32"
        }
      ],
      "name": "cancel",
      "outputs": [
        {
          "internalType": "uint256",
          "name": "proposalId",
          "type": "uint256"
        }
      ],
      "stateMutability": "nonpayable",
      "type": "function"
    },
    {
      "inputs": [
        {
          "internalType": "uint256",
          "name": "proposalId",
          "type": "uint256"
        }
      ],
      "name": "state",
      "outputs": [
        {
          "internalType": "enum IGovernor.ProposalState",
          "name": "",
          "type": "uint8"
        }
      ],
      "stateMutability": "view",
      "type": "function"
    },
    {
      "inputs": [],
      "name": "proposalThreshold",
      "outputs": [
        {
          "internalType": "uint256",
          "name": "",
          "type": "uint256"
        }
      ],
      "stateMutability": "view",
      "type": "function"
    },
    {
      "inputs": [
        {
          "internalType": "address",
          "name": "account",
          "type": "address"
        },
        {
          "internalType": "uint256",
          "name": "blockNumber",
          "type": "uint256"
        }
      ],
      "name": "getVotes",
      "outputs": [
        {
          "internalType": "uint256",
          "name": "",
          "type": "uint256"
        }
      ],
      "stateMutability": "view",
      "type": "function"
    }
  ],
  "bytecode": "0x6101606040523480156200001257600080fd5b50604051620066a2380380620066a28339818101604052810190620000389190620007f3565b808583868660008b8062000051620001b960201b60201c565b60008280519060200120905060008280519060200120905060007f8b73c3c69bb8fe3d512ecc4cf759cc79239f7b179b0ffacaa9a75d522b39400f90508260e081815250508161010081815250504660a08181525050620000ba818484620001f660201b60201c565b608081815250503073ffffffffffffffffffffffffffffffffffffffff1660c08173ffffffffffffffffffffffffffffffffffffffff1681525050806101208181525050505050505080600090805190602001906200011b92919062000499565b50506200012e836200023260201b60201c565b6200013f826200027960201b60201c565b62000150816200030660201b60201c565b50505062000164816200034d60201b60201c565b508073ffffffffffffffffffffffffffffffffffffffff166101408173ffffffffffffffffffffffffffffffffffffffff168152505050620001ac81620003ee60201b60201c565b5050505050505062000b6e565b60606040518060400160405280600181526020017f3100000000000000000000000000000000000000000000000000000000000000815250905090565b6000838383463060405160200162000213959493929190620008eb565b6040516020818303038152906040528051906020012090509392505050565b7fc565b045403dc03c2eea82b81a0465edad9e2e7fc4d97e11421c209da93d7a93600254826040516200026792919062000948565b60405180910390a18060028190555050565b60008111620002bf576040517f08c379a0000000000000000000000000000000000000000000000000000000008152600401620002b690620009fc565b60405180910390fd5b7f7e3f7f0708a84de9203036abaa450dccc85ad5ff52f78c170f3edb55cf5e882860035482604051620002f492919062000948565b60405180910390a18060038190555050565b7fccb45da8d5717e6c4544694297c4ba5cf151d455c9bb0ed4fc7a38411bc05461600454826040516200033b92919062000948565b60405180910390a18060048190555050565b7f08f74ea46ef7894f65eabfb5e6e695de773a000b47c529ab559178069b226401600560009054906101000a900473ffffffffffffffffffffffffffffffffffffffff1682604051620003a292919062000a1e565b60405180910390a180600560006101000a81548173ffffffffffffffffffffffffffffffffffffffff021916908373ffffffffffffffffffffffffffffffffffffffff16021790555050565b620003fe6200049060201b60201c565b81111562000443576040517f08c379a00000000000000000000000000000000000000000000000000000000081526004016200043a9062000ae7565b60405180910390fd5b60006007549050816007819055507f0553476bf02ef2726e8ce5ced78d63e26e602e4a2257b1f559418e24b463399781836040516200048492919062000948565b60405180910390a15050565b60006064905090565b828054620004a79062000b38565b90600052602060002090601f016020900481019282620004cb576000855562000517565b82601f10620004e657805160ff191683800117855562000517565b8280016001018555821562000517579182015b8281111562000516578251825591602001919060010190620004f9565b5b5090506200052691906200052a565b5090565b5b80821115620005455760008160009055506001016200052b565b5090565b6000604051905090565b600080fd5b600080fd5b600080fd5b600080fd5b6000601f19601f8301169050919050565b7f4e487b7100000000000000000000000000000000000000000000000000000000600052604160045260246000fd5b620005b28262000567565b810181811067ffffffffffffffff82111715620005d457620005d362000578565b5b80604052505050565b6000620005e962000549565b9050620005f78282620005a7565b919050565b600067ffffffffffffffff8211156200061a576200061962000578565b5b620006258262000567565b9050602081019050919050565b60005b838110156200065257808201518184015260208101905062000635565b8381111562000662576000848401525b50505050565b60006200067f6200067984620005fc565b620005dd565b9050828152602081018484840111156200069e576200069d62000562565b5b620006ab84828562000632565b509392505050565b600082601f830112620006cb57620006ca6200055d565b5b8151620006dd84826020860162000668565b91505092915050565b600073ffffffffffffffffffffffffffffffffffffffff82169050919050565b60006200071382620006e6565b9050919050565b6000620007278262000706565b9050919050565b62000739816200071a565b81146200074557600080fd5b50565b60008151905062000759816200072e565b92915050565b6000819050919050565b62000774816200075f565b81146200078057600080fd5b50565b600081519050620007948162000769565b92915050565b6000620007a782620006e6565b9050919050565b6000620007bb826200079a565b9050919050565b620007cd81620007ae565b8114620007d957600080fd5b50565b600081519050620007ed81620007c2565b92915050565b60008060008060008060c0878903121562000813576200081262000553565b5b600087015167ffffffffffffffff81111562000834576200083362000558565b5b6200084289828a01620006b3565b96505060206200085589828a0162000748565b95505060406200086889828a0162000783565b94505060606200087b89828a0162000783565b93505060806200088e89828a01620007dc565b92505060a0620008a189828a0162000783565b9150509295509295509295565b6000819050919050565b620008c381620008ae565b82525050565b620008d4816200075f565b82525050565b620008e58162000706565b82525050565b600060a082019050620009026000830188620008b8565b620009116020830187620008b8565b620009206040830186620008b8565b6200092f6060830185620008c9565b6200093e6080830184620008da565b9695505050505050565b60006040820190506200095f6000830185620008c9565b6200096e6020830184620008c9565b9392505050565b600082825260208201905092915050565b7f476f7665726e6f7253657474696e67733a20766f74696e6720706572696f642060008201527f746f6f206c6f7700000000000000000000000000000000000000000000000000602082015250565b6000620009e460278362000975565b9150620009f18262000986565b604082019050919050565b6000602082019050818103600083015262000a1781620009d5565b9050919050565b600060408201905062000a356000830185620008da565b62000a446020830184620008da565b9392505050565b7f476f7665726e6f72566f74657351756f72756d4672616374696f6e3a2071756f60008201527f72756d4e756d657261746f72206f7665722071756f72756d44656e6f6d696e6160208201527f746f720000000000000000000000000000000000000000000000000000000000604082015250565b600062000acf60438362000975565b915062000adc8262000a4b565b606082019050919050565b6000602082019050818103600083015262000b028162000ac0565b9050919050565b7f4e487b7100000000000000000000000000000000000000000000000000000000600052602260045260246000fd5b6000600282049050600182168062000b5157607f821691505b6020821081141562000b685762000b6762000b09565b5b50919050565b60805160a05160c05160e051610100516101205161014051615acb62000bd760003960008181611ab801528181612190015261228b01526000612600015260006126420152600061262101526000612556015260006125ac015260006125d50152615acb6000f3fe6080604052600436106102085760003560e01c80637d5e81e211610118578063c59057e4116100a0578063ea0217cf1161006f578063ea0217cf14610844578063eb9019d41461086d578063ece40cc1146108aa578063f8ce560a146108d3578063fc0c546a146109105761024e565b8063c59057e414610786578063d33219b4146107c3578063dd4e2ba5146107ee578063deaaa7cc146108195761024e565b8063ab58fb8e116100e7578063ab58fb8e146106a1578063b58131b0146106de578063b9a6196114610709578063c01f9e3714610720578063c28bc2fa1461075d5761024e565b80637d5e81e2146105e557806397c3d33414610622578063a7713a701461064d578063a890c910146106785761024e565b80633bccf4fd1161019b578063544ffc9c1161016a578063544ffc9c146104d857806354fd4d5014610517578063567813881461054257806370b0f6601461057f5780637b3c71d3146105a85761024e565b80633bccf4fd146103e45780633e4f49e614610421578063438596321461045e578063452115d61461049b5761024e565b8063160cbed7116101d7578063160cbed71461030f5780632656227d1461034c5780632d63f6931461037c5780633932abb1146103b95761024e565b806301ffc9a71461025357806302a251a31461029057806306f3f9e6146102bb57806306fdde03146102e45761024e565b3661024e573073ffffffffffffffffffffffffffffffffffffffff1661022c61093b565b73ffffffffffffffffffffffffffffffffffffffff161461024c57600080fd5b005b600080fd5b34801561025f57600080fd5b5061027a6004803603810190610275919061338a565b61094a565b60405161028791906133d2565b60405180910390f35b34801561029c57600080fd5b506102a561095c565b6040516102b29190613406565b60405180910390f35b3480156102c757600080fd5b506102e260048036038101906102dd919061344d565b610966565b005b3480156102f057600080fd5b506102f96109ee565b6040516103069190613513565b60405180910390f35b34801561031b57600080fd5b506103366004803603810190610331919061396a565b610a80565b6040516103439190613406565b60405180910390f35b6103666004803603810190610361919061396a565b610e7d565b6040516103739190613406565b60405180910390f35b34801561038857600080fd5b506103a3600480360381019061039e919061344d565b610fb0565b6040516103b09190613406565b60405180910390f35b3480156103c557600080fd5b506103ce61101e565b6040516103db9190613406565b60405180910390f35b3480156103f057600080fd5b5061040b60048036038101906104069190613a5e565b611028565b6040516104189190613406565b60405180910390f35b34801561042d57600080fd5b506104486004803603810190610443919061344d565b6110b2565b6040516104559190613b50565b60405180910390f35b34801561046a57600080fd5b5061048560048036038101906104809190613b6b565b6110c4565b60405161049291906133d2565b60405180910390f35b3480156104a757600080fd5b506104c260048036038101906104bd919061396a565b61112f565b6040516104cf9190613406565b60405180910390f35b3480156104e457600080fd5b506104ff60048036038101906104fa919061344d565b611147565b60405161050e93929190613bab565b60405180910390f35b34801561052357600080fd5b5061052c61117f565b6040516105399190613513565b60405180910390f35b34801561054e57600080fd5b5061056960048036038101906105649190613be2565b6111bc565b6040516105769190613406565b60405180910390f35b34801561058b57600080fd5b506105a660048036038101906105a1919061344d565b6111ed565b005b3480156105b457600080fd5b506105cf60048036038101906105ca9190613c7d565b611275565b6040516105dc9190613406565b60405180910390f35b3480156105f157600080fd5b5061060c60048036038101906106079190613d92565b6112dd565b6040516106199190613406565b60405180910390f35b34801561062e57600080fd5b506106376115dd565b6040516106449190613406565b60405180910390f35b34801561065957600080fd5b506106626115e6565b60405161066f9190613406565b60405180910390f35b34801561068457600080fd5b5061069f600480360381019061069a9190613eb9565b6115f0565b005b3480156106ad57600080fd5b506106c860048036038101906106c3919061344d565b611678565b6040516106d59190613406565b60405180910390f35b3480156106ea57600080fd5b506106f36116e6565b6040516107009190613406565b60405180910390f35b34801561071557600080fd5b5061071e6116f5565b005b34801561072c57600080fd5b506107476004803603810190610742919061344d565b611779565b6040516107549190613406565b60405180910390f35b34801561076957600080fd5b50610784600480360381019061077f9190613f3c565b6117e7565b005b34801561079257600080fd5b506107ad60048036038101906107a8919061396a565b6118b9565b6040516107ba9190613406565b60405180910390f35b3480156107cf57600080fd5b506107d86118f5565b6040516107e59190613fbf565b60405180910390f35b3480156107fa57600080fd5b5061080361191f565b6040516108109190613513565b60405180910390f35b34801561082557600080fd5b5061082e61195c565b60405161083b9190613fe9565b60405180910390f35b34801561085057600080fd5b5061086b6004803603810190610866919061344d565b611980565b005b34801561087957600080fd5b50610894600480360381019061088f9190614004565b611a08565b6040516108a19190613406565b60405180910390f35b3480156108b657600080fd5b506108d160048036038101906108cc919061344d565b611a1c565b005b3480156108df57600080fd5b506108fa60048036038101906108f5919061344d565b611aa4565b6040516109079190613406565b60405180910390f35b34801561091c57600080fd5b50610925611ab6565b60405161093291906140a3565b60405180910390f35b6000610945611ada565b905090565b600061095582611b04565b9050919050565b6000600354905090565b61096e61093b565b73ffffffffffffffffffffffffffffffffffffffff1661098c611b7e565b73ffffffffffffffffffffffffffffffffffffffff16146109e2576040517f08c379a00000000000000000000000000000000000000000000000000000000081526004016109d99061410a565b60405180910390fd5b6109eb81611b86565b50565b6060600080546109fd90614159565b80601f0160208091040260200160405190810160405280929190818152602001828054610a2990614159565b8015610a765780601f10610a4b57610100808354040283529160200191610a76565b820191906000526020600020905b815481529060010190602001808311610a5957829003601f168201915b5050505050905090565b600080610a8f868686866118b9565b905060046007811115610aa557610aa4613ad9565b5b610aae826110b2565b6007811115610ac057610abf613ad9565b5b14610b00576040517f08c379a0000000000000000000000000000000000000000000000000000000008152600401610af7906141fd565b60405180910390fd5b6000600560009054906101000a900473ffffffffffffffffffffffffffffffffffffffff1673ffffffffffffffffffffffffffffffffffffffff16636a42b8f86040518163ffffffff1660e01b8152600401602060405180830381865afa158015610b6f573d6000803e3d6000fd5b505050506040513d601f19601f82011682018060405250810190610b939190614232565b42610b9e919061428e565b9050610bd0610bac82611c1b565b60066000858152602001908152602001600020600001611c7290919063ffffffff16565b60005b8751811015610e3657600560009054906101000a900473ffffffffffffffffffffffffffffffffffffffff1673ffffffffffffffffffffffffffffffffffffffff1663f2b06537898381518110610c2d57610c2c6142e4565b5b6020026020010151898481518110610c4857610c476142e4565b5b6020026020010151898581518110610c6357610c626142e4565b5b602002602001015186604051602001610c7f949392919061438e565b604051602081830303815290604052805190602001206040518263ffffffff1660e01b8152600401610cb19190613fe9565b602060405180830381865afa158015610cce573d6000803e3d6000fd5b505050506040513d601f19601f82011682018060405250810190610cf29190614419565b15610d32576040517f08c379a0000000000000000000000000000000000000000000000000000000008152600401610d29906144de565b60405180910390fd5b600560009054906101000a900473ffffffffffffffffffffffffffffffffffffffff1673ffffffffffffffffffffffffffffffffffffffff16633a66f901898381518110610d8357610d826142e4565b5b6020026020010151898481518110610d9e57610d9d6142e4565b5b6020026020010151898581518110610db957610db86142e4565b5b6020026020010151866040518563ffffffff1660e01b8152600401610de1949392919061438e565b6020604051808303816000875af1158015610e00573d6000803e3d6000fd5b505050506040513d601f19601f82011682018060405250810190610e249190614513565b5080610e2f90614540565b9050610bd3565b507f9a2e42fd6722813d69113e7d0079d3d940171428df7373df9c7f7617cfda28928282604051610e68929190614589565b60405180910390a18192505050949350505050565b600080610e8c868686866118b9565b90506000610e99826110b2565b905060046007811115610eaf57610eae613ad9565b5b816007811115610ec257610ec1613ad9565b5b1480610ef2575060056007811115610edd57610edc613ad9565b5b816007811115610ef057610eef613ad9565b5b145b610f31576040517f08c379a0000000000000000000000000000000000000000000000000000000008152600401610f28906141fd565b60405180910390fd5b600180600084815260200190815260200160002060020160006101000a81548160ff0219169083151502179055507f712ae1383f79ac853f8d882153778e0260ef8f03b504e2866e0593e04d2b291f82604051610f8e9190613406565b60405180910390a1610fa38288888888611ca1565b8192505050949350505050565b600061100d600160008481526020019081526020016000206000016040518060200160405290816000820160009054906101000a900467ffffffffffffffff1667ffffffffffffffff1667ffffffffffffffff1681525050611cb5565b67ffffffffffffffff169050919050565b6000600254905090565b6000806110896110817f150214d74d59b7d1e90c73fc22ef3d991dd0a76b046543d4d80ab92d2a50328f8989604051602001611066939291906145c1565b60405160208183030381529060405280519060200120611cc3565b868686611cdd565b90506110a687828860405180602001604052806000815250611d08565b91505095945050505050565b60006110bd82611e5c565b9050919050565b60006008600084815260200190815260200160002060030160008373ffffffffffffffffffffffffffffffffffffffff1673ffffffffffffffffffffffffffffffffffffffff16815260200190815260200160002060009054906101000a900460ff16905092915050565b600061113d85858585611f78565b9050949350505050565b600080600080600860008681526020019081526020016000209050806000015481600101548260020154935093509350509193909250565b60606040518060400160405280600181526020017f3100000000000000000000000000000000000000000000000000000000000000815250905090565b6000806111c7611b7e565b90506111e484828560405180602001604052806000815250611d08565b91505092915050565b6111f561093b565b73ffffffffffffffffffffffffffffffffffffffff16611213611b7e565b73ffffffffffffffffffffffffffffffffffffffff1614611269576040517f08c379a00000000000000000000000000000000000000000000000000000000081526004016112609061410a565b60405180910390fd5b61127281611f90565b50565b600080611280611b7e565b90506112d286828787878080601f016020809104026020016040519081016040528093929190818152602001838380828437600081840152601f19601f82011690508083019250505050505050611d08565b915050949350505050565b60006112e76116e6565b6112fd336001436112f891906145f8565b611a08565b101561133e576040517f08c379a0000000000000000000000000000000000000000000000000000000008152600401611335906146c4565b60405180910390fd5b600061135386868686805190602001206118b9565b90508451865114611399576040517f08c379a000000000000000000000000000000000000000000000000000000000815260040161139090614756565b60405180910390fd5b83518651146113dd576040517f08c379a00000000000000000000000000000000000000000000000000000000081526004016113d490614756565b60405180910390fd5b6000865111611421576040517f08c379a0000000000000000000000000000000000000000000000000000000008152600401611418906147c2565b60405180910390fd5b6000600160008381526020019081526020016000209050611481816000016040518060200160405290816000820160009054906101000a900467ffffffffffffffff1667ffffffffffffffff1667ffffffffffffffff1681525050611fd5565b6114c0576040517f08c379a00000000000000000000000000000000000000000000000000000000081526004016114b790614854565b60405180910390fd5b60006114d26114cd61101e565b611c1b565b6114db43611c1b565b6114e59190614888565b905060006114f96114f461095c565b611c1b565b826115049190614888565b905061151c8284600001611fef90919063ffffffff16565b6115328184600101611fef90919063ffffffff16565b7f7d84a6263ae0d98d3329bd7b46bb4e8d6f98cd35a7adb45c274c8b7fd5ebd5e08461155c611b7e565b8b8b8d5167ffffffffffffffff8111156115795761157861353a565b5b6040519080825280602002602001820160405280156115ac57816020015b60608152602001906001900390816115975790505b508c88888e6040516115c699989796959493929190614c8b565b60405180910390a183945050505050949350505050565b60006064905090565b6000600754905090565b6115f861093b565b73ffffffffffffffffffffffffffffffffffffffff16611616611b7e565b73ffffffffffffffffffffffffffffffffffffffff161461166c576040517f08c379a00000000000000000000000000000000000000000000000000000000081526004016116639061410a565b60405180910390fd5b6116758161201e565b50565b60006116d5600660008481526020019081526020016000206000016040518060200160405290816000820160009054906101000a900467ffffffffffffffff1667ffffffffffffffff1667ffffffffffffffff16815250506120bd565b67ffffffffffffffff169050919050565b60006116f06120cb565b905090565b600560009054906101000a900473ffffffffffffffffffffffffffffffffffffffff1673ffffffffffffffffffffffffffffffffffffffff16630e18b6816040518163ffffffff1660e01b8152600401600060405180830381600087803b15801561175f57600080fd5b505af1158015611773573d6000803e3d6000fd5b50505050565b60006117d6600160008481526020019081526020016000206001016040518060200160405290816000820160009054906101000a900467ffffffffffffffff1667ffffffffffffffff1667ffffffffffffffff1681525050611cb5565b67ffffffffffffffff169050919050565b6117ef61093b565b73ffffffffffffffffffffffffffffffffffffffff1661180d611b7e565b73ffffffffffffffffffffffffffffffffffffffff1614611863576040517f08c379a000000000000000000000000000000000000000000000000000000000815260040161185a9061410a565b60405180910390fd5b6118b28483838080601f016020809104026020016040519081016040528093929190818152602001838380828437600081840152601f19601f82011690508083019250505050505050856120d5565b5050505050565b6000848484846040516020016118d29493929190614d3b565b6040516020818303038152906040528051906020012060001c9050949350505050565b6000600560009054906101000a900473ffffffffffffffffffffffffffffffffffffffff16905090565b60606040518060400160405280602081526020017f737570706f72743d627261766f2671756f72756d3d666f722c6162737461696e815250905090565b7f150214d74d59b7d1e90c73fc22ef3d991dd0a76b046543d4d80ab92d2a50328f81565b61198861093b565b73ffffffffffffffffffffffffffffffffffffffff166119a6611b7e565b73ffffffffffffffffffffffffffffffffffffffff16146119fc576040517f08c379a00000000000000000000000000000000000000000000000000000000081526004016119f39061410a565b60405180910390fd5b611a0581612104565b50565b6000611a14838361218c565b905092915050565b611a2461093b565b73ffffffffffffffffffffffffffffffffffffffff16611a42611b7e565b73ffffffffffffffffffffffffffffffffffffffff1614611a98576040517f08c379a0000000000000000000000000000000000000000000000000000000008152600401611a8f9061410a565b60405180910390fd5b611aa181612232565b50565b6000611aaf82612277565b9050919050565b7f000000000000000000000000000000000000000000000000000000000000000081565b6000600560009054906101000a900473ffffffffffffffffffffffffffffffffffffffff16905090565b60007f6e665ced000000000000000000000000000000000000000000000000000000007bffffffffffffffffffffffffffffffffffffffffffffffffffffffff1916827bffffffffffffffffffffffffffffffffffffffffffffffffffffffff19161480611b775750611b768261233e565b5b9050919050565b600033905090565b611b8e6115dd565b811115611bd0576040517f08c379a0000000000000000000000000000000000000000000000000000000008152600401611bc790614e2d565b60405180910390fd5b60006007549050816007819055507f0553476bf02ef2726e8ce5ced78d63e26e602e4a2257b1f559418e24b46339978183604051611c0f929190614589565b60405180910390a15050565b600067ffffffffffffffff8016821115611c6a576040517f08c379a0000000000000000000000000000000000000000000000000000000008152600401611c6190614ebf565b60405180910390fd5b819050919050565b808260000160006101000a81548167ffffffffffffffff021916908367ffffffffffffffff1602179055505050565b611cae85858585856123b8565b5050505050565b600081600001519050919050565b6000611cd6611cd0612552565b8361266c565b9050919050565b6000806000611cee8787878761269f565b91509150611cfb816127ac565b8192505050949350505050565b60008060016000878152602001908152602001600020905060016007811115611d3457611d33613ad9565b5b611d3d876110b2565b6007811115611d4f57611d4e613ad9565b5b14611d8f576040517f08c379a0000000000000000000000000000000000000000000000000000000008152600401611d8690614f51565b60405180910390fd5b6000611ded86611dde846000016040518060200160405290816000820160009054906101000a900467ffffffffffffffff1667ffffffffffffffff1667ffffffffffffffff1681525050611cb5565b67ffffffffffffffff16611a08565b9050611dfb87878784612981565b8573ffffffffffffffffffffffffffffffffffffffff167fb8e138887d0aa13bab447e82de9d5c1777041ecd21ca36ba824ff1e6c07ddda488878488604051611e479493929190614f71565b60405180910390a28092505050949350505050565b600080611e6883612b87565b905060046007811115611e7e57611e7d613ad9565b5b816007811115611e9157611e90613ad9565b5b14611e9f5780915050611f73565b6000611eaa84611678565b90506000811415611ebf578192505050611f73565b600560009054906101000a900473ffffffffffffffffffffffffffffffffffffffff1673ffffffffffffffffffffffffffffffffffffffff1663c1a287e26040518163ffffffff1660e01b8152600401602060405180830381865afa158015611f2c573d6000803e3d6000fd5b505050506040513d601f19601f82011682018060405250810190611f509190614232565b81611f5b919061428e565b4210611f6c57600692505050611f73565b6005925050505b919050565b6000611f8685858585612c9c565b9050949350505050565b7fc565b045403dc03c2eea82b81a0465edad9e2e7fc4d97e11421c209da93d7a9360025482604051611fc3929190614589565b60405180910390a18060028190555050565b600080826000015167ffffffffffffffff16149050919050565b808260000160006101000a81548167ffffffffffffffff021916908367ffffffffffffffff1602179055505050565b7f08f74ea46ef7894f65eabfb5e6e695de773a000b47c529ab559178069b226401600560009054906101000a900473ffffffffffffffffffffffffffffffffffffffff1682604051612071929190614fbd565b60405180910390a180600560006101000a81548173ffffffffffffffffffffffffffffffffffffffff021916908373ffffffffffffffffffffffffffffffffffffffff16021790555050565b600081600001519050919050565b6000600454905090565b60606120fb848484604051806060016040528060298152602001615a6d60299139612dee565b90509392505050565b60008111612147576040517f08c379a000000000000000000000000000000000000000000000000000000000815260040161213e90615058565b60405180910390fd5b7f7e3f7f0708a84de9203036abaa450dccc85ad5ff52f78c170f3edb55cf5e88286003548260405161217a929190614589565b60405180910390a18060038190555050565b60007f000000000000000000000000000000000000000000000000000000000000000073ffffffffffffffffffffffffffffffffffffffff16633a46b1a884846040518363ffffffff1660e01b81526004016121e9929190615078565b602060405180830381865afa158015612206573d6000803e3d6000fd5b505050506040513d601f19601f8201168201806040525081019061222a9190614232565b905092915050565b7fccb45da8d5717e6c4544694297c4ba5cf151d455c9bb0ed4fc7a38411bc0546160045482604051612265929190614589565b60405180910390a18060048190555050565b60006122816115dd565b6122896115e6565b7f000000000000000000000000000000000000000000000000000000000000000073ffffffffffffffffffffffffffffffffffffffff16638e539e8c856040518263ffffffff1660e01b81526004016122e29190613406565b602060405180830381865afa1580156122ff573d6000803e3d6000fd5b505050506040513d601f19601f820116820180604052508101906123239190614232565b61232d91906150a1565b612337919061512a565b9050919050565b60007fbf26d897000000000000000000000000000000000000000000000000000000007bffffffffffffffffffffffffffffffffffffffffffffffffffffffff1916827bffffffffffffffffffffffffffffffffffffffffffffffffffffffff191614806123b157506123b082612f02565b5b9050919050565b60006123c386611678565b905060008111612408576040517f08c379a00000000000000000000000000000000000000000000000000000000081526004016123ff906151cd565b60405180910390fd5b612434600560009054906101000a900473ffffffffffffffffffffffffffffffffffffffff1634612f6c565b60005b855181101561254957600560009054906101000a900473ffffffffffffffffffffffffffffffffffffffff1673ffffffffffffffffffffffffffffffffffffffff16630825f38f878381518110612491576124906142e4565b5b60200260200101518784815181106124ac576124ab6142e4565b5b60200260200101518785815181106124c7576124c66142e4565b5b6020026020010151866040518563ffffffff1660e01b81526004016124ef949392919061438e565b6000604051808303816000875af115801561250e573d6000803e3d6000fd5b505050506040513d6000823e3d601f19601f82011682018060405250810190612537919061525d565b508061254290614540565b9050612437565b50505050505050565b60007f000000000000000000000000000000000000000000000000000000000000000073ffffffffffffffffffffffffffffffffffffffff163073ffffffffffffffffffffffffffffffffffffffff161480156125ce57507f000000000000000000000000000000000000000000000000000000000000000046145b156125fb577f00000000000000000000000000000000000000000000000000000000000000009050612669565b6126667f00000000000000000000000000000000000000000000000000000000000000007f00000000000000000000000000000000000000000000000000000000000000007f0000000000000000000000000000000000000000000000000000000000000000613060565b90505b90565b6000828260405160200161268192919061531e565b60405160208183030381529060405280519060200120905092915050565b6000807f7fffffffffffffffffffffffffffffff5d576e7357a4501ddfe92f46681b20a08360001c11156126da5760006003915091506127a3565b601b8560ff16141580156126f25750601c8560ff1614155b156127045760006004915091506127a3565b6000600187878787604051600081526020016040526040516127299493929190615355565b6020604051602081039080840390855afa15801561274b573d6000803e3d6000fd5b505050602060405103519050600073ffffffffffffffffffffffffffffffffffffffff168173ffffffffffffffffffffffffffffffffffffffff16141561279a576000600192509250506127a3565b80600092509250505b94509492505050565b600060048111156127c0576127bf613ad9565b5b8160048111156127d3576127d2613ad9565b5b14156127de5761297e565b600160048111156127f2576127f1613ad9565b5b81600481111561280557612804613ad9565b5b1415612846576040517f08c379a000000000000000000000000000000000000000000000000000000000815260040161283d906153e6565b60405180910390fd5b6002600481111561285a57612859613ad9565b5b81600481111561286d5761286c613ad9565b5b14156128ae576040517f08c379a00000000000000000000000000000000000000000000000000000000081526004016128a590615452565b60405180910390fd5b600360048111156128c2576128c1613ad9565b5b8160048111156128d5576128d4613ad9565b5b1415612916576040517f08c379a000000000000000000000000000000000000000000000000000000000815260040161290d906154e4565b60405180910390fd5b60048081111561292957612928613ad9565b5b81600481111561293c5761293b613ad9565b5b141561297d576040517f08c379a000000000000000000000000000000000000000000000000000000000815260040161297490615576565b60405180910390fd5b5b50565b60006008600086815260200190815260200160002090508060030160008573ffffffffffffffffffffffffffffffffffffffff1673ffffffffffffffffffffffffffffffffffffffff16815260200190815260200160002060009054906101000a900460ff1615612a27576040517f08c379a0000000000000000000000000000000000000000000000000000000008152600401612a1e90615608565b60405180910390fd5b60018160030160008673ffffffffffffffffffffffffffffffffffffffff1673ffffffffffffffffffffffffffffffffffffffff16815260200190815260200160002060006101000a81548160ff02191690831515021790555060006002811115612a9557612a94613ad9565b5b60ff168360ff161415612ac25781816000016000828254612ab6919061428e565b92505081905550612b80565b60016002811115612ad657612ad5613ad9565b5b60ff168360ff161415612b035781816001016000828254612af7919061428e565b92505081905550612b7f565b600280811115612b1657612b15613ad9565b5b60ff168360ff161415612b435781816002016000828254612b37919061428e565b92505081905550612b7e565b6040517f08c379a0000000000000000000000000000000000000000000000000000000008152600401612b759061569a565b60405180910390fd5b5b5b5050505050565b6000806001600084815260200190815260200160002090508060020160009054906101000a900460ff1615612bc0576007915050612c97565b8060020160019054906101000a900460ff1615612be1576002915050612c97565b6000612bec84610fb0565b90506000811415612c32576040517f08c379a0000000000000000000000000000000000000000000000000000000008152600401612c2990615706565b60405180910390fd5b438110612c4457600092505050612c97565b6000612c4f85611779565b9050438110612c645760019350505050612c97565b612c6d8561309a565b8015612c7e5750612c7d856130e1565b5b15612c8f5760049350505050612c97565b600393505050505b919050565b600080612cab8686868661310c565b90506000612cb882611678565b90506000811115612de15760005b8751811015612dc157600560009054906101000a900473ffffffffffffffffffffffffffffffffffffffff1673ffffffffffffffffffffffffffffffffffffffff1663591fcdfe898381518110612d2057612d1f6142e4565b5b6020026020010151898481518110612d3b57612d3a6142e4565b5b6020026020010151898581518110612d5657612d556142e4565b5b6020026020010151866040518563ffffffff1660e01b8152600401612d7e949392919061438e565b600060405180830381600087803b158015612d9857600080fd5b505af1158015612dac573d6000803e3d6000fd5b5050505080612dba90614540565b9050612cc6565b50612de060066000848152602001908152602001600020600001613265565b5b8192505050949350505050565b606082471015612e33576040517f08c379a0000000000000000000000000000000000000000000000000000000008152600401612e2a90615798565b60405180910390fd5b612e3c85613294565b612e7b576040517f08c379a0000000000000000000000000000000000000000000000000000000008152600401612e7290615804565b60405180910390fd5b6000808673ffffffffffffffffffffffffffffffffffffffff168587604051612ea49190615860565b60006040518083038185875af1925050503d8060008114612ee1576040519150601f19603f3d011682016040523d82523d6000602084013e612ee6565b606091505b5091509150612ef68282866132b7565b92505050949350505050565b60007f01ffc9a7000000000000000000000000000000000000000000000000000000007bffffffffffffffffffffffffffffffffffffffffffffffffffffffff1916827bffffffffffffffffffffffffffffffffffffffffffffffffffffffff1916149050919050565b80471015612faf576040517f08c379a0000000000000000000000000000000000000000000000000000000008152600401612fa6906158c3565b60405180910390fd5b60008273ffffffffffffffffffffffffffffffffffffffff1682604051612fd590615906565b60006040518083038185875af1925050503d8060008114613012576040519150601f19603f3d011682016040523d82523d6000602084013e613017565b606091505b505090508061305b576040517f08c379a00000000000000000000000000000000000000000000000000000000081526004016130529061598d565b60405180910390fd5b505050565b6000838383463060405160200161307b9594939291906159ad565b6040516020818303038152906040528051906020012090509392505050565b600080600860008481526020019081526020016000209050806002015481600101546130c6919061428e565b6130d76130d285610fb0565b611aa4565b1115915050919050565b6000806008600084815260200190815260200160002090508060000154816001015411915050919050565b60008061311b868686866118b9565b90506000613128826110b2565b90506002600781111561313e5761313d613ad9565b5b81600781111561315157613150613ad9565b5b1415801561318457506006600781111561316e5761316d613ad9565b5b81600781111561318157613180613ad9565b5b14155b80156131b4575060078081111561319e5761319d613ad9565b5b8160078111156131b1576131b0613ad9565b5b14155b6131f3576040517f08c379a00000000000000000000000000000000000000000000000000000000081526004016131ea90615a4c565b60405180910390fd5b600180600084815260200190815260200160002060020160016101000a81548160ff0219169083151502179055507f789cf55be980739dad1d0699b93b58e806b51c9d96619bfa8fe0a28abaa7b30c826040516132509190613406565b60405180910390a18192505050949350505050565b60008160000160006101000a81548167ffffffffffffffff021916908367ffffffffffffffff16021790555050565b6000808273ffffffffffffffffffffffffffffffffffffffff163b119050919050565b606083156132c757829050613317565b6000835111156132da5782518084602001fd5b816040517f08c379a000000000000000000000000000000000000000000000000000000000815260040161330e9190613513565b60405180910390fd5b9392505050565b6000604051905090565b600080fd5b600080fd5b60007fffffffff0000000000000000000000000000000000000000000000000000000082169050919050565b61336781613332565b811461337257600080fd5b50565b6000813590506133848161335e565b92915050565b6000602082840312156133a05761339f613328565b5b60006133ae84828501613375565b91505092915050565b60008115159050919050565b6133cc816133b7565b82525050565b60006020820190506133e760008301846133c3565b92915050565b6000819050919050565b613400816133ed565b82525050565b600060208201905061341b60008301846133f7565b92915050565b61342a816133ed565b811461343557600080fd5b50565b60008135905061344781613421565b92915050565b60006020828403121561346357613462613328565b5b600061347184828501613438565b91505092915050565b600081519050919050565b600082825260208201905092915050565b60005b838110156134b4578082015181840152602081019050613499565b838111156134c3576000848401525b50505050565b6000601f19601f8301169050919050565b60006134e58261347a565b6134ef8185613485565b93506134ff818560208601613496565b613508816134c9565b840191505092915050565b6000602082019050818103600083015261352d81846134da565b905092915050565b600080fd5b7f4e487b7100000000000000000000000000000000000000000000000000000000600052604160045260246000fd5b613572826134c9565b810181811067ffffffffffffffff821117156135915761359061353a565b5b80604052505050565b60006135a461331e565b90506135b08282613569565b919050565b600067ffffffffffffffff8211156135d0576135cf61353a565b5b602082029050602081019050919050565b600080fd5b600073ffffffffffffffffffffffffffffffffffffffff82169050919050565b6000613611826135e6565b9050919050565b61362181613606565b811461362c57600080fd5b50565b60008135905061363e81613618565b92915050565b6000613657613652846135b5565b61359a565b9050808382526020820190506020840283018581111561367a576136796135e1565b5b835b818110156136a3578061368f888261362f565b84526020840193505060208101905061367c565b5050509392505050565b600082601f8301126136c2576136c1613535565b5b81356136d2848260208601613644565b91505092915050565b600067ffffffffffffffff8211156136f6576136f561353a565b5b602082029050602081019050919050565b600061371a613715846136db565b61359a565b9050808382526020820190506020840283018581111561373d5761373c6135e1565b5b835b8181101561376657806137528882613438565b84526020840193505060208101905061373f565b5050509392505050565b600082601f83011261378557613784613535565b5b8135613795848260208601613707565b91505092915050565b600067ffffffffffffffff8211156137b9576137b861353a565b5b602082029050602081019050919050565b600080fd5b600067ffffffffffffffff8211156137ea576137e961353a565b5b6137f3826134c9565b9050602081019050919050565b82818337600083830152505050565b600061382261381d846137cf565b61359a565b90508281526020810184848401111561383e5761383d6137ca565b5b613849848285613800565b509392505050565b600082601f83011261386657613865613535565b5b813561387684826020860161380f565b91505092915050565b600061389261388d8461379e565b61359a565b905080838252602082019050602084028301858111156138b5576138b46135e1565b5b835b818110156138fc57803567ffffffffffffffff8111156138da576138d9613535565b5b8086016138e78982613851565b855260208501945050506020810190506138b7565b5050509392505050565b600082601f83011261391b5761391a613535565b5b813561392b84826020860161387f565b91505092915050565b6000819050919050565b61394781613934565b811461395257600080fd5b50565b6000813590506139648161393e565b92915050565b6000806000806080858703121561398457613983613328565b5b600085013567ffffffffffffffff8111156139a2576139a161332d565b5b6139ae878288016136ad565b945050602085013567ffffffffffffffff8111156139cf576139ce61332d565b5b6139db87828801613770565b935050604085013567ffffffffffffffff8111156139fc576139fb61332d565b5b613a0887828801613906565b9250506060613a1987828801613955565b91505092959194509250565b600060ff82169050919050565b613a3b81613a25565b8114613a4657600080fd5b50565b600081359050613a5881613a32565b92915050565b600080600080600060a08688031215613a7a57613a79613328565b5b6000613a8888828901613438565b9550506020613a9988828901613a49565b9450506040613aaa88828901613a49565b9350506060613abb88828901613955565b9250506080613acc88828901613955565b9150509295509295909350565b7f4e487b7100000000000000000000000000000000000000000000000000000000600052602160045260246000fd5b60088110613b1957613b18613ad9565b5b50565b6000819050613b2a82613b08565b919050565b6000613b3a82613b1c565b9050919050565b613b4a81613b2f565b82525050565b6000602082019050613b656000830184613b41565b92915050565b60008060408385031215613b8257613b81613328565b5b6000613b9085828601613438565b9250506020613ba18582860161362f565b9150509250929050565b6000606082019050613bc060008301866133f7565b613bcd60208301856133f7565b613bda60408301846133f7565b949350505050565b60008060408385031215613bf957613bf8613328565b5b6000613c0785828601613438565b9250506020613c1885828601613a49565b9150509250929050565b600080fd5b60008083601f840112613c3d57613c3c613535565b5b8235905067ffffffffffffffff811115613c5a57613c59613c22565b5b602083019150836001820283011115613c7657613c756135e1565b5b9250929050565b60008060008060608587031215613c9757613c96613328565b5b6000613ca587828801613438565b9450506020613cb687828801613a49565b935050604085013567ffffffffffffffff811115613cd757613cd661332d565b5b613ce387828801613c27565b925092505092959194509250565b600067ffffffffffffffff821115613d0c57613d0b61353a565b5b613d15826134c9565b9050602081019050919050565b6000613d35613d3084613cf1565b61359a565b905082815260208101848484011115613d5157613d506137ca565b5b613d5c848285613800565b509392505050565b600082601f830112613d7957613d78613535565b5b8135613d89848260208601613d22565b91505092915050565b60008060008060808587031215613dac57613dab613328565b5b600085013567ffffffffffffffff811115613dca57613dc961332d565b5b613dd6878288016136ad565b945050602085013567ffffffffffffffff811115613df757613df661332d565b5b613e0387828801613770565b935050604085013567ffffffffffffffff811115613e2457613e2361332d565b5b613e3087828801613906565b925050606085013567ffffffffffffffff811115613e5157613e5061332d565b5b613e5d87828801613d64565b91505092959194509250565b6000613e74826135e6565b9050919050565b6000613e8682613e69565b9050919050565b613e9681613e7b565b8114613ea157600080fd5b50565b600081359050613eb381613e8d565b92915050565b600060208284031215613ecf57613ece613328565b5b6000613edd84828501613ea4565b91505092915050565b60008083601f840112613efc57613efb613535565b5b8235905067ffffffffffffffff811115613f1957613f18613c22565b5b602083019150836001820283011115613f3557613f346135e1565b5b9250929050565b60008060008060608587031215613f5657613f55613328565b5b6000613f648782880161362f565b9450506020613f7587828801613438565b935050604085013567ffffffffffffffff811115613f9657613f9561332d565b5b613fa287828801613ee6565b925092505092959194509250565b613fb981613606565b82525050565b6000602082019050613fd46000830184613fb0565b92915050565b613fe381613934565b82525050565b6000602082019050613ffe6000830184613fda565b92915050565b6000806040838503121561401b5761401a613328565b5b60006140298582860161362f565b925050602061403a85828601613438565b9150509250929050565b6000819050919050565b600061406961406461405f846135e6565b614044565b6135e6565b9050919050565b600061407b8261404e565b9050919050565b600061408d82614070565b9050919050565b61409d81614082565b82525050565b60006020820190506140b86000830184614094565b92915050565b7f476f7665726e6f723a206f6e6c79476f7665726e616e63650000000000000000600082015250565b60006140f4601883613485565b91506140ff826140be565b602082019050919050565b60006020820190508181036000830152614123816140e7565b9050919050565b7f4e487b7100000000000000000000000000000000000000000000000000000000600052602260045260246000fd5b6000600282049050600182168061417157607f821691505b602082108114156141855761418461412a565b5b50919050565b7f476f7665726e6f723a2070726f706f73616c206e6f742073756363657373667560008201527f6c00000000000000000000000000000000000000000000000000000000000000602082015250565b60006141e7602183613485565b91506141f28261418b565b604082019050919050565b60006020820190508181036000830152614216816141da565b9050919050565b60008151905061422c81613421565b92915050565b60006020828403121561424857614247613328565b5b60006142568482850161421d565b91505092915050565b7f4e487b7100000000000000000000000000000000000000000000000000000000600052601160045260246000fd5b6000614299826133ed565b91506142a4836133ed565b9250827fffffffffffffffffffffffffffffffffffffffffffffffffffffffffffffffff038211156142d9576142d861425f565b5b828201905092915050565b7f4e487b7100000000000000000000000000000000000000000000000000000000600052603260045260246000fd5b50565b6000614323600083613485565b915061432e82614313565b600082019050919050565b600081519050919050565b600082825260208201905092915050565b600061436082614339565b61436a8185614344565b935061437a818560208601613496565b614383816134c9565b840191505092915050565b600060a0820190506143a36000830187613fb0565b6143b060208301866133f7565b81810360408301526143c181614316565b905081810360608301526143d58185614355565b90506143e460808301846133f7565b95945050505050565b6143f6816133b7565b811461440157600080fd5b50565b600081519050614413816143ed565b92915050565b60006020828403121561442f5761442e613328565b5b600061443d84828501614404565b91505092915050565b7f476f7665726e6f7254696d656c6f636b436f6d706f756e643a206964656e746960008201527f63616c2070726f706f73616c20616374696f6e20616c7265616479207175657560208201527f6564000000000000000000000000000000000000000000000000000000000000604082015250565b60006144c8604283613485565b91506144d382614446565b606082019050919050565b600060208201905081810360008301526144f7816144bb565b9050919050565b60008151905061450d8161393e565b92915050565b60006020828403121561452957614528613328565b5b6000614537848285016144fe565b91505092915050565b600061454b826133ed565b91507fffffffffffffffffffffffffffffffffffffffffffffffffffffffffffffffff82141561457e5761457d61425f565b5b600182019050919050565b600060408201905061459e60008301856133f7565b6145ab60208301846133f7565b9392505050565b6145bb81613a25565b82525050565b60006060820190506145d66000830186613fda565b6145e360208301856133f7565b6145f060408301846145b2565b949350505050565b6000614603826133ed565b915061460e836133ed565b9250828210156146215761462061425f565b5b828203905092915050565b7f476f7665726e6f72436f6d7061746962696c697479427261766f3a2070726f7060008201527f6f73657220766f7465732062656c6f772070726f706f73616c2074687265736860208201527f6f6c640000000000000000000000000000000000000000000000000000000000604082015250565b60006146ae604383613485565b91506146b98261462c565b606082019050919050565b600060208201905081810360008301526146dd816146a1565b9050919050565b7f476f7665726e6f723a20696e76616c69642070726f706f73616c206c656e677460008201527f6800000000000000000000000000000000000000000000000000000000000000602082015250565b6000614740602183613485565b915061474b826146e4565b604082019050919050565b6000602082019050818103600083015261476f81614733565b9050919050565b7f476f7665726e6f723a20656d7074792070726f706f73616c0000000000000000600082015250565b60006147ac601883613485565b91506147b782614776565b602082019050919050565b600060208201905081810360008301526147db8161479f565b9050919050565b7f476f7665726e6f723a2070726f706f73616c20616c726561647920657869737460008201527f7300000000000000000000000000000000000000000000000000000000000000602082015250565b600061483e602183613485565b9150614849826147e2565b604082019050919050565b6000602082019050818103600083015261486d81614831565b9050919050565b600067ffffffffffffffff82169050919050565b600061489382614874565b915061489e83614874565b92508267ffffffffffffffff038211156148bb576148ba61425f565b5b828201905092915050565b600081519050919050565b600082825260208201905092915050565b6000819050602082019050919050565b6148fb81613606565b82525050565b600061490d83836148f2565b60208301905092915050565b6000602082019050919050565b6000614931826148c6565b61493b81856148d1565b9350614946836148e2565b8060005b8381101561497757815161495e8882614901565b975061496983614919565b92505060018101905061494a565b5085935050505092915050565b600081519050919050565b600082825260208201905092915050565b6000819050602082019050919050565b6149b9816133ed565b82525050565b60006149cb83836149b0565b60208301905092915050565b6000602082019050919050565b60006149ef82614984565b6149f9818561498f565b9350614a04836149a0565b8060005b83811015614a35578151614a1c88826149bf565b9750614a27836149d7565b925050600181019050614a08565b5085935050505092915050565b600081519050919050565b600082825260208201905092915050565b6000819050602082019050919050565b600082825260208201905092915050565b6000614a8a8261347a565b614a948185614a6e565b9350614aa4818560208601613496565b614aad816134c9565b840191505092915050565b6000614ac48383614a7f565b905092915050565b6000602082019050919050565b6000614ae482614a42565b614aee8185614a4d565b935083602082028501614b0085614a5e565b8060005b85811015614b3c5784840389528151614b1d8582614ab8565b9450614b2883614acc565b925060208a01995050600181019050614b04565b50829750879550505050505092915050565b600081519050919050565b600082825260208201905092915050565b6000819050602082019050919050565b600082825260208201905092915050565b6000614b9682614339565b614ba08185614b7a565b9350614bb0818560208601613496565b614bb9816134c9565b840191505092915050565b6000614bd08383614b8b565b905092915050565b6000602082019050919050565b6000614bf082614b4e565b614bfa8185614b59565b935083602082028501614c0c85614b6a565b8060005b85811015614c485784840389528151614c298582614bc4565b9450614c3483614bd8565b925060208a01995050600181019050614c10565b50829750879550505050505092915050565b6000614c75614c70614c6b84614874565b614044565b6133ed565b9050919050565b614c8581614c5a565b82525050565b600061012082019050614ca1600083018c6133f7565b614cae602083018b613fb0565b8181036040830152614cc0818a614926565b90508181036060830152614cd481896149e4565b90508181036080830152614ce88188614ad9565b905081810360a0830152614cfc8187614be5565b9050614d0b60c0830186614c7c565b614d1860e0830185614c7c565b818103610100830152614d2b81846134da565b90509a9950505050505050505050565b60006080820190508181036000830152614d558187614926565b90508181036020830152614d6981866149e4565b90508181036040830152614d7d8185614be5565b9050614d8c6060830184613fda565b95945050505050565b7f476f7665726e6f72566f74657351756f72756d4672616374696f6e3a2071756f60008201527f72756d4e756d657261746f72206f7665722071756f72756d44656e6f6d696e6160208201527f746f720000000000000000000000000000000000000000000000000000000000604082015250565b6000614e17604383613485565b9150614e2282614d95565b606082019050919050565b60006020820190508181036000830152614e4681614e0a565b9050919050565b7f53616665436173743a2076616c756520646f65736e27742066697420696e203660008201527f3420626974730000000000000000000000000000000000000000000000000000602082015250565b6000614ea9602683613485565b9150614eb482614e4d565b604082019050919050565b60006020820190508181036000830152614ed881614e9c565b9050919050565b7f476f7665726e6f723a20766f7465206e6f742063757272656e746c792061637460008201527f6976650000000000000000000000000000000000000000000000000000000000602082015250565b6000614f3b602383613485565b9150614f4682614edf565b604082019050919050565b60006020820190508181036000830152614f6a81614f2e565b9050919050565b6000608082019050614f8660008301876133f7565b614f9360208301866145b2565b614fa060408301856133f7565b8181036060830152614fb281846134da565b905095945050505050565b6000604082019050614fd26000830185613fb0565b614fdf6020830184613fb0565b9392505050565b7f476f7665726e6f7253657474696e67733a20766f74696e6720706572696f642060008201527f746f6f206c6f7700000000000000000000000000000000000000000000000000602082015250565b6000615042602783613485565b915061504d82614fe6565b604082019050919050565b6000602082019050818103600083015261507181615035565b9050919050565b600060408201905061508d6000830185613fb0565b61509a60208301846133f7565b9392505050565b60006150ac826133ed565b91506150b7836133ed565b9250817fffffffffffffffffffffffffffffffffffffffffffffffffffffffffffffffff04831182151516156150f0576150ef61425f565b5b828202905092915050565b7f4e487b7100000000000000000000000000000000000000000000000000000000600052601260045260246000fd5b6000615135826133ed565b9150615140836133ed565b9250826151505761514f6150fb565b5b828204905092915050565b7f476f7665726e6f7254696d656c6f636b436f6d706f756e643a2070726f706f7360008201527f616c206e6f742079657420717565756564000000000000000000000000000000602082015250565b60006151b7603183613485565b91506151c28261515b565b604082019050919050565b600060208201905081810360008301526151e6816151aa565b9050919050565b60006152006151fb846137cf565b61359a565b90508281526020810184848401111561521c5761521b6137ca565b5b615227848285613496565b509392505050565b600082601f83011261524457615243613535565b5b81516152548482602086016151ed565b91505092915050565b60006020828403121561527357615272613328565b5b600082015167ffffffffffffffff8111156152915761529061332d565b5b61529d8482850161522f565b91505092915050565b600081905092915050565b7f1901000000000000000000000000000000000000000000000000000000000000600082015250565b60006152e76002836152a6565b91506152f2826152b1565b600282019050919050565b6000819050919050565b61531861531382613934565b6152fd565b82525050565b6000615329826152da565b91506153358285615307565b6020820191506153458284615307565b6020820191508190509392505050565b600060808201905061536a6000830187613fda565b61537760208301866145b2565b6153846040830185613fda565b6153916060830184613fda565b95945050505050565b7f45434453413a20696e76616c6964207369676e61747572650000000000000000600082015250565b60006153d0601883613485565b91506153db8261539a565b602082019050919050565b600060208201905081810360008301526153ff816153c3565b9050919050565b7f45434453413a20696e76616c6964207369676e6174757265206c656e67746800600082015250565b600061543c601f83613485565b915061544782615406565b602082019050919050565b6000602082019050818103600083015261546b8161542f565b9050919050565b7f45434453413a20696e76616c6964207369676e6174757265202773272076616c60008201527f7565000000000000000000000000000000000000000000000000000000000000602082015250565b60006154ce602283613485565b91506154d982615472565b604082019050919050565b600060208201905081810360008301526154fd816154c1565b9050919050565b7f45434453413a20696e76616c6964207369676e6174757265202776272076616c60008201527f7565000000000000000000000000000000000000000000000000000000000000602082015250565b6000615560602283613485565b915061556b82615504565b604082019050919050565b6000602082019050818103600083015261558f81615553565b9050919050565b7f476f7665726e6f72566f74696e6753696d706c653a20766f746520616c72656160008201527f6479206361737400000000000000000000000000000000000000000000000000602082015250565b60006155f2602783613485565b91506155fd82615596565b604082019050919050565b60006020820190508181036000830152615621816155e5565b9050919050565b7f476f7665726e6f72566f74696e6753696d706c653a20696e76616c696420766160008201527f6c756520666f7220656e756d20566f7465547970650000000000000000000000602082015250565b6000615684603583613485565b915061568f82615628565b604082019050919050565b600060208201905081810360008301526156b381615677565b9050919050565b7f476f7665726e6f723a20756e6b6e6f776e2070726f706f73616c206964000000600082015250565b60006156f0601d83613485565b91506156fb826156ba565b602082019050919050565b6000602082019050818103600083015261571f816156e3565b9050919050565b7f416464726573733a20696e73756666696369656e742062616c616e636520666f60008201527f722063616c6c0000000000000000000000000000000000000000000000000000602082015250565b6000615782602683613485565b915061578d82615726565b604082019050919050565b600060208201905081810360008301526157b181615775565b9050919050565b7f416464726573733a2063616c6c20746f206e6f6e2d636f6e7472616374000000600082015250565b60006157ee601d83613485565b91506157f9826157b8565b602082019050919050565b6000602082019050818103600083015261581d816157e1565b9050919050565b600081905092915050565b600061583a82614339565b6158448185615824565b9350615854818560208601613496565b80840191505092915050565b600061586c828461582f565b915081905092915050565b7f416464726573733a20696e73756666696369656e742062616c616e6365000000600082015250565b60006158ad601d83613485565b91506158b882615877565b602082019050919050565b600060208201905081810360008301526158dc816158a0565b9050919050565b60006158f0600083615824565b91506158fb82614313565b600082019050919050565b6000615911826158e3565b9150819050919050565b7f416464726573733a20756e61626c6520746f2073656e642076616c75652c207260008201527f6563697069656e74206d61792068617665207265766572746564000000000000602082015250565b6000615977603a83613485565b91506159828261591b565b604082019050919050565b600060208201905081810360008301526159a68161596a565b9050919050565b600060a0820190506159c26000830188613fda565b6159cf6020830187613fda565b6159dc6040830186613fda565b6159e960608301856133f7565b6159f66080830184613fb0565b9695505050505050565b7f476f7665726e6f723a2070726f706f73616c206e6f7420616374697665000000600082015250565b6000615a36601d83613485565b9150615a4182615a00565b602082019050919050565b60006020820190508181036000830152615a6581615a29565b905091905056fe416464726573733a206c6f772d6c6576656c2063616c6c20776974682076616c7565206661696c6564a264697066735822122045d394106103b59785fb70a83946276d4d644b851522ea8eb1f99ab6e4e5256b64736f6c634300080b0033",
  "immutableReferences": {
    "9076": [
      {
        "length": 32,
        "start": 6840
      },
      {
        "length": 32,
        "start": 8592
      },
      {
        "length": 32,
        "start": 8843
      }
    ],
    "31235": [
      {
        "length": 32,
        "start": 9685
      }
    ],
    "31237": [
      {
        "length": 32,
        "start": 9644
      }
    ],
    "31239": [
      {
        "length": 32,
        "start": 9558
      }
    ],
    "31241": [
      {
        "length": 32,
        "start": 9761
      }
    ],
    "31243": [
      {
        "length": 32,
        "start": 9794
      }
    ],
    "31245": [
      {
        "length": 32,
        "start": 9728
      }
    ]
  },
  "source": "// SPDX-License-Identifier: MIT\n\npragma solidity ^0.8.0;\n\nimport \"../governance/extensions/GovernorTimelockCompound.sol\";\nimport \"../governance/extensions/GovernorSettings.sol\";\nimport \"../governance/extensions/GovernorCountingSimple.sol\";\nimport \"../governance/extensions/GovernorVotesQuorumFraction.sol\";\n\ncontract GovernorTimelockCompoundMock is\n    GovernorSettings,\n    GovernorTimelockCompound,\n    GovernorVotesQuorumFraction,\n    GovernorCountingSimple\n{\n    constructor(\n        string memory name_,\n        IVotes token_,\n        uint256 votingDelay_,\n        uint256 votingPeriod_,\n        ICompoundTimelock timelock_,\n        uint256 quorumNumerator_\n    )\n        Governor(name_)\n        GovernorTimelockCompound(timelock_)\n        GovernorSettings(votingDelay_, votingPeriod_, 0)\n        GovernorVotes(token_)\n        GovernorVotesQuorumFraction(quorumNumerator_)\n    {}\n\n    function supportsInterface(bytes4 interfaceId)\n        public\n        view\n        virtual\n        override(Governor, GovernorTimelockCompound)\n        returns (bool)\n    {\n        return super.supportsInterface(interfaceId);\n    }\n\n    function quorum(uint256 blockNumber)\n        public\n        view\n        override(IGovernor, GovernorVotesQuorumFraction)\n        returns (uint256)\n    {\n        return super.quorum(blockNumber);\n    }\n\n    function cancel(\n        address[] memory targets,\n        uint256[] memory values,\n        bytes[] memory calldatas,\n        bytes32 salt\n    ) public returns (uint256 proposalId) {\n        return _cancel(targets, values, calldatas, salt);\n    }\n\n    /**\n     * Overriding nightmare\n     */\n    function state(uint256 proposalId)\n        public\n        view\n        virtual\n        override(Governor, GovernorTimelockCompound)\n        returns (ProposalState)\n    {\n        return super.state(proposalId);\n    }\n\n    function proposalThreshold() public view override(Governor, GovernorSettings) returns (uint256) {\n        return super.proposalThreshold();\n    }\n\n    function _execute(\n        uint256 proposalId,\n        address[] memory targets,\n        uint256[] memory values,\n        bytes[] memory calldatas,\n        bytes32 descriptionHash\n    ) internal virtual override(Governor, GovernorTimelockCompound) {\n        super._execute(proposalId, targets, values, calldatas, descriptionHash);\n    }\n\n    function _cancel(\n        address[] memory targets,\n        uint256[] memory values,\n        bytes[] memory calldatas,\n        bytes32 salt\n    ) internal virtual override(Governor, GovernorTimelockCompound) returns (uint256 proposalId) {\n        return super._cancel(targets, values, calldatas, salt);\n    }\n\n    function getVotes(address account, uint256 blockNumber)\n        public\n        view\n        virtual\n        override(IGovernor, GovernorVotes)\n        returns (uint256)\n    {\n        return super.getVotes(account, blockNumber);\n    }\n\n    function _executor() internal view virtual override(Governor, GovernorTimelockCompound) returns (address) {\n        return super._executor();\n    }\n}\n",
  "sourcePath": "D:\\03.block-chain\\01.miquelTC__nft-marketplace\\test-proj\\nft-marketplace-master\\src\\contracts\\ERC721\\mocks\\GovernorTimelockCompoundMock.sol",
  "compiler": {
    "name": "solc",
    "version": "0.8.11+commit.d7f03943.Emscripten.clang"
  },
  "schemaVersion": "3.4.4",
  "updatedAt": "2022-02-16T02:59:58.717Z",
  "devdoc": {
    "kind": "dev",
    "methods": {
      "COUNTING_MODE()": {
        "details": "See {IGovernor-COUNTING_MODE}."
      },
      "__acceptAdmin()": {
        "details": "Accept admin right over the timelock."
      },
      "castVote(uint256,uint8)": {
        "details": "See {IGovernor-castVote}."
      },
      "castVoteBySig(uint256,uint8,uint8,bytes32,bytes32)": {
        "details": "See {IGovernor-castVoteBySig}."
      },
      "castVoteWithReason(uint256,uint8,string)": {
        "details": "See {IGovernor-castVoteWithReason}."
      },
      "execute(address[],uint256[],bytes[],bytes32)": {
        "details": "See {IGovernor-execute}."
      },
      "hasVoted(uint256,address)": {
        "details": "See {IGovernor-hasVoted}."
      },
      "hashProposal(address[],uint256[],bytes[],bytes32)": {
        "details": "See {IGovernor-hashProposal}. The proposal id is produced by hashing the RLC encoded `targets` array, the `values` array, the `calldatas` array and the descriptionHash (bytes32 which itself is the keccak256 hash of the description string). This proposal id can be produced from the proposal data which is part of the {ProposalCreated} event. It can even be computed in advance, before the proposal is submitted. Note that the chainId and the governor address are not part of the proposal id computation. Consequently, the same proposal (with same operation and same description) will have the same id if submitted on multiple governors accross multiple networks. This also means that in order to execute the same operation twice (on the same governor) the proposer will have to change the description in order to avoid proposal id conflicts."
      },
      "name()": {
        "details": "See {IGovernor-name}."
      },
      "proposalDeadline(uint256)": {
        "details": "See {IGovernor-proposalDeadline}."
      },
      "proposalEta(uint256)": {
        "details": "Public accessor to check the eta of a queued proposal"
      },
      "proposalSnapshot(uint256)": {
        "details": "See {IGovernor-proposalSnapshot}."
      },
      "proposalVotes(uint256)": {
        "details": "Accessor to the internal vote counts."
      },
      "propose(address[],uint256[],bytes[],string)": {
        "details": "See {IGovernor-propose}."
      },
      "queue(address[],uint256[],bytes[],bytes32)": {
        "details": "Function to queue a proposal to the timelock."
      },
      "quorumDenominator()": {
        "details": "Returns the quorum denominator. Defaults to 100, but may be overridden."
      },
      "quorumNumerator()": {
        "details": "Returns the current quorum numerator. See {quorumDenominator}."
      },
      "relay(address,uint256,bytes)": {
        "details": "Relays a transaction or function call to an arbitrary target. In cases where the governance executor is some contract other than the governor itself, like when using a timelock, this function can be invoked in a governance proposal to recover tokens or Ether that was sent to the governor contract by mistake. Note that if the executor is simply the governor itself, use of `relay` is redundant."
      },
      "setProposalThreshold(uint256)": {
        "details": "Update the proposal threshold. This operation can only be performed through a governance proposal. Emits a {ProposalThresholdSet} event."
      },
      "setVotingDelay(uint256)": {
        "details": "Update the voting delay. This operation can only be performed through a governance proposal. Emits a {VotingDelaySet} event."
      },
      "setVotingPeriod(uint256)": {
        "details": "Update the voting period. This operation can only be performed through a governance proposal. Emits a {VotingPeriodSet} event."
      },
      "timelock()": {
        "details": "Public accessor to check the address of the timelock"
      },
      "updateQuorumNumerator(uint256)": {
        "details": "Changes the quorum numerator. Emits a {QuorumNumeratorUpdated} event. Requirements: - Must be called through a governance proposal. - New numerator must be smaller or equal to the denominator."
      },
      "updateTimelock(address)": {
        "details": "Public endpoint to update the underlying timelock instance. Restricted to the timelock itself, so updates must be proposed, scheduled, and executed through governance proposals. For security reasons, the timelock must be handed over to another admin before setting up a new one. The two operations (hand over the timelock) and do the update can be batched in a single proposal. Note that if the timelock admin has been handed over in a previous operation, we refuse updates made through the timelock if admin of the timelock has already been accepted and the operation is executed outside the scope of governance. CAUTION: It is not recommended to change the timelock while there are other queued governance proposals."
      },
      "version()": {
        "details": "See {IGovernor-version}."
      },
      "votingDelay()": {
        "details": "See {IGovernor-votingDelay}."
      },
      "votingPeriod()": {
        "details": "See {IGovernor-votingPeriod}."
      }
    },
    "version": 1
  },
  "userdoc": {
    "kind": "user",
    "methods": {
      "state(uint256)": {
        "notice": "Overriding nightmare"
      }
    },
    "version": 1
  }
}