{
  "contractName": "GovernorTimelockControlMock",
  "abi": [
    {
      "inputs": [
        {
          "internalType": "string",
          "name": "name_",
          "type": "string"
        },
        {
          "internalType": "contract IVotes",
          "name": "token_",
          "type": "address"
        },
        {
          "internalType": "uint256",
          "name": "votingDelay_",
          "type": "uint256"
        },
        {
          "internalType": "uint256",
          "name": "votingPeriod_",
          "type": "uint256"
        },
        {
          "internalType": "contract TimelockController",
          "name": "timelock_",
          "type": "address"
        },
        {
          "internalType": "uint256",
          "name": "quorumNumerator_",
          "type": "uint256"
        }
      ],
      "stateMutability": "nonpayable",
      "type": "constructor"
    },
    {
      "anonymous": false,
      "inputs": [
        {
          "indexed": false,
          "internalType": "uint256",
          "name": "proposalId",
          "type": "uint256"
        }
      ],
      "name": "ProposalCanceled",
      "type": "event"
    },
    {
      "anonymous": false,
      "inputs": [
        {
          "indexed": false,
          "internalType": "uint256",
          "name": "proposalId",
          "type": "uint256"
        },
        {
          "indexed": false,
          "internalType": "address",
          "name": "proposer",
          "type": "address"
        },
        {
          "indexed": false,
          "internalType": "address[]",
          "name": "targets",
          "type": "address[]"
        },
        {
          "indexed": false,
          "internalType": "uint256[]",
          "name": "values",
          "type": "uint256[]"
        },
        {
          "indexed": false,
          "internalType": "string[]",
          "name": "signatures",
          "type": "string[]"
        },
        {
          "indexed": false,
          "internalType": "bytes[]",
          "name": "calldatas",
          "type": "bytes[]"
        },
        {
          "indexed": false,
          "internalType": "uint256",
          "name": "startBlock",
          "type": "uint256"
        },
        {
          "indexed": false,
          "internalType": "uint256",
          "name": "endBlock",
          "type": "uint256"
        },
        {
          "indexed": false,
          "internalType": "string",
          "name": "description",
          "type": "string"
        }
      ],
      "name": "ProposalCreated",
      "type": "event"
    },
    {
      "anonymous": false,
      "inputs": [
        {
          "indexed": false,
          "internalType": "uint256",
          "name": "proposalId",
          "type": "uint256"
        }
      ],
      "name": "ProposalExecuted",
      "type": "event"
    },
    {
      "anonymous": false,
      "inputs": [
        {
          "indexed": false,
          "internalType": "uint256",
          "name": "proposalId",
          "type": "uint256"
        },
        {
          "indexed": false,
          "internalType": "uint256",
          "name": "eta",
          "type": "uint256"
        }
      ],
      "name": "ProposalQueued",
      "type": "event"
    },
    {
      "anonymous": false,
      "inputs": [
        {
          "indexed": false,
          "internalType": "uint256",
          "name": "oldProposalThreshold",
          "type": "uint256"
        },
        {
          "indexed": false,
          "internalType": "uint256",
          "name": "newProposalThreshold",
          "type": "uint256"
        }
      ],
      "name": "ProposalThresholdSet",
      "type": "event"
    },
    {
      "anonymous": false,
      "inputs": [
        {
          "indexed": false,
          "internalType": "uint256",
          "name": "oldQuorumNumerator",
          "type": "uint256"
        },
        {
          "indexed": false,
          "internalType": "uint256",
          "name": "newQuorumNumerator",
          "type": "uint256"
        }
      ],
      "name": "QuorumNumeratorUpdated",
      "type": "event"
    },
    {
      "anonymous": false,
      "inputs": [
        {
          "indexed": false,
          "internalType": "address",
          "name": "oldTimelock",
          "type": "address"
        },
        {
          "indexed": false,
          "internalType": "address",
          "name": "newTimelock",
          "type": "address"
        }
      ],
      "name": "TimelockChange",
      "type": "event"
    },
    {
      "anonymous": false,
      "inputs": [
        {
          "indexed": true,
          "internalType": "address",
          "name": "voter",
          "type": "address"
        },
        {
          "indexed": false,
          "internalType": "uint256",
          "name": "proposalId",
          "type": "uint256"
        },
        {
          "indexed": false,
          "internalType": "uint8",
          "name": "support",
          "type": "uint8"
        },
        {
          "indexed": false,
          "internalType": "uint256",
          "name": "weight",
          "type": "uint256"
        },
        {
          "indexed": false,
          "internalType": "string",
          "name": "reason",
          "type": "string"
        }
      ],
      "name": "VoteCast",
      "type": "event"
    },
    {
      "anonymous": false,
      "inputs": [
        {
          "indexed": false,
          "internalType": "uint256",
          "name": "oldVotingDelay",
          "type": "uint256"
        },
        {
          "indexed": false,
          "internalType": "uint256",
          "name": "newVotingDelay",
          "type": "uint256"
        }
      ],
      "name": "VotingDelaySet",
      "type": "event"
    },
    {
      "anonymous": false,
      "inputs": [
        {
          "indexed": false,
          "internalType": "uint256",
          "name": "oldVotingPeriod",
          "type": "uint256"
        },
        {
          "indexed": false,
          "internalType": "uint256",
          "name": "newVotingPeriod",
          "type": "uint256"
        }
      ],
      "name": "VotingPeriodSet",
      "type": "event"
    },
    {
      "inputs": [],
      "name": "BALLOT_TYPEHASH",
      "outputs": [
        {
          "internalType": "bytes32",
          "name": "",
          "type": "bytes32"
        }
      ],
      "stateMutability": "view",
      "type": "function"
    },
    {
      "inputs": [],
      "name": "COUNTING_MODE",
      "outputs": [
        {
          "internalType": "string",
          "name": "",
          "type": "string"
        }
      ],
      "stateMutability": "pure",
      "type": "function"
    },
    {
      "inputs": [
        {
          "internalType": "uint256",
          "name": "proposalId",
          "type": "uint256"
        },
        {
          "internalType": "uint8",
          "name": "support",
          "type": "uint8"
        }
      ],
      "name": "castVote",
      "outputs": [
        {
          "internalType": "uint256",
          "name": "",
          "type": "uint256"
        }
      ],
      "stateMutability": "nonpayable",
      "type": "function"
    },
    {
      "inputs": [
        {
          "internalType": "uint256",
          "name": "proposalId",
          "type": "uint256"
        },
        {
          "internalType": "uint8",
          "name": "support",
          "type": "uint8"
        },
        {
          "internalType": "uint8",
          "name": "v",
          "type": "uint8"
        },
        {
          "internalType": "bytes32",
          "name": "r",
          "type": "bytes32"
        },
        {
          "internalType": "bytes32",
          "name": "s",
          "type": "bytes32"
        }
      ],
      "name": "castVoteBySig",
      "outputs": [
        {
          "internalType": "uint256",
          "name": "",
          "type": "uint256"
        }
      ],
      "stateMutability": "nonpayable",
      "type": "function"
    },
    {
      "inputs": [
        {
          "internalType": "uint256",
          "name": "proposalId",
          "type": "uint256"
        },
        {
          "internalType": "uint8",
          "name": "support",
          "type": "uint8"
        },
        {
          "internalType": "string",
          "name": "reason",
          "type": "string"
        }
      ],
      "name": "castVoteWithReason",
      "outputs": [
        {
          "internalType": "uint256",
          "name": "",
          "type": "uint256"
        }
      ],
      "stateMutability": "nonpayable",
      "type": "function"
    },
    {
      "inputs": [
        {
          "internalType": "address[]",
          "name": "targets",
          "type": "address[]"
        },
        {
          "internalType": "uint256[]",
          "name": "values",
          "type": "uint256[]"
        },
        {
          "internalType": "bytes[]",
          "name": "calldatas",
          "type": "bytes[]"
        },
        {
          "internalType": "bytes32",
          "name": "descriptionHash",
          "type": "bytes32"
        }
      ],
      "name": "execute",
      "outputs": [
        {
          "internalType": "uint256",
          "name": "",
          "type": "uint256"
        }
      ],
      "stateMutability": "payable",
      "type": "function"
    },
    {
      "inputs": [
        {
          "internalType": "uint256",
          "name": "proposalId",
          "type": "uint256"
        },
        {
          "internalType": "address",
          "name": "account",
          "type": "address"
        }
      ],
      "name": "hasVoted",
      "outputs": [
        {
          "internalType": "bool",
          "name": "",
          "type": "bool"
        }
      ],
      "stateMutability": "view",
      "type": "function"
    },
    {
      "inputs": [
        {
          "internalType": "address[]",
          "name": "targets",
          "type": "address[]"
        },
        {
          "internalType": "uint256[]",
          "name": "values",
          "type": "uint256[]"
        },
        {
          "internalType": "bytes[]",
          "name": "calldatas",
          "type": "bytes[]"
        },
        {
          "internalType": "bytes32",
          "name": "descriptionHash",
          "type": "bytes32"
        }
      ],
      "name": "hashProposal",
      "outputs": [
        {
          "internalType": "uint256",
          "name": "",
          "type": "uint256"
        }
      ],
      "stateMutability": "pure",
      "type": "function"
    },
    {
      "inputs": [],
      "name": "name",
      "outputs": [
        {
          "internalType": "string",
          "name": "",
          "type": "string"
        }
      ],
      "stateMutability": "view",
      "type": "function"
    },
    {
      "inputs": [
        {
          "internalType": "uint256",
          "name": "proposalId",
          "type": "uint256"
        }
      ],
      "name": "proposalDeadline",
      "outputs": [
        {
          "internalType": "uint256",
          "name": "",
          "type": "uint256"
        }
      ],
      "stateMutability": "view",
      "type": "function"
    },
    {
      "inputs": [
        {
          "internalType": "uint256",
          "name": "proposalId",
          "type": "uint256"
        }
      ],
      "name": "proposalEta",
      "outputs": [
        {
          "internalType": "uint256",
          "name": "",
          "type": "uint256"
        }
      ],
      "stateMutability": "view",
      "type": "function"
    },
    {
      "inputs": [
        {
          "internalType": "uint256",
          "name": "proposalId",
          "type": "uint256"
        }
      ],
      "name": "proposalSnapshot",
      "outputs": [
        {
          "internalType": "uint256",
          "name": "",
          "type": "uint256"
        }
      ],
      "stateMutability": "view",
      "type": "function"
    },
    {
      "inputs": [
        {
          "internalType": "uint256",
          "name": "proposalId",
          "type": "uint256"
        }
      ],
      "name": "proposalVotes",
      "outputs": [
        {
          "internalType": "uint256",
          "name": "againstVotes",
          "type": "uint256"
        },
        {
          "internalType": "uint256",
          "name": "forVotes",
          "type": "uint256"
        },
        {
          "internalType": "uint256",
          "name": "abstainVotes",
          "type": "uint256"
        }
      ],
      "stateMutability": "view",
      "type": "function"
    },
    {
      "inputs": [
        {
          "internalType": "address[]",
          "name": "targets",
          "type": "address[]"
        },
        {
          "internalType": "uint256[]",
          "name": "values",
          "type": "uint256[]"
        },
        {
          "internalType": "bytes[]",
          "name": "calldatas",
          "type": "bytes[]"
        },
        {
          "internalType": "string",
          "name": "description",
          "type": "string"
        }
      ],
      "name": "propose",
      "outputs": [
        {
          "internalType": "uint256",
          "name": "",
          "type": "uint256"
        }
      ],
      "stateMutability": "nonpayable",
      "type": "function"
    },
    {
      "inputs": [
        {
          "internalType": "address[]",
          "name": "targets",
          "type": "address[]"
        },
        {
          "internalType": "uint256[]",
          "name": "values",
          "type": "uint256[]"
        },
        {
          "internalType": "bytes[]",
          "name": "calldatas",
          "type": "bytes[]"
        },
        {
          "internalType": "bytes32",
          "name": "descriptionHash",
          "type": "bytes32"
        }
      ],
      "name": "queue",
      "outputs": [
        {
          "internalType": "uint256",
          "name": "",
          "type": "uint256"
        }
      ],
      "stateMutability": "nonpayable",
      "type": "function"
    },
    {
      "inputs": [],
      "name": "quorumDenominator",
      "outputs": [
        {
          "internalType": "uint256",
          "name": "",
          "type": "uint256"
        }
      ],
      "stateMutability": "view",
      "type": "function"
    },
    {
      "inputs": [],
      "name": "quorumNumerator",
      "outputs": [
        {
          "internalType": "uint256",
          "name": "",
          "type": "uint256"
        }
      ],
      "stateMutability": "view",
      "type": "function"
    },
    {
      "inputs": [
        {
          "internalType": "address",
          "name": "target",
          "type": "address"
        },
        {
          "internalType": "uint256",
          "name": "value",
          "type": "uint256"
        },
        {
          "internalType": "bytes",
          "name": "data",
          "type": "bytes"
        }
      ],
      "name": "relay",
      "outputs": [],
      "stateMutability": "nonpayable",
      "type": "function"
    },
    {
      "inputs": [
        {
          "internalType": "uint256",
          "name": "newProposalThreshold",
          "type": "uint256"
        }
      ],
      "name": "setProposalThreshold",
      "outputs": [],
      "stateMutability": "nonpayable",
      "type": "function"
    },
    {
      "inputs": [
        {
          "internalType": "uint256",
          "name": "newVotingDelay",
          "type": "uint256"
        }
      ],
      "name": "setVotingDelay",
      "outputs": [],
      "stateMutability": "nonpayable",
      "type": "function"
    },
    {
      "inputs": [
        {
          "internalType": "uint256",
          "name": "newVotingPeriod",
          "type": "uint256"
        }
      ],
      "name": "setVotingPeriod",
      "outputs": [],
      "stateMutability": "nonpayable",
      "type": "function"
    },
    {
      "inputs": [],
      "name": "timelock",
      "outputs": [
        {
          "internalType": "address",
          "name": "",
          "type": "address"
        }
      ],
      "stateMutability": "view",
      "type": "function"
    },
    {
      "inputs": [],
      "name": "token",
      "outputs": [
        {
          "internalType": "contract IVotes",
          "name": "",
          "type": "address"
        }
      ],
      "stateMutability": "view",
      "type": "function"
    },
    {
      "inputs": [
        {
          "internalType": "uint256",
          "name": "newQuorumNumerator",
          "type": "uint256"
        }
      ],
      "name": "updateQuorumNumerator",
      "outputs": [],
      "stateMutability": "nonpayable",
      "type": "function"
    },
    {
      "inputs": [
        {
          "internalType": "contract TimelockController",
          "name": "newTimelock",
          "type": "address"
        }
      ],
      "name": "updateTimelock",
      "outputs": [],
      "stateMutability": "nonpayable",
      "type": "function"
    },
    {
      "inputs": [],
      "name": "version",
      "outputs": [
        {
          "internalType": "string",
          "name": "",
          "type": "string"
        }
      ],
      "stateMutability": "view",
      "type": "function"
    },
    {
      "inputs": [],
      "name": "votingDelay",
      "outputs": [
        {
          "internalType": "uint256",
          "name": "",
          "type": "uint256"
        }
      ],
      "stateMutability": "view",
      "type": "function"
    },
    {
      "inputs": [],
      "name": "votingPeriod",
      "outputs": [
        {
          "internalType": "uint256",
          "name": "",
          "type": "uint256"
        }
      ],
      "stateMutability": "view",
      "type": "function"
    },
    {
      "stateMutability": "payable",
      "type": "receive"
    },
    {
      "inputs": [
        {
          "internalType": "bytes4",
          "name": "interfaceId",
          "type": "bytes4"
        }
      ],
      "name": "supportsInterface",
      "outputs": [
        {
          "internalType": "bool",
          "name": "",
          "type": "bool"
        }
      ],
      "stateMutability": "view",
      "type": "function"
    },
    {
      "inputs": [
        {
          "internalType": "uint256",
          "name": "blockNumber",
          "type": "uint256"
        }
      ],
      "name": "quorum",
      "outputs": [
        {
          "internalType": "uint256",
          "name": "",
          "type": "uint256"
        }
      ],
      "stateMutability": "view",
      "type": "function"
    },
    {
      "inputs": [
        {
          "internalType": "address[]",
          "name": "targets",
          "type": "address[]"
        },
        {
          "internalType": "uint256[]",
          "name": "values",
          "type": "uint256[]"
        },
        {
          "internalType": "bytes[]",
          "name": "calldatas",
          "type": "bytes[]"
        },
        {
          "internalType": "bytes32",
          "name": "descriptionHash",
          "type": "bytes32"
        }
      ],
      "name": "cancel",
      "outputs": [
        {
          "internalType": "uint256",
          "name": "proposalId",
          "type": "uint256"
        }
      ],
      "stateMutability": "nonpayable",
      "type": "function"
    },
    {
      "inputs": [
        {
          "internalType": "uint256",
          "name": "proposalId",
          "type": "uint256"
        }
      ],
      "name": "state",
      "outputs": [
        {
          "internalType": "enum IGovernor.ProposalState",
          "name": "",
          "type": "uint8"
        }
      ],
      "stateMutability": "view",
      "type": "function"
    },
    {
      "inputs": [],
      "name": "proposalThreshold",
      "outputs": [
        {
          "internalType": "uint256",
          "name": "",
          "type": "uint256"
        }
      ],
      "stateMutability": "view",
      "type": "function"
    },
    {
      "inputs": [
        {
          "internalType": "address",
          "name": "account",
          "type": "address"
        },
        {
          "internalType": "uint256",
          "name": "blockNumber",
          "type": "uint256"
        }
      ],
      "name": "getVotes",
      "outputs": [
        {
          "internalType": "uint256",
          "name": "",
          "type": "uint256"
        }
      ],
      "stateMutability": "view",
      "type": "function"
    }
  ],
  "bytecode": "0x6101606040523480156200001257600080fd5b5060405162005fba38038062005fba8339818101604052810190620000389190620007f3565b808583868660008b8062000051620001b960201b60201c565b60008280519060200120905060008280519060200120905060007f8b73c3c69bb8fe3d512ecc4cf759cc79239f7b179b0ffacaa9a75d522b39400f90508260e081815250508161010081815250504660a08181525050620000ba818484620001f660201b60201c565b608081815250503073ffffffffffffffffffffffffffffffffffffffff1660c08173ffffffffffffffffffffffffffffffffffffffff1681525050806101208181525050505050505080600090805190602001906200011b92919062000499565b50506200012e836200023260201b60201c565b6200013f826200027960201b60201c565b62000150816200030660201b60201c565b50505062000164816200034d60201b60201c565b508073ffffffffffffffffffffffffffffffffffffffff166101408173ffffffffffffffffffffffffffffffffffffffff168152505050620001ac81620003ee60201b60201c565b5050505050505062000b6e565b60606040518060400160405280600181526020017f3100000000000000000000000000000000000000000000000000000000000000815250905090565b6000838383463060405160200162000213959493929190620008eb565b6040516020818303038152906040528051906020012090509392505050565b7fc565b045403dc03c2eea82b81a0465edad9e2e7fc4d97e11421c209da93d7a93600254826040516200026792919062000948565b60405180910390a18060028190555050565b60008111620002bf576040517f08c379a0000000000000000000000000000000000000000000000000000000008152600401620002b690620009fc565b60405180910390fd5b7f7e3f7f0708a84de9203036abaa450dccc85ad5ff52f78c170f3edb55cf5e882860035482604051620002f492919062000948565b60405180910390a18060038190555050565b7fccb45da8d5717e6c4544694297c4ba5cf151d455c9bb0ed4fc7a38411bc05461600454826040516200033b92919062000948565b60405180910390a18060048190555050565b7f08f74ea46ef7894f65eabfb5e6e695de773a000b47c529ab559178069b226401600560009054906101000a900473ffffffffffffffffffffffffffffffffffffffff1682604051620003a292919062000a1e565b60405180910390a180600560006101000a81548173ffffffffffffffffffffffffffffffffffffffff021916908373ffffffffffffffffffffffffffffffffffffffff16021790555050565b620003fe6200049060201b60201c565b81111562000443576040517f08c379a00000000000000000000000000000000000000000000000000000000081526004016200043a9062000ae7565b60405180910390fd5b60006007549050816007819055507f0553476bf02ef2726e8ce5ced78d63e26e602e4a2257b1f559418e24b463399781836040516200048492919062000948565b60405180910390a15050565b60006064905090565b828054620004a79062000b38565b90600052602060002090601f016020900481019282620004cb576000855562000517565b82601f10620004e657805160ff191683800117855562000517565b8280016001018555821562000517579182015b8281111562000516578251825591602001919060010190620004f9565b5b5090506200052691906200052a565b5090565b5b80821115620005455760008160009055506001016200052b565b5090565b6000604051905090565b600080fd5b600080fd5b600080fd5b600080fd5b6000601f19601f8301169050919050565b7f4e487b7100000000000000000000000000000000000000000000000000000000600052604160045260246000fd5b620005b28262000567565b810181811067ffffffffffffffff82111715620005d457620005d362000578565b5b80604052505050565b6000620005e962000549565b9050620005f78282620005a7565b919050565b600067ffffffffffffffff8211156200061a576200061962000578565b5b620006258262000567565b9050602081019050919050565b60005b838110156200065257808201518184015260208101905062000635565b8381111562000662576000848401525b50505050565b60006200067f6200067984620005fc565b620005dd565b9050828152602081018484840111156200069e576200069d62000562565b5b620006ab84828562000632565b509392505050565b600082601f830112620006cb57620006ca6200055d565b5b8151620006dd84826020860162000668565b91505092915050565b600073ffffffffffffffffffffffffffffffffffffffff82169050919050565b60006200071382620006e6565b9050919050565b6000620007278262000706565b9050919050565b62000739816200071a565b81146200074557600080fd5b50565b60008151905062000759816200072e565b92915050565b6000819050919050565b62000774816200075f565b81146200078057600080fd5b50565b600081519050620007948162000769565b92915050565b6000620007a782620006e6565b9050919050565b6000620007bb826200079a565b9050919050565b620007cd81620007ae565b8114620007d957600080fd5b50565b600081519050620007ed81620007c2565b92915050565b60008060008060008060c0878903121562000813576200081262000553565b5b600087015167ffffffffffffffff81111562000834576200083362000558565b5b6200084289828a01620006b3565b96505060206200085589828a0162000748565b95505060406200086889828a0162000783565b94505060606200087b89828a0162000783565b93505060806200088e89828a01620007dc565b92505060a0620008a189828a0162000783565b9150509295509295509295565b6000819050919050565b620008c381620008ae565b82525050565b620008d4816200075f565b82525050565b620008e58162000706565b82525050565b600060a082019050620009026000830188620008b8565b620009116020830187620008b8565b620009206040830186620008b8565b6200092f6060830185620008c9565b6200093e6080830184620008da565b9695505050505050565b60006040820190506200095f6000830185620008c9565b6200096e6020830184620008c9565b9392505050565b600082825260208201905092915050565b7f476f7665726e6f7253657474696e67733a20766f74696e6720706572696f642060008201527f746f6f206c6f7700000000000000000000000000000000000000000000000000602082015250565b6000620009e460278362000975565b9150620009f18262000986565b604082019050919050565b6000602082019050818103600083015262000a1781620009d5565b9050919050565b600060408201905062000a356000830185620008da565b62000a446020830184620008da565b9392505050565b7f476f7665726e6f72566f74657351756f72756d4672616374696f6e3a2071756f60008201527f72756d4e756d657261746f72206f7665722071756f72756d44656e6f6d696e6160208201527f746f720000000000000000000000000000000000000000000000000000000000604082015250565b600062000acf60438362000975565b915062000adc8262000a4b565b606082019050919050565b6000602082019050818103600083015262000b028162000ac0565b9050919050565b7f4e487b7100000000000000000000000000000000000000000000000000000000600052602260045260246000fd5b6000600282049050600182168062000b5157607f821691505b6020821081141562000b685762000b6762000b09565b5b50919050565b60805160a05160c05160e0516101005161012051610140516153e362000bd76000396000818161192e01528181612081015261217c015260006123f501526000612437015260006124160152600061234b015260006123a1015260006123ca01526153e36000f3fe6080604052600436106101fd5760003560e01c80637d5e81e21161010d578063c59057e4116100a0578063ea0217cf1161006f578063ea0217cf14610822578063eb9019d41461084b578063ece40cc114610888578063f8ce560a146108b1578063fc0c546a146108ee57610243565b8063c59057e414610764578063d33219b4146107a1578063dd4e2ba5146107cc578063deaaa7cc146107f757610243565b8063ab58fb8e116100dc578063ab58fb8e14610696578063b58131b0146106d3578063c01f9e37146106fe578063c28bc2fa1461073b57610243565b80637d5e81e2146105da57806397c3d33414610617578063a7713a7014610642578063a890c9101461066d57610243565b80633bccf4fd11610190578063544ffc9c1161015f578063544ffc9c146104cd57806354fd4d501461050c578063567813881461053757806370b0f660146105745780637b3c71d31461059d57610243565b80633bccf4fd146103d95780633e4f49e6146104165780634385963214610453578063452115d61461049057610243565b8063160cbed7116101cc578063160cbed7146103045780632656227d146103415780632d63f693146103715780633932abb1146103ae57610243565b806301ffc9a71461024857806302a251a31461028557806306f3f9e6146102b057806306fdde03146102d957610243565b36610243573073ffffffffffffffffffffffffffffffffffffffff16610221610919565b73ffffffffffffffffffffffffffffffffffffffff161461024157600080fd5b005b600080fd5b34801561025457600080fd5b5061026f600480360381019061026a9190612ffc565b610928565b60405161027c9190613044565b60405180910390f35b34801561029157600080fd5b5061029a61093a565b6040516102a79190613078565b60405180910390f35b3480156102bc57600080fd5b506102d760048036038101906102d291906130bf565b610944565b005b3480156102e557600080fd5b506102ee6109cc565b6040516102fb9190613185565b60405180910390f35b34801561031057600080fd5b5061032b600480360381019061032691906135dc565b610a5e565b6040516103389190613078565b60405180910390f35b61035b600480360381019061035691906135dc565b610d18565b6040516103689190613078565b60405180910390f35b34801561037d57600080fd5b50610398600480360381019061039391906130bf565b610e4b565b6040516103a59190613078565b60405180910390f35b3480156103ba57600080fd5b506103c3610eb9565b6040516103d09190613078565b60405180910390f35b3480156103e557600080fd5b5061040060048036038101906103fb91906136d0565b610ec3565b60405161040d9190613078565b60405180910390f35b34801561042257600080fd5b5061043d600480360381019061043891906130bf565b610f4d565b60405161044a91906137c2565b60405180910390f35b34801561045f57600080fd5b5061047a600480360381019061047591906137dd565b610f5f565b6040516104879190613044565b60405180910390f35b34801561049c57600080fd5b506104b760048036038101906104b291906135dc565b610fca565b6040516104c49190613078565b60405180910390f35b3480156104d957600080fd5b506104f460048036038101906104ef91906130bf565b610fe2565b6040516105039392919061381d565b60405180910390f35b34801561051857600080fd5b5061052161101a565b60405161052e9190613185565b60405180910390f35b34801561054357600080fd5b5061055e60048036038101906105599190613854565b611057565b60405161056b9190613078565b60405180910390f35b34801561058057600080fd5b5061059b600480360381019061059691906130bf565b611088565b005b3480156105a957600080fd5b506105c460048036038101906105bf91906138ef565b611110565b6040516105d19190613078565b60405180910390f35b3480156105e657600080fd5b5061060160048036038101906105fc9190613a04565b611178565b60405161060e9190613078565b60405180910390f35b34801561062357600080fd5b5061062c611478565b6040516106399190613078565b60405180910390f35b34801561064e57600080fd5b50610657611481565b6040516106649190613078565b60405180910390f35b34801561067957600080fd5b50610694600480360381019061068f9190613b2b565b61148b565b005b3480156106a257600080fd5b506106bd60048036038101906106b891906130bf565b611513565b6040516106ca9190613078565b60405180910390f35b3480156106df57600080fd5b506106e86115e0565b6040516106f59190613078565b60405180910390f35b34801561070a57600080fd5b50610725600480360381019061072091906130bf565b6115ef565b6040516107329190613078565b60405180910390f35b34801561074757600080fd5b50610762600480360381019061075d9190613bae565b61165d565b005b34801561077057600080fd5b5061078b600480360381019061078691906135dc565b61172f565b6040516107989190613078565b60405180910390f35b3480156107ad57600080fd5b506107b661176b565b6040516107c39190613c31565b60405180910390f35b3480156107d857600080fd5b506107e1611795565b6040516107ee9190613185565b60405180910390f35b34801561080357600080fd5b5061080c6117d2565b6040516108199190613c5b565b60405180910390f35b34801561082e57600080fd5b50610849600480360381019061084491906130bf565b6117f6565b005b34801561085757600080fd5b50610872600480360381019061086d9190613c76565b61187e565b60405161087f9190613078565b60405180910390f35b34801561089457600080fd5b506108af60048036038101906108aa91906130bf565b611892565b005b3480156108bd57600080fd5b506108d860048036038101906108d391906130bf565b61191a565b6040516108e59190613078565b60405180910390f35b3480156108fa57600080fd5b5061090361192c565b6040516109109190613d15565b60405180910390f35b6000610923611950565b905090565b60006109338261197a565b9050919050565b6000600354905090565b61094c610919565b73ffffffffffffffffffffffffffffffffffffffff1661096a6119f4565b73ffffffffffffffffffffffffffffffffffffffff16146109c0576040517f08c379a00000000000000000000000000000000000000000000000000000000081526004016109b790613d7c565b60405180910390fd5b6109c9816119fc565b50565b6060600080546109db90613dcb565b80601f0160208091040260200160405190810160405280929190818152602001828054610a0790613dcb565b8015610a545780601f10610a2957610100808354040283529160200191610a54565b820191906000526020600020905b815481529060010190602001808311610a3757829003601f168201915b5050505050905090565b600080610a6d8686868661172f565b905060046007811115610a8357610a8261374b565b5b610a8c82610f4d565b6007811115610a9e57610a9d61374b565b5b14610ade576040517f08c379a0000000000000000000000000000000000000000000000000000000008152600401610ad590613e6f565b60405180910390fd5b6000600560009054906101000a900473ffffffffffffffffffffffffffffffffffffffff1673ffffffffffffffffffffffffffffffffffffffff1663f27a0c926040518163ffffffff1660e01b8152600401602060405180830381865afa158015610b4d573d6000803e3d6000fd5b505050506040513d601f19601f82011682018060405250810190610b719190613ea4565b9050600560009054906101000a900473ffffffffffffffffffffffffffffffffffffffff1673ffffffffffffffffffffffffffffffffffffffff1663b1c5f4278888886000896040518663ffffffff1660e01b8152600401610bd79594939291906141ac565b602060405180830381865afa158015610bf4573d6000803e3d6000fd5b505050506040513d601f19601f82011682018060405250810190610c189190614229565b6006600084815260200190815260200160002081905550600560009054906101000a900473ffffffffffffffffffffffffffffffffffffffff1673ffffffffffffffffffffffffffffffffffffffff16638f2a0bb0888888600089876040518763ffffffff1660e01b8152600401610c9596959493929190614256565b600060405180830381600087803b158015610caf57600080fd5b505af1158015610cc3573d6000803e3d6000fd5b505050507f9a2e42fd6722813d69113e7d0079d3d940171428df7373df9c7f7617cfda2892828242610cf591906142fb565b604051610d03929190614351565b60405180910390a18192505050949350505050565b600080610d278686868661172f565b90506000610d3482610f4d565b905060046007811115610d4a57610d4961374b565b5b816007811115610d5d57610d5c61374b565b5b1480610d8d575060056007811115610d7857610d7761374b565b5b816007811115610d8b57610d8a61374b565b5b145b610dcc576040517f08c379a0000000000000000000000000000000000000000000000000000000008152600401610dc390613e6f565b60405180910390fd5b600180600084815260200190815260200160002060020160006101000a81548160ff0219169083151502179055507f712ae1383f79ac853f8d882153778e0260ef8f03b504e2866e0593e04d2b291f82604051610e299190613078565b60405180910390a1610e3e8288888888611a91565b8192505050949350505050565b6000610ea8600160008481526020019081526020016000206000016040518060200160405290816000820160009054906101000a900467ffffffffffffffff1667ffffffffffffffff1667ffffffffffffffff1681525050611aa5565b67ffffffffffffffff169050919050565b6000600254905090565b600080610f24610f1c7f150214d74d59b7d1e90c73fc22ef3d991dd0a76b046543d4d80ab92d2a50328f8989604051602001610f0193929190614389565b60405160208183030381529060405280519060200120611ab3565b868686611acd565b9050610f4187828860405180602001604052806000815250611af8565b91505095945050505050565b6000610f5882611c4c565b9050919050565b60006008600084815260200190815260200160002060030160008373ffffffffffffffffffffffffffffffffffffffff1673ffffffffffffffffffffffffffffffffffffffff16815260200190815260200160002060009054906101000a900460ff16905092915050565b6000610fd885858585611e20565b9050949350505050565b600080600080600860008681526020019081526020016000209050806000015481600101548260020154935093509350509193909250565b60606040518060400160405280600181526020017f3100000000000000000000000000000000000000000000000000000000000000815250905090565b6000806110626119f4565b905061107f84828560405180602001604052806000815250611af8565b91505092915050565b611090610919565b73ffffffffffffffffffffffffffffffffffffffff166110ae6119f4565b73ffffffffffffffffffffffffffffffffffffffff1614611104576040517f08c379a00000000000000000000000000000000000000000000000000000000081526004016110fb90613d7c565b60405180910390fd5b61110d81611e38565b50565b60008061111b6119f4565b905061116d86828787878080601f016020809104026020016040519081016040528093929190818152602001838380828437600081840152601f19601f82011690508083019250505050505050611af8565b915050949350505050565b60006111826115e0565b6111983360014361119391906143c0565b61187e565b10156111d9576040517f08c379a00000000000000000000000000000000000000000000000000000000081526004016111d09061448c565b60405180910390fd5b60006111ee868686868051906020012061172f565b90508451865114611234576040517f08c379a000000000000000000000000000000000000000000000000000000000815260040161122b9061451e565b60405180910390fd5b8351865114611278576040517f08c379a000000000000000000000000000000000000000000000000000000000815260040161126f9061451e565b60405180910390fd5b60008651116112bc576040517f08c379a00000000000000000000000000000000000000000000000000000000081526004016112b39061458a565b60405180910390fd5b600060016000838152602001908152602001600020905061131c816000016040518060200160405290816000820160009054906101000a900467ffffffffffffffff1667ffffffffffffffff1667ffffffffffffffff1681525050611e7d565b61135b576040517f08c379a00000000000000000000000000000000000000000000000000000000081526004016113529061461c565b60405180910390fd5b600061136d611368610eb9565b611e97565b61137643611e97565b6113809190614650565b9050600061139461138f61093a565b611e97565b8261139f9190614650565b90506113b78284600001611eee90919063ffffffff16565b6113cd8184600101611eee90919063ffffffff16565b7f7d84a6263ae0d98d3329bd7b46bb4e8d6f98cd35a7adb45c274c8b7fd5ebd5e0846113f76119f4565b8b8b8d5167ffffffffffffffff811115611414576114136131ac565b5b60405190808252806020026020018201604052801561144757816020015b60608152602001906001900390816114325790505b508c88888e604051611461999897969594939291906147cb565b60405180910390a183945050505050949350505050565b60006064905090565b6000600754905090565b611493610919565b73ffffffffffffffffffffffffffffffffffffffff166114b16119f4565b73ffffffffffffffffffffffffffffffffffffffff1614611507576040517f08c379a00000000000000000000000000000000000000000000000000000000081526004016114fe90613d7c565b60405180910390fd5b61151081611f1d565b50565b600080600560009054906101000a900473ffffffffffffffffffffffffffffffffffffffff1673ffffffffffffffffffffffffffffffffffffffff1663d45c443560066000868152602001908152602001600020546040518263ffffffff1660e01b81526004016115849190613c5b565b602060405180830381865afa1580156115a1573d6000803e3d6000fd5b505050506040513d601f19601f820116820180604052508101906115c59190613ea4565b9050600181146115d557806115d8565b60005b915050919050565b60006115ea611fbc565b905090565b600061164c600160008481526020019081526020016000206001016040518060200160405290816000820160009054906101000a900467ffffffffffffffff1667ffffffffffffffff1667ffffffffffffffff1681525050611aa5565b67ffffffffffffffff169050919050565b611665610919565b73ffffffffffffffffffffffffffffffffffffffff166116836119f4565b73ffffffffffffffffffffffffffffffffffffffff16146116d9576040517f08c379a00000000000000000000000000000000000000000000000000000000081526004016116d090613d7c565b60405180910390fd5b6117288483838080601f016020809104026020016040519081016040528093929190818152602001838380828437600081840152601f19601f8201169050808301925050505050505085611fc6565b5050505050565b600084848484604051602001611748949392919061487b565b6040516020818303038152906040528051906020012060001c9050949350505050565b6000600560009054906101000a900473ffffffffffffffffffffffffffffffffffffffff16905090565b60606040518060400160405280602081526020017f737570706f72743d627261766f2671756f72756d3d666f722c6162737461696e815250905090565b7f150214d74d59b7d1e90c73fc22ef3d991dd0a76b046543d4d80ab92d2a50328f81565b6117fe610919565b73ffffffffffffffffffffffffffffffffffffffff1661181c6119f4565b73ffffffffffffffffffffffffffffffffffffffff1614611872576040517f08c379a000000000000000000000000000000000000000000000000000000000815260040161186990613d7c565b60405180910390fd5b61187b81611ff5565b50565b600061188a838361207d565b905092915050565b61189a610919565b73ffffffffffffffffffffffffffffffffffffffff166118b86119f4565b73ffffffffffffffffffffffffffffffffffffffff161461190e576040517f08c379a000000000000000000000000000000000000000000000000000000000815260040161190590613d7c565b60405180910390fd5b61191781612123565b50565b600061192582612168565b9050919050565b7f000000000000000000000000000000000000000000000000000000000000000081565b6000600560009054906101000a900473ffffffffffffffffffffffffffffffffffffffff16905090565b60007f6e665ced000000000000000000000000000000000000000000000000000000007bffffffffffffffffffffffffffffffffffffffffffffffffffffffff1916827bffffffffffffffffffffffffffffffffffffffffffffffffffffffff191614806119ed57506119ec8261222f565b5b9050919050565b600033905090565b611a04611478565b811115611a46576040517f08c379a0000000000000000000000000000000000000000000000000000000008152600401611a3d9061496d565b60405180910390fd5b60006007549050816007819055507f0553476bf02ef2726e8ce5ced78d63e26e602e4a2257b1f559418e24b46339978183604051611a85929190614351565b60405180910390a15050565b611a9e85858585856122a9565b5050505050565b600081600001519050919050565b6000611ac6611ac0612347565b83612461565b9050919050565b6000806000611ade87878787612494565b91509150611aeb816125a1565b8192505050949350505050565b60008060016000878152602001908152602001600020905060016007811115611b2457611b2361374b565b5b611b2d87610f4d565b6007811115611b3f57611b3e61374b565b5b14611b7f576040517f08c379a0000000000000000000000000000000000000000000000000000000008152600401611b76906149ff565b60405180910390fd5b6000611bdd86611bce846000016040518060200160405290816000820160009054906101000a900467ffffffffffffffff1667ffffffffffffffff1667ffffffffffffffff1681525050611aa5565b67ffffffffffffffff1661187e565b9050611beb87878784612776565b8573ffffffffffffffffffffffffffffffffffffffff167fb8e138887d0aa13bab447e82de9d5c1777041ecd21ca36ba824ff1e6c07ddda488878488604051611c379493929190614a1f565b60405180910390a28092505050949350505050565b600080611c588361297c565b905060046007811115611c6e57611c6d61374b565b5b816007811115611c8157611c8061374b565b5b14611c8f5780915050611e1b565b6000600660008581526020019081526020016000205490506000801b811415611cbc578192505050611e1b565b600560009054906101000a900473ffffffffffffffffffffffffffffffffffffffff1673ffffffffffffffffffffffffffffffffffffffff16632ab0f529826040518263ffffffff1660e01b8152600401611d179190613c5b565b602060405180830381865afa158015611d34573d6000803e3d6000fd5b505050506040513d601f19601f82011682018060405250810190611d589190614a97565b15611d6857600792505050611e1b565b600560009054906101000a900473ffffffffffffffffffffffffffffffffffffffff1673ffffffffffffffffffffffffffffffffffffffff1663584b153e826040518263ffffffff1660e01b8152600401611dc39190613c5b565b602060405180830381865afa158015611de0573d6000803e3d6000fd5b505050506040513d601f19601f82011682018060405250810190611e049190614a97565b15611e1457600592505050611e1b565b6002925050505b919050565b6000611e2e85858585612a91565b9050949350505050565b7fc565b045403dc03c2eea82b81a0465edad9e2e7fc4d97e11421c209da93d7a9360025482604051611e6b929190614351565b60405180910390a18060028190555050565b600080826000015167ffffffffffffffff16149050919050565b600067ffffffffffffffff8016821115611ee6576040517f08c379a0000000000000000000000000000000000000000000000000000000008152600401611edd90614b36565b60405180910390fd5b819050919050565b808260000160006101000a81548167ffffffffffffffff021916908367ffffffffffffffff1602179055505050565b7f08f74ea46ef7894f65eabfb5e6e695de773a000b47c529ab559178069b226401600560009054906101000a900473ffffffffffffffffffffffffffffffffffffffff1682604051611f70929190614b56565b60405180910390a180600560006101000a81548173ffffffffffffffffffffffffffffffffffffffff021916908373ffffffffffffffffffffffffffffffffffffffff16021790555050565b6000600454905090565b6060611fec84848460405180606001604052806029815260200161538560299139612b83565b90509392505050565b60008111612038576040517f08c379a000000000000000000000000000000000000000000000000000000000815260040161202f90614bf1565b60405180910390fd5b7f7e3f7f0708a84de9203036abaa450dccc85ad5ff52f78c170f3edb55cf5e88286003548260405161206b929190614351565b60405180910390a18060038190555050565b60007f000000000000000000000000000000000000000000000000000000000000000073ffffffffffffffffffffffffffffffffffffffff16633a46b1a884846040518363ffffffff1660e01b81526004016120da929190614c11565b602060405180830381865afa1580156120f7573d6000803e3d6000fd5b505050506040513d601f19601f8201168201806040525081019061211b9190613ea4565b905092915050565b7fccb45da8d5717e6c4544694297c4ba5cf151d455c9bb0ed4fc7a38411bc0546160045482604051612156929190614351565b60405180910390a18060048190555050565b6000612172611478565b61217a611481565b7f000000000000000000000000000000000000000000000000000000000000000073ffffffffffffffffffffffffffffffffffffffff16638e539e8c856040518263ffffffff1660e01b81526004016121d39190613078565b602060405180830381865afa1580156121f0573d6000803e3d6000fd5b505050506040513d601f19601f820116820180604052508101906122149190613ea4565b61221e9190614c3a565b6122289190614cc3565b9050919050565b60007fbf26d897000000000000000000000000000000000000000000000000000000007bffffffffffffffffffffffffffffffffffffffffffffffffffffffff1916827bffffffffffffffffffffffffffffffffffffffffffffffffffffffff191614806122a257506122a182612c97565b5b9050919050565b600560009054906101000a900473ffffffffffffffffffffffffffffffffffffffff1673ffffffffffffffffffffffffffffffffffffffff1663e38335e5348686866000876040518763ffffffff1660e01b815260040161230e9594939291906141ac565b6000604051808303818588803b15801561232757600080fd5b505af115801561233b573d6000803e3d6000fd5b50505050505050505050565b60007f000000000000000000000000000000000000000000000000000000000000000073ffffffffffffffffffffffffffffffffffffffff163073ffffffffffffffffffffffffffffffffffffffff161480156123c357507f000000000000000000000000000000000000000000000000000000000000000046145b156123f0577f0000000000000000000000000000000000000000000000000000000000000000905061245e565b61245b7f00000000000000000000000000000000000000000000000000000000000000007f00000000000000000000000000000000000000000000000000000000000000007f0000000000000000000000000000000000000000000000000000000000000000612d01565b90505b90565b60008282604051602001612476929190614d6c565b60405160208183030381529060405280519060200120905092915050565b6000807f7fffffffffffffffffffffffffffffff5d576e7357a4501ddfe92f46681b20a08360001c11156124cf576000600391509150612598565b601b8560ff16141580156124e75750601c8560ff1614155b156124f9576000600491509150612598565b60006001878787876040516000815260200160405260405161251e9493929190614da3565b6020604051602081039080840390855afa158015612540573d6000803e3d6000fd5b505050602060405103519050600073ffffffffffffffffffffffffffffffffffffffff168173ffffffffffffffffffffffffffffffffffffffff16141561258f57600060019250925050612598565b80600092509250505b94509492505050565b600060048111156125b5576125b461374b565b5b8160048111156125c8576125c761374b565b5b14156125d357612773565b600160048111156125e7576125e661374b565b5b8160048111156125fa576125f961374b565b5b141561263b576040517f08c379a000000000000000000000000000000000000000000000000000000000815260040161263290614e34565b60405180910390fd5b6002600481111561264f5761264e61374b565b5b8160048111156126625761266161374b565b5b14156126a3576040517f08c379a000000000000000000000000000000000000000000000000000000000815260040161269a90614ea0565b60405180910390fd5b600360048111156126b7576126b661374b565b5b8160048111156126ca576126c961374b565b5b141561270b576040517f08c379a000000000000000000000000000000000000000000000000000000000815260040161270290614f32565b60405180910390fd5b60048081111561271e5761271d61374b565b5b8160048111156127315761273061374b565b5b1415612772576040517f08c379a000000000000000000000000000000000000000000000000000000000815260040161276990614fc4565b60405180910390fd5b5b50565b60006008600086815260200190815260200160002090508060030160008573ffffffffffffffffffffffffffffffffffffffff1673ffffffffffffffffffffffffffffffffffffffff16815260200190815260200160002060009054906101000a900460ff161561281c576040517f08c379a000000000000000000000000000000000000000000000000000000000815260040161281390615056565b60405180910390fd5b60018160030160008673ffffffffffffffffffffffffffffffffffffffff1673ffffffffffffffffffffffffffffffffffffffff16815260200190815260200160002060006101000a81548160ff0219169083151502179055506000600281111561288a5761288961374b565b5b60ff168360ff1614156128b757818160000160008282546128ab91906142fb565b92505081905550612975565b600160028111156128cb576128ca61374b565b5b60ff168360ff1614156128f857818160010160008282546128ec91906142fb565b92505081905550612974565b60028081111561290b5761290a61374b565b5b60ff168360ff161415612938578181600201600082825461292c91906142fb565b92505081905550612973565b6040517f08c379a000000000000000000000000000000000000000000000000000000000815260040161296a906150e8565b60405180910390fd5b5b5b5050505050565b6000806001600084815260200190815260200160002090508060020160009054906101000a900460ff16156129b5576007915050612a8c565b8060020160019054906101000a900460ff16156129d6576002915050612a8c565b60006129e184610e4b565b90506000811415612a27576040517f08c379a0000000000000000000000000000000000000000000000000000000008152600401612a1e90615154565b60405180910390fd5b438110612a3957600092505050612a8c565b6000612a44856115ef565b9050438110612a595760019350505050612a8c565b612a6285612d3b565b8015612a735750612a7285612d82565b5b15612a845760049350505050612a8c565b600393505050505b919050565b600080612aa086868686612dad565b90506000801b600660008381526020019081526020016000205414612b7757600560009054906101000a900473ffffffffffffffffffffffffffffffffffffffff1673ffffffffffffffffffffffffffffffffffffffff1663c4d252f560066000848152602001908152602001600020546040518263ffffffff1660e01b8152600401612b2d9190613c5b565b600060405180830381600087803b158015612b4757600080fd5b505af1158015612b5b573d6000803e3d6000fd5b5050505060066000828152602001908152602001600020600090555b80915050949350505050565b606082471015612bc8576040517f08c379a0000000000000000000000000000000000000000000000000000000008152600401612bbf906151e6565b60405180910390fd5b612bd185612f06565b612c10576040517f08c379a0000000000000000000000000000000000000000000000000000000008152600401612c0790615252565b60405180910390fd5b6000808673ffffffffffffffffffffffffffffffffffffffff168587604051612c3991906152ae565b60006040518083038185875af1925050503d8060008114612c76576040519150601f19603f3d011682016040523d82523d6000602084013e612c7b565b606091505b5091509150612c8b828286612f29565b92505050949350505050565b60007f01ffc9a7000000000000000000000000000000000000000000000000000000007bffffffffffffffffffffffffffffffffffffffffffffffffffffffff1916827bffffffffffffffffffffffffffffffffffffffffffffffffffffffff1916149050919050565b60008383834630604051602001612d1c9594939291906152c5565b6040516020818303038152906040528051906020012090509392505050565b60008060086000848152602001908152602001600020905080600201548160010154612d6791906142fb565b612d78612d7385610e4b565b61191a565b1115915050919050565b6000806008600084815260200190815260200160002090508060000154816001015411915050919050565b600080612dbc8686868661172f565b90506000612dc982610f4d565b905060026007811115612ddf57612dde61374b565b5b816007811115612df257612df161374b565b5b14158015612e25575060066007811115612e0f57612e0e61374b565b5b816007811115612e2257612e2161374b565b5b14155b8015612e555750600780811115612e3f57612e3e61374b565b5b816007811115612e5257612e5161374b565b5b14155b612e94576040517f08c379a0000000000000000000000000000000000000000000000000000000008152600401612e8b90615364565b60405180910390fd5b600180600084815260200190815260200160002060020160016101000a81548160ff0219169083151502179055507f789cf55be980739dad1d0699b93b58e806b51c9d96619bfa8fe0a28abaa7b30c82604051612ef19190613078565b60405180910390a18192505050949350505050565b6000808273ffffffffffffffffffffffffffffffffffffffff163b119050919050565b60608315612f3957829050612f89565b600083511115612f4c5782518084602001fd5b816040517f08c379a0000000000000000000000000000000000000000000000000000000008152600401612f809190613185565b60405180910390fd5b9392505050565b6000604051905090565b600080fd5b600080fd5b60007fffffffff0000000000000000000000000000000000000000000000000000000082169050919050565b612fd981612fa4565b8114612fe457600080fd5b50565b600081359050612ff681612fd0565b92915050565b60006020828403121561301257613011612f9a565b5b600061302084828501612fe7565b91505092915050565b60008115159050919050565b61303e81613029565b82525050565b60006020820190506130596000830184613035565b92915050565b6000819050919050565b6130728161305f565b82525050565b600060208201905061308d6000830184613069565b92915050565b61309c8161305f565b81146130a757600080fd5b50565b6000813590506130b981613093565b92915050565b6000602082840312156130d5576130d4612f9a565b5b60006130e3848285016130aa565b91505092915050565b600081519050919050565b600082825260208201905092915050565b60005b8381101561312657808201518184015260208101905061310b565b83811115613135576000848401525b50505050565b6000601f19601f8301169050919050565b6000613157826130ec565b61316181856130f7565b9350613171818560208601613108565b61317a8161313b565b840191505092915050565b6000602082019050818103600083015261319f818461314c565b905092915050565b600080fd5b7f4e487b7100000000000000000000000000000000000000000000000000000000600052604160045260246000fd5b6131e48261313b565b810181811067ffffffffffffffff82111715613203576132026131ac565b5b80604052505050565b6000613216612f90565b905061322282826131db565b919050565b600067ffffffffffffffff821115613242576132416131ac565b5b602082029050602081019050919050565b600080fd5b600073ffffffffffffffffffffffffffffffffffffffff82169050919050565b600061328382613258565b9050919050565b61329381613278565b811461329e57600080fd5b50565b6000813590506132b08161328a565b92915050565b60006132c96132c484613227565b61320c565b905080838252602082019050602084028301858111156132ec576132eb613253565b5b835b81811015613315578061330188826132a1565b8452602084019350506020810190506132ee565b5050509392505050565b600082601f830112613334576133336131a7565b5b81356133448482602086016132b6565b91505092915050565b600067ffffffffffffffff821115613368576133676131ac565b5b602082029050602081019050919050565b600061338c6133878461334d565b61320c565b905080838252602082019050602084028301858111156133af576133ae613253565b5b835b818110156133d857806133c488826130aa565b8452602084019350506020810190506133b1565b5050509392505050565b600082601f8301126133f7576133f66131a7565b5b8135613407848260208601613379565b91505092915050565b600067ffffffffffffffff82111561342b5761342a6131ac565b5b602082029050602081019050919050565b600080fd5b600067ffffffffffffffff82111561345c5761345b6131ac565b5b6134658261313b565b9050602081019050919050565b82818337600083830152505050565b600061349461348f84613441565b61320c565b9050828152602081018484840111156134b0576134af61343c565b5b6134bb848285613472565b509392505050565b600082601f8301126134d8576134d76131a7565b5b81356134e8848260208601613481565b91505092915050565b60006135046134ff84613410565b61320c565b9050808382526020820190506020840283018581111561352757613526613253565b5b835b8181101561356e57803567ffffffffffffffff81111561354c5761354b6131a7565b5b80860161355989826134c3565b85526020850194505050602081019050613529565b5050509392505050565b600082601f83011261358d5761358c6131a7565b5b813561359d8482602086016134f1565b91505092915050565b6000819050919050565b6135b9816135a6565b81146135c457600080fd5b50565b6000813590506135d6816135b0565b92915050565b600080600080608085870312156135f6576135f5612f9a565b5b600085013567ffffffffffffffff81111561361457613613612f9f565b5b6136208782880161331f565b945050602085013567ffffffffffffffff81111561364157613640612f9f565b5b61364d878288016133e2565b935050604085013567ffffffffffffffff81111561366e5761366d612f9f565b5b61367a87828801613578565b925050606061368b878288016135c7565b91505092959194509250565b600060ff82169050919050565b6136ad81613697565b81146136b857600080fd5b50565b6000813590506136ca816136a4565b92915050565b600080600080600060a086880312156136ec576136eb612f9a565b5b60006136fa888289016130aa565b955050602061370b888289016136bb565b945050604061371c888289016136bb565b935050606061372d888289016135c7565b925050608061373e888289016135c7565b9150509295509295909350565b7f4e487b7100000000000000000000000000000000000000000000000000000000600052602160045260246000fd5b6008811061378b5761378a61374b565b5b50565b600081905061379c8261377a565b919050565b60006137ac8261378e565b9050919050565b6137bc816137a1565b82525050565b60006020820190506137d760008301846137b3565b92915050565b600080604083850312156137f4576137f3612f9a565b5b6000613802858286016130aa565b9250506020613813858286016132a1565b9150509250929050565b60006060820190506138326000830186613069565b61383f6020830185613069565b61384c6040830184613069565b949350505050565b6000806040838503121561386b5761386a612f9a565b5b6000613879858286016130aa565b925050602061388a858286016136bb565b9150509250929050565b600080fd5b60008083601f8401126138af576138ae6131a7565b5b8235905067ffffffffffffffff8111156138cc576138cb613894565b5b6020830191508360018202830111156138e8576138e7613253565b5b9250929050565b6000806000806060858703121561390957613908612f9a565b5b6000613917878288016130aa565b9450506020613928878288016136bb565b935050604085013567ffffffffffffffff81111561394957613948612f9f565b5b61395587828801613899565b925092505092959194509250565b600067ffffffffffffffff82111561397e5761397d6131ac565b5b6139878261313b565b9050602081019050919050565b60006139a76139a284613963565b61320c565b9050828152602081018484840111156139c3576139c261343c565b5b6139ce848285613472565b509392505050565b600082601f8301126139eb576139ea6131a7565b5b81356139fb848260208601613994565b91505092915050565b60008060008060808587031215613a1e57613a1d612f9a565b5b600085013567ffffffffffffffff811115613a3c57613a3b612f9f565b5b613a488782880161331f565b945050602085013567ffffffffffffffff811115613a6957613a68612f9f565b5b613a75878288016133e2565b935050604085013567ffffffffffffffff811115613a9657613a95612f9f565b5b613aa287828801613578565b925050606085013567ffffffffffffffff811115613ac357613ac2612f9f565b5b613acf878288016139d6565b91505092959194509250565b6000613ae682613258565b9050919050565b6000613af882613adb565b9050919050565b613b0881613aed565b8114613b1357600080fd5b50565b600081359050613b2581613aff565b92915050565b600060208284031215613b4157613b40612f9a565b5b6000613b4f84828501613b16565b91505092915050565b60008083601f840112613b6e57613b6d6131a7565b5b8235905067ffffffffffffffff811115613b8b57613b8a613894565b5b602083019150836001820283011115613ba757613ba6613253565b5b9250929050565b60008060008060608587031215613bc857613bc7612f9a565b5b6000613bd6878288016132a1565b9450506020613be7878288016130aa565b935050604085013567ffffffffffffffff811115613c0857613c07612f9f565b5b613c1487828801613b58565b925092505092959194509250565b613c2b81613278565b82525050565b6000602082019050613c466000830184613c22565b92915050565b613c55816135a6565b82525050565b6000602082019050613c706000830184613c4c565b92915050565b60008060408385031215613c8d57613c8c612f9a565b5b6000613c9b858286016132a1565b9250506020613cac858286016130aa565b9150509250929050565b6000819050919050565b6000613cdb613cd6613cd184613258565b613cb6565b613258565b9050919050565b6000613ced82613cc0565b9050919050565b6000613cff82613ce2565b9050919050565b613d0f81613cf4565b82525050565b6000602082019050613d2a6000830184613d06565b92915050565b7f476f7665726e6f723a206f6e6c79476f7665726e616e63650000000000000000600082015250565b6000613d666018836130f7565b9150613d7182613d30565b602082019050919050565b60006020820190508181036000830152613d9581613d59565b9050919050565b7f4e487b7100000000000000000000000000000000000000000000000000000000600052602260045260246000fd5b60006002820490506001821680613de357607f821691505b60208210811415613df757613df6613d9c565b5b50919050565b7f476f7665726e6f723a2070726f706f73616c206e6f742073756363657373667560008201527f6c00000000000000000000000000000000000000000000000000000000000000602082015250565b6000613e596021836130f7565b9150613e6482613dfd565b604082019050919050565b60006020820190508181036000830152613e8881613e4c565b9050919050565b600081519050613e9e81613093565b92915050565b600060208284031215613eba57613eb9612f9a565b5b6000613ec884828501613e8f565b91505092915050565b600081519050919050565b600082825260208201905092915050565b6000819050602082019050919050565b613f0681613278565b82525050565b6000613f188383613efd565b60208301905092915050565b6000602082019050919050565b6000613f3c82613ed1565b613f468185613edc565b9350613f5183613eed565b8060005b83811015613f82578151613f698882613f0c565b9750613f7483613f24565b925050600181019050613f55565b5085935050505092915050565b600081519050919050565b600082825260208201905092915050565b6000819050602082019050919050565b613fc48161305f565b82525050565b6000613fd68383613fbb565b60208301905092915050565b6000602082019050919050565b6000613ffa82613f8f565b6140048185613f9a565b935061400f83613fab565b8060005b838110156140405781516140278882613fca565b975061403283613fe2565b925050600181019050614013565b5085935050505092915050565b600081519050919050565b600082825260208201905092915050565b6000819050602082019050919050565b600081519050919050565b600082825260208201905092915050565b60006140a082614079565b6140aa8185614084565b93506140ba818560208601613108565b6140c38161313b565b840191505092915050565b60006140da8383614095565b905092915050565b6000602082019050919050565b60006140fa8261404d565b6141048185614058565b93508360208202850161411685614069565b8060005b85811015614152578484038952815161413385826140ce565b945061413e836140e2565b925060208a0199505060018101905061411a565b50829750879550505050505092915050565b6000819050919050565b60008160001b9050919050565b600061419661419161418c84614164565b61416e565b6135a6565b9050919050565b6141a68161417b565b82525050565b600060a08201905081810360008301526141c68188613f31565b905081810360208301526141da8187613fef565b905081810360408301526141ee81866140ef565b90506141fd606083018561419d565b61420a6080830184613c4c565b9695505050505050565b600081519050614223816135b0565b92915050565b60006020828403121561423f5761423e612f9a565b5b600061424d84828501614214565b91505092915050565b600060c08201905081810360008301526142708189613f31565b905081810360208301526142848188613fef565b9050818103604083015261429881876140ef565b90506142a7606083018661419d565b6142b46080830185613c4c565b6142c160a0830184613069565b979650505050505050565b7f4e487b7100000000000000000000000000000000000000000000000000000000600052601160045260246000fd5b60006143068261305f565b91506143118361305f565b9250827fffffffffffffffffffffffffffffffffffffffffffffffffffffffffffffffff03821115614346576143456142cc565b5b828201905092915050565b60006040820190506143666000830185613069565b6143736020830184613069565b9392505050565b61438381613697565b82525050565b600060608201905061439e6000830186613c4c565b6143ab6020830185613069565b6143b8604083018461437a565b949350505050565b60006143cb8261305f565b91506143d68361305f565b9250828210156143e9576143e86142cc565b5b828203905092915050565b7f476f7665726e6f72436f6d7061746962696c697479427261766f3a2070726f7060008201527f6f73657220766f7465732062656c6f772070726f706f73616c2074687265736860208201527f6f6c640000000000000000000000000000000000000000000000000000000000604082015250565b60006144766043836130f7565b9150614481826143f4565b606082019050919050565b600060208201905081810360008301526144a581614469565b9050919050565b7f476f7665726e6f723a20696e76616c69642070726f706f73616c206c656e677460008201527f6800000000000000000000000000000000000000000000000000000000000000602082015250565b60006145086021836130f7565b9150614513826144ac565b604082019050919050565b60006020820190508181036000830152614537816144fb565b9050919050565b7f476f7665726e6f723a20656d7074792070726f706f73616c0000000000000000600082015250565b60006145746018836130f7565b915061457f8261453e565b602082019050919050565b600060208201905081810360008301526145a381614567565b9050919050565b7f476f7665726e6f723a2070726f706f73616c20616c726561647920657869737460008201527f7300000000000000000000000000000000000000000000000000000000000000602082015250565b60006146066021836130f7565b9150614611826145aa565b604082019050919050565b60006020820190508181036000830152614635816145f9565b9050919050565b600067ffffffffffffffff82169050919050565b600061465b8261463c565b91506146668361463c565b92508267ffffffffffffffff03821115614683576146826142cc565b5b828201905092915050565b600081519050919050565b600082825260208201905092915050565b6000819050602082019050919050565b600082825260208201905092915050565b60006146d6826130ec565b6146e081856146ba565b93506146f0818560208601613108565b6146f98161313b565b840191505092915050565b600061471083836146cb565b905092915050565b6000602082019050919050565b60006147308261468e565b61473a8185614699565b93508360208202850161474c856146aa565b8060005b8581101561478857848403895281516147698582614704565b945061477483614718565b925060208a01995050600181019050614750565b50829750879550505050505092915050565b60006147b56147b06147ab8461463c565b613cb6565b61305f565b9050919050565b6147c58161479a565b82525050565b6000610120820190506147e1600083018c613069565b6147ee602083018b613c22565b8181036040830152614800818a613f31565b905081810360608301526148148189613fef565b905081810360808301526148288188614725565b905081810360a083015261483c81876140ef565b905061484b60c08301866147bc565b61485860e08301856147bc565b81810361010083015261486b818461314c565b90509a9950505050505050505050565b600060808201905081810360008301526148958187613f31565b905081810360208301526148a98186613fef565b905081810360408301526148bd81856140ef565b90506148cc6060830184613c4c565b95945050505050565b7f476f7665726e6f72566f74657351756f72756d4672616374696f6e3a2071756f60008201527f72756d4e756d657261746f72206f7665722071756f72756d44656e6f6d696e6160208201527f746f720000000000000000000000000000000000000000000000000000000000604082015250565b60006149576043836130f7565b9150614962826148d5565b606082019050919050565b600060208201905081810360008301526149868161494a565b9050919050565b7f476f7665726e6f723a20766f7465206e6f742063757272656e746c792061637460008201527f6976650000000000000000000000000000000000000000000000000000000000602082015250565b60006149e96023836130f7565b91506149f48261498d565b604082019050919050565b60006020820190508181036000830152614a18816149dc565b9050919050565b6000608082019050614a346000830187613069565b614a41602083018661437a565b614a4e6040830185613069565b8181036060830152614a60818461314c565b905095945050505050565b614a7481613029565b8114614a7f57600080fd5b50565b600081519050614a9181614a6b565b92915050565b600060208284031215614aad57614aac612f9a565b5b6000614abb84828501614a82565b91505092915050565b7f53616665436173743a2076616c756520646f65736e27742066697420696e203660008201527f3420626974730000000000000000000000000000000000000000000000000000602082015250565b6000614b206026836130f7565b9150614b2b82614ac4565b604082019050919050565b60006020820190508181036000830152614b4f81614b13565b9050919050565b6000604082019050614b6b6000830185613c22565b614b786020830184613c22565b9392505050565b7f476f7665726e6f7253657474696e67733a20766f74696e6720706572696f642060008201527f746f6f206c6f7700000000000000000000000000000000000000000000000000602082015250565b6000614bdb6027836130f7565b9150614be682614b7f565b604082019050919050565b60006020820190508181036000830152614c0a81614bce565b9050919050565b6000604082019050614c266000830185613c22565b614c336020830184613069565b9392505050565b6000614c458261305f565b9150614c508361305f565b9250817fffffffffffffffffffffffffffffffffffffffffffffffffffffffffffffffff0483118215151615614c8957614c886142cc565b5b828202905092915050565b7f4e487b7100000000000000000000000000000000000000000000000000000000600052601260045260246000fd5b6000614cce8261305f565b9150614cd98361305f565b925082614ce957614ce8614c94565b5b828204905092915050565b600081905092915050565b7f1901000000000000000000000000000000000000000000000000000000000000600082015250565b6000614d35600283614cf4565b9150614d4082614cff565b600282019050919050565b6000819050919050565b614d66614d61826135a6565b614d4b565b82525050565b6000614d7782614d28565b9150614d838285614d55565b602082019150614d938284614d55565b6020820191508190509392505050565b6000608082019050614db86000830187613c4c565b614dc5602083018661437a565b614dd26040830185613c4c565b614ddf6060830184613c4c565b95945050505050565b7f45434453413a20696e76616c6964207369676e61747572650000000000000000600082015250565b6000614e1e6018836130f7565b9150614e2982614de8565b602082019050919050565b60006020820190508181036000830152614e4d81614e11565b9050919050565b7f45434453413a20696e76616c6964207369676e6174757265206c656e67746800600082015250565b6000614e8a601f836130f7565b9150614e9582614e54565b602082019050919050565b60006020820190508181036000830152614eb981614e7d565b9050919050565b7f45434453413a20696e76616c6964207369676e6174757265202773272076616c60008201527f7565000000000000000000000000000000000000000000000000000000000000602082015250565b6000614f1c6022836130f7565b9150614f2782614ec0565b604082019050919050565b60006020820190508181036000830152614f4b81614f0f565b9050919050565b7f45434453413a20696e76616c6964207369676e6174757265202776272076616c60008201527f7565000000000000000000000000000000000000000000000000000000000000602082015250565b6000614fae6022836130f7565b9150614fb982614f52565b604082019050919050565b60006020820190508181036000830152614fdd81614fa1565b9050919050565b7f476f7665726e6f72566f74696e6753696d706c653a20766f746520616c72656160008201527f6479206361737400000000000000000000000000000000000000000000000000602082015250565b60006150406027836130f7565b915061504b82614fe4565b604082019050919050565b6000602082019050818103600083015261506f81615033565b9050919050565b7f476f7665726e6f72566f74696e6753696d706c653a20696e76616c696420766160008201527f6c756520666f7220656e756d20566f7465547970650000000000000000000000602082015250565b60006150d26035836130f7565b91506150dd82615076565b604082019050919050565b60006020820190508181036000830152615101816150c5565b9050919050565b7f476f7665726e6f723a20756e6b6e6f776e2070726f706f73616c206964000000600082015250565b600061513e601d836130f7565b915061514982615108565b602082019050919050565b6000602082019050818103600083015261516d81615131565b9050919050565b7f416464726573733a20696e73756666696369656e742062616c616e636520666f60008201527f722063616c6c0000000000000000000000000000000000000000000000000000602082015250565b60006151d06026836130f7565b91506151db82615174565b604082019050919050565b600060208201905081810360008301526151ff816151c3565b9050919050565b7f416464726573733a2063616c6c20746f206e6f6e2d636f6e7472616374000000600082015250565b600061523c601d836130f7565b915061524782615206565b602082019050919050565b6000602082019050818103600083015261526b8161522f565b9050919050565b600081905092915050565b600061528882614079565b6152928185615272565b93506152a2818560208601613108565b80840191505092915050565b60006152ba828461527d565b915081905092915050565b600060a0820190506152da6000830188613c4c565b6152e76020830187613c4c565b6152f46040830186613c4c565b6153016060830185613069565b61530e6080830184613c22565b9695505050505050565b7f476f7665726e6f723a2070726f706f73616c206e6f7420616374697665000000600082015250565b600061534e601d836130f7565b915061535982615318565b602082019050919050565b6000602082019050818103600083015261537d81615341565b905091905056fe416464726573733a206c6f772d6c6576656c2063616c6c20776974682076616c7565206661696c6564a2646970667358221220f2a5138d44feb7778ee066c4e0e1389494bdfc0418ccf768ee376963ebc95ac564736f6c634300080b0033",
  "immutableReferences": {
    "9076": [
      {
        "length": 32,
        "start": 6446
      },
      {
        "length": 32,
        "start": 8321
      },
      {
        "length": 32,
        "start": 8572
      }
    ],
    "31235": [
      {
        "length": 32,
        "start": 9162
      }
    ],
    "31237": [
      {
        "length": 32,
        "start": 9121
      }
    ],
    "31239": [
      {
        "length": 32,
        "start": 9035
      }
    ],
    "31241": [
      {
        "length": 32,
        "start": 9238
      }
    ],
    "31243": [
      {
        "length": 32,
        "start": 9271
      }
    ],
    "31245": [
      {
        "length": 32,
        "start": 9205
      }
    ]
  },
  "source": "// SPDX-License-Identifier: MIT\n\npragma solidity ^0.8.0;\n\nimport \"../governance/extensions/GovernorTimelockControl.sol\";\nimport \"../governance/extensions/GovernorSettings.sol\";\nimport \"../governance/extensions/GovernorCountingSimple.sol\";\nimport \"../governance/extensions/GovernorVotesQuorumFraction.sol\";\n\ncontract GovernorTimelockControlMock is\n    GovernorSettings,\n    GovernorTimelockControl,\n    GovernorVotesQuorumFraction,\n    GovernorCountingSimple\n{\n    constructor(\n        string memory name_,\n        IVotes token_,\n        uint256 votingDelay_,\n        uint256 votingPeriod_,\n        TimelockController timelock_,\n        uint256 quorumNumerator_\n    )\n        Governor(name_)\n        GovernorTimelockControl(timelock_)\n        GovernorSettings(votingDelay_, votingPeriod_, 0)\n        GovernorVotes(token_)\n        GovernorVotesQuorumFraction(quorumNumerator_)\n    {}\n\n    function supportsInterface(bytes4 interfaceId)\n        public\n        view\n        virtual\n        override(Governor, GovernorTimelockControl)\n        returns (bool)\n    {\n        return super.supportsInterface(interfaceId);\n    }\n\n    function quorum(uint256 blockNumber)\n        public\n        view\n        override(IGovernor, GovernorVotesQuorumFraction)\n        returns (uint256)\n    {\n        return super.quorum(blockNumber);\n    }\n\n    function cancel(\n        address[] memory targets,\n        uint256[] memory values,\n        bytes[] memory calldatas,\n        bytes32 descriptionHash\n    ) public returns (uint256 proposalId) {\n        return _cancel(targets, values, calldatas, descriptionHash);\n    }\n\n    /**\n     * Overriding nightmare\n     */\n    function state(uint256 proposalId)\n        public\n        view\n        virtual\n        override(Governor, GovernorTimelockControl)\n        returns (ProposalState)\n    {\n        return super.state(proposalId);\n    }\n\n    function proposalThreshold() public view override(Governor, GovernorSettings) returns (uint256) {\n        return super.proposalThreshold();\n    }\n\n    function _execute(\n        uint256 proposalId,\n        address[] memory targets,\n        uint256[] memory values,\n        bytes[] memory calldatas,\n        bytes32 descriptionHash\n    ) internal virtual override(Governor, GovernorTimelockControl) {\n        super._execute(proposalId, targets, values, calldatas, descriptionHash);\n    }\n\n    function _cancel(\n        address[] memory targets,\n        uint256[] memory values,\n        bytes[] memory calldatas,\n        bytes32 descriptionHash\n    ) internal virtual override(Governor, GovernorTimelockControl) returns (uint256 proposalId) {\n        return super._cancel(targets, values, calldatas, descriptionHash);\n    }\n\n    function getVotes(address account, uint256 blockNumber)\n        public\n        view\n        virtual\n        override(IGovernor, GovernorVotes)\n        returns (uint256)\n    {\n        return super.getVotes(account, blockNumber);\n    }\n\n    function _executor() internal view virtual override(Governor, GovernorTimelockControl) returns (address) {\n        return super._executor();\n    }\n}\n",
  "sourcePath": "D:\\03.block-chain\\01.miquelTC__nft-marketplace\\test-proj\\nft-marketplace-master\\src\\contracts\\ERC721\\mocks\\GovernorTimelockControlMock.sol",
  "compiler": {
    "name": "solc",
    "version": "0.8.11+commit.d7f03943.Emscripten.clang"
  },
  "schemaVersion": "3.4.4",
  "updatedAt": "2022-02-16T02:59:58.742Z",
  "devdoc": {
    "kind": "dev",
    "methods": {
      "COUNTING_MODE()": {
        "details": "See {IGovernor-COUNTING_MODE}."
      },
      "castVote(uint256,uint8)": {
        "details": "See {IGovernor-castVote}."
      },
      "castVoteBySig(uint256,uint8,uint8,bytes32,bytes32)": {
        "details": "See {IGovernor-castVoteBySig}."
      },
      "castVoteWithReason(uint256,uint8,string)": {
        "details": "See {IGovernor-castVoteWithReason}."
      },
      "execute(address[],uint256[],bytes[],bytes32)": {
        "details": "See {IGovernor-execute}."
      },
      "hasVoted(uint256,address)": {
        "details": "See {IGovernor-hasVoted}."
      },
      "hashProposal(address[],uint256[],bytes[],bytes32)": {
        "details": "See {IGovernor-hashProposal}. The proposal id is produced by hashing the RLC encoded `targets` array, the `values` array, the `calldatas` array and the descriptionHash (bytes32 which itself is the keccak256 hash of the description string). This proposal id can be produced from the proposal data which is part of the {ProposalCreated} event. It can even be computed in advance, before the proposal is submitted. Note that the chainId and the governor address are not part of the proposal id computation. Consequently, the same proposal (with same operation and same description) will have the same id if submitted on multiple governors accross multiple networks. This also means that in order to execute the same operation twice (on the same governor) the proposer will have to change the description in order to avoid proposal id conflicts."
      },
      "name()": {
        "details": "See {IGovernor-name}."
      },
      "proposalDeadline(uint256)": {
        "details": "See {IGovernor-proposalDeadline}."
      },
      "proposalEta(uint256)": {
        "details": "Public accessor to check the eta of a queued proposal"
      },
      "proposalSnapshot(uint256)": {
        "details": "See {IGovernor-proposalSnapshot}."
      },
      "proposalVotes(uint256)": {
        "details": "Accessor to the internal vote counts."
      },
      "propose(address[],uint256[],bytes[],string)": {
        "details": "See {IGovernor-propose}."
      },
      "queue(address[],uint256[],bytes[],bytes32)": {
        "details": "Function to queue a proposal to the timelock."
      },
      "quorumDenominator()": {
        "details": "Returns the quorum denominator. Defaults to 100, but may be overridden."
      },
      "quorumNumerator()": {
        "details": "Returns the current quorum numerator. See {quorumDenominator}."
      },
      "relay(address,uint256,bytes)": {
        "details": "Relays a transaction or function call to an arbitrary target. In cases where the governance executor is some contract other than the governor itself, like when using a timelock, this function can be invoked in a governance proposal to recover tokens or Ether that was sent to the governor contract by mistake. Note that if the executor is simply the governor itself, use of `relay` is redundant."
      },
      "setProposalThreshold(uint256)": {
        "details": "Update the proposal threshold. This operation can only be performed through a governance proposal. Emits a {ProposalThresholdSet} event."
      },
      "setVotingDelay(uint256)": {
        "details": "Update the voting delay. This operation can only be performed through a governance proposal. Emits a {VotingDelaySet} event."
      },
      "setVotingPeriod(uint256)": {
        "details": "Update the voting period. This operation can only be performed through a governance proposal. Emits a {VotingPeriodSet} event."
      },
      "timelock()": {
        "details": "Public accessor to check the address of the timelock"
      },
      "updateQuorumNumerator(uint256)": {
        "details": "Changes the quorum numerator. Emits a {QuorumNumeratorUpdated} event. Requirements: - Must be called through a governance proposal. - New numerator must be smaller or equal to the denominator."
      },
      "updateTimelock(address)": {
        "details": "Public endpoint to update the underlying timelock instance. Restricted to the timelock itself, so updates must be proposed, scheduled, and executed through governance proposals. CAUTION: It is not recommended to change the timelock while there are other queued governance proposals."
      },
      "version()": {
        "details": "See {IGovernor-version}."
      },
      "votingDelay()": {
        "details": "See {IGovernor-votingDelay}."
      },
      "votingPeriod()": {
        "details": "See {IGovernor-votingPeriod}."
      }
    },
    "version": 1
  },
  "userdoc": {
    "kind": "user",
    "methods": {
      "state(uint256)": {
        "notice": "Overriding nightmare"
      }
    },
    "version": 1
  }
}