{
  "contractName": "GovernorCompatibilityBravoMock",
  "abi": [
    {
      "inputs": [
        {
          "internalType": "string",
          "name": "name_",
          "type": "string"
        },
        {
          "internalType": "contract ERC20VotesComp",
          "name": "token_",
          "type": "address"
        },
        {
          "internalType": "uint256",
          "name": "votingDelay_",
          "type": "uint256"
        },
        {
          "internalType": "uint256",
          "name": "votingPeriod_",
          "type": "uint256"
        },
        {
          "internalType": "uint256",
          "name": "proposalThreshold_",
          "type": "uint256"
        },
        {
          "internalType": "contract ICompoundTimelock",
          "name": "timelock_",
          "type": "address"
        }
      ],
      "stateMutability": "nonpayable",
      "type": "constructor"
    },
    {
      "anonymous": false,
      "inputs": [
        {
          "indexed": false,
          "internalType": "uint256",
          "name": "proposalId",
          "type": "uint256"
        }
      ],
      "name": "ProposalCanceled",
      "type": "event"
    },
    {
      "anonymous": false,
      "inputs": [
        {
          "indexed": false,
          "internalType": "uint256",
          "name": "proposalId",
          "type": "uint256"
        },
        {
          "indexed": false,
          "internalType": "address",
          "name": "proposer",
          "type": "address"
        },
        {
          "indexed": false,
          "internalType": "address[]",
          "name": "targets",
          "type": "address[]"
        },
        {
          "indexed": false,
          "internalType": "uint256[]",
          "name": "values",
          "type": "uint256[]"
        },
        {
          "indexed": false,
          "internalType": "string[]",
          "name": "signatures",
          "type": "string[]"
        },
        {
          "indexed": false,
          "internalType": "bytes[]",
          "name": "calldatas",
          "type": "bytes[]"
        },
        {
          "indexed": false,
          "internalType": "uint256",
          "name": "startBlock",
          "type": "uint256"
        },
        {
          "indexed": false,
          "internalType": "uint256",
          "name": "endBlock",
          "type": "uint256"
        },
        {
          "indexed": false,
          "internalType": "string",
          "name": "description",
          "type": "string"
        }
      ],
      "name": "ProposalCreated",
      "type": "event"
    },
    {
      "anonymous": false,
      "inputs": [
        {
          "indexed": false,
          "internalType": "uint256",
          "name": "proposalId",
          "type": "uint256"
        }
      ],
      "name": "ProposalExecuted",
      "type": "event"
    },
    {
      "anonymous": false,
      "inputs": [
        {
          "indexed": false,
          "internalType": "uint256",
          "name": "proposalId",
          "type": "uint256"
        },
        {
          "indexed": false,
          "internalType": "uint256",
          "name": "eta",
          "type": "uint256"
        }
      ],
      "name": "ProposalQueued",
      "type": "event"
    },
    {
      "anonymous": false,
      "inputs": [
        {
          "indexed": false,
          "internalType": "uint256",
          "name": "oldProposalThreshold",
          "type": "uint256"
        },
        {
          "indexed": false,
          "internalType": "uint256",
          "name": "newProposalThreshold",
          "type": "uint256"
        }
      ],
      "name": "ProposalThresholdSet",
      "type": "event"
    },
    {
      "anonymous": false,
      "inputs": [
        {
          "indexed": false,
          "internalType": "address",
          "name": "oldTimelock",
          "type": "address"
        },
        {
          "indexed": false,
          "internalType": "address",
          "name": "newTimelock",
          "type": "address"
        }
      ],
      "name": "TimelockChange",
      "type": "event"
    },
    {
      "anonymous": false,
      "inputs": [
        {
          "indexed": true,
          "internalType": "address",
          "name": "voter",
          "type": "address"
        },
        {
          "indexed": false,
          "internalType": "uint256",
          "name": "proposalId",
          "type": "uint256"
        },
        {
          "indexed": false,
          "internalType": "uint8",
          "name": "support",
          "type": "uint8"
        },
        {
          "indexed": false,
          "internalType": "uint256",
          "name": "weight",
          "type": "uint256"
        },
        {
          "indexed": false,
          "internalType": "string",
          "name": "reason",
          "type": "string"
        }
      ],
      "name": "VoteCast",
      "type": "event"
    },
    {
      "anonymous": false,
      "inputs": [
        {
          "indexed": false,
          "internalType": "uint256",
          "name": "oldVotingDelay",
          "type": "uint256"
        },
        {
          "indexed": false,
          "internalType": "uint256",
          "name": "newVotingDelay",
          "type": "uint256"
        }
      ],
      "name": "VotingDelaySet",
      "type": "event"
    },
    {
      "anonymous": false,
      "inputs": [
        {
          "indexed": false,
          "internalType": "uint256",
          "name": "oldVotingPeriod",
          "type": "uint256"
        },
        {
          "indexed": false,
          "internalType": "uint256",
          "name": "newVotingPeriod",
          "type": "uint256"
        }
      ],
      "name": "VotingPeriodSet",
      "type": "event"
    },
    {
      "inputs": [],
      "name": "BALLOT_TYPEHASH",
      "outputs": [
        {
          "internalType": "bytes32",
          "name": "",
          "type": "bytes32"
        }
      ],
      "stateMutability": "view",
      "type": "function"
    },
    {
      "inputs": [],
      "name": "COUNTING_MODE",
      "outputs": [
        {
          "internalType": "string",
          "name": "",
          "type": "string"
        }
      ],
      "stateMutability": "pure",
      "type": "function"
    },
    {
      "inputs": [],
      "name": "__acceptAdmin",
      "outputs": [],
      "stateMutability": "nonpayable",
      "type": "function"
    },
    {
      "inputs": [
        {
          "internalType": "uint256",
          "name": "proposalId",
          "type": "uint256"
        },
        {
          "internalType": "uint8",
          "name": "support",
          "type": "uint8"
        }
      ],
      "name": "castVote",
      "outputs": [
        {
          "internalType": "uint256",
          "name": "",
          "type": "uint256"
        }
      ],
      "stateMutability": "nonpayable",
      "type": "function"
    },
    {
      "inputs": [
        {
          "internalType": "uint256",
          "name": "proposalId",
          "type": "uint256"
        },
        {
          "internalType": "uint8",
          "name": "support",
          "type": "uint8"
        },
        {
          "internalType": "uint8",
          "name": "v",
          "type": "uint8"
        },
        {
          "internalType": "bytes32",
          "name": "r",
          "type": "bytes32"
        },
        {
          "internalType": "bytes32",
          "name": "s",
          "type": "bytes32"
        }
      ],
      "name": "castVoteBySig",
      "outputs": [
        {
          "internalType": "uint256",
          "name": "",
          "type": "uint256"
        }
      ],
      "stateMutability": "nonpayable",
      "type": "function"
    },
    {
      "inputs": [
        {
          "internalType": "uint256",
          "name": "proposalId",
          "type": "uint256"
        },
        {
          "internalType": "uint8",
          "name": "support",
          "type": "uint8"
        },
        {
          "internalType": "string",
          "name": "reason",
          "type": "string"
        }
      ],
      "name": "castVoteWithReason",
      "outputs": [
        {
          "internalType": "uint256",
          "name": "",
          "type": "uint256"
        }
      ],
      "stateMutability": "nonpayable",
      "type": "function"
    },
    {
      "inputs": [
        {
          "internalType": "uint256",
          "name": "proposalId",
          "type": "uint256"
        }
      ],
      "name": "getActions",
      "outputs": [
        {
          "internalType": "address[]",
          "name": "targets",
          "type": "address[]"
        },
        {
          "internalType": "uint256[]",
          "name": "values",
          "type": "uint256[]"
        },
        {
          "internalType": "string[]",
          "name": "signatures",
          "type": "string[]"
        },
        {
          "internalType": "bytes[]",
          "name": "calldatas",
          "type": "bytes[]"
        }
      ],
      "stateMutability": "view",
      "type": "function"
    },
    {
      "inputs": [
        {
          "internalType": "uint256",
          "name": "proposalId",
          "type": "uint256"
        },
        {
          "internalType": "address",
          "name": "voter",
          "type": "address"
        }
      ],
      "name": "getReceipt",
      "outputs": [
        {
          "components": [
            {
              "internalType": "bool",
              "name": "hasVoted",
              "type": "bool"
            },
            {
              "internalType": "uint8",
              "name": "support",
              "type": "uint8"
            },
            {
              "internalType": "uint96",
              "name": "votes",
              "type": "uint96"
            }
          ],
          "internalType": "struct IGovernorCompatibilityBravo.Receipt",
          "name": "",
          "type": "tuple"
        }
      ],
      "stateMutability": "view",
      "type": "function"
    },
    {
      "inputs": [
        {
          "internalType": "uint256",
          "name": "proposalId",
          "type": "uint256"
        },
        {
          "internalType": "address",
          "name": "account",
          "type": "address"
        }
      ],
      "name": "hasVoted",
      "outputs": [
        {
          "internalType": "bool",
          "name": "",
          "type": "bool"
        }
      ],
      "stateMutability": "view",
      "type": "function"
    },
    {
      "inputs": [
        {
          "internalType": "address[]",
          "name": "targets",
          "type": "address[]"
        },
        {
          "internalType": "uint256[]",
          "name": "values",
          "type": "uint256[]"
        },
        {
          "internalType": "bytes[]",
          "name": "calldatas",
          "type": "bytes[]"
        },
        {
          "internalType": "bytes32",
          "name": "descriptionHash",
          "type": "bytes32"
        }
      ],
      "name": "hashProposal",
      "outputs": [
        {
          "internalType": "uint256",
          "name": "",
          "type": "uint256"
        }
      ],
      "stateMutability": "pure",
      "type": "function"
    },
    {
      "inputs": [],
      "name": "name",
      "outputs": [
        {
          "internalType": "string",
          "name": "",
          "type": "string"
        }
      ],
      "stateMutability": "view",
      "type": "function"
    },
    {
      "inputs": [
        {
          "internalType": "uint256",
          "name": "proposalId",
          "type": "uint256"
        }
      ],
      "name": "proposalDeadline",
      "outputs": [
        {
          "internalType": "uint256",
          "name": "",
          "type": "uint256"
        }
      ],
      "stateMutability": "view",
      "type": "function"
    },
    {
      "inputs": [
        {
          "internalType": "uint256",
          "name": "proposalId",
          "type": "uint256"
        }
      ],
      "name": "proposalSnapshot",
      "outputs": [
        {
          "internalType": "uint256",
          "name": "",
          "type": "uint256"
        }
      ],
      "stateMutability": "view",
      "type": "function"
    },
    {
      "inputs": [
        {
          "internalType": "uint256",
          "name": "proposalId",
          "type": "uint256"
        }
      ],
      "name": "proposals",
      "outputs": [
        {
          "internalType": "uint256",
          "name": "id",
          "type": "uint256"
        },
        {
          "internalType": "address",
          "name": "proposer",
          "type": "address"
        },
        {
          "internalType": "uint256",
          "name": "eta",
          "type": "uint256"
        },
        {
          "internalType": "uint256",
          "name": "startBlock",
          "type": "uint256"
        },
        {
          "internalType": "uint256",
          "name": "endBlock",
          "type": "uint256"
        },
        {
          "internalType": "uint256",
          "name": "forVotes",
          "type": "uint256"
        },
        {
          "internalType": "uint256",
          "name": "againstVotes",
          "type": "uint256"
        },
        {
          "internalType": "uint256",
          "name": "abstainVotes",
          "type": "uint256"
        },
        {
          "internalType": "bool",
          "name": "canceled",
          "type": "bool"
        },
        {
          "internalType": "bool",
          "name": "executed",
          "type": "bool"
        }
      ],
      "stateMutability": "view",
      "type": "function"
    },
    {
      "inputs": [],
      "name": "quorumVotes",
      "outputs": [
        {
          "internalType": "uint256",
          "name": "",
          "type": "uint256"
        }
      ],
      "stateMutability": "view",
      "type": "function"
    },
    {
      "inputs": [
        {
          "internalType": "address",
          "name": "target",
          "type": "address"
        },
        {
          "internalType": "uint256",
          "name": "value",
          "type": "uint256"
        },
        {
          "internalType": "bytes",
          "name": "data",
          "type": "bytes"
        }
      ],
      "name": "relay",
      "outputs": [],
      "stateMutability": "nonpayable",
      "type": "function"
    },
    {
      "inputs": [
        {
          "internalType": "uint256",
          "name": "newProposalThreshold",
          "type": "uint256"
        }
      ],
      "name": "setProposalThreshold",
      "outputs": [],
      "stateMutability": "nonpayable",
      "type": "function"
    },
    {
      "inputs": [
        {
          "internalType": "uint256",
          "name": "newVotingDelay",
          "type": "uint256"
        }
      ],
      "name": "setVotingDelay",
      "outputs": [],
      "stateMutability": "nonpayable",
      "type": "function"
    },
    {
      "inputs": [
        {
          "internalType": "uint256",
          "name": "newVotingPeriod",
          "type": "uint256"
        }
      ],
      "name": "setVotingPeriod",
      "outputs": [],
      "stateMutability": "nonpayable",
      "type": "function"
    },
    {
      "inputs": [],
      "name": "timelock",
      "outputs": [
        {
          "internalType": "address",
          "name": "",
          "type": "address"
        }
      ],
      "stateMutability": "view",
      "type": "function"
    },
    {
      "inputs": [],
      "name": "token",
      "outputs": [
        {
          "internalType": "contract ERC20VotesComp",
          "name": "",
          "type": "address"
        }
      ],
      "stateMutability": "view",
      "type": "function"
    },
    {
      "inputs": [
        {
          "internalType": "contract ICompoundTimelock",
          "name": "newTimelock",
          "type": "address"
        }
      ],
      "name": "updateTimelock",
      "outputs": [],
      "stateMutability": "nonpayable",
      "type": "function"
    },
    {
      "inputs": [],
      "name": "version",
      "outputs": [
        {
          "internalType": "string",
          "name": "",
          "type": "string"
        }
      ],
      "stateMutability": "view",
      "type": "function"
    },
    {
      "inputs": [],
      "name": "votingDelay",
      "outputs": [
        {
          "internalType": "uint256",
          "name": "",
          "type": "uint256"
        }
      ],
      "stateMutability": "view",
      "type": "function"
    },
    {
      "inputs": [],
      "name": "votingPeriod",
      "outputs": [
        {
          "internalType": "uint256",
          "name": "",
          "type": "uint256"
        }
      ],
      "stateMutability": "view",
      "type": "function"
    },
    {
      "stateMutability": "payable",
      "type": "receive"
    },
    {
      "inputs": [
        {
          "internalType": "bytes4",
          "name": "interfaceId",
          "type": "bytes4"
        }
      ],
      "name": "supportsInterface",
      "outputs": [
        {
          "internalType": "bool",
          "name": "",
          "type": "bool"
        }
      ],
      "stateMutability": "view",
      "type": "function"
    },
    {
      "inputs": [
        {
          "internalType": "uint256",
          "name": "",
          "type": "uint256"
        }
      ],
      "name": "quorum",
      "outputs": [
        {
          "internalType": "uint256",
          "name": "",
          "type": "uint256"
        }
      ],
      "stateMutability": "pure",
      "type": "function"
    },
    {
      "inputs": [
        {
          "internalType": "uint256",
          "name": "proposalId",
          "type": "uint256"
        }
      ],
      "name": "state",
      "outputs": [
        {
          "internalType": "enum IGovernor.ProposalState",
          "name": "",
          "type": "uint8"
        }
      ],
      "stateMutability": "view",
      "type": "function"
    },
    {
      "inputs": [
        {
          "internalType": "uint256",
          "name": "proposalId",
          "type": "uint256"
        }
      ],
      "name": "proposalEta",
      "outputs": [
        {
          "internalType": "uint256",
          "name": "",
          "type": "uint256"
        }
      ],
      "stateMutability": "view",
      "type": "function"
    },
    {
      "inputs": [],
      "name": "proposalThreshold",
      "outputs": [
        {
          "internalType": "uint256",
          "name": "",
          "type": "uint256"
        }
      ],
      "stateMutability": "view",
      "type": "function"
    },
    {
      "inputs": [
        {
          "internalType": "address[]",
          "name": "targets",
          "type": "address[]"
        },
        {
          "internalType": "uint256[]",
          "name": "values",
          "type": "uint256[]"
        },
        {
          "internalType": "bytes[]",
          "name": "calldatas",
          "type": "bytes[]"
        },
        {
          "internalType": "string",
          "name": "description",
          "type": "string"
        }
      ],
      "name": "propose",
      "outputs": [
        {
          "internalType": "uint256",
          "name": "",
          "type": "uint256"
        }
      ],
      "stateMutability": "nonpayable",
      "type": "function"
    },
    {
      "inputs": [
        {
          "internalType": "address[]",
          "name": "targets",
          "type": "address[]"
        },
        {
          "internalType": "uint256[]",
          "name": "values",
          "type": "uint256[]"
        },
        {
          "internalType": "string[]",
          "name": "signatures",
          "type": "string[]"
        },
        {
          "internalType": "bytes[]",
          "name": "calldatas",
          "type": "bytes[]"
        },
        {
          "internalType": "string",
          "name": "description",
          "type": "string"
        }
      ],
      "name": "propose",
      "outputs": [
        {
          "internalType": "uint256",
          "name": "",
          "type": "uint256"
        }
      ],
      "stateMutability": "nonpayable",
      "type": "function"
    },
    {
      "inputs": [
        {
          "internalType": "address[]",
          "name": "targets",
          "type": "address[]"
        },
        {
          "internalType": "uint256[]",
          "name": "values",
          "type": "uint256[]"
        },
        {
          "internalType": "bytes[]",
          "name": "calldatas",
          "type": "bytes[]"
        },
        {
          "internalType": "bytes32",
          "name": "salt",
          "type": "bytes32"
        }
      ],
      "name": "queue",
      "outputs": [
        {
          "internalType": "uint256",
          "name": "",
          "type": "uint256"
        }
      ],
      "stateMutability": "nonpayable",
      "type": "function"
    },
    {
      "inputs": [
        {
          "internalType": "uint256",
          "name": "proposalId",
          "type": "uint256"
        }
      ],
      "name": "queue",
      "outputs": [],
      "stateMutability": "nonpayable",
      "type": "function"
    },
    {
      "inputs": [
        {
          "internalType": "address[]",
          "name": "targets",
          "type": "address[]"
        },
        {
          "internalType": "uint256[]",
          "name": "values",
          "type": "uint256[]"
        },
        {
          "internalType": "bytes[]",
          "name": "calldatas",
          "type": "bytes[]"
        },
        {
          "internalType": "bytes32",
          "name": "salt",
          "type": "bytes32"
        }
      ],
      "name": "execute",
      "outputs": [
        {
          "internalType": "uint256",
          "name": "",
          "type": "uint256"
        }
      ],
      "stateMutability": "payable",
      "type": "function"
    },
    {
      "inputs": [
        {
          "internalType": "uint256",
          "name": "proposalId",
          "type": "uint256"
        }
      ],
      "name": "execute",
      "outputs": [],
      "stateMutability": "payable",
      "type": "function"
    },
    {
      "inputs": [
        {
          "internalType": "uint256",
          "name": "proposalId",
          "type": "uint256"
        }
      ],
      "name": "cancel",
      "outputs": [],
      "stateMutability": "nonpayable",
      "type": "function"
    },
    {
      "inputs": [
        {
          "internalType": "address[]",
          "name": "targets",
          "type": "address[]"
        },
        {
          "internalType": "uint256[]",
          "name": "values",
          "type": "uint256[]"
        },
        {
          "internalType": "bytes[]",
          "name": "calldatas",
          "type": "bytes[]"
        },
        {
          "internalType": "bytes32",
          "name": "salt",
          "type": "bytes32"
        }
      ],
      "name": "cancel",
      "outputs": [
        {
          "internalType": "uint256",
          "name": "proposalId",
          "type": "uint256"
        }
      ],
      "stateMutability": "nonpayable",
      "type": "function"
    },
    {
      "inputs": [
        {
          "internalType": "address",
          "name": "account",
          "type": "address"
        },
        {
          "internalType": "uint256",
          "name": "blockNumber",
          "type": "uint256"
        }
      ],
      "name": "getVotes",
      "outputs": [
        {
          "internalType": "uint256",
          "name": "",
          "type": "uint256"
        }
      ],
      "stateMutability": "view",
      "type": "function"
    }
  ],
  "bytecode": "0x6101606040523480156200001257600080fd5b5060405162007ccf38038062007ccf833981810160405281019062000038919062000734565b84818585858a806200004f620001a560201b60201c565b60008280519060200120905060008280519060200120905060007f8b73c3c69bb8fe3d512ecc4cf759cc79239f7b179b0ffacaa9a75d522b39400f90508260e081815250508161010081815250504660a08181525050620000b8818484620001e260201b60201c565b608081815250503073ffffffffffffffffffffffffffffffffffffffff1660c08173ffffffffffffffffffffffffffffffffffffffff16815250508061012081815250505050505050806000908051906020019062000119929190620003da565b50506200012c836200021e60201b60201c565b6200013d826200026560201b60201c565b6200014e81620002f260201b60201c565b50505062000162816200033960201b60201c565b508073ffffffffffffffffffffffffffffffffffffffff166101408173ffffffffffffffffffffffffffffffffffffffff168152505050505050505050620009f1565b60606040518060400160405280600181526020017f3100000000000000000000000000000000000000000000000000000000000000815250905090565b60008383834630604051602001620001ff9594939291906200082c565b6040516020818303038152906040528051906020012090509392505050565b7fc565b045403dc03c2eea82b81a0465edad9e2e7fc4d97e11421c209da93d7a93600354826040516200025392919062000889565b60405180910390a18060038190555050565b60008111620002ab576040517f08c379a0000000000000000000000000000000000000000000000000000000008152600401620002a2906200093d565b60405180910390fd5b7f7e3f7f0708a84de9203036abaa450dccc85ad5ff52f78c170f3edb55cf5e882860045482604051620002e092919062000889565b60405180910390a18060048190555050565b7fccb45da8d5717e6c4544694297c4ba5cf151d455c9bb0ed4fc7a38411bc05461600554826040516200032792919062000889565b60405180910390a18060058190555050565b7f08f74ea46ef7894f65eabfb5e6e695de773a000b47c529ab559178069b226401600660009054906101000a900473ffffffffffffffffffffffffffffffffffffffff16826040516200038e9291906200095f565b60405180910390a180600660006101000a81548173ffffffffffffffffffffffffffffffffffffffff021916908373ffffffffffffffffffffffffffffffffffffffff16021790555050565b828054620003e890620009bb565b90600052602060002090601f0160209004810192826200040c576000855562000458565b82601f106200042757805160ff191683800117855562000458565b8280016001018555821562000458579182015b82811115620004575782518255916020019190600101906200043a565b5b5090506200046791906200046b565b5090565b5b80821115620004865760008160009055506001016200046c565b5090565b6000604051905090565b600080fd5b600080fd5b600080fd5b600080fd5b6000601f19601f8301169050919050565b7f4e487b7100000000000000000000000000000000000000000000000000000000600052604160045260246000fd5b620004f382620004a8565b810181811067ffffffffffffffff82111715620005155762000514620004b9565b5b80604052505050565b60006200052a6200048a565b9050620005388282620004e8565b919050565b600067ffffffffffffffff8211156200055b576200055a620004b9565b5b6200056682620004a8565b9050602081019050919050565b60005b838110156200059357808201518184015260208101905062000576565b83811115620005a3576000848401525b50505050565b6000620005c0620005ba846200053d565b6200051e565b905082815260208101848484011115620005df57620005de620004a3565b5b620005ec84828562000573565b509392505050565b600082601f8301126200060c576200060b6200049e565b5b81516200061e848260208601620005a9565b91505092915050565b600073ffffffffffffffffffffffffffffffffffffffff82169050919050565b6000620006548262000627565b9050919050565b6000620006688262000647565b9050919050565b6200067a816200065b565b81146200068657600080fd5b50565b6000815190506200069a816200066f565b92915050565b6000819050919050565b620006b581620006a0565b8114620006c157600080fd5b50565b600081519050620006d581620006aa565b92915050565b6000620006e88262000627565b9050919050565b6000620006fc82620006db565b9050919050565b6200070e81620006ef565b81146200071a57600080fd5b50565b6000815190506200072e8162000703565b92915050565b60008060008060008060c0878903121562000754576200075362000494565b5b600087015167ffffffffffffffff81111562000775576200077462000499565b5b6200078389828a01620005f4565b96505060206200079689828a0162000689565b9550506040620007a989828a01620006c4565b9450506060620007bc89828a01620006c4565b9350506080620007cf89828a01620006c4565b92505060a0620007e289828a016200071d565b9150509295509295509295565b6000819050919050565b6200080481620007ef565b82525050565b6200081581620006a0565b82525050565b620008268162000647565b82525050565b600060a082019050620008436000830188620007f9565b620008526020830187620007f9565b620008616040830186620007f9565b6200087060608301856200080a565b6200087f60808301846200081b565b9695505050505050565b6000604082019050620008a060008301856200080a565b620008af60208301846200080a565b9392505050565b600082825260208201905092915050565b7f476f7665726e6f7253657474696e67733a20766f74696e6720706572696f642060008201527f746f6f206c6f7700000000000000000000000000000000000000000000000000602082015250565b600062000925602783620008b6565b91506200093282620008c7565b604082019050919050565b60006020820190508181036000830152620009588162000916565b9050919050565b60006040820190506200097660008301856200081b565b6200098560208301846200081b565b9392505050565b7f4e487b7100000000000000000000000000000000000000000000000000000000600052602260045260246000fd5b60006002820490506001821680620009d457607f821691505b60208210811415620009eb57620009ea6200098c565b5b50919050565b60805160a05160c05160e05161010051610120516101405161727c62000a5360003960008181611dd60152612e39015260006130f00152600061313201526000613111015260006130460152600061309c015260006130c5015261727c6000f3fe6080604052600436106102345760003560e01c80637d5e81e21161012e578063dd4e2ba5116100ab578063eb9019d41161006f578063eb9019d414610958578063ece40cc114610995578063f8ce560a146109be578063fc0c546a146109fb578063fe0d94c114610a265761027a565b8063dd4e2ba514610873578063ddf0b0091461089e578063deaaa7cc146108c7578063e23a9a52146108f2578063ea0217cf1461092f5761027a565b8063c01f9e37116100f2578063c01f9e3714610768578063c28bc2fa146107a5578063c59057e4146107ce578063d33219b41461080b578063da95691a146108365761027a565b80637d5e81e214610683578063a890c910146106c0578063ab58fb8e146106e9578063b58131b014610726578063b9a61961146107515761027a565b80633932abb1116101bc578063452115d611610180578063452115d61461057857806354fd4d50146105b557806356781388146105e057806370b0f6601461061d5780637b3c71d3146106465761027a565b80633932abb11461046d5780633bccf4fd146104985780633e4f49e6146104d557806340e58ee514610512578063438596321461053b5761027a565b8063160cbed711610203578063160cbed71461035857806324bc1a64146103955780632656227d146103c05780632d63f693146103f0578063328dd9821461042d5761027a565b8063013cf08b1461027f57806301ffc9a7146102c557806302a251a31461030257806306fdde031461032d5761027a565b3661027a573073ffffffffffffffffffffffffffffffffffffffff16610258610a42565b73ffffffffffffffffffffffffffffffffffffffff161461027857600080fd5b005b600080fd5b34801561028b57600080fd5b506102a660048036038101906102a19190614775565b610a51565b6040516102bc9a9998979695949392919061480d565b60405180910390f35b3480156102d157600080fd5b506102ec60048036038101906102e79190614901565b610b46565b6040516102f9919061492e565b60405180910390f35b34801561030e57600080fd5b50610317610b58565b6040516103249190614949565b60405180910390f35b34801561033957600080fd5b50610342610b62565b60405161034f91906149fd565b60405180910390f35b34801561036457600080fd5b5061037f600480360381019061037a9190614e22565b610bf4565b60405161038c9190614949565b60405180910390f35b3480156103a157600080fd5b506103aa610c0c565b6040516103b79190614949565b60405180910390f35b6103da60048036038101906103d59190614e22565b610c28565b6040516103e79190614949565b60405180910390f35b3480156103fc57600080fd5b5061041760048036038101906104129190614775565b610c40565b6040516104249190614949565b60405180910390f35b34801561043957600080fd5b50610454600480360381019061044f9190614775565b610cae565b604051610464949392919061527c565b60405180910390f35b34801561047957600080fd5b50610482610f6b565b60405161048f9190614949565b60405180910390f35b3480156104a457600080fd5b506104bf60048036038101906104ba9190615316565b610f75565b6040516104cc9190614949565b60405180910390f35b3480156104e157600080fd5b506104fc60048036038101906104f79190614775565b610fff565b6040516105099190615408565b60405180910390f35b34801561051e57600080fd5b5061053960048036038101906105349190614775565b611011565b005b34801561054757600080fd5b50610562600480360381019061055d9190615423565b6113a9565b60405161056f919061492e565b60405180910390f35b34801561058457600080fd5b5061059f600480360381019061059a9190614e22565b611417565b6040516105ac9190614949565b60405180910390f35b3480156105c157600080fd5b506105ca61142f565b6040516105d791906149fd565b60405180910390f35b3480156105ec57600080fd5b5061060760048036038101906106029190615463565b61146c565b6040516106149190614949565b60405180910390f35b34801561062957600080fd5b50610644600480360381019061063f9190614775565b61149d565b005b34801561065257600080fd5b5061066d600480360381019061066891906154fe565b611525565b60405161067a9190614949565b60405180910390f35b34801561068f57600080fd5b506106aa60048036038101906106a59190615613565b61158d565b6040516106b79190614949565b60405180910390f35b3480156106cc57600080fd5b506106e760048036038101906106e2919061573a565b6115a5565b005b3480156106f557600080fd5b50610710600480360381019061070b9190614775565b61162d565b60405161071d9190614949565b60405180910390f35b34801561073257600080fd5b5061073b61163f565b6040516107489190614949565b60405180910390f35b34801561075d57600080fd5b5061076661164e565b005b34801561077457600080fd5b5061078f600480360381019061078a9190614775565b6116d2565b60405161079c9190614949565b60405180910390f35b3480156107b157600080fd5b506107cc60048036038101906107c791906157bd565b611740565b005b3480156107da57600080fd5b506107f560048036038101906107f09190614e22565b611812565b6040516108029190614949565b60405180910390f35b34801561081757600080fd5b5061082061184e565b60405161082d9190615831565b60405180910390f35b34801561084257600080fd5b5061085d6004803603810190610858919061592d565b611878565b60405161086a9190614949565b60405180910390f35b34801561087f57600080fd5b506108886118af565b60405161089591906149fd565b60405180910390f35b3480156108aa57600080fd5b506108c560048036038101906108c09190614775565b6118ec565b005b3480156108d357600080fd5b506108dc611ba1565b6040516108e99190615a43565b60405180910390f35b3480156108fe57600080fd5b5061091960048036038101906109149190615423565b611bc5565b6040516109269190615ae5565b60405180910390f35b34801561093b57600080fd5b5061095660048036038101906109519190614775565b611ca9565b005b34801561096457600080fd5b5061097f600480360381019061097a9190615b00565b611d31565b60405161098c9190614949565b60405180910390f35b3480156109a157600080fd5b506109bc60048036038101906109b79190614775565b611d45565b005b3480156109ca57600080fd5b506109e560048036038101906109e09190614775565b611dcd565b6040516109f29190614949565b60405180910390f35b348015610a0757600080fd5b50610a10611dd4565b604051610a1d9190615b9f565b60405180910390f35b610a406004803603810190610a3b9190614775565b611df8565b005b6000610a4c6120ad565b905090565b6000806000806000806000806000808a9950610a6c8b61162d565b9750610a778b610c40565b9650610a828b6116d2565b95506000600260008d815260200190815260200160002090508060000160009054906101000a900473ffffffffffffffffffffffffffffffffffffffff1699508060050154955080600601549450806007015493506000610ae28d610fff565b905060026007811115610af857610af7615391565b5b816007811115610b0b57610b0a615391565b5b149350600780811115610b2157610b20615391565b5b816007811115610b3457610b33615391565b5b14925050509193959799509193959799565b6000610b51826120d7565b9050919050565b6000600454905090565b606060008054610b7190615be9565b80601f0160208091040260200160405190810160405280929190818152602001828054610b9d90615be9565b8015610bea5780601f10610bbf57610100808354040283529160200191610bea565b820191906000526020600020905b815481529060010190602001808311610bcd57829003601f168201915b5050505050905090565b6000610c0285858585612151565b9050949350505050565b6000610c23600143610c1e9190615c4a565b611dcd565b905090565b6000610c368585858561254e565b9050949350505050565b6000610c9d600160008481526020019081526020016000206000016040518060200160405290816000820160009054906101000a900467ffffffffffffffff1667ffffffffffffffff1667ffffffffffffffff1681525050612681565b67ffffffffffffffff169050919050565b60608060608060006002600087815260200190815260200160002090508060010181600201826003018360040183805480602002602001604051908101604052809291908181526020018280548015610d5c57602002820191906000526020600020905b8160009054906101000a900473ffffffffffffffffffffffffffffffffffffffff1673ffffffffffffffffffffffffffffffffffffffff1681526020019060010190808311610d12575b5050505050935082805480602002602001604051908101604052809291908181526020018280548015610dae57602002820191906000526020600020905b815481526020019060010190808311610d9a575b5050505050925081805480602002602001604051908101604052809291908181526020016000905b82821015610e82578382906000526020600020018054610df590615be9565b80601f0160208091040260200160405190810160405280929190818152602001828054610e2190615be9565b8015610e6e5780601f10610e4357610100808354040283529160200191610e6e565b820191906000526020600020905b815481529060010190602001808311610e5157829003601f168201915b505050505081526020019060010190610dd6565b50505050915080805480602002602001604051908101604052809291908181526020016000905b82821015610f55578382906000526020600020018054610ec890615be9565b80601f0160208091040260200160405190810160405280929190818152602001828054610ef490615be9565b8015610f415780601f10610f1657610100808354040283529160200191610f41565b820191906000526020600020905b815481529060010190602001808311610f2457829003601f168201915b505050505081526020019060010190610ea9565b5050505090509450945094509450509193509193565b6000600354905090565b600080610fd6610fce7f150214d74d59b7d1e90c73fc22ef3d991dd0a76b046543d4d80ab92d2a50328f8989604051602001610fb393929190615c8d565b6040516020818303038152906040528051906020012061268f565b8686866126a9565b9050610ff3878288604051806020016040528060008152506126d4565b91505095945050505050565b600061100a82612828565b9050919050565b60006002600083815260200190815260200160002090508060000160009054906101000a900473ffffffffffffffffffffffffffffffffffffffff1673ffffffffffffffffffffffffffffffffffffffff1661106b612944565b73ffffffffffffffffffffffffffffffffffffffff1614806110cc575061109061163f565b6110ca8260000160009054906101000a900473ffffffffffffffffffffffffffffffffffffffff166001436110c59190615c4a565b611d31565b105b61110b576040517f08c379a000000000000000000000000000000000000000000000000000000000815260040161110290615d36565b60405180910390fd5b6113a48160010180548060200260200160405190810160405280929190818152602001828054801561119257602002820191906000526020600020905b8160009054906101000a900473ffffffffffffffffffffffffffffffffffffffff1673ffffffffffffffffffffffffffffffffffffffff1681526020019060010190808311611148575b5050505050826002018054806020026020016040519081016040528092919081815260200182805480156111e557602002820191906000526020600020905b8154815260200190600101908083116111d1575b505050505061139a84600301805480602002602001604051908101604052809291908181526020016000905b828210156112bd57838290600052602060002001805461123090615be9565b80601f016020809104026020016040519081016040528092919081815260200182805461125c90615be9565b80156112a95780601f1061127e576101008083540402835291602001916112a9565b820191906000526020600020905b81548152906001019060200180831161128c57829003601f168201915b505050505081526020019060010190611211565b5050505085600401805480602002602001604051908101604052809291908181526020016000905b8282101561139157838290600052602060002001805461130490615be9565b80601f016020809104026020016040519081016040528092919081815260200182805461133090615be9565b801561137d5780601f106113525761010080835404028352916020019161137d565b820191906000526020600020905b81548152906001019060200180831161136057829003601f168201915b5050505050815260200190600101906112e5565b5050505061294c565b8460090154612a88565b505050565b60006002600084815260200190815260200160002060080160008373ffffffffffffffffffffffffffffffffffffffff1673ffffffffffffffffffffffffffffffffffffffff16815260200190815260200160002060000160009054906101000a900460ff16905092915050565b600061142585858585612a88565b9050949350505050565b60606040518060400160405280600181526020017f3100000000000000000000000000000000000000000000000000000000000000815250905090565b600080611477612944565b9050611494848285604051806020016040528060008152506126d4565b91505092915050565b6114a5610a42565b73ffffffffffffffffffffffffffffffffffffffff166114c3612944565b73ffffffffffffffffffffffffffffffffffffffff1614611519576040517f08c379a000000000000000000000000000000000000000000000000000000000815260040161151090615da2565b60405180910390fd5b61152281612aa0565b50565b600080611530612944565b905061158286828787878080601f016020809104026020016040519081016040528093929190818152602001838380828437600081840152601f19601f820116905080830192505050505050506126d4565b915050949350505050565b600061159b85858585612ae5565b9050949350505050565b6115ad610a42565b73ffffffffffffffffffffffffffffffffffffffff166115cb612944565b73ffffffffffffffffffffffffffffffffffffffff1614611621576040517f08c379a000000000000000000000000000000000000000000000000000000000815260040161161890615da2565b60405180910390fd5b61162a81612b60565b50565b600061163882612bff565b9050919050565b6000611649612c6d565b905090565b600660009054906101000a900473ffffffffffffffffffffffffffffffffffffffff1673ffffffffffffffffffffffffffffffffffffffff16630e18b6816040518163ffffffff1660e01b8152600401600060405180830381600087803b1580156116b857600080fd5b505af11580156116cc573d6000803e3d6000fd5b50505050565b600061172f600160008481526020019081526020016000206001016040518060200160405290816000820160009054906101000a900467ffffffffffffffff1667ffffffffffffffff1667ffffffffffffffff1681525050612681565b67ffffffffffffffff169050919050565b611748610a42565b73ffffffffffffffffffffffffffffffffffffffff16611766612944565b73ffffffffffffffffffffffffffffffffffffffff16146117bc576040517f08c379a00000000000000000000000000000000000000000000000000000000081526004016117b390615da2565b60405180910390fd5b61180b8483838080601f016020809104026020016040519081016040528093929190818152602001838380828437600081840152601f19601f8201169050808301925050505050505085612c77565b5050505050565b60008484848460405160200161182b9493929190615dc2565b6040516020818303038152906040528051906020012060001c9050949350505050565b6000600660009054906101000a900473ffffffffffffffffffffffffffffffffffffffff16905090565b600061188f611885612944565b8787878787612ca6565b6118a4868661189e878761294c565b8561158d565b905095945050505050565b60606040518060400160405280601a81526020017f737570706f72743d627261766f2671756f72756d3d627261766f000000000000815250905090565b6000600260008381526020019081526020016000209050611b9c8160010180548060200260200160405190810160405280929190818152602001828054801561198a57602002820191906000526020600020905b8160009054906101000a900473ffffffffffffffffffffffffffffffffffffffff1673ffffffffffffffffffffffffffffffffffffffff1681526020019060010190808311611940575b5050505050826002018054806020026020016040519081016040528092919081815260200182805480156119dd57602002820191906000526020600020905b8154815260200190600101908083116119c9575b5050505050611b9284600301805480602002602001604051908101604052809291908181526020016000905b82821015611ab5578382906000526020600020018054611a2890615be9565b80601f0160208091040260200160405190810160405280929190818152602001828054611a5490615be9565b8015611aa15780601f10611a7657610100808354040283529160200191611aa1565b820191906000526020600020905b815481529060010190602001808311611a8457829003601f168201915b505050505081526020019060010190611a09565b5050505085600401805480602002602001604051908101604052809291908181526020016000905b82821015611b89578382906000526020600020018054611afc90615be9565b80601f0160208091040260200160405190810160405280929190818152602001828054611b2890615be9565b8015611b755780601f10611b4a57610100808354040283529160200191611b75565b820191906000526020600020905b815481529060010190602001808311611b5857829003601f168201915b505050505081526020019060010190611add565b5050505061294c565b8460090154610bf4565b505050565b7f150214d74d59b7d1e90c73fc22ef3d991dd0a76b046543d4d80ab92d2a50328f81565b611bcd61436f565b6002600084815260200190815260200160002060080160008373ffffffffffffffffffffffffffffffffffffffff1673ffffffffffffffffffffffffffffffffffffffff1681526020019081526020016000206040518060600160405290816000820160009054906101000a900460ff161515151581526020016000820160019054906101000a900460ff1660ff1660ff1681526020016000820160029054906101000a90046bffffffffffffffffffffffff166bffffffffffffffffffffffff166bffffffffffffffffffffffff1681525050905092915050565b611cb1610a42565b73ffffffffffffffffffffffffffffffffffffffff16611ccf612944565b73ffffffffffffffffffffffffffffffffffffffff1614611d25576040517f08c379a0000000000000000000000000000000000000000000000000000000008152600401611d1c90615da2565b60405180910390fd5b611d2e81612dad565b50565b6000611d3d8383612e35565b905092915050565b611d4d610a42565b73ffffffffffffffffffffffffffffffffffffffff16611d6b612944565b73ffffffffffffffffffffffffffffffffffffffff1614611dc1576040517f08c379a0000000000000000000000000000000000000000000000000000000008152600401611db890615da2565b60405180910390fd5b611dca81612ee9565b50565b6000919050565b7f000000000000000000000000000000000000000000000000000000000000000081565b60006002600083815260200190815260200160002090506120a881600101805480602002602001604051908101604052809291908181526020018280548015611e9657602002820191906000526020600020905b8160009054906101000a900473ffffffffffffffffffffffffffffffffffffffff1673ffffffffffffffffffffffffffffffffffffffff1681526020019060010190808311611e4c575b505050505082600201805480602002602001604051908101604052809291908181526020018280548015611ee957602002820191906000526020600020905b815481526020019060010190808311611ed5575b505050505061209e84600301805480602002602001604051908101604052809291908181526020016000905b82821015611fc1578382906000526020600020018054611f3490615be9565b80601f0160208091040260200160405190810160405280929190818152602001828054611f6090615be9565b8015611fad5780601f10611f8257610100808354040283529160200191611fad565b820191906000526020600020905b815481529060010190602001808311611f9057829003601f168201915b505050505081526020019060010190611f15565b5050505085600401805480602002602001604051908101604052809291908181526020016000905b8282101561209557838290600052602060002001805461200890615be9565b80601f016020809104026020016040519081016040528092919081815260200182805461203490615be9565b80156120815780601f1061205657610100808354040283529160200191612081565b820191906000526020600020905b81548152906001019060200180831161206457829003601f168201915b505050505081526020019060010190611fe9565b5050505061294c565b8460090154610c28565b505050565b6000600660009054906101000a900473ffffffffffffffffffffffffffffffffffffffff16905090565b60007f6e665ced000000000000000000000000000000000000000000000000000000007bffffffffffffffffffffffffffffffffffffffffffffffffffffffff1916827bffffffffffffffffffffffffffffffffffffffffffffffffffffffff1916148061214a575061214982612f2e565b5b9050919050565b60008061216086868686611812565b90506004600781111561217657612175615391565b5b61217f82610fff565b600781111561219157612190615391565b5b146121d1576040517f08c379a00000000000000000000000000000000000000000000000000000000081526004016121c890615e8e565b60405180910390fd5b6000600660009054906101000a900473ffffffffffffffffffffffffffffffffffffffff1673ffffffffffffffffffffffffffffffffffffffff16636a42b8f86040518163ffffffff1660e01b8152600401602060405180830381865afa158015612240573d6000803e3d6000fd5b505050506040513d601f19601f820116820180604052508101906122649190615ec3565b4261226f9190615ef0565b90506122a161227d82612fa8565b60076000858152602001908152602001600020600001612fff90919063ffffffff16565b60005b875181101561250757600660009054906101000a900473ffffffffffffffffffffffffffffffffffffffff1673ffffffffffffffffffffffffffffffffffffffff1663f2b065378983815181106122fe576122fd615f46565b5b602002602001015189848151811061231957612318615f46565b5b602002602001015189858151811061233457612333615f46565b5b6020026020010151866040516020016123509493929190615fe5565b604051602081830303815290604052805190602001206040518263ffffffff1660e01b81526004016123829190615a43565b602060405180830381865afa15801561239f573d6000803e3d6000fd5b505050506040513d601f19601f820116820180604052508101906123c39190616070565b15612403576040517f08c379a00000000000000000000000000000000000000000000000000000000081526004016123fa90616135565b60405180910390fd5b600660009054906101000a900473ffffffffffffffffffffffffffffffffffffffff1673ffffffffffffffffffffffffffffffffffffffff16633a66f90189838151811061245457612453615f46565b5b602002602001015189848151811061246f5761246e615f46565b5b602002602001015189858151811061248a57612489615f46565b5b6020026020010151866040518563ffffffff1660e01b81526004016124b29493929190615fe5565b6020604051808303816000875af11580156124d1573d6000803e3d6000fd5b505050506040513d601f19601f820116820180604052508101906124f5919061616a565b508061250090616197565b90506122a4565b507f9a2e42fd6722813d69113e7d0079d3d940171428df7373df9c7f7617cfda289282826040516125399291906161e0565b60405180910390a18192505050949350505050565b60008061255d86868686611812565b9050600061256a82610fff565b9050600460078111156125805761257f615391565b5b81600781111561259357612592615391565b5b14806125c35750600560078111156125ae576125ad615391565b5b8160078111156125c1576125c0615391565b5b145b612602576040517f08c379a00000000000000000000000000000000000000000000000000000000081526004016125f990615e8e565b60405180910390fd5b600180600084815260200190815260200160002060020160006101000a81548160ff0219169083151502179055507f712ae1383f79ac853f8d882153778e0260ef8f03b504e2866e0593e04d2b291f8260405161265f9190614949565b60405180910390a1612674828888888861302e565b8192505050949350505050565b600081600001519050919050565b60006126a261269c613042565b8361315c565b9050919050565b60008060006126ba8787878761318f565b915091506126c78161329c565b8192505050949350505050565b60008060016000878152602001908152602001600020905060016007811115612700576126ff615391565b5b61270987610fff565b600781111561271b5761271a615391565b5b1461275b576040517f08c379a00000000000000000000000000000000000000000000000000000000081526004016127529061627b565b60405180910390fd5b60006127b9866127aa846000016040518060200160405290816000820160009054906101000a900467ffffffffffffffff1667ffffffffffffffff1667ffffffffffffffff1681525050612681565b67ffffffffffffffff16611d31565b90506127c787878784613471565b8573ffffffffffffffffffffffffffffffffffffffff167fb8e138887d0aa13bab447e82de9d5c1777041ecd21ca36ba824ff1e6c07ddda488878488604051612813949392919061629b565b60405180910390a28092505050949350505050565b6000806128348361369b565b90506004600781111561284a57612849615391565b5b81600781111561285d5761285c615391565b5b1461286b578091505061293f565b60006128768461162d565b9050600081141561288b57819250505061293f565b600660009054906101000a900473ffffffffffffffffffffffffffffffffffffffff1673ffffffffffffffffffffffffffffffffffffffff1663c1a287e26040518163ffffffff1660e01b8152600401602060405180830381865afa1580156128f8573d6000803e3d6000fd5b505050506040513d601f19601f8201168201806040525081019061291c9190615ec3565b816129279190615ef0565b42106129385760069250505061293f565b6005925050505b919050565b600033905090565b60606000825167ffffffffffffffff81111561296b5761296a614a24565b5b60405190808252806020026020018201604052801561299e57816020015b60608152602001906001900390816129895790505b50905060005b8451811015612a7d5760008582815181106129c2576129c1615f46565b5b60200260200101515114612a32578481815181106129e3576129e2615f46565b5b602002602001015180519060200120848281518110612a0557612a04615f46565b5b6020026020010151604051602001612a1e929190616344565b604051602081830303815290604052612a4e565b838181518110612a4557612a44615f46565b5b60200260200101515b828281518110612a6157612a60615f46565b5b602002602001018190525080612a7690616197565b90506129a4565b508091505092915050565b6000612a96858585856137b0565b9050949350505050565b7fc565b045403dc03c2eea82b81a0465edad9e2e7fc4d97e11421c209da93d7a9360035482604051612ad39291906161e0565b60405180910390a18060038190555050565b6000612b4a612af2612944565b8686865167ffffffffffffffff811115612b0f57612b0e614a24565b5b604051908082528060200260200182016040528015612b4257816020015b6060815260200190600190039081612b2d5790505b508787612ca6565b612b5685858585613902565b9050949350505050565b7f08f74ea46ef7894f65eabfb5e6e695de773a000b47c529ab559178069b226401600660009054906101000a900473ffffffffffffffffffffffffffffffffffffffff1682604051612bb392919061636c565b60405180910390a180600660006101000a81548173ffffffffffffffffffffffffffffffffffffffff021916908373ffffffffffffffffffffffffffffffffffffffff16021790555050565b6000612c5c600760008481526020019081526020016000206000016040518060200160405290816000820160009054906101000a900467ffffffffffffffff1667ffffffffffffffff1667ffffffffffffffff1681525050613c02565b67ffffffffffffffff169050919050565b6000600554905090565b6060612c9d84848460405180606001604052806029815260200161721e60299139613c10565b90509392505050565b6000818051906020012090506000612cc98787612cc3888861294c565b85611812565b905060006002600083815260200190815260200160002090506000801b81600901541415612da257888160000160006101000a81548173ffffffffffffffffffffffffffffffffffffffff021916908373ffffffffffffffffffffffffffffffffffffffff16021790555087816001019080519060200190612d4c9291906143a3565b5086816002019080519060200190612d6592919061442d565b5085816003019080519060200190612d7e92919061447a565b5084816004019080519060200190612d979291906144da565b508281600901819055505b505050505050505050565b60008111612df0576040517f08c379a0000000000000000000000000000000000000000000000000000000008152600401612de790616407565b60405180910390fd5b7f7e3f7f0708a84de9203036abaa450dccc85ad5ff52f78c170f3edb55cf5e882860045482604051612e239291906161e0565b60405180910390a18060048190555050565b60007f000000000000000000000000000000000000000000000000000000000000000073ffffffffffffffffffffffffffffffffffffffff1663782d6fe184846040518363ffffffff1660e01b8152600401612e92929190616427565b602060405180830381865afa158015612eaf573d6000803e3d6000fd5b505050506040513d601f19601f82011682018060405250810190612ed3919061647c565b6bffffffffffffffffffffffff16905092915050565b7fccb45da8d5717e6c4544694297c4ba5cf151d455c9bb0ed4fc7a38411bc0546160055482604051612f1c9291906161e0565b60405180910390a18060058190555050565b60007fbf26d897000000000000000000000000000000000000000000000000000000007bffffffffffffffffffffffffffffffffffffffffffffffffffffffff1916827bffffffffffffffffffffffffffffffffffffffffffffffffffffffff19161480612fa15750612fa082613d24565b5b9050919050565b600067ffffffffffffffff8016821115612ff7576040517f08c379a0000000000000000000000000000000000000000000000000000000008152600401612fee9061651b565b60405180910390fd5b819050919050565b808260000160006101000a81548167ffffffffffffffff021916908367ffffffffffffffff1602179055505050565b61303b8585858585613d8e565b5050505050565b60007f000000000000000000000000000000000000000000000000000000000000000073ffffffffffffffffffffffffffffffffffffffff163073ffffffffffffffffffffffffffffffffffffffff161480156130be57507f000000000000000000000000000000000000000000000000000000000000000046145b156130eb577f00000000000000000000000000000000000000000000000000000000000000009050613159565b6131567f00000000000000000000000000000000000000000000000000000000000000007f00000000000000000000000000000000000000000000000000000000000000007f0000000000000000000000000000000000000000000000000000000000000000613f28565b90505b90565b600082826040516020016131719291906165b3565b60405160208183030381529060405280519060200120905092915050565b6000807f7fffffffffffffffffffffffffffffff5d576e7357a4501ddfe92f46681b20a08360001c11156131ca576000600391509150613293565b601b8560ff16141580156131e25750601c8560ff1614155b156131f4576000600491509150613293565b60006001878787876040516000815260200160405260405161321994939291906165ea565b6020604051602081039080840390855afa15801561323b573d6000803e3d6000fd5b505050602060405103519050600073ffffffffffffffffffffffffffffffffffffffff168173ffffffffffffffffffffffffffffffffffffffff16141561328a57600060019250925050613293565b80600092509250505b94509492505050565b600060048111156132b0576132af615391565b5b8160048111156132c3576132c2615391565b5b14156132ce5761346e565b600160048111156132e2576132e1615391565b5b8160048111156132f5576132f4615391565b5b1415613336576040517f08c379a000000000000000000000000000000000000000000000000000000000815260040161332d9061667b565b60405180910390fd5b6002600481111561334a57613349615391565b5b81600481111561335d5761335c615391565b5b141561339e576040517f08c379a0000000000000000000000000000000000000000000000000000000008152600401613395906166e7565b60405180910390fd5b600360048111156133b2576133b1615391565b5b8160048111156133c5576133c4615391565b5b1415613406576040517f08c379a00000000000000000000000000000000000000000000000000000000081526004016133fd90616779565b60405180910390fd5b60048081111561341957613418615391565b5b81600481111561342c5761342b615391565b5b141561346d576040517f08c379a00000000000000000000000000000000000000000000000000000000081526004016134649061680b565b60405180910390fd5b5b50565b600060026000868152602001908152602001600020905060008160080160008673ffffffffffffffffffffffffffffffffffffffff1673ffffffffffffffffffffffffffffffffffffffff16815260200190815260200160002090508060000160009054906101000a900460ff161561351f576040517f08c379a00000000000000000000000000000000000000000000000000000000081526004016135169061689d565b60405180910390fd5b60018160000160006101000a81548160ff021916908315150217905550838160000160016101000a81548160ff021916908360ff16021790555061356283613f62565b8160000160026101000a8154816bffffffffffffffffffffffff02191690836bffffffffffffffffffffffff160217905550600060028111156135a8576135a7615391565b5b60ff168460ff1614156135d557828260060160008282546135c99190615ef0565b92505081905550613693565b600160028111156135e9576135e8615391565b5b60ff168460ff161415613616578282600501600082825461360a9190615ef0565b92505081905550613692565b60028081111561362957613628615391565b5b60ff168460ff161415613656578282600701600082825461364a9190615ef0565b92505081905550613691565b6040517f08c379a00000000000000000000000000000000000000000000000000000000081526004016136889061692f565b60405180910390fd5b5b5b505050505050565b6000806001600084815260200190815260200160002090508060020160009054906101000a900460ff16156136d45760079150506137ab565b8060020160019054906101000a900460ff16156136f55760029150506137ab565b600061370084610c40565b90506000811415613746576040517f08c379a000000000000000000000000000000000000000000000000000000000815260040161373d9061699b565b60405180910390fd5b438110613758576000925050506137ab565b6000613763856116d2565b905043811061377857600193505050506137ab565b61378185613fbd565b8015613792575061379185613ff5565b5b156137a357600493505050506137ab565b600393505050505b919050565b6000806137bf86868686614020565b905060006137cc8261162d565b905060008111156138f55760005b87518110156138d557600660009054906101000a900473ffffffffffffffffffffffffffffffffffffffff1673ffffffffffffffffffffffffffffffffffffffff1663591fcdfe89838151811061383457613833615f46565b5b602002602001015189848151811061384f5761384e615f46565b5b602002602001015189858151811061386a57613869615f46565b5b6020026020010151866040518563ffffffff1660e01b81526004016138929493929190615fe5565b600060405180830381600087803b1580156138ac57600080fd5b505af11580156138c0573d6000803e3d6000fd5b50505050806138ce90616197565b90506137da565b506138f460076000848152602001908152602001600020600001614179565b5b8192505050949350505050565b600061390c61163f565b6139223360014361391d9190615c4a565b611d31565b1015613963576040517f08c379a000000000000000000000000000000000000000000000000000000000815260040161395a90616a53565b60405180910390fd5b60006139788686868680519060200120611812565b905084518651146139be576040517f08c379a00000000000000000000000000000000000000000000000000000000081526004016139b590616ae5565b60405180910390fd5b8351865114613a02576040517f08c379a00000000000000000000000000000000000000000000000000000000081526004016139f990616ae5565b60405180910390fd5b6000865111613a46576040517f08c379a0000000000000000000000000000000000000000000000000000000008152600401613a3d90616b51565b60405180910390fd5b6000600160008381526020019081526020016000209050613aa6816000016040518060200160405290816000820160009054906101000a900467ffffffffffffffff1667ffffffffffffffff1667ffffffffffffffff16815250506141a8565b613ae5576040517f08c379a0000000000000000000000000000000000000000000000000000000008152600401613adc90616be3565b60405180910390fd5b6000613af7613af2610f6b565b612fa8565b613b0043612fa8565b613b0a9190616c17565b90506000613b1e613b19610b58565b612fa8565b82613b299190616c17565b9050613b4182846000016141c290919063ffffffff16565b613b5781846001016141c290919063ffffffff16565b7f7d84a6263ae0d98d3329bd7b46bb4e8d6f98cd35a7adb45c274c8b7fd5ebd5e084613b81612944565b8b8b8d5167ffffffffffffffff811115613b9e57613b9d614a24565b5b604051908082528060200260200182016040528015613bd157816020015b6060815260200190600190039081613bbc5790505b508c88888e604051613beb99989796959493929190616c86565b60405180910390a183945050505050949350505050565b600081600001519050919050565b606082471015613c55576040517f08c379a0000000000000000000000000000000000000000000000000000000008152600401613c4c90616da8565b60405180910390fd5b613c5e856141f1565b613c9d576040517f08c379a0000000000000000000000000000000000000000000000000000000008152600401613c9490616e14565b60405180910390fd5b6000808673ffffffffffffffffffffffffffffffffffffffff168587604051613cc69190616e34565b60006040518083038185875af1925050503d8060008114613d03576040519150601f19603f3d011682016040523d82523d6000602084013e613d08565b606091505b5091509150613d18828286614214565b92505050949350505050565b60007f01ffc9a7000000000000000000000000000000000000000000000000000000007bffffffffffffffffffffffffffffffffffffffffffffffffffffffff1916827bffffffffffffffffffffffffffffffffffffffffffffffffffffffff1916149050919050565b6000613d998661162d565b905060008111613dde576040517f08c379a0000000000000000000000000000000000000000000000000000000008152600401613dd590616ebd565b60405180910390fd5b613e0a600660009054906101000a900473ffffffffffffffffffffffffffffffffffffffff163461427b565b60005b8551811015613f1f57600660009054906101000a900473ffffffffffffffffffffffffffffffffffffffff1673ffffffffffffffffffffffffffffffffffffffff16630825f38f878381518110613e6757613e66615f46565b5b6020026020010151878481518110613e8257613e81615f46565b5b6020026020010151878581518110613e9d57613e9c615f46565b5b6020026020010151866040518563ffffffff1660e01b8152600401613ec59493929190615fe5565b6000604051808303816000875af1158015613ee4573d6000803e3d6000fd5b505050506040513d6000823e3d601f19601f82011682018060405250810190613f0d9190616f4d565b5080613f1890616197565b9050613e0d565b50505050505050565b60008383834630604051602001613f43959493929190616f96565b6040516020818303038152906040528051906020012090509392505050565b60006bffffffffffffffffffffffff8016821115613fb5576040517f08c379a0000000000000000000000000000000000000000000000000000000008152600401613fac9061705b565b60405180910390fd5b819050919050565b6000806002600084815260200190815260200160002090508060050154613feb613fe685610c40565b611dcd565b1115915050919050565b6000806002600084815260200190815260200160002090508060060154816005015411915050919050565b60008061402f86868686611812565b9050600061403c82610fff565b90506002600781111561405257614051615391565b5b81600781111561406557614064615391565b5b1415801561409857506006600781111561408257614081615391565b5b81600781111561409557614094615391565b5b14155b80156140c857506007808111156140b2576140b1615391565b5b8160078111156140c5576140c4615391565b5b14155b614107576040517f08c379a00000000000000000000000000000000000000000000000000000000081526004016140fe906170c7565b60405180910390fd5b600180600084815260200190815260200160002060020160016101000a81548160ff0219169083151502179055507f789cf55be980739dad1d0699b93b58e806b51c9d96619bfa8fe0a28abaa7b30c826040516141649190614949565b60405180910390a18192505050949350505050565b60008160000160006101000a81548167ffffffffffffffff021916908367ffffffffffffffff16021790555050565b600080826000015167ffffffffffffffff16149050919050565b808260000160006101000a81548167ffffffffffffffff021916908367ffffffffffffffff1602179055505050565b6000808273ffffffffffffffffffffffffffffffffffffffff163b119050919050565b6060831561422457829050614274565b6000835111156142375782518084602001fd5b816040517f08c379a000000000000000000000000000000000000000000000000000000000815260040161426b91906149fd565b60405180910390fd5b9392505050565b804710156142be576040517f08c379a00000000000000000000000000000000000000000000000000000000081526004016142b590617133565b60405180910390fd5b60008273ffffffffffffffffffffffffffffffffffffffff16826040516142e490617176565b60006040518083038185875af1925050503d8060008114614321576040519150601f19603f3d011682016040523d82523d6000602084013e614326565b606091505b505090508061436a576040517f08c379a0000000000000000000000000000000000000000000000000000000008152600401614361906171fd565b60405180910390fd5b505050565b6040518060600160405280600015158152602001600060ff16815260200160006bffffffffffffffffffffffff1681525090565b82805482825590600052602060002090810192821561441c579160200282015b8281111561441b5782518260006101000a81548173ffffffffffffffffffffffffffffffffffffffff021916908373ffffffffffffffffffffffffffffffffffffffff160217905550916020019190600101906143c3565b5b509050614429919061453a565b5090565b828054828255906000526020600020908101928215614469579160200282015b8281111561446857825182559160200191906001019061444d565b5b509050614476919061453a565b5090565b8280548282559060005260206000209081019282156144c9579160200282015b828111156144c85782518290805190602001906144b8929190614557565b509160200191906001019061449a565b5b5090506144d691906145dd565b5090565b828054828255906000526020600020908101928215614529579160200282015b82811115614528578251829080519060200190614518929190614601565b50916020019190600101906144fa565b5b5090506145369190614687565b5090565b5b8082111561455357600081600090555060010161453b565b5090565b82805461456390615be9565b90600052602060002090601f01602090048101928261458557600085556145cc565b82601f1061459e57805160ff19168380011785556145cc565b828001600101855582156145cc579182015b828111156145cb5782518255916020019190600101906145b0565b5b5090506145d9919061453a565b5090565b5b808211156145fd57600081816145f491906146ab565b506001016145de565b5090565b82805461460d90615be9565b90600052602060002090601f01602090048101928261462f5760008555614676565b82601f1061464857805160ff1916838001178555614676565b82800160010185558215614676579182015b8281111561467557825182559160200191906001019061465a565b5b509050614683919061453a565b5090565b5b808211156146a7576000818161469e91906146eb565b50600101614688565b5090565b5080546146b790615be9565b6000825580601f106146c957506146e8565b601f0160209004906000526020600020908101906146e7919061453a565b5b50565b5080546146f790615be9565b6000825580601f106147095750614728565b601f016020900490600052602060002090810190614727919061453a565b5b50565b6000604051905090565b600080fd5b600080fd5b6000819050919050565b6147528161473f565b811461475d57600080fd5b50565b60008135905061476f81614749565b92915050565b60006020828403121561478b5761478a614735565b5b600061479984828501614760565b91505092915050565b6147ab8161473f565b82525050565b600073ffffffffffffffffffffffffffffffffffffffff82169050919050565b60006147dc826147b1565b9050919050565b6147ec816147d1565b82525050565b60008115159050919050565b614807816147f2565b82525050565b600061014082019050614823600083018d6147a2565b614830602083018c6147e3565b61483d604083018b6147a2565b61484a606083018a6147a2565b61485760808301896147a2565b61486460a08301886147a2565b61487160c08301876147a2565b61487e60e08301866147a2565b61488c6101008301856147fe565b61489a6101208301846147fe565b9b9a5050505050505050505050565b60007fffffffff0000000000000000000000000000000000000000000000000000000082169050919050565b6148de816148a9565b81146148e957600080fd5b50565b6000813590506148fb816148d5565b92915050565b60006020828403121561491757614916614735565b5b6000614925848285016148ec565b91505092915050565b600060208201905061494360008301846147fe565b92915050565b600060208201905061495e60008301846147a2565b92915050565b600081519050919050565b600082825260208201905092915050565b60005b8381101561499e578082015181840152602081019050614983565b838111156149ad576000848401525b50505050565b6000601f19601f8301169050919050565b60006149cf82614964565b6149d9818561496f565b93506149e9818560208601614980565b6149f2816149b3565b840191505092915050565b60006020820190508181036000830152614a1781846149c4565b905092915050565b600080fd5b7f4e487b7100000000000000000000000000000000000000000000000000000000600052604160045260246000fd5b614a5c826149b3565b810181811067ffffffffffffffff82111715614a7b57614a7a614a24565b5b80604052505050565b6000614a8e61472b565b9050614a9a8282614a53565b919050565b600067ffffffffffffffff821115614aba57614ab9614a24565b5b602082029050602081019050919050565b600080fd5b614ad9816147d1565b8114614ae457600080fd5b50565b600081359050614af681614ad0565b92915050565b6000614b0f614b0a84614a9f565b614a84565b90508083825260208201905060208402830185811115614b3257614b31614acb565b5b835b81811015614b5b5780614b478882614ae7565b845260208401935050602081019050614b34565b5050509392505050565b600082601f830112614b7a57614b79614a1f565b5b8135614b8a848260208601614afc565b91505092915050565b600067ffffffffffffffff821115614bae57614bad614a24565b5b602082029050602081019050919050565b6000614bd2614bcd84614b93565b614a84565b90508083825260208201905060208402830185811115614bf557614bf4614acb565b5b835b81811015614c1e5780614c0a8882614760565b845260208401935050602081019050614bf7565b5050509392505050565b600082601f830112614c3d57614c3c614a1f565b5b8135614c4d848260208601614bbf565b91505092915050565b600067ffffffffffffffff821115614c7157614c70614a24565b5b602082029050602081019050919050565b600080fd5b600067ffffffffffffffff821115614ca257614ca1614a24565b5b614cab826149b3565b9050602081019050919050565b82818337600083830152505050565b6000614cda614cd584614c87565b614a84565b905082815260208101848484011115614cf657614cf5614c82565b5b614d01848285614cb8565b509392505050565b600082601f830112614d1e57614d1d614a1f565b5b8135614d2e848260208601614cc7565b91505092915050565b6000614d4a614d4584614c56565b614a84565b90508083825260208201905060208402830185811115614d6d57614d6c614acb565b5b835b81811015614db457803567ffffffffffffffff811115614d9257614d91614a1f565b5b808601614d9f8982614d09565b85526020850194505050602081019050614d6f565b5050509392505050565b600082601f830112614dd357614dd2614a1f565b5b8135614de3848260208601614d37565b91505092915050565b6000819050919050565b614dff81614dec565b8114614e0a57600080fd5b50565b600081359050614e1c81614df6565b92915050565b60008060008060808587031215614e3c57614e3b614735565b5b600085013567ffffffffffffffff811115614e5a57614e5961473a565b5b614e6687828801614b65565b945050602085013567ffffffffffffffff811115614e8757614e8661473a565b5b614e9387828801614c28565b935050604085013567ffffffffffffffff811115614eb457614eb361473a565b5b614ec087828801614dbe565b9250506060614ed187828801614e0d565b91505092959194509250565b600081519050919050565b600082825260208201905092915050565b6000819050602082019050919050565b614f12816147d1565b82525050565b6000614f248383614f09565b60208301905092915050565b6000602082019050919050565b6000614f4882614edd565b614f528185614ee8565b9350614f5d83614ef9565b8060005b83811015614f8e578151614f758882614f18565b9750614f8083614f30565b925050600181019050614f61565b5085935050505092915050565b600081519050919050565b600082825260208201905092915050565b6000819050602082019050919050565b614fd08161473f565b82525050565b6000614fe28383614fc7565b60208301905092915050565b6000602082019050919050565b600061500682614f9b565b6150108185614fa6565b935061501b83614fb7565b8060005b8381101561504c5781516150338882614fd6565b975061503e83614fee565b92505060018101905061501f565b5085935050505092915050565b600081519050919050565b600082825260208201905092915050565b6000819050602082019050919050565b600082825260208201905092915050565b60006150a182614964565b6150ab8185615085565b93506150bb818560208601614980565b6150c4816149b3565b840191505092915050565b60006150db8383615096565b905092915050565b6000602082019050919050565b60006150fb82615059565b6151058185615064565b93508360208202850161511785615075565b8060005b85811015615153578484038952815161513485826150cf565b945061513f836150e3565b925060208a0199505060018101905061511b565b50829750879550505050505092915050565b600081519050919050565b600082825260208201905092915050565b6000819050602082019050919050565b600081519050919050565b600082825260208201905092915050565b60006151b882615191565b6151c2818561519c565b93506151d2818560208601614980565b6151db816149b3565b840191505092915050565b60006151f283836151ad565b905092915050565b6000602082019050919050565b600061521282615165565b61521c8185615170565b93508360208202850161522e85615181565b8060005b8581101561526a578484038952815161524b85826151e6565b9450615256836151fa565b925060208a01995050600181019050615232565b50829750879550505050505092915050565b600060808201905081810360008301526152968187614f3d565b905081810360208301526152aa8186614ffb565b905081810360408301526152be81856150f0565b905081810360608301526152d28184615207565b905095945050505050565b600060ff82169050919050565b6152f3816152dd565b81146152fe57600080fd5b50565b600081359050615310816152ea565b92915050565b600080600080600060a0868803121561533257615331614735565b5b600061534088828901614760565b955050602061535188828901615301565b945050604061536288828901615301565b935050606061537388828901614e0d565b925050608061538488828901614e0d565b9150509295509295909350565b7f4e487b7100000000000000000000000000000000000000000000000000000000600052602160045260246000fd5b600881106153d1576153d0615391565b5b50565b60008190506153e2826153c0565b919050565b60006153f2826153d4565b9050919050565b615402816153e7565b82525050565b600060208201905061541d60008301846153f9565b92915050565b6000806040838503121561543a57615439614735565b5b600061544885828601614760565b925050602061545985828601614ae7565b9150509250929050565b6000806040838503121561547a57615479614735565b5b600061548885828601614760565b925050602061549985828601615301565b9150509250929050565b600080fd5b60008083601f8401126154be576154bd614a1f565b5b8235905067ffffffffffffffff8111156154db576154da6154a3565b5b6020830191508360018202830111156154f7576154f6614acb565b5b9250929050565b6000806000806060858703121561551857615517614735565b5b600061552687828801614760565b945050602061553787828801615301565b935050604085013567ffffffffffffffff8111156155585761555761473a565b5b615564878288016154a8565b925092505092959194509250565b600067ffffffffffffffff82111561558d5761558c614a24565b5b615596826149b3565b9050602081019050919050565b60006155b66155b184615572565b614a84565b9050828152602081018484840111156155d2576155d1614c82565b5b6155dd848285614cb8565b509392505050565b600082601f8301126155fa576155f9614a1f565b5b813561560a8482602086016155a3565b91505092915050565b6000806000806080858703121561562d5761562c614735565b5b600085013567ffffffffffffffff81111561564b5761564a61473a565b5b61565787828801614b65565b945050602085013567ffffffffffffffff8111156156785761567761473a565b5b61568487828801614c28565b935050604085013567ffffffffffffffff8111156156a5576156a461473a565b5b6156b187828801614dbe565b925050606085013567ffffffffffffffff8111156156d2576156d161473a565b5b6156de878288016155e5565b91505092959194509250565b60006156f5826147b1565b9050919050565b6000615707826156ea565b9050919050565b615717816156fc565b811461572257600080fd5b50565b6000813590506157348161570e565b92915050565b6000602082840312156157505761574f614735565b5b600061575e84828501615725565b91505092915050565b60008083601f84011261577d5761577c614a1f565b5b8235905067ffffffffffffffff81111561579a576157996154a3565b5b6020830191508360018202830111156157b6576157b5614acb565b5b9250929050565b600080600080606085870312156157d7576157d6614735565b5b60006157e587828801614ae7565b94505060206157f687828801614760565b935050604085013567ffffffffffffffff8111156158175761581661473a565b5b61582387828801615767565b925092505092959194509250565b600060208201905061584660008301846147e3565b92915050565b600067ffffffffffffffff82111561586757615866614a24565b5b602082029050602081019050919050565b600061588b6158868461584c565b614a84565b905080838252602082019050602084028301858111156158ae576158ad614acb565b5b835b818110156158f557803567ffffffffffffffff8111156158d3576158d2614a1f565b5b8086016158e089826155e5565b855260208501945050506020810190506158b0565b5050509392505050565b600082601f83011261591457615913614a1f565b5b8135615924848260208601615878565b91505092915050565b600080600080600060a0868803121561594957615948614735565b5b600086013567ffffffffffffffff8111156159675761596661473a565b5b61597388828901614b65565b955050602086013567ffffffffffffffff8111156159945761599361473a565b5b6159a088828901614c28565b945050604086013567ffffffffffffffff8111156159c1576159c061473a565b5b6159cd888289016158ff565b935050606086013567ffffffffffffffff8111156159ee576159ed61473a565b5b6159fa88828901614dbe565b925050608086013567ffffffffffffffff811115615a1b57615a1a61473a565b5b615a27888289016155e5565b9150509295509295909350565b615a3d81614dec565b82525050565b6000602082019050615a586000830184615a34565b92915050565b615a67816147f2565b82525050565b615a76816152dd565b82525050565b60006bffffffffffffffffffffffff82169050919050565b615a9d81615a7c565b82525050565b606082016000820151615ab96000850182615a5e565b506020820151615acc6020850182615a6d565b506040820151615adf6040850182615a94565b50505050565b6000606082019050615afa6000830184615aa3565b92915050565b60008060408385031215615b1757615b16614735565b5b6000615b2585828601614ae7565b9250506020615b3685828601614760565b9150509250929050565b6000819050919050565b6000615b65615b60615b5b846147b1565b615b40565b6147b1565b9050919050565b6000615b7782615b4a565b9050919050565b6000615b8982615b6c565b9050919050565b615b9981615b7e565b82525050565b6000602082019050615bb46000830184615b90565b92915050565b7f4e487b7100000000000000000000000000000000000000000000000000000000600052602260045260246000fd5b60006002820490506001821680615c0157607f821691505b60208210811415615c1557615c14615bba565b5b50919050565b7f4e487b7100000000000000000000000000000000000000000000000000000000600052601160045260246000fd5b6000615c558261473f565b9150615c608361473f565b925082821015615c7357615c72615c1b565b5b828203905092915050565b615c87816152dd565b82525050565b6000606082019050615ca26000830186615a34565b615caf60208301856147a2565b615cbc6040830184615c7e565b949350505050565b7f476f7665726e6f72427261766f3a2070726f706f7365722061626f766520746860008201527f726573686f6c6400000000000000000000000000000000000000000000000000602082015250565b6000615d2060278361496f565b9150615d2b82615cc4565b604082019050919050565b60006020820190508181036000830152615d4f81615d13565b9050919050565b7f476f7665726e6f723a206f6e6c79476f7665726e616e63650000000000000000600082015250565b6000615d8c60188361496f565b9150615d9782615d56565b602082019050919050565b60006020820190508181036000830152615dbb81615d7f565b9050919050565b60006080820190508181036000830152615ddc8187614f3d565b90508181036020830152615df08186614ffb565b90508181036040830152615e048185615207565b9050615e136060830184615a34565b95945050505050565b7f476f7665726e6f723a2070726f706f73616c206e6f742073756363657373667560008201527f6c00000000000000000000000000000000000000000000000000000000000000602082015250565b6000615e7860218361496f565b9150615e8382615e1c565b604082019050919050565b60006020820190508181036000830152615ea781615e6b565b9050919050565b600081519050615ebd81614749565b92915050565b600060208284031215615ed957615ed8614735565b5b6000615ee784828501615eae565b91505092915050565b6000615efb8261473f565b9150615f068361473f565b9250827fffffffffffffffffffffffffffffffffffffffffffffffffffffffffffffffff03821115615f3b57615f3a615c1b565b5b828201905092915050565b7f4e487b7100000000000000000000000000000000000000000000000000000000600052603260045260246000fd5b50565b6000615f8560008361496f565b9150615f9082615f75565b600082019050919050565b600082825260208201905092915050565b6000615fb782615191565b615fc18185615f9b565b9350615fd1818560208601614980565b615fda816149b3565b840191505092915050565b600060a082019050615ffa60008301876147e3565b61600760208301866147a2565b818103604083015261601881615f78565b9050818103606083015261602c8185615fac565b905061603b60808301846147a2565b95945050505050565b61604d816147f2565b811461605857600080fd5b50565b60008151905061606a81616044565b92915050565b60006020828403121561608657616085614735565b5b60006160948482850161605b565b91505092915050565b7f476f7665726e6f7254696d656c6f636b436f6d706f756e643a206964656e746960008201527f63616c2070726f706f73616c20616374696f6e20616c7265616479207175657560208201527f6564000000000000000000000000000000000000000000000000000000000000604082015250565b600061611f60428361496f565b915061612a8261609d565b606082019050919050565b6000602082019050818103600083015261614e81616112565b9050919050565b60008151905061616481614df6565b92915050565b6000602082840312156161805761617f614735565b5b600061618e84828501616155565b91505092915050565b60006161a28261473f565b91507fffffffffffffffffffffffffffffffffffffffffffffffffffffffffffffffff8214156161d5576161d4615c1b565b5b600182019050919050565b60006040820190506161f560008301856147a2565b61620260208301846147a2565b9392505050565b7f476f7665726e6f723a20766f7465206e6f742063757272656e746c792061637460008201527f6976650000000000000000000000000000000000000000000000000000000000602082015250565b600061626560238361496f565b915061627082616209565b604082019050919050565b6000602082019050818103600083015261629481616258565b9050919050565b60006080820190506162b060008301876147a2565b6162bd6020830186615c7e565b6162ca60408301856147a2565b81810360608301526162dc81846149c4565b905095945050505050565b6000819050919050565b6163026162fd826148a9565b6162e7565b82525050565b600081905092915050565b600061631e82615191565b6163288185616308565b9350616338818560208601614980565b80840191505092915050565b600061635082856162f1565b6004820191506163608284616313565b91508190509392505050565b600060408201905061638160008301856147e3565b61638e60208301846147e3565b9392505050565b7f476f7665726e6f7253657474696e67733a20766f74696e6720706572696f642060008201527f746f6f206c6f7700000000000000000000000000000000000000000000000000602082015250565b60006163f160278361496f565b91506163fc82616395565b604082019050919050565b60006020820190508181036000830152616420816163e4565b9050919050565b600060408201905061643c60008301856147e3565b61644960208301846147a2565b9392505050565b61645981615a7c565b811461646457600080fd5b50565b60008151905061647681616450565b92915050565b60006020828403121561649257616491614735565b5b60006164a084828501616467565b91505092915050565b7f53616665436173743a2076616c756520646f65736e27742066697420696e203660008201527f3420626974730000000000000000000000000000000000000000000000000000602082015250565b600061650560268361496f565b9150616510826164a9565b604082019050919050565b60006020820190508181036000830152616534816164f8565b9050919050565b600081905092915050565b7f1901000000000000000000000000000000000000000000000000000000000000600082015250565b600061657c60028361653b565b915061658782616546565b600282019050919050565b6000819050919050565b6165ad6165a882614dec565b616592565b82525050565b60006165be8261656f565b91506165ca828561659c565b6020820191506165da828461659c565b6020820191508190509392505050565b60006080820190506165ff6000830187615a34565b61660c6020830186615c7e565b6166196040830185615a34565b6166266060830184615a34565b95945050505050565b7f45434453413a20696e76616c6964207369676e61747572650000000000000000600082015250565b600061666560188361496f565b91506166708261662f565b602082019050919050565b6000602082019050818103600083015261669481616658565b9050919050565b7f45434453413a20696e76616c6964207369676e6174757265206c656e67746800600082015250565b60006166d1601f8361496f565b91506166dc8261669b565b602082019050919050565b60006020820190508181036000830152616700816166c4565b9050919050565b7f45434453413a20696e76616c6964207369676e6174757265202773272076616c60008201527f7565000000000000000000000000000000000000000000000000000000000000602082015250565b600061676360228361496f565b915061676e82616707565b604082019050919050565b6000602082019050818103600083015261679281616756565b9050919050565b7f45434453413a20696e76616c6964207369676e6174757265202776272076616c60008201527f7565000000000000000000000000000000000000000000000000000000000000602082015250565b60006167f560228361496f565b915061680082616799565b604082019050919050565b60006020820190508181036000830152616824816167e8565b9050919050565b7f476f7665726e6f72436f6d7061746962696c697479427261766f3a20766f746560008201527f20616c7265616479206361737400000000000000000000000000000000000000602082015250565b6000616887602d8361496f565b91506168928261682b565b604082019050919050565b600060208201905081810360008301526168b68161687a565b9050919050565b7f476f7665726e6f72436f6d7061746962696c697479427261766f3a20696e766160008201527f6c696420766f7465207479706500000000000000000000000000000000000000602082015250565b6000616919602d8361496f565b9150616924826168bd565b604082019050919050565b600060208201905081810360008301526169488161690c565b9050919050565b7f476f7665726e6f723a20756e6b6e6f776e2070726f706f73616c206964000000600082015250565b6000616985601d8361496f565b91506169908261694f565b602082019050919050565b600060208201905081810360008301526169b481616978565b9050919050565b7f476f7665726e6f72436f6d7061746962696c697479427261766f3a2070726f7060008201527f6f73657220766f7465732062656c6f772070726f706f73616c2074687265736860208201527f6f6c640000000000000000000000000000000000000000000000000000000000604082015250565b6000616a3d60438361496f565b9150616a48826169bb565b606082019050919050565b60006020820190508181036000830152616a6c81616a30565b9050919050565b7f476f7665726e6f723a20696e76616c69642070726f706f73616c206c656e677460008201527f6800000000000000000000000000000000000000000000000000000000000000602082015250565b6000616acf60218361496f565b9150616ada82616a73565b604082019050919050565b60006020820190508181036000830152616afe81616ac2565b9050919050565b7f476f7665726e6f723a20656d7074792070726f706f73616c0000000000000000600082015250565b6000616b3b60188361496f565b9150616b4682616b05565b602082019050919050565b60006020820190508181036000830152616b6a81616b2e565b9050919050565b7f476f7665726e6f723a2070726f706f73616c20616c726561647920657869737460008201527f7300000000000000000000000000000000000000000000000000000000000000602082015250565b6000616bcd60218361496f565b9150616bd882616b71565b604082019050919050565b60006020820190508181036000830152616bfc81616bc0565b9050919050565b600067ffffffffffffffff82169050919050565b6000616c2282616c03565b9150616c2d83616c03565b92508267ffffffffffffffff03821115616c4a57616c49615c1b565b5b828201905092915050565b6000616c70616c6b616c6684616c03565b615b40565b61473f565b9050919050565b616c8081616c55565b82525050565b600061012082019050616c9c600083018c6147a2565b616ca9602083018b6147e3565b8181036040830152616cbb818a614f3d565b90508181036060830152616ccf8189614ffb565b90508181036080830152616ce381886150f0565b905081810360a0830152616cf78187615207565b9050616d0660c0830186616c77565b616d1360e0830185616c77565b818103610100830152616d2681846149c4565b90509a9950505050505050505050565b7f416464726573733a20696e73756666696369656e742062616c616e636520666f60008201527f722063616c6c0000000000000000000000000000000000000000000000000000602082015250565b6000616d9260268361496f565b9150616d9d82616d36565b604082019050919050565b60006020820190508181036000830152616dc181616d85565b9050919050565b7f416464726573733a2063616c6c20746f206e6f6e2d636f6e7472616374000000600082015250565b6000616dfe601d8361496f565b9150616e0982616dc8565b602082019050919050565b60006020820190508181036000830152616e2d81616df1565b9050919050565b6000616e408284616313565b915081905092915050565b7f476f7665726e6f7254696d656c6f636b436f6d706f756e643a2070726f706f7360008201527f616c206e6f742079657420717565756564000000000000000000000000000000602082015250565b6000616ea760318361496f565b9150616eb282616e4b565b604082019050919050565b60006020820190508181036000830152616ed681616e9a565b9050919050565b6000616ef0616eeb84614c87565b614a84565b905082815260208101848484011115616f0c57616f0b614c82565b5b616f17848285614980565b509392505050565b600082601f830112616f3457616f33614a1f565b5b8151616f44848260208601616edd565b91505092915050565b600060208284031215616f6357616f62614735565b5b600082015167ffffffffffffffff811115616f8157616f8061473a565b5b616f8d84828501616f1f565b91505092915050565b600060a082019050616fab6000830188615a34565b616fb86020830187615a34565b616fc56040830186615a34565b616fd260608301856147a2565b616fdf60808301846147e3565b9695505050505050565b7f53616665436173743a2076616c756520646f65736e27742066697420696e203960008201527f3620626974730000000000000000000000000000000000000000000000000000602082015250565b600061704560268361496f565b915061705082616fe9565b604082019050919050565b6000602082019050818103600083015261707481617038565b9050919050565b7f476f7665726e6f723a2070726f706f73616c206e6f7420616374697665000000600082015250565b60006170b1601d8361496f565b91506170bc8261707b565b602082019050919050565b600060208201905081810360008301526170e0816170a4565b9050919050565b7f416464726573733a20696e73756666696369656e742062616c616e6365000000600082015250565b600061711d601d8361496f565b9150617128826170e7565b602082019050919050565b6000602082019050818103600083015261714c81617110565b9050919050565b6000617160600083616308565b915061716b82615f75565b600082019050919050565b600061718182617153565b9150819050919050565b7f416464726573733a20756e61626c6520746f2073656e642076616c75652c207260008201527f6563697069656e74206d61792068617665207265766572746564000000000000602082015250565b60006171e7603a8361496f565b91506171f28261718b565b604082019050919050565b60006020820190508181036000830152617216816171da565b905091905056fe416464726573733a206c6f772d6c6576656c2063616c6c20776974682076616c7565206661696c6564a2646970667358221220d0a7f8d5249fc01012f8dca2f46c81595233df3983a11df2f6b77fc2501cde2864736f6c634300080b0033",
  "immutableReferences": {
    "9116": [
      {
        "length": 32,
        "start": 7638
      },
      {
        "length": 32,
        "start": 11833
      }
    ],
    "31235": [
      {
        "length": 32,
        "start": 12485
      }
    ],
    "31237": [
      {
        "length": 32,
        "start": 12444
      }
    ],
    "31239": [
      {
        "length": 32,
        "start": 12358
      }
    ],
    "31241": [
      {
        "length": 32,
        "start": 12561
      }
    ],
    "31243": [
      {
        "length": 32,
        "start": 12594
      }
    ],
    "31245": [
      {
        "length": 32,
        "start": 12528
      }
    ]
  },
  "source": "// SPDX-License-Identifier: MIT\n\npragma solidity ^0.8.0;\n\nimport \"../governance/compatibility/GovernorCompatibilityBravo.sol\";\nimport \"../governance/extensions/GovernorTimelockCompound.sol\";\nimport \"../governance/extensions/GovernorSettings.sol\";\nimport \"../governance/extensions/GovernorVotesComp.sol\";\n\ncontract GovernorCompatibilityBravoMock is\n    GovernorCompatibilityBravo,\n    GovernorSettings,\n    GovernorTimelockCompound,\n    GovernorVotesComp\n{\n    constructor(\n        string memory name_,\n        ERC20VotesComp token_,\n        uint256 votingDelay_,\n        uint256 votingPeriod_,\n        uint256 proposalThreshold_,\n        ICompoundTimelock timelock_\n    )\n        Governor(name_)\n        GovernorTimelockCompound(timelock_)\n        GovernorSettings(votingDelay_, votingPeriod_, proposalThreshold_)\n        GovernorVotesComp(token_)\n    {}\n\n    function supportsInterface(bytes4 interfaceId)\n        public\n        view\n        virtual\n        override(IERC165, Governor, GovernorTimelockCompound)\n        returns (bool)\n    {\n        return super.supportsInterface(interfaceId);\n    }\n\n    function quorum(uint256) public pure override returns (uint256) {\n        return 0;\n    }\n\n    function state(uint256 proposalId)\n        public\n        view\n        virtual\n        override(IGovernor, Governor, GovernorTimelockCompound)\n        returns (ProposalState)\n    {\n        return super.state(proposalId);\n    }\n\n    function proposalEta(uint256 proposalId)\n        public\n        view\n        virtual\n        override(IGovernorTimelock, GovernorTimelockCompound)\n        returns (uint256)\n    {\n        return super.proposalEta(proposalId);\n    }\n\n    function proposalThreshold() public view override(Governor, GovernorSettings) returns (uint256) {\n        return super.proposalThreshold();\n    }\n\n    function propose(\n        address[] memory targets,\n        uint256[] memory values,\n        bytes[] memory calldatas,\n        string memory description\n    ) public virtual override(IGovernor, Governor, GovernorCompatibilityBravo) returns (uint256) {\n        return super.propose(targets, values, calldatas, description);\n    }\n\n    function queue(\n        address[] memory targets,\n        uint256[] memory values,\n        bytes[] memory calldatas,\n        bytes32 salt\n    ) public virtual override(IGovernorTimelock, GovernorTimelockCompound) returns (uint256) {\n        return super.queue(targets, values, calldatas, salt);\n    }\n\n    function execute(\n        address[] memory targets,\n        uint256[] memory values,\n        bytes[] memory calldatas,\n        bytes32 salt\n    ) public payable virtual override(IGovernor, Governor) returns (uint256) {\n        return super.execute(targets, values, calldatas, salt);\n    }\n\n    function _execute(\n        uint256 proposalId,\n        address[] memory targets,\n        uint256[] memory values,\n        bytes[] memory calldatas,\n        bytes32 descriptionHash\n    ) internal virtual override(Governor, GovernorTimelockCompound) {\n        super._execute(proposalId, targets, values, calldatas, descriptionHash);\n    }\n\n    /**\n     * @notice WARNING: this is for mock purposes only. Ability to the _cancel function should be restricted for live\n     * deployments.\n     */\n    function cancel(\n        address[] memory targets,\n        uint256[] memory values,\n        bytes[] memory calldatas,\n        bytes32 salt\n    ) public returns (uint256 proposalId) {\n        return _cancel(targets, values, calldatas, salt);\n    }\n\n    function _cancel(\n        address[] memory targets,\n        uint256[] memory values,\n        bytes[] memory calldatas,\n        bytes32 salt\n    ) internal virtual override(Governor, GovernorTimelockCompound) returns (uint256 proposalId) {\n        return super._cancel(targets, values, calldatas, salt);\n    }\n\n    function getVotes(address account, uint256 blockNumber)\n        public\n        view\n        virtual\n        override(IGovernor, GovernorVotesComp)\n        returns (uint256)\n    {\n        return super.getVotes(account, blockNumber);\n    }\n\n    function _executor() internal view virtual override(Governor, GovernorTimelockCompound) returns (address) {\n        return super._executor();\n    }\n}\n",
  "sourcePath": "D:\\03.block-chain\\01.miquelTC__nft-marketplace\\test-proj\\nft-marketplace-master\\src\\contracts\\ERC721\\mocks\\GovernorCompatibilityBravoMock.sol",
  "compiler": {
    "name": "solc",
    "version": "0.8.11+commit.d7f03943.Emscripten.clang"
  },
  "schemaVersion": "3.4.4",
  "updatedAt": "2022-02-16T02:59:58.643Z",
  "devdoc": {
    "kind": "dev",
    "methods": {
      "COUNTING_MODE()": {
        "details": "A description of the possible `support` values for {castVote} and the way these votes are counted, meant to be consumed by UIs to show correct vote options and interpret the results. The string is a URL-encoded sequence of key-value pairs that each describe one aspect, for example `support=bravo&quorum=for,abstain`. There are 2 standard keys: `support` and `quorum`. - `support=bravo` refers to the vote options 0 = Against, 1 = For, 2 = Abstain, as in `GovernorBravo`. - `quorum=bravo` means that only For votes are counted towards quorum. - `quorum=for,abstain` means that both For and Abstain votes are counted towards quorum. NOTE: The string can be decoded by the standard https://developer.mozilla.org/en-US/docs/Web/API/URLSearchParams[`URLSearchParams`] JavaScript class."
      },
      "__acceptAdmin()": {
        "details": "Accept admin right over the timelock."
      },
      "cancel(uint256)": {
        "details": "Cancels a proposal only if sender is the proposer, or proposer delegates dropped below proposal threshold."
      },
      "castVote(uint256,uint8)": {
        "details": "See {IGovernor-castVote}."
      },
      "castVoteBySig(uint256,uint8,uint8,bytes32,bytes32)": {
        "details": "See {IGovernor-castVoteBySig}."
      },
      "castVoteWithReason(uint256,uint8,string)": {
        "details": "See {IGovernor-castVoteWithReason}."
      },
      "execute(uint256)": {
        "details": "See {IGovernorCompatibilityBravo-execute}."
      },
      "getActions(uint256)": {
        "details": "See {IGovernorCompatibilityBravo-getActions}."
      },
      "getReceipt(uint256,address)": {
        "details": "See {IGovernorCompatibilityBravo-getReceipt}."
      },
      "hasVoted(uint256,address)": {
        "details": "See {IGovernor-hasVoted}."
      },
      "hashProposal(address[],uint256[],bytes[],bytes32)": {
        "details": "See {IGovernor-hashProposal}. The proposal id is produced by hashing the RLC encoded `targets` array, the `values` array, the `calldatas` array and the descriptionHash (bytes32 which itself is the keccak256 hash of the description string). This proposal id can be produced from the proposal data which is part of the {ProposalCreated} event. It can even be computed in advance, before the proposal is submitted. Note that the chainId and the governor address are not part of the proposal id computation. Consequently, the same proposal (with same operation and same description) will have the same id if submitted on multiple governors accross multiple networks. This also means that in order to execute the same operation twice (on the same governor) the proposer will have to change the description in order to avoid proposal id conflicts."
      },
      "name()": {
        "details": "See {IGovernor-name}."
      },
      "proposalDeadline(uint256)": {
        "details": "See {IGovernor-proposalDeadline}."
      },
      "proposalSnapshot(uint256)": {
        "details": "See {IGovernor-proposalSnapshot}."
      },
      "proposals(uint256)": {
        "details": "See {IGovernorCompatibilityBravo-proposals}."
      },
      "propose(address[],uint256[],string[],bytes[],string)": {
        "details": "See {IGovernorCompatibilityBravo-propose}."
      },
      "queue(uint256)": {
        "details": "See {IGovernorCompatibilityBravo-queue}."
      },
      "quorumVotes()": {
        "details": "See {IGovernorCompatibilityBravo-quorumVotes}."
      },
      "relay(address,uint256,bytes)": {
        "details": "Relays a transaction or function call to an arbitrary target. In cases where the governance executor is some contract other than the governor itself, like when using a timelock, this function can be invoked in a governance proposal to recover tokens or Ether that was sent to the governor contract by mistake. Note that if the executor is simply the governor itself, use of `relay` is redundant."
      },
      "setProposalThreshold(uint256)": {
        "details": "Update the proposal threshold. This operation can only be performed through a governance proposal. Emits a {ProposalThresholdSet} event."
      },
      "setVotingDelay(uint256)": {
        "details": "Update the voting delay. This operation can only be performed through a governance proposal. Emits a {VotingDelaySet} event."
      },
      "setVotingPeriod(uint256)": {
        "details": "Update the voting period. This operation can only be performed through a governance proposal. Emits a {VotingPeriodSet} event."
      },
      "timelock()": {
        "details": "Public accessor to check the address of the timelock"
      },
      "updateTimelock(address)": {
        "details": "Public endpoint to update the underlying timelock instance. Restricted to the timelock itself, so updates must be proposed, scheduled, and executed through governance proposals. For security reasons, the timelock must be handed over to another admin before setting up a new one. The two operations (hand over the timelock) and do the update can be batched in a single proposal. Note that if the timelock admin has been handed over in a previous operation, we refuse updates made through the timelock if admin of the timelock has already been accepted and the operation is executed outside the scope of governance. CAUTION: It is not recommended to change the timelock while there are other queued governance proposals."
      },
      "version()": {
        "details": "See {IGovernor-version}."
      },
      "votingDelay()": {
        "details": "See {IGovernor-votingDelay}."
      },
      "votingPeriod()": {
        "details": "See {IGovernor-votingPeriod}."
      }
    },
    "version": 1
  },
  "userdoc": {
    "kind": "user",
    "methods": {
      "COUNTING_MODE()": {
        "notice": "module:voting"
      },
      "cancel(address[],uint256[],bytes[],bytes32)": {
        "notice": "WARNING: this is for mock purposes only. Ability to the _cancel function should be restricted for live deployments."
      }
    },
    "version": 1
  }
}