{
  "contractName": "MerkleProofWrapper",
  "abi": [
    {
      "inputs": [
        {
          "internalType": "bytes32[]",
          "name": "proof",
          "type": "bytes32[]"
        },
        {
          "internalType": "bytes32",
          "name": "root",
          "type": "bytes32"
        },
        {
          "internalType": "bytes32",
          "name": "leaf",
          "type": "bytes32"
        }
      ],
      "name": "verify",
      "outputs": [
        {
          "internalType": "bool",
          "name": "",
          "type": "bool"
        }
      ],
      "stateMutability": "pure",
      "type": "function"
    },
    {
      "inputs": [
        {
          "internalType": "bytes32[]",
          "name": "proof",
          "type": "bytes32[]"
        },
        {
          "internalType": "bytes32",
          "name": "leaf",
          "type": "bytes32"
        }
      ],
      "name": "processProof",
      "outputs": [
        {
          "internalType": "bytes32",
          "name": "",
          "type": "bytes32"
        }
      ],
      "stateMutability": "pure",
      "type": "function"
    }
  ],
  "bytecode": "0x608060405234801561001057600080fd5b5061051d806100206000396000f3fe608060405234801561001057600080fd5b50600436106100365760003560e01c80635a9a49c71461003b57806362702a6b1461006b575b600080fd5b6100556004803603810190610050919061030b565b61009b565b6040516100629190610395565b60405180910390f35b610085600480360381019061008091906103b0565b6100b1565b604051610092919061041b565b60405180910390f35b60006100a88484846100c5565b90509392505050565b60006100bd83836100dc565b905092915050565b6000826100d285846100dc565b1490509392505050565b60008082905060005b845181101561014657600085828151811061010357610102610436565b5b602002602001015190508083116101255761011e8382610151565b9250610132565b61012f8184610151565b92505b50808061013e9061049e565b9150506100e5565b508091505092915050565b600082600052816020526040600020905092915050565b6000604051905090565b600080fd5b600080fd5b600080fd5b6000601f19601f8301169050919050565b7f4e487b7100000000000000000000000000000000000000000000000000000000600052604160045260246000fd5b6101ca82610181565b810181811067ffffffffffffffff821117156101e9576101e8610192565b5b80604052505050565b60006101fc610168565b905061020882826101c1565b919050565b600067ffffffffffffffff82111561022857610227610192565b5b602082029050602081019050919050565b600080fd5b6000819050919050565b6102518161023e565b811461025c57600080fd5b50565b60008135905061026e81610248565b92915050565b60006102876102828461020d565b6101f2565b905080838252602082019050602084028301858111156102aa576102a9610239565b5b835b818110156102d357806102bf888261025f565b8452602084019350506020810190506102ac565b5050509392505050565b600082601f8301126102f2576102f161017c565b5b8135610302848260208601610274565b91505092915050565b60008060006060848603121561032457610323610172565b5b600084013567ffffffffffffffff81111561034257610341610177565b5b61034e868287016102dd565b935050602061035f8682870161025f565b92505060406103708682870161025f565b9150509250925092565b60008115159050919050565b61038f8161037a565b82525050565b60006020820190506103aa6000830184610386565b92915050565b600080604083850312156103c7576103c6610172565b5b600083013567ffffffffffffffff8111156103e5576103e4610177565b5b6103f1858286016102dd565b92505060206104028582860161025f565b9150509250929050565b6104158161023e565b82525050565b6000602082019050610430600083018461040c565b92915050565b7f4e487b7100000000000000000000000000000000000000000000000000000000600052603260045260246000fd5b7f4e487b7100000000000000000000000000000000000000000000000000000000600052601160045260246000fd5b6000819050919050565b60006104a982610494565b91507fffffffffffffffffffffffffffffffffffffffffffffffffffffffffffffffff8214156104dc576104db610465565b5b60018201905091905056fea264697066735822122013a909cd05d7c80be58559e50a973d4d7bfdaff508f2f112dcdbc9b83290ad5964736f6c634300080b0033",
  "immutableReferences": {},
  "source": "// SPDX-License-Identifier: MIT\n\npragma solidity ^0.8.0;\n\nimport \"../utils/cryptography/MerkleProof.sol\";\n\ncontract MerkleProofWrapper {\n    function verify(\n        bytes32[] memory proof,\n        bytes32 root,\n        bytes32 leaf\n    ) public pure returns (bool) {\n        return MerkleProof.verify(proof, root, leaf);\n    }\n\n    function processProof(bytes32[] memory proof, bytes32 leaf) public pure returns (bytes32) {\n        return MerkleProof.processProof(proof, leaf);\n    }\n}\n",
  "sourcePath": "D:\\03.block-chain\\01.miquelTC__nft-marketplace\\test-proj\\nft-marketplace-master\\src\\contracts\\ERC721\\mocks\\MerkleProofWrapper.sol",
  "compiler": {
    "name": "solc",
    "version": "0.8.11+commit.d7f03943.Emscripten.clang"
  },
  "schemaVersion": "3.4.4",
  "updatedAt": "2022-02-16T02:59:58.788Z",
  "devdoc": {
    "kind": "dev",
    "methods": {},
    "version": 1
  },
  "userdoc": {
    "kind": "user",
    "methods": {},
    "version": 1
  }
}