{
  "contractName": "MyGovernor1",
  "abi": [
    {
      "inputs": [
        {
          "internalType": "contract IVotes",
          "name": "_token",
          "type": "address"
        },
        {
          "internalType": "contract TimelockController",
          "name": "_timelock",
          "type": "address"
        }
      ],
      "stateMutability": "nonpayable",
      "type": "constructor"
    },
    {
      "anonymous": false,
      "inputs": [
        {
          "indexed": false,
          "internalType": "uint256",
          "name": "proposalId",
          "type": "uint256"
        }
      ],
      "name": "ProposalCanceled",
      "type": "event"
    },
    {
      "anonymous": false,
      "inputs": [
        {
          "indexed": false,
          "internalType": "uint256",
          "name": "proposalId",
          "type": "uint256"
        },
        {
          "indexed": false,
          "internalType": "address",
          "name": "proposer",
          "type": "address"
        },
        {
          "indexed": false,
          "internalType": "address[]",
          "name": "targets",
          "type": "address[]"
        },
        {
          "indexed": false,
          "internalType": "uint256[]",
          "name": "values",
          "type": "uint256[]"
        },
        {
          "indexed": false,
          "internalType": "string[]",
          "name": "signatures",
          "type": "string[]"
        },
        {
          "indexed": false,
          "internalType": "bytes[]",
          "name": "calldatas",
          "type": "bytes[]"
        },
        {
          "indexed": false,
          "internalType": "uint256",
          "name": "startBlock",
          "type": "uint256"
        },
        {
          "indexed": false,
          "internalType": "uint256",
          "name": "endBlock",
          "type": "uint256"
        },
        {
          "indexed": false,
          "internalType": "string",
          "name": "description",
          "type": "string"
        }
      ],
      "name": "ProposalCreated",
      "type": "event"
    },
    {
      "anonymous": false,
      "inputs": [
        {
          "indexed": false,
          "internalType": "uint256",
          "name": "proposalId",
          "type": "uint256"
        }
      ],
      "name": "ProposalExecuted",
      "type": "event"
    },
    {
      "anonymous": false,
      "inputs": [
        {
          "indexed": false,
          "internalType": "uint256",
          "name": "proposalId",
          "type": "uint256"
        },
        {
          "indexed": false,
          "internalType": "uint256",
          "name": "eta",
          "type": "uint256"
        }
      ],
      "name": "ProposalQueued",
      "type": "event"
    },
    {
      "anonymous": false,
      "inputs": [
        {
          "indexed": false,
          "internalType": "uint256",
          "name": "oldQuorumNumerator",
          "type": "uint256"
        },
        {
          "indexed": false,
          "internalType": "uint256",
          "name": "newQuorumNumerator",
          "type": "uint256"
        }
      ],
      "name": "QuorumNumeratorUpdated",
      "type": "event"
    },
    {
      "anonymous": false,
      "inputs": [
        {
          "indexed": false,
          "internalType": "address",
          "name": "oldTimelock",
          "type": "address"
        },
        {
          "indexed": false,
          "internalType": "address",
          "name": "newTimelock",
          "type": "address"
        }
      ],
      "name": "TimelockChange",
      "type": "event"
    },
    {
      "anonymous": false,
      "inputs": [
        {
          "indexed": true,
          "internalType": "address",
          "name": "voter",
          "type": "address"
        },
        {
          "indexed": false,
          "internalType": "uint256",
          "name": "proposalId",
          "type": "uint256"
        },
        {
          "indexed": false,
          "internalType": "uint8",
          "name": "support",
          "type": "uint8"
        },
        {
          "indexed": false,
          "internalType": "uint256",
          "name": "weight",
          "type": "uint256"
        },
        {
          "indexed": false,
          "internalType": "string",
          "name": "reason",
          "type": "string"
        }
      ],
      "name": "VoteCast",
      "type": "event"
    },
    {
      "inputs": [],
      "name": "BALLOT_TYPEHASH",
      "outputs": [
        {
          "internalType": "bytes32",
          "name": "",
          "type": "bytes32"
        }
      ],
      "stateMutability": "view",
      "type": "function"
    },
    {
      "inputs": [],
      "name": "COUNTING_MODE",
      "outputs": [
        {
          "internalType": "string",
          "name": "",
          "type": "string"
        }
      ],
      "stateMutability": "pure",
      "type": "function"
    },
    {
      "inputs": [
        {
          "internalType": "uint256",
          "name": "proposalId",
          "type": "uint256"
        },
        {
          "internalType": "uint8",
          "name": "support",
          "type": "uint8"
        }
      ],
      "name": "castVote",
      "outputs": [
        {
          "internalType": "uint256",
          "name": "",
          "type": "uint256"
        }
      ],
      "stateMutability": "nonpayable",
      "type": "function"
    },
    {
      "inputs": [
        {
          "internalType": "uint256",
          "name": "proposalId",
          "type": "uint256"
        },
        {
          "internalType": "uint8",
          "name": "support",
          "type": "uint8"
        },
        {
          "internalType": "uint8",
          "name": "v",
          "type": "uint8"
        },
        {
          "internalType": "bytes32",
          "name": "r",
          "type": "bytes32"
        },
        {
          "internalType": "bytes32",
          "name": "s",
          "type": "bytes32"
        }
      ],
      "name": "castVoteBySig",
      "outputs": [
        {
          "internalType": "uint256",
          "name": "",
          "type": "uint256"
        }
      ],
      "stateMutability": "nonpayable",
      "type": "function"
    },
    {
      "inputs": [
        {
          "internalType": "uint256",
          "name": "proposalId",
          "type": "uint256"
        },
        {
          "internalType": "uint8",
          "name": "support",
          "type": "uint8"
        },
        {
          "internalType": "string",
          "name": "reason",
          "type": "string"
        }
      ],
      "name": "castVoteWithReason",
      "outputs": [
        {
          "internalType": "uint256",
          "name": "",
          "type": "uint256"
        }
      ],
      "stateMutability": "nonpayable",
      "type": "function"
    },
    {
      "inputs": [
        {
          "internalType": "address[]",
          "name": "targets",
          "type": "address[]"
        },
        {
          "internalType": "uint256[]",
          "name": "values",
          "type": "uint256[]"
        },
        {
          "internalType": "bytes[]",
          "name": "calldatas",
          "type": "bytes[]"
        },
        {
          "internalType": "bytes32",
          "name": "descriptionHash",
          "type": "bytes32"
        }
      ],
      "name": "execute",
      "outputs": [
        {
          "internalType": "uint256",
          "name": "",
          "type": "uint256"
        }
      ],
      "stateMutability": "payable",
      "type": "function"
    },
    {
      "inputs": [
        {
          "internalType": "uint256",
          "name": "proposalId",
          "type": "uint256"
        },
        {
          "internalType": "address",
          "name": "account",
          "type": "address"
        }
      ],
      "name": "hasVoted",
      "outputs": [
        {
          "internalType": "bool",
          "name": "",
          "type": "bool"
        }
      ],
      "stateMutability": "view",
      "type": "function"
    },
    {
      "inputs": [
        {
          "internalType": "address[]",
          "name": "targets",
          "type": "address[]"
        },
        {
          "internalType": "uint256[]",
          "name": "values",
          "type": "uint256[]"
        },
        {
          "internalType": "bytes[]",
          "name": "calldatas",
          "type": "bytes[]"
        },
        {
          "internalType": "bytes32",
          "name": "descriptionHash",
          "type": "bytes32"
        }
      ],
      "name": "hashProposal",
      "outputs": [
        {
          "internalType": "uint256",
          "name": "",
          "type": "uint256"
        }
      ],
      "stateMutability": "pure",
      "type": "function"
    },
    {
      "inputs": [],
      "name": "name",
      "outputs": [
        {
          "internalType": "string",
          "name": "",
          "type": "string"
        }
      ],
      "stateMutability": "view",
      "type": "function"
    },
    {
      "inputs": [
        {
          "internalType": "uint256",
          "name": "proposalId",
          "type": "uint256"
        }
      ],
      "name": "proposalDeadline",
      "outputs": [
        {
          "internalType": "uint256",
          "name": "",
          "type": "uint256"
        }
      ],
      "stateMutability": "view",
      "type": "function"
    },
    {
      "inputs": [
        {
          "internalType": "uint256",
          "name": "proposalId",
          "type": "uint256"
        }
      ],
      "name": "proposalEta",
      "outputs": [
        {
          "internalType": "uint256",
          "name": "",
          "type": "uint256"
        }
      ],
      "stateMutability": "view",
      "type": "function"
    },
    {
      "inputs": [
        {
          "internalType": "uint256",
          "name": "proposalId",
          "type": "uint256"
        }
      ],
      "name": "proposalSnapshot",
      "outputs": [
        {
          "internalType": "uint256",
          "name": "",
          "type": "uint256"
        }
      ],
      "stateMutability": "view",
      "type": "function"
    },
    {
      "inputs": [],
      "name": "proposalThreshold",
      "outputs": [
        {
          "internalType": "uint256",
          "name": "",
          "type": "uint256"
        }
      ],
      "stateMutability": "view",
      "type": "function"
    },
    {
      "inputs": [
        {
          "internalType": "uint256",
          "name": "proposalId",
          "type": "uint256"
        }
      ],
      "name": "proposalVotes",
      "outputs": [
        {
          "internalType": "uint256",
          "name": "againstVotes",
          "type": "uint256"
        },
        {
          "internalType": "uint256",
          "name": "forVotes",
          "type": "uint256"
        },
        {
          "internalType": "uint256",
          "name": "abstainVotes",
          "type": "uint256"
        }
      ],
      "stateMutability": "view",
      "type": "function"
    },
    {
      "inputs": [
        {
          "internalType": "address[]",
          "name": "targets",
          "type": "address[]"
        },
        {
          "internalType": "uint256[]",
          "name": "values",
          "type": "uint256[]"
        },
        {
          "internalType": "bytes[]",
          "name": "calldatas",
          "type": "bytes[]"
        },
        {
          "internalType": "bytes32",
          "name": "descriptionHash",
          "type": "bytes32"
        }
      ],
      "name": "queue",
      "outputs": [
        {
          "internalType": "uint256",
          "name": "",
          "type": "uint256"
        }
      ],
      "stateMutability": "nonpayable",
      "type": "function"
    },
    {
      "inputs": [],
      "name": "quorumDenominator",
      "outputs": [
        {
          "internalType": "uint256",
          "name": "",
          "type": "uint256"
        }
      ],
      "stateMutability": "view",
      "type": "function"
    },
    {
      "inputs": [],
      "name": "quorumNumerator",
      "outputs": [
        {
          "internalType": "uint256",
          "name": "",
          "type": "uint256"
        }
      ],
      "stateMutability": "view",
      "type": "function"
    },
    {
      "inputs": [
        {
          "internalType": "address",
          "name": "target",
          "type": "address"
        },
        {
          "internalType": "uint256",
          "name": "value",
          "type": "uint256"
        },
        {
          "internalType": "bytes",
          "name": "data",
          "type": "bytes"
        }
      ],
      "name": "relay",
      "outputs": [],
      "stateMutability": "nonpayable",
      "type": "function"
    },
    {
      "inputs": [],
      "name": "timelock",
      "outputs": [
        {
          "internalType": "address",
          "name": "",
          "type": "address"
        }
      ],
      "stateMutability": "view",
      "type": "function"
    },
    {
      "inputs": [],
      "name": "token",
      "outputs": [
        {
          "internalType": "contract IVotes",
          "name": "",
          "type": "address"
        }
      ],
      "stateMutability": "view",
      "type": "function"
    },
    {
      "inputs": [
        {
          "internalType": "uint256",
          "name": "newQuorumNumerator",
          "type": "uint256"
        }
      ],
      "name": "updateQuorumNumerator",
      "outputs": [],
      "stateMutability": "nonpayable",
      "type": "function"
    },
    {
      "inputs": [
        {
          "internalType": "contract TimelockController",
          "name": "newTimelock",
          "type": "address"
        }
      ],
      "name": "updateTimelock",
      "outputs": [],
      "stateMutability": "nonpayable",
      "type": "function"
    },
    {
      "inputs": [],
      "name": "version",
      "outputs": [
        {
          "internalType": "string",
          "name": "",
          "type": "string"
        }
      ],
      "stateMutability": "view",
      "type": "function"
    },
    {
      "stateMutability": "payable",
      "type": "receive"
    },
    {
      "inputs": [],
      "name": "votingDelay",
      "outputs": [
        {
          "internalType": "uint256",
          "name": "",
          "type": "uint256"
        }
      ],
      "stateMutability": "pure",
      "type": "function"
    },
    {
      "inputs": [],
      "name": "votingPeriod",
      "outputs": [
        {
          "internalType": "uint256",
          "name": "",
          "type": "uint256"
        }
      ],
      "stateMutability": "pure",
      "type": "function"
    },
    {
      "inputs": [
        {
          "internalType": "uint256",
          "name": "blockNumber",
          "type": "uint256"
        }
      ],
      "name": "quorum",
      "outputs": [
        {
          "internalType": "uint256",
          "name": "",
          "type": "uint256"
        }
      ],
      "stateMutability": "view",
      "type": "function"
    },
    {
      "inputs": [
        {
          "internalType": "address",
          "name": "account",
          "type": "address"
        },
        {
          "internalType": "uint256",
          "name": "blockNumber",
          "type": "uint256"
        }
      ],
      "name": "getVotes",
      "outputs": [
        {
          "internalType": "uint256",
          "name": "",
          "type": "uint256"
        }
      ],
      "stateMutability": "view",
      "type": "function"
    },
    {
      "inputs": [
        {
          "internalType": "uint256",
          "name": "proposalId",
          "type": "uint256"
        }
      ],
      "name": "state",
      "outputs": [
        {
          "internalType": "enum IGovernor.ProposalState",
          "name": "",
          "type": "uint8"
        }
      ],
      "stateMutability": "view",
      "type": "function"
    },
    {
      "inputs": [
        {
          "internalType": "address[]",
          "name": "targets",
          "type": "address[]"
        },
        {
          "internalType": "uint256[]",
          "name": "values",
          "type": "uint256[]"
        },
        {
          "internalType": "bytes[]",
          "name": "calldatas",
          "type": "bytes[]"
        },
        {
          "internalType": "string",
          "name": "description",
          "type": "string"
        }
      ],
      "name": "propose",
      "outputs": [
        {
          "internalType": "uint256",
          "name": "",
          "type": "uint256"
        }
      ],
      "stateMutability": "nonpayable",
      "type": "function"
    },
    {
      "inputs": [
        {
          "internalType": "bytes4",
          "name": "interfaceId",
          "type": "bytes4"
        }
      ],
      "name": "supportsInterface",
      "outputs": [
        {
          "internalType": "bool",
          "name": "",
          "type": "bool"
        }
      ],
      "stateMutability": "view",
      "type": "function"
    }
  ],
  "bytecode": "0x6101606040523480156200001257600080fd5b50604051620054be380380620054be8339818101604052810190620000389190620004fd565b600482826040518060400160405280600a81526020017f4d79476f7665726e6f72000000000000000000000000000000000000000000008152508062000083620001b160201b60201c565b60008280519060200120905060008280519060200120905060007f8b73c3c69bb8fe3d512ecc4cf759cc79239f7b179b0ffacaa9a75d522b39400f90508260e081815250508161010081815250504660a08181525050620000ec818484620001ee60201b60201c565b608081815250503073ffffffffffffffffffffffffffffffffffffffff1660c08173ffffffffffffffffffffffffffffffffffffffff1681525050806101208181525050505050505080600090805190602001906200014d92919062000376565b505062000160816200022a60201b60201c565b508073ffffffffffffffffffffffffffffffffffffffff166101408173ffffffffffffffffffffffffffffffffffffffff168152505050620001a881620002cb60201b60201c565b50505062000776565b60606040518060400160405280600181526020017f3100000000000000000000000000000000000000000000000000000000000000815250905090565b600083838346306040516020016200020b9594939291906200058b565b6040516020818303038152906040528051906020012090509392505050565b7f08f74ea46ef7894f65eabfb5e6e695de773a000b47c529ab559178069b226401600260009054906101000a900473ffffffffffffffffffffffffffffffffffffffff16826040516200027f929190620005e8565b60405180910390a180600260006101000a81548173ffffffffffffffffffffffffffffffffffffffff021916908373ffffffffffffffffffffffffffffffffffffffff16021790555050565b620002db6200036d60201b60201c565b81111562000320576040517f08c379a00000000000000000000000000000000000000000000000000000000081526004016200031790620006c2565b60405180910390fd5b60006004549050816004819055507f0553476bf02ef2726e8ce5ced78d63e26e602e4a2257b1f559418e24b4633997818360405162000361929190620006e4565b60405180910390a15050565b60006064905090565b828054620003849062000740565b90600052602060002090601f016020900481019282620003a85760008555620003f4565b82601f10620003c357805160ff1916838001178555620003f4565b82800160010185558215620003f4579182015b82811115620003f3578251825591602001919060010190620003d6565b5b50905062000403919062000407565b5090565b5b808211156200042257600081600090555060010162000408565b5090565b600080fd5b600073ffffffffffffffffffffffffffffffffffffffff82169050919050565b600062000458826200042b565b9050919050565b60006200046c826200044b565b9050919050565b6200047e816200045f565b81146200048a57600080fd5b50565b6000815190506200049e8162000473565b92915050565b6000620004b1826200042b565b9050919050565b6000620004c582620004a4565b9050919050565b620004d781620004b8565b8114620004e357600080fd5b50565b600081519050620004f781620004cc565b92915050565b6000806040838503121562000517576200051662000426565b5b600062000527858286016200048d565b92505060206200053a85828601620004e6565b9150509250929050565b6000819050919050565b620005598162000544565b82525050565b6000819050919050565b62000574816200055f565b82525050565b62000585816200044b565b82525050565b600060a082019050620005a260008301886200054e565b620005b160208301876200054e565b620005c060408301866200054e565b620005cf606083018562000569565b620005de60808301846200057a565b9695505050505050565b6000604082019050620005ff60008301856200057a565b6200060e60208301846200057a565b9392505050565b600082825260208201905092915050565b7f476f7665726e6f72566f74657351756f72756d4672616374696f6e3a2071756f60008201527f72756d4e756d657261746f72206f7665722071756f72756d44656e6f6d696e6160208201527f746f720000000000000000000000000000000000000000000000000000000000604082015250565b6000620006aa60438362000615565b9150620006b78262000626565b606082019050919050565b60006020820190508181036000830152620006dd816200069b565b9050919050565b6000604082019050620006fb600083018562000569565b6200070a602083018462000569565b9392505050565b7f4e487b7100000000000000000000000000000000000000000000000000000000600052602260045260246000fd5b600060028204905060018216806200075957607f821691505b6020821081141562000770576200076f62000711565b5b50919050565b60805160a05160c05160e051610100516101205161014051614cdf620007df600039600081816113a701528181611c6b0152611d2101526000611f9a01526000611fdc01526000611fbb01526000611ef001526000611f4601526000611f6f0152614cdf6000f3fe6080604052600436106101d15760003560e01c80637d5e81e2116100f7578063c28bc2fa11610095578063deaaa7cc11610064578063deaaa7cc14610765578063eb9019d414610790578063f8ce560a146107cd578063fc0c546a1461080a57610217565b8063c28bc2fa146106a9578063c59057e4146106d2578063d33219b41461070f578063dd4e2ba51461073a57610217565b8063a890c910116100d1578063a890c910146105db578063ab58fb8e14610604578063b58131b014610641578063c01f9e371461066c57610217565b80637d5e81e21461054857806397c3d33414610585578063a7713a70146105b057610217565b80633932abb11161016f578063544ffc9c1161013e578063544ffc9c1461046457806354fd4d50146104a357806356781388146104ce5780637b3c71d31461050b57610217565b80633932abb1146103825780633bccf4fd146103ad5780633e4f49e6146103ea578063438596321461042757610217565b806306fdde03116101ab57806306fdde03146102ad578063160cbed7146102d85780632656227d146103155780632d63f6931461034557610217565b806301ffc9a71461021c57806302a251a31461025957806306f3f9e61461028457610217565b36610217573073ffffffffffffffffffffffffffffffffffffffff166101f5610835565b73ffffffffffffffffffffffffffffffffffffffff161461021557600080fd5b005b600080fd5b34801561022857600080fd5b50610243600480360381019061023e91906129f6565b610844565b6040516102509190612a3e565b60405180910390f35b34801561026557600080fd5b5061026e610856565b60405161027b9190612a72565b60405180910390f35b34801561029057600080fd5b506102ab60048036038101906102a69190612ab9565b610860565b005b3480156102b957600080fd5b506102c26108e8565b6040516102cf9190612b7f565b60405180910390f35b3480156102e457600080fd5b506102ff60048036038101906102fa9190612fd6565b61097a565b60405161030c9190612a72565b60405180910390f35b61032f600480360381019061032a9190612fd6565b610c34565b60405161033c9190612a72565b60405180910390f35b34801561035157600080fd5b5061036c60048036038101906103679190612ab9565b610d67565b6040516103799190612a72565b60405180910390f35b34801561038e57600080fd5b50610397610dd5565b6040516103a49190612a72565b60405180910390f35b3480156103b957600080fd5b506103d460048036038101906103cf91906130ca565b610dde565b6040516103e19190612a72565b60405180910390f35b3480156103f657600080fd5b50610411600480360381019061040c9190612ab9565b610e68565b60405161041e91906131bc565b60405180910390f35b34801561043357600080fd5b5061044e600480360381019061044991906131d7565b610e7a565b60405161045b9190612a3e565b60405180910390f35b34801561047057600080fd5b5061048b60048036038101906104869190612ab9565b610ee5565b60405161049a93929190613217565b60405180910390f35b3480156104af57600080fd5b506104b8610f1d565b6040516104c59190612b7f565b60405180910390f35b3480156104da57600080fd5b506104f560048036038101906104f0919061324e565b610f5a565b6040516105029190612a72565b60405180910390f35b34801561051757600080fd5b50610532600480360381019061052d91906132e9565b610f8b565b60405161053f9190612a72565b60405180910390f35b34801561055457600080fd5b5061056f600480360381019061056a91906133fe565b610ff3565b60405161057c9190612a72565b60405180910390f35b34801561059157600080fd5b5061059a61100b565b6040516105a79190612a72565b60405180910390f35b3480156105bc57600080fd5b506105c5611014565b6040516105d29190612a72565b60405180910390f35b3480156105e757600080fd5b5061060260048036038101906105fd9190613525565b61101e565b005b34801561061057600080fd5b5061062b60048036038101906106269190612ab9565b6110a6565b6040516106389190612a72565b60405180910390f35b34801561064d57600080fd5b50610656611173565b6040516106639190612a72565b60405180910390f35b34801561067857600080fd5b50610693600480360381019061068e9190612ab9565b611178565b6040516106a09190612a72565b60405180910390f35b3480156106b557600080fd5b506106d060048036038101906106cb91906135a8565b6111e6565b005b3480156106de57600080fd5b506106f960048036038101906106f49190612fd6565b6112b8565b6040516107069190612a72565b60405180910390f35b34801561071b57600080fd5b506107246112f4565b604051610731919061362b565b60405180910390f35b34801561074657600080fd5b5061074f61131e565b60405161075c9190612b7f565b60405180910390f35b34801561077157600080fd5b5061077a61135b565b6040516107879190613655565b60405180910390f35b34801561079c57600080fd5b506107b760048036038101906107b29190613670565b61137f565b6040516107c49190612a72565b60405180910390f35b3480156107d957600080fd5b506107f460048036038101906107ef9190612ab9565b611393565b6040516108019190612a72565b60405180910390f35b34801561081657600080fd5b5061081f6113a5565b60405161082c919061370f565b60405180910390f35b600061083f6113c9565b905090565b600061084f826113f3565b9050919050565b600061b2fa905090565b610868610835565b73ffffffffffffffffffffffffffffffffffffffff1661088661146d565b73ffffffffffffffffffffffffffffffffffffffff16146108dc576040517f08c379a00000000000000000000000000000000000000000000000000000000081526004016108d390613776565b60405180910390fd5b6108e581611475565b50565b6060600080546108f7906137c5565b80601f0160208091040260200160405190810160405280929190818152602001828054610923906137c5565b80156109705780601f1061094557610100808354040283529160200191610970565b820191906000526020600020905b81548152906001019060200180831161095357829003601f168201915b5050505050905090565b600080610989868686866112b8565b90506004600781111561099f5761099e613145565b5b6109a882610e68565b60078111156109ba576109b9613145565b5b146109fa576040517f08c379a00000000000000000000000000000000000000000000000000000000081526004016109f190613869565b60405180910390fd5b6000600260009054906101000a900473ffffffffffffffffffffffffffffffffffffffff1673ffffffffffffffffffffffffffffffffffffffff1663f27a0c926040518163ffffffff1660e01b8152600401602060405180830381865afa158015610a69573d6000803e3d6000fd5b505050506040513d601f19601f82011682018060405250810190610a8d919061389e565b9050600260009054906101000a900473ffffffffffffffffffffffffffffffffffffffff1673ffffffffffffffffffffffffffffffffffffffff1663b1c5f4278888886000896040518663ffffffff1660e01b8152600401610af3959493929190613ba6565b602060405180830381865afa158015610b10573d6000803e3d6000fd5b505050506040513d601f19601f82011682018060405250810190610b349190613c23565b6003600084815260200190815260200160002081905550600260009054906101000a900473ffffffffffffffffffffffffffffffffffffffff1673ffffffffffffffffffffffffffffffffffffffff16638f2a0bb0888888600089876040518763ffffffff1660e01b8152600401610bb196959493929190613c50565b600060405180830381600087803b158015610bcb57600080fd5b505af1158015610bdf573d6000803e3d6000fd5b505050507f9a2e42fd6722813d69113e7d0079d3d940171428df7373df9c7f7617cfda2892828242610c119190613cf5565b604051610c1f929190613d4b565b60405180910390a18192505050949350505050565b600080610c43868686866112b8565b90506000610c5082610e68565b905060046007811115610c6657610c65613145565b5b816007811115610c7957610c78613145565b5b1480610ca9575060056007811115610c9457610c93613145565b5b816007811115610ca757610ca6613145565b5b145b610ce8576040517f08c379a0000000000000000000000000000000000000000000000000000000008152600401610cdf90613869565b60405180910390fd5b600180600084815260200190815260200160002060020160006101000a81548160ff0219169083151502179055507f712ae1383f79ac853f8d882153778e0260ef8f03b504e2866e0593e04d2b291f82604051610d459190612a72565b60405180910390a1610d5a828888888861150a565b8192505050949350505050565b6000610dc4600160008481526020019081526020016000206000016040518060200160405290816000820160009054906101000a900467ffffffffffffffff1667ffffffffffffffff1667ffffffffffffffff168152505061151e565b67ffffffffffffffff169050919050565b60006001905090565b600080610e3f610e377f150214d74d59b7d1e90c73fc22ef3d991dd0a76b046543d4d80ab92d2a50328f8989604051602001610e1c93929190613d83565b6040516020818303038152906040528051906020012061152c565b868686611546565b9050610e5c87828860405180602001604052806000815250611571565b91505095945050505050565b6000610e73826116c5565b9050919050565b60006005600084815260200190815260200160002060030160008373ffffffffffffffffffffffffffffffffffffffff1673ffffffffffffffffffffffffffffffffffffffff16815260200190815260200160002060009054906101000a900460ff16905092915050565b600080600080600560008681526020019081526020016000209050806000015481600101548260020154935093509350509193909250565b60606040518060400160405280600181526020017f3100000000000000000000000000000000000000000000000000000000000000815250905090565b600080610f6561146d565b9050610f8284828560405180602001604052806000815250611571565b91505092915050565b600080610f9661146d565b9050610fe886828787878080601f016020809104026020016040519081016040528093929190818152602001838380828437600081840152601f19601f82011690508083019250505050505050611571565b915050949350505050565b600061100185858585611899565b9050949350505050565b60006064905090565b6000600454905090565b611026610835565b73ffffffffffffffffffffffffffffffffffffffff1661104461146d565b73ffffffffffffffffffffffffffffffffffffffff161461109a576040517f08c379a000000000000000000000000000000000000000000000000000000000815260040161109190613776565b60405180910390fd5b6110a381611b99565b50565b600080600260009054906101000a900473ffffffffffffffffffffffffffffffffffffffff1673ffffffffffffffffffffffffffffffffffffffff1663d45c443560036000868152602001908152602001600020546040518263ffffffff1660e01b81526004016111179190613655565b602060405180830381865afa158015611134573d6000803e3d6000fd5b505050506040513d601f19601f82011682018060405250810190611158919061389e565b905060018114611168578061116b565b60005b915050919050565b600090565b60006111d5600160008481526020019081526020016000206001016040518060200160405290816000820160009054906101000a900467ffffffffffffffff1667ffffffffffffffff1667ffffffffffffffff168152505061151e565b67ffffffffffffffff169050919050565b6111ee610835565b73ffffffffffffffffffffffffffffffffffffffff1661120c61146d565b73ffffffffffffffffffffffffffffffffffffffff1614611262576040517f08c379a000000000000000000000000000000000000000000000000000000000815260040161125990613776565b60405180910390fd5b6112b18483838080601f016020809104026020016040519081016040528093929190818152602001838380828437600081840152601f19601f8201169050808301925050505050505085611c38565b5050505050565b6000848484846040516020016112d19493929190613dba565b6040516020818303038152906040528051906020012060001c9050949350505050565b6000600260009054906101000a900473ffffffffffffffffffffffffffffffffffffffff16905090565b60606040518060400160405280602081526020017f737570706f72743d627261766f2671756f72756d3d666f722c6162737461696e815250905090565b7f150214d74d59b7d1e90c73fc22ef3d991dd0a76b046543d4d80ab92d2a50328f81565b600061138b8383611c67565b905092915050565b600061139e82611d0d565b9050919050565b7f000000000000000000000000000000000000000000000000000000000000000081565b6000600260009054906101000a900473ffffffffffffffffffffffffffffffffffffffff16905090565b60007f6e665ced000000000000000000000000000000000000000000000000000000007bffffffffffffffffffffffffffffffffffffffffffffffffffffffff1916827bffffffffffffffffffffffffffffffffffffffffffffffffffffffff19161480611466575061146582611dd4565b5b9050919050565b600033905090565b61147d61100b565b8111156114bf576040517f08c379a00000000000000000000000000000000000000000000000000000000081526004016114b690613eac565b60405180910390fd5b60006004549050816004819055507f0553476bf02ef2726e8ce5ced78d63e26e602e4a2257b1f559418e24b463399781836040516114fe929190613d4b565b60405180910390a15050565b6115178585858585611e4e565b5050505050565b600081600001519050919050565b600061153f611539611eec565b83612006565b9050919050565b600080600061155787878787612039565b9150915061156481612146565b8192505050949350505050565b6000806001600087815260200190815260200160002090506001600781111561159d5761159c613145565b5b6115a687610e68565b60078111156115b8576115b7613145565b5b146115f8576040517f08c379a00000000000000000000000000000000000000000000000000000000081526004016115ef90613f3e565b60405180910390fd5b600061165686611647846000016040518060200160405290816000820160009054906101000a900467ffffffffffffffff1667ffffffffffffffff1667ffffffffffffffff168152505061151e565b67ffffffffffffffff1661137f565b90506116648787878461231b565b8573ffffffffffffffffffffffffffffffffffffffff167fb8e138887d0aa13bab447e82de9d5c1777041ecd21ca36ba824ff1e6c07ddda4888784886040516116b09493929190613f5e565b60405180910390a28092505050949350505050565b6000806116d183612521565b9050600460078111156116e7576116e6613145565b5b8160078111156116fa576116f9613145565b5b146117085780915050611894565b6000600360008581526020019081526020016000205490506000801b811415611735578192505050611894565b600260009054906101000a900473ffffffffffffffffffffffffffffffffffffffff1673ffffffffffffffffffffffffffffffffffffffff16632ab0f529826040518263ffffffff1660e01b81526004016117909190613655565b602060405180830381865afa1580156117ad573d6000803e3d6000fd5b505050506040513d601f19601f820116820180604052508101906117d19190613fd6565b156117e157600792505050611894565b600260009054906101000a900473ffffffffffffffffffffffffffffffffffffffff1673ffffffffffffffffffffffffffffffffffffffff1663584b153e826040518263ffffffff1660e01b815260040161183c9190613655565b602060405180830381865afa158015611859573d6000803e3d6000fd5b505050506040513d601f19601f8201168201806040525081019061187d9190613fd6565b1561188d57600592505050611894565b6002925050505b919050565b60006118a3611173565b6118b9336001436118b49190614003565b61137f565b10156118fa576040517f08c379a00000000000000000000000000000000000000000000000000000000081526004016118f1906140cf565b60405180910390fd5b600061190f86868686805190602001206112b8565b90508451865114611955576040517f08c379a000000000000000000000000000000000000000000000000000000000815260040161194c90614161565b60405180910390fd5b8351865114611999576040517f08c379a000000000000000000000000000000000000000000000000000000000815260040161199090614161565b60405180910390fd5b60008651116119dd576040517f08c379a00000000000000000000000000000000000000000000000000000000081526004016119d4906141cd565b60405180910390fd5b6000600160008381526020019081526020016000209050611a3d816000016040518060200160405290816000820160009054906101000a900467ffffffffffffffff1667ffffffffffffffff1667ffffffffffffffff1681525050612636565b611a7c576040517f08c379a0000000000000000000000000000000000000000000000000000000008152600401611a739061425f565b60405180910390fd5b6000611a8e611a89610dd5565b612650565b611a9743612650565b611aa19190614293565b90506000611ab5611ab0610856565b612650565b82611ac09190614293565b9050611ad882846000016126a790919063ffffffff16565b611aee81846001016126a790919063ffffffff16565b7f7d84a6263ae0d98d3329bd7b46bb4e8d6f98cd35a7adb45c274c8b7fd5ebd5e084611b1861146d565b8b8b8d5167ffffffffffffffff811115611b3557611b34612ba6565b5b604051908082528060200260200182016040528015611b6857816020015b6060815260200190600190039081611b535790505b508c88888e604051611b829998979695949392919061440e565b60405180910390a183945050505050949350505050565b7f08f74ea46ef7894f65eabfb5e6e695de773a000b47c529ab559178069b226401600260009054906101000a900473ffffffffffffffffffffffffffffffffffffffff1682604051611bec9291906144be565b60405180910390a180600260006101000a81548173ffffffffffffffffffffffffffffffffffffffff021916908373ffffffffffffffffffffffffffffffffffffffff16021790555050565b6060611c5e848484604051806060016040528060298152602001614c81602991396126d6565b90509392505050565b60007f000000000000000000000000000000000000000000000000000000000000000073ffffffffffffffffffffffffffffffffffffffff16633a46b1a884846040518363ffffffff1660e01b8152600401611cc49291906144e7565b602060405180830381865afa158015611ce1573d6000803e3d6000fd5b505050506040513d601f19601f82011682018060405250810190611d05919061389e565b905092915050565b6000611d1761100b565b611d1f611014565b7f000000000000000000000000000000000000000000000000000000000000000073ffffffffffffffffffffffffffffffffffffffff16638e539e8c856040518263ffffffff1660e01b8152600401611d789190612a72565b602060405180830381865afa158015611d95573d6000803e3d6000fd5b505050506040513d601f19601f82011682018060405250810190611db9919061389e565b611dc39190614510565b611dcd9190614599565b9050919050565b60007fbf26d897000000000000000000000000000000000000000000000000000000007bffffffffffffffffffffffffffffffffffffffffffffffffffffffff1916827bffffffffffffffffffffffffffffffffffffffffffffffffffffffff19161480611e475750611e46826127ea565b5b9050919050565b600260009054906101000a900473ffffffffffffffffffffffffffffffffffffffff1673ffffffffffffffffffffffffffffffffffffffff1663e38335e5348686866000876040518763ffffffff1660e01b8152600401611eb3959493929190613ba6565b6000604051808303818588803b158015611ecc57600080fd5b505af1158015611ee0573d6000803e3d6000fd5b50505050505050505050565b60007f000000000000000000000000000000000000000000000000000000000000000073ffffffffffffffffffffffffffffffffffffffff163073ffffffffffffffffffffffffffffffffffffffff16148015611f6857507f000000000000000000000000000000000000000000000000000000000000000046145b15611f95577f00000000000000000000000000000000000000000000000000000000000000009050612003565b6120007f00000000000000000000000000000000000000000000000000000000000000007f00000000000000000000000000000000000000000000000000000000000000007f0000000000000000000000000000000000000000000000000000000000000000612854565b90505b90565b6000828260405160200161201b929190614642565b60405160208183030381529060405280519060200120905092915050565b6000807f7fffffffffffffffffffffffffffffff5d576e7357a4501ddfe92f46681b20a08360001c111561207457600060039150915061213d565b601b8560ff161415801561208c5750601c8560ff1614155b1561209e57600060049150915061213d565b6000600187878787604051600081526020016040526040516120c39493929190614679565b6020604051602081039080840390855afa1580156120e5573d6000803e3d6000fd5b505050602060405103519050600073ffffffffffffffffffffffffffffffffffffffff168173ffffffffffffffffffffffffffffffffffffffff1614156121345760006001925092505061213d565b80600092509250505b94509492505050565b6000600481111561215a57612159613145565b5b81600481111561216d5761216c613145565b5b141561217857612318565b6001600481111561218c5761218b613145565b5b81600481111561219f5761219e613145565b5b14156121e0576040517f08c379a00000000000000000000000000000000000000000000000000000000081526004016121d79061470a565b60405180910390fd5b600260048111156121f4576121f3613145565b5b81600481111561220757612206613145565b5b1415612248576040517f08c379a000000000000000000000000000000000000000000000000000000000815260040161223f90614776565b60405180910390fd5b6003600481111561225c5761225b613145565b5b81600481111561226f5761226e613145565b5b14156122b0576040517f08c379a00000000000000000000000000000000000000000000000000000000081526004016122a790614808565b60405180910390fd5b6004808111156122c3576122c2613145565b5b8160048111156122d6576122d5613145565b5b1415612317576040517f08c379a000000000000000000000000000000000000000000000000000000000815260040161230e9061489a565b60405180910390fd5b5b50565b60006005600086815260200190815260200160002090508060030160008573ffffffffffffffffffffffffffffffffffffffff1673ffffffffffffffffffffffffffffffffffffffff16815260200190815260200160002060009054906101000a900460ff16156123c1576040517f08c379a00000000000000000000000000000000000000000000000000000000081526004016123b89061492c565b60405180910390fd5b60018160030160008673ffffffffffffffffffffffffffffffffffffffff1673ffffffffffffffffffffffffffffffffffffffff16815260200190815260200160002060006101000a81548160ff0219169083151502179055506000600281111561242f5761242e613145565b5b60ff168360ff16141561245c57818160000160008282546124509190613cf5565b9250508190555061251a565b600160028111156124705761246f613145565b5b60ff168360ff16141561249d57818160010160008282546124919190613cf5565b92505081905550612519565b6002808111156124b0576124af613145565b5b60ff168360ff1614156124dd57818160020160008282546124d19190613cf5565b92505081905550612518565b6040517f08c379a000000000000000000000000000000000000000000000000000000000815260040161250f906149be565b60405180910390fd5b5b5b5050505050565b6000806001600084815260200190815260200160002090508060020160009054906101000a900460ff161561255a576007915050612631565b8060020160019054906101000a900460ff161561257b576002915050612631565b600061258684610d67565b905060008114156125cc576040517f08c379a00000000000000000000000000000000000000000000000000000000081526004016125c390614a2a565b60405180910390fd5b4381106125de57600092505050612631565b60006125e985611178565b90504381106125fe5760019350505050612631565b6126078561288e565b80156126185750612617856128d5565b5b156126295760049350505050612631565b600393505050505b919050565b600080826000015167ffffffffffffffff16149050919050565b600067ffffffffffffffff801682111561269f576040517f08c379a000000000000000000000000000000000000000000000000000000000815260040161269690614abc565b60405180910390fd5b819050919050565b808260000160006101000a81548167ffffffffffffffff021916908367ffffffffffffffff1602179055505050565b60608247101561271b576040517f08c379a000000000000000000000000000000000000000000000000000000000815260040161271290614b4e565b60405180910390fd5b61272485612900565b612763576040517f08c379a000000000000000000000000000000000000000000000000000000000815260040161275a90614bba565b60405180910390fd5b6000808673ffffffffffffffffffffffffffffffffffffffff16858760405161278c9190614c16565b60006040518083038185875af1925050503d80600081146127c9576040519150601f19603f3d011682016040523d82523d6000602084013e6127ce565b606091505b50915091506127de828286612923565b92505050949350505050565b60007f01ffc9a7000000000000000000000000000000000000000000000000000000007bffffffffffffffffffffffffffffffffffffffffffffffffffffffff1916827bffffffffffffffffffffffffffffffffffffffffffffffffffffffff1916149050919050565b6000838383463060405160200161286f959493929190614c2d565b6040516020818303038152906040528051906020012090509392505050565b600080600560008481526020019081526020016000209050806002015481600101546128ba9190613cf5565b6128cb6128c685610d67565b611393565b1115915050919050565b6000806005600084815260200190815260200160002090508060000154816001015411915050919050565b6000808273ffffffffffffffffffffffffffffffffffffffff163b119050919050565b6060831561293357829050612983565b6000835111156129465782518084602001fd5b816040517f08c379a000000000000000000000000000000000000000000000000000000000815260040161297a9190612b7f565b60405180910390fd5b9392505050565b6000604051905090565b600080fd5b600080fd5b60007fffffffff0000000000000000000000000000000000000000000000000000000082169050919050565b6129d38161299e565b81146129de57600080fd5b50565b6000813590506129f0816129ca565b92915050565b600060208284031215612a0c57612a0b612994565b5b6000612a1a848285016129e1565b91505092915050565b60008115159050919050565b612a3881612a23565b82525050565b6000602082019050612a536000830184612a2f565b92915050565b6000819050919050565b612a6c81612a59565b82525050565b6000602082019050612a876000830184612a63565b92915050565b612a9681612a59565b8114612aa157600080fd5b50565b600081359050612ab381612a8d565b92915050565b600060208284031215612acf57612ace612994565b5b6000612add84828501612aa4565b91505092915050565b600081519050919050565b600082825260208201905092915050565b60005b83811015612b20578082015181840152602081019050612b05565b83811115612b2f576000848401525b50505050565b6000601f19601f8301169050919050565b6000612b5182612ae6565b612b5b8185612af1565b9350612b6b818560208601612b02565b612b7481612b35565b840191505092915050565b60006020820190508181036000830152612b998184612b46565b905092915050565b600080fd5b7f4e487b7100000000000000000000000000000000000000000000000000000000600052604160045260246000fd5b612bde82612b35565b810181811067ffffffffffffffff82111715612bfd57612bfc612ba6565b5b80604052505050565b6000612c1061298a565b9050612c1c8282612bd5565b919050565b600067ffffffffffffffff821115612c3c57612c3b612ba6565b5b602082029050602081019050919050565b600080fd5b600073ffffffffffffffffffffffffffffffffffffffff82169050919050565b6000612c7d82612c52565b9050919050565b612c8d81612c72565b8114612c9857600080fd5b50565b600081359050612caa81612c84565b92915050565b6000612cc3612cbe84612c21565b612c06565b90508083825260208201905060208402830185811115612ce657612ce5612c4d565b5b835b81811015612d0f5780612cfb8882612c9b565b845260208401935050602081019050612ce8565b5050509392505050565b600082601f830112612d2e57612d2d612ba1565b5b8135612d3e848260208601612cb0565b91505092915050565b600067ffffffffffffffff821115612d6257612d61612ba6565b5b602082029050602081019050919050565b6000612d86612d8184612d47565b612c06565b90508083825260208201905060208402830185811115612da957612da8612c4d565b5b835b81811015612dd25780612dbe8882612aa4565b845260208401935050602081019050612dab565b5050509392505050565b600082601f830112612df157612df0612ba1565b5b8135612e01848260208601612d73565b91505092915050565b600067ffffffffffffffff821115612e2557612e24612ba6565b5b602082029050602081019050919050565b600080fd5b600067ffffffffffffffff821115612e5657612e55612ba6565b5b612e5f82612b35565b9050602081019050919050565b82818337600083830152505050565b6000612e8e612e8984612e3b565b612c06565b905082815260208101848484011115612eaa57612ea9612e36565b5b612eb5848285612e6c565b509392505050565b600082601f830112612ed257612ed1612ba1565b5b8135612ee2848260208601612e7b565b91505092915050565b6000612efe612ef984612e0a565b612c06565b90508083825260208201905060208402830185811115612f2157612f20612c4d565b5b835b81811015612f6857803567ffffffffffffffff811115612f4657612f45612ba1565b5b808601612f538982612ebd565b85526020850194505050602081019050612f23565b5050509392505050565b600082601f830112612f8757612f86612ba1565b5b8135612f97848260208601612eeb565b91505092915050565b6000819050919050565b612fb381612fa0565b8114612fbe57600080fd5b50565b600081359050612fd081612faa565b92915050565b60008060008060808587031215612ff057612fef612994565b5b600085013567ffffffffffffffff81111561300e5761300d612999565b5b61301a87828801612d19565b945050602085013567ffffffffffffffff81111561303b5761303a612999565b5b61304787828801612ddc565b935050604085013567ffffffffffffffff81111561306857613067612999565b5b61307487828801612f72565b925050606061308587828801612fc1565b91505092959194509250565b600060ff82169050919050565b6130a781613091565b81146130b257600080fd5b50565b6000813590506130c48161309e565b92915050565b600080600080600060a086880312156130e6576130e5612994565b5b60006130f488828901612aa4565b9550506020613105888289016130b5565b9450506040613116888289016130b5565b935050606061312788828901612fc1565b925050608061313888828901612fc1565b9150509295509295909350565b7f4e487b7100000000000000000000000000000000000000000000000000000000600052602160045260246000fd5b6008811061318557613184613145565b5b50565b600081905061319682613174565b919050565b60006131a682613188565b9050919050565b6131b68161319b565b82525050565b60006020820190506131d160008301846131ad565b92915050565b600080604083850312156131ee576131ed612994565b5b60006131fc85828601612aa4565b925050602061320d85828601612c9b565b9150509250929050565b600060608201905061322c6000830186612a63565b6132396020830185612a63565b6132466040830184612a63565b949350505050565b6000806040838503121561326557613264612994565b5b600061327385828601612aa4565b9250506020613284858286016130b5565b9150509250929050565b600080fd5b60008083601f8401126132a9576132a8612ba1565b5b8235905067ffffffffffffffff8111156132c6576132c561328e565b5b6020830191508360018202830111156132e2576132e1612c4d565b5b9250929050565b6000806000806060858703121561330357613302612994565b5b600061331187828801612aa4565b9450506020613322878288016130b5565b935050604085013567ffffffffffffffff81111561334357613342612999565b5b61334f87828801613293565b925092505092959194509250565b600067ffffffffffffffff82111561337857613377612ba6565b5b61338182612b35565b9050602081019050919050565b60006133a161339c8461335d565b612c06565b9050828152602081018484840111156133bd576133bc612e36565b5b6133c8848285612e6c565b509392505050565b600082601f8301126133e5576133e4612ba1565b5b81356133f584826020860161338e565b91505092915050565b6000806000806080858703121561341857613417612994565b5b600085013567ffffffffffffffff81111561343657613435612999565b5b61344287828801612d19565b945050602085013567ffffffffffffffff81111561346357613462612999565b5b61346f87828801612ddc565b935050604085013567ffffffffffffffff8111156134905761348f612999565b5b61349c87828801612f72565b925050606085013567ffffffffffffffff8111156134bd576134bc612999565b5b6134c9878288016133d0565b91505092959194509250565b60006134e082612c52565b9050919050565b60006134f2826134d5565b9050919050565b613502816134e7565b811461350d57600080fd5b50565b60008135905061351f816134f9565b92915050565b60006020828403121561353b5761353a612994565b5b600061354984828501613510565b91505092915050565b60008083601f84011261356857613567612ba1565b5b8235905067ffffffffffffffff8111156135855761358461328e565b5b6020830191508360018202830111156135a1576135a0612c4d565b5b9250929050565b600080600080606085870312156135c2576135c1612994565b5b60006135d087828801612c9b565b94505060206135e187828801612aa4565b935050604085013567ffffffffffffffff81111561360257613601612999565b5b61360e87828801613552565b925092505092959194509250565b61362581612c72565b82525050565b6000602082019050613640600083018461361c565b92915050565b61364f81612fa0565b82525050565b600060208201905061366a6000830184613646565b92915050565b6000806040838503121561368757613686612994565b5b600061369585828601612c9b565b92505060206136a685828601612aa4565b9150509250929050565b6000819050919050565b60006136d56136d06136cb84612c52565b6136b0565b612c52565b9050919050565b60006136e7826136ba565b9050919050565b60006136f9826136dc565b9050919050565b613709816136ee565b82525050565b60006020820190506137246000830184613700565b92915050565b7f476f7665726e6f723a206f6e6c79476f7665726e616e63650000000000000000600082015250565b6000613760601883612af1565b915061376b8261372a565b602082019050919050565b6000602082019050818103600083015261378f81613753565b9050919050565b7f4e487b7100000000000000000000000000000000000000000000000000000000600052602260045260246000fd5b600060028204905060018216806137dd57607f821691505b602082108114156137f1576137f0613796565b5b50919050565b7f476f7665726e6f723a2070726f706f73616c206e6f742073756363657373667560008201527f6c00000000000000000000000000000000000000000000000000000000000000602082015250565b6000613853602183612af1565b915061385e826137f7565b604082019050919050565b6000602082019050818103600083015261388281613846565b9050919050565b60008151905061389881612a8d565b92915050565b6000602082840312156138b4576138b3612994565b5b60006138c284828501613889565b91505092915050565b600081519050919050565b600082825260208201905092915050565b6000819050602082019050919050565b61390081612c72565b82525050565b600061391283836138f7565b60208301905092915050565b6000602082019050919050565b6000613936826138cb565b61394081856138d6565b935061394b836138e7565b8060005b8381101561397c5781516139638882613906565b975061396e8361391e565b92505060018101905061394f565b5085935050505092915050565b600081519050919050565b600082825260208201905092915050565b6000819050602082019050919050565b6139be81612a59565b82525050565b60006139d083836139b5565b60208301905092915050565b6000602082019050919050565b60006139f482613989565b6139fe8185613994565b9350613a09836139a5565b8060005b83811015613a3a578151613a2188826139c4565b9750613a2c836139dc565b925050600181019050613a0d565b5085935050505092915050565b600081519050919050565b600082825260208201905092915050565b6000819050602082019050919050565b600081519050919050565b600082825260208201905092915050565b6000613a9a82613a73565b613aa48185613a7e565b9350613ab4818560208601612b02565b613abd81612b35565b840191505092915050565b6000613ad48383613a8f565b905092915050565b6000602082019050919050565b6000613af482613a47565b613afe8185613a52565b935083602082028501613b1085613a63565b8060005b85811015613b4c5784840389528151613b2d8582613ac8565b9450613b3883613adc565b925060208a01995050600181019050613b14565b50829750879550505050505092915050565b6000819050919050565b60008160001b9050919050565b6000613b90613b8b613b8684613b5e565b613b68565b612fa0565b9050919050565b613ba081613b75565b82525050565b600060a0820190508181036000830152613bc0818861392b565b90508181036020830152613bd481876139e9565b90508181036040830152613be88186613ae9565b9050613bf76060830185613b97565b613c046080830184613646565b9695505050505050565b600081519050613c1d81612faa565b92915050565b600060208284031215613c3957613c38612994565b5b6000613c4784828501613c0e565b91505092915050565b600060c0820190508181036000830152613c6a818961392b565b90508181036020830152613c7e81886139e9565b90508181036040830152613c928187613ae9565b9050613ca16060830186613b97565b613cae6080830185613646565b613cbb60a0830184612a63565b979650505050505050565b7f4e487b7100000000000000000000000000000000000000000000000000000000600052601160045260246000fd5b6000613d0082612a59565b9150613d0b83612a59565b9250827fffffffffffffffffffffffffffffffffffffffffffffffffffffffffffffffff03821115613d4057613d3f613cc6565b5b828201905092915050565b6000604082019050613d606000830185612a63565b613d6d6020830184612a63565b9392505050565b613d7d81613091565b82525050565b6000606082019050613d986000830186613646565b613da56020830185612a63565b613db26040830184613d74565b949350505050565b60006080820190508181036000830152613dd4818761392b565b90508181036020830152613de881866139e9565b90508181036040830152613dfc8185613ae9565b9050613e0b6060830184613646565b95945050505050565b7f476f7665726e6f72566f74657351756f72756d4672616374696f6e3a2071756f60008201527f72756d4e756d657261746f72206f7665722071756f72756d44656e6f6d696e6160208201527f746f720000000000000000000000000000000000000000000000000000000000604082015250565b6000613e96604383612af1565b9150613ea182613e14565b606082019050919050565b60006020820190508181036000830152613ec581613e89565b9050919050565b7f476f7665726e6f723a20766f7465206e6f742063757272656e746c792061637460008201527f6976650000000000000000000000000000000000000000000000000000000000602082015250565b6000613f28602383612af1565b9150613f3382613ecc565b604082019050919050565b60006020820190508181036000830152613f5781613f1b565b9050919050565b6000608082019050613f736000830187612a63565b613f806020830186613d74565b613f8d6040830185612a63565b8181036060830152613f9f8184612b46565b905095945050505050565b613fb381612a23565b8114613fbe57600080fd5b50565b600081519050613fd081613faa565b92915050565b600060208284031215613fec57613feb612994565b5b6000613ffa84828501613fc1565b91505092915050565b600061400e82612a59565b915061401983612a59565b92508282101561402c5761402b613cc6565b5b828203905092915050565b7f476f7665726e6f72436f6d7061746962696c697479427261766f3a2070726f7060008201527f6f73657220766f7465732062656c6f772070726f706f73616c2074687265736860208201527f6f6c640000000000000000000000000000000000000000000000000000000000604082015250565b60006140b9604383612af1565b91506140c482614037565b606082019050919050565b600060208201905081810360008301526140e8816140ac565b9050919050565b7f476f7665726e6f723a20696e76616c69642070726f706f73616c206c656e677460008201527f6800000000000000000000000000000000000000000000000000000000000000602082015250565b600061414b602183612af1565b9150614156826140ef565b604082019050919050565b6000602082019050818103600083015261417a8161413e565b9050919050565b7f476f7665726e6f723a20656d7074792070726f706f73616c0000000000000000600082015250565b60006141b7601883612af1565b91506141c282614181565b602082019050919050565b600060208201905081810360008301526141e6816141aa565b9050919050565b7f476f7665726e6f723a2070726f706f73616c20616c726561647920657869737460008201527f7300000000000000000000000000000000000000000000000000000000000000602082015250565b6000614249602183612af1565b9150614254826141ed565b604082019050919050565b600060208201905081810360008301526142788161423c565b9050919050565b600067ffffffffffffffff82169050919050565b600061429e8261427f565b91506142a98361427f565b92508267ffffffffffffffff038211156142c6576142c5613cc6565b5b828201905092915050565b600081519050919050565b600082825260208201905092915050565b6000819050602082019050919050565b600082825260208201905092915050565b600061431982612ae6565b61432381856142fd565b9350614333818560208601612b02565b61433c81612b35565b840191505092915050565b6000614353838361430e565b905092915050565b6000602082019050919050565b6000614373826142d1565b61437d81856142dc565b93508360208202850161438f856142ed565b8060005b858110156143cb57848403895281516143ac8582614347565b94506143b78361435b565b925060208a01995050600181019050614393565b50829750879550505050505092915050565b60006143f86143f36143ee8461427f565b6136b0565b612a59565b9050919050565b614408816143dd565b82525050565b600061012082019050614424600083018c612a63565b614431602083018b61361c565b8181036040830152614443818a61392b565b9050818103606083015261445781896139e9565b9050818103608083015261446b8188614368565b905081810360a083015261447f8187613ae9565b905061448e60c08301866143ff565b61449b60e08301856143ff565b8181036101008301526144ae8184612b46565b90509a9950505050505050505050565b60006040820190506144d3600083018561361c565b6144e0602083018461361c565b9392505050565b60006040820190506144fc600083018561361c565b6145096020830184612a63565b9392505050565b600061451b82612a59565b915061452683612a59565b9250817fffffffffffffffffffffffffffffffffffffffffffffffffffffffffffffffff048311821515161561455f5761455e613cc6565b5b828202905092915050565b7f4e487b7100000000000000000000000000000000000000000000000000000000600052601260045260246000fd5b60006145a482612a59565b91506145af83612a59565b9250826145bf576145be61456a565b5b828204905092915050565b600081905092915050565b7f1901000000000000000000000000000000000000000000000000000000000000600082015250565b600061460b6002836145ca565b9150614616826145d5565b600282019050919050565b6000819050919050565b61463c61463782612fa0565b614621565b82525050565b600061464d826145fe565b9150614659828561462b565b602082019150614669828461462b565b6020820191508190509392505050565b600060808201905061468e6000830187613646565b61469b6020830186613d74565b6146a86040830185613646565b6146b56060830184613646565b95945050505050565b7f45434453413a20696e76616c6964207369676e61747572650000000000000000600082015250565b60006146f4601883612af1565b91506146ff826146be565b602082019050919050565b60006020820190508181036000830152614723816146e7565b9050919050565b7f45434453413a20696e76616c6964207369676e6174757265206c656e67746800600082015250565b6000614760601f83612af1565b915061476b8261472a565b602082019050919050565b6000602082019050818103600083015261478f81614753565b9050919050565b7f45434453413a20696e76616c6964207369676e6174757265202773272076616c60008201527f7565000000000000000000000000000000000000000000000000000000000000602082015250565b60006147f2602283612af1565b91506147fd82614796565b604082019050919050565b60006020820190508181036000830152614821816147e5565b9050919050565b7f45434453413a20696e76616c6964207369676e6174757265202776272076616c60008201527f7565000000000000000000000000000000000000000000000000000000000000602082015250565b6000614884602283612af1565b915061488f82614828565b604082019050919050565b600060208201905081810360008301526148b381614877565b9050919050565b7f476f7665726e6f72566f74696e6753696d706c653a20766f746520616c72656160008201527f6479206361737400000000000000000000000000000000000000000000000000602082015250565b6000614916602783612af1565b9150614921826148ba565b604082019050919050565b6000602082019050818103600083015261494581614909565b9050919050565b7f476f7665726e6f72566f74696e6753696d706c653a20696e76616c696420766160008201527f6c756520666f7220656e756d20566f7465547970650000000000000000000000602082015250565b60006149a8603583612af1565b91506149b38261494c565b604082019050919050565b600060208201905081810360008301526149d78161499b565b9050919050565b7f476f7665726e6f723a20756e6b6e6f776e2070726f706f73616c206964000000600082015250565b6000614a14601d83612af1565b9150614a1f826149de565b602082019050919050565b60006020820190508181036000830152614a4381614a07565b9050919050565b7f53616665436173743a2076616c756520646f65736e27742066697420696e203660008201527f3420626974730000000000000000000000000000000000000000000000000000602082015250565b6000614aa6602683612af1565b9150614ab182614a4a565b604082019050919050565b60006020820190508181036000830152614ad581614a99565b9050919050565b7f416464726573733a20696e73756666696369656e742062616c616e636520666f60008201527f722063616c6c0000000000000000000000000000000000000000000000000000602082015250565b6000614b38602683612af1565b9150614b4382614adc565b604082019050919050565b60006020820190508181036000830152614b6781614b2b565b9050919050565b7f416464726573733a2063616c6c20746f206e6f6e2d636f6e7472616374000000600082015250565b6000614ba4601d83612af1565b9150614baf82614b6e565b602082019050919050565b60006020820190508181036000830152614bd381614b97565b9050919050565b600081905092915050565b6000614bf082613a73565b614bfa8185614bda565b9350614c0a818560208601612b02565b80840191505092915050565b6000614c228284614be5565b915081905092915050565b600060a082019050614c426000830188613646565b614c4f6020830187613646565b614c5c6040830186613646565b614c696060830185612a63565b614c76608083018461361c565b969550505050505056fe416464726573733a206c6f772d6c6576656c2063616c6c20776974682076616c7565206661696c6564a2646970667358221220c685c270b2e4b7093bc33bbfa5b10599c2cf0af28b0c138dc426f3899d42719d64736f6c634300080b0033",
  "immutableReferences": {
    "9076": [
      {
        "length": 32,
        "start": 5031
      },
      {
        "length": 32,
        "start": 7275
      },
      {
        "length": 32,
        "start": 7457
      }
    ],
    "31235": [
      {
        "length": 32,
        "start": 8047
      }
    ],
    "31237": [
      {
        "length": 32,
        "start": 8006
      }
    ],
    "31239": [
      {
        "length": 32,
        "start": 7920
      }
    ],
    "31241": [
      {
        "length": 32,
        "start": 8123
      }
    ],
    "31243": [
      {
        "length": 32,
        "start": 8156
      }
    ],
    "31245": [
      {
        "length": 32,
        "start": 8090
      }
    ]
  },
  "source": "// SPDX-License-Identifier: MIT\npragma solidity ^0.8.2;\n\nimport \"../../governance/Governor.sol\";\nimport \"../../governance/extensions/GovernorCountingSimple.sol\";\nimport \"../../governance/extensions/GovernorVotes.sol\";\nimport \"../../governance/extensions/GovernorVotesQuorumFraction.sol\";\nimport \"../../governance/extensions/GovernorTimelockControl.sol\";\n\ncontract MyGovernor1 is\n    Governor,\n    GovernorTimelockControl,\n    GovernorVotes,\n    GovernorVotesQuorumFraction,\n    GovernorCountingSimple\n{\n    constructor(IVotes _token, TimelockController _timelock)\n        Governor(\"MyGovernor\")\n        GovernorVotes(_token)\n        GovernorVotesQuorumFraction(4)\n        GovernorTimelockControl(_timelock)\n    {}\n\n    function votingDelay() public pure override returns (uint256) {\n        return 1; // 1 block\n    }\n\n    function votingPeriod() public pure override returns (uint256) {\n        return 45818; // 1 week\n    }\n\n    // The following functions are overrides required by Solidity.\n\n    function quorum(uint256 blockNumber)\n        public\n        view\n        override(IGovernor, GovernorVotesQuorumFraction)\n        returns (uint256)\n    {\n        return super.quorum(blockNumber);\n    }\n\n    function getVotes(address account, uint256 blockNumber)\n        public\n        view\n        override(IGovernor, GovernorVotes)\n        returns (uint256)\n    {\n        return super.getVotes(account, blockNumber);\n    }\n\n    function state(uint256 proposalId) public view override(Governor, GovernorTimelockControl) returns (ProposalState) {\n        return super.state(proposalId);\n    }\n\n    function propose(\n        address[] memory targets,\n        uint256[] memory values,\n        bytes[] memory calldatas,\n        string memory description\n    ) public override(Governor, IGovernor) returns (uint256) {\n        return super.propose(targets, values, calldatas, description);\n    }\n\n    function _execute(\n        uint256 proposalId,\n        address[] memory targets,\n        uint256[] memory values,\n        bytes[] memory calldatas,\n        bytes32 descriptionHash\n    ) internal override(Governor, GovernorTimelockControl) {\n        super._execute(proposalId, targets, values, calldatas, descriptionHash);\n    }\n\n    function _cancel(\n        address[] memory targets,\n        uint256[] memory values,\n        bytes[] memory calldatas,\n        bytes32 descriptionHash\n    ) internal override(Governor, GovernorTimelockControl) returns (uint256) {\n        return super._cancel(targets, values, calldatas, descriptionHash);\n    }\n\n    function _executor() internal view override(Governor, GovernorTimelockControl) returns (address) {\n        return super._executor();\n    }\n\n    function supportsInterface(bytes4 interfaceId)\n        public\n        view\n        override(Governor, GovernorTimelockControl)\n        returns (bool)\n    {\n        return super.supportsInterface(interfaceId);\n    }\n}\n",
  "sourcePath": "D:\\03.block-chain\\01.miquelTC__nft-marketplace\\test-proj\\nft-marketplace-master\\src\\contracts\\ERC721\\mocks\\wizard\\MyGovernor1.sol",
  "compiler": {
    "name": "solc",
    "version": "0.8.11+commit.d7f03943.Emscripten.clang"
  },
  "schemaVersion": "3.4.4",
  "updatedAt": "2022-02-16T02:59:58.996Z",
  "devdoc": {
    "kind": "dev",
    "methods": {
      "COUNTING_MODE()": {
        "details": "See {IGovernor-COUNTING_MODE}."
      },
      "castVote(uint256,uint8)": {
        "details": "See {IGovernor-castVote}."
      },
      "castVoteBySig(uint256,uint8,uint8,bytes32,bytes32)": {
        "details": "See {IGovernor-castVoteBySig}."
      },
      "castVoteWithReason(uint256,uint8,string)": {
        "details": "See {IGovernor-castVoteWithReason}."
      },
      "execute(address[],uint256[],bytes[],bytes32)": {
        "details": "See {IGovernor-execute}."
      },
      "hasVoted(uint256,address)": {
        "details": "See {IGovernor-hasVoted}."
      },
      "hashProposal(address[],uint256[],bytes[],bytes32)": {
        "details": "See {IGovernor-hashProposal}. The proposal id is produced by hashing the RLC encoded `targets` array, the `values` array, the `calldatas` array and the descriptionHash (bytes32 which itself is the keccak256 hash of the description string). This proposal id can be produced from the proposal data which is part of the {ProposalCreated} event. It can even be computed in advance, before the proposal is submitted. Note that the chainId and the governor address are not part of the proposal id computation. Consequently, the same proposal (with same operation and same description) will have the same id if submitted on multiple governors accross multiple networks. This also means that in order to execute the same operation twice (on the same governor) the proposer will have to change the description in order to avoid proposal id conflicts."
      },
      "name()": {
        "details": "See {IGovernor-name}."
      },
      "proposalDeadline(uint256)": {
        "details": "See {IGovernor-proposalDeadline}."
      },
      "proposalEta(uint256)": {
        "details": "Public accessor to check the eta of a queued proposal"
      },
      "proposalSnapshot(uint256)": {
        "details": "See {IGovernor-proposalSnapshot}."
      },
      "proposalThreshold()": {
        "details": "Part of the Governor Bravo's interface: _\"The number of votes required in order for a voter to become a proposer\"_."
      },
      "proposalVotes(uint256)": {
        "details": "Accessor to the internal vote counts."
      },
      "queue(address[],uint256[],bytes[],bytes32)": {
        "details": "Function to queue a proposal to the timelock."
      },
      "quorumDenominator()": {
        "details": "Returns the quorum denominator. Defaults to 100, but may be overridden."
      },
      "quorumNumerator()": {
        "details": "Returns the current quorum numerator. See {quorumDenominator}."
      },
      "relay(address,uint256,bytes)": {
        "details": "Relays a transaction or function call to an arbitrary target. In cases where the governance executor is some contract other than the governor itself, like when using a timelock, this function can be invoked in a governance proposal to recover tokens or Ether that was sent to the governor contract by mistake. Note that if the executor is simply the governor itself, use of `relay` is redundant."
      },
      "timelock()": {
        "details": "Public accessor to check the address of the timelock"
      },
      "updateQuorumNumerator(uint256)": {
        "details": "Changes the quorum numerator. Emits a {QuorumNumeratorUpdated} event. Requirements: - Must be called through a governance proposal. - New numerator must be smaller or equal to the denominator."
      },
      "updateTimelock(address)": {
        "details": "Public endpoint to update the underlying timelock instance. Restricted to the timelock itself, so updates must be proposed, scheduled, and executed through governance proposals. CAUTION: It is not recommended to change the timelock while there are other queued governance proposals."
      },
      "version()": {
        "details": "See {IGovernor-version}."
      },
      "votingDelay()": {
        "details": "Delay, in number of block, between the proposal is created and the vote starts. This can be increassed to leave time for users to buy voting power, of delegate it, before the voting of a proposal starts."
      },
      "votingPeriod()": {
        "details": "Delay, in number of blocks, between the vote start and vote ends. NOTE: The {votingDelay} can delay the start of the vote. This must be considered when setting the voting duration compared to the voting delay."
      }
    },
    "version": 1
  },
  "userdoc": {
    "kind": "user",
    "methods": {
      "votingDelay()": {
        "notice": "module:user-config"
      },
      "votingPeriod()": {
        "notice": "module:user-config"
      }
    },
    "version": 1
  }
}