{
  "contractName": "MyGovernor",
  "abi": [
    {
      "inputs": [
        {
          "internalType": "contract IVotes",
          "name": "_token",
          "type": "address"
        },
        {
          "internalType": "contract TimelockController",
          "name": "_timelock",
          "type": "address"
        }
      ],
      "stateMutability": "nonpayable",
      "type": "constructor"
    },
    {
      "anonymous": false,
      "inputs": [
        {
          "indexed": false,
          "internalType": "uint256",
          "name": "proposalId",
          "type": "uint256"
        }
      ],
      "name": "ProposalCanceled",
      "type": "event"
    },
    {
      "anonymous": false,
      "inputs": [
        {
          "indexed": false,
          "internalType": "uint256",
          "name": "proposalId",
          "type": "uint256"
        },
        {
          "indexed": false,
          "internalType": "address",
          "name": "proposer",
          "type": "address"
        },
        {
          "indexed": false,
          "internalType": "address[]",
          "name": "targets",
          "type": "address[]"
        },
        {
          "indexed": false,
          "internalType": "uint256[]",
          "name": "values",
          "type": "uint256[]"
        },
        {
          "indexed": false,
          "internalType": "string[]",
          "name": "signatures",
          "type": "string[]"
        },
        {
          "indexed": false,
          "internalType": "bytes[]",
          "name": "calldatas",
          "type": "bytes[]"
        },
        {
          "indexed": false,
          "internalType": "uint256",
          "name": "startBlock",
          "type": "uint256"
        },
        {
          "indexed": false,
          "internalType": "uint256",
          "name": "endBlock",
          "type": "uint256"
        },
        {
          "indexed": false,
          "internalType": "string",
          "name": "description",
          "type": "string"
        }
      ],
      "name": "ProposalCreated",
      "type": "event"
    },
    {
      "anonymous": false,
      "inputs": [
        {
          "indexed": false,
          "internalType": "uint256",
          "name": "proposalId",
          "type": "uint256"
        }
      ],
      "name": "ProposalExecuted",
      "type": "event"
    },
    {
      "anonymous": false,
      "inputs": [
        {
          "indexed": false,
          "internalType": "uint256",
          "name": "proposalId",
          "type": "uint256"
        },
        {
          "indexed": false,
          "internalType": "uint256",
          "name": "eta",
          "type": "uint256"
        }
      ],
      "name": "ProposalQueued",
      "type": "event"
    },
    {
      "anonymous": false,
      "inputs": [
        {
          "indexed": false,
          "internalType": "uint256",
          "name": "oldQuorumNumerator",
          "type": "uint256"
        },
        {
          "indexed": false,
          "internalType": "uint256",
          "name": "newQuorumNumerator",
          "type": "uint256"
        }
      ],
      "name": "QuorumNumeratorUpdated",
      "type": "event"
    },
    {
      "anonymous": false,
      "inputs": [
        {
          "indexed": false,
          "internalType": "address",
          "name": "oldTimelock",
          "type": "address"
        },
        {
          "indexed": false,
          "internalType": "address",
          "name": "newTimelock",
          "type": "address"
        }
      ],
      "name": "TimelockChange",
      "type": "event"
    },
    {
      "anonymous": false,
      "inputs": [
        {
          "indexed": true,
          "internalType": "address",
          "name": "voter",
          "type": "address"
        },
        {
          "indexed": false,
          "internalType": "uint256",
          "name": "proposalId",
          "type": "uint256"
        },
        {
          "indexed": false,
          "internalType": "uint8",
          "name": "support",
          "type": "uint8"
        },
        {
          "indexed": false,
          "internalType": "uint256",
          "name": "weight",
          "type": "uint256"
        },
        {
          "indexed": false,
          "internalType": "string",
          "name": "reason",
          "type": "string"
        }
      ],
      "name": "VoteCast",
      "type": "event"
    },
    {
      "inputs": [],
      "name": "BALLOT_TYPEHASH",
      "outputs": [
        {
          "internalType": "bytes32",
          "name": "",
          "type": "bytes32"
        }
      ],
      "stateMutability": "view",
      "type": "function"
    },
    {
      "inputs": [],
      "name": "COUNTING_MODE",
      "outputs": [
        {
          "internalType": "string",
          "name": "",
          "type": "string"
        }
      ],
      "stateMutability": "pure",
      "type": "function"
    },
    {
      "inputs": [
        {
          "internalType": "uint256",
          "name": "proposalId",
          "type": "uint256"
        }
      ],
      "name": "cancel",
      "outputs": [],
      "stateMutability": "nonpayable",
      "type": "function"
    },
    {
      "inputs": [
        {
          "internalType": "uint256",
          "name": "proposalId",
          "type": "uint256"
        },
        {
          "internalType": "uint8",
          "name": "support",
          "type": "uint8"
        }
      ],
      "name": "castVote",
      "outputs": [
        {
          "internalType": "uint256",
          "name": "",
          "type": "uint256"
        }
      ],
      "stateMutability": "nonpayable",
      "type": "function"
    },
    {
      "inputs": [
        {
          "internalType": "uint256",
          "name": "proposalId",
          "type": "uint256"
        },
        {
          "internalType": "uint8",
          "name": "support",
          "type": "uint8"
        },
        {
          "internalType": "uint8",
          "name": "v",
          "type": "uint8"
        },
        {
          "internalType": "bytes32",
          "name": "r",
          "type": "bytes32"
        },
        {
          "internalType": "bytes32",
          "name": "s",
          "type": "bytes32"
        }
      ],
      "name": "castVoteBySig",
      "outputs": [
        {
          "internalType": "uint256",
          "name": "",
          "type": "uint256"
        }
      ],
      "stateMutability": "nonpayable",
      "type": "function"
    },
    {
      "inputs": [
        {
          "internalType": "uint256",
          "name": "proposalId",
          "type": "uint256"
        },
        {
          "internalType": "uint8",
          "name": "support",
          "type": "uint8"
        },
        {
          "internalType": "string",
          "name": "reason",
          "type": "string"
        }
      ],
      "name": "castVoteWithReason",
      "outputs": [
        {
          "internalType": "uint256",
          "name": "",
          "type": "uint256"
        }
      ],
      "stateMutability": "nonpayable",
      "type": "function"
    },
    {
      "inputs": [
        {
          "internalType": "address[]",
          "name": "targets",
          "type": "address[]"
        },
        {
          "internalType": "uint256[]",
          "name": "values",
          "type": "uint256[]"
        },
        {
          "internalType": "bytes[]",
          "name": "calldatas",
          "type": "bytes[]"
        },
        {
          "internalType": "bytes32",
          "name": "descriptionHash",
          "type": "bytes32"
        }
      ],
      "name": "execute",
      "outputs": [
        {
          "internalType": "uint256",
          "name": "",
          "type": "uint256"
        }
      ],
      "stateMutability": "payable",
      "type": "function"
    },
    {
      "inputs": [
        {
          "internalType": "uint256",
          "name": "proposalId",
          "type": "uint256"
        }
      ],
      "name": "execute",
      "outputs": [],
      "stateMutability": "payable",
      "type": "function"
    },
    {
      "inputs": [
        {
          "internalType": "uint256",
          "name": "proposalId",
          "type": "uint256"
        }
      ],
      "name": "getActions",
      "outputs": [
        {
          "internalType": "address[]",
          "name": "targets",
          "type": "address[]"
        },
        {
          "internalType": "uint256[]",
          "name": "values",
          "type": "uint256[]"
        },
        {
          "internalType": "string[]",
          "name": "signatures",
          "type": "string[]"
        },
        {
          "internalType": "bytes[]",
          "name": "calldatas",
          "type": "bytes[]"
        }
      ],
      "stateMutability": "view",
      "type": "function"
    },
    {
      "inputs": [
        {
          "internalType": "uint256",
          "name": "proposalId",
          "type": "uint256"
        },
        {
          "internalType": "address",
          "name": "voter",
          "type": "address"
        }
      ],
      "name": "getReceipt",
      "outputs": [
        {
          "components": [
            {
              "internalType": "bool",
              "name": "hasVoted",
              "type": "bool"
            },
            {
              "internalType": "uint8",
              "name": "support",
              "type": "uint8"
            },
            {
              "internalType": "uint96",
              "name": "votes",
              "type": "uint96"
            }
          ],
          "internalType": "struct IGovernorCompatibilityBravo.Receipt",
          "name": "",
          "type": "tuple"
        }
      ],
      "stateMutability": "view",
      "type": "function"
    },
    {
      "inputs": [
        {
          "internalType": "uint256",
          "name": "proposalId",
          "type": "uint256"
        },
        {
          "internalType": "address",
          "name": "account",
          "type": "address"
        }
      ],
      "name": "hasVoted",
      "outputs": [
        {
          "internalType": "bool",
          "name": "",
          "type": "bool"
        }
      ],
      "stateMutability": "view",
      "type": "function"
    },
    {
      "inputs": [
        {
          "internalType": "address[]",
          "name": "targets",
          "type": "address[]"
        },
        {
          "internalType": "uint256[]",
          "name": "values",
          "type": "uint256[]"
        },
        {
          "internalType": "bytes[]",
          "name": "calldatas",
          "type": "bytes[]"
        },
        {
          "internalType": "bytes32",
          "name": "descriptionHash",
          "type": "bytes32"
        }
      ],
      "name": "hashProposal",
      "outputs": [
        {
          "internalType": "uint256",
          "name": "",
          "type": "uint256"
        }
      ],
      "stateMutability": "pure",
      "type": "function"
    },
    {
      "inputs": [],
      "name": "name",
      "outputs": [
        {
          "internalType": "string",
          "name": "",
          "type": "string"
        }
      ],
      "stateMutability": "view",
      "type": "function"
    },
    {
      "inputs": [
        {
          "internalType": "uint256",
          "name": "proposalId",
          "type": "uint256"
        }
      ],
      "name": "proposalDeadline",
      "outputs": [
        {
          "internalType": "uint256",
          "name": "",
          "type": "uint256"
        }
      ],
      "stateMutability": "view",
      "type": "function"
    },
    {
      "inputs": [
        {
          "internalType": "uint256",
          "name": "proposalId",
          "type": "uint256"
        }
      ],
      "name": "proposalEta",
      "outputs": [
        {
          "internalType": "uint256",
          "name": "",
          "type": "uint256"
        }
      ],
      "stateMutability": "view",
      "type": "function"
    },
    {
      "inputs": [
        {
          "internalType": "uint256",
          "name": "proposalId",
          "type": "uint256"
        }
      ],
      "name": "proposalSnapshot",
      "outputs": [
        {
          "internalType": "uint256",
          "name": "",
          "type": "uint256"
        }
      ],
      "stateMutability": "view",
      "type": "function"
    },
    {
      "inputs": [
        {
          "internalType": "uint256",
          "name": "proposalId",
          "type": "uint256"
        }
      ],
      "name": "proposals",
      "outputs": [
        {
          "internalType": "uint256",
          "name": "id",
          "type": "uint256"
        },
        {
          "internalType": "address",
          "name": "proposer",
          "type": "address"
        },
        {
          "internalType": "uint256",
          "name": "eta",
          "type": "uint256"
        },
        {
          "internalType": "uint256",
          "name": "startBlock",
          "type": "uint256"
        },
        {
          "internalType": "uint256",
          "name": "endBlock",
          "type": "uint256"
        },
        {
          "internalType": "uint256",
          "name": "forVotes",
          "type": "uint256"
        },
        {
          "internalType": "uint256",
          "name": "againstVotes",
          "type": "uint256"
        },
        {
          "internalType": "uint256",
          "name": "abstainVotes",
          "type": "uint256"
        },
        {
          "internalType": "bool",
          "name": "canceled",
          "type": "bool"
        },
        {
          "internalType": "bool",
          "name": "executed",
          "type": "bool"
        }
      ],
      "stateMutability": "view",
      "type": "function"
    },
    {
      "inputs": [
        {
          "internalType": "address[]",
          "name": "targets",
          "type": "address[]"
        },
        {
          "internalType": "uint256[]",
          "name": "values",
          "type": "uint256[]"
        },
        {
          "internalType": "bytes[]",
          "name": "calldatas",
          "type": "bytes[]"
        },
        {
          "internalType": "bytes32",
          "name": "descriptionHash",
          "type": "bytes32"
        }
      ],
      "name": "queue",
      "outputs": [
        {
          "internalType": "uint256",
          "name": "",
          "type": "uint256"
        }
      ],
      "stateMutability": "nonpayable",
      "type": "function"
    },
    {
      "inputs": [
        {
          "internalType": "uint256",
          "name": "proposalId",
          "type": "uint256"
        }
      ],
      "name": "queue",
      "outputs": [],
      "stateMutability": "nonpayable",
      "type": "function"
    },
    {
      "inputs": [],
      "name": "quorumDenominator",
      "outputs": [
        {
          "internalType": "uint256",
          "name": "",
          "type": "uint256"
        }
      ],
      "stateMutability": "view",
      "type": "function"
    },
    {
      "inputs": [],
      "name": "quorumNumerator",
      "outputs": [
        {
          "internalType": "uint256",
          "name": "",
          "type": "uint256"
        }
      ],
      "stateMutability": "view",
      "type": "function"
    },
    {
      "inputs": [],
      "name": "quorumVotes",
      "outputs": [
        {
          "internalType": "uint256",
          "name": "",
          "type": "uint256"
        }
      ],
      "stateMutability": "view",
      "type": "function"
    },
    {
      "inputs": [
        {
          "internalType": "address",
          "name": "target",
          "type": "address"
        },
        {
          "internalType": "uint256",
          "name": "value",
          "type": "uint256"
        },
        {
          "internalType": "bytes",
          "name": "data",
          "type": "bytes"
        }
      ],
      "name": "relay",
      "outputs": [],
      "stateMutability": "nonpayable",
      "type": "function"
    },
    {
      "inputs": [],
      "name": "timelock",
      "outputs": [
        {
          "internalType": "address",
          "name": "",
          "type": "address"
        }
      ],
      "stateMutability": "view",
      "type": "function"
    },
    {
      "inputs": [],
      "name": "token",
      "outputs": [
        {
          "internalType": "contract IVotes",
          "name": "",
          "type": "address"
        }
      ],
      "stateMutability": "view",
      "type": "function"
    },
    {
      "inputs": [
        {
          "internalType": "uint256",
          "name": "newQuorumNumerator",
          "type": "uint256"
        }
      ],
      "name": "updateQuorumNumerator",
      "outputs": [],
      "stateMutability": "nonpayable",
      "type": "function"
    },
    {
      "inputs": [
        {
          "internalType": "contract TimelockController",
          "name": "newTimelock",
          "type": "address"
        }
      ],
      "name": "updateTimelock",
      "outputs": [],
      "stateMutability": "nonpayable",
      "type": "function"
    },
    {
      "inputs": [],
      "name": "version",
      "outputs": [
        {
          "internalType": "string",
          "name": "",
          "type": "string"
        }
      ],
      "stateMutability": "view",
      "type": "function"
    },
    {
      "stateMutability": "payable",
      "type": "receive"
    },
    {
      "inputs": [],
      "name": "votingDelay",
      "outputs": [
        {
          "internalType": "uint256",
          "name": "",
          "type": "uint256"
        }
      ],
      "stateMutability": "pure",
      "type": "function"
    },
    {
      "inputs": [],
      "name": "votingPeriod",
      "outputs": [
        {
          "internalType": "uint256",
          "name": "",
          "type": "uint256"
        }
      ],
      "stateMutability": "pure",
      "type": "function"
    },
    {
      "inputs": [],
      "name": "proposalThreshold",
      "outputs": [
        {
          "internalType": "uint256",
          "name": "",
          "type": "uint256"
        }
      ],
      "stateMutability": "pure",
      "type": "function"
    },
    {
      "inputs": [
        {
          "internalType": "uint256",
          "name": "blockNumber",
          "type": "uint256"
        }
      ],
      "name": "quorum",
      "outputs": [
        {
          "internalType": "uint256",
          "name": "",
          "type": "uint256"
        }
      ],
      "stateMutability": "view",
      "type": "function"
    },
    {
      "inputs": [
        {
          "internalType": "address",
          "name": "account",
          "type": "address"
        },
        {
          "internalType": "uint256",
          "name": "blockNumber",
          "type": "uint256"
        }
      ],
      "name": "getVotes",
      "outputs": [
        {
          "internalType": "uint256",
          "name": "",
          "type": "uint256"
        }
      ],
      "stateMutability": "view",
      "type": "function"
    },
    {
      "inputs": [
        {
          "internalType": "uint256",
          "name": "proposalId",
          "type": "uint256"
        }
      ],
      "name": "state",
      "outputs": [
        {
          "internalType": "enum IGovernor.ProposalState",
          "name": "",
          "type": "uint8"
        }
      ],
      "stateMutability": "view",
      "type": "function"
    },
    {
      "inputs": [
        {
          "internalType": "address[]",
          "name": "targets",
          "type": "address[]"
        },
        {
          "internalType": "uint256[]",
          "name": "values",
          "type": "uint256[]"
        },
        {
          "internalType": "bytes[]",
          "name": "calldatas",
          "type": "bytes[]"
        },
        {
          "internalType": "string",
          "name": "description",
          "type": "string"
        }
      ],
      "name": "propose",
      "outputs": [
        {
          "internalType": "uint256",
          "name": "",
          "type": "uint256"
        }
      ],
      "stateMutability": "nonpayable",
      "type": "function"
    },
    {
      "inputs": [
        {
          "internalType": "address[]",
          "name": "targets",
          "type": "address[]"
        },
        {
          "internalType": "uint256[]",
          "name": "values",
          "type": "uint256[]"
        },
        {
          "internalType": "string[]",
          "name": "signatures",
          "type": "string[]"
        },
        {
          "internalType": "bytes[]",
          "name": "calldatas",
          "type": "bytes[]"
        },
        {
          "internalType": "string",
          "name": "description",
          "type": "string"
        }
      ],
      "name": "propose",
      "outputs": [
        {
          "internalType": "uint256",
          "name": "",
          "type": "uint256"
        }
      ],
      "stateMutability": "nonpayable",
      "type": "function"
    },
    {
      "inputs": [
        {
          "internalType": "bytes4",
          "name": "interfaceId",
          "type": "bytes4"
        }
      ],
      "name": "supportsInterface",
      "outputs": [
        {
          "internalType": "bool",
          "name": "",
          "type": "bool"
        }
      ],
      "stateMutability": "view",
      "type": "function"
    }
  ],
  "bytecode": "0x6101606040523480156200001257600080fd5b5060405162007315380380620073158339818101604052810190620000389190620004fd565b600482826040518060400160405280600a81526020017f4d79476f7665726e6f72000000000000000000000000000000000000000000008152508062000083620001b160201b60201c565b60008280519060200120905060008280519060200120905060007f8b73c3c69bb8fe3d512ecc4cf759cc79239f7b179b0ffacaa9a75d522b39400f90508260e081815250508161010081815250504660a08181525050620000ec818484620001ee60201b60201c565b608081815250503073ffffffffffffffffffffffffffffffffffffffff1660c08173ffffffffffffffffffffffffffffffffffffffff1681525050806101208181525050505050505080600090805190602001906200014d92919062000376565b505062000160816200022a60201b60201c565b508073ffffffffffffffffffffffffffffffffffffffff166101408173ffffffffffffffffffffffffffffffffffffffff168152505050620001a881620002cb60201b60201c565b50505062000776565b60606040518060400160405280600181526020017f3100000000000000000000000000000000000000000000000000000000000000815250905090565b600083838346306040516020016200020b9594939291906200058b565b6040516020818303038152906040528051906020012090509392505050565b7f08f74ea46ef7894f65eabfb5e6e695de773a000b47c529ab559178069b226401600260009054906101000a900473ffffffffffffffffffffffffffffffffffffffff16826040516200027f929190620005e8565b60405180910390a180600260006101000a81548173ffffffffffffffffffffffffffffffffffffffff021916908373ffffffffffffffffffffffffffffffffffffffff16021790555050565b620002db6200036d60201b60201c565b81111562000320576040517f08c379a00000000000000000000000000000000000000000000000000000000081526004016200031790620006c2565b60405180910390fd5b60006005549050816005819055507f0553476bf02ef2726e8ce5ced78d63e26e602e4a2257b1f559418e24b4633997818360405162000361929190620006e4565b60405180910390a15050565b60006064905090565b828054620003849062000740565b90600052602060002090601f016020900481019282620003a85760008555620003f4565b82601f10620003c357805160ff1916838001178555620003f4565b82800160010185558215620003f4579182015b82811115620003f3578251825591602001919060010190620003d6565b5b50905062000403919062000407565b5090565b5b808211156200042257600081600090555060010162000408565b5090565b600080fd5b600073ffffffffffffffffffffffffffffffffffffffff82169050919050565b600062000458826200042b565b9050919050565b60006200046c826200044b565b9050919050565b6200047e816200045f565b81146200048a57600080fd5b50565b6000815190506200049e8162000473565b92915050565b6000620004b1826200042b565b9050919050565b6000620004c582620004a4565b9050919050565b620004d781620004b8565b8114620004e357600080fd5b50565b600081519050620004f781620004cc565b92915050565b6000806040838503121562000517576200051662000426565b5b600062000527858286016200048d565b92505060206200053a85828601620004e6565b9150509250929050565b6000819050919050565b620005598162000544565b82525050565b6000819050919050565b62000574816200055f565b82525050565b62000585816200044b565b82525050565b600060a082019050620005a260008301886200054e565b620005b160208301876200054e565b620005c060408301866200054e565b620005cf606083018562000569565b620005de60808301846200057a565b9695505050505050565b6000604082019050620005ff60008301856200057a565b6200060e60208301846200057a565b9392505050565b600082825260208201905092915050565b7f476f7665726e6f72566f74657351756f72756d4672616374696f6e3a2071756f60008201527f72756d4e756d657261746f72206f7665722071756f72756d44656e6f6d696e6160208201527f746f720000000000000000000000000000000000000000000000000000000000604082015250565b6000620006aa60438362000615565b9150620006b78262000626565b606082019050919050565b60006020820190508181036000830152620006dd816200069b565b9050919050565b6000604082019050620006fb600083018562000569565b6200070a602083018462000569565b9392505050565b7f4e487b7100000000000000000000000000000000000000000000000000000000600052602260045260246000fd5b600060028204905060018216806200075957607f821691505b6020821081141562000770576200076f62000711565b5b50919050565b60805160a05160c05160e051610100516101205161014051616b36620007df6000396000818161205b01528181612baa0152612c6001526000612ed901526000612f1b01526000612efa01526000612e2f01526000612e8501526000612eae0152616b366000f3fe60806040526004361061021e5760003560e01c80637d5e81e211610123578063d33219b4116100ab578063e23a9a521161006f578063e23a9a52146108de578063eb9019d41461091b578063f8ce560a14610958578063fc0c546a14610995578063fe0d94c1146109c057610264565b8063d33219b4146107f7578063da95691a14610822578063dd4e2ba51461085f578063ddf0b0091461088a578063deaaa7cc146108b357610264565b8063ab58fb8e116100f2578063ab58fb8e146106ec578063b58131b014610729578063c01f9e3714610754578063c28bc2fa14610791578063c59057e4146107ba57610264565b80637d5e81e21461063057806397c3d3341461066d578063a7713a7014610698578063a890c910146106c357610264565b8063328dd982116101a657806340e58ee51161017557806340e58ee514610525578063438596321461054e57806354fd4d501461058b57806356781388146105b65780637b3c71d3146105f357610264565b8063328dd982146104405780633932abb1146104805780633bccf4fd146104ab5780633e4f49e6146104e857610264565b806306fdde03116101ed57806306fdde0314610340578063160cbed71461036b57806324bc1a64146103a85780632656227d146103d35780632d63f6931461040357610264565b8063013cf08b1461026957806301ffc9a7146102af57806302a251a3146102ec57806306f3f9e61461031757610264565b36610264573073ffffffffffffffffffffffffffffffffffffffff166102426109dc565b73ffffffffffffffffffffffffffffffffffffffff161461026257600080fd5b005b600080fd5b34801561027557600080fd5b50610290600480360381019061028b919061428a565b6109eb565b6040516102a69a99989796959493929190614322565b60405180910390f35b3480156102bb57600080fd5b506102d660048036038101906102d19190614416565b610ae0565b6040516102e39190614443565b60405180910390f35b3480156102f857600080fd5b50610301610af2565b60405161030e919061445e565b60405180910390f35b34801561032357600080fd5b5061033e6004803603810190610339919061428a565b610afc565b005b34801561034c57600080fd5b50610355610b84565b6040516103629190614512565b60405180910390f35b34801561037757600080fd5b50610392600480360381019061038d9190614937565b610c16565b60405161039f919061445e565b60405180910390f35b3480156103b457600080fd5b506103bd610ed0565b6040516103ca919061445e565b60405180910390f35b6103ed60048036038101906103e89190614937565b610eec565b6040516103fa919061445e565b60405180910390f35b34801561040f57600080fd5b5061042a6004803603810190610425919061428a565b61101f565b604051610437919061445e565b60405180910390f35b34801561044c57600080fd5b506104676004803603810190610462919061428a565b61108d565b6040516104779493929190614d91565b60405180910390f35b34801561048c57600080fd5b5061049561134a565b6040516104a2919061445e565b60405180910390f35b3480156104b757600080fd5b506104d260048036038101906104cd9190614e2b565b611353565b6040516104df919061445e565b60405180910390f35b3480156104f457600080fd5b5061050f600480360381019061050a919061428a565b6113dd565b60405161051c9190614f1d565b60405180910390f35b34801561053157600080fd5b5061054c6004803603810190610547919061428a565b6113ef565b005b34801561055a57600080fd5b5061057560048036038101906105709190614f38565b611787565b6040516105829190614443565b60405180910390f35b34801561059757600080fd5b506105a06117f5565b6040516105ad9190614512565b60405180910390f35b3480156105c257600080fd5b506105dd60048036038101906105d89190614f78565b611832565b6040516105ea919061445e565b60405180910390f35b3480156105ff57600080fd5b5061061a60048036038101906106159190615013565b611863565b604051610627919061445e565b60405180910390f35b34801561063c57600080fd5b5061065760048036038101906106529190615128565b6118cb565b604051610664919061445e565b60405180910390f35b34801561067957600080fd5b506106826118e3565b60405161068f919061445e565b60405180910390f35b3480156106a457600080fd5b506106ad6118ec565b6040516106ba919061445e565b60405180910390f35b3480156106cf57600080fd5b506106ea60048036038101906106e5919061524f565b6118f6565b005b3480156106f857600080fd5b50610713600480360381019061070e919061428a565b61197e565b604051610720919061445e565b60405180910390f35b34801561073557600080fd5b5061073e611a4b565b60405161074b919061445e565b60405180910390f35b34801561076057600080fd5b5061077b6004803603810190610776919061428a565b611a5c565b604051610788919061445e565b60405180910390f35b34801561079d57600080fd5b506107b860048036038101906107b391906152d2565b611aca565b005b3480156107c657600080fd5b506107e160048036038101906107dc9190614937565b611b9c565b6040516107ee919061445e565b60405180910390f35b34801561080357600080fd5b5061080c611bd8565b6040516108199190615346565b60405180910390f35b34801561082e57600080fd5b5061084960048036038101906108449190615442565b611c02565b604051610856919061445e565b60405180910390f35b34801561086b57600080fd5b50610874611c39565b6040516108819190614512565b60405180910390f35b34801561089657600080fd5b506108b160048036038101906108ac919061428a565b611c76565b005b3480156108bf57600080fd5b506108c8611f2b565b6040516108d59190615558565b60405180910390f35b3480156108ea57600080fd5b5061090560048036038101906109009190614f38565b611f4f565b60405161091291906155fa565b60405180910390f35b34801561092757600080fd5b50610942600480360381019061093d9190615615565b612033565b60405161094f919061445e565b60405180910390f35b34801561096457600080fd5b5061097f600480360381019061097a919061428a565b612047565b60405161098c919061445e565b60405180910390f35b3480156109a157600080fd5b506109aa612059565b6040516109b791906156b4565b60405180910390f35b6109da60048036038101906109d5919061428a565b61207d565b005b60006109e6612332565b905090565b6000806000806000806000806000808a9950610a068b61197e565b9750610a118b61101f565b9650610a1c8b611a5c565b95506000600460008d815260200190815260200160002090508060000160009054906101000a900473ffffffffffffffffffffffffffffffffffffffff1699508060050154955080600601549450806007015493506000610a7c8d6113dd565b905060026007811115610a9257610a91614ea6565b5b816007811115610aa557610aa4614ea6565b5b149350600780811115610abb57610aba614ea6565b5b816007811115610ace57610acd614ea6565b5b14925050509193959799509193959799565b6000610aeb8261235c565b9050919050565b600061b2fa905090565b610b046109dc565b73ffffffffffffffffffffffffffffffffffffffff16610b226123d6565b73ffffffffffffffffffffffffffffffffffffffff1614610b78576040517f08c379a0000000000000000000000000000000000000000000000000000000008152600401610b6f9061571b565b60405180910390fd5b610b81816123de565b50565b606060008054610b939061576a565b80601f0160208091040260200160405190810160405280929190818152602001828054610bbf9061576a565b8015610c0c5780601f10610be157610100808354040283529160200191610c0c565b820191906000526020600020905b815481529060010190602001808311610bef57829003601f168201915b5050505050905090565b600080610c2586868686611b9c565b905060046007811115610c3b57610c3a614ea6565b5b610c44826113dd565b6007811115610c5657610c55614ea6565b5b14610c96576040517f08c379a0000000000000000000000000000000000000000000000000000000008152600401610c8d9061580e565b60405180910390fd5b6000600260009054906101000a900473ffffffffffffffffffffffffffffffffffffffff1673ffffffffffffffffffffffffffffffffffffffff1663f27a0c926040518163ffffffff1660e01b8152600401602060405180830381865afa158015610d05573d6000803e3d6000fd5b505050506040513d601f19601f82011682018060405250810190610d299190615843565b9050600260009054906101000a900473ffffffffffffffffffffffffffffffffffffffff1673ffffffffffffffffffffffffffffffffffffffff1663b1c5f4278888886000896040518663ffffffff1660e01b8152600401610d8f9594939291906158b8565b602060405180830381865afa158015610dac573d6000803e3d6000fd5b505050506040513d601f19601f82011682018060405250810190610dd09190615935565b6003600084815260200190815260200160002081905550600260009054906101000a900473ffffffffffffffffffffffffffffffffffffffff1673ffffffffffffffffffffffffffffffffffffffff16638f2a0bb0888888600089876040518763ffffffff1660e01b8152600401610e4d96959493929190615962565b600060405180830381600087803b158015610e6757600080fd5b505af1158015610e7b573d6000803e3d6000fd5b505050507f9a2e42fd6722813d69113e7d0079d3d940171428df7373df9c7f7617cfda2892828242610ead9190615a07565b604051610ebb929190615a5d565b60405180910390a18192505050949350505050565b6000610ee7600143610ee29190615a86565b612047565b905090565b600080610efb86868686611b9c565b90506000610f08826113dd565b905060046007811115610f1e57610f1d614ea6565b5b816007811115610f3157610f30614ea6565b5b1480610f61575060056007811115610f4c57610f4b614ea6565b5b816007811115610f5f57610f5e614ea6565b5b145b610fa0576040517f08c379a0000000000000000000000000000000000000000000000000000000008152600401610f979061580e565b60405180910390fd5b600180600084815260200190815260200160002060020160006101000a81548160ff0219169083151502179055507f712ae1383f79ac853f8d882153778e0260ef8f03b504e2866e0593e04d2b291f82604051610ffd919061445e565b60405180910390a16110128288888888612473565b8192505050949350505050565b600061107c600160008481526020019081526020016000206000016040518060200160405290816000820160009054906101000a900467ffffffffffffffff1667ffffffffffffffff1667ffffffffffffffff1681525050612487565b67ffffffffffffffff169050919050565b6060806060806000600460008781526020019081526020016000209050806001018160020182600301836004018380548060200260200160405190810160405280929190818152602001828054801561113b57602002820191906000526020600020905b8160009054906101000a900473ffffffffffffffffffffffffffffffffffffffff1673ffffffffffffffffffffffffffffffffffffffff16815260200190600101908083116110f1575b505050505093508280548060200260200160405190810160405280929190818152602001828054801561118d57602002820191906000526020600020905b815481526020019060010190808311611179575b5050505050925081805480602002602001604051908101604052809291908181526020016000905b828210156112615783829060005260206000200180546111d49061576a565b80601f01602080910402602001604051908101604052809291908181526020018280546112009061576a565b801561124d5780601f106112225761010080835404028352916020019161124d565b820191906000526020600020905b81548152906001019060200180831161123057829003601f168201915b5050505050815260200190600101906111b5565b50505050915080805480602002602001604051908101604052809291908181526020016000905b828210156113345783829060005260206000200180546112a79061576a565b80601f01602080910402602001604051908101604052809291908181526020018280546112d39061576a565b80156113205780601f106112f557610100808354040283529160200191611320565b820191906000526020600020905b81548152906001019060200180831161130357829003601f168201915b505050505081526020019060010190611288565b5050505090509450945094509450509193509193565b60006001905090565b6000806113b46113ac7f150214d74d59b7d1e90c73fc22ef3d991dd0a76b046543d4d80ab92d2a50328f898960405160200161139193929190615ac9565b60405160208183030381529060405280519060200120612495565b8686866124af565b90506113d1878288604051806020016040528060008152506124da565b91505095945050505050565b60006113e88261262e565b9050919050565b60006004600083815260200190815260200160002090508060000160009054906101000a900473ffffffffffffffffffffffffffffffffffffffff1673ffffffffffffffffffffffffffffffffffffffff166114496123d6565b73ffffffffffffffffffffffffffffffffffffffff1614806114aa575061146e611a4b565b6114a88260000160009054906101000a900473ffffffffffffffffffffffffffffffffffffffff166001436114a39190615a86565b612033565b105b6114e9576040517f08c379a00000000000000000000000000000000000000000000000000000000081526004016114e090615b72565b60405180910390fd5b6117828160010180548060200260200160405190810160405280929190818152602001828054801561157057602002820191906000526020600020905b8160009054906101000a900473ffffffffffffffffffffffffffffffffffffffff1673ffffffffffffffffffffffffffffffffffffffff1681526020019060010190808311611526575b5050505050826002018054806020026020016040519081016040528092919081815260200182805480156115c357602002820191906000526020600020905b8154815260200190600101908083116115af575b505050505061177884600301805480602002602001604051908101604052809291908181526020016000905b8282101561169b57838290600052602060002001805461160e9061576a565b80601f016020809104026020016040519081016040528092919081815260200182805461163a9061576a565b80156116875780601f1061165c57610100808354040283529160200191611687565b820191906000526020600020905b81548152906001019060200180831161166a57829003601f168201915b5050505050815260200190600101906115ef565b5050505085600401805480602002602001604051908101604052809291908181526020016000905b8282101561176f5783829060005260206000200180546116e29061576a565b80601f016020809104026020016040519081016040528092919081815260200182805461170e9061576a565b801561175b5780601f106117305761010080835404028352916020019161175b565b820191906000526020600020905b81548152906001019060200180831161173e57829003601f168201915b5050505050815260200190600101906116c3565b50505050612802565b846009015461293e565b505050565b60006004600084815260200190815260200160002060080160008373ffffffffffffffffffffffffffffffffffffffff1673ffffffffffffffffffffffffffffffffffffffff16815260200190815260200160002060000160009054906101000a900460ff16905092915050565b60606040518060400160405280600181526020017f3100000000000000000000000000000000000000000000000000000000000000815250905090565b60008061183d6123d6565b905061185a848285604051806020016040528060008152506124da565b91505092915050565b60008061186e6123d6565b90506118c086828787878080601f016020809104026020016040519081016040528093929190818152602001838380828437600081840152601f19601f820116905080830192505050505050506124da565b915050949350505050565b60006118d985858585612956565b9050949350505050565b60006064905090565b6000600554905090565b6118fe6109dc565b73ffffffffffffffffffffffffffffffffffffffff1661191c6123d6565b73ffffffffffffffffffffffffffffffffffffffff1614611972576040517f08c379a00000000000000000000000000000000000000000000000000000000081526004016119699061571b565b60405180910390fd5b61197b816129d1565b50565b600080600260009054906101000a900473ffffffffffffffffffffffffffffffffffffffff1673ffffffffffffffffffffffffffffffffffffffff1663d45c443560036000868152602001908152602001600020546040518263ffffffff1660e01b81526004016119ef9190615558565b602060405180830381865afa158015611a0c573d6000803e3d6000fd5b505050506040513d601f19601f82011682018060405250810190611a309190615843565b905060018114611a405780611a43565b60005b915050919050565b6000683635c9adc5dea00000905090565b6000611ab9600160008481526020019081526020016000206001016040518060200160405290816000820160009054906101000a900467ffffffffffffffff1667ffffffffffffffff1667ffffffffffffffff1681525050612487565b67ffffffffffffffff169050919050565b611ad26109dc565b73ffffffffffffffffffffffffffffffffffffffff16611af06123d6565b73ffffffffffffffffffffffffffffffffffffffff1614611b46576040517f08c379a0000000000000000000000000000000000000000000000000000000008152600401611b3d9061571b565b60405180910390fd5b611b958483838080601f016020809104026020016040519081016040528093929190818152602001838380828437600081840152601f19601f8201169050808301925050505050505085612a70565b5050505050565b600084848484604051602001611bb59493929190615b92565b6040516020818303038152906040528051906020012060001c9050949350505050565b6000600260009054906101000a900473ffffffffffffffffffffffffffffffffffffffff16905090565b6000611c19611c0f6123d6565b8787878787612a9f565b611c2e8686611c288787612802565b856118cb565b905095945050505050565b60606040518060400160405280601a81526020017f737570706f72743d627261766f2671756f72756d3d627261766f000000000000815250905090565b6000600460008381526020019081526020016000209050611f2681600101805480602002602001604051908101604052809291908181526020018280548015611d1457602002820191906000526020600020905b8160009054906101000a900473ffffffffffffffffffffffffffffffffffffffff1673ffffffffffffffffffffffffffffffffffffffff1681526020019060010190808311611cca575b505050505082600201805480602002602001604051908101604052809291908181526020018280548015611d6757602002820191906000526020600020905b815481526020019060010190808311611d53575b5050505050611f1c84600301805480602002602001604051908101604052809291908181526020016000905b82821015611e3f578382906000526020600020018054611db29061576a565b80601f0160208091040260200160405190810160405280929190818152602001828054611dde9061576a565b8015611e2b5780601f10611e0057610100808354040283529160200191611e2b565b820191906000526020600020905b815481529060010190602001808311611e0e57829003601f168201915b505050505081526020019060010190611d93565b5050505085600401805480602002602001604051908101604052809291908181526020016000905b82821015611f13578382906000526020600020018054611e869061576a565b80601f0160208091040260200160405190810160405280929190818152602001828054611eb29061576a565b8015611eff5780601f10611ed457610100808354040283529160200191611eff565b820191906000526020600020905b815481529060010190602001808311611ee257829003601f168201915b505050505081526020019060010190611e67565b50505050612802565b8460090154610c16565b505050565b7f150214d74d59b7d1e90c73fc22ef3d991dd0a76b046543d4d80ab92d2a50328f81565b611f57613e84565b6004600084815260200190815260200160002060080160008373ffffffffffffffffffffffffffffffffffffffff1673ffffffffffffffffffffffffffffffffffffffff1681526020019081526020016000206040518060600160405290816000820160009054906101000a900460ff161515151581526020016000820160019054906101000a900460ff1660ff1660ff1681526020016000820160029054906101000a90046bffffffffffffffffffffffff166bffffffffffffffffffffffff166bffffffffffffffffffffffff1681525050905092915050565b600061203f8383612ba6565b905092915050565b600061205282612c4c565b9050919050565b7f000000000000000000000000000000000000000000000000000000000000000081565b600060046000838152602001908152602001600020905061232d8160010180548060200260200160405190810160405280929190818152602001828054801561211b57602002820191906000526020600020905b8160009054906101000a900473ffffffffffffffffffffffffffffffffffffffff1673ffffffffffffffffffffffffffffffffffffffff16815260200190600101908083116120d1575b50505050508260020180548060200260200160405190810160405280929190818152602001828054801561216e57602002820191906000526020600020905b81548152602001906001019080831161215a575b505050505061232384600301805480602002602001604051908101604052809291908181526020016000905b828210156122465783829060005260206000200180546121b99061576a565b80601f01602080910402602001604051908101604052809291908181526020018280546121e59061576a565b80156122325780601f1061220757610100808354040283529160200191612232565b820191906000526020600020905b81548152906001019060200180831161221557829003601f168201915b50505050508152602001906001019061219a565b5050505085600401805480602002602001604051908101604052809291908181526020016000905b8282101561231a57838290600052602060002001805461228d9061576a565b80601f01602080910402602001604051908101604052809291908181526020018280546122b99061576a565b80156123065780601f106122db57610100808354040283529160200191612306565b820191906000526020600020905b8154815290600101906020018083116122e957829003601f168201915b50505050508152602001906001019061226e565b50505050612802565b8460090154610eec565b505050565b6000600260009054906101000a900473ffffffffffffffffffffffffffffffffffffffff16905090565b60007f6e665ced000000000000000000000000000000000000000000000000000000007bffffffffffffffffffffffffffffffffffffffffffffffffffffffff1916827bffffffffffffffffffffffffffffffffffffffffffffffffffffffff191614806123cf57506123ce82612d13565b5b9050919050565b600033905090565b6123e66118e3565b811115612428576040517f08c379a000000000000000000000000000000000000000000000000000000000815260040161241f90615c84565b60405180910390fd5b60006005549050816005819055507f0553476bf02ef2726e8ce5ced78d63e26e602e4a2257b1f559418e24b46339978183604051612467929190615a5d565b60405180910390a15050565b6124808585858585612d8d565b5050505050565b600081600001519050919050565b60006124a86124a2612e2b565b83612f45565b9050919050565b60008060006124c087878787612f78565b915091506124cd81613085565b8192505050949350505050565b6000806001600087815260200190815260200160002090506001600781111561250657612505614ea6565b5b61250f876113dd565b600781111561252157612520614ea6565b5b14612561576040517f08c379a000000000000000000000000000000000000000000000000000000000815260040161255890615d16565b60405180910390fd5b60006125bf866125b0846000016040518060200160405290816000820160009054906101000a900467ffffffffffffffff1667ffffffffffffffff1667ffffffffffffffff1681525050612487565b67ffffffffffffffff16612033565b90506125cd8787878461325a565b8573ffffffffffffffffffffffffffffffffffffffff167fb8e138887d0aa13bab447e82de9d5c1777041ecd21ca36ba824ff1e6c07ddda4888784886040516126199493929190615d36565b60405180910390a28092505050949350505050565b60008061263a83613484565b9050600460078111156126505761264f614ea6565b5b81600781111561266357612662614ea6565b5b1461267157809150506127fd565b6000600360008581526020019081526020016000205490506000801b81141561269e5781925050506127fd565b600260009054906101000a900473ffffffffffffffffffffffffffffffffffffffff1673ffffffffffffffffffffffffffffffffffffffff16632ab0f529826040518263ffffffff1660e01b81526004016126f99190615558565b602060405180830381865afa158015612716573d6000803e3d6000fd5b505050506040513d601f19601f8201168201806040525081019061273a9190615dae565b1561274a576007925050506127fd565b600260009054906101000a900473ffffffffffffffffffffffffffffffffffffffff1673ffffffffffffffffffffffffffffffffffffffff1663584b153e826040518263ffffffff1660e01b81526004016127a59190615558565b602060405180830381865afa1580156127c2573d6000803e3d6000fd5b505050506040513d601f19601f820116820180604052508101906127e69190615dae565b156127f6576005925050506127fd565b6002925050505b919050565b60606000825167ffffffffffffffff81111561282157612820614539565b5b60405190808252806020026020018201604052801561285457816020015b606081526020019060019003908161283f5790505b50905060005b845181101561293357600085828151811061287857612877615ddb565b5b602002602001015151146128e85784818151811061289957612898615ddb565b5b6020026020010151805190602001208482815181106128bb576128ba615ddb565b5b60200260200101516040516020016128d4929190615e67565b604051602081830303815290604052612904565b8381815181106128fb576128fa615ddb565b5b60200260200101515b82828151811061291757612916615ddb565b5b60200260200101819052508061292c90615e8f565b905061285a565b508091505092915050565b600061294c85858585613599565b9050949350505050565b60006129bb6129636123d6565b8686865167ffffffffffffffff8111156129805761297f614539565b5b6040519080825280602002602001820160405280156129b357816020015b606081526020019060019003908161299e5790505b508787612a9f565b6129c78585858561368b565b9050949350505050565b7f08f74ea46ef7894f65eabfb5e6e695de773a000b47c529ab559178069b226401600260009054906101000a900473ffffffffffffffffffffffffffffffffffffffff1682604051612a24929190615ed8565b60405180910390a180600260006101000a81548173ffffffffffffffffffffffffffffffffffffffff021916908373ffffffffffffffffffffffffffffffffffffffff16021790555050565b6060612a96848484604051806060016040528060298152602001616ad86029913961398b565b90509392505050565b6000818051906020012090506000612ac28787612abc8888612802565b85611b9c565b905060006004600083815260200190815260200160002090506000801b81600901541415612b9b57888160000160006101000a81548173ffffffffffffffffffffffffffffffffffffffff021916908373ffffffffffffffffffffffffffffffffffffffff16021790555087816001019080519060200190612b45929190613eb8565b5086816002019080519060200190612b5e929190613f42565b5085816003019080519060200190612b77929190613f8f565b5084816004019080519060200190612b90929190613fef565b508281600901819055505b505050505050505050565b60007f000000000000000000000000000000000000000000000000000000000000000073ffffffffffffffffffffffffffffffffffffffff16633a46b1a884846040518363ffffffff1660e01b8152600401612c03929190615f01565b602060405180830381865afa158015612c20573d6000803e3d6000fd5b505050506040513d601f19601f82011682018060405250810190612c449190615843565b905092915050565b6000612c566118e3565b612c5e6118ec565b7f000000000000000000000000000000000000000000000000000000000000000073ffffffffffffffffffffffffffffffffffffffff16638e539e8c856040518263ffffffff1660e01b8152600401612cb7919061445e565b602060405180830381865afa158015612cd4573d6000803e3d6000fd5b505050506040513d601f19601f82011682018060405250810190612cf89190615843565b612d029190615f2a565b612d0c9190615fb3565b9050919050565b60007fbf26d897000000000000000000000000000000000000000000000000000000007bffffffffffffffffffffffffffffffffffffffffffffffffffffffff1916827bffffffffffffffffffffffffffffffffffffffffffffffffffffffff19161480612d865750612d8582613a9f565b5b9050919050565b600260009054906101000a900473ffffffffffffffffffffffffffffffffffffffff1673ffffffffffffffffffffffffffffffffffffffff1663e38335e5348686866000876040518763ffffffff1660e01b8152600401612df29594939291906158b8565b6000604051808303818588803b158015612e0b57600080fd5b505af1158015612e1f573d6000803e3d6000fd5b50505050505050505050565b60007f000000000000000000000000000000000000000000000000000000000000000073ffffffffffffffffffffffffffffffffffffffff163073ffffffffffffffffffffffffffffffffffffffff16148015612ea757507f000000000000000000000000000000000000000000000000000000000000000046145b15612ed4577f00000000000000000000000000000000000000000000000000000000000000009050612f42565b612f3f7f00000000000000000000000000000000000000000000000000000000000000007f00000000000000000000000000000000000000000000000000000000000000007f0000000000000000000000000000000000000000000000000000000000000000613b09565b90505b90565b60008282604051602001612f5a92919061605c565b60405160208183030381529060405280519060200120905092915050565b6000807f7fffffffffffffffffffffffffffffff5d576e7357a4501ddfe92f46681b20a08360001c1115612fb357600060039150915061307c565b601b8560ff1614158015612fcb5750601c8560ff1614155b15612fdd57600060049150915061307c565b6000600187878787604051600081526020016040526040516130029493929190616093565b6020604051602081039080840390855afa158015613024573d6000803e3d6000fd5b505050602060405103519050600073ffffffffffffffffffffffffffffffffffffffff168173ffffffffffffffffffffffffffffffffffffffff1614156130735760006001925092505061307c565b80600092509250505b94509492505050565b6000600481111561309957613098614ea6565b5b8160048111156130ac576130ab614ea6565b5b14156130b757613257565b600160048111156130cb576130ca614ea6565b5b8160048111156130de576130dd614ea6565b5b141561311f576040517f08c379a000000000000000000000000000000000000000000000000000000000815260040161311690616124565b60405180910390fd5b6002600481111561313357613132614ea6565b5b81600481111561314657613145614ea6565b5b1415613187576040517f08c379a000000000000000000000000000000000000000000000000000000000815260040161317e90616190565b60405180910390fd5b6003600481111561319b5761319a614ea6565b5b8160048111156131ae576131ad614ea6565b5b14156131ef576040517f08c379a00000000000000000000000000000000000000000000000000000000081526004016131e690616222565b60405180910390fd5b60048081111561320257613201614ea6565b5b81600481111561321557613214614ea6565b5b1415613256576040517f08c379a000000000000000000000000000000000000000000000000000000000815260040161324d906162b4565b60405180910390fd5b5b50565b600060046000868152602001908152602001600020905060008160080160008673ffffffffffffffffffffffffffffffffffffffff1673ffffffffffffffffffffffffffffffffffffffff16815260200190815260200160002090508060000160009054906101000a900460ff1615613308576040517f08c379a00000000000000000000000000000000000000000000000000000000081526004016132ff90616346565b60405180910390fd5b60018160000160006101000a81548160ff021916908315150217905550838160000160016101000a81548160ff021916908360ff16021790555061334b83613b43565b8160000160026101000a8154816bffffffffffffffffffffffff02191690836bffffffffffffffffffffffff1602179055506000600281111561339157613390614ea6565b5b60ff168460ff1614156133be57828260060160008282546133b29190615a07565b9250508190555061347c565b600160028111156133d2576133d1614ea6565b5b60ff168460ff1614156133ff57828260050160008282546133f39190615a07565b9250508190555061347b565b60028081111561341257613411614ea6565b5b60ff168460ff16141561343f57828260070160008282546134339190615a07565b9250508190555061347a565b6040517f08c379a0000000000000000000000000000000000000000000000000000000008152600401613471906163d8565b60405180910390fd5b5b5b505050505050565b6000806001600084815260200190815260200160002090508060020160009054906101000a900460ff16156134bd576007915050613594565b8060020160019054906101000a900460ff16156134de576002915050613594565b60006134e98461101f565b9050600081141561352f576040517f08c379a000000000000000000000000000000000000000000000000000000000815260040161352690616444565b60405180910390fd5b43811061354157600092505050613594565b600061354c85611a5c565b90504381106135615760019350505050613594565b61356a85613b9e565b801561357b575061357a85613bd6565b5b1561358c5760049350505050613594565b600393505050505b919050565b6000806135a886868686613c01565b90506000801b60036000838152602001908152602001600020541461367f57600260009054906101000a900473ffffffffffffffffffffffffffffffffffffffff1673ffffffffffffffffffffffffffffffffffffffff1663c4d252f560036000848152602001908152602001600020546040518263ffffffff1660e01b81526004016136359190615558565b600060405180830381600087803b15801561364f57600080fd5b505af1158015613663573d6000803e3d6000fd5b5050505060036000828152602001908152602001600020600090555b80915050949350505050565b6000613695611a4b565b6136ab336001436136a69190615a86565b612033565b10156136ec576040517f08c379a00000000000000000000000000000000000000000000000000000000081526004016136e3906164fc565b60405180910390fd5b60006137018686868680519060200120611b9c565b90508451865114613747576040517f08c379a000000000000000000000000000000000000000000000000000000000815260040161373e9061658e565b60405180910390fd5b835186511461378b576040517f08c379a00000000000000000000000000000000000000000000000000000000081526004016137829061658e565b60405180910390fd5b60008651116137cf576040517f08c379a00000000000000000000000000000000000000000000000000000000081526004016137c6906165fa565b60405180910390fd5b600060016000838152602001908152602001600020905061382f816000016040518060200160405290816000820160009054906101000a900467ffffffffffffffff1667ffffffffffffffff1667ffffffffffffffff1681525050613d5a565b61386e576040517f08c379a00000000000000000000000000000000000000000000000000000000081526004016138659061668c565b60405180910390fd5b600061388061387b61134a565b613d74565b61388943613d74565b61389391906166c0565b905060006138a76138a2610af2565b613d74565b826138b291906166c0565b90506138ca8284600001613dcb90919063ffffffff16565b6138e08184600101613dcb90919063ffffffff16565b7f7d84a6263ae0d98d3329bd7b46bb4e8d6f98cd35a7adb45c274c8b7fd5ebd5e08461390a6123d6565b8b8b8d5167ffffffffffffffff81111561392757613926614539565b5b60405190808252806020026020018201604052801561395a57816020015b60608152602001906001900390816139455790505b508c88888e6040516139749998979695949392919061672f565b60405180910390a183945050505050949350505050565b6060824710156139d0576040517f08c379a00000000000000000000000000000000000000000000000000000000081526004016139c790616851565b60405180910390fd5b6139d985613dfa565b613a18576040517f08c379a0000000000000000000000000000000000000000000000000000000008152600401613a0f906168bd565b60405180910390fd5b6000808673ffffffffffffffffffffffffffffffffffffffff168587604051613a4191906168dd565b60006040518083038185875af1925050503d8060008114613a7e576040519150601f19603f3d011682016040523d82523d6000602084013e613a83565b606091505b5091509150613a93828286613e1d565b92505050949350505050565b60007f01ffc9a7000000000000000000000000000000000000000000000000000000007bffffffffffffffffffffffffffffffffffffffffffffffffffffffff1916827bffffffffffffffffffffffffffffffffffffffffffffffffffffffff1916149050919050565b60008383834630604051602001613b249594939291906168f4565b6040516020818303038152906040528051906020012090509392505050565b60006bffffffffffffffffffffffff8016821115613b96576040517f08c379a0000000000000000000000000000000000000000000000000000000008152600401613b8d906169b9565b60405180910390fd5b819050919050565b6000806004600084815260200190815260200160002090508060050154613bcc613bc78561101f565b612047565b1115915050919050565b6000806004600084815260200190815260200160002090508060060154816005015411915050919050565b600080613c1086868686611b9c565b90506000613c1d826113dd565b905060026007811115613c3357613c32614ea6565b5b816007811115613c4657613c45614ea6565b5b14158015613c79575060066007811115613c6357613c62614ea6565b5b816007811115613c7657613c75614ea6565b5b14155b8015613ca95750600780811115613c9357613c92614ea6565b5b816007811115613ca657613ca5614ea6565b5b14155b613ce8576040517f08c379a0000000000000000000000000000000000000000000000000000000008152600401613cdf90616a25565b60405180910390fd5b600180600084815260200190815260200160002060020160016101000a81548160ff0219169083151502179055507f789cf55be980739dad1d0699b93b58e806b51c9d96619bfa8fe0a28abaa7b30c82604051613d45919061445e565b60405180910390a18192505050949350505050565b600080826000015167ffffffffffffffff16149050919050565b600067ffffffffffffffff8016821115613dc3576040517f08c379a0000000000000000000000000000000000000000000000000000000008152600401613dba90616ab7565b60405180910390fd5b819050919050565b808260000160006101000a81548167ffffffffffffffff021916908367ffffffffffffffff1602179055505050565b6000808273ffffffffffffffffffffffffffffffffffffffff163b119050919050565b60608315613e2d57829050613e7d565b600083511115613e405782518084602001fd5b816040517f08c379a0000000000000000000000000000000000000000000000000000000008152600401613e749190614512565b60405180910390fd5b9392505050565b6040518060600160405280600015158152602001600060ff16815260200160006bffffffffffffffffffffffff1681525090565b828054828255906000526020600020908101928215613f31579160200282015b82811115613f305782518260006101000a81548173ffffffffffffffffffffffffffffffffffffffff021916908373ffffffffffffffffffffffffffffffffffffffff16021790555091602001919060010190613ed8565b5b509050613f3e919061404f565b5090565b828054828255906000526020600020908101928215613f7e579160200282015b82811115613f7d578251825591602001919060010190613f62565b5b509050613f8b919061404f565b5090565b828054828255906000526020600020908101928215613fde579160200282015b82811115613fdd578251829080519060200190613fcd92919061406c565b5091602001919060010190613faf565b5b509050613feb91906140f2565b5090565b82805482825590600052602060002090810192821561403e579160200282015b8281111561403d57825182908051906020019061402d929190614116565b509160200191906001019061400f565b5b50905061404b919061419c565b5090565b5b80821115614068576000816000905550600101614050565b5090565b8280546140789061576a565b90600052602060002090601f01602090048101928261409a57600085556140e1565b82601f106140b357805160ff19168380011785556140e1565b828001600101855582156140e1579182015b828111156140e05782518255916020019190600101906140c5565b5b5090506140ee919061404f565b5090565b5b80821115614112576000818161410991906141c0565b506001016140f3565b5090565b8280546141229061576a565b90600052602060002090601f016020900481019282614144576000855561418b565b82601f1061415d57805160ff191683800117855561418b565b8280016001018555821561418b579182015b8281111561418a57825182559160200191906001019061416f565b5b509050614198919061404f565b5090565b5b808211156141bc57600081816141b39190614200565b5060010161419d565b5090565b5080546141cc9061576a565b6000825580601f106141de57506141fd565b601f0160209004906000526020600020908101906141fc919061404f565b5b50565b50805461420c9061576a565b6000825580601f1061421e575061423d565b601f01602090049060005260206000209081019061423c919061404f565b5b50565b6000604051905090565b600080fd5b600080fd5b6000819050919050565b61426781614254565b811461427257600080fd5b50565b6000813590506142848161425e565b92915050565b6000602082840312156142a05761429f61424a565b5b60006142ae84828501614275565b91505092915050565b6142c081614254565b82525050565b600073ffffffffffffffffffffffffffffffffffffffff82169050919050565b60006142f1826142c6565b9050919050565b614301816142e6565b82525050565b60008115159050919050565b61431c81614307565b82525050565b600061014082019050614338600083018d6142b7565b614345602083018c6142f8565b614352604083018b6142b7565b61435f606083018a6142b7565b61436c60808301896142b7565b61437960a08301886142b7565b61438660c08301876142b7565b61439360e08301866142b7565b6143a1610100830185614313565b6143af610120830184614313565b9b9a5050505050505050505050565b60007fffffffff0000000000000000000000000000000000000000000000000000000082169050919050565b6143f3816143be565b81146143fe57600080fd5b50565b600081359050614410816143ea565b92915050565b60006020828403121561442c5761442b61424a565b5b600061443a84828501614401565b91505092915050565b60006020820190506144586000830184614313565b92915050565b600060208201905061447360008301846142b7565b92915050565b600081519050919050565b600082825260208201905092915050565b60005b838110156144b3578082015181840152602081019050614498565b838111156144c2576000848401525b50505050565b6000601f19601f8301169050919050565b60006144e482614479565b6144ee8185614484565b93506144fe818560208601614495565b614507816144c8565b840191505092915050565b6000602082019050818103600083015261452c81846144d9565b905092915050565b600080fd5b7f4e487b7100000000000000000000000000000000000000000000000000000000600052604160045260246000fd5b614571826144c8565b810181811067ffffffffffffffff821117156145905761458f614539565b5b80604052505050565b60006145a3614240565b90506145af8282614568565b919050565b600067ffffffffffffffff8211156145cf576145ce614539565b5b602082029050602081019050919050565b600080fd5b6145ee816142e6565b81146145f957600080fd5b50565b60008135905061460b816145e5565b92915050565b600061462461461f846145b4565b614599565b90508083825260208201905060208402830185811115614647576146466145e0565b5b835b81811015614670578061465c88826145fc565b845260208401935050602081019050614649565b5050509392505050565b600082601f83011261468f5761468e614534565b5b813561469f848260208601614611565b91505092915050565b600067ffffffffffffffff8211156146c3576146c2614539565b5b602082029050602081019050919050565b60006146e76146e2846146a8565b614599565b9050808382526020820190506020840283018581111561470a576147096145e0565b5b835b81811015614733578061471f8882614275565b84526020840193505060208101905061470c565b5050509392505050565b600082601f83011261475257614751614534565b5b81356147628482602086016146d4565b91505092915050565b600067ffffffffffffffff82111561478657614785614539565b5b602082029050602081019050919050565b600080fd5b600067ffffffffffffffff8211156147b7576147b6614539565b5b6147c0826144c8565b9050602081019050919050565b82818337600083830152505050565b60006147ef6147ea8461479c565b614599565b90508281526020810184848401111561480b5761480a614797565b5b6148168482856147cd565b509392505050565b600082601f83011261483357614832614534565b5b81356148438482602086016147dc565b91505092915050565b600061485f61485a8461476b565b614599565b90508083825260208201905060208402830185811115614882576148816145e0565b5b835b818110156148c957803567ffffffffffffffff8111156148a7576148a6614534565b5b8086016148b4898261481e565b85526020850194505050602081019050614884565b5050509392505050565b600082601f8301126148e8576148e7614534565b5b81356148f884826020860161484c565b91505092915050565b6000819050919050565b61491481614901565b811461491f57600080fd5b50565b6000813590506149318161490b565b92915050565b600080600080608085870312156149515761495061424a565b5b600085013567ffffffffffffffff81111561496f5761496e61424f565b5b61497b8782880161467a565b945050602085013567ffffffffffffffff81111561499c5761499b61424f565b5b6149a88782880161473d565b935050604085013567ffffffffffffffff8111156149c9576149c861424f565b5b6149d5878288016148d3565b92505060606149e687828801614922565b91505092959194509250565b600081519050919050565b600082825260208201905092915050565b6000819050602082019050919050565b614a27816142e6565b82525050565b6000614a398383614a1e565b60208301905092915050565b6000602082019050919050565b6000614a5d826149f2565b614a6781856149fd565b9350614a7283614a0e565b8060005b83811015614aa3578151614a8a8882614a2d565b9750614a9583614a45565b925050600181019050614a76565b5085935050505092915050565b600081519050919050565b600082825260208201905092915050565b6000819050602082019050919050565b614ae581614254565b82525050565b6000614af78383614adc565b60208301905092915050565b6000602082019050919050565b6000614b1b82614ab0565b614b258185614abb565b9350614b3083614acc565b8060005b83811015614b61578151614b488882614aeb565b9750614b5383614b03565b925050600181019050614b34565b5085935050505092915050565b600081519050919050565b600082825260208201905092915050565b6000819050602082019050919050565b600082825260208201905092915050565b6000614bb682614479565b614bc08185614b9a565b9350614bd0818560208601614495565b614bd9816144c8565b840191505092915050565b6000614bf08383614bab565b905092915050565b6000602082019050919050565b6000614c1082614b6e565b614c1a8185614b79565b935083602082028501614c2c85614b8a565b8060005b85811015614c685784840389528151614c498582614be4565b9450614c5483614bf8565b925060208a01995050600181019050614c30565b50829750879550505050505092915050565b600081519050919050565b600082825260208201905092915050565b6000819050602082019050919050565b600081519050919050565b600082825260208201905092915050565b6000614ccd82614ca6565b614cd78185614cb1565b9350614ce7818560208601614495565b614cf0816144c8565b840191505092915050565b6000614d078383614cc2565b905092915050565b6000602082019050919050565b6000614d2782614c7a565b614d318185614c85565b935083602082028501614d4385614c96565b8060005b85811015614d7f5784840389528151614d608582614cfb565b9450614d6b83614d0f565b925060208a01995050600181019050614d47565b50829750879550505050505092915050565b60006080820190508181036000830152614dab8187614a52565b90508181036020830152614dbf8186614b10565b90508181036040830152614dd38185614c05565b90508181036060830152614de78184614d1c565b905095945050505050565b600060ff82169050919050565b614e0881614df2565b8114614e1357600080fd5b50565b600081359050614e2581614dff565b92915050565b600080600080600060a08688031215614e4757614e4661424a565b5b6000614e5588828901614275565b9550506020614e6688828901614e16565b9450506040614e7788828901614e16565b9350506060614e8888828901614922565b9250506080614e9988828901614922565b9150509295509295909350565b7f4e487b7100000000000000000000000000000000000000000000000000000000600052602160045260246000fd5b60088110614ee657614ee5614ea6565b5b50565b6000819050614ef782614ed5565b919050565b6000614f0782614ee9565b9050919050565b614f1781614efc565b82525050565b6000602082019050614f326000830184614f0e565b92915050565b60008060408385031215614f4f57614f4e61424a565b5b6000614f5d85828601614275565b9250506020614f6e858286016145fc565b9150509250929050565b60008060408385031215614f8f57614f8e61424a565b5b6000614f9d85828601614275565b9250506020614fae85828601614e16565b9150509250929050565b600080fd5b60008083601f840112614fd357614fd2614534565b5b8235905067ffffffffffffffff811115614ff057614fef614fb8565b5b60208301915083600182028301111561500c5761500b6145e0565b5b9250929050565b6000806000806060858703121561502d5761502c61424a565b5b600061503b87828801614275565b945050602061504c87828801614e16565b935050604085013567ffffffffffffffff81111561506d5761506c61424f565b5b61507987828801614fbd565b925092505092959194509250565b600067ffffffffffffffff8211156150a2576150a1614539565b5b6150ab826144c8565b9050602081019050919050565b60006150cb6150c684615087565b614599565b9050828152602081018484840111156150e7576150e6614797565b5b6150f28482856147cd565b509392505050565b600082601f83011261510f5761510e614534565b5b813561511f8482602086016150b8565b91505092915050565b600080600080608085870312156151425761514161424a565b5b600085013567ffffffffffffffff8111156151605761515f61424f565b5b61516c8782880161467a565b945050602085013567ffffffffffffffff81111561518d5761518c61424f565b5b6151998782880161473d565b935050604085013567ffffffffffffffff8111156151ba576151b961424f565b5b6151c6878288016148d3565b925050606085013567ffffffffffffffff8111156151e7576151e661424f565b5b6151f3878288016150fa565b91505092959194509250565b600061520a826142c6565b9050919050565b600061521c826151ff565b9050919050565b61522c81615211565b811461523757600080fd5b50565b60008135905061524981615223565b92915050565b6000602082840312156152655761526461424a565b5b60006152738482850161523a565b91505092915050565b60008083601f84011261529257615291614534565b5b8235905067ffffffffffffffff8111156152af576152ae614fb8565b5b6020830191508360018202830111156152cb576152ca6145e0565b5b9250929050565b600080600080606085870312156152ec576152eb61424a565b5b60006152fa878288016145fc565b945050602061530b87828801614275565b935050604085013567ffffffffffffffff81111561532c5761532b61424f565b5b6153388782880161527c565b925092505092959194509250565b600060208201905061535b60008301846142f8565b92915050565b600067ffffffffffffffff82111561537c5761537b614539565b5b602082029050602081019050919050565b60006153a061539b84615361565b614599565b905080838252602082019050602084028301858111156153c3576153c26145e0565b5b835b8181101561540a57803567ffffffffffffffff8111156153e8576153e7614534565b5b8086016153f589826150fa565b855260208501945050506020810190506153c5565b5050509392505050565b600082601f83011261542957615428614534565b5b813561543984826020860161538d565b91505092915050565b600080600080600060a0868803121561545e5761545d61424a565b5b600086013567ffffffffffffffff81111561547c5761547b61424f565b5b6154888882890161467a565b955050602086013567ffffffffffffffff8111156154a9576154a861424f565b5b6154b58882890161473d565b945050604086013567ffffffffffffffff8111156154d6576154d561424f565b5b6154e288828901615414565b935050606086013567ffffffffffffffff8111156155035761550261424f565b5b61550f888289016148d3565b925050608086013567ffffffffffffffff8111156155305761552f61424f565b5b61553c888289016150fa565b9150509295509295909350565b61555281614901565b82525050565b600060208201905061556d6000830184615549565b92915050565b61557c81614307565b82525050565b61558b81614df2565b82525050565b60006bffffffffffffffffffffffff82169050919050565b6155b281615591565b82525050565b6060820160008201516155ce6000850182615573565b5060208201516155e16020850182615582565b5060408201516155f460408501826155a9565b50505050565b600060608201905061560f60008301846155b8565b92915050565b6000806040838503121561562c5761562b61424a565b5b600061563a858286016145fc565b925050602061564b85828601614275565b9150509250929050565b6000819050919050565b600061567a615675615670846142c6565b615655565b6142c6565b9050919050565b600061568c8261565f565b9050919050565b600061569e82615681565b9050919050565b6156ae81615693565b82525050565b60006020820190506156c960008301846156a5565b92915050565b7f476f7665726e6f723a206f6e6c79476f7665726e616e63650000000000000000600082015250565b6000615705601883614484565b9150615710826156cf565b602082019050919050565b60006020820190508181036000830152615734816156f8565b9050919050565b7f4e487b7100000000000000000000000000000000000000000000000000000000600052602260045260246000fd5b6000600282049050600182168061578257607f821691505b602082108114156157965761579561573b565b5b50919050565b7f476f7665726e6f723a2070726f706f73616c206e6f742073756363657373667560008201527f6c00000000000000000000000000000000000000000000000000000000000000602082015250565b60006157f8602183614484565b91506158038261579c565b604082019050919050565b60006020820190508181036000830152615827816157eb565b9050919050565b60008151905061583d8161425e565b92915050565b6000602082840312156158595761585861424a565b5b60006158678482850161582e565b91505092915050565b6000819050919050565b60008160001b9050919050565b60006158a261589d61589884615870565b61587a565b614901565b9050919050565b6158b281615887565b82525050565b600060a08201905081810360008301526158d28188614a52565b905081810360208301526158e68187614b10565b905081810360408301526158fa8186614d1c565b905061590960608301856158a9565b6159166080830184615549565b9695505050505050565b60008151905061592f8161490b565b92915050565b60006020828403121561594b5761594a61424a565b5b600061595984828501615920565b91505092915050565b600060c082019050818103600083015261597c8189614a52565b905081810360208301526159908188614b10565b905081810360408301526159a48187614d1c565b90506159b360608301866158a9565b6159c06080830185615549565b6159cd60a08301846142b7565b979650505050505050565b7f4e487b7100000000000000000000000000000000000000000000000000000000600052601160045260246000fd5b6000615a1282614254565b9150615a1d83614254565b9250827fffffffffffffffffffffffffffffffffffffffffffffffffffffffffffffffff03821115615a5257615a516159d8565b5b828201905092915050565b6000604082019050615a7260008301856142b7565b615a7f60208301846142b7565b9392505050565b6000615a9182614254565b9150615a9c83614254565b925082821015615aaf57615aae6159d8565b5b828203905092915050565b615ac381614df2565b82525050565b6000606082019050615ade6000830186615549565b615aeb60208301856142b7565b615af86040830184615aba565b949350505050565b7f476f7665726e6f72427261766f3a2070726f706f7365722061626f766520746860008201527f726573686f6c6400000000000000000000000000000000000000000000000000602082015250565b6000615b5c602783614484565b9150615b6782615b00565b604082019050919050565b60006020820190508181036000830152615b8b81615b4f565b9050919050565b60006080820190508181036000830152615bac8187614a52565b90508181036020830152615bc08186614b10565b90508181036040830152615bd48185614d1c565b9050615be36060830184615549565b95945050505050565b7f476f7665726e6f72566f74657351756f72756d4672616374696f6e3a2071756f60008201527f72756d4e756d657261746f72206f7665722071756f72756d44656e6f6d696e6160208201527f746f720000000000000000000000000000000000000000000000000000000000604082015250565b6000615c6e604383614484565b9150615c7982615bec565b606082019050919050565b60006020820190508181036000830152615c9d81615c61565b9050919050565b7f476f7665726e6f723a20766f7465206e6f742063757272656e746c792061637460008201527f6976650000000000000000000000000000000000000000000000000000000000602082015250565b6000615d00602383614484565b9150615d0b82615ca4565b604082019050919050565b60006020820190508181036000830152615d2f81615cf3565b9050919050565b6000608082019050615d4b60008301876142b7565b615d586020830186615aba565b615d6560408301856142b7565b8181036060830152615d7781846144d9565b905095945050505050565b615d8b81614307565b8114615d9657600080fd5b50565b600081519050615da881615d82565b92915050565b600060208284031215615dc457615dc361424a565b5b6000615dd284828501615d99565b91505092915050565b7f4e487b7100000000000000000000000000000000000000000000000000000000600052603260045260246000fd5b6000819050919050565b615e25615e20826143be565b615e0a565b82525050565b600081905092915050565b6000615e4182614ca6565b615e4b8185615e2b565b9350615e5b818560208601614495565b80840191505092915050565b6000615e738285615e14565b600482019150615e838284615e36565b91508190509392505050565b6000615e9a82614254565b91507fffffffffffffffffffffffffffffffffffffffffffffffffffffffffffffffff821415615ecd57615ecc6159d8565b5b600182019050919050565b6000604082019050615eed60008301856142f8565b615efa60208301846142f8565b9392505050565b6000604082019050615f1660008301856142f8565b615f2360208301846142b7565b9392505050565b6000615f3582614254565b9150615f4083614254565b9250817fffffffffffffffffffffffffffffffffffffffffffffffffffffffffffffffff0483118215151615615f7957615f786159d8565b5b828202905092915050565b7f4e487b7100000000000000000000000000000000000000000000000000000000600052601260045260246000fd5b6000615fbe82614254565b9150615fc983614254565b925082615fd957615fd8615f84565b5b828204905092915050565b600081905092915050565b7f1901000000000000000000000000000000000000000000000000000000000000600082015250565b6000616025600283615fe4565b915061603082615fef565b600282019050919050565b6000819050919050565b61605661605182614901565b61603b565b82525050565b600061606782616018565b91506160738285616045565b6020820191506160838284616045565b6020820191508190509392505050565b60006080820190506160a86000830187615549565b6160b56020830186615aba565b6160c26040830185615549565b6160cf6060830184615549565b95945050505050565b7f45434453413a20696e76616c6964207369676e61747572650000000000000000600082015250565b600061610e601883614484565b9150616119826160d8565b602082019050919050565b6000602082019050818103600083015261613d81616101565b9050919050565b7f45434453413a20696e76616c6964207369676e6174757265206c656e67746800600082015250565b600061617a601f83614484565b915061618582616144565b602082019050919050565b600060208201905081810360008301526161a98161616d565b9050919050565b7f45434453413a20696e76616c6964207369676e6174757265202773272076616c60008201527f7565000000000000000000000000000000000000000000000000000000000000602082015250565b600061620c602283614484565b9150616217826161b0565b604082019050919050565b6000602082019050818103600083015261623b816161ff565b9050919050565b7f45434453413a20696e76616c6964207369676e6174757265202776272076616c60008201527f7565000000000000000000000000000000000000000000000000000000000000602082015250565b600061629e602283614484565b91506162a982616242565b604082019050919050565b600060208201905081810360008301526162cd81616291565b9050919050565b7f476f7665726e6f72436f6d7061746962696c697479427261766f3a20766f746560008201527f20616c7265616479206361737400000000000000000000000000000000000000602082015250565b6000616330602d83614484565b915061633b826162d4565b604082019050919050565b6000602082019050818103600083015261635f81616323565b9050919050565b7f476f7665726e6f72436f6d7061746962696c697479427261766f3a20696e766160008201527f6c696420766f7465207479706500000000000000000000000000000000000000602082015250565b60006163c2602d83614484565b91506163cd82616366565b604082019050919050565b600060208201905081810360008301526163f1816163b5565b9050919050565b7f476f7665726e6f723a20756e6b6e6f776e2070726f706f73616c206964000000600082015250565b600061642e601d83614484565b9150616439826163f8565b602082019050919050565b6000602082019050818103600083015261645d81616421565b9050919050565b7f476f7665726e6f72436f6d7061746962696c697479427261766f3a2070726f7060008201527f6f73657220766f7465732062656c6f772070726f706f73616c2074687265736860208201527f6f6c640000000000000000000000000000000000000000000000000000000000604082015250565b60006164e6604383614484565b91506164f182616464565b606082019050919050565b60006020820190508181036000830152616515816164d9565b9050919050565b7f476f7665726e6f723a20696e76616c69642070726f706f73616c206c656e677460008201527f6800000000000000000000000000000000000000000000000000000000000000602082015250565b6000616578602183614484565b91506165838261651c565b604082019050919050565b600060208201905081810360008301526165a78161656b565b9050919050565b7f476f7665726e6f723a20656d7074792070726f706f73616c0000000000000000600082015250565b60006165e4601883614484565b91506165ef826165ae565b602082019050919050565b60006020820190508181036000830152616613816165d7565b9050919050565b7f476f7665726e6f723a2070726f706f73616c20616c726561647920657869737460008201527f7300000000000000000000000000000000000000000000000000000000000000602082015250565b6000616676602183614484565b91506166818261661a565b604082019050919050565b600060208201905081810360008301526166a581616669565b9050919050565b600067ffffffffffffffff82169050919050565b60006166cb826166ac565b91506166d6836166ac565b92508267ffffffffffffffff038211156166f3576166f26159d8565b5b828201905092915050565b600061671961671461670f846166ac565b615655565b614254565b9050919050565b616729816166fe565b82525050565b600061012082019050616745600083018c6142b7565b616752602083018b6142f8565b8181036040830152616764818a614a52565b905081810360608301526167788189614b10565b9050818103608083015261678c8188614c05565b905081810360a08301526167a08187614d1c565b90506167af60c0830186616720565b6167bc60e0830185616720565b8181036101008301526167cf81846144d9565b90509a9950505050505050505050565b7f416464726573733a20696e73756666696369656e742062616c616e636520666f60008201527f722063616c6c0000000000000000000000000000000000000000000000000000602082015250565b600061683b602683614484565b9150616846826167df565b604082019050919050565b6000602082019050818103600083015261686a8161682e565b9050919050565b7f416464726573733a2063616c6c20746f206e6f6e2d636f6e7472616374000000600082015250565b60006168a7601d83614484565b91506168b282616871565b602082019050919050565b600060208201905081810360008301526168d68161689a565b9050919050565b60006168e98284615e36565b915081905092915050565b600060a0820190506169096000830188615549565b6169166020830187615549565b6169236040830186615549565b61693060608301856142b7565b61693d60808301846142f8565b9695505050505050565b7f53616665436173743a2076616c756520646f65736e27742066697420696e203960008201527f3620626974730000000000000000000000000000000000000000000000000000602082015250565b60006169a3602683614484565b91506169ae82616947565b604082019050919050565b600060208201905081810360008301526169d281616996565b9050919050565b7f476f7665726e6f723a2070726f706f73616c206e6f7420616374697665000000600082015250565b6000616a0f601d83614484565b9150616a1a826169d9565b602082019050919050565b60006020820190508181036000830152616a3e81616a02565b9050919050565b7f53616665436173743a2076616c756520646f65736e27742066697420696e203660008201527f3420626974730000000000000000000000000000000000000000000000000000602082015250565b6000616aa1602683614484565b9150616aac82616a45565b604082019050919050565b60006020820190508181036000830152616ad081616a94565b905091905056fe416464726573733a206c6f772d6c6576656c2063616c6c20776974682076616c7565206661696c6564a264697066735822122091920758d88eebdac522c824cadc67d8a2e6434496ad61f65791d077bfc6c5fd64736f6c634300080b0033",
  "immutableReferences": {
    "9076": [
      {
        "length": 32,
        "start": 8283
      },
      {
        "length": 32,
        "start": 11178
      },
      {
        "length": 32,
        "start": 11360
      }
    ],
    "31235": [
      {
        "length": 32,
        "start": 11950
      }
    ],
    "31237": [
      {
        "length": 32,
        "start": 11909
      }
    ],
    "31239": [
      {
        "length": 32,
        "start": 11823
      }
    ],
    "31241": [
      {
        "length": 32,
        "start": 12026
      }
    ],
    "31243": [
      {
        "length": 32,
        "start": 12059
      }
    ],
    "31245": [
      {
        "length": 32,
        "start": 11993
      }
    ]
  },
  "source": "// SPDX-License-Identifier: MIT\npragma solidity ^0.8.2;\n\nimport \"../../governance/Governor.sol\";\nimport \"../../governance/compatibility/GovernorCompatibilityBravo.sol\";\nimport \"../../governance/extensions/GovernorVotes.sol\";\nimport \"../../governance/extensions/GovernorVotesQuorumFraction.sol\";\nimport \"../../governance/extensions/GovernorTimelockControl.sol\";\n\ncontract MyGovernor is\n    Governor,\n    GovernorTimelockControl,\n    GovernorCompatibilityBravo,\n    GovernorVotes,\n    GovernorVotesQuorumFraction\n{\n    constructor(IVotes _token, TimelockController _timelock)\n        Governor(\"MyGovernor\")\n        GovernorVotes(_token)\n        GovernorVotesQuorumFraction(4)\n        GovernorTimelockControl(_timelock)\n    {}\n\n    function votingDelay() public pure override returns (uint256) {\n        return 1; // 1 block\n    }\n\n    function votingPeriod() public pure override returns (uint256) {\n        return 45818; // 1 week\n    }\n\n    function proposalThreshold() public pure override returns (uint256) {\n        return 1000e18;\n    }\n\n    // The following functions are overrides required by Solidity.\n\n    function quorum(uint256 blockNumber)\n        public\n        view\n        override(IGovernor, GovernorVotesQuorumFraction)\n        returns (uint256)\n    {\n        return super.quorum(blockNumber);\n    }\n\n    function getVotes(address account, uint256 blockNumber)\n        public\n        view\n        override(IGovernor, GovernorVotes)\n        returns (uint256)\n    {\n        return super.getVotes(account, blockNumber);\n    }\n\n    function state(uint256 proposalId)\n        public\n        view\n        override(Governor, IGovernor, GovernorTimelockControl)\n        returns (ProposalState)\n    {\n        return super.state(proposalId);\n    }\n\n    function propose(\n        address[] memory targets,\n        uint256[] memory values,\n        bytes[] memory calldatas,\n        string memory description\n    ) public override(Governor, GovernorCompatibilityBravo, IGovernor) returns (uint256) {\n        return super.propose(targets, values, calldatas, description);\n    }\n\n    function _execute(\n        uint256 proposalId,\n        address[] memory targets,\n        uint256[] memory values,\n        bytes[] memory calldatas,\n        bytes32 descriptionHash\n    ) internal override(Governor, GovernorTimelockControl) {\n        super._execute(proposalId, targets, values, calldatas, descriptionHash);\n    }\n\n    function _cancel(\n        address[] memory targets,\n        uint256[] memory values,\n        bytes[] memory calldatas,\n        bytes32 descriptionHash\n    ) internal override(Governor, GovernorTimelockControl) returns (uint256) {\n        return super._cancel(targets, values, calldatas, descriptionHash);\n    }\n\n    function _executor() internal view override(Governor, GovernorTimelockControl) returns (address) {\n        return super._executor();\n    }\n\n    function supportsInterface(bytes4 interfaceId)\n        public\n        view\n        override(Governor, IERC165, GovernorTimelockControl)\n        returns (bool)\n    {\n        return super.supportsInterface(interfaceId);\n    }\n}\n",
  "sourcePath": "D:\\03.block-chain\\01.miquelTC__nft-marketplace\\test-proj\\nft-marketplace-master\\src\\contracts\\ERC721\\mocks\\wizard\\MyGovernor3.sol",
  "compiler": {
    "name": "solc",
    "version": "0.8.11+commit.d7f03943.Emscripten.clang"
  },
  "schemaVersion": "3.4.4",
  "updatedAt": "2022-02-16T02:59:59.046Z",
  "devdoc": {
    "kind": "dev",
    "methods": {
      "COUNTING_MODE()": {
        "details": "A description of the possible `support` values for {castVote} and the way these votes are counted, meant to be consumed by UIs to show correct vote options and interpret the results. The string is a URL-encoded sequence of key-value pairs that each describe one aspect, for example `support=bravo&quorum=for,abstain`. There are 2 standard keys: `support` and `quorum`. - `support=bravo` refers to the vote options 0 = Against, 1 = For, 2 = Abstain, as in `GovernorBravo`. - `quorum=bravo` means that only For votes are counted towards quorum. - `quorum=for,abstain` means that both For and Abstain votes are counted towards quorum. NOTE: The string can be decoded by the standard https://developer.mozilla.org/en-US/docs/Web/API/URLSearchParams[`URLSearchParams`] JavaScript class."
      },
      "cancel(uint256)": {
        "details": "Cancels a proposal only if sender is the proposer, or proposer delegates dropped below proposal threshold."
      },
      "castVote(uint256,uint8)": {
        "details": "See {IGovernor-castVote}."
      },
      "castVoteBySig(uint256,uint8,uint8,bytes32,bytes32)": {
        "details": "See {IGovernor-castVoteBySig}."
      },
      "castVoteWithReason(uint256,uint8,string)": {
        "details": "See {IGovernor-castVoteWithReason}."
      },
      "execute(address[],uint256[],bytes[],bytes32)": {
        "details": "See {IGovernor-execute}."
      },
      "execute(uint256)": {
        "details": "See {IGovernorCompatibilityBravo-execute}."
      },
      "getActions(uint256)": {
        "details": "See {IGovernorCompatibilityBravo-getActions}."
      },
      "getReceipt(uint256,address)": {
        "details": "See {IGovernorCompatibilityBravo-getReceipt}."
      },
      "hasVoted(uint256,address)": {
        "details": "See {IGovernor-hasVoted}."
      },
      "hashProposal(address[],uint256[],bytes[],bytes32)": {
        "details": "See {IGovernor-hashProposal}. The proposal id is produced by hashing the RLC encoded `targets` array, the `values` array, the `calldatas` array and the descriptionHash (bytes32 which itself is the keccak256 hash of the description string). This proposal id can be produced from the proposal data which is part of the {ProposalCreated} event. It can even be computed in advance, before the proposal is submitted. Note that the chainId and the governor address are not part of the proposal id computation. Consequently, the same proposal (with same operation and same description) will have the same id if submitted on multiple governors accross multiple networks. This also means that in order to execute the same operation twice (on the same governor) the proposer will have to change the description in order to avoid proposal id conflicts."
      },
      "name()": {
        "details": "See {IGovernor-name}."
      },
      "proposalDeadline(uint256)": {
        "details": "See {IGovernor-proposalDeadline}."
      },
      "proposalEta(uint256)": {
        "details": "Public accessor to check the eta of a queued proposal"
      },
      "proposalSnapshot(uint256)": {
        "details": "See {IGovernor-proposalSnapshot}."
      },
      "proposalThreshold()": {
        "details": "Part of the Governor Bravo's interface: _\"The number of votes required in order for a voter to become a proposer\"_."
      },
      "proposals(uint256)": {
        "details": "See {IGovernorCompatibilityBravo-proposals}."
      },
      "propose(address[],uint256[],string[],bytes[],string)": {
        "details": "See {IGovernorCompatibilityBravo-propose}."
      },
      "queue(address[],uint256[],bytes[],bytes32)": {
        "details": "Function to queue a proposal to the timelock."
      },
      "queue(uint256)": {
        "details": "See {IGovernorCompatibilityBravo-queue}."
      },
      "quorumDenominator()": {
        "details": "Returns the quorum denominator. Defaults to 100, but may be overridden."
      },
      "quorumNumerator()": {
        "details": "Returns the current quorum numerator. See {quorumDenominator}."
      },
      "quorumVotes()": {
        "details": "See {IGovernorCompatibilityBravo-quorumVotes}."
      },
      "relay(address,uint256,bytes)": {
        "details": "Relays a transaction or function call to an arbitrary target. In cases where the governance executor is some contract other than the governor itself, like when using a timelock, this function can be invoked in a governance proposal to recover tokens or Ether that was sent to the governor contract by mistake. Note that if the executor is simply the governor itself, use of `relay` is redundant."
      },
      "timelock()": {
        "details": "Public accessor to check the address of the timelock"
      },
      "updateQuorumNumerator(uint256)": {
        "details": "Changes the quorum numerator. Emits a {QuorumNumeratorUpdated} event. Requirements: - Must be called through a governance proposal. - New numerator must be smaller or equal to the denominator."
      },
      "updateTimelock(address)": {
        "details": "Public endpoint to update the underlying timelock instance. Restricted to the timelock itself, so updates must be proposed, scheduled, and executed through governance proposals. CAUTION: It is not recommended to change the timelock while there are other queued governance proposals."
      },
      "version()": {
        "details": "See {IGovernor-version}."
      },
      "votingDelay()": {
        "details": "Delay, in number of block, between the proposal is created and the vote starts. This can be increassed to leave time for users to buy voting power, of delegate it, before the voting of a proposal starts."
      },
      "votingPeriod()": {
        "details": "Delay, in number of blocks, between the vote start and vote ends. NOTE: The {votingDelay} can delay the start of the vote. This must be considered when setting the voting duration compared to the voting delay."
      }
    },
    "version": 1
  },
  "userdoc": {
    "kind": "user",
    "methods": {
      "COUNTING_MODE()": {
        "notice": "module:voting"
      },
      "votingDelay()": {
        "notice": "module:user-config"
      },
      "votingPeriod()": {
        "notice": "module:user-config"
      }
    },
    "version": 1
  }
}