{
  "contractName": "NFT",
  "abi": [
    {
      "inputs": [],
      "stateMutability": "nonpayable",
      "type": "constructor"
    },
    {
      "anonymous": false,
      "inputs": [
        {
          "indexed": true,
          "internalType": "address",
          "name": "owner",
          "type": "address"
        },
        {
          "indexed": true,
          "internalType": "address",
          "name": "approved",
          "type": "address"
        },
        {
          "indexed": true,
          "internalType": "uint256",
          "name": "tokenId",
          "type": "uint256"
        }
      ],
      "name": "Approval",
      "type": "event"
    },
    {
      "anonymous": false,
      "inputs": [
        {
          "indexed": true,
          "internalType": "address",
          "name": "owner",
          "type": "address"
        },
        {
          "indexed": true,
          "internalType": "address",
          "name": "operator",
          "type": "address"
        },
        {
          "indexed": false,
          "internalType": "bool",
          "name": "approved",
          "type": "bool"
        }
      ],
      "name": "ApprovalForAll",
      "type": "event"
    },
    {
      "anonymous": false,
      "inputs": [
        {
          "indexed": true,
          "internalType": "address",
          "name": "from",
          "type": "address"
        },
        {
          "indexed": true,
          "internalType": "address",
          "name": "to",
          "type": "address"
        },
        {
          "indexed": true,
          "internalType": "uint256",
          "name": "tokenId",
          "type": "uint256"
        }
      ],
      "name": "Transfer",
      "type": "event"
    },
    {
      "inputs": [
        {
          "internalType": "address",
          "name": "to",
          "type": "address"
        },
        {
          "internalType": "uint256",
          "name": "tokenId",
          "type": "uint256"
        }
      ],
      "name": "approve",
      "outputs": [],
      "stateMutability": "nonpayable",
      "type": "function"
    },
    {
      "inputs": [
        {
          "internalType": "address",
          "name": "owner",
          "type": "address"
        }
      ],
      "name": "balanceOf",
      "outputs": [
        {
          "internalType": "uint256",
          "name": "",
          "type": "uint256"
        }
      ],
      "stateMutability": "view",
      "type": "function"
    },
    {
      "inputs": [
        {
          "internalType": "uint256",
          "name": "tokenId",
          "type": "uint256"
        }
      ],
      "name": "getApproved",
      "outputs": [
        {
          "internalType": "address",
          "name": "",
          "type": "address"
        }
      ],
      "stateMutability": "view",
      "type": "function"
    },
    {
      "inputs": [
        {
          "internalType": "address",
          "name": "owner",
          "type": "address"
        },
        {
          "internalType": "address",
          "name": "operator",
          "type": "address"
        }
      ],
      "name": "isApprovedForAll",
      "outputs": [
        {
          "internalType": "bool",
          "name": "",
          "type": "bool"
        }
      ],
      "stateMutability": "view",
      "type": "function"
    },
    {
      "inputs": [],
      "name": "name",
      "outputs": [
        {
          "internalType": "string",
          "name": "",
          "type": "string"
        }
      ],
      "stateMutability": "view",
      "type": "function"
    },
    {
      "inputs": [
        {
          "internalType": "uint256",
          "name": "tokenId",
          "type": "uint256"
        }
      ],
      "name": "ownerOf",
      "outputs": [
        {
          "internalType": "address",
          "name": "",
          "type": "address"
        }
      ],
      "stateMutability": "view",
      "type": "function"
    },
    {
      "inputs": [
        {
          "internalType": "address",
          "name": "from",
          "type": "address"
        },
        {
          "internalType": "address",
          "name": "to",
          "type": "address"
        },
        {
          "internalType": "uint256",
          "name": "tokenId",
          "type": "uint256"
        }
      ],
      "name": "safeTransferFrom",
      "outputs": [],
      "stateMutability": "nonpayable",
      "type": "function"
    },
    {
      "inputs": [
        {
          "internalType": "address",
          "name": "from",
          "type": "address"
        },
        {
          "internalType": "address",
          "name": "to",
          "type": "address"
        },
        {
          "internalType": "uint256",
          "name": "tokenId",
          "type": "uint256"
        },
        {
          "internalType": "bytes",
          "name": "_data",
          "type": "bytes"
        }
      ],
      "name": "safeTransferFrom",
      "outputs": [],
      "stateMutability": "nonpayable",
      "type": "function"
    },
    {
      "inputs": [
        {
          "internalType": "address",
          "name": "operator",
          "type": "address"
        },
        {
          "internalType": "bool",
          "name": "approved",
          "type": "bool"
        }
      ],
      "name": "setApprovalForAll",
      "outputs": [],
      "stateMutability": "nonpayable",
      "type": "function"
    },
    {
      "inputs": [
        {
          "internalType": "bytes4",
          "name": "interfaceId",
          "type": "bytes4"
        }
      ],
      "name": "supportsInterface",
      "outputs": [
        {
          "internalType": "bool",
          "name": "",
          "type": "bool"
        }
      ],
      "stateMutability": "view",
      "type": "function"
    },
    {
      "inputs": [],
      "name": "symbol",
      "outputs": [
        {
          "internalType": "string",
          "name": "",
          "type": "string"
        }
      ],
      "stateMutability": "view",
      "type": "function"
    },
    {
      "inputs": [
        {
          "internalType": "uint256",
          "name": "tokenId",
          "type": "uint256"
        }
      ],
      "name": "tokenURI",
      "outputs": [
        {
          "internalType": "string",
          "name": "",
          "type": "string"
        }
      ],
      "stateMutability": "view",
      "type": "function"
    },
    {
      "inputs": [
        {
          "internalType": "address",
          "name": "from",
          "type": "address"
        },
        {
          "internalType": "address",
          "name": "to",
          "type": "address"
        },
        {
          "internalType": "uint256",
          "name": "tokenId",
          "type": "uint256"
        }
      ],
      "name": "transferFrom",
      "outputs": [],
      "stateMutability": "nonpayable",
      "type": "function"
    },
    {
      "inputs": [
        {
          "internalType": "uint256",
          "name": "tokenId",
          "type": "uint256"
        }
      ],
      "name": "updateUsersNFTs",
      "outputs": [],
      "stateMutability": "nonpayable",
      "type": "function"
    },
    {
      "inputs": [],
      "name": "getUserNFTs",
      "outputs": [
        {
          "internalType": "uint256[]",
          "name": "",
          "type": "uint256[]"
        }
      ],
      "stateMutability": "view",
      "type": "function"
    },
    {
      "inputs": [
        {
          "internalType": "string",
          "name": "tokenURI",
          "type": "string"
        }
      ],
      "name": "createToken",
      "outputs": [
        {
          "internalType": "uint256",
          "name": "",
          "type": "uint256"
        }
      ],
      "stateMutability": "nonpayable",
      "type": "function"
    }
  ],
  "bytecode": "0x60806040523480156200001157600080fd5b506040518060400160405280600e81526020017f416d617a696e6720546f6b656e730000000000000000000000000000000000008152506040518060400160405280600481526020017f414d415a00000000000000000000000000000000000000000000000000000000815250816000908051906020019062000096929190620000b8565b508060019080519060200190620000af929190620000b8565b505050620001cd565b828054620000c69062000197565b90600052602060002090601f016020900481019282620000ea576000855562000136565b82601f106200010557805160ff191683800117855562000136565b8280016001018555821562000136579182015b828111156200013557825182559160200191906001019062000118565b5b50905062000145919062000149565b5090565b5b80821115620001645760008160009055506001016200014a565b5090565b7f4e487b7100000000000000000000000000000000000000000000000000000000600052602260045260246000fd5b60006002820490506001821680620001b057607f821691505b60208210811415620001c757620001c662000168565b5b50919050565b612de580620001dd6000396000f3fe608060405234801561001057600080fd5b50600436106101005760003560e01c80636352211e11610097578063b88d4fde11610066578063b88d4fde146102bd578063c87b56dd146102d9578063e985e9c514610309578063fdc5ab8e1461033957610100565b80636352211e1461022357806370a082311461025357806395d89b4114610283578063a22cb465146102a157610100565b80630beb7d1b116100d35780630beb7d1b1461019f57806323b872dd146101bb57806342842e0e146101d757806345576f94146101f357610100565b806301ffc9a71461010557806306fdde0314610135578063081812fc14610153578063095ea7b314610183575b600080fd5b61011f600480360381019061011a9190611a7a565b610357565b60405161012c9190611ac2565b60405180910390f35b61013d610439565b60405161014a9190611b76565b60405180910390f35b61016d60048036038101906101689190611bce565b6104cb565b60405161017a9190611c3c565b60405180910390f35b61019d60048036038101906101989190611c83565b610550565b005b6101b960048036038101906101b49190611bce565b610668565b005b6101d560048036038101906101d09190611cc3565b6106d1565b005b6101f160048036038101906101ec9190611cc3565b610731565b005b61020d60048036038101906102089190611e4b565b610751565b60405161021a9190611ea3565b60405180910390f35b61023d60048036038101906102389190611bce565b610791565b60405161024a9190611c3c565b60405180910390f35b61026d60048036038101906102689190611ebe565b610843565b60405161027a9190611ea3565b60405180910390f35b61028b6108fb565b6040516102989190611b76565b60405180910390f35b6102bb60048036038101906102b69190611f17565b61098d565b005b6102d760048036038101906102d29190611ff8565b6109a3565b005b6102f360048036038101906102ee9190611bce565b610a05565b6040516103009190611b76565b60405180910390f35b610323600480360381019061031e919061207b565b610b57565b6040516103309190611ac2565b60405180910390f35b610341610beb565b60405161034e9190612179565b60405180910390f35b60007f80ac58cd000000000000000000000000000000000000000000000000000000007bffffffffffffffffffffffffffffffffffffffffffffffffffffffff1916827bffffffffffffffffffffffffffffffffffffffffffffffffffffffff1916148061042257507f5b5e139f000000000000000000000000000000000000000000000000000000007bffffffffffffffffffffffffffffffffffffffffffffffffffffffff1916827bffffffffffffffffffffffffffffffffffffffffffffffffffffffff1916145b80610432575061043182610c80565b5b9050919050565b606060008054610448906121ca565b80601f0160208091040260200160405190810160405280929190818152602001828054610474906121ca565b80156104c15780601f10610496576101008083540402835291602001916104c1565b820191906000526020600020905b8154815290600101906020018083116104a457829003601f168201915b5050505050905090565b60006104d682610cea565b610515576040517f08c379a000000000000000000000000000000000000000000000000000000000815260040161050c9061226e565b60405180910390fd5b6004600083815260200190815260200160002060009054906101000a900473ffffffffffffffffffffffffffffffffffffffff169050919050565b600061055b82610791565b90508073ffffffffffffffffffffffffffffffffffffffff168373ffffffffffffffffffffffffffffffffffffffff1614156105cc576040517f08c379a00000000000000000000000000000000000000000000000000000000081526004016105c390612300565b60405180910390fd5b8073ffffffffffffffffffffffffffffffffffffffff166105eb610d56565b73ffffffffffffffffffffffffffffffffffffffff16148061061a575061061981610614610d56565b610b57565b5b610659576040517f08c379a000000000000000000000000000000000000000000000000000000000815260040161065090612392565b60405180910390fd5b6106638383610d5e565b505050565b600860003373ffffffffffffffffffffffffffffffffffffffff1673ffffffffffffffffffffffffffffffffffffffff16815260200190815260200160002081908060018154018082558091505060019003906000526020600020016000909190919091505550565b6106e26106dc610d56565b82610e17565b610721576040517f08c379a000000000000000000000000000000000000000000000000000000000815260040161071890612424565b60405180910390fd5b61072c838383610ef5565b505050565b61074c838383604051806020016040528060008152506109a3565b505050565b600061075d600761115c565b60006107696007611172565b90506107753382611180565b61077f818461135a565b61078881610668565b80915050919050565b6000806002600084815260200190815260200160002060009054906101000a900473ffffffffffffffffffffffffffffffffffffffff169050600073ffffffffffffffffffffffffffffffffffffffff168173ffffffffffffffffffffffffffffffffffffffff16141561083a576040517f08c379a0000000000000000000000000000000000000000000000000000000008152600401610831906124b6565b60405180910390fd5b80915050919050565b60008073ffffffffffffffffffffffffffffffffffffffff168273ffffffffffffffffffffffffffffffffffffffff1614156108b4576040517f08c379a00000000000000000000000000000000000000000000000000000000081526004016108ab90612548565b60405180910390fd5b600360008373ffffffffffffffffffffffffffffffffffffffff1673ffffffffffffffffffffffffffffffffffffffff168152602001908152602001600020549050919050565b60606001805461090a906121ca565b80601f0160208091040260200160405190810160405280929190818152602001828054610936906121ca565b80156109835780601f1061095857610100808354040283529160200191610983565b820191906000526020600020905b81548152906001019060200180831161096657829003601f168201915b5050505050905090565b61099f610998610d56565b83836113ce565b5050565b6109b46109ae610d56565b83610e17565b6109f3576040517f08c379a00000000000000000000000000000000000000000000000000000000081526004016109ea90612424565b60405180910390fd5b6109ff8484848461153b565b50505050565b6060610a1082610cea565b610a4f576040517f08c379a0000000000000000000000000000000000000000000000000000000008152600401610a46906125da565b60405180910390fd5b6000600660008481526020019081526020016000208054610a6f906121ca565b80601f0160208091040260200160405190810160405280929190818152602001828054610a9b906121ca565b8015610ae85780601f10610abd57610100808354040283529160200191610ae8565b820191906000526020600020905b815481529060010190602001808311610acb57829003601f168201915b505050505090506000610af9611597565b9050600081511415610b0f578192505050610b52565b600082511115610b44578082604051602001610b2c929190612636565b60405160208183030381529060405292505050610b52565b610b4d846115ae565b925050505b919050565b6000600560008473ffffffffffffffffffffffffffffffffffffffff1673ffffffffffffffffffffffffffffffffffffffff16815260200190815260200160002060008373ffffffffffffffffffffffffffffffffffffffff1673ffffffffffffffffffffffffffffffffffffffff16815260200190815260200160002060009054906101000a900460ff16905092915050565b6060600860003373ffffffffffffffffffffffffffffffffffffffff1673ffffffffffffffffffffffffffffffffffffffff168152602001908152602001600020805480602002602001604051908101604052809291908181526020018280548015610c7657602002820191906000526020600020905b815481526020019060010190808311610c62575b5050505050905090565b60007f01ffc9a7000000000000000000000000000000000000000000000000000000007bffffffffffffffffffffffffffffffffffffffffffffffffffffffff1916827bffffffffffffffffffffffffffffffffffffffffffffffffffffffff1916149050919050565b60008073ffffffffffffffffffffffffffffffffffffffff166002600084815260200190815260200160002060009054906101000a900473ffffffffffffffffffffffffffffffffffffffff1673ffffffffffffffffffffffffffffffffffffffff1614159050919050565b600033905090565b816004600083815260200190815260200160002060006101000a81548173ffffffffffffffffffffffffffffffffffffffff021916908373ffffffffffffffffffffffffffffffffffffffff160217905550808273ffffffffffffffffffffffffffffffffffffffff16610dd183610791565b73ffffffffffffffffffffffffffffffffffffffff167f8c5be1e5ebec7d5bd14f71427d1e84f3dd0314c0f7b2291e5b200ac8c7c3b92560405160405180910390a45050565b6000610e2282610cea565b610e61576040517f08c379a0000000000000000000000000000000000000000000000000000000008152600401610e58906126cc565b60405180910390fd5b6000610e6c83610791565b90508073ffffffffffffffffffffffffffffffffffffffff168473ffffffffffffffffffffffffffffffffffffffff161480610edb57508373ffffffffffffffffffffffffffffffffffffffff16610ec3846104cb565b73ffffffffffffffffffffffffffffffffffffffff16145b80610eec5750610eeb8185610b57565b5b91505092915050565b8273ffffffffffffffffffffffffffffffffffffffff16610f1582610791565b73ffffffffffffffffffffffffffffffffffffffff1614610f6b576040517f08c379a0000000000000000000000000000000000000000000000000000000008152600401610f629061275e565b60405180910390fd5b600073ffffffffffffffffffffffffffffffffffffffff168273ffffffffffffffffffffffffffffffffffffffff161415610fdb576040517f08c379a0000000000000000000000000000000000000000000000000000000008152600401610fd2906127f0565b60405180910390fd5b610fe6838383611655565b610ff1600082610d5e565b6001600360008573ffffffffffffffffffffffffffffffffffffffff1673ffffffffffffffffffffffffffffffffffffffff1681526020019081526020016000206000828254611041919061283f565b925050819055506001600360008473ffffffffffffffffffffffffffffffffffffffff1673ffffffffffffffffffffffffffffffffffffffff16815260200190815260200160002060008282546110989190612873565b92505081905550816002600083815260200190815260200160002060006101000a81548173ffffffffffffffffffffffffffffffffffffffff021916908373ffffffffffffffffffffffffffffffffffffffff160217905550808273ffffffffffffffffffffffffffffffffffffffff168473ffffffffffffffffffffffffffffffffffffffff167fddf252ad1be2c89b69c2b068fc378daa952ba7f163c4a11628f55a4df523b3ef60405160405180910390a461115783838361165a565b505050565b6001816000016000828254019250508190555050565b600081600001549050919050565b600073ffffffffffffffffffffffffffffffffffffffff168273ffffffffffffffffffffffffffffffffffffffff1614156111f0576040517f08c379a00000000000000000000000000000000000000000000000000000000081526004016111e790612915565b60405180910390fd5b6111f981610cea565b15611239576040517f08c379a000000000000000000000000000000000000000000000000000000000815260040161123090612981565b60405180910390fd5b61124560008383611655565b6001600360008473ffffffffffffffffffffffffffffffffffffffff1673ffffffffffffffffffffffffffffffffffffffff16815260200190815260200160002060008282546112959190612873565b92505081905550816002600083815260200190815260200160002060006101000a81548173ffffffffffffffffffffffffffffffffffffffff021916908373ffffffffffffffffffffffffffffffffffffffff160217905550808273ffffffffffffffffffffffffffffffffffffffff16600073ffffffffffffffffffffffffffffffffffffffff167fddf252ad1be2c89b69c2b068fc378daa952ba7f163c4a11628f55a4df523b3ef60405160405180910390a46113566000838361165a565b5050565b61136382610cea565b6113a2576040517f08c379a000000000000000000000000000000000000000000000000000000000815260040161139990612a13565b60405180910390fd5b806006600084815260200190815260200160002090805190602001906113c992919061196b565b505050565b8173ffffffffffffffffffffffffffffffffffffffff168373ffffffffffffffffffffffffffffffffffffffff16141561143d576040517f08c379a000000000000000000000000000000000000000000000000000000000815260040161143490612a7f565b60405180910390fd5b80600560008573ffffffffffffffffffffffffffffffffffffffff1673ffffffffffffffffffffffffffffffffffffffff16815260200190815260200160002060008473ffffffffffffffffffffffffffffffffffffffff1673ffffffffffffffffffffffffffffffffffffffff16815260200190815260200160002060006101000a81548160ff0219169083151502179055508173ffffffffffffffffffffffffffffffffffffffff168373ffffffffffffffffffffffffffffffffffffffff167f17307eab39ab6107e8899845ad3d59bd9653f200f220920489ca2b5937696c318360405161152e9190611ac2565b60405180910390a3505050565b611546848484610ef5565b6115528484848461165f565b611591576040517f08c379a000000000000000000000000000000000000000000000000000000000815260040161158890612b11565b60405180910390fd5b50505050565b606060405180602001604052806000815250905090565b60606115b982610cea565b6115f8576040517f08c379a00000000000000000000000000000000000000000000000000000000081526004016115ef90612ba3565b60405180910390fd5b6000611602611597565b90506000815111611622576040518060200160405280600081525061164d565b8061162c846117e7565b60405160200161163d929190612636565b6040516020818303038152906040525b915050919050565b505050565b505050565b60006116808473ffffffffffffffffffffffffffffffffffffffff16611948565b156117da578373ffffffffffffffffffffffffffffffffffffffff1663150b7a026116a9610d56565b8786866040518563ffffffff1660e01b81526004016116cb9493929190612c18565b6020604051808303816000875af192505050801561170757506040513d601f19601f820116820180604052508101906117049190612c79565b60015b61178a573d8060008114611737576040519150601f19603f3d011682016040523d82523d6000602084013e61173c565b606091505b50600081511415611782576040517f08c379a000000000000000000000000000000000000000000000000000000000815260040161177990612b11565b60405180910390fd5b805181602001fd5b63150b7a0260e01b7bffffffffffffffffffffffffffffffffffffffffffffffffffffffff1916817bffffffffffffffffffffffffffffffffffffffffffffffffffffffff1916149150506117df565b600190505b949350505050565b6060600082141561182f576040518060400160405280600181526020017f30000000000000000000000000000000000000000000000000000000000000008152509050611943565b600082905060005b6000821461186157808061184a90612ca6565b915050600a8261185a9190612d1e565b9150611837565b60008167ffffffffffffffff81111561187d5761187c611d20565b5b6040519080825280601f01601f1916602001820160405280156118af5781602001600182028036833780820191505090505b5090505b6000851461193c576001826118c8919061283f565b9150600a856118d79190612d4f565b60306118e39190612873565b60f81b8183815181106118f9576118f8612d80565b5b60200101907effffffffffffffffffffffffffffffffffffffffffffffffffffffffffffff1916908160001a905350600a856119359190612d1e565b94506118b3565b8093505050505b919050565b6000808273ffffffffffffffffffffffffffffffffffffffff163b119050919050565b828054611977906121ca565b90600052602060002090601f01602090048101928261199957600085556119e0565b82601f106119b257805160ff19168380011785556119e0565b828001600101855582156119e0579182015b828111156119df5782518255916020019190600101906119c4565b5b5090506119ed91906119f1565b5090565b5b80821115611a0a5760008160009055506001016119f2565b5090565b6000604051905090565b600080fd5b600080fd5b60007fffffffff0000000000000000000000000000000000000000000000000000000082169050919050565b611a5781611a22565b8114611a6257600080fd5b50565b600081359050611a7481611a4e565b92915050565b600060208284031215611a9057611a8f611a18565b5b6000611a9e84828501611a65565b91505092915050565b60008115159050919050565b611abc81611aa7565b82525050565b6000602082019050611ad76000830184611ab3565b92915050565b600081519050919050565b600082825260208201905092915050565b60005b83811015611b17578082015181840152602081019050611afc565b83811115611b26576000848401525b50505050565b6000601f19601f8301169050919050565b6000611b4882611add565b611b528185611ae8565b9350611b62818560208601611af9565b611b6b81611b2c565b840191505092915050565b60006020820190508181036000830152611b908184611b3d565b905092915050565b6000819050919050565b611bab81611b98565b8114611bb657600080fd5b50565b600081359050611bc881611ba2565b92915050565b600060208284031215611be457611be3611a18565b5b6000611bf284828501611bb9565b91505092915050565b600073ffffffffffffffffffffffffffffffffffffffff82169050919050565b6000611c2682611bfb565b9050919050565b611c3681611c1b565b82525050565b6000602082019050611c516000830184611c2d565b92915050565b611c6081611c1b565b8114611c6b57600080fd5b50565b600081359050611c7d81611c57565b92915050565b60008060408385031215611c9a57611c99611a18565b5b6000611ca885828601611c6e565b9250506020611cb985828601611bb9565b9150509250929050565b600080600060608486031215611cdc57611cdb611a18565b5b6000611cea86828701611c6e565b9350506020611cfb86828701611c6e565b9250506040611d0c86828701611bb9565b9150509250925092565b600080fd5b600080fd5b7f4e487b7100000000000000000000000000000000000000000000000000000000600052604160045260246000fd5b611d5882611b2c565b810181811067ffffffffffffffff82111715611d7757611d76611d20565b5b80604052505050565b6000611d8a611a0e565b9050611d968282611d4f565b919050565b600067ffffffffffffffff821115611db657611db5611d20565b5b611dbf82611b2c565b9050602081019050919050565b82818337600083830152505050565b6000611dee611de984611d9b565b611d80565b905082815260208101848484011115611e0a57611e09611d1b565b5b611e15848285611dcc565b509392505050565b600082601f830112611e3257611e31611d16565b5b8135611e42848260208601611ddb565b91505092915050565b600060208284031215611e6157611e60611a18565b5b600082013567ffffffffffffffff811115611e7f57611e7e611a1d565b5b611e8b84828501611e1d565b91505092915050565b611e9d81611b98565b82525050565b6000602082019050611eb86000830184611e94565b92915050565b600060208284031215611ed457611ed3611a18565b5b6000611ee284828501611c6e565b91505092915050565b611ef481611aa7565b8114611eff57600080fd5b50565b600081359050611f1181611eeb565b92915050565b60008060408385031215611f2e57611f2d611a18565b5b6000611f3c85828601611c6e565b9250506020611f4d85828601611f02565b9150509250929050565b600067ffffffffffffffff821115611f7257611f71611d20565b5b611f7b82611b2c565b9050602081019050919050565b6000611f9b611f9684611f57565b611d80565b905082815260208101848484011115611fb757611fb6611d1b565b5b611fc2848285611dcc565b509392505050565b600082601f830112611fdf57611fde611d16565b5b8135611fef848260208601611f88565b91505092915050565b6000806000806080858703121561201257612011611a18565b5b600061202087828801611c6e565b945050602061203187828801611c6e565b935050604061204287828801611bb9565b925050606085013567ffffffffffffffff81111561206357612062611a1d565b5b61206f87828801611fca565b91505092959194509250565b6000806040838503121561209257612091611a18565b5b60006120a085828601611c6e565b92505060206120b185828601611c6e565b9150509250929050565b600081519050919050565b600082825260208201905092915050565b6000819050602082019050919050565b6120f081611b98565b82525050565b600061210283836120e7565b60208301905092915050565b6000602082019050919050565b6000612126826120bb565b61213081856120c6565b935061213b836120d7565b8060005b8381101561216c57815161215388826120f6565b975061215e8361210e565b92505060018101905061213f565b5085935050505092915050565b60006020820190508181036000830152612193818461211b565b905092915050565b7f4e487b7100000000000000000000000000000000000000000000000000000000600052602260045260246000fd5b600060028204905060018216806121e257607f821691505b602082108114156121f6576121f561219b565b5b50919050565b7f4552433732313a20617070726f76656420717565727920666f72206e6f6e657860008201527f697374656e7420746f6b656e0000000000000000000000000000000000000000602082015250565b6000612258602c83611ae8565b9150612263826121fc565b604082019050919050565b600060208201905081810360008301526122878161224b565b9050919050565b7f4552433732313a20617070726f76616c20746f2063757272656e74206f776e6560008201527f7200000000000000000000000000000000000000000000000000000000000000602082015250565b60006122ea602183611ae8565b91506122f58261228e565b604082019050919050565b60006020820190508181036000830152612319816122dd565b9050919050565b7f4552433732313a20617070726f76652063616c6c6572206973206e6f74206f7760008201527f6e6572206e6f7220617070726f76656420666f7220616c6c0000000000000000602082015250565b600061237c603883611ae8565b915061238782612320565b604082019050919050565b600060208201905081810360008301526123ab8161236f565b9050919050565b7f4552433732313a207472616e736665722063616c6c6572206973206e6f74206f60008201527f776e6572206e6f7220617070726f766564000000000000000000000000000000602082015250565b600061240e603183611ae8565b9150612419826123b2565b604082019050919050565b6000602082019050818103600083015261243d81612401565b9050919050565b7f4552433732313a206f776e657220717565727920666f72206e6f6e657869737460008201527f656e7420746f6b656e0000000000000000000000000000000000000000000000602082015250565b60006124a0602983611ae8565b91506124ab82612444565b604082019050919050565b600060208201905081810360008301526124cf81612493565b9050919050565b7f4552433732313a2062616c616e636520717565727920666f7220746865207a6560008201527f726f206164647265737300000000000000000000000000000000000000000000602082015250565b6000612532602a83611ae8565b915061253d826124d6565b604082019050919050565b6000602082019050818103600083015261256181612525565b9050919050565b7f45524337323155524953746f726167653a2055524920717565727920666f722060008201527f6e6f6e6578697374656e7420746f6b656e000000000000000000000000000000602082015250565b60006125c4603183611ae8565b91506125cf82612568565b604082019050919050565b600060208201905081810360008301526125f3816125b7565b9050919050565b600081905092915050565b600061261082611add565b61261a81856125fa565b935061262a818560208601611af9565b80840191505092915050565b60006126428285612605565b915061264e8284612605565b91508190509392505050565b7f4552433732313a206f70657261746f7220717565727920666f72206e6f6e657860008201527f697374656e7420746f6b656e0000000000000000000000000000000000000000602082015250565b60006126b6602c83611ae8565b91506126c18261265a565b604082019050919050565b600060208201905081810360008301526126e5816126a9565b9050919050565b7f4552433732313a207472616e736665722066726f6d20696e636f72726563742060008201527f6f776e6572000000000000000000000000000000000000000000000000000000602082015250565b6000612748602583611ae8565b9150612753826126ec565b604082019050919050565b600060208201905081810360008301526127778161273b565b9050919050565b7f4552433732313a207472616e7366657220746f20746865207a65726f2061646460008201527f7265737300000000000000000000000000000000000000000000000000000000602082015250565b60006127da602483611ae8565b91506127e58261277e565b604082019050919050565b60006020820190508181036000830152612809816127cd565b9050919050565b7f4e487b7100000000000000000000000000000000000000000000000000000000600052601160045260246000fd5b600061284a82611b98565b915061285583611b98565b92508282101561286857612867612810565b5b828203905092915050565b600061287e82611b98565b915061288983611b98565b9250827fffffffffffffffffffffffffffffffffffffffffffffffffffffffffffffffff038211156128be576128bd612810565b5b828201905092915050565b7f4552433732313a206d696e7420746f20746865207a65726f2061646472657373600082015250565b60006128ff602083611ae8565b915061290a826128c9565b602082019050919050565b6000602082019050818103600083015261292e816128f2565b9050919050565b7f4552433732313a20746f6b656e20616c7265616479206d696e74656400000000600082015250565b600061296b601c83611ae8565b915061297682612935565b602082019050919050565b6000602082019050818103600083015261299a8161295e565b9050919050565b7f45524337323155524953746f726167653a2055524920736574206f66206e6f6e60008201527f6578697374656e7420746f6b656e000000000000000000000000000000000000602082015250565b60006129fd602e83611ae8565b9150612a08826129a1565b604082019050919050565b60006020820190508181036000830152612a2c816129f0565b9050919050565b7f4552433732313a20617070726f766520746f2063616c6c657200000000000000600082015250565b6000612a69601983611ae8565b9150612a7482612a33565b602082019050919050565b60006020820190508181036000830152612a9881612a5c565b9050919050565b7f4552433732313a207472616e7366657220746f206e6f6e20455243373231526560008201527f63656976657220696d706c656d656e7465720000000000000000000000000000602082015250565b6000612afb603283611ae8565b9150612b0682612a9f565b604082019050919050565b60006020820190508181036000830152612b2a81612aee565b9050919050565b7f4552433732314d657461646174613a2055524920717565727920666f72206e6f60008201527f6e6578697374656e7420746f6b656e0000000000000000000000000000000000602082015250565b6000612b8d602f83611ae8565b9150612b9882612b31565b604082019050919050565b60006020820190508181036000830152612bbc81612b80565b9050919050565b600081519050919050565b600082825260208201905092915050565b6000612bea82612bc3565b612bf48185612bce565b9350612c04818560208601611af9565b612c0d81611b2c565b840191505092915050565b6000608082019050612c2d6000830187611c2d565b612c3a6020830186611c2d565b612c476040830185611e94565b8181036060830152612c598184612bdf565b905095945050505050565b600081519050612c7381611a4e565b92915050565b600060208284031215612c8f57612c8e611a18565b5b6000612c9d84828501612c64565b91505092915050565b6000612cb182611b98565b91507fffffffffffffffffffffffffffffffffffffffffffffffffffffffffffffffff821415612ce457612ce3612810565b5b600182019050919050565b7f4e487b7100000000000000000000000000000000000000000000000000000000600052601260045260246000fd5b6000612d2982611b98565b9150612d3483611b98565b925082612d4457612d43612cef565b5b828204905092915050565b6000612d5a82611b98565b9150612d6583611b98565b925082612d7557612d74612cef565b5b828206905092915050565b7f4e487b7100000000000000000000000000000000000000000000000000000000600052603260045260246000fdfea264697066735822122056e97bb5e24c09e5083624de3036ae80ce9735c595d03814db4e3a692166792d64736f6c634300080c0033",
  "immutableReferences": {},
  "source": "// SPDX-License-Identifier: MIT\r\npragma solidity ^0.8.0;\r\n\r\nimport \"@openzeppelin/contracts/utils/Counters.sol\";\r\nimport \"@openzeppelin/contracts/token/ERC721/extensions/ERC721URIStorage.sol\";\r\nimport \"@openzeppelin/contracts/token/ERC721/ERC721.sol\";\r\n\r\ncontract NFT is ERC721URIStorage {\r\n    using Counters for Counters.Counter;\r\n    Counters.Counter private _tokenIds;\r\n\r\n    mapping(address => uint256[]) private balance;\r\n\r\n    constructor() ERC721(\"Amazing Tokens\", \"AMAZ\") {}\r\n\r\n    // set the new token to the user's balance\r\n    function updateUsersNFTs(uint256 tokenId) public {\r\n        balance[msg.sender].push(tokenId);\r\n    }\r\n\r\n    // return all the tokens that belongs to the user\r\n    function getUserNFTs() public view returns (uint256[] memory) {\r\n        return balance[msg.sender];\r\n    }\r\n\r\n    // create a token for the user\r\n    function createToken(string memory tokenURI) public returns (uint256) {\r\n        _tokenIds.increment();\r\n        uint256 tokenId = _tokenIds.current();\r\n\r\n        _mint(msg.sender, tokenId);\r\n        _setTokenURI(tokenId, tokenURI);\r\n        updateUsersNFTs(tokenId);\r\n\r\n        return tokenId;\r\n    }\r\n}",
  "sourcePath": "D:\\03.block-chain\\01.miquelTC__nft-marketplace\\test-proj\\nft-marketplace-master\\src\\contracts\\NFT.sol",
  "compiler": {
    "name": "solc",
    "version": "0.8.12+commit.f00d7308.Emscripten.clang"
  },
  "schemaVersion": "3.4.4",
  "updatedAt": "2022-03-02T14:43:53.409Z",
  "devdoc": {
    "kind": "dev",
    "methods": {
      "approve(address,uint256)": {
        "details": "See {IERC721-approve}."
      },
      "balanceOf(address)": {
        "details": "See {IERC721-balanceOf}."
      },
      "getApproved(uint256)": {
        "details": "See {IERC721-getApproved}."
      },
      "isApprovedForAll(address,address)": {
        "details": "See {IERC721-isApprovedForAll}."
      },
      "name()": {
        "details": "See {IERC721Metadata-name}."
      },
      "ownerOf(uint256)": {
        "details": "See {IERC721-ownerOf}."
      },
      "safeTransferFrom(address,address,uint256)": {
        "details": "See {IERC721-safeTransferFrom}."
      },
      "safeTransferFrom(address,address,uint256,bytes)": {
        "details": "See {IERC721-safeTransferFrom}."
      },
      "setApprovalForAll(address,bool)": {
        "details": "See {IERC721-setApprovalForAll}."
      },
      "supportsInterface(bytes4)": {
        "details": "See {IERC165-supportsInterface}."
      },
      "symbol()": {
        "details": "See {IERC721Metadata-symbol}."
      },
      "tokenURI(uint256)": {
        "details": "See {IERC721Metadata-tokenURI}."
      },
      "transferFrom(address,address,uint256)": {
        "details": "See {IERC721-transferFrom}."
      }
    },
    "version": 1
  },
  "userdoc": {
    "kind": "user",
    "methods": {},
    "version": 1
  }
}