{
  "contractName": "Nftfy",
  "abi": [
    {
      "inputs": [
        {
          "internalType": "contract IERC721",
          "name": "",
          "type": "address"
        }
      ],
      "name": "wrappers",
      "outputs": [
        {
          "internalType": "contract ERC721Wrapper",
          "name": "",
          "type": "address"
        }
      ],
      "stateMutability": "view",
      "type": "function"
    },
    {
      "inputs": [
        {
          "internalType": "contract IERC721",
          "name": "_target",
          "type": "address"
        },
        {
          "internalType": "uint256",
          "name": "_tokenId",
          "type": "uint256"
        },
        {
          "internalType": "uint256",
          "name": "_sharesCount",
          "type": "uint256"
        },
        {
          "internalType": "uint8",
          "name": "_decimals",
          "type": "uint8"
        },
        {
          "internalType": "uint256",
          "name": "_exitPrice",
          "type": "uint256"
        },
        {
          "internalType": "contract IERC20",
          "name": "_paymentToken",
          "type": "address"
        },
        {
          "internalType": "bool",
          "name": "_remnant",
          "type": "bool"
        }
      ],
      "name": "securitize",
      "outputs": [],
      "stateMutability": "nonpayable",
      "type": "function"
    }
  ],
  "bytecode": "0x608060405234801561001057600080fd5b506001600081905550610e55806100286000396000f3fe608060405234801561001057600080fd5b50600436106100365760003560e01c80639cbfdf1d1461003b578063b41e991a14610057575b600080fd5b61005560048036038101906100509190610752565b610087565b005b610071600480360381019061006c91906107f4565b61034a565b60405161007e9190610880565b60405180910390f35b600260005414156100cd576040517f08c379a00000000000000000000000000000000000000000000000000000000081526004016100c4906108f8565b60405180910390fd5b6002600081905550600033905060006100e58961037d565b90506000851161012a576040517f08c379a000000000000000000000000000000000000000000000000000000000815260040161012190610964565b60405180910390fd5b6000871161016d576040517f08c379a0000000000000000000000000000000000000000000000000000000008152600401610164906109d0565b60405180910390fd5b6000878661017b9190610a1f565b146101bb576040517f08c379a00000000000000000000000000000000000000000000000000000000081526004016101b290610a9c565b60405180910390fd5b600087866101c99190610abc565b9050600073__Shares________________________________6345f5673f848c878d8d888d8d6040518963ffffffff1660e01b8152600401610212989796959493929190610b59565b602060405180830381865af415801561022f573d6000803e3d6000fd5b505050506040513d601f19601f820116820180604052508101906102539190610c15565b90508a73ffffffffffffffffffffffffffffffffffffffff166323b872dd85838d6040518463ffffffff1660e01b815260040161029293929190610c60565b600060405180830381600087803b1580156102ac57600080fd5b505af11580156102c0573d6000803e3d6000fd5b505050508273ffffffffffffffffffffffffffffffffffffffff16636b7ac257858c88856040518563ffffffff1660e01b81526004016103039493929190610cc7565b600060405180830381600087803b15801561031d57600080fd5b505af1158015610331573d6000803e3d6000fd5b5050505050505050600160008190555050505050505050565b60026020528060005260406000206000915054906101000a900473ffffffffffffffffffffffffffffffffffffffff1681565b6000600160008373ffffffffffffffffffffffffffffffffffffffff1673ffffffffffffffffffffffffffffffffffffffff16815260200190815260200160002060009054906101000a900460ff161561040c576040517f08c379a000000000000000000000000000000000000000000000000000000000815260040161040390610d58565b60405180910390fd5b600260008373ffffffffffffffffffffffffffffffffffffffff1673ffffffffffffffffffffffffffffffffffffffff16815260200190815260200160002060009054906101000a900473ffffffffffffffffffffffffffffffffffffffff169050600073ffffffffffffffffffffffffffffffffffffffff168173ffffffffffffffffffffffffffffffffffffffff1614156105f35773__Wrapper_______________________________6390b09fe8836040518263ffffffff1660e01b81526004016104da9190610d99565b602060405180830381865af41580156104f7573d6000803e3d6000fd5b505050506040513d601f19601f8201168201806040525081019061051b9190610df2565b905080600260008473ffffffffffffffffffffffffffffffffffffffff1673ffffffffffffffffffffffffffffffffffffffff16815260200190815260200160002060006101000a81548173ffffffffffffffffffffffffffffffffffffffff021916908373ffffffffffffffffffffffffffffffffffffffff16021790555060018060008373ffffffffffffffffffffffffffffffffffffffff1673ffffffffffffffffffffffffffffffffffffffff16815260200190815260200160002060006101000a81548160ff0219169083151502179055505b919050565b600080fd5b600073ffffffffffffffffffffffffffffffffffffffff82169050919050565b6000610628826105fd565b9050919050565b600061063a8261061d565b9050919050565b61064a8161062f565b811461065557600080fd5b50565b60008135905061066781610641565b92915050565b6000819050919050565b6106808161066d565b811461068b57600080fd5b50565b60008135905061069d81610677565b92915050565b600060ff82169050919050565b6106b9816106a3565b81146106c457600080fd5b50565b6000813590506106d6816106b0565b92915050565b60006106e78261061d565b9050919050565b6106f7816106dc565b811461070257600080fd5b50565b600081359050610714816106ee565b92915050565b60008115159050919050565b61072f8161071a565b811461073a57600080fd5b50565b60008135905061074c81610726565b92915050565b600080600080600080600060e0888a031215610771576107706105f8565b5b600061077f8a828b01610658565b97505060206107908a828b0161068e565b96505060406107a18a828b0161068e565b95505060606107b28a828b016106c7565b94505060806107c38a828b0161068e565b93505060a06107d48a828b01610705565b92505060c06107e58a828b0161073d565b91505092959891949750929550565b60006020828403121561080a576108096105f8565b5b600061081884828501610658565b91505092915050565b6000819050919050565b600061084661084161083c846105fd565b610821565b6105fd565b9050919050565b60006108588261082b565b9050919050565b600061086a8261084d565b9050919050565b61087a8161085f565b82525050565b60006020820190506108956000830184610871565b92915050565b600082825260208201905092915050565b7f5265656e7472616e637947756172643a207265656e7472616e742063616c6c00600082015250565b60006108e2601f8361089b565b91506108ed826108ac565b602082019050919050565b60006020820190508181036000830152610911816108d5565b9050919050565b7f696e76616c696420657869742070726963650000000000000000000000000000600082015250565b600061094e60128361089b565b915061095982610918565b602082019050919050565b6000602082019050818103600083015261097d81610941565b9050919050565b7f696e76616c69642073686172657320636f756e74000000000000000000000000600082015250565b60006109ba60148361089b565b91506109c582610984565b602082019050919050565b600060208201905081810360008301526109e9816109ad565b9050919050565b7f4e487b7100000000000000000000000000000000000000000000000000000000600052601260045260246000fd5b6000610a2a8261066d565b9150610a358361066d565b925082610a4557610a446109f0565b5b828206905092915050565b7f6672616374696f6e616c20707269636520706572207368617265000000000000600082015250565b6000610a86601a8361089b565b9150610a9182610a50565b602082019050919050565b60006020820190508181036000830152610ab581610a79565b9050919050565b6000610ac78261066d565b9150610ad28361066d565b925082610ae257610ae16109f0565b5b828204905092915050565b610af68161085f565b82525050565b610b058161066d565b82525050565b610b148161061d565b82525050565b610b23816106a3565b82525050565b6000610b348261084d565b9050919050565b610b4481610b29565b82525050565b610b538161071a565b82525050565b600061010082019050610b6f600083018b610aed565b610b7c602083018a610afc565b610b896040830189610b0b565b610b966060830188610afc565b610ba36080830187610b1a565b610bb060a0830186610afc565b610bbd60c0830185610b3b565b610bca60e0830184610b4a565b9998505050505050505050565b6000610be28261061d565b9050919050565b610bf281610bd7565b8114610bfd57600080fd5b50565b600081519050610c0f81610be9565b92915050565b600060208284031215610c2b57610c2a6105f8565b5b6000610c3984828501610c00565b91505092915050565b610c4b8161061d565b82525050565b610c5a8161066d565b82525050565b6000606082019050610c756000830186610c42565b610c826020830185610c42565b610c8f6040830184610c51565b949350505050565b610ca08161071a565b82525050565b6000610cb18261084d565b9050919050565b610cc181610ca6565b82525050565b6000608082019050610cdc6000830187610c42565b610ce96020830186610c51565b610cf66040830185610c97565b610d036060830184610cb8565b95945050505050565b7f63616e6e6f742077726170206120777261707065720000000000000000000000600082015250565b6000610d4260158361089b565b9150610d4d82610d0c565b602082019050919050565b60006020820190508181036000830152610d7181610d35565b9050919050565b6000610d838261084d565b9050919050565b610d9381610d78565b82525050565b6000602082019050610dae6000830184610d8a565b92915050565b6000610dbf8261061d565b9050919050565b610dcf81610db4565b8114610dda57600080fd5b50565b600081519050610dec81610dc6565b92915050565b600060208284031215610e0857610e076105f8565b5b6000610e1684828501610ddd565b9150509291505056fea2646970667358221220127a3afdcccf3b61520ad0a7c31a51c1de295004566eac886a78dc0622fe9ee964736f6c634300080c0033",
  "immutableReferences": {},
  "source": "// Nftfy\r\n// SPDX-License-Identifier: GPL-3.0-only\r\npragma solidity ^0.8.0;\r\n\r\nimport { IERC20 } from \"@openzeppelin/contracts/token/ERC20/IERC20.sol\";\r\nimport { IERC721 } from \"@openzeppelin/contracts/token/ERC721/IERC721.sol\";\r\nimport { ReentrancyGuard } from \"@openzeppelin/contracts/security/ReentrancyGuard.sol\";\r\n\r\nimport { Wrapper, ERC721Wrapper } from \"./Wrapper.sol\";\r\nimport { Shares, ERC721Shares } from \"./Shares.sol\";\r\n\r\ncontract Nftfy is ReentrancyGuard\r\n{\r\n\tmapping (IERC721 => bool) private wraps;\r\n\tmapping (IERC721 => ERC721Wrapper) public wrappers;\r\n\r\n\tfunction ensureWrapper(IERC721 _target) internal returns (ERC721Wrapper _wrapper)\r\n\t{\r\n\t\trequire(!wraps[_target], \"cannot wrap a wrapper\");\r\n\t\t_wrapper = wrappers[_target];\r\n\t\t//if (_wrapper == ERC721Wrapper(0)) {\r\n\t\tif (_wrapper == ERC721Wrapper(address(0))) {\r\n\t\t//<---\r\n\t\t\t_wrapper = Wrapper.create(_target);\r\n\t\t\twrappers[_target] = _wrapper;\r\n\t\t\twraps[_wrapper] = true;\r\n\t\t}\r\n\t\treturn _wrapper;\r\n\t}\r\n\r\n\tfunction securitize(IERC721 _target, uint256 _tokenId, uint256 _sharesCount, uint8 _decimals, uint256 _exitPrice, IERC20 _paymentToken, bool _remnant) external nonReentrant\r\n\t{\r\n\t\taddress _from = msg.sender;\r\n\t\tERC721Wrapper _wrapper = ensureWrapper(_target);\r\n\t\trequire(_exitPrice > 0, \"invalid exit price\");\r\n\t\trequire(_sharesCount > 0, \"invalid shares count\");\r\n\t\trequire(_exitPrice % _sharesCount == 0, \"fractional price per share\");\r\n\t\tuint256 _sharePrice = _exitPrice / _sharesCount;\r\n\t\tERC721Shares _shares = Shares.create(_wrapper, _tokenId, _from, _sharesCount, _decimals, _sharePrice, _paymentToken, _remnant);\r\n\t\t_target.transferFrom(_from, address(_shares), _tokenId);\r\n\t\t_wrapper._insert(_from, _tokenId, _remnant, _shares);\r\n\t}\r\n}\r\n",
  "sourcePath": "D:\\03.block-chain\\01.miquelTC__nft-marketplace\\test-proj\\nft-marketplace-master\\src\\contracts\\Loan NFTfi\\v1.0\\Nftfy.sol",
  "compiler": {
    "name": "solc",
    "version": "0.8.12+commit.f00d7308.Emscripten.clang"
  },
  "schemaVersion": "3.4.4",
  "updatedAt": "2022-02-22T12:12:46.901Z",
  "devdoc": {
    "kind": "dev",
    "methods": {},
    "version": 1
  },
  "userdoc": {
    "kind": "user",
    "methods": {},
    "version": 1
  }
}