{
  "contractName": "PersonalLoanNFTCollateral",
  "abi": [
    {
      "inputs": [
        {
          "internalType": "uint256",
          "name": "initialSupply",
          "type": "uint256"
        }
      ],
      "stateMutability": "nonpayable",
      "type": "constructor"
    },
    {
      "anonymous": false,
      "inputs": [
        {
          "indexed": true,
          "internalType": "address",
          "name": "owner",
          "type": "address"
        },
        {
          "indexed": true,
          "internalType": "address",
          "name": "spender",
          "type": "address"
        },
        {
          "indexed": false,
          "internalType": "uint256",
          "name": "value",
          "type": "uint256"
        }
      ],
      "name": "Approval",
      "type": "event"
    },
    {
      "anonymous": false,
      "inputs": [
        {
          "indexed": true,
          "internalType": "address",
          "name": "from",
          "type": "address"
        },
        {
          "indexed": true,
          "internalType": "address",
          "name": "to",
          "type": "address"
        },
        {
          "indexed": false,
          "internalType": "uint256",
          "name": "value",
          "type": "uint256"
        }
      ],
      "name": "Transfer",
      "type": "event"
    },
    {
      "stateMutability": "nonpayable",
      "type": "fallback"
    },
    {
      "inputs": [
        {
          "internalType": "address",
          "name": "owner",
          "type": "address"
        },
        {
          "internalType": "address",
          "name": "spender",
          "type": "address"
        }
      ],
      "name": "allowance",
      "outputs": [
        {
          "internalType": "uint256",
          "name": "",
          "type": "uint256"
        }
      ],
      "stateMutability": "view",
      "type": "function"
    },
    {
      "inputs": [
        {
          "internalType": "address",
          "name": "spender",
          "type": "address"
        },
        {
          "internalType": "uint256",
          "name": "amount",
          "type": "uint256"
        }
      ],
      "name": "approve",
      "outputs": [
        {
          "internalType": "bool",
          "name": "",
          "type": "bool"
        }
      ],
      "stateMutability": "nonpayable",
      "type": "function"
    },
    {
      "inputs": [
        {
          "internalType": "address",
          "name": "account",
          "type": "address"
        }
      ],
      "name": "balanceOf",
      "outputs": [
        {
          "internalType": "uint256",
          "name": "",
          "type": "uint256"
        }
      ],
      "stateMutability": "view",
      "type": "function"
    },
    {
      "inputs": [],
      "name": "borrowerAddress",
      "outputs": [
        {
          "internalType": "address payable",
          "name": "",
          "type": "address"
        }
      ],
      "stateMutability": "view",
      "type": "function"
    },
    {
      "inputs": [],
      "name": "contractAddress",
      "outputs": [
        {
          "internalType": "address",
          "name": "",
          "type": "address"
        }
      ],
      "stateMutability": "view",
      "type": "function"
    },
    {
      "inputs": [],
      "name": "decimals",
      "outputs": [
        {
          "internalType": "uint8",
          "name": "",
          "type": "uint8"
        }
      ],
      "stateMutability": "view",
      "type": "function"
    },
    {
      "inputs": [
        {
          "internalType": "address",
          "name": "spender",
          "type": "address"
        },
        {
          "internalType": "uint256",
          "name": "subtractedValue",
          "type": "uint256"
        }
      ],
      "name": "decreaseAllowance",
      "outputs": [
        {
          "internalType": "bool",
          "name": "",
          "type": "bool"
        }
      ],
      "stateMutability": "nonpayable",
      "type": "function"
    },
    {
      "inputs": [
        {
          "internalType": "address",
          "name": "spender",
          "type": "address"
        },
        {
          "internalType": "uint256",
          "name": "addedValue",
          "type": "uint256"
        }
      ],
      "name": "increaseAllowance",
      "outputs": [
        {
          "internalType": "bool",
          "name": "",
          "type": "bool"
        }
      ],
      "stateMutability": "nonpayable",
      "type": "function"
    },
    {
      "inputs": [],
      "name": "lenderAddress",
      "outputs": [
        {
          "internalType": "address payable",
          "name": "",
          "type": "address"
        }
      ],
      "stateMutability": "view",
      "type": "function"
    },
    {
      "inputs": [],
      "name": "name",
      "outputs": [
        {
          "internalType": "string",
          "name": "",
          "type": "string"
        }
      ],
      "stateMutability": "view",
      "type": "function"
    },
    {
      "inputs": [],
      "name": "state",
      "outputs": [
        {
          "internalType": "enum PersonalLoanNFTCollateral.LoanState",
          "name": "",
          "type": "uint8"
        }
      ],
      "stateMutability": "view",
      "type": "function"
    },
    {
      "inputs": [],
      "name": "symbol",
      "outputs": [
        {
          "internalType": "string",
          "name": "",
          "type": "string"
        }
      ],
      "stateMutability": "view",
      "type": "function"
    },
    {
      "inputs": [],
      "name": "terms",
      "outputs": [
        {
          "internalType": "uint256",
          "name": "totalLoanAmountETH",
          "type": "uint256"
        },
        {
          "internalType": "uint256",
          "name": "interestAmountETH",
          "type": "uint256"
        },
        {
          "internalType": "uint256",
          "name": "repayByTimestamp",
          "type": "uint256"
        },
        {
          "internalType": "uint256",
          "name": "collateralAmountNFT",
          "type": "uint256"
        }
      ],
      "stateMutability": "view",
      "type": "function"
    },
    {
      "inputs": [],
      "name": "totalSupply",
      "outputs": [
        {
          "internalType": "uint256",
          "name": "",
          "type": "uint256"
        }
      ],
      "stateMutability": "view",
      "type": "function"
    },
    {
      "inputs": [
        {
          "internalType": "address",
          "name": "to",
          "type": "address"
        },
        {
          "internalType": "uint256",
          "name": "amount",
          "type": "uint256"
        }
      ],
      "name": "transfer",
      "outputs": [
        {
          "internalType": "bool",
          "name": "",
          "type": "bool"
        }
      ],
      "stateMutability": "nonpayable",
      "type": "function"
    },
    {
      "inputs": [
        {
          "internalType": "address",
          "name": "from",
          "type": "address"
        },
        {
          "internalType": "address",
          "name": "to",
          "type": "address"
        },
        {
          "internalType": "uint256",
          "name": "amount",
          "type": "uint256"
        }
      ],
      "name": "transferFrom",
      "outputs": [
        {
          "internalType": "bool",
          "name": "",
          "type": "bool"
        }
      ],
      "stateMutability": "nonpayable",
      "type": "function"
    },
    {
      "inputs": [],
      "name": "fundLoan",
      "outputs": [],
      "stateMutability": "nonpayable",
      "type": "function"
    },
    {
      "inputs": [],
      "name": "takeLoanAndAcceptTerms",
      "outputs": [],
      "stateMutability": "payable",
      "type": "function"
    },
    {
      "inputs": [],
      "name": "repayLoan",
      "outputs": [],
      "stateMutability": "nonpayable",
      "type": "function"
    },
    {
      "inputs": [],
      "name": "liquidateLoan",
      "outputs": [],
      "stateMutability": "nonpayable",
      "type": "function"
    }
  ],
  "bytecode": "0x608060405266071afd498d00006005553480156200001c57600080fd5b50604051620029cf380380620029cf83398181016040528101906200004291906200046e565b6040518060400160405280600481526020017f6e616d65000000000000000000000000000000000000000000000000000000008152506040518060400160405280600681526020017f73796d626f6c00000000000000000000000000000000000000000000000000008152508160039080519060200190620000c69291906200037e565b508060049080519060200190620000df9291906200037e565b505050620000f43382620001fb60201b60201c565b604051806080016040528082815260200160055481526020014281526020018281525060096000820151816000015560208201518160010155604082015181600201556060820151816003015590505030600860006101000a81548173ffffffffffffffffffffffffffffffffffffffff021916908373ffffffffffffffffffffffffffffffffffffffff16021790555033600660006101000a81548173ffffffffffffffffffffffffffffffffffffffff021916908373ffffffffffffffffffffffffffffffffffffffff1602179055506000600d60006101000a81548160ff02191690836002811115620001ef57620001ee620004a0565b5b02179055505062000671565b600073ffffffffffffffffffffffffffffffffffffffff168273ffffffffffffffffffffffffffffffffffffffff1614156200026e576040517f08c379a0000000000000000000000000000000000000000000000000000000008152600401620002659062000530565b60405180910390fd5b62000282600083836200037460201b60201c565b806002600082825462000296919062000581565b92505081905550806000808473ffffffffffffffffffffffffffffffffffffffff1673ffffffffffffffffffffffffffffffffffffffff1681526020019081526020016000206000828254620002ed919062000581565b925050819055508173ffffffffffffffffffffffffffffffffffffffff16600073ffffffffffffffffffffffffffffffffffffffff167fddf252ad1be2c89b69c2b068fc378daa952ba7f163c4a11628f55a4df523b3ef83604051620003549190620005ef565b60405180910390a362000370600083836200037960201b60201c565b5050565b505050565b505050565b8280546200038c906200063b565b90600052602060002090601f016020900481019282620003b05760008555620003fc565b82601f10620003cb57805160ff1916838001178555620003fc565b82800160010185558215620003fc579182015b82811115620003fb578251825591602001919060010190620003de565b5b5090506200040b91906200040f565b5090565b5b808211156200042a57600081600090555060010162000410565b5090565b600080fd5b6000819050919050565b620004488162000433565b81146200045457600080fd5b50565b60008151905062000468816200043d565b92915050565b6000602082840312156200048757620004866200042e565b5b6000620004978482850162000457565b91505092915050565b7f4e487b7100000000000000000000000000000000000000000000000000000000600052602160045260246000fd5b600082825260208201905092915050565b7f45524332303a206d696e7420746f20746865207a65726f206164647265737300600082015250565b600062000518601f83620004cf565b91506200052582620004e0565b602082019050919050565b600060208201905081810360008301526200054b8162000509565b9050919050565b7f4e487b7100000000000000000000000000000000000000000000000000000000600052601160045260246000fd5b60006200058e8262000433565b91506200059b8362000433565b9250827fffffffffffffffffffffffffffffffffffffffffffffffffffffffffffffffff03821115620005d357620005d262000552565b5b828201905092915050565b620005e98162000433565b82525050565b6000602082019050620006066000830184620005de565b92915050565b7f4e487b7100000000000000000000000000000000000000000000000000000000600052602260045260246000fd5b600060028204905060018216806200065457607f821691505b602082108114156200066b576200066a6200060c565b5b50919050565b61234e80620006816000396000f3fe6080604052600436106101235760003560e01c80638db57994116100a0578063d502562511610064578063d5025625146103ff578063dd62ed3e1461042d578063f6b4dfb41461046a578063f966ade714610495578063feb554b8146104ac57610124565b80638db579941461031857806395d89b411461032f578063a457c2d71461035a578063a9059cbb14610397578063c19d93fb146103d457610124565b806339509351116100e7578063395093511461023157806366581e061461026e57806369d812551461028557806370a08231146102b05780637ba61ea5146102ed57610124565b806306fdde0314610136578063095ea7b31461016157806318160ddd1461019e57806323b872dd146101c9578063313ce5671461020657610124565b5b34801561013057600080fd5b50600080fd5b34801561014257600080fd5b5061014b6104b6565b60405161015891906115e4565b60405180910390f35b34801561016d57600080fd5b506101886004803603810190610183919061169f565b610548565b60405161019591906116fa565b60405180910390f35b3480156101aa57600080fd5b506101b361056b565b6040516101c09190611724565b60405180910390f35b3480156101d557600080fd5b506101f060048036038101906101eb919061173f565b610575565b6040516101fd91906116fa565b60405180910390f35b34801561021257600080fd5b5061021b6105a4565b60405161022891906117ae565b60405180910390f35b34801561023d57600080fd5b506102586004803603810190610253919061169f565b6105ad565b60405161026591906116fa565b60405180910390f35b34801561027a57600080fd5b50610283610657565b005b34801561029157600080fd5b5061029a6107e0565b6040516102a791906117ea565b60405180910390f35b3480156102bc57600080fd5b506102d760048036038101906102d29190611805565b610806565b6040516102e49190611724565b60405180910390f35b3480156102f957600080fd5b5061030261084e565b60405161030f91906117ea565b60405180910390f35b34801561032457600080fd5b5061032d610874565b005b34801561033b57600080fd5b506103446109c1565b60405161035191906115e4565b60405180910390f35b34801561036657600080fd5b50610381600480360381019061037c919061169f565b610a53565b60405161038e91906116fa565b60405180910390f35b3480156103a357600080fd5b506103be60048036038101906103b9919061169f565b610b3d565b6040516103cb91906116fa565b60405180910390f35b3480156103e057600080fd5b506103e9610b60565b6040516103f691906118a9565b60405180910390f35b34801561040b57600080fd5b50610414610b73565b60405161042494939291906118c4565b60405180910390f35b34801561043957600080fd5b50610454600480360381019061044f9190611909565b610b91565b6040516104619190611724565b60405180910390f35b34801561047657600080fd5b5061047f610c18565b60405161048c9190611958565b60405180910390f35b3480156104a157600080fd5b506104aa610c3e565b005b6104b4610e6c565b005b6060600380546104c5906119a2565b80601f01602080910402602001604051908101604052809291908181526020018280546104f1906119a2565b801561053e5780601f106105135761010080835404028352916020019161053e565b820191906000526020600020905b81548152906001019060200180831161052157829003601f168201915b5050505050905090565b600080610553611061565b9050610560818585611069565b600191505092915050565b6000600254905090565b600080610580611061565b905061058d858285611234565b6105988585856112c0565b60019150509392505050565b60006012905090565b6000806105b8611061565b905061064c818585600160008673ffffffffffffffffffffffffffffffffffffffff1673ffffffffffffffffffffffffffffffffffffffff16815260200190815260200160002060008973ffffffffffffffffffffffffffffffffffffffff1673ffffffffffffffffffffffffffffffffffffffff168152602001908152602001600020546106479190611a03565b611069565b600191505092915050565b600280600281111561066c5761066b611832565b5b600d60009054906101000a900460ff16600281111561068e5761068d611832565b5b146106ce576040517f08c379a00000000000000000000000000000000000000000000000000000000081526004016106c590611af1565b60405180910390fd5b600660009054906101000a900473ffffffffffffffffffffffffffffffffffffffff1673ffffffffffffffffffffffffffffffffffffffff163373ffffffffffffffffffffffffffffffffffffffff161461075e576040517f08c379a000000000000000000000000000000000000000000000000000000000815260040161075590611ba9565b60405180910390fd5b60096002015442116107a5576040517f08c379a000000000000000000000000000000000000000000000000000000000815260040161079c90611c61565b60405180910390fd5b600660009054906101000a900473ffffffffffffffffffffffffffffffffffffffff1673ffffffffffffffffffffffffffffffffffffffff16ff5b600660009054906101000a900473ffffffffffffffffffffffffffffffffffffffff1681565b60008060008373ffffffffffffffffffffffffffffffffffffffff1673ffffffffffffffffffffffffffffffffffffffff168152602001908152602001600020549050919050565b600760009054906101000a900473ffffffffffffffffffffffffffffffffffffffff1681565b600080600281111561088957610888611832565b5b600d60009054906101000a900460ff1660028111156108ab576108aa611832565b5b146108eb576040517f08c379a00000000000000000000000000000000000000000000000000000000081526004016108e290611af1565b60405180910390fd5b6001600d60006101000a81548160ff0219169083600281111561091157610910611832565b5b0217905550600860009054906101000a900473ffffffffffffffffffffffffffffffffffffffff1673ffffffffffffffffffffffffffffffffffffffff166323b872dd33306009600001546040518463ffffffff1660e01b815260040161097a93929190611ce0565b6020604051808303816000875af1158015610999573d6000803e3d6000fd5b505050506040513d601f19601f820116820180604052508101906109bd9190611d43565b5050565b6060600480546109d0906119a2565b80601f01602080910402602001604051908101604052809291908181526020018280546109fc906119a2565b8015610a495780601f10610a1e57610100808354040283529160200191610a49565b820191906000526020600020905b815481529060010190602001808311610a2c57829003601f168201915b5050505050905090565b600080610a5e611061565b90506000600160008373ffffffffffffffffffffffffffffffffffffffff1673ffffffffffffffffffffffffffffffffffffffff16815260200190815260200160002060008673ffffffffffffffffffffffffffffffffffffffff1673ffffffffffffffffffffffffffffffffffffffff16815260200190815260200160002054905083811015610b24576040517f08c379a0000000000000000000000000000000000000000000000000000000008152600401610b1b90611de2565b60405180910390fd5b610b318286868403611069565b60019250505092915050565b600080610b48611061565b9050610b558185856112c0565b600191505092915050565b600d60009054906101000a900460ff1681565b60098060000154908060010154908060020154908060030154905084565b6000600160008473ffffffffffffffffffffffffffffffffffffffff1673ffffffffffffffffffffffffffffffffffffffff16815260200190815260200160002060008373ffffffffffffffffffffffffffffffffffffffff1673ffffffffffffffffffffffffffffffffffffffff16815260200190815260200160002054905092915050565b600860009054906101000a900473ffffffffffffffffffffffffffffffffffffffff1681565b6002806002811115610c5357610c52611832565b5b600d60009054906101000a900460ff166002811115610c7557610c74611832565b5b14610cb5576040517f08c379a0000000000000000000000000000000000000000000000000000000008152600401610cac90611af1565b60405180910390fd5b600760009054906101000a900473ffffffffffffffffffffffffffffffffffffffff1673ffffffffffffffffffffffffffffffffffffffff163373ffffffffffffffffffffffffffffffffffffffff1614610d45576040517f08c379a0000000000000000000000000000000000000000000000000000000008152600401610d3c90611e9a565b60405180910390fd5b600860009054906101000a900473ffffffffffffffffffffffffffffffffffffffff1673ffffffffffffffffffffffffffffffffffffffff166323b872dd600760009054906101000a900473ffffffffffffffffffffffffffffffffffffffff16600660009054906101000a900473ffffffffffffffffffffffffffffffffffffffff166009600001546040518463ffffffff1660e01b8152600401610ded93929190611eba565b6020604051808303816000875af1158015610e0c573d6000803e3d6000fd5b505050506040513d601f19601f82011682018060405250810190610e309190611d43565b50600760009054906101000a900473ffffffffffffffffffffffffffffffffffffffff1673ffffffffffffffffffffffffffffffffffffffff16ff5b6001806002811115610e8157610e80611832565b5b600d60009054906101000a900460ff166002811115610ea357610ea2611832565b5b14610ee3576040517f08c379a0000000000000000000000000000000000000000000000000000000008152600401610eda90611af1565b60405180910390fd5b6009600301543414610f2a576040517f08c379a0000000000000000000000000000000000000000000000000000000008152600401610f2190611f89565b60405180910390fd5b33600760006101000a81548173ffffffffffffffffffffffffffffffffffffffff021916908373ffffffffffffffffffffffffffffffffffffffff1602179055506002600d60006101000a81548160ff02191690836002811115610f9157610f90611832565b5b0217905550600860009054906101000a900473ffffffffffffffffffffffffffffffffffffffff1673ffffffffffffffffffffffffffffffffffffffff1663a9059cbb600760009054906101000a900473ffffffffffffffffffffffffffffffffffffffff166009600001546040518363ffffffff1660e01b815260040161101a929190611fa9565b6020604051808303816000875af1158015611039573d6000803e3d6000fd5b505050506040513d601f19601f8201168201806040525081019061105d9190611d43565b5050565b600033905090565b600073ffffffffffffffffffffffffffffffffffffffff168373ffffffffffffffffffffffffffffffffffffffff1614156110d9576040517f08c379a00000000000000000000000000000000000000000000000000000000081526004016110d090612044565b60405180910390fd5b600073ffffffffffffffffffffffffffffffffffffffff168273ffffffffffffffffffffffffffffffffffffffff161415611149576040517f08c379a0000000000000000000000000000000000000000000000000000000008152600401611140906120d6565b60405180910390fd5b80600160008573ffffffffffffffffffffffffffffffffffffffff1673ffffffffffffffffffffffffffffffffffffffff16815260200190815260200160002060008473ffffffffffffffffffffffffffffffffffffffff1673ffffffffffffffffffffffffffffffffffffffff168152602001908152602001600020819055508173ffffffffffffffffffffffffffffffffffffffff168373ffffffffffffffffffffffffffffffffffffffff167f8c5be1e5ebec7d5bd14f71427d1e84f3dd0314c0f7b2291e5b200ac8c7c3b925836040516112279190611724565b60405180910390a3505050565b60006112408484610b91565b90507fffffffffffffffffffffffffffffffffffffffffffffffffffffffffffffffff81146112ba57818110156112ac576040517f08c379a00000000000000000000000000000000000000000000000000000000081526004016112a390612142565b60405180910390fd5b6112b98484848403611069565b5b50505050565b600073ffffffffffffffffffffffffffffffffffffffff168373ffffffffffffffffffffffffffffffffffffffff161415611330576040517f08c379a0000000000000000000000000000000000000000000000000000000008152600401611327906121d4565b60405180910390fd5b600073ffffffffffffffffffffffffffffffffffffffff168273ffffffffffffffffffffffffffffffffffffffff1614156113a0576040517f08c379a000000000000000000000000000000000000000000000000000000000815260040161139790612266565b60405180910390fd5b6113ab838383611541565b60008060008573ffffffffffffffffffffffffffffffffffffffff1673ffffffffffffffffffffffffffffffffffffffff16815260200190815260200160002054905081811015611431576040517f08c379a0000000000000000000000000000000000000000000000000000000008152600401611428906122f8565b60405180910390fd5b8181036000808673ffffffffffffffffffffffffffffffffffffffff1673ffffffffffffffffffffffffffffffffffffffff16815260200190815260200160002081905550816000808573ffffffffffffffffffffffffffffffffffffffff1673ffffffffffffffffffffffffffffffffffffffff16815260200190815260200160002060008282546114c49190611a03565b925050819055508273ffffffffffffffffffffffffffffffffffffffff168473ffffffffffffffffffffffffffffffffffffffff167fddf252ad1be2c89b69c2b068fc378daa952ba7f163c4a11628f55a4df523b3ef846040516115289190611724565b60405180910390a361153b848484611546565b50505050565b505050565b505050565b600081519050919050565b600082825260208201905092915050565b60005b8381101561158557808201518184015260208101905061156a565b83811115611594576000848401525b50505050565b6000601f19601f8301169050919050565b60006115b68261154b565b6115c08185611556565b93506115d0818560208601611567565b6115d98161159a565b840191505092915050565b600060208201905081810360008301526115fe81846115ab565b905092915050565b600080fd5b600073ffffffffffffffffffffffffffffffffffffffff82169050919050565b60006116368261160b565b9050919050565b6116468161162b565b811461165157600080fd5b50565b6000813590506116638161163d565b92915050565b6000819050919050565b61167c81611669565b811461168757600080fd5b50565b60008135905061169981611673565b92915050565b600080604083850312156116b6576116b5611606565b5b60006116c485828601611654565b92505060206116d58582860161168a565b9150509250929050565b60008115159050919050565b6116f4816116df565b82525050565b600060208201905061170f60008301846116eb565b92915050565b61171e81611669565b82525050565b60006020820190506117396000830184611715565b92915050565b60008060006060848603121561175857611757611606565b5b600061176686828701611654565b935050602061177786828701611654565b92505060406117888682870161168a565b9150509250925092565b600060ff82169050919050565b6117a881611792565b82525050565b60006020820190506117c3600083018461179f565b92915050565b60006117d48261160b565b9050919050565b6117e4816117c9565b82525050565b60006020820190506117ff60008301846117db565b92915050565b60006020828403121561181b5761181a611606565b5b600061182984828501611654565b91505092915050565b7f4e487b7100000000000000000000000000000000000000000000000000000000600052602160045260246000fd5b6003811061187257611871611832565b5b50565b600081905061188382611861565b919050565b600061189382611875565b9050919050565b6118a381611888565b82525050565b60006020820190506118be600083018461189a565b92915050565b60006080820190506118d96000830187611715565b6118e66020830186611715565b6118f36040830185611715565b6119006060830184611715565b95945050505050565b600080604083850312156119205761191f611606565b5b600061192e85828601611654565b925050602061193f85828601611654565b9150509250929050565b6119528161162b565b82525050565b600060208201905061196d6000830184611949565b92915050565b7f4e487b7100000000000000000000000000000000000000000000000000000000600052602260045260246000fd5b600060028204905060018216806119ba57607f821691505b602082108114156119ce576119cd611973565b5b50919050565b7f4e487b7100000000000000000000000000000000000000000000000000000000600052601160045260246000fd5b6000611a0e82611669565b9150611a1983611669565b9250827fffffffffffffffffffffffffffffffffffffffffffffffffffffffffffffffff03821115611a4e57611a4d6119d4565b5b828201905092915050565b7f4e6f7420616c6c6f7765643a20546869732066756e6374696f6e2063616e206f60008201527f6e6c7920626520706572666f726d656420696e206120646966666572656e742060208201527f636f6e74726163742073746174652e0000000000000000000000000000000000604082015250565b6000611adb604f83611556565b9150611ae682611a59565b606082019050919050565b60006020820190508181036000830152611b0a81611ace565b9050919050565b7f4f6e6c7920746865206c656e6465722063616e206c697175696461746520746860008201527f6973206c6f616e20616e6420636f6c6c6563742074686520636f6c6c6174657260208201527f616c2e0000000000000000000000000000000000000000000000000000000000604082015250565b6000611b93604383611556565b9150611b9e82611b11565b606082019050919050565b60006020820190508181036000830152611bc281611b86565b9050919050565b7f596f752063616e6e6f74206c69717569646174652074686973206c6f616e207560008201527f6e74696c207468652072657061796d656e74206475652064617465206861732060208201527f7061737365642e00000000000000000000000000000000000000000000000000604082015250565b6000611c4b604783611556565b9150611c5682611bc9565b606082019050919050565b60006020820190508181036000830152611c7a81611c3e565b9050919050565b6000819050919050565b6000611ca6611ca1611c9c8461160b565b611c81565b61160b565b9050919050565b6000611cb882611c8b565b9050919050565b6000611cca82611cad565b9050919050565b611cda81611cbf565b82525050565b6000606082019050611cf56000830186611cd1565b611d026020830185611949565b611d0f6040830184611715565b949350505050565b611d20816116df565b8114611d2b57600080fd5b50565b600081519050611d3d81611d17565b92915050565b600060208284031215611d5957611d58611606565b5b6000611d6784828501611d2e565b91505092915050565b7f45524332303a2064656372656173656420616c6c6f77616e63652062656c6f7760008201527f207a65726f000000000000000000000000000000000000000000000000000000602082015250565b6000611dcc602583611556565b9150611dd782611d70565b604082019050919050565b60006020820190508181036000830152611dfb81611dbf565b9050919050565b7f4f6e6c792074686520626f72726f7765722063616e207265706179207468697360008201527f206c6f616e20616e6420636f6c6c65637420746865697220636f6c6c6174657260208201527f616c2e0000000000000000000000000000000000000000000000000000000000604082015250565b6000611e84604383611556565b9150611e8f82611e02565b606082019050919050565b60006020820190508181036000830152611eb381611e77565b9050919050565b6000606082019050611ecf6000830186611cd1565b611edc6020830185611cd1565b611ee96040830184611715565b949350505050565b7f496e76616c696420636f6c6c61746572616c20616d6f756e742e20506c65617360008201527f65206d6174636820746f20746865206167726565642075706f6e207465726d7360208201527f2e00000000000000000000000000000000000000000000000000000000000000604082015250565b6000611f73604183611556565b9150611f7e82611ef1565b606082019050919050565b60006020820190508181036000830152611fa281611f66565b9050919050565b6000604082019050611fbe6000830185611cd1565b611fcb6020830184611715565b9392505050565b7f45524332303a20617070726f76652066726f6d20746865207a65726f2061646460008201527f7265737300000000000000000000000000000000000000000000000000000000602082015250565b600061202e602483611556565b915061203982611fd2565b604082019050919050565b6000602082019050818103600083015261205d81612021565b9050919050565b7f45524332303a20617070726f766520746f20746865207a65726f20616464726560008201527f7373000000000000000000000000000000000000000000000000000000000000602082015250565b60006120c0602283611556565b91506120cb82612064565b604082019050919050565b600060208201905081810360008301526120ef816120b3565b9050919050565b7f45524332303a20696e73756666696369656e7420616c6c6f77616e6365000000600082015250565b600061212c601d83611556565b9150612137826120f6565b602082019050919050565b6000602082019050818103600083015261215b8161211f565b9050919050565b7f45524332303a207472616e736665722066726f6d20746865207a65726f20616460008201527f6472657373000000000000000000000000000000000000000000000000000000602082015250565b60006121be602583611556565b91506121c982612162565b604082019050919050565b600060208201905081810360008301526121ed816121b1565b9050919050565b7f45524332303a207472616e7366657220746f20746865207a65726f206164647260008201527f6573730000000000000000000000000000000000000000000000000000000000602082015250565b6000612250602383611556565b915061225b826121f4565b604082019050919050565b6000602082019050818103600083015261227f81612243565b9050919050565b7f45524332303a207472616e7366657220616d6f756e742065786365656473206260008201527f616c616e63650000000000000000000000000000000000000000000000000000602082015250565b60006122e2602683611556565b91506122ed82612286565b604082019050919050565b60006020820190508181036000830152612311816122d5565b905091905056fea2646970667358221220057d93b53615ae3f04abe920f28a808ccab8878e120e52d5c866e45f39729f0164736f6c634300080c0033",
  "immutableReferences": {},
  "source": "// SPDX-License-Identifier: MIT\r\npragma solidity ^0.8.0;\r\npragma experimental ABIEncoderV2;\r\n\r\nimport \"@openzeppelin/contracts/token/ERC20/ERC20.sol\";\r\n//import \"./ERC721/token/ERC20/ERC20.sol\";\r\n// import \"@nomiclab/builder/console.sol\";\r\n\r\n\r\ncontract PersonalLoanNFTCollateral is ERC20 {   //ERC20\r\n\r\n    uint256 interestAmountETH_val = 0.002 ether;\r\n    address payable public lenderAddress;\r\n    address payable public borrowerAddress;\r\n    address public contractAddress;\r\n\r\n    struct Terms {\r\n        uint totalLoanAmountETH;\r\n        uint interestAmountETH;\r\n        uint repayByTimestamp;\r\n        uint collateralAmountNFT;\r\n    }\r\n    Terms public terms;\r\n\r\n    // There are 5 states this contract can be in: Created, Funded, Taken, Repayed, Liquidated.\r\n        // Only 3 are listed as the latter 2 will result in the termination of the contract.\r\n    enum LoanState {\r\n        Created, Funded, Taken\r\n    }\r\n    LoanState public state;\r\n\r\n    modifier onlyInState(LoanState expectedState) {\r\n        require(state == expectedState,\r\n        \"Not allowed: This function can only be performed in a different contract state.\"\r\n        );\r\n        _;\r\n    }\r\n\r\n\r\n    // // added contruct by josh\r\n    constructor(\r\n        // string memory name,\r\n        // string memory symbol,\r\n        uint256 initialSupply\r\n    ) public ERC20(\"name\", \"symbol\") {\r\n        _mint(msg.sender, initialSupply);\r\n\r\n        terms = Terms(initialSupply, interestAmountETH_val, block.timestamp, initialSupply);\r\n        contractAddress = address(this);\r\n        lenderAddress = payable(msg.sender); //msg.sender;\r\n        state = LoanState.Created;\r\n        // console.log(LoanState);\r\n    }\r\n\r\n    // constructor(Terms memory _terms, address _contractAddress) public {\r\n    //     terms = _terms;\r\n    //     contractAddress =  _contractAddress ;\r\n    //     lenderAddress = payable(msg.sender); //msg.sender;\r\n    //     state = LoanState.Created;\r\n    // }\r\n    \r\n    \r\n    // constructor(uint totalLoanAmountETH, uint collateralAmountNFT, address _contractAddress) public {\r\n    //     terms = Terms(totalLoanAmountETH, interestAmountETH_val, block.timestamp, collateralAmountNFT);\r\n    //     contractAddress =  _contractAddress ;\r\n    //     lenderAddress = payable(msg.sender); //msg.sender;\r\n    //     state = LoanState.Created;\r\n    // }\r\n\r\n\r\n    function fundLoan() public onlyInState(LoanState.Created) {\r\n        state = LoanState.Funded;\r\n        ERC20(contractAddress).transferFrom(\r\n            payable(msg.sender), //msg.sender,\r\n            address(this),\r\n            terms.totalLoanAmountETH\r\n        ); \r\n        // external returns (bool);\r\n    }\r\n\r\n    function takeLoanAndAcceptTerms() public payable onlyInState(LoanState.Funded) {\r\n        require(msg.value == terms.collateralAmountNFT, \r\n        \"Invalid collateral amount. Please match to the agreed upon terms.\"\r\n        );\r\n        borrowerAddress = payable(msg.sender); //msg.sender;\r\n        state = LoanState.Taken;\r\n        ERC20(contractAddress).transfer(\r\n            borrowerAddress,\r\n            terms.totalLoanAmountETH\r\n        );\r\n        // external returns (bool);\r\n    }\r\n\r\n    function repayLoan() public onlyInState(LoanState.Taken) {\r\n        require(payable(msg.sender) == borrowerAddress,\r\n        \"Only the borrower can repay this loan and collect their collateral.\"\r\n        );\r\n        ERC20(contractAddress).transferFrom(\r\n            borrowerAddress,\r\n            lenderAddress,\r\n            terms.totalLoanAmountETH\r\n        );\r\n        // external returns (bool);\r\n        // Sends collateral back to borrower and fulfills (destroys) the contract.\r\n        selfdestruct(borrowerAddress);\r\n    }\r\n\r\n    function liquidateLoan() public onlyInState(LoanState.Taken) {\r\n        require(payable(msg.sender) == lenderAddress,\r\n        \"Only the lender can liquidate this loan and collect the collateral.\"\r\n        );\r\n        require(block.timestamp > terms.repayByTimestamp,\r\n        \"You cannot liquidate this loan until the repayment due date has passed.\"\r\n        );\r\n        // Sends collateral to lender and liquidates (destroys) the contract.\r\n        selfdestruct(lenderAddress);\r\n    }\r\n    fallback () external {\r\n        revert();\r\n    }\r\n\r\n}",
  "sourcePath": "D:\\03.block-chain\\01.miquelTC__nft-marketplace\\test-proj\\nft-marketplace-master\\src\\contracts\\ERC20LoanSimple.sol",
  "compiler": {
    "name": "solc",
    "version": "0.8.12+commit.f00d7308.Emscripten.clang"
  },
  "schemaVersion": "3.4.4",
  "updatedAt": "2022-02-22T02:09:40.340Z",
  "devdoc": {
    "kind": "dev",
    "methods": {
      "allowance(address,address)": {
        "details": "See {IERC20-allowance}."
      },
      "approve(address,uint256)": {
        "details": "See {IERC20-approve}. NOTE: If `amount` is the maximum `uint256`, the allowance is not updated on `transferFrom`. This is semantically equivalent to an infinite approval. Requirements: - `spender` cannot be the zero address."
      },
      "balanceOf(address)": {
        "details": "See {IERC20-balanceOf}."
      },
      "decimals()": {
        "details": "Returns the number of decimals used to get its user representation. For example, if `decimals` equals `2`, a balance of `505` tokens should be displayed to a user as `5.05` (`505 / 10 ** 2`). Tokens usually opt for a value of 18, imitating the relationship between Ether and Wei. This is the value {ERC20} uses, unless this function is overridden; NOTE: This information is only used for _display_ purposes: it in no way affects any of the arithmetic of the contract, including {IERC20-balanceOf} and {IERC20-transfer}."
      },
      "decreaseAllowance(address,uint256)": {
        "details": "Atomically decreases the allowance granted to `spender` by the caller. This is an alternative to {approve} that can be used as a mitigation for problems described in {IERC20-approve}. Emits an {Approval} event indicating the updated allowance. Requirements: - `spender` cannot be the zero address. - `spender` must have allowance for the caller of at least `subtractedValue`."
      },
      "increaseAllowance(address,uint256)": {
        "details": "Atomically increases the allowance granted to `spender` by the caller. This is an alternative to {approve} that can be used as a mitigation for problems described in {IERC20-approve}. Emits an {Approval} event indicating the updated allowance. Requirements: - `spender` cannot be the zero address."
      },
      "name()": {
        "details": "Returns the name of the token."
      },
      "symbol()": {
        "details": "Returns the symbol of the token, usually a shorter version of the name."
      },
      "totalSupply()": {
        "details": "See {IERC20-totalSupply}."
      },
      "transfer(address,uint256)": {
        "details": "See {IERC20-transfer}. Requirements: - `to` cannot be the zero address. - the caller must have a balance of at least `amount`."
      },
      "transferFrom(address,address,uint256)": {
        "details": "See {IERC20-transferFrom}. Emits an {Approval} event indicating the updated allowance. This is not required by the EIP. See the note at the beginning of {ERC20}. NOTE: Does not update the allowance if the current allowance is the maximum `uint256`. Requirements: - `from` and `to` cannot be the zero address. - `from` must have a balance of at least `amount`. - the caller must have allowance for ``from``'s tokens of at least `amount`."
      }
    },
    "version": 1
  },
  "userdoc": {
    "kind": "user",
    "methods": {},
    "version": 1
  }
}