{
  "contractName": "SafeERC721Metadata",
  "abi": [
    {
      "inputs": [
        {
          "internalType": "contract IERC721Metadata",
          "name": "_metadata",
          "type": "IERC721Metadata"
        }
      ],
      "name": "safeName",
      "outputs": [
        {
          "internalType": "string",
          "name": "_name",
          "type": "string"
        }
      ],
      "stateMutability": "view",
      "type": "function"
    },
    {
      "inputs": [
        {
          "internalType": "contract IERC721Metadata",
          "name": "_metadata",
          "type": "IERC721Metadata"
        }
      ],
      "name": "safeSymbol",
      "outputs": [
        {
          "internalType": "string",
          "name": "_symbol",
          "type": "string"
        }
      ],
      "stateMutability": "view",
      "type": "function"
    },
    {
      "inputs": [
        {
          "internalType": "contract IERC721Metadata",
          "name": "_metadata",
          "type": "IERC721Metadata"
        },
        {
          "internalType": "uint256",
          "name": "_tokenId",
          "type": "uint256"
        }
      ],
      "name": "safeTokenURI",
      "outputs": [
        {
          "internalType": "string",
          "name": "_tokenURI",
          "type": "string"
        }
      ],
      "stateMutability": "view",
      "type": "function"
    }
  ],
  "bytecode": "0x6106f2610053600b82828239805160001a607314610046577f4e487b7100000000000000000000000000000000000000000000000000000000600052600060045260246000fd5b30600052607381538281f3fe730000000000000000000000000000000000000000301460806040526004361061004b5760003560e01c806335ce8e7f14610050578063639fb21e14610080578063a52a2a2f146100b0575b600080fd5b61006a600480360381019061006591906103fb565b6100e0565b60405161007791906104d4565b60405180910390f35b61009a600480360381019061009591906104f6565b6101b3565b6040516100a791906104d4565b60405180910390f35b6100ca60048036038101906100c591906104f6565b61027a565b6040516100d791906104d4565b60405180910390f35b60608273ffffffffffffffffffffffffffffffffffffffff1663c87b56dd836040518263ffffffff1660e01b815260040161011b9190610532565b600060405180830381865afa92505050801561015a57506040513d6000823e3d601f19601f820116820180604052508101906101579190610673565b60015b6101a8573d806000811461018a576040519150601f19603f3d011682016040523d82523d6000602084013e61018f565b606091505b50604051806020016040528060008152509150506101ad565b809150505b92915050565b60608173ffffffffffffffffffffffffffffffffffffffff166395d89b416040518163ffffffff1660e01b8152600401600060405180830381865afa92505050801561022257506040513d6000823e3d601f19601f8201168201806040525081019061021f9190610673565b60015b610270573d8060008114610252576040519150601f19603f3d011682016040523d82523d6000602084013e610257565b606091505b5060405180602001604052806000815250915050610275565b809150505b919050565b60608173ffffffffffffffffffffffffffffffffffffffff166306fdde036040518163ffffffff1660e01b8152600401600060405180830381865afa9250505080156102e957506040513d6000823e3d601f19601f820116820180604052508101906102e69190610673565b60015b610337573d8060008114610319576040519150601f19603f3d011682016040523d82523d6000602084013e61031e565b606091505b506040518060200160405280600081525091505061033c565b809150505b919050565b6000604051905090565b600080fd5b600080fd5b600073ffffffffffffffffffffffffffffffffffffffff82169050919050565b600061038082610355565b9050919050565b600061039282610375565b9050919050565b6103a281610387565b81146103ad57600080fd5b50565b6000813590506103bf81610399565b92915050565b6000819050919050565b6103d8816103c5565b81146103e357600080fd5b50565b6000813590506103f5816103cf565b92915050565b600080604083850312156104125761041161034b565b5b6000610420858286016103b0565b9250506020610431858286016103e6565b9150509250929050565b600081519050919050565b600082825260208201905092915050565b60005b8381101561047557808201518184015260208101905061045a565b83811115610484576000848401525b50505050565b6000601f19601f8301169050919050565b60006104a68261043b565b6104b08185610446565b93506104c0818560208601610457565b6104c98161048a565b840191505092915050565b600060208201905081810360008301526104ee818461049b565b905092915050565b60006020828403121561050c5761050b61034b565b5b600061051a848285016103b0565b91505092915050565b61052c816103c5565b82525050565b60006020820190506105476000830184610523565b92915050565b600080fd5b600080fd5b7f4e487b7100000000000000000000000000000000000000000000000000000000600052604160045260246000fd5b61058f8261048a565b810181811067ffffffffffffffff821117156105ae576105ad610557565b5b80604052505050565b60006105c1610341565b90506105cd8282610586565b919050565b600067ffffffffffffffff8211156105ed576105ec610557565b5b6105f68261048a565b9050602081019050919050565b6000610616610611846105d2565b6105b7565b90508281526020810184848401111561063257610631610552565b5b61063d848285610457565b509392505050565b600082601f83011261065a5761065961054d565b5b815161066a848260208601610603565b91505092915050565b6000602082840312156106895761068861034b565b5b600082015167ffffffffffffffff8111156106a7576106a6610350565b5b6106b384828501610645565b9150509291505056fea26469706673582212202894cc8f79cb23bd01272b5ab9acad310f4cbdbe22f119a8773c847e68f48b4864736f6c634300080c0033",
  "immutableReferences": {},
  "source": "// SafeERC721Metadata\r\n// SPDX-License-Identifier: GPL-3.0-only\r\npragma solidity ^0.8.0;\r\n\r\nimport { IERC721Metadata } from \"@openzeppelin/contracts/token/ERC721/extensions/IERC721Metadata.sol\";\r\n// import { IERC721Metadata } from \"@openzeppelin/contracts/IERC721Metadata.sol\";\r\n\r\nlibrary SafeERC721Metadata\r\n{\r\n\tfunction safeName(IERC721Metadata _metadata) public view returns (string memory _name)\r\n\t{\r\n\t\ttry _metadata.name() returns (string memory _n) {\r\n\t\t\treturn _n;\r\n\t\t} catch (bytes memory /* _data */) {\r\n\t\t\treturn \"\";\r\n\t\t}\r\n\t}\r\n\r\n\tfunction safeSymbol(IERC721Metadata _metadata) public view returns (string memory _symbol)\r\n\t{\r\n\t\ttry _metadata.symbol() returns (string memory _s) {\r\n\t\t\treturn _s;\r\n\t\t} catch (bytes memory /* _data */) {\r\n\t\t\treturn \"\";\r\n\t\t}\r\n\t}\r\n\r\n\tfunction safeTokenURI(IERC721Metadata _metadata, uint256 _tokenId) public view returns (string memory _tokenURI)\r\n\t{\r\n\t\ttry _metadata.tokenURI(_tokenId) returns (string memory _t) {\r\n\t\t\treturn _t;\r\n\t\t} catch (bytes memory /* _data */) {\r\n\t\t\treturn \"\";\r\n\t\t}\r\n\t}\r\n}\r\n",
  "sourcePath": "D:\\03.block-chain\\01.miquelTC__nft-marketplace\\test-proj\\nft-marketplace-master\\src\\contracts\\Loan NFTfi\\v1.0\\SafeERC721Metadata.sol",
  "compiler": {
    "name": "solc",
    "version": "0.8.12+commit.f00d7308.Emscripten.clang"
  },
  "schemaVersion": "3.4.4",
  "updatedAt": "2022-02-22T12:12:46.910Z",
  "devdoc": {
    "kind": "dev",
    "methods": {},
    "version": 1
  },
  "userdoc": {
    "kind": "user",
    "methods": {},
    "version": 1
  }
}