{
  "contractName": "UUPSUpgradeableMock",
  "abi": [
    {
      "anonymous": false,
      "inputs": [
        {
          "indexed": false,
          "internalType": "address",
          "name": "previousAdmin",
          "type": "address"
        },
        {
          "indexed": false,
          "internalType": "address",
          "name": "newAdmin",
          "type": "address"
        }
      ],
      "name": "AdminChanged",
      "type": "event"
    },
    {
      "anonymous": false,
      "inputs": [
        {
          "indexed": true,
          "internalType": "address",
          "name": "beacon",
          "type": "address"
        }
      ],
      "name": "BeaconUpgraded",
      "type": "event"
    },
    {
      "anonymous": false,
      "inputs": [
        {
          "indexed": true,
          "internalType": "address",
          "name": "implementation",
          "type": "address"
        }
      ],
      "name": "Upgraded",
      "type": "event"
    },
    {
      "inputs": [],
      "name": "current",
      "outputs": [
        {
          "internalType": "uint256",
          "name": "",
          "type": "uint256"
        }
      ],
      "stateMutability": "view",
      "type": "function"
    },
    {
      "inputs": [],
      "name": "decrement",
      "outputs": [],
      "stateMutability": "nonpayable",
      "type": "function"
    },
    {
      "inputs": [],
      "name": "increment",
      "outputs": [],
      "stateMutability": "nonpayable",
      "type": "function"
    },
    {
      "inputs": [],
      "name": "proxiableUUID",
      "outputs": [
        {
          "internalType": "bytes32",
          "name": "",
          "type": "bytes32"
        }
      ],
      "stateMutability": "view",
      "type": "function"
    },
    {
      "inputs": [],
      "name": "reset",
      "outputs": [],
      "stateMutability": "nonpayable",
      "type": "function"
    },
    {
      "inputs": [
        {
          "internalType": "address",
          "name": "newImplementation",
          "type": "address"
        }
      ],
      "name": "upgradeTo",
      "outputs": [],
      "stateMutability": "nonpayable",
      "type": "function"
    },
    {
      "inputs": [
        {
          "internalType": "address",
          "name": "newImplementation",
          "type": "address"
        },
        {
          "internalType": "bytes",
          "name": "data",
          "type": "bytes"
        }
      ],
      "name": "upgradeToAndCall",
      "outputs": [],
      "stateMutability": "payable",
      "type": "function"
    }
  ],
  "bytecode": "0x60a06040523073ffffffffffffffffffffffffffffffffffffffff1660809073ffffffffffffffffffffffffffffffffffffffff1681525034801561004357600080fd5b506080516112fb61007b60003960008181610163015281816101f2015281816102ec0152818161037b015261042b01526112fb6000f3fe6080604052600436106100705760003560e01c806352d1902d1161004e57806352d1902d146100d15780639fa6a6e3146100fc578063d09de08a14610127578063d826f88f1461013e57610070565b80632baeceb7146100755780633659cfe61461008c5780634f1ef286146100b5575b600080fd5b34801561008157600080fd5b5061008a610155565b005b34801561009857600080fd5b506100b360048036038101906100ae9190610a9c565b610161565b005b6100cf60048036038101906100ca9190610c0f565b6102ea565b005b3480156100dd57600080fd5b506100e6610427565b6040516100f39190610c84565b60405180910390f35b34801561010857600080fd5b506101116104e0565b60405161011e9190610cb8565b60405180910390f35b34801561013357600080fd5b5061013c6104f1565b005b34801561014a57600080fd5b506101536104fd565b005b61015f6000610509565b565b7f000000000000000000000000000000000000000000000000000000000000000073ffffffffffffffffffffffffffffffffffffffff163073ffffffffffffffffffffffffffffffffffffffff1614156101f0576040517f08c379a00000000000000000000000000000000000000000000000000000000081526004016101e790610d56565b60405180910390fd5b7f000000000000000000000000000000000000000000000000000000000000000073ffffffffffffffffffffffffffffffffffffffff1661022f610565565b73ffffffffffffffffffffffffffffffffffffffff1614610285576040517f08c379a000000000000000000000000000000000000000000000000000000000815260040161027c90610de8565b60405180910390fd5b61028e816105bc565b6102e781600067ffffffffffffffff8111156102ad576102ac610ae4565b5b6040519080825280601f01601f1916602001820160405280156102df5781602001600182028036833780820191505090505b5060006105bf565b50565b7f000000000000000000000000000000000000000000000000000000000000000073ffffffffffffffffffffffffffffffffffffffff163073ffffffffffffffffffffffffffffffffffffffff161415610379576040517f08c379a000000000000000000000000000000000000000000000000000000000815260040161037090610d56565b60405180910390fd5b7f000000000000000000000000000000000000000000000000000000000000000073ffffffffffffffffffffffffffffffffffffffff166103b8610565565b73ffffffffffffffffffffffffffffffffffffffff161461040e576040517f08c379a000000000000000000000000000000000000000000000000000000000815260040161040590610de8565b60405180910390fd5b610417826105bc565b610423828260016105bf565b5050565b60007f000000000000000000000000000000000000000000000000000000000000000073ffffffffffffffffffffffffffffffffffffffff163073ffffffffffffffffffffffffffffffffffffffff16146104b7576040517f08c379a00000000000000000000000000000000000000000000000000000000081526004016104ae90610e7a565b60405180910390fd5b7f360894a13ba1a3210667c828492db98dca3e2076cc3735a920a3ca505d382bbc60001b905090565b60006104ec600061072d565b905090565b6104fb600061073b565b565b6105076000610751565b565b60008160000154905060008111610555576040517f08c379a000000000000000000000000000000000000000000000000000000000815260040161054c90610ee6565b60405180910390fd5b6001810382600001819055505050565b60006105937f360894a13ba1a3210667c828492db98dca3e2076cc3735a920a3ca505d382bbc60001b61075e565b60000160009054906101000a900473ffffffffffffffffffffffffffffffffffffffff16905090565b50565b6105eb7f4910fdfa16fed3260ed0e7147f7cc6da11a60208b5b9406d12a635614ffd914360001b610768565b60000160009054906101000a900460ff161561060f5761060a83610772565b610728565b8273ffffffffffffffffffffffffffffffffffffffff166352d1902d6040518163ffffffff1660e01b8152600401602060405180830381865afa92505050801561067757506040513d601f19601f820116820180604052508101906106749190610f32565b60015b6106b6576040517f08c379a00000000000000000000000000000000000000000000000000000000081526004016106ad90610fd1565b60405180910390fd5b7f360894a13ba1a3210667c828492db98dca3e2076cc3735a920a3ca505d382bbc60001b811461071b576040517f08c379a000000000000000000000000000000000000000000000000000000000815260040161071290611063565b60405180910390fd5b5061072783838361082b565b5b505050565b600081600001549050919050565b6001816000016000828254019250508190555050565b6000816000018190555050565b6000819050919050565b6000819050919050565b61077b81610857565b6107ba576040517f08c379a00000000000000000000000000000000000000000000000000000000081526004016107b1906110f5565b60405180910390fd5b806107e77f360894a13ba1a3210667c828492db98dca3e2076cc3735a920a3ca505d382bbc60001b61075e565b60000160006101000a81548173ffffffffffffffffffffffffffffffffffffffff021916908373ffffffffffffffffffffffffffffffffffffffff16021790555050565b6108348361087a565b6000825111806108415750805b156108525761085083836108c9565b505b505050565b6000808273ffffffffffffffffffffffffffffffffffffffff163b119050919050565b61088381610772565b8073ffffffffffffffffffffffffffffffffffffffff167fbc7cd75a20ee27fd9adebab32041f755214dbc6bffa90cc0225b39da2e5c2d3b60405160405180910390a250565b60606108ee838360405180606001604052806027815260200161129f602791396108f6565b905092915050565b606061090184610857565b610940576040517f08c379a000000000000000000000000000000000000000000000000000000000815260040161093790611187565b60405180910390fd5b6000808573ffffffffffffffffffffffffffffffffffffffff16856040516109689190611221565b600060405180830381855af49150503d80600081146109a3576040519150601f19603f3d011682016040523d82523d6000602084013e6109a8565b606091505b50915091506109b88282866109c3565b925050509392505050565b606083156109d357829050610a23565b6000835111156109e65782518084602001fd5b816040517f08c379a0000000000000000000000000000000000000000000000000000000008152600401610a1a919061127c565b60405180910390fd5b9392505050565b6000604051905090565b600080fd5b600080fd5b600073ffffffffffffffffffffffffffffffffffffffff82169050919050565b6000610a6982610a3e565b9050919050565b610a7981610a5e565b8114610a8457600080fd5b50565b600081359050610a9681610a70565b92915050565b600060208284031215610ab257610ab1610a34565b5b6000610ac084828501610a87565b91505092915050565b600080fd5b600080fd5b6000601f19601f8301169050919050565b7f4e487b7100000000000000000000000000000000000000000000000000000000600052604160045260246000fd5b610b1c82610ad3565b810181811067ffffffffffffffff82111715610b3b57610b3a610ae4565b5b80604052505050565b6000610b4e610a2a565b9050610b5a8282610b13565b919050565b600067ffffffffffffffff821115610b7a57610b79610ae4565b5b610b8382610ad3565b9050602081019050919050565b82818337600083830152505050565b6000610bb2610bad84610b5f565b610b44565b905082815260208101848484011115610bce57610bcd610ace565b5b610bd9848285610b90565b509392505050565b600082601f830112610bf657610bf5610ac9565b5b8135610c06848260208601610b9f565b91505092915050565b60008060408385031215610c2657610c25610a34565b5b6000610c3485828601610a87565b925050602083013567ffffffffffffffff811115610c5557610c54610a39565b5b610c6185828601610be1565b9150509250929050565b6000819050919050565b610c7e81610c6b565b82525050565b6000602082019050610c996000830184610c75565b92915050565b6000819050919050565b610cb281610c9f565b82525050565b6000602082019050610ccd6000830184610ca9565b92915050565b600082825260208201905092915050565b7f46756e6374696f6e206d7573742062652063616c6c6564207468726f7567682060008201527f64656c656761746563616c6c0000000000000000000000000000000000000000602082015250565b6000610d40602c83610cd3565b9150610d4b82610ce4565b604082019050919050565b60006020820190508181036000830152610d6f81610d33565b9050919050565b7f46756e6374696f6e206d7573742062652063616c6c6564207468726f7567682060008201527f6163746976652070726f78790000000000000000000000000000000000000000602082015250565b6000610dd2602c83610cd3565b9150610ddd82610d76565b604082019050919050565b60006020820190508181036000830152610e0181610dc5565b9050919050565b7f555550535570677261646561626c653a206d757374206e6f742062652063616c60008201527f6c6564207468726f7567682064656c656761746563616c6c0000000000000000602082015250565b6000610e64603883610cd3565b9150610e6f82610e08565b604082019050919050565b60006020820190508181036000830152610e9381610e57565b9050919050565b7f436f756e7465723a2064656372656d656e74206f766572666c6f770000000000600082015250565b6000610ed0601b83610cd3565b9150610edb82610e9a565b602082019050919050565b60006020820190508181036000830152610eff81610ec3565b9050919050565b610f0f81610c6b565b8114610f1a57600080fd5b50565b600081519050610f2c81610f06565b92915050565b600060208284031215610f4857610f47610a34565b5b6000610f5684828501610f1d565b91505092915050565b7f45524331393637557067726164653a206e657720696d706c656d656e7461746960008201527f6f6e206973206e6f742055555053000000000000000000000000000000000000602082015250565b6000610fbb602e83610cd3565b9150610fc682610f5f565b604082019050919050565b60006020820190508181036000830152610fea81610fae565b9050919050565b7f45524331393637557067726164653a20756e737570706f727465642070726f7860008201527f6961626c65555549440000000000000000000000000000000000000000000000602082015250565b600061104d602983610cd3565b915061105882610ff1565b604082019050919050565b6000602082019050818103600083015261107c81611040565b9050919050565b7f455243313936373a206e657720696d706c656d656e746174696f6e206973206e60008201527f6f74206120636f6e747261637400000000000000000000000000000000000000602082015250565b60006110df602d83610cd3565b91506110ea82611083565b604082019050919050565b6000602082019050818103600083015261110e816110d2565b9050919050565b7f416464726573733a2064656c65676174652063616c6c20746f206e6f6e2d636f60008201527f6e74726163740000000000000000000000000000000000000000000000000000602082015250565b6000611171602683610cd3565b915061117c82611115565b604082019050919050565b600060208201905081810360008301526111a081611164565b9050919050565b600081519050919050565b600081905092915050565b60005b838110156111db5780820151818401526020810190506111c0565b838111156111ea576000848401525b50505050565b60006111fb826111a7565b61120581856111b2565b93506112158185602086016111bd565b80840191505092915050565b600061122d82846111f0565b915081905092915050565b600081519050919050565b600061124e82611238565b6112588185610cd3565b93506112688185602086016111bd565b61127181610ad3565b840191505092915050565b600060208201905081810360008301526112968184611243565b90509291505056fe416464726573733a206c6f772d6c6576656c2064656c65676174652063616c6c206661696c6564a26469706673582212206521904a866d94befa7ee6e2720ccfaad97ae3c4d4436e9d5eb8dbc1a1c2efd064736f6c634300080b0033",
  "immutableReferences": {
    "20846": [
      {
        "length": 32,
        "start": 355
      },
      {
        "length": 32,
        "start": 498
      },
      {
        "length": 32,
        "start": 748
      },
      {
        "length": 32,
        "start": 891
      },
      {
        "length": 32,
        "start": 1067
      }
    ]
  },
  "source": "// SPDX-License-Identifier: MIT\n\npragma solidity ^0.8.0;\n\nimport \"../CountersImpl.sol\";\nimport \"../../proxy/utils/UUPSUpgradeable.sol\";\n\ncontract UUPSUpgradeableMock is CountersImpl, UUPSUpgradeable {\n    // Not having any checks in this function is dangerous! Do not do this outside tests!\n    function _authorizeUpgrade(address) internal virtual override {}\n}\n\ncontract UUPSUpgradeableUnsafeMock is UUPSUpgradeableMock {\n    function upgradeTo(address newImplementation) external virtual override {\n        ERC1967Upgrade._upgradeToAndCall(newImplementation, bytes(\"\"), false);\n    }\n\n    function upgradeToAndCall(address newImplementation, bytes memory data) external payable virtual override {\n        ERC1967Upgrade._upgradeToAndCall(newImplementation, data, false);\n    }\n}\n",
  "sourcePath": "D:\\03.block-chain\\01.miquelTC__nft-marketplace\\test-proj\\nft-marketplace-master\\src\\contracts\\ERC721\\mocks\\UUPS\\UUPSUpgradeableMock.sol",
  "compiler": {
    "name": "solc",
    "version": "0.8.11+commit.d7f03943.Emscripten.clang"
  },
  "schemaVersion": "3.4.4",
  "updatedAt": "2022-02-16T02:59:58.951Z",
  "devdoc": {
    "kind": "dev",
    "methods": {
      "proxiableUUID()": {
        "details": "Implementation of the ERC1822 {proxiableUUID} function. This returns the storage slot used by the implementation. It is used to validate that the this implementation remains valid after an upgrade. IMPORTANT: A proxy pointing at a proxiable contract should not be considered proxiable itself, because this risks bricking a proxy that upgrades to it, by delegating to itself until out of gas. Thus it is critical that this function revert if invoked through a proxy. This is guaranteed by the `notDelegated` modifier."
      },
      "upgradeTo(address)": {
        "details": "Upgrade the implementation of the proxy to `newImplementation`. Calls {_authorizeUpgrade}. Emits an {Upgraded} event."
      },
      "upgradeToAndCall(address,bytes)": {
        "details": "Upgrade the implementation of the proxy to `newImplementation`, and subsequently execute the function call encoded in `data`. Calls {_authorizeUpgrade}. Emits an {Upgraded} event."
      }
    },
    "version": 1
  },
  "userdoc": {
    "kind": "user",
    "methods": {},
    "version": 1
  }
}