{
  "contractName": "UUPSUpgradeableUnsafeMock",
  "abi": [
    {
      "anonymous": false,
      "inputs": [
        {
          "indexed": false,
          "internalType": "address",
          "name": "previousAdmin",
          "type": "address"
        },
        {
          "indexed": false,
          "internalType": "address",
          "name": "newAdmin",
          "type": "address"
        }
      ],
      "name": "AdminChanged",
      "type": "event"
    },
    {
      "anonymous": false,
      "inputs": [
        {
          "indexed": true,
          "internalType": "address",
          "name": "beacon",
          "type": "address"
        }
      ],
      "name": "BeaconUpgraded",
      "type": "event"
    },
    {
      "anonymous": false,
      "inputs": [
        {
          "indexed": true,
          "internalType": "address",
          "name": "implementation",
          "type": "address"
        }
      ],
      "name": "Upgraded",
      "type": "event"
    },
    {
      "inputs": [],
      "name": "current",
      "outputs": [
        {
          "internalType": "uint256",
          "name": "",
          "type": "uint256"
        }
      ],
      "stateMutability": "view",
      "type": "function"
    },
    {
      "inputs": [],
      "name": "decrement",
      "outputs": [],
      "stateMutability": "nonpayable",
      "type": "function"
    },
    {
      "inputs": [],
      "name": "increment",
      "outputs": [],
      "stateMutability": "nonpayable",
      "type": "function"
    },
    {
      "inputs": [],
      "name": "proxiableUUID",
      "outputs": [
        {
          "internalType": "bytes32",
          "name": "",
          "type": "bytes32"
        }
      ],
      "stateMutability": "view",
      "type": "function"
    },
    {
      "inputs": [],
      "name": "reset",
      "outputs": [],
      "stateMutability": "nonpayable",
      "type": "function"
    },
    {
      "inputs": [
        {
          "internalType": "address",
          "name": "newImplementation",
          "type": "address"
        }
      ],
      "name": "upgradeTo",
      "outputs": [],
      "stateMutability": "nonpayable",
      "type": "function"
    },
    {
      "inputs": [
        {
          "internalType": "address",
          "name": "newImplementation",
          "type": "address"
        },
        {
          "internalType": "bytes",
          "name": "data",
          "type": "bytes"
        }
      ],
      "name": "upgradeToAndCall",
      "outputs": [],
      "stateMutability": "payable",
      "type": "function"
    }
  ],
  "bytecode": "0x60a06040523073ffffffffffffffffffffffffffffffffffffffff1660809073ffffffffffffffffffffffffffffffffffffffff1681525034801561004357600080fd5b50608051610bf061005f60003960006101930152610bf06000f3fe6080604052600436106100705760003560e01c806352d1902d1161004e57806352d1902d146100d15780639fa6a6e3146100fc578063d09de08a14610127578063d826f88f1461013e57610070565b80632baeceb7146100755780633659cfe61461008c5780634f1ef286146100b5575b600080fd5b34801561008157600080fd5b5061008a610155565b005b34801561009857600080fd5b506100b360048036038101906100ae9190610632565b610161565b005b6100cf60048036038101906100ca91906107a5565b61017f565b005b3480156100dd57600080fd5b506100e661018f565b6040516100f3919061081a565b60405180910390f35b34801561010857600080fd5b50610111610248565b60405161011e919061084e565b60405180910390f35b34801561013357600080fd5b5061013c610259565b005b34801561014a57600080fd5b50610153610265565b005b61015f6000610271565b565b61017c816040518060200160405280600081525060006102cd565b50565b61018b828260006102cd565b5050565b60007f000000000000000000000000000000000000000000000000000000000000000073ffffffffffffffffffffffffffffffffffffffff163073ffffffffffffffffffffffffffffffffffffffff161461021f576040517f08c379a0000000000000000000000000000000000000000000000000000000008152600401610216906108ec565b60405180910390fd5b7f360894a13ba1a3210667c828492db98dca3e2076cc3735a920a3ca505d382bbc60001b905090565b600061025460006102f9565b905090565b6102636000610307565b565b61026f600061031d565b565b600081600001549050600081116102bd576040517f08c379a00000000000000000000000000000000000000000000000000000000081526004016102b490610958565b60405180910390fd5b6001810382600001819055505050565b6102d68361032a565b6000825111806102e35750805b156102f4576102f28383610379565b505b505050565b600081600001549050919050565b6001816000016000828254019250508190555050565b6000816000018190555050565b610333816103a6565b8073ffffffffffffffffffffffffffffffffffffffff167fbc7cd75a20ee27fd9adebab32041f755214dbc6bffa90cc0225b39da2e5c2d3b60405160405180910390a250565b606061039e8383604051806060016040528060278152602001610b946027913961045f565b905092915050565b6103af8161052c565b6103ee576040517f08c379a00000000000000000000000000000000000000000000000000000000081526004016103e5906109ea565b60405180910390fd5b8061041b7f360894a13ba1a3210667c828492db98dca3e2076cc3735a920a3ca505d382bbc60001b61054f565b60000160006101000a81548173ffffffffffffffffffffffffffffffffffffffff021916908373ffffffffffffffffffffffffffffffffffffffff16021790555050565b606061046a8461052c565b6104a9576040517f08c379a00000000000000000000000000000000000000000000000000000000081526004016104a090610a7c565b60405180910390fd5b6000808573ffffffffffffffffffffffffffffffffffffffff16856040516104d19190610b16565b600060405180830381855af49150503d806000811461050c576040519150601f19603f3d011682016040523d82523d6000602084013e610511565b606091505b5091509150610521828286610559565b925050509392505050565b6000808273ffffffffffffffffffffffffffffffffffffffff163b119050919050565b6000819050919050565b60608315610569578290506105b9565b60008351111561057c5782518084602001fd5b816040517f08c379a00000000000000000000000000000000000000000000000000000000081526004016105b09190610b71565b60405180910390fd5b9392505050565b6000604051905090565b600080fd5b600080fd5b600073ffffffffffffffffffffffffffffffffffffffff82169050919050565b60006105ff826105d4565b9050919050565b61060f816105f4565b811461061a57600080fd5b50565b60008135905061062c81610606565b92915050565b600060208284031215610648576106476105ca565b5b60006106568482850161061d565b91505092915050565b600080fd5b600080fd5b6000601f19601f8301169050919050565b7f4e487b7100000000000000000000000000000000000000000000000000000000600052604160045260246000fd5b6106b282610669565b810181811067ffffffffffffffff821117156106d1576106d061067a565b5b80604052505050565b60006106e46105c0565b90506106f082826106a9565b919050565b600067ffffffffffffffff8211156107105761070f61067a565b5b61071982610669565b9050602081019050919050565b82818337600083830152505050565b6000610748610743846106f5565b6106da565b90508281526020810184848401111561076457610763610664565b5b61076f848285610726565b509392505050565b600082601f83011261078c5761078b61065f565b5b813561079c848260208601610735565b91505092915050565b600080604083850312156107bc576107bb6105ca565b5b60006107ca8582860161061d565b925050602083013567ffffffffffffffff8111156107eb576107ea6105cf565b5b6107f785828601610777565b9150509250929050565b6000819050919050565b61081481610801565b82525050565b600060208201905061082f600083018461080b565b92915050565b6000819050919050565b61084881610835565b82525050565b6000602082019050610863600083018461083f565b92915050565b600082825260208201905092915050565b7f555550535570677261646561626c653a206d757374206e6f742062652063616c60008201527f6c6564207468726f7567682064656c656761746563616c6c0000000000000000602082015250565b60006108d6603883610869565b91506108e18261087a565b604082019050919050565b60006020820190508181036000830152610905816108c9565b9050919050565b7f436f756e7465723a2064656372656d656e74206f766572666c6f770000000000600082015250565b6000610942601b83610869565b915061094d8261090c565b602082019050919050565b6000602082019050818103600083015261097181610935565b9050919050565b7f455243313936373a206e657720696d706c656d656e746174696f6e206973206e60008201527f6f74206120636f6e747261637400000000000000000000000000000000000000602082015250565b60006109d4602d83610869565b91506109df82610978565b604082019050919050565b60006020820190508181036000830152610a03816109c7565b9050919050565b7f416464726573733a2064656c65676174652063616c6c20746f206e6f6e2d636f60008201527f6e74726163740000000000000000000000000000000000000000000000000000602082015250565b6000610a66602683610869565b9150610a7182610a0a565b604082019050919050565b60006020820190508181036000830152610a9581610a59565b9050919050565b600081519050919050565b600081905092915050565b60005b83811015610ad0578082015181840152602081019050610ab5565b83811115610adf576000848401525b50505050565b6000610af082610a9c565b610afa8185610aa7565b9350610b0a818560208601610ab2565b80840191505092915050565b6000610b228284610ae5565b915081905092915050565b600081519050919050565b6000610b4382610b2d565b610b4d8185610869565b9350610b5d818560208601610ab2565b610b6681610669565b840191505092915050565b60006020820190508181036000830152610b8b8184610b38565b90509291505056fe416464726573733a206c6f772d6c6576656c2064656c65676174652063616c6c206661696c6564a2646970667358221220f001cd403240575ac9576d88b353439eb517f06a68dc578e38c0f764adb40e4564736f6c634300080b0033",
  "immutableReferences": {
    "20846": [
      {
        "length": 32,
        "start": 403
      }
    ]
  },
  "source": "// SPDX-License-Identifier: MIT\n\npragma solidity ^0.8.0;\n\nimport \"../CountersImpl.sol\";\nimport \"../../proxy/utils/UUPSUpgradeable.sol\";\n\ncontract UUPSUpgradeableMock is CountersImpl, UUPSUpgradeable {\n    // Not having any checks in this function is dangerous! Do not do this outside tests!\n    function _authorizeUpgrade(address) internal virtual override {}\n}\n\ncontract UUPSUpgradeableUnsafeMock is UUPSUpgradeableMock {\n    function upgradeTo(address newImplementation) external virtual override {\n        ERC1967Upgrade._upgradeToAndCall(newImplementation, bytes(\"\"), false);\n    }\n\n    function upgradeToAndCall(address newImplementation, bytes memory data) external payable virtual override {\n        ERC1967Upgrade._upgradeToAndCall(newImplementation, data, false);\n    }\n}\n",
  "sourcePath": "D:\\03.block-chain\\01.miquelTC__nft-marketplace\\test-proj\\nft-marketplace-master\\src\\contracts\\ERC721\\mocks\\UUPS\\UUPSUpgradeableMock.sol",
  "compiler": {
    "name": "solc",
    "version": "0.8.11+commit.d7f03943.Emscripten.clang"
  },
  "schemaVersion": "3.4.4",
  "updatedAt": "2022-02-16T02:59:58.956Z",
  "devdoc": {
    "kind": "dev",
    "methods": {
      "proxiableUUID()": {
        "details": "Implementation of the ERC1822 {proxiableUUID} function. This returns the storage slot used by the implementation. It is used to validate that the this implementation remains valid after an upgrade. IMPORTANT: A proxy pointing at a proxiable contract should not be considered proxiable itself, because this risks bricking a proxy that upgrades to it, by delegating to itself until out of gas. Thus it is critical that this function revert if invoked through a proxy. This is guaranteed by the `notDelegated` modifier."
      },
      "upgradeTo(address)": {
        "details": "Upgrade the implementation of the proxy to `newImplementation`. Calls {_authorizeUpgrade}. Emits an {Upgraded} event."
      },
      "upgradeToAndCall(address,bytes)": {
        "details": "Upgrade the implementation of the proxy to `newImplementation`, and subsequently execute the function call encoded in `data`. Calls {_authorizeUpgrade}. Emits an {Upgraded} event."
      }
    },
    "version": 1
  },
  "userdoc": {
    "kind": "user",
    "methods": {},
    "version": 1
  }
}